:020000040800F2
:10000000A03A002099010008A1010008A3010008FE
:1000100000000000000000000000000000000000E0
:10002000000000000000000000000000A501000822
:100030000000000000000000A7010008011C0008EB
:10004000AB010008AB010008AB010008AB010008E0
:10005000AB010008AB010008FD190008AB01000866
:10006000AB010008E1150008AB010008AB01000876
:10007000AB010008AB010008AB010008AB010008B0
:10008000AB010008AB010008AB010008AB010008A0
:10009000AB010008AB010008AB010008AB01000890
:1000A000AB010008AB010008AB010008AB01000880
:1000B000AB010008AB01000849120008AB010008C1
:1000C00000F002F800F03DF80CA030C80838241801
:1000D0002D18A246671EAB4654465D46AC4201D180
:1000E00000F02FF87E460F3E0FCCB6460126334275
:1000F00000D0FB1AA246AB463343184774490000B0
:10010000944900000023002400250026103A01D362
:1001100078C1FBD8520700D330C100D50B607047BF
:1001200010B5752902D100F0EDF810BD632902D198
:1001300000F096FD10BD002010BD1FB51FBD10B50D
:1001400010BD00F0ADFD1146FFF7F7FF03F024FBF3
:1001500000F0C5FD03B4FFF7F2FF03BC00F0CCFDD7
:1001600070B505460C46164602E00FCC0FC5103E92
:10017000102EFAD2082E02D303CC03C5083E042E5B
:1001800007D301CC01C5361F03E021782970641C18
:100190006D1C761EF9D270BD21488047214800476A
:1001A000FEE7FEE7FEE7FEE7FEE7FEE701B281427B
:1001B00002D0C1171C484840704770B502290DDDB8
:1001C0004B089D00445FA24204DDC91A284402295D
:1001D000F6DC03E0013319460229F1DC818809B21B
:1001E000C5882DB2048824B2408800B2091B0FD004
:1001F000121B0646281A5043C517CA1755404A1005
:100200006A40521B801800F03CFA3044FFF7CEFFE2
:1002100070BD000005480649064A074B70470000BC
:10022000591C0008C1000008FF7F0000A034002016
:10023000A03A0020A0360020A03600200FB41CB544
:10024000074B06AA7B4469460090059800F0E5FC40
:100250000020694600F0F4FC1CBC08BC04B0184740
:10026000F909000070B5044685690068C10601D52A
:10027000302600E02026C00707D070BD62683046F7
:10028000A1689047206A401C20626D1EF6D570BDA3
:1002900070B5044685690078C00707D170BD6268F3
:1002A000A16820209047206A401C20626D1EF6D570
:1002B00070BD70B50C460546012A05D02878800629
:1002C00000D5EA69002302E0012305E05B1C9342AC
:1002D00002D2E05C0028F9D1A869E618C01AA8612A
:1002E000286AC01828622846FFF7BCFF04E06A6845
:1002F0002078A968641C9047B442F8D32846FFF7D9
:10030000C7FF70BDF7B5002575291068009914A6C0
:1003100011D0C046C046002802DA404211A608E0CB
:10032000009909688A0701D50FA602E0490704D59C
:100330000EA6012501E0C046C046009F00242437D8
:1003400004E000F099FC30313955641C0028F8D1E4
:100350002B4632462146009800F002FCFEBD00000C
:10036000000000002D0000002B0000002000000015
:10037000F3B50446002081B020622046E16888473A
:1003800000287DD0252802D06268A16883E0454F0F
:1003900000257F442046E16888472028064608DB80
:1003A000312E06D2B81920380078002801D0054334
:1003B000F0E7A80701D5042085430020E061074647
:1003C000A0612A2E0AD0304601F0D4FC002827D0A4
:1003D000B8000019303E0090866119E00298BA001A
:1003E000121902C8916102902046E1688847012FE6
:1003F000064617D1E06900281FDA202085431CE05B
:1004000000980A2180694843009980193038886132
:100410002046E1688847064601F0ACFC0028EFD191
:10042000012F0AD02E2E08D12046E16888470646C3
:10043000202005437F1C022FC3DBA069002803DABC
:100440004042A06101200543E80701D01020854308
:10045000002E24D030464138192803D80120C0028C
:1004600005432036204625603146029A1546FFF79F
:1004700057FE00280CD0012807D0ED1DE80800E049
:100480000DE0C0000830029077E72D1D029574E75B
:1004900062683046A1689047206A401C6CE7206A79
:1004A000FEBD0000C6460000034610B50B439B0787
:1004B0000FD1042A0DD308C810C9121FA342F8D0C7
:1004C00018BA21BA884201D9012010BD0020C043CA
:1004D00010BD002A03D0D30703D0521C07E0002030
:1004E00010BD03780C78401C491C1B1B07D10378F6
:1004F0000C78401C491C1B1B01D1921EF1D11846DF
:1005000010BD00000346F0B50B439B072DD1244DD1
:10051000EF01042A29D308C810C95E1B9E43121F8D
:100520003E4017D0D8B2E1B2401A3106014310D193
:1005300098B2A1B2401A310401430AD11802210233
:10054000000A090A401A3102014302D1180E210E95
:10055000401AF0BDA342DCD018BA21BA884201D9B2
:100560000120F0BD0020C043F0BD002A01D10020D1
:10057000F0BD03780C78401C491C002B0DD0A34221
:100580000BD1521E09D003780C78401C491C002B5B
:1005900003D0A34201D1521EEBD1181BF0BD0000C5
:1005A00001010101F8B5042A2CD3830712D00B787E
:1005B000491C0370401C521E83070BD00B78491C4A
:1005C0000370401C521E830704D00B78491C037033
:1005D000401C521E8B079B0F05D0C91ADF00202339
:1005E000DE1B08C90AE0FFF7BBFDF8BD1D4608C9C0
:1005F000FD401C46B4402C4310C0121F042AF5D203
:10060000F308C91A521EF0D40B78491C0370401C21
:10061000521EEAD40B78491C0370401C012AE4D412
:1006200009780170F8BD01E004C0091F0429FBD25C
:100630008B0701D50280801CC90700D0027070476B
:1006400000290BD0C30702D00270401C491E0229AA
:1006500004D3830702D50280801C891EE3E70022B1
:10066000EEE70022DFE7002203098B4273D3030A7F
:100670008B4258D3030B8B423CD3030C8B4221D3C8
:1006800012E003460B437FD4002243088B4274D30D
:1006900003098B425FD3030A8B4244D3030B8B4283
:1006A00028D3030C8B420DD3FF22090212BA030C8C
:1006B0008B4202D31212090265D0030B8B4219D36D
:1006C00000E0090AC30B8B4201D3CB03C01A52418D
:1006D000830B8B4201D38B03C01A5241430B8B42D5
:1006E00001D34B03C01A5241030B8B4201D30B03BE
:1006F000C01A5241C30A8B4201D3CB02C01A5241E5
:10070000830A8B4201D38B02C01A5241430A8B42A7
:1007100001D34B02C01A5241030A8B4201D30B0290
:10072000C01A5241CDD2C3098B4201D3CB01C01AAA
:10073000524183098B4201D38B01C01A52414309B4
:100740008B4201D34B01C01A524103098B4201D3A2
:100750000B01C01A5241C3088B4201D3CB00C01A0F
:10076000524183088B4201D38B00C01A5241430887
:100770008B4201D34B00C01A5241411A00D20146AC
:100780005241104670475DE0CA0F00D04942031045
:1007900000D34042534000229C4603098B422DD394
:1007A000030A8B4212D3FC22890112BA030A8B423C
:1007B0000CD3890192118B4208D3890192118B428B
:1007C00004D389013AD0921100E08909C3098B4210
:1007D00001D3CB01C01A524183098B4201D38B0153
:1007E000C01A524143098B4201D34B01C01A5241F6
:1007F00003098B4201D30B01C01A5241C3088B423B
:1008000001D3CB00C01A524183088B4201D38B0025
:10081000C01A5241D9D243088B4201D34B00C01AAF
:100820005241411A00D20146634652415B101046C4
:1008300001D34042002B00D54942704763465B100C
:1008400000D3404201B50020C046C04602BD7047FB
:100850007047704730B50346CA02400D1043164D2D
:10086000164C0A1502D02043002A06DBAA1A002AD9
:1008700012DDD040FF2A0BDC30BD5205520D01D1F4
:1008800040004008AA1A07D4D0404042FF2A01DDA8
:10089000002030BD0028FCDD4A00002B01D00120E3
:1008A00000E00020101801225205D042F0D8C817ED
:1008B000C043604030BD00001E0400000000008006
:1008C0001F22030C02D10F22000402D0030E03D01A
:1008D00004E00020014670470002083A030F01D1EE
:1008E0000001121F830F01D18000921E002801DB3E
:1008F0004000521E120551184205C0124118104600
:100900007047C10FC90700D040420122920711432E
:10091000D6E701218907D3E7F0B58B4C0F092546AF
:1009200089B0BD437BD01D092646AE43FAD00E46A2
:100930005E402740F60F3E43254071D024012142FE
:10094000FBD0FF24AD19A4042D1B039501252D0513
:10095000DB02DB0AC9022B43C90A29431E01090134
:10096000040F130F050121431701880B82039143E4
:100970002D098C46A90B1E438A039543B30B9A039A
:1009800096433F09BA0B9403A74302962E467E4333
:100990000497B6464E19D7190C460196544305974D
:1009A0007E43371B7646BF1B3601B646BE0B361953
:1009B00000967646BC043719009C01D3641C009451
:1009C0006400002F01D001263443029E049F75432A
:1009D00066467E430496760034196E0034190094FE
:1009E000029C019E1C196643751BAE460694654623
:1009F0004519059C05956C43594375460891691A3C
:100A00000191049E01465143A41B0491611A009C6C
:100A10000791E10605D061090122114302E072E06D
:100A20006EE06109089D00272C0A2D066918049DB7
:100A30007C412A0A2D066918019D6241AC0DAD0268
:100A40006D185441079A910D920255196141029A0D
:100A5000644658435443069B059A5A43121A131B83
:100A60009A0E9B015B187A41010B0005C318514196
:100A7000220A200644195A419A4200D2491C0120F8
:100A80004002814203D315230226F64302E01423D9
:100A90000326F6432020C51AA9401746AF40DA4086
:100AA0000A4320460399D8400914731819055118B0
:100AB000039A3843D2075140AC4009D001229440F8
:100AC00006D30022401C5141002C01D140084000B7
:100AD0001E4A934212D3012203989206904207DBEA
:100AE0000520400709181A480143C012414004E09C
:100AF000032040070818C10FC907002009B0F0BD46
:100B00000020F107FAE705180C464C4111486D42E8
:100B1000A04115D394181A465A410E486442904198
:100B20000ED301204A004005824209D35A00824276
:100B300006D35940C90F084AC90700201143DDE711
:100B400000200649DAE700000000FF07FE0700006A
:100B5000FFFFFF7F0000E0FF0000F07F0000F87F54
:100B6000FFB504460D4681B0243000902168880608
:100B700004D51022E0699143216000E00120A842E1
:100B800001DD471B00E000270498A1697A191018BD
:100B9000081AA0612078C00602D42046FFF762FB45
:100BA000002608E003986268A168805D9047206A8B
:100BB000401C761C206204988642F3DB2078C00635
:100BC0000AD52046FFF74EFB06E06268A168302098
:100BD0009047206A401C206238467F1E0028F4DCC3
:100BE00007E000986268A168405D9047206A401C59
:100BF000206228466D1E0028F3DC2046FFF748FBE4
:100C00002078000602D5022005B0F0BD0120FBE7E8
:100C100001694A1C02610878704700B58FB00291E3
:100C200000210591054901937944039111460490EF
:100C30006846FFF79DFB0FB000BD0000E5FFFFFF1A
:100C40000A681070521C0A60704710B54369002B87
:100C500002D0C046C04601E0FFF72BFB012010BDCB
:100C60001278014624310A7000224A700122ECE712
:100C700011680022D243E8E701468008081A0209F9
:100C80001018020A1018020C1018C008820012185E
:100C90005200891A01E0401C0A390A29FBD2704728
:100CA000754600F025F8AE46050069465346C00873
:100CB000C000854618B020B5FFF7ACFA60BC00272D
:100CC0004908B6460026C0C5C0C5C0C5C0C5C0C518
:100CD000C0C5C0C5C0C5403D49008D46704710B570
:100CE0000446C046C0462046FFF734FA10BD000057
:100CF000004870473C34002001491820ABBEFEE795
:100D000026000200704770B58C180578401C6B07F0
:100D10005B0F01D10378401C2A1106D10278401CD8
:100D200003E00678401C0E70491C5B1EF9D12B07AE
:100D300005D40023521E0DD40B70491CFAE703782A
:100D4000401CCB1A921C03E01D780D70491C5B1CE3
:100D5000521EF9D5A142D8D3002070BD70B5440011
:100D60000E4822181689055B908D711B484364213B
:100D7000FFF779FC0A49854203D90B5B2A1A9A428C
:100D800007D8084A121A964205D2095B30188142E8
:100D900001D9012070BD002070BD0000300200208C
:100DA0001E020020FFFF0000F8B5244C224D2088D1
:100DB000234E295C002913D0C0B2FFF7CFFF218852
:100DC000204F695C884219D101F08AFE21888A008F
:100DD000B258801A0A280DD9785C002808D01EE085
:100DE000C0B2FFF7BBFF21880028685417D11BE071
:100DF000685C7854785C002811D115E001F070FE31
:100E000021888A00B258801A01280DD90020785410
:100E1000C8B2FFF7A3FF21880028685404D001F06E
:100E20005FFE2188890070502088032801D0401C73
:100E300000E000202080F8BD1602002014020020EF
:100E40002C3400201A020020836A0B438362426123
:100E50007047016170470029816803D00122114366
:100E60008160704702221143816070470029C16888
:100E700002D00122114301E049084900C1607047D6
:100E8000C26802239A43C260C2680A43C2607047C4
:100E9000826800210123DB071A4382600F231B03B2
:100EA0008268491CD20FD207994201D0002AF7D19B
:100EB0008168002901DB006C704700207047024602
:100EC0000020CB0104D5926801231B069A4300E061
:100ED00012680A4200D001207047000030B4C36895
:100EE000084A8C6813400A680D792243CC686D0368
:100EF0002C4322430C69496922430A431A43C260C6
:100F000030BC704703D2FFFF816804221143816027
:100F1000704710B501214C06204600F059FE002113
:100F2000204600F055FE10BD30B4817A01231A46E8
:100F30008A4033490C681C430C60CB699343CB61F6
:100F4000037B002B12D1CB689343CB60C3884488CA
:100F50001B042343847AE400641823648388048890
:100F60001B042343847AE40064186364037B012B2D
:100F700024D1CB681343CB600578C4782B464578E1
:100F80002D022B4385782D042B4324062343102464
:100F9000E341847AE400641823640579C4792B461C
:100FA00045792D022B4385792D042B4324062343B9
:100FB0001024E341847AE40064186364C37A002B4C
:100FC0004B6805D013434B600389002B02D004E02B
:100FD0009343F8E74B6993434B610389012B02D19B
:100FE0004B6913434B61407B012802D1C869104310
:100FF000C861086840084000086030BC70470000C5
:101000000066004010B40246536900200B4213D022
:10101000FF2401340B1BA1426ED01CDC08294FD0E9
:101020000CDC01293DD0022943D0042904D1D16828
:1010300008220020114239D110BC7047102946D037
:1010400020294BD04029F7D11169102200201142EC
:101050002CD110BC70477F242402191BA34260D0FE
:1010600011DCFF3B5B1E4ED0FF3BFF3B9B1E51D074
:10107000012189028B42ECD191697022002011423A
:1010800014D110BC70470123DB03C91A2DD05B00BB
:101090009942F6D1516810220020114206D110BCAD
:1010A00070479168224A00201142F8D010BC0120FC
:1010B0007047D16800208907890FF7D110BC7047AD
:1010C000D168102200201142F0D110BC7047116984
:1010D00000208907890FE9D110BC704711690822E7
:1010E00000201142E2D110BC704751680822002054
:1010F0001142DBD110BC704791690020C907C90FAC
:10110000D4D110BC70479169022200201142CDD188
:1011100010BC70479169042200201142C6D110BC56
:1011200070475168042200201142BFD110BC7047A3
:1011300001010100002A426901D00A4300E08A430C
:101140004261704710B4036800220224A343036085
:101150000368012423430360324B00E0521C4468BF
:10116000E40701D19A42F9D14268D2073ED08C7986
:101170008022012C04683CD094430460CC79402246
:10118000012C046837D0944304600C7A2022012C8F
:10119000046832D0944304604C7A1022012C046815
:1011A0002DD0944304608C7A0822012C046828D046
:1011B00094430460CC7A0422012C046823D0944325
:1011C00004608A78CC789207240622430C792404A0
:1011D00022434C79098824052243491E0A43C261EF
:1011E000016849084900016000210FE010BC00209F
:1011F00070471443C1E71443C6E71443CBE71443D5
:10120000D0E71443D5E71443DAE7491C4268D20714
:1012100001D09942F9D14068C007E7D110BC012044
:1012200070470000FFFFFF0000218171C171017252
:1012300041728172C1728170C170032101710221FA
:101240004171012101807047F8B5D7487027008DA2
:10125000D64E002807D0D648007A03287ED007282B
:101260007CD009287AD002213046FFF7CBFE002837
:1012700038D0D04D287A2978441C491E0C40697A10
:10128000A14229D0696800010818CB49096BCB4AF3
:10129000CB08536001685B015B0FB9431B01194325
:1012A000C54B01605B6B09091B071B0F0901194343
:1012B00001605268FF23D2008133920F9943D2011B
:1012C000114302C00A07120FBD49FEF749FFF0683B
:1012D00020210843F0602C7202213046FFF792FE75
:1012E0000028C6D11021B148FFF78CFE00283BD062
:1012F000AE4DB04E307A3178441C491E0C40717AA4
:10130000A14229D0716800010818AE49096BAB4BA6
:10131000CA085A6001685201520FB94312011143C1
:10132000A84A0160526B09091207120F0901114303
:10133000FF228132016091435A68D200920FD2019C
:10134000114302C00A07120F9F49FEF709FF2869DF
:101350002021084328613472102100E027E028464C
:10136000FFF750FE0028C4D19048816849017DD51F
:101370008168012211438160944C637A207A834210
:1013800074D06068190141188C48026815020A7807
:101390002D0A5206520F12062A438D4D02602D78F7
:1013A000002D7DD00325ED062A430260BCE002211A
:1013B0003046FFF727FE002838D07E4D287A29785E
:1013C000441C491E0C40697AA14229D06968000179
:1013D000794B0818196BCA0878494A6001685201AC
:1013E000520FB9431201114301605A6B09091207E8
:1013F000120F09011143FF228132016091436F4AAC
:101400005268D200920FD201114302C00A07120F94
:101410006B49FEF7A5FEF06820210843F0602C72AE
:1014200002213046FFF7EEFD0028C6D1B06840012A
:1014300066D5B06801210843B060644C627A207AB6
:1014400082425DD0606811015C4D41183F202B68DD
:101450008004034008784006400F000618435D4BA7
:1014600028601B78002B06D0012300E048E01B0712
:101470001843286003E00123DB0618432860034675
:101480004D480568ED07ED0F05600568DB001B1D85
:101490001D43056043681B091B014360436800E06E
:1014A0002FE00D782D072D0F2B4343604F790E7AD7
:1014B0003D468F7936063F023D43CF794B1C3F04B2
:1014C0003D4335430E792D023543856008255D196E
:1014D0002E78097A33466E7836023343AE78ED784B
:1014E000360433432D062B431B020B43C3600168B4
:1014F0000123194301602078401E521C0240627291
:10150000F8BD344D344E2D783678354304D001255E
:101510002D072A43026007E0304D2D78002D03D0BF
:101520000125ED062A43026023480568ED07ED0F0B
:1015300005600568D200121D154305604268120956
:101540001201426042680D782D072D0F2A43426038
:101550004A1C4F7915463A468F790E7A3F023A4334
:10156000CF7936063F043A4332430E7912023243B2
:1015700082600822AD182E78097A32466E783602DB
:101580003243AE78ED78360432432D062A431202F8
:101590000A43C26001680122114301602078401EA5
:1015A0005B1C03406372F8BD300200200064004001
:1015B000A406002034000020806500402C0000209C
:1015C000B865004090650040C865004040000020BC
:1015D0005700002054000020660000205300002027
:1015E000F0B587B0042000F0D1F9002804D0042021
:1015F00000F044F98D4F07E0022000F03FF98C48DD
:1016000000788001894947180024E5E06100C81985
:1016100001F020F9A10002AA5050A100505801F099
:1016200035FA84490860A002834940188349098833
:101630004900405AA100824A5158081A7D49096858
:101640004018A10050507B480088A1027A4A8918AE
:101650007A4A128852008852A000794908584009F5
:1016600002B202217748FEF7A8FDA100764A505049
:10167000A00011460858002802DA0020A1005050AE
:10168000A100724808188078002806D0012816D0DA
:10169000022826D0032848D135E0A1006A4A5058D4
:1016A000FFF72FF905466A4A6A4BFFF735F90191B2
:1016B0000090FFF7CFF8A100634A505035E0A10039
:1016C000614A5058FFF71DF90546634A634BFFF71F
:1016D00023F901910090FFF7BDF8A1005A4A50503C
:1016E00023E0A100584A5058FFF70BF905465A4A23
:1016F0005A4BFFF711F901910090FFF7ABF8A100E9
:10170000514A505011E0A1004F4A5058FFF7F9F8E4
:101710000546514A514BFFF7FFF801910090FFF742
:1017200099F8A100484A505000BF00BF201D800218
:10173000414940184A4909884900415A201D800002
:101740003F4A1058411A201D4000385A0918201DE0
:1017500080001150201D4000395A201D8002364A59
:1017600080183F4A128852008152201D800034495F
:101770000858C001000C61003A4A50523A480078BB
:10178000002828D0600031491039085A6100515AA8
:1017900088420BDD60001146085A61002B4A103A5E
:1017A000505232480078401C304908706100274888
:1017B0000838405A61002B4A515A88420BDA6000BF
:1017C0001146095A6200214808388152274800789A
:1017D000401C26490870641C25480078844200DAC1
:1017E00014E7204800881F4949884018214908808B
:1017F0001C4880881B49C98840181E4948800846F3
:101800000088498840181C4908800C480078401C12
:10181000C006C00E0949088011480088401CC00558
:10182000C00D0F49088007B0F0BD00002C3000202B
:10183000F7010020EC0100202C100020F201002014
:101840000C100020544A0008FC0F00204002002029
:1018500014AE47E17A14E63FC3F5285C8FC2E53F3A
:10186000F40100201E020020C200002060000020C1
:10187000F6010020260200202C020020C10001D524
:10188000024900E00249486070470000000402403D
:10189000000002400029016802D00122114301E04A
:1018A000014A114001607047FEFF0000F0B401687A
:1018B000274A114001600021016041608160C160E0
:1018C000244B25490F2298422DD0244CF023A042CE
:1018D00002D14868184330E0214D0F242402A84269
:1018E00029D0204E2501B04202D14868284324E087
:1018F0001D4F0F263604B84202D1486830431CE021
:101900001A4FB84203D148680F22120505E0184F5C
:10191000B84204D148680F22120610430DE0154F5B
:101920001549B84201D14868F7E7144A9042D0D02F
:10193000134A904204D1486820434860F0BC704785
:10194000104A9042D1D0104A9042D6D0F0BC704795
:10195000FEFF000008000240000002401C000240A0
:101960003000024044000240580002406C00024037
:101970008000024008040240000402401C040240AF
:101980003004024044040240580402400021C200D6
:1019900001D5044A00E0044A1268024200D0012145
:1019A000084670470004024000000240002A026816
:1019B00001D00A4300E08A430260704730B40368F4
:1019C0000D4A0C6A13408A684D6922430C692C4306
:1019D00022438C692243CC6922434C6A22438C6A9D
:1019E00022431A430260CA6842600A6882604968FA
:1019F000C16030BC704700000F80FFFF10B5064982
:101A00004020086000F040FB02F038F900F040FD93
:101A100000F060FD10BD000080E200E0F0B50B2793
:101A200006463F04384600F053F804280FD1084C0E
:101A3000206902252843206166612069402108430E
:101A40002061384600F044F82169A9432161F0BDC6
:101A50000020024002480169802211430161704761
:101A600000200240F8B5064600200B273F040090F6
:101A70000D46384600F02CF8042815D10B4C20698F
:101A80000121084320613580384600F021F8042800
:101A900006D1B61C280C00963080384600F018F8A5
:101AA0002169490849002161F8BD00000020024079
:101AB00004480169090603D50349416003494160AF
:101AC000704700000020024023016745AB89EFCD3D
:101AD00014490246CB680420DB071FD1CB68DB0624
:101AE00001D5022016E0C968490713D5032011E08B
:101AF000CB680420DB0701D0012008E0CB68DB06BF
:101B000001D5022003E0CB685B0700D50320521EFD
:101B1000012803D0002A00D105207047002AE7D110
:101B2000FAE700000020024010B5002819DA1A4A2E
:101B300003071B0F083B9B089B00D2588307DC0E52
:101B4000FF23A3409A438B071B0E8407E40EA34098
:101B50001A43114B0407240F083CA408A4001A518F
:101B600018E00E4A03231B02D21883089B00D258A8
:101B70008307DC0EFF23A3409A438B071B0E8407C9
:101B8000E40EA3401A43054B032424021B198408C6
:101B9000A4001A5110BD00001CED00E000E100E0BF
:101BA000044A0029516901D0014300E08143516199
:101BB0007047000000100240044A0029D16901D09A
:101BC000014300E08143D1617047000000100240F2
:101BD000044A0029116901D0014300E081431161E9
:101BE0007047000000100240044A0029916901D0AA
:101BF000014300E081439161704700000010024002
:101C000010B5FFF721FB0F484168491C416001688E
:101C1000491C01600A2904DB002101600A494020B7
:101C200008600A48007800280AD000210848094ABC
:101C300000781278104300D0012002F025FE10BD7C
:101C40000121F3E71800002000E200E05700002027
:101C5000540000206600002030B4334882B0016890
:101C60000124214301604168304A1140416001680C
:101C70002F4A114001600168A2049143016041684C
:101C80003F22120491434160C16A09090901C162FE
:101C9000016BFF22543291430163416BA1434163C5
:101CA00000238360019300930168214301600221B6
:101CB00005252D0302680A400092019A521C0192E8
:101CC000009A002A02D1019AAA42F3D1026892072F
:101CD00001D5009400E00093164B11221A6042686F
:101CE00042604268426042687B23DB039A43426061
:101CF00042682123DB031A434260026801231B066A
:101D00001A43026002689201FCD542689208920070
:101D1000426042680A43426041680907890F02290C
:101D2000FAD102B030BC7047001002400CB8FF0876
:101D3000FFFFF6FE002002400A7802704B784370E5
:101D40008A788270CA78C2700B7903714A794271BD
:101D500070470A7802704B7843708A788270CA782C
:101D6000C2700B7903714A7942718A798271CB7999
:101D7000C371704730380A2801D201207047002013
:101D80007047000000B591B0C0210F20000401F0A1
:101D9000F7FEC021424801F0F3FE012241494248CA
:101DA000FFF752F8042041490870082040490870A4
:101DB0000846007840013F49088000200B9008A9A0
:101DC0000874012080020D9080100E9000200F906A
:101DD00010900121C9073448FFF73BF80BA932489E
:101DE000FFF77CF8344801902F484030009030488D
:101DF00000788001039000200290049080200590DC
:101E00004000069080000790202008900002099072
:101E100000200A902948FFF749FD69462748FFF747
:101E2000CDFD00210920FFF77FFE0920012181401F
:101E3000234A116000BF012206212048FFF7B6FDAA
:101E400001211E48FFF726FD1748FFF721F8012161
:101E50001548FFF700F800BF01211348FFF72FF8DE
:101E60000028F9D001211048FFF700F802210E48A0
:101E7000FFF706F80C48FFF747F80D480078114ABD
:101E80005043014610480068FEF7EDFB401E0F4925
:101E9000C862202088800120088011B000BD0000A9
:101EA00000083C000FF0000000240140F601002073
:101EB000F7010020F00100202C3000200800024033
:101EC00000E100E0803801000000002000400140F7
:101ED000F8B50168702209090901083191432031E0
:101EE00001604768644E041D6449F8B235460F40EE
:101EF0008035002866D00A21B069FEF7C2FB0005D4
:101F0000000B384320600121606809078843B18DC8
:101F1000C907C90808430121090660608843318D5B
:101F2000C907C909084360600A21706DFEF7A9FB63
:101F3000216800050903090B084320600120676838
:101F400040078743B06E0A21C0078008074301207D
:101F5000400667608743706EC0078009074367606B
:101F60002869FEF78EFB0605380B360D0003064385
:101F70000120800766608643A88C0A21C0074008BC
:101F800006430120800666608643288CC00740090E
:101F900006436660E86CFEF774FB39490005000AE9
:101FA0000E4030436060296E40004008C907084376
:101FB0000121C90660608843E96DC9070909084322
:101FC0006060F8BD2F490122088812070005000B48
:101FD0000743276060689043B28DD207D208104350
:101FE0000122120660609043328DD207D20910435D
:101FF00060604A883803000B1205104320600122FC
:10200000606852079043B26ED207920810430122D3
:10201000520660609043726ED207920910438A881C
:10202000000B12050003120D10430122920760609D
:102030009043AA8CD2075208104301226060920696
:1020400090432A8CC988D207520910430C4A0905CB
:102050001040090A084360604000296E4008C90723
:1020600008430121C90660608843E96DC907090971
:1020700008436060F8BD0000F4000020FF00F0FF9E
:10208000FF0F00FF1E020020F0B58448008A7D2368
:10209000C60B83481B010A2401220021456B002E38
:1020A0000CD04678002E02D00365C27144624170A4
:1020B0004161002D17D06D1E456315E04669642E01
:1020C00002D8077A002F05D0036541614170027282
:1020D000446310E0476A2F4301D1761C4661052E08
:1020E00009D9427007E00172456A002D02D06D1EC9
:1020F000456200E0C1716B4D2D8AEE04684DED6BB9
:1021000015D4C669642E02D0C77A002F06D00365A5
:10211000C161C1708272C272C4631EE0C76A2F437C
:1021200001D1761CC661052E17D9C27015E0C6789C
:10213000002E02D003654272C462C1708172C16117
:10214000002D02D06D1EC56300E0C172C56A002D6E
:1021500002D06D1EC56200E04172524D2D8A2E05DF
:102160004F4D2D6C15D4066A642E02D0877B002F4C
:1021700006D00365016201714273827304641EE03C
:10218000076B2F4301D1761C0662052E17D9027109
:1021900015E00679002E02D00365027304634173D3
:1021A00001710162002D02D06D1E056400E0817393
:1021B000056B002D02D06D1E056300E001733A4DE2
:1021C0002D8A6E07364DAD6B14D48669642E02D805
:1021D000077C002F05D003658161817002748463E0
:1021E0001DE0836A2B4301D1761C8661052E16D92A
:1021F000827014E08678002E02D00365C273846278
:1022000081708161002D02D06D1E856300E0017434
:10221000836A002B02D05B1E836200E0C173234BF4
:102220005B8D002B28D01F4C238A5D041C4B5B8ADE
:1022300002D44579002D07D0228A520422D5002BE2
:1022400018D05B1E43821DE0154C8679648A0525F3
:10225000641CA4B2002E07D0642B03D1817142719B
:1022600045820FE044820DE0052BFBD9827142715B
:10227000458207E0417105E00A4A128A5204D217EA
:10228000521C8271026D0A4B002A05D0521E026553
:10229000FF20F5309863F0BD9963F0BD000400485D
:1022A0006000002000080048000C004830020020B8
:1022B000002C0140F0B5E521012087B08900C0065F
:1022C00001F05EFCE52101208900000701F058FCC7
:1022D00038480068FF21090488430127BF053549B4
:1022E0003843086001253449A80708603348FEF7E1
:1022F00010FE04A8FEF798FF002468468474C47496
:10230000072101750221417508210182C57504A9C3
:102310002A48FEF717FF684645730481C4720573A7
:102320000426468004800321C6804902818084728D
:10233000FEF7FAFD224CA08880043843C1000A460B
:10234000324368464280090C01803F21C680490122
:1023500081808572FEF7E8FD2068E9050843C20028
:102360001146314368464180110C0180691FC180CC
:1023700014498180022181720581FEF7D5FDA18873
:102380000322890492052068114308430E49012263
:10239000086002210948FEF7CDFE012210210748FE
:1023A000FEF7C8FE012211460448FEF7C3FE07B03F
:1023B000F0BD00001CE400E000E100E0006400402B
:1023C000A40600201F0600002C000020F0B5E52424
:1023D000A400012087B02146C00601F0D1FB0120F6
:1023E0002146000701F0CCFB1D490868FF221204BA
:1023F0000226904372051043086001251949100216
:102400000860194F3846FEF784FD04A8FEF70CFF5C
:10241000002468468474C474072101754675082138
:102420000182C575457604A93846FEF78BFE6846DD
:1024300045730481C4720573042103224180520252
:102440000280C18082808472FEF76EFD0749A80475
:102450000860012202213846FEF76CFE07B0F0BD8D
:102460001CE400E000E100E0006400402C000020DB
:1024700010B504460120054980030885204601F077
:1024800047FE2007000E01F043FE10BD0004004887
:1024900070B50C4C0C4D20782978084301D00121EF
:1024A00000E00021012001F0EFF9217828780143B4
:1024B000064805D00168002901D0491E016070BDA1
:1024C0000349FBE75400002066000020D4000020F0
:1024D000B80B0000F8B59148002401789048827943
:1024E000114300290AD08F498F4A09781278114385
:1024F00001D0012100E00221C16400E0C4648B49E5
:102500000125097800291AD0416C491C41643C29F5
:1025100005D3816C00290CD0002144648164816C56
:1025200000290BD00178002905D0491E0170C5642F
:1025300005E00121F1E70221C16400E0C4647848AC
:1025400009260346C76C986DF606020C80B25B6DD7
:102550008119180C9BB29B19012F08D0022F03D0B0
:10256000032F06D00A8500E08A61188503E00A85FA
:1025700000E08A6198616E4F3878002809D000F039
:10258000AFFA6C490968401AE1218900884200D9F4
:102590003C706948634900780978084300D13C7071
:1025A0005F488079002804D03D7000F099FA6149B5
:1025B00008606148614903786148624A002B06D08F
:1025C0003B78002B03D1594B1B78002B0CD00C709F
:1025D0000470147052481178C06D002973D0010C3A
:1025E00080B280198161F8BD0B78122BF2D21F00E6
:1025F0007F443F79FF19BF4408121920272E353C2C
:10260000434A51585F676E757C8415700378092BB7
:1026100002D104700D70DDE75B1C0370DAE7147003
:102620000378092BF8D10470022068E01570037854
:10263000092BF1D10470032061E014700378092B99
:10264000EAD1047004205AE015700378092BE3D115
:102650000470052053E0147003780E2BDCD1047055
:1026600006204CE015700378132BD5D10470072099
:1026700045E0147003780E2BCED1047008203EE0A4
:1026800015700378132BC7D10470092037E014703C
:1026900003780E2BC0D104700A2030E01570037847
:1026A000132BB9D104700B2029E0147003780E2B82
:1026B000B2D104700C2022E015700378092BABD145
:1026C00004700D201BE023E014700378092BA3D1C4
:1026D00004700E2013E015700378092B9CD1047050
:1026E0000F200CE014700378092B95D10470102092
:1026F00005E015700378092B8ED104701120087045
:1027000068E714700378272B86D10C70047061E79A
:10271000010C80B280190185F8BD00005400002032
:1027200060000020C40000202A0200205700002082
:10273000C3000020E8010020C1000020E6010020C5
:10274000E4010020E5010020F8B50120324CC0076B
:1027500060654009A0653148314DE065314E6A68D9
:1027600080038221B24201D001F00AFA2F482E499B
:102770000068FDF778FF2E49401E08812E482D4A3B
:10278000C262002282630D22D20202838022028072
:102790000122828210230B80284BD103998001886B
:1027A000114301801021264801F0EAF91021254843
:1027B00001F0E6F91021244801F0E2F91021234844
:1027C00001F0DEF91021224801F0DAF901200006BB
:1027D00001140927FF06B9616A684021B24201D09D
:1027E00001F0CEF9E06D010C82B2D21911854021C1
:1027F00001F0C6F9A06D010C82B2D2199161616D30
:102800000A0C89B2C9198A61402101F0B9F9402145
:10281000606D01F0B5F9F8BD6000002000080020EF
:10282000A40600209A0200000024F400000000200A
:10283000202C0140E7030000002C0140402C014007
:102840000008001000080008000C040000040080CC
:102850000008004070B50446204601F031FC4610E7
:10286000204601F041FC8510690130467043081A8A
:10287000801270BDF8B52E4C0546207A302700280E
:1028800006D12F702D20E870A8706870012020728A
:10289000284800F0F5F80026002809D0E671A66166
:1028A000207A29182039C87F392801D0401CC877E0
:1028B000214800F0E5F8002809D0E671A661207AE9
:1028C00029182039C87F302801D0401EC8771B48FE
:1028D00000F0D6F800280CD0207A401CC0B220723C
:1028E000042802D926720120F8BD28182038C7779D
:1028F000A6611348297881706978C170A97801713F
:10290000E9784171217E491C8906890EA16104D1B3
:10291000E17900290AD00021E171E179002903D091
:10292000227A2021801841700020F8BD0121F3E7B0
:10293000C0000020690000206C000020670000201B
:10294000E806002023488168002942D0F8B52148D4
:1029500000218160204E0D270568FFF7A9F8284661
:10296000FFF75CF8042826D10024A0003158401954
:10297000FFF778F804281ED1641CE4B2BC42F4D3FB
:10298000FFF768F81348154D0168A94200D1144DAE
:102990001048114E0D270560FFF78AF82846FFF70B
:1029A0003DF8042807D10024A00031584019FFF752
:1029B00059F8042803D0074902204860F8BD641C78
:1029C000E4B2BC42F0D3FFF745F80249002048606A
:1029D000F8BD7047200000206402002000F00108CC
:1029E00000F8010870B5104D104B0E4C18462C60C5
:1029F00001F0BCFE002809D02B602346204601F0E0
:102A0000B5FE002802D001F0B9FB04E034221946DB
:102A10000748FDF7A5FB342205490648FDF7A0FB52
:102A200070BD000000F801082000002000F001083F
:102A30003002002064020020014800797047000045
:102A40002000002010B534220A490B48FDF72CFD68
:102A500000280ED0084934228818FDF781FB07486A
:102A60004168002901D0022902D101214160816021
:102A7000012010BD64020020300200202000002050
:102A800001780022027008467047000070B50546C4
:102A9000042D01DA002070BD284600F0D9FE04465E
:102AA000601E1E214143E01E2A4602419007000F8E
:102AB000044A10580E180448864200DD0646304687
:102AC000E9E70000444A00087602000010B5034818
:102AD000E12109010069FDF7C6FD10BDF8010020E4
:102AE0000148006970470000F801002030B40B492C
:102AF0000B7A4A7A93420DD04B6812019A183CCA5D
:102B00003CC0487A0A78401C521E1040487230BCC3
:102B10000120704730BC00207047000034000020C6
:102B2000F0B5F94DF9496A7A00260127F84C83B0CF
:102B3000012A2FD02846807A022A7DD00E700128E3
:102B400000D1DDE3022800D1F8E3FFF7BFFF01F079
:102B50006BF8711EA164EF48E1600165466286630F
:102B6000066646674161E6612663A665390209206B
:102B7000C006E6668161E8A1EC48FDF75FFBE6A1CF
:102B8000EB48FDF75BFBEB48FFF77AFF002800D02E
:102B9000FBE3FBE3E84806700E7001F045F8002106
:102BA000C943A164DB48E16001654662866306664D
:102BB00046674161E6612663A665FF210920013170
:102BC000C006E6668161FFF73DFFDC48FFF758FF6E
:102BD000002803D02E72AE726E7266E2D548FFF7FF
:102BE0004FFF002805D0A87A062876D2401CA8728C
:102BF0005BE2D348FFF744FF0028A87A06D00128FB
:102C000001D9401E00E00620A8724EE2072865D2D6
:102C100001007944097949188F4460031726354328
:102C20005100C8A1C148FDF709FBC9A1C048FDF783
:102C300005FBEE72C94800E05EE0FFF721FF0028C7
:102C400000D132E2022068722FE2C5A1B748FDF739
:102C5000F5FAC6A1B648FDF7F1FAEE72BF48FFF7E4
:102C60000FFF0028EED120E2C3A1B048FDF7E6FA3D
:102C7000BEA1AF48FDF7E2FAEE72B848FFF700FFD9
:102C80000028DFD111E2BFA1A848FDF7D7FAA84874
:102C9000BEA1FFF751F8B148FFF7F2FE0028D1D1ED
:102CA00003E2A248BBA1FFF754F8BCA1A048FDF77E
:102CB000C5FAAA48FFF7E4FE0028C3D1F5E19B4816
:102CC000B8A1FFF746F8B9A19948FDF7B7FAA348AC
:102CD000FFF7D6FE0028B5D1E7E10BE00422B649A4
:102CE000B648FDF70FFC002804D0022068728C2043
:102CF0002862DAE1AF72D8E1834A0F70116AB04CF2
:102D0000D27A072870D203007B441B79DB189F44DA
:102D10006B03F9F8F7F6F500874901200870D00732
:102D200084481ED0FFF7ACFE00280BD0E87A40089C
:102D300080000119887C032801D2401C0FE001208B
:102D4000687355E07E48FFF79BFE00284DD0E87A77
:102D5000400880000119887C0028F0D0401E88744B
:102D6000EDE7FFF78DFE002809D0E87A40088000E3
:102D70000119088A3F28E2D2401C0882DFE7914807
:102D8000007800280DD0286A00281ED10A20286269
:102D9000E87A400880000119088A3F28CFD2401CF9
:102DA00020E06748FFF76CFE002807D0E87A40086B
:102DB00080000119088A002813D1C0E782480078F2
:102DC000002812D0286A002802D0401E2862B6E7E8
:102DD0000A202862E87A400880000119088A002841
:102DE000ADD0401E0882AAE774E2687B002847D075
:102DF000E87A4708780821D03C20394641434548C5
:102E00000818006A0A21FDF73CFC034600917A1C71
:102E10006EA14648FDF712FAA07FA18B82076F488A
:102E2000920F825C01920091A17E228B8907890F0B
:102E3000435C6B493E48FDF701FA42E0A07DA18A60
:102E400082076648920F825C01920091A17C228ADF
:102E50008907890F435C63493448FDF7EFF93C204B
:102E6000394641432B480818006A0A21FDF709FC3E
:102E7000034600917A1C55A12D48FDF7DFF920E0AB
:102E8000A07D564F8007800F385CA18A0091019089
:102E9000A07C228A8007800F3B5C52492348FDF7C3
:102EA000CDF9A07FA18B8007800F385C0091019045
:102EB000A07E228B8007800F3B5C49491C48FDF7B0
:102EC000BDF9E97A687B01F09FF94748FFF7D8FD23
:102ED000002807D02878002802D0002028700BE0B6
:102EE0000120FBE71D48FFF7CBFD00287ED0E87AE4
:102EF000401C4007400FE8726E730BE3BAE1A5E196
:102F00007EE1E8E07FE071E0C00000205700002093
:102F100074010020F4000020202020202020202008
:102F2000202020202020202020200000D406002067
:102F3000E806002069000020540000206F000020F7
:102F40006C000020312EA9706FB3BDB800000000E6
:102F5000B82063BE65BABF70C300000067000020E0
:102F6000322EE06FBE7963BA00000000BD61B4701C
:102F700079B7BAB800000000332EA963BF61BD2E37
:102F800000000000342E5065B6B8BC00202020E0C0
:102F9000A9000000352E486FB3C3B90020BE617090
:102FA0006FBBC400362E43B2706F6300BD6163BF58
:102FB000706F65BA0000000054020020DC000020A1
:102FC000300200206A0000206D00002025632020D0
:102FD000252E32752E252E3175202000CC49000873
:102FE000804600086C46000868000020F748FFF79C
:102FF00047FD002859D001206872F5486E730670AD
:10300000EE722E6286E2F348FFF73AFD002809D0FF
:10301000E87A400840000119888D32282AD2401CE5
:10302000888527E0EC48007800280DD0286A002821
:103030001ED10A202862E87A400840000119888DD4
:10304000322817D2401C3BE0E448FFF719FD002866
:1030500007D0E87A400840000119888D00282ED159
:1030600008E0DF480078002804D0286A00281DD036
:10307000401E2862E38DA28DDAA1DE48FDF7DEF85E
:10308000638E228EDCA1E048FDF7D8F8E97A0020B3
:1030900001F0BAF8DD48FFF7F3FC002812D0E87A17
:1030A000801C4007400FE8726E7333E20A202862EA
:1030B000E87A400840000119888D0028DAD0401EC7
:1030C0008885D7E7C148FFF7DBFC00287ED06F7208
:1030D000EE722E621EE2012A24D900291DD0CCA155
:1030E000CD48FDF7ABF8BA48FF210770AF70286AEA
:1030F000F531401E2862884209D9C848E080A08086
:1031000060802080E681A6816681268155E0C448E2
:103110000078002851D029624FE0AD480670AE70AB
:10312000EE722FE0BFA1B348FDF788F8E87A0028D7
:1031300004D0BEA1B448FDF781F803E0BDA1B248B8
:10314000FDF77CF8A348FFF79BFC002804D1A348B7
:10315000FFF796FC002804D0E87AC007C017401C8F
:10316000E872AA48FFF78CFC002826D0E87A0028ED
:103170000AD0E680A68066802680A848E081A081EB
:10318000608120816F7218E0AD4821880180AD49CF
:1031900022890A806288428062894A80A28882806D
:1031A000A2898A80E288C280E089C8808848077046
:1031B0000220E8727D20000128628448FFF760FC4D
:1031C000002803D08248AE70067000E081E06F7284
:1031D000E87A012811D99A490888208099480288FC
:1031E00022814A886280428862818A88A28082889D
:1031F000A281C988E180C088E081EE722E6289E1F7
:1032000091A17C48FDF71AF8608D002804D091A1A7
:103210007D48FDF713F803E091A17B48FDF70EF818
:103220006C48FFF72DFC002804D16C48FFF728FC00
:10323000002804D0608DC007C017401C608563481B
:10324000FFF71EFC002844D06F7263E187A1694834
:10325000FCF7F4FF8748FFF70DFB002804D08749EF
:103260008548C96941626F725848FFF709FC002818
:10327000EAD14FE182A15F48FCF7E0FFE87A00283D
:1032800004D081A16048FCF7D9FF03E080A15E482B
:10329000FCF7D4FF4F48FFF7F3FB002804D14F4859
:1032A000FFF7EEFB002804D0E87AC007C017401CE7
:1032B000E8725648FFF7E4FB002805D0E87A0028BA
:1032C00001D000F05BFF6F724048FFF7D9FB002888
:1032D000BAD11FE100290BD06FA14648FCF7AEFF21
:1032E0006FA14948FCF7AAFF286A401E286201E046
:1032F000AE726E72354806703848067035481AE06E
:1033000032480670354806703248067001F006F8FB
:103310006648A97B0078084302D12D48AE7206703A
:103320006348FFF7ADFB00284FD0A87B00284CD0A6
:10333000AE732748AE720670ECE0FFE700F074FC55
:103340000021C943A1645B48E16001654662866370
:10335000066646674161E6612663FF21A665013185
:103360000920C006E6668161286A00280FD0002384
:10337000052251A11F48FCF761FF092252A12248F2
:10338000FDF710F9286A401E0DE0B0E0A2E037A179
:103390001848FCF753FF3748FFF76CFA002803D0B2
:1033A0006F72AE728C2028620B480078002805D01E
:1033B0000B480078002801D0AF726F720348FFF706
:1033C0005FFB002801D02E72AE72A3E06F000020D8
:1033D00054000020690000206A0000206C000020DA
:1033E0006D0000200125303275252502253032750B
:1033F00025250000D406002003253032752525043C
:103400002530327525250000E806002067000020E1
:10341000A461BEB863C40000D5060020FF0F000001
:1034200060000020A86F706FB4B83A00202063B22B
:10343000706F630020BA61BBB8B2702E000000004C
:10344000E4000020EC0000205065B6B8BC20E0A9E4
:1034500000000000B8BCBE79BBC4632E00000000B1
:103460006379782EBA6FBD2E00000000A861706FDE
:10347000BBC43A00DC00002030020020C000002065
:103480002043B2706F633A00202020E36100000007
:103490002020BD65BF000000A861706FBBC40000A4
:1034A000BD65B36570BDC3B90000000066000020B3
:1034B00068000020F4000020763A25302E33752E67
:1034C00025302E32750000002020202020202020D2
:1034D000000000001148FFF7D3FA002807D1104878
:1034E0000078002803D10F480078002803D002207C
:1034F000A8728C2028620C480078002803D00B4862
:10350000AF72077006E00A48FFF7BAFA002801D048
:10351000AF73F4E700F0E2F803B0F0BD6C000020F8
:103520006A0000206D00002066000020540000208A
:1035300067000020F8B5614D5F48E8626148604966
:103540000068FDF790F86049401E0881012028803E
:1035500040215E4800F014FB5D4E042030850820B9
:10356000308510203085202030855A48696A89B21C
:103570006A6A521A93B28342FADB696A89B26A6A4A
:10358000521A93B28342FADB696A89B26A6A521AA2
:1035900093B28342FADB696A89B26A6A521A93B2B9
:1035A0008342FADB696A89B26A6A521A92B282422B
:1035B000FADB0127BF033785302000F0A9FD696AD7
:1035C000642089B26A6A521A92B28242FADB3020CF
:1035D00000F09EFD696A642089B26A6A521A92B24A
:1035E0008242FADB302000F093FD696A642089B2E0
:1035F0006A6A521A92B28242FADB202000F088FDF9
:10360000696A642089B26A6A521A92B28242FADB0B
:103610002820FEF72DFF696A642089B26A6A521A6F
:1036200092B28242FADB0C20FEF722FF696A642024
:1036300089B26A6A521A92B28242FADB0120FEF71C
:1036400017FF7D20696A000189B26A6A521A92B234
:103650008242FADB0620FEF70BFF696A642089B21A
:103660006A6A521A92B28242FADB4020FEF700FFE9
:10367000696A642089B26A6A521A92B28242FADB9B
:1036800000241548065D12488761304600F040FD71
:103690003007000E00F03CFD696AC82089B26A6AF2
:1036A000521A92B28242FADB641C282CE9D38020A1
:1036B000FEF7DEFEF8BD0000FFFF00000040014005
:1036C00020A1070000000020204001400004FC73FE
:1036D0000004004848EE0000A4490008F0B50027A7
:1036E0003C460220FEF7C4FE01E0102F17D2274E01
:1036F000F55D002D0CD00120254980038861284606
:1037000000F006FD2807000E00F002FD641CE4B284
:103710002020F0557F1CFFB245021D4E08E02020FE
:10372000B56100F0F5FC002000F0F2FC641CE4B28E
:10373000082CDAD3C020FEF79BFE0024274601E0C8
:10374000102F17D2134EF55D002D0CD0012110481B
:1037500089038161284600F0DBFC2807000E00F099
:10376000D7FC641CE4B22020F0557F1CFFB2450258
:10377000074E08E02020B56100F0CAFC002000F0F0
:10378000C7FC641CE4B2082CDAD3F0BDD4060020D8
:1037900000040048E806002000F072FC01212348E4
:1037A000FEF722FA01212248FEF706FA01212148FC
:1037B000FEF7F6F9FEF7C8FFFFF714F91E48008D73
:1037C000002802D0FEF702FE01E0FEF773FD01F0D3
:1037D0001DF800F05FFFFFF7ADFEFEF7D3FA1748C4
:1037E0000724C1690902090A02071143C16114498A
:1037F0000868FF22120490430122D205104308609A
:1038000010487D21C9000068FCF72DFF0E49401EBD
:103810004861002088610C610C4840210160C105AD
:103820000160FFF77DF9FFF78DF8FAE7004A030022
:103830000300000201001E003002002004ED00E041
:1038400004E400E00000002000E000E000E100E00F
:1038500001460122080C002801D110320904080E8B
:10386000002801D108320902080F002801D1121DD9
:103870000901880F002801D1921C8900C80F121A73
:103880002020801A70470000F8B500287ED000295B
:103890007CD0AC4A1020947C2021002C06D0012C36
:1038A00008D0022C0BD0032C11D10CE00924E40623
:1038B000208502E00924E406A061218507E00924AF
:1038C000E406208502E00924E406A061A161947D5C
:1038D00040208021002C06D0012C08D0022C0BD0D7
:1038E000032C11D10CE00924E406208502E0092410
:1038F000E406A061218507E00924E406208502E0B2
:103900000924E406A061A161957E8F48022401216B
:10391000002D06D0012D06D0022D07D0032D09D190
:1039200006E0018500E08161048503E0018500E097
:1039300081618461957F8548002D06D0012D06D0D8
:10394000022D07D0032D09D106E0018500E0816139
:10395000048503E0018500E08161846100247C48E6
:1039600061020F187B487C4A017BA0004E00BB5FC0
:103970001558ED1A794B1B58ED181550BB533C23C5
:1039800026465E43764BAA11F51800E071E0714FB0
:10399000491C2A62397373498A4200DD0A462A6249
:1039A000A969AA61E96167494018008A0A21484368
:1039B00098516969286881420DD068612888022180
:1039C00002B26948FCF7F9FB4B21C90068608842E4
:1039D00000DD08466860686A002801D1012068623D
:1039E000A869002804D1686ABB2801DB002068624E
:1039F000A86B282805DA696A012902DD401CA86342
:103A000017E00026AE63E969A8692A68411A101A0E
:103A100008181421FCF735FEE860696A0818686226
:103A200001D56E6205E0FF217731884200DD08464E
:103A30006862641CE4B2042C91D3464AFF25547A90
:103A400001354A484A4B4B49002C13D0022C10D167
:103A5000947A012C3FD0032C0BD10922D206158574
:103A60003F4A156E546ACA69896D44638563C263AF
:103A70001960F8BD00240926F6063585384D6F6AB1
:103A80002E6ECD69896D47638663C56319601069C1
:103A9000002802D0401E1061F8BD3748147101782B
:103AA0000029F9D03548CB0705D0C36B3C30002B3B
:103AB00001D0012313714908EED01379C46B002C97
:103AC00000D00123846F7830002C00D00123491EE0
:103AD000F4D11371F8BD0924E40625851478002C6F
:103AE00026D0D27A52080BD0012A11D0022A18D03F
:103AF000032AEFD10022896D42638263C2630EE024
:103B0000174900224D6A45638263C2631A60F8BD9B
:103B1000134900250C6E294645638463C56319600B
:103B2000F8BD0025CA69294645638563C263F6E787
:103B30000B4CCD69626A246E896D42638463C563F0
:103B4000EDE70000300200200004004800080048B3
:103B5000FC060020C0000020FC0E0020FC0F00200E
:103B6000F4000020E7030000D049000800040040F2
:103B70004004004074010020F6010020E400002011
:103B8000F0B5092382B2DB06D218002383B0000C03
:103B900048D08C05A40F02944C05E40F01940C0648
:103BA000A40F00948C06A40F0907090FA6468C46A3
:103BB000C10733D094685D000321A9408C43946011
:103BC000029C9668AC4034439460978801269E40DE
:103BD000B74397809788019E9E403743978014682B
:103BE0008C431460009C1668AC4034431460D46865
:103BF0008C43D4607146D468A9402143D1605907F1
:103C00006446CD0EAC40D910890089180F6A0F2682
:103C1000AE40B7430F620D6A25430D6240085B1C3E
:103C20000028C5D103B0F0BD0D49C82008610020AF
:103C300008710C490C4A8862C86210755075486654
:103C400088660A490B4A0874487409490862486240
:103C500010735073C8650866074908724872704748
:103C6000C0000020F40000201401002054010020B6
:103C70007401002094010020D4010020F0B589B027
:103C80000026059606960796F74804960096019634
:103C900002960396008D7027F44D002815D004A8D5
:103CA000FEF724FF0028FAD1E868401CE8601428D9
:103CB00009D9EE600098B843103000090001009067
:103CC000684600F08BFA09B0F0BD04A8FEF70EFFBD
:103CD000012400287ED07D200296C0000196286134
:103CE0006C720498C005800F022802D0012802D00F
:103CF00002E02C7200E02E7204984006400F082863
:103D000069D201007944097949188F4464A01D22C1
:103D10009C0364FD0598C00703D00598C007C00F39
:103D2000E871E879002856D00598800703D50598F2
:103D30008007C00FA872059840074CD5059840072A
:103D4000C10FCB480170E3E02C70694605980871FB
:103D5000DEE0E87A00287AD10098B84340300009C4
:103D600000010830009005980006000E04D00128DC
:103D70001FD002282FD13AE068460671BD4801994C
:103D80000140B94802881202114302890903090B54
:103D90001205114301914188B74A0905090D1140E7
:103DA00042891205120A11430291018C6846C172C0
:103DB00045E068460471AF4801990140AA488288ED
:103DC0001202114309038289090B12051143019163
:103DD000C18801E0A2E09BE00905C089090DA64A5F
:103DE00000051140000A01436846029127E00220C5
:103DF0006A4610719C48017C91715179827C8908D6
:103E000092078900920F1143037D6A46D371F32212
:103E10001140827D037E9207120F11436A4613728E
:103E2000CF221140827E037F120111436A465372F2
:103E3000807F8906890E800101435171684600F038
:103E4000CDF965E003E0E87AA979084301D0AC70C8
:103E50005EE005980006000E04D001281DD002285F
:103E600056D12FE0059905980903000D0A0D9042DF
:103E700002D97D490A80088106980002010D069842
:103E80000205120D914202D977484280418106987D
:103E9000000E3DD07448066239E00598010D00031C
:103EA000020D914202D9704882808181069806995C
:103EB00000020905000D090D884229D96A4AD180FE
:103EC000D08125E06846807D402801D2664908827D
:103ED00069464A7D64489107890F81746946C97DA6
:103EE000402900D281821107890F81756946097EB8
:103EF000402900D201839106890F81766946497E67
:103F0000402900D2818300E08DE0910981776C70B7
:103F100004A8FEF7EBFD002800D0DCE6E87969791B
:103F2000884201D06871AC70287A2979884201D022
:103F30002871AC70E87AE978884201D0E870AC70FA
:103F4000687A002849D06846FDF7C2FF0298C00091
:103F5000C10F4A484068C200D20F914200D02C7075
:103F6000029982008900C90FD20F914200D02C70B3
:103F7000029942004900C90FD20F914200D02C7023
:103F80000299C20FC90F914200D02C700299C20150
:103F9000C901C90FD20F914200D02C700299820141
:103FA0008901C90FD20F914200D02C7002994201B1
:103FB0004901C90FD20F914200D02C700299000123
:103FC0000901C90FC00F814200D02C702B48039B00
:103FD000029A01998360426001602878002804D029
:103FE0002E70AE70684600F0F9F8A878002808D066
:103FF0000098B843000900010090684600F0EEF810
:10400000AE706878002804D0EE716E70AC71FEF767
:1040100019FDA879002817D0FEF70EFD00280FD053
:10402000022811D10FE00098384300090001001D5B
:10403000009005216846017146718671C671FEE6E1
:10404000AE71EC7100E0AE71287A002800D03AE63B
:104050002869002803D0401E286109B0F0BDEE7128
:104060006E7209B0F0BD0000300200204C0000204C
:10407000C3000020FF00F0FFFF0F00FF98060020A4
:1040800030B40C490A48CC688B684A688461436143
:1040900002610A4610323CCA1C303CC020311EC9A5
:1040A0001EC00648044901600721017230BC7047F8
:1040B0009806002000F000083F1F0000A406002022
:1040C00002460020002105E04B00D35A1818044B8B
:1040D0001B78C918034B1B889942F5D37047000021
:1040E000F7010020F001002002460020002106E038
:1040F0004B00D35A5B431818034B1B78C918034B6A
:104100001B889942F4D37047F7010020F00100208A
:1041100030B4174B998A174A1140C20601D5402284
:104120001143820601D580221143420602D5FF22A7
:1041300001321143000602D5012040020143998259
:104140000D483222416A89B2446A641AA4B2944288
:10415000FADB012424039C61416A322289B2456A58
:104160006D1AADB29542FADB1C8530BC7047000079
:104170000004004803DCFFFF0040014070B534211B
:104180001348FCF76EFA124803210162114A0281BA
:10419000002101801E238385142404820125857457
:1041A00042814180C38584828575828181800386B6
:1041B00004838576C281C180438684838577418567
:1041C000018505483021C17181714171017170BD56
:1041D00030020020FF0F00005002002070B4094A96
:1041E000117A14780B46491C641E2140547A8C4283
:1041F00005D054681B01E31871C871C3117270BCFB
:10420000704700004000002070B4414CA279521C5D
:104210009206920EA27104D16279002A13D0002274
:10422000627165793B4A3C4B002D2AD0CE07202590
:10423000002E12D04E0808D0012E08D0022E08D031
:10424000032E1ED107E00122EAE7D57019E0D571EF
:1042500017E0DD7015E0DD7113E04E0806D0012E89
:1042600007D0022E08D0032E0BD108E095705570B0
:1042700007E09571557104E09D705D7001E09D71DE
:104280005D712478002C0CD02D24002817D048080C
:1042900009D001280BD002280DD0032801D19C7031
:1042A0005C7070BC70479471547170BC70479470AE
:1042B000547070BC70479C715C7170BC704748084A
:1042C0000DD0012813D0022819D00328F5D19C70F5
:1042D0005C70947154719470547070BC70479C7190
:1042E0005C719C705C709471547170BC70479C716F
:1042F0005C719C705C709470547070BC70479C7161
:104300005C71947154719470547070BC704700006B
:10431000C0000020D4060020E8060020F0B5A9481F
:1043200083B00278A8490291002A7DD0A749097874
:10433000002979D100270770FCF736FDA748A44E65
:104340008446A449A44AA64CA648A74B0425AE46D9
:104350003578002D03D0A54D6D69002D05D00025C1
:104360000D601568002D09D101E00125F8E70D6801
:10437000002D03D165462D68002D28D0FF25276824
:104380007735AF420ADA0D68002D07D1984F0578CE
:104390003F6ABF00BD4201D26D1C00E00025944F72
:1043A00005703F6AEDB2BD4206D100251D7067461B
:1043B0003D601560057011E01D787F00BD4203D996
:1043C000012567463D6009E06D1C1D7006E0276809
:1043D0003D46FF3D773D01D10125156065463C35E1
:1043E000AC4675466D1E3C303C313C323C333C346F
:1043F000761CAE46002DABD17E497F4B086B002862
:104400001AD1CA6E002A17D1029A926A002A13D1D1
:10441000029A526E002A0FD18A6A002A0CD14A6E83
:10442000002A09D1029A00E049E0126A002A03D169
:10443000029AD26D002A3DD06C4A012454705479FE
:10444000002C33D0002454711C78002C30D0002470
:104450001C706A4B1C6BA04222D0C86EDC6EA0425E
:104460001ED00298846A6648856AAC4218D0029CC5
:10447000456E646EAC4213D08C6A9D6AAC420FD01C
:10448000496E5B6E99420BD00299036A096A9942A0
:1044900006D00299C06DC96D814201D00020D07054
:1044A000F02256495348FBF7FFFF08E00124CAE712
:1044B0000124CDE74D4900204870187048714D4CDB
:1044C0000A21E06DFCF7DDF807460A21206AFCF7B7
:1044D000D8F8474D0246A87D4A4E8007800F305CD1
:1044E00000970190A87C48498007800F335C4748BB
:1044F000FBF7A4FE02980A21406DFCF7C2F80746BC
:1045000002980A218069FCF7BCF8A97F0246890756
:10451000890F715C00970191A97E3E488907890F38
:10452000735C3B49FBF78AFE216B384A2020002947
:1045300004D02E494979002900D01070E16E00297D
:1045400004D02A494979002900D0107102998B6A58
:104550003049002B04D0254B5B79002B00D008702C
:10456000029B5B6E002B04D0204B5B79002B00D0AC
:104570000871A36A002B05D01C4B5B79002B01D07E
:1045800090705070636E002B05D0184B5B79002B38
:1045900001D090715071029A126A002A05D0134A14
:1045A0005279002A01D088704870029AD26D002A90
:1045B00005D00E4A5279002A01D08871487103B0A3
:1045C000F0BD0000140000207401002057000020FE
:1045D0001A020020240100201C01002020010020DC
:1045E000180100202801002029010020C00000201F
:1045F00030020020F40000202A0200200C0F0020CE
:104600008C0F0020CC4900086C460008D40600201E
:1046100080460008E806002030B5124C124DA07DFF
:1046200083B08007800F285CA18A00910190A07C54
:10463000228A8007800F2B5C0CA11048FBF7FEFD3F
:10464000A07FA18B8007800F285C00910190A07E45
:10465000228B8007800F2B5C09A10D48FBF7EEFD34
:1046600003B030BD30020020CC49000801252E32B5
:1046700075256302252E327525630000D4060020BF
:1046800003252E3275256304252E3275256300001F
:10469000E806002010B580212848FFF771FA802134
:1046A0002748FFF76DFA80212648FFF769FA802135
:1046B0002548FFF765FA26492448C86225490020A5
:1046C00008602349C8638863486323480883888354
:1046D0001F48802101801E4A01209082204A1F48E5
:1046E00010801B48008801221043194A10801022B4
:1046F0000920C0060285202202854022028501850C
:1047000018480121018502210185174801220285EF
:104710000185032040210005FFF732FA03204021E4
:104720008005FFF72DFAC12040218002FFF728FA0B
:1047300061204021C002FFF723FA10BD00084000AD
:10474000000880000008000100080002ED020000DF
:10475000000400404004004068680000111100009F
:104760002004004000040048000800480188028935
:10477000914247D2818D322944D841884289914261
:1047800040D2C18D32293DD881888289914239D267
:10479000018E322936D8C188C289914232D2418EE7
:1047A00032292FD8018A3F292CD8818A3F2929D83C
:1047B000018B3F2926D8818B3F2923D8817C03296F
:1047C00020D8817D03291DD8817E03291AD8817FB5
:1047D000032917D8014620310A79303A0A2A11D222
:1047E0004A79303A0A2A0DD28A79303A0A2A09D20D
:1047F000C97930390A2905D2018D012902D8408DA5
:10480000012801D90120704700207047F0B4002131
:10481000194C1A4E0D460A462160D00083191868BB
:10482000471C03D0884201D301462360521CFF2A53
:10483000F3D31348134E4160002003466560DA004D
:1048400095192A68571C03D0824201D3104665602F
:104850005B1CFF2BF3D30A4A8142134690601B78FE
:1048600003D9DF200340116102E0106120200343DF
:104870001370F0BC704700000C020020000001081B
:10488000F80100200080010810B5002810D00B4866
:104890007D22C168D200914207D30169491C0161A0
:1048A0000021C1600121417010BD491CC16010BDD3
:1048B0000029FCD000F004F810BD0000F801002031
:1048C000F0B5354883B0417800295FD000690028F1
:1048D00059D0314900240878304A314B850604D537
:1048E000DF2528400870029203E020252843087045
:1048F00002936D460298E1000F18FDF7D9F8284899
:10490000874208D22548FDF789F8042837D106E008
:10491000641CA4B2EEE7FDF781F804282FD11E4EE7
:1049200038463169FDF79EF8042828D130696A4677
:10493000030E1370030C5370030A9370FF210323BB
:10494000D0703126E85C41400422080602D54800B8
:10495000704000E04800C0B2010602D5400070403F
:1049600000E04000C1B2521EEFD118465B1EDBB220
:104970000028E7D1381DFDF775F8042808D001207C
:1049800000038442C4D904490020487003B0F0BD3C
:10499000FDF760F8F7E70000F801002000000108CB
:1049A0000080010800000000000000001F1B131B16
:1049B0001B1B111F1F130D1D1B17011F1F130D1B89
:1049C0001D0D131F1F171515111D1D1F41464253A5
:1049D00000000000760258024146425300000000E9
:1049E000000000001F1B131B1B1B111F1F130D1D9D
:1049F0001B17011F1F130D1B1D0D131F1F1715154F
:104A0000111D1D1F41A042A1E045A3A4A5A64BA7CF
:104A10004D484FA8504354A9AA58E1ABACE2ADAE03
:104A2000ADAFB0B161B2B3B4E365B6B7B8B9BABBB4
:104A3000BCBD6FBE7063BF79E478E5C0C1E6C2C398
:104A4000C4C5C6C700000000090000001200000035
:104A500018000000C8006400AE015C0304000008F8
:104A60000000000000000002000100001000000033
:104A7000904A00080000002030020000060D0008E7
:104A8000C04A00083002002070380000040100080D
:104A900011846CDC020009200102030406070809E6
:104AA00032203B980207490C4A040C018432C8A307
:104AB000B80B0213461AFF01013809B23C014C0041
:04000005080000C12E
:00000001FF
