:020000040800F2
:10000000E849002031020008014300083B020008D3
:100010003D0200083F020008410200080000000005
:10002000000000000000000000000000990100082E
:100030004502000800000000DD010008C545000879
:100040004B0200084B0200084B0200084B0200085C
:100050004B0200084B0200084B0200084B0200084C
:100060004B0200084B0200084B0200084B0200083C
:100070004B0200084B0200084B0200084B0200082C
:100080004B0200084B0200084B0200084B0200081C
:100090004B0200084B0200084B0200084B0200080C
:1000A000914600084B0200084B0200084B02000872
:1000B000AD4600084B0200084B0200084B02000846
:1000C0004B0200084B0200084B0200084B020008DC
:1000D0004B0200084B0200084B0200084B020008CC
:1000E0004B0200084B0200084B0200084B020008BC
:1000F0004B0200084B0200084B0200084B020008AC
:100100004B0200084B0200084B0200084B0200089B
:100110004B0200084B0200084B0200084B0200088B
:10012000250700084B0200084B0200084B0200089C
:100130004B0200080000000000000000F10500086C
:10014000E50500084B0200084B0200084B020008BE
:100150004B0200084B0200084B0200084B0200084B
:100160004B0200084B0200084B0200084B0200083B
:100170004B0200084B0200080000000000000000D5
:100180004B020008DFF80CD000F014F900480047DB
:1001900071610008E8490020224B19680868B0E83E
:1001A000F00F80F30988BFF36F8F4FF0000080F3EA
:1001B00011884EF00D0E70470000000006480068E0
:1001C000006880F3088862B661B6BFF34F8FBFF353
:1001D0006F8F00DF00BF00BF08ED00E0EFF3098084
:1001E000BFF36F8F0F4B1A6820E9F00F106008B54E
:1001F0004FF0500080F31188BFF34F8FBFF36F8F24
:1002000007F08EFE4FF0000080F31188BDE8084033
:1002100019680868B0E8F00F80F30988BFF36F8FA2
:10022000704700BFD4010020EFF305807047000045
:100230000648804706480047FEE7FEE7FEE7FEE780
:10024000FEE7FEE7FEE7FEE7FEE7FEE749460008B9
:10025000850100082DE9F05F0546002092469B4687
:1002600088460646814640241BE0284641464746CC
:10027000224600F08EF853465A46C01A914110D3D8
:1002800011461846224600F075F82D1A67EB010852
:100290004F4622460120002100F06CF817EB0009C0
:1002A0004E41201EA4F10104DFDC484631462A46B7
:1002B0004346BDE8F09F40EA01039B0703D009E0F5
:1002C00008C9121F08C0042AFAD203E011F8013B42
:1002D00000F8013B521EF9D27047D2B201E000F89B
:1002E000012B491EFBD270470022F6E710B51346DA
:1002F0000A4604461946FFF7F0FF204610BD30B508
:1003000004460020034600E05B1C934203D2E05CFD
:10031000CD5C401BF8D030BD034611F8012B00F82E
:10032000012B002AF9D11846704730B50546002048
:10033000034600E05B1C934205D2EC5CC85C201ACB
:1003400001D1002CF6D130BD30B50B46014600205E
:100350002022012409E021FA02F59D4205D303FA87
:1003600002F5491B04FA02F52844151EA2F1010208
:10037000F1DC30BD202A04DB203A00FA02F1002033
:1003800070479140C2F1200320FA03F319439040D3
:100390007047202A04DB203A21FA02F0002170473E
:1003A00021FA02F3D040C2F12002914008431946DD
:1003B00070470000064C074D06E0E06840F001037E
:1003C00094E8070098471034AC42F6D3FFF7DEFEFE
:1003D000B08B0008D08B000830B58C1810F8012BBA
:1003E00012F00F0301D110F8013B120906D110F8E9
:1003F000012B03E010F8015B01F8015B5B1EF9D1F2
:1004000001E001F8013B521EFBD1A142E6D30020DE
:1004100030BD10B50146806B026C12F0500F05D054
:10042000806BC26CBDE8104008461047016C41F477
:100430000071016401688A6812F0405F17D1826917
:10044000AAB9CA6A12F4700F02D08A6852050ED493
:100450004A6822F020024A60016C21F48071016434
:10046000016CC90403D4016C41F00101016400F086
:1004700033FC10BD10B5806B40210164416C41F02C
:100480000401416400F02BFC10BD10B5806B00F03E
:1004900025FC10BD10B504464F48D0F8041321F4D4
:1004A0004031C0F80413D0F8041362681143C0F857
:1004B00004132068416821F480714160206841681C
:1004C000226941EA022141602068416821F04071BF
:1004D000416020684168A2681143416020688168DA
:1004E00021F40061816020688168E26811438160C5
:1004F000A06A6FF07061C8422068816821F0706165
:100500008160206881680CD0A26A114381602068F4
:10051000816821F04051816020688168E26A11435E
:1005200001E021F0405181602068816821F00201E2
:10053000816020688168A26941EA42018160206A85
:1005400000B3606A401E072804D94FF4C1612348F4
:1005500004F080FC2068416841F40061416020683B
:10056000416821F460414160206842684FF4604373
:10057000616A93FAA3F3B3FA83F3491E99400A43DD
:10058000426004E02068416821F400614160206815
:10059000C16A21F47001C1622068C16AA28B104B4C
:1005A00003EB02521143C1622068816821F400719B
:1005B000816020688168226B41EA42218160206865
:1005C000816821F48061816020688168626941EA04
:1005D0008221816010BD0000002001404C8600088F
:1005E0000000F0FF014800F011BE0000FC020020F6
:1005F000014800F00BBE0000FC02002010B50029ED
:1006000058D0826B4FF4D873046803EB0113E4589D
:1006100014F0040494600468E4584DD0E408546075
:100620000468E35803F00203D3604FF4DA730468FC
:1006300003EB0113E45804F00F0414611162046821
:10064000E358C3F30723D3614FF4DC73046803EB6F
:100650000113E45814750468E458240A54750468B6
:10066000E458240C94750468E3581B0ED3754FF4BA
:10067000DE73046803EB0113E45814760468E4584D
:10068000240A54760468E458240C94760468E358E9
:100690001B0ED3760368202289B11A610268536960
:1006A00023F05003536190F83C20222A0DD0322AC7
:1006B0000BD00FE0426BA5E7640D1460B0E7DA6081
:1006C0000268536923F00A03ECE70268536923F4D4
:1006D0000F43536112220123002990F83C1006D0E9
:1006E000522915D0622916D0722906D115E0422967
:1006F0000ED0622908D0722908D080F83C3000BFA3
:1007000001F016F8002010BD322107E0522105E06B
:1007100080F83C20F4E7222100E0422180F83C10E0
:10072000EEE70000014801F043B800009C02002001
:1007300001681823CAB2103AB2FBF3F2054B6FF30B
:100740000901032A9B5CC36500D9091D8165084620
:1007500070470000F881000810B5014600208B6941
:100760008A6A4FF0C07453B1B3F5005F15D072B10F
:10077000012A0CD0022A0AD0032A09D104E01AB1B6
:10078000012A06D0022A03D1C96AC90100D5012075
:1007900010BDC96AA142FAD010BD002AF7D0012AC3
:1007A000F2D0022AF3D0032AF3D010BD30B504688A
:1007B000256825F480252560046863608368402BE4
:1007C000036803D099600068C26030BD9A60006819
:1007D000C16030BD7047000070B50E4604004FF098
:1007E00000051AD0012C18D0022C16D0032C14D0DE
:1007F000042C12D0052C10D0062C0ED0072C0CD0B7
:10080000082C0AD0092C08D00A2C06D00B2C04D0B6
:1008100040F27711194804F01DFB66B1012E29D072
:10082000022E24D0032E04D04FF4BC71134804F0E0
:1008300011FB4FF440751248016821F440710160CA
:10084000016829430160016821F0F8010160016835
:10085000F82292FAA2F2B2FA82F2944044F0020232
:1008600011430160016841F48031016070BD4FF4B3
:100870000075E0E74FF48075DDE700000C8A0008A2
:10088000103C02401348016889050FD5016821F426
:1008900000710160016841F400610160016821F4A8
:1008A00000610160016841F400710160016849055F
:1008B0000FD5016821F480610160016841F4805125
:1008C0000160016821F480510160016841F4806198
:1008D00001607047003C024070B50D4604000AD02C
:1008E000012C08D0022C06D0032C04D040F2C911F0
:1008F0000D4804F0AFFA012D04D04FF4E5710A4819
:1009000004F0A8FA0948016821F440710160016807
:1009100041F00401016001684FF4803242EA042290
:100920001143016070BD00000C8A0008103C0240B9
:1009300070B50446A0F100600D46B0F5801F09D3E4
:100940000B482044B0F5047F04D34FF42E710948BE
:1009500004F080FA084A106820F4407010601068B3
:100960001060106840F001001060257070BD00003C
:10097000008800E094890008103C024070B50446ED
:10098000A0F1006015461E46B0F5801F09D30D4842
:100990002044B0F5047F04D340F26B210A4804F0F0
:1009A00059FA0A48016821F440710160016841F474
:1009B00040710160016841F00101016025606660DD
:1009C00070BD0000008800E094890008103C0240DF
:1009D00070B50446A0F100600D46B0F5801F09D344
:1009E0000C482044B0F5047F04D340F29F210A480C
:1009F00004F030FA094A106820F440701060106862
:100A000040F480701060106840F001001060258094
:100A100070BD0000008800E094890008103C02408E
:100A200070B50446A0F100600D46B0F5801F09D3F3
:100A30000C482044B0F5047F04D340F286210A48D4
:100A400004F008FA094A106820F440701060106839
:100A500040F400701060106840F0010010602560E4
:100A600070BD0000008800E094890008103C02403E
:100A700017490868C206174805D5C26942F008023E
:100A8000C26110220A600A68920605D5C26942F066
:100A90000402C26120220A600A68520605D5C269B2
:100AA00042F00202C26140220A600A68120605D5BD
:100AB000C26942F00102C26180220A600A6892079C
:100AC00005D5C26942F01002C26102200860704779
:100AD0000C3C02403402002070B51149044600204D
:100AE000C86101F049FB06460E4D09E0601C07D0C5
:100AF00024B101F041FB801BA04201D9032070BD4D
:100B00002868C003F2D42868C00701D001202860FB
:100B1000286810F0F200F2D0FFF7AAFF012070BDA4
:100B2000340200200C3C024083B2000C0B601060C9
:100B300070470000F8B500260546009608680C4688
:100B4000122804D940F202515F4804F083F960682A
:100B5000401E0F2804D940F203515B4804F07AF993
:100B6000A06890B1012810D002280ED003280CD024
:100B700004280AD0052808D0062806D0072804D063
:100B800040F20451504804F065F995F83C00012802
:100B900019D0012085F83C00216807202A6809291E
:100BA00013D9D3680A3901EB410188408343D360EC
:100BB0002078A1680A3800EB400081402868C268AC
:100BC0001143C16010E00220F8BD136901EB41013F
:100BD0008840834313612078A16800EB4000814086
:100BE000286802691143016160681F21072813D238
:100BF0002A68536B401E00EB800081408B43536397
:100C0000208881B22079401E00EB80008140286856
:100C1000426B1143416327E02A680D2812D2136BFF
:100C2000C01F00EB800081408B4313632179208833
:100C3000C91F80B201EB8101884029680A6B10430B
:100C4000086311E0D36A0D3800EB800081408B43CC
:100C5000D362217920880D3980B201EB810188406F
:100C60002968CA6A1043C86218482968814208D1B5
:100C70002168122905D1D0F8041341F48001C0F88D
:100C80000413296881421AD12168102901D0112941
:100C900015D1D0F8041341F40001C0F80413206802
:100CA00010280CD10A480B490068B0FBF1F000EBAA
:100CB0008000400000E0401E00900028FBD185F835
:100CC0003C600020F8BD00004C8600080020014078
:100CD0001C00002040420F0005F0C6B87047704766
:100CE0002DE9F04704004FF000057DD071492068E0
:100CF00088420AD07049884207D07049884204D09F
:100D000040F20B116E4804F0A5F8606868B1B0F5C8
:100D1000803F0AD0B0F5003F07D0B0F5403F04D087
:100D20004FF48671664804F095F8A0684FF080771C
:100D30004FF000784FF0407950B1B84208D04045AC
:100D400006D0484504D040F20D115D4804F082F809
:100D5000206930B1012804D04FF48771584804F05D
:100D600079F8A06930B1012804D040F20F1154483D
:100D700004F070F8534EA06A80B3B8422ED04045BC
:100D80002CD048452AD0B0F1806F27D0B0F1A06FA9
:100D900024D0B0F1C06F21D0B0F1E06F1ED0B0F11F
:100DA000006F1BD0B0F1106F18D0B0F1206F15D0CC
:100DB000B0F1306F12D0B0F1406F0FD0B0F1506F82
:100DC0000CD0B0F1606F09D0B0F1706F06D0B042B6
:100DD00004D04FF488713A4804F03CF8E06848B118
:100DE000B0F5006F06D000E041E040F21111344848
:100DF00004F030F8E069401E0F2804D94FF48971DF
:100E00002F4804F027F8206B30B1012804D040F2BD
:100E100013112B4804F01EF86069012807D030B187
:100E2000022804D04FF48A71254804F013F8206A90
:100E300030B1012804D040F21511214804F00AF81D
:100E4000A06AB0420FD0E06A68B1B0F1805F0AD00A
:100E5000B0F1005F07D0B0F1405F04D040F219114B
:100E6000174803F0F7FF206C002618B108E00120B6
:100E7000BDE8F087666484F83C60204600F024F802
:100E8000206CC00610D4206C20F4885040F0020082
:100E900020642046FFF7FEFA6664206C20F0020012
:100EA00040F00100206400E0012584F83C60284601
:100EB000DEE7000000200140002101400022014047
:100EC0004C8600080100000F70B586B0064614215C
:100ED0006846FFF709FA24493068884242D123481E
:100EE0000025016841F48071016000681F4900F429
:100EF000807014390590086840F0040008600868A4
:100F000000F004000590086840F0010008600868DF
:100F1000032400F0010005903D208DE83100694672
:100F2000134800F095FF0F208DE831006946114805
:100F300000F08EFF114C1048C4E900050015A560B3
:100F4000C4E90350400060618000A0614011C4E921
:100F500007052046656200F0FBFC08B1FFF73AFC8C
:100F6000B463A66306B070BD00200140443802405F
:100F70000008024000000240106402409C02002071
:100F8000F8B5002504460095806916460F4630B135
:100F9000012804D04FF47E713F4803F05BFFE06A04
:100FA00068B1B0F1805F0AD0B0F1005F07D0B0F156
:100FB000405F04D040F2F931374803F04BFF94F81A
:100FC0003C00012807D0012084F83C00206881689B
:100FD000C90702D011E00220F8BD816841F001018B
:100FE00081602E482E490068B0FBF1F000EB400014
:100FF00000E0401E00900028FBD120688168C907EE
:1010000048D0216C40F20162914341F48071216427
:101010004068400505D5206C20F4005040F4805015
:101020002064206CC00404D5606C20F0060060646D
:1010300000E0656484F83C50A16B1A48C863A16B5A
:1010400019480864A16B1948C86421686FF0220030
:1010500008602068416841F08061416020688168D3
:1010600041F480718160216833463A464C31A06B6F
:1010700000F0C2FD0E49D1F80403C006206801D07B
:10108000884207D1816811F0405F03D1816841F047
:10109000804181600020F8BD4C8600081C000020C3
:1010A00040420F00130400088B0400087504000878
:1010B000002001402DE9F04148690C461B2804D965
:1010C00040F265114D4803F0C5FEA06930B101281A
:1010D00004D04FF4B371494803F0BCFEE06930B16D
:1010E000012804D040F26711444803F0B3FE2069A0
:1010F00030B1012804D04FF4B471404803F0AAFE87
:10110000206A30B1012804D040F269113B4803F055
:10111000A1FE606A1C2804D94FF4B571374803F06A
:1011200099FE217D0120884035490A6842F001027C
:101130000A600A6822F47C520A600A68636A42EA1A
:1011400003220A602E4A1C321368834313602C4D1D
:101150002C4BE6690C35A6B92E6886432E60A7890C
:10116000666867F31F46676903EBC707C7F8406601
:101170002789266867F31F46676903EBC707C7F827
:101180004466E669012E14D12E6806432E60268837
:10119000656866F31F45666903EBC606C6F84056E8
:1011A0002689E56866F31F45666903EBC603C3F845
:1011B0004456134BA5691B1D002D1D6806D0054321
:1011C0001D600F4B2569143315B104E08543F7E723
:1011D0001D6885431D602569012D02D11D680543E9
:1011E0001D60236A012B02D1136803431360086852
:1011F00020F0010008600020BDE8F081C4860008EE
:101200000066004000600040704700002DE9F0419A
:10121000044600680026C168C1F300134169C1F3A8
:10122000C002102113B10AB14E01C16020680269E9
:101230004369C2F30012C3F380131AB113B146F429
:1012400080660161216848694FF00105C043C0070D
:101250004ED18A687648904323D000208B68754A27
:101260009A4320D000228F68734BBB431DD00023CC
:10127000104318433CD088688A68C0F340008B68EC
:10128000C2F34022C3F340431043184329D04A69B4
:10129000204622F001024A6194F83C10122906D03F
:1012A0000AE00120DAE70122DDE70123E0E7016837
:1012B0004A6922F40F424A6190F83C10422908D052
:1012C000522908D0722908D080F83C5000F036FA34
:1012D00009E0222102E0322100E0622180F83C1086
:1012E000F4E746F4006620688168544A114381603F
:1012F0002168C868496910F0030FC1F3400104D0A8
:1013000019B100212046FFF779F921680869496978
:1013100010F0030FC1F3001104D019B101212046D0
:10132000FFF76CF9206C30432064206881694269C2
:1013300011F0010F4369C2F30022C3F3C03305D09B
:1013400022B11BB1216C41F0010121648169C1F31B
:1013500040034169C1F340224169C1F3C0312BB15F
:1013600022B119B1216C41F0020121648169C1F3FC
:10137000800341694269C1F38021C2F3C0322BB1BD
:1013800021B11AB1216C41F004012164816911F08D
:10139000700F08D000224169C1F3C0234169C1F335
:1013A000C03112B121E00122F5E7F3B1E9B1816961
:1013B00001F0700140292FD006DC102909D0202926
:1013C0000BD030290DD123E0502929D0602908D134
:1013D0002AE0216C41F0080102E0216C41F010018B
:1013E0002164816921F070018161206C00280DD099
:1013F00021680420486084F83C502068416948F620
:101400005B72914341612046FFF7FEFEBDE8F0812B
:10141000216C41F02001E3E7216C41F04001DFE75E
:10142000216C41F08001DBE7216C41F48071D7E74A
:101430000300000400030008000003101905010068
:101440002DE9F041040077D088492068884206D011
:101450008749884203D0B221864803F0FBFCA0698B
:1014600028B1012803D0B321824803F0F3FCE069DE
:1014700028B1012803D0B4217E4803F0EBFC206A98
:1014800028B1012803D0B5217A4803F0E3FC606A53
:1014900028B1012803D0B621764803F0DBFCA06A0E
:1014A00028B1012803D0B721724803F0D3FCE06AC9
:1014B00028B1012803D0B8216E4803F0CBFCA06806
:1014C00060B1B0F1804F09D0B0F1004F06D0B0F15B
:1014D000404F03D0B921674803F0BCFCE06860B11D
:1014E000B0F1807F09D0B0F1007F06D0B0F1407F2D
:1014F00003D0BA215F4803F0ADFC2069B0F5702F2E
:1015000003D9BB215B4803F0A5FC6069B0F5E00F8F
:1015100003D9BC21574803F09DFC6068401EB0F51C
:10152000806F03D3BD21534803F094FC94F83C0032
:10153000002520B108E0FFE70120BDE8F08184F834
:101540003D50204600F098F8022084F83C002068C6
:10155000016821F0020101602068016841F0010189
:10156000016000F009FE0746032604E000F004FED7
:10157000C01B0A2863D820684068C007F6D02068DE
:101580004168C90768D0A169012901683FD021F0ED
:1015900080010160E0690128206801683AD021F0EB
:1015A00040010160206A01282068016835D021F0DF
:1015B00020010160606A01282068016830D021F0B4
:1015C00010010160A06A0128206801682BD021F079
:1015D00008010160E06A01282068016826D021F036
:1015E00004010160D4E902010843D4E90412114363
:1015F00008436168491E08432168C8612068016882
:1016000021F00101016000F0B7FD07461CE041F048
:101610008001BEE741F04001C3E741F02001C8E787
:1016200041F01001CDE741F00801D2E741F004019B
:10163000D7E700BF00F0A0FDC01B0A2804D904F8BA
:101640003C6F0320657078E720684068C007F1D1DF
:1016500020684068C00703D0042084F83C006BE792
:101660002564012084F83C00002066E70064004007
:1016700000680040C48600082DE9F04186B00446A9
:1016800014216846FEF730FE26492068884245D17D
:1016900025484FF00008016841F080610160016851
:1016A00001F080610591016841F0007101600068FE
:1016B00000F0007005901C481038016841F00201EC
:1016C00001600068022400F0020005904FF4805091
:1016D000CDE9000402AA01200325092682E8610061
:1016E000124F6946384600F0B3FB20038DE8110124
:1016F000CDE903566946384600F0AAFB00220821CE
:101700003F2000F0CBFD3F2000F0B4FD0022092176
:10171000402000F0C3FD402000F0ACFD06B0BDE865
:10172000F0810000006800404038024000040240A0
:101730000022014905F0C0BE9D050020014906F0C8
:1017400009BA00009E06002010B504000AD00C491A
:101750002068884203D077210A4803F07BFB607938
:1017600010B106E0012010BD00202071204600F0DD
:101770000BF80220607101206071002010BD000094
:10178000003002403C87000808B5006806498842DE
:1017900008D10648016841F480510160006800F4F6
:1017A0008050009008BD00000030024030380240F8
:1017B0002DE9F84304464FF00009CDF80090634846
:1017C0004FF41651A56D0068B0FBF1F72E6894F840
:1017D0005C10082000FA01F131420FD021680A683C
:1017E00052070BD50A6822F004020A6094F85C10D4
:1017F0008840A860606D40F00100606594F85C105E
:101800004FF0010808FA01F0304208D02168496918
:10181000090604D5A860606D40F00200606594F888
:101820005C1004208840304208D02168096889078C
:1018300004D5A860606D40F00400606594F85C1009
:1018400010208840304218D021680968090714D553
:10185000A86020680168490304D50068000308D522
:10186000A16C07E00168C90503D4016821F00801F3
:101870000160216C09B12046884794F85C10202053
:101880008840304231D021680968C9062DD5A8604A
:1018900094F8350005282068016806D0490347D52B
:1018A000006800031DD4616C1CE021F0160101608A
:1018B0002068416921F080014161206C08B9A06C69
:1018C00020B12068016821F00801016094F85C10E3
:1018D0003F208840A86084F8349084F83580216DDA
:1018E0001FE0E16B09B120468847606D00282BD0CE
:1018F000606DC00714D0052084F8350020680168A9
:1019000021F0010101600098401C0090B84203D80A
:1019100020680068C007F6D184F8349084F83580D8
:10192000E16C002910D001B02046BDE8F043084723
:101930000168C905D5D4016821F01001016084F85F
:10194000349084F83580CCE7BDE8F8831C00002093
:101950002DE9F041044600F00FFC0546002C7CD038
:10196000A149206888423ED09F49183188423AD028
:101970009D493031884236D09B494831884232D027
:101980009949603188422ED09749783188422AD0CF
:1019900095499031884226D09349A831884222D077
:1019A000924988421FD09149183188421BD08F49F3
:1019B0003031884217D08D494831884213D08B4945
:1019C000603188420FD08949783188420BD08749ED
:1019D0009031884207D08549A831884203D0C82178
:1019E000834803F037FA6068C0B1B0F1007F15D0CA
:1019F000B0F1806F12D0B0F1C06F0FD0B0F1006FB6
:101A00000CD0B0F1206F09D0B0F1406F06D0B0F12A
:101A1000606F03D0C921764803F01CFAA06838B182
:101A2000402805D0802803D0CA21714803F012FA5B
:101A3000E068B0F5007F04D018B1CB216C4803F00A
:101A400009FA2069B0F5806F04D018B1CC2168483C
:101A500003F000FA606958B100E06FE0B0F5006F84
:101A600006D0B0F5805F03D0CD21614803F0F2F9D4
:101A7000A06948B1B0F5005F06D0B0F5804F03D043
:101A8000CE215B4803F0E6F9E06940B1B0F5807F14
:101A900005D0202803D0CF21554803F0DBF9206A78
:101AA00060B1B0F5803F09D0B0F5003F06D0B0F589
:101AB000403F03D0D0214E4803F0CCF9606A88B390
:101AC000042805D0D1214A4803F0C4F9606A48B31C
:101AD000A06A48B1012807D0022805D0032803D006
:101AE000D621434803F0B6F9E06A60B1B0F5000FC3
:101AF00009D0B0F1807F06D0B0F1C07F03D0D721EC
:101B00003B4803F0A7F9206B60B1B0F5001F09D086
:101B1000B0F5800F06D0B0F5C00F03D0D8213448FF
:101B200003F098F9002684F83460022084F8350028
:101B30002068016821F0010101600EE00120BDE88C
:101B4000F08100BF00F018FB401B052805D92020BC
:101B50006065032084F83500F1E720680068C0075D
:101B6000F0D12268116823480140D4E901031843E9
:101B7000D4E903352B43184363691843A369184319
:101B8000E3691843236A18430843616A042903D1AF
:101B9000D4E90B1319430843106020684069656A53
:101BA00020F0070128460D43012704280CD1A06A24
:101BB0000543E06A40B12046FEF7CEFD20B140204B
:101BC000606584F83570B9E7206845612046FEF706
:101BD000AFFD94F85C203F2191408160666584F8F8
:101BE00035700020ABE70000106002401064024036
:101BF000008B00083F8010F02DE9F047894604462D
:101C0000876D0025581E4FF6FF711E46904688428C
:101C100004D34FF4EA711E4803F01CF994F8340021
:101C200001280DD0012084F8340094F835100020EC
:101C3000012907D084F8340002252846BDE8F08742
:101C40000220FBE7022184F83510606533464246E6
:101C500049462046FEF7AAFD94F85C103F208840D4
:101C6000B8602068016841F0160101602068416990
:101C700041F080014161206C20B12068016841F091
:101C8000080101602068016841F001010160D4E7AA
:101C9000008B000831B500F06FFA009C0546601C0F
:101CA00000D0641C00F068FA401BA042FAD338BD93
:101CB0002DE9F04704462E480F46017E012912D037
:101CC000012181460176206828B1012803D09E2198
:101CD000284803F0BFF84CF2503A5046FEF7FCFE9D
:101CE000060003D03EE00220BDE8F0874FF0FF3051
:101CF00038602068DFF8808001280BD0D4E902101A
:101D0000401801D00C2803D9B6211A4803F0A2F8D4
:101D1000A56820E0207C6168FEF7DEFD5046FEF7F6
:101D2000DBFED8F80010064621F00401C8F80010C8
:101D300016E0217C2846FEF74FFD5046FEF7CCFE0C
:101D4000D8F80010060021F0FA01C8F8001001D000
:101D50003D6005E06D1CD4E902100844A842E8D8B3
:101D6000FEF790FD002189F818103046BCE700000E
:101D7000340200200C8A0008103C0240034801682D
:101D800041F000410160002070470000103C02401B
:101D90002DE9F047214E05461446307E1F46894600
:101DA000012813D0012030764DB1012D07D0022D2E
:101DB00005D0032D03D0B521194803F04BF84CF2A0
:101DC00050384046FEF788FE18B114E00220BDE806
:101DD000F0879DB1012D16D0022D19D022463B4629
:101DE0004846FEF7CBFD4046FEF776FE0D490A68F1
:101DF00022F001020A6000213176E8E7E1B24846AC
:101E0000FEF796FDEFE7A1B24846FEF7E1FDEAE7EF
:101E100021464846FEF704FEE5E7000034020020B4
:101E200094890008103C024006480068002807DA40
:101E3000044805490C3801600449016000207047DE
:101E400001207047103C024023016745AB89EFCD6C
:101E50002DE9F84F0446A0480D4684421BD09F4808
:101E6000844218D09E48844215D09E48844212D0A5
:101E70009D4884420FD09D4884420CD09C488442A7
:101E800009D09C48844206D09B48844203D0C2219A
:101E90009A4802F0DFFF28680104090C01D0000C09
:101EA00003D0C321954802F0D5FF6868F8B1012836
:101EB0001DD011281BD0022819D0122817D0904904
:101EC000884214D08F49884211D08F4988420ED061
:101ED0008E4988420BD08E49884208D08D4988426D
:101EE00005D0032803D0C421844802F0B3FFA868BA
:101EF00038B1012805D0022803D0C5217F4802F05F
:101F0000A9FF00264FF0010B0BFA06F02F6882465E
:101F1000074057457DD16868022801D012282AD190
:101F20002869D8B1092819D0012817D0022815D05E
:101F3000032813D0042811D005280FD006280DD06F
:101F400007280BD0082809D00A2807D00C2805D06C
:101F50000F2803D0D621694802F07CFFF00804EB7B
:101F60008002106A7107CB0E0F21994088432969BE
:101F700099400143116220687200032101FA02F8BE
:101F80002979914601F0030120EA080001FA09F1DC
:101F9000014321606868012805D0022803D0112878
:101FA00001D012281CD1E86848B1012807D00228C6
:101FB00005D0032803D0E921504802F04BFFA06868
:101FC000E96820EA080001FA09F10143A1606068AC
:101FD000297920EA0A00C1F30011B1400143616090
:101FE000E068A96820EA080001FA09F10143E1600C
:101FF0006868C0006AD54848016841F480410160C2
:10200000006826F0030100F48040009043480A185D
:1020100000E05BE0D2F80808B1070B0F0F219940F0
:1020200088432D498C4201D1002128E02B498C4264
:1020300001D1012123E02A498C4201D102211EE075
:1020400028498C4201D1032119E027498C4201D152
:10205000042114E025498C4201D105210FE02449D7
:102060008C4201D106210AE022498C4201D107218C
:1020700005E021498C4201D1082100E00921994065
:102080000143C2F80818264908686A68B843D203B1
:1020900000D5384308602249091D08686A68B843BA
:1020A000920300D5384308601D49083108686A6802
:1020B000B843D20200D53843086019490C3108688A
:1020C0006A68B843920200D538430860761C102E27
:1020D000FFF41AAFBDE8F88F000002400004024090
:1020E00000080240000C02400010024000140240B0
:1020F00000180240001C024000200240888A0008AC
:10210000000011100000211000003110000012101A
:10211000000022100000321044380240003001401C
:10212000003C014070B50C00054604D140F28B1113
:10213000034802F08FFE2869204000D0012070BDC6
:10214000888A000870B515460C00064604D140F296
:10215000AB11084802F07EFE45B1012D04D04FF4CA
:10216000D671044802F076FEB46170BD2004B061FF
:1021700070BD0000888A00080148006870470000B0
:102180000000002002480168491C016070470000FF
:10219000000000200B4810B5016841F40071016097
:1021A000016841F480610160016841F4807101605F
:1021B000032000F0A7F8002000F006F800F03EF839
:1021C000002010BD003C024010B5014688B000223E
:1021D0001C2000F063F81C2000F04CF81448002488
:1021E000016841F001010160006805A900F00100EB
:1021F0000690684600F0B6F900F0D4F90D494000A9
:10220000B0FBF1F10C484FF08042491E026040F2F1
:10221000E732C0E90324C0E9011400F07DFD10B1EC
:10222000012008B010BD044800F090FEF9E700005E
:102230004038024040420F004C0400200C4882B05D
:10224000016841F480410160006800F48040009022
:102250000748001F016841F08051016000680022BA
:1022600000F0805000900F21901E02B000F016B8D0
:102270004438024010B5040003D5CE21064802F0D0
:10228000E9FD04F01F01012088406109890001F186
:10229000E021C1F8000110BD1C89000870B5154689
:1022A0000C460646102A03D3BA21144802F0D2FD88
:1022B000102C03D3BB21114802F0CCFD104800685C
:1022C000C0F30223C3F107022046042A00D90422E6
:1022D000191D072901D2002300E0DB1E012404FAA6
:1022E00002F1491E014099409C40641E2C4021434C
:1022F0003046BDE8704002F004B800001C890008B8
:102300000CED00E010B5044607280BD0062C09D0D0
:10231000052C07D0042C05D0032C03D0A22108489B
:1023200002F098FD074904F0070208684FF6FF0322
:10233000184040EA0220044A1043086010BD000023
:102340001C8900080CED00E00000FA052DE9F047BB
:102350000E4604007ED02068401E0E2804D940F2AC
:10236000BA217B4802F076FD96B1012E10D0022EE4
:102370000ED0032E0CD0042E0AD0052E08D0062E27
:1023800006D0072E04D040F2BB21714802F062FD56
:10239000DFF8C081D8F80000F7B200F00F00B042BB
:1023A00007D288F80070D8F8000000F00F00B042A3
:1023B0007DD12068684D810729D5400703D528685D
:1023C00040F4E05028602078000703D5286840F4E6
:1023D00060402860A068A0B1802812D0902810D05A
:1023E000A0280ED0B0280CD0C0280AD0D02808D001
:1023F000E02806D0F02804D040F2DF21544802F053
:1024000029FD2868A16820F0F000084328602078A2
:10241000C0073FD0DFF840916068A9F1080968B1B2
:1024200001281ED0022820D040F2E621484802F0C0
:1024300011FD6068012814D0022816D0D9F80000D8
:102440008007002833DA2868616820F00300084319
:10245000286000E02BE0FFF78FFE814641F2883ACA
:1024600011E0D9F800008003EBE7D9F80000800103
:10247000E7E700BFFFF780FEA0EB0901514502D955
:102480000320BDE8F0872868616800F00C00B0EB1D
:10249000810FEFD1D8F80010404601F00F01B14292
:1024A00007D90770006800F00F00B04201D001208A
:1024B000E7E720784FF4805640074FF4A0574FF4D9
:1024C000C0584FF4E05914D5E06860B1B0420AD06A
:1024D000B84208D0404506D0484504D040F22331E8
:1024E0001B4802F0B7FC2868E16820F4E05008437C
:1024F00028602078000715D5206960B1B0420AD065
:10250000B84208D0404506D0484504D040F22A31B0
:102510000F4802F09FFC2868216920F4604040EADF
:10252000C100286000F056F82968F02292FAA2F261
:1025300001F0F001B2FA82F2D140084A515CC84081
:10254000074908600020FFF73FFE002099E70000E0
:10255000A4880008003C024008380240508200086D
:102560001C0000200F2202600C4A136803F00303D2
:102570004360136803F0F0038360136803F4E053CF
:10258000C36012684FF4E05303EAD20202610448C8
:10259000006800F00F000860704700000838024033
:1025A000003C024008480949006809684FF4E052BD
:1025B00092FAA2F201F4E051B2FA82F2D140044A56
:1025C000515CC840704700001C00002008380240E1
:1025D00060820008154810B5006810F00C0214481D
:1025E00013D01449042A0FD0082A0ED10F4C241FEF
:1025F0002268236802F03F025B0207D52068C0F31F
:102600008810A0FB010106E0084610BD2168C1F357
:102610008811A1FB00010023FDF71CFE2168C1F316
:102620000141491C4900B0FBF1F010BD08380240DF
:102630000024F400001BB7002DE9F84F04007DD002
:1026400020680F2804D94FF4B971F14802F002FC58
:10265000DFF8C0832078A8F1040BC007ABF10405B4
:1026600044D0606840B1012806D0052804D040F26B
:102670007711E74802F0EEFBD8F800104046C1F3AE
:102680008101012908D00068C0F3810002280AD125
:10269000DBF80000400206D52868800326D5606874
:1026A0000028CCD022E0DB492079891F08706068BF
:1026B0004FF47A7768B1FFF75FFD064605E000BF8B
:1026C000FFF75AFD801BB8427ED828688003F7D5F3
:1026D0000CE0FFF751FD064605E000BFFFF74CFD9B
:1026E000801BB842F0D828688003F7D42078CA4EFF
:1026F00080074FF0010A4FF0000756D5E06830B16F
:10270000012804D040F2A911C14802F0A3FB2069BE
:102710001F2804D94FF4D571BD4802F09BFBD8F8AF
:102720000010404611F00C0F0AD00068C0F3810081
:1027300002280CD1DBF80000400200E084E006D45F
:102740002868800715D5E06801287DD111E0E06890
:10275000E0B1C6F800A0FFF70FFD814606E000BF1C
:10276000FFF70AFDA0EB09000228ADD82868800712
:10277000F6D52868F82292FAA2F22169B2FA82F21A
:1027800020F0F8009140084328600EE03760FFF722
:10279000F3FC814606E000BFFFF7EEFCA0EB09006A
:1027A000022891D828688007F6D42078000732D50F
:1027B000DFF868926069E8B1012808D04FF4F5713C
:1027C000934802F047FB00E099E0606990B1C9F8D6
:1027D00000A0FFF7D1FC814606E000BFFFF7CCFC6C
:1027E000A0EB09000228C0D88A486C300068800736
:1027F000F4D510E0C9F80070FFF7BEFC814605E093
:10280000FFF7BAFCA0EB0900022878D881486C30A9
:1028100000688007F4D42078400755D5A06840B1FF
:10282000012806D0052804D04FF40571784802F03D
:1028300011FB78483830016841F080510160006830
:1028400000F08050009000E0C6E07548016841F457
:1028500080710160FFF790FC814605E0FFF78CFC7A
:10286000A0EB090002284AD86D480068C005F5D5DC
:10287000DFF8A091207A09F1680989F80000A068C2
:1028800088B1FFF779FC009008E000BFFFF774FC07
:102890000099411A4CF25030814230D8D9F80000EA
:1028A0008007F3D510E0FFF767FC009008E000BF59
:1028B000FFF762FC0099411A4CF2503081421ED859
:1028C000D9F800008007F3D4A069E8B3012808D044
:1028D000022806D040F249214D4802F0BBFAA06917
:1028E00090B3D8F80000C0F38100022874D0A0692A
:1028F000022805D03766FFF73FFC044680E07CE005
:10290000E06938B1B0F5800F04D040F25221404860
:1029100002F0A0FA206A3F2804D940F253213C4833
:1029200002F098FA606AC038F02804D94FF41571A3
:10293000374802F08FFAA06A02280CD004280AD087
:10294000062808D0082800E05DE004D040F25521B8
:102950002F4802F07FFAE06A801E0D2804D940F269
:1029600056212B4802F076FA3766FFF705FC07463A
:1029700005E000BFFFF700FCC01B64283DD82868B5
:102980008001F7D4D4E90701084347F6C07292FAF0
:10299000A2F2616AB2FA82F29140A26A4FF0FF336A
:1029A00003EB52024FF4403393FAA3F3B3FA83F3E9
:1029B0009A40114308434FF0706292FAA2F2E16A22
:1029C000B2FA82F291400843CBF80000C6F860A04A
:1029D000FFF7D2FB044606E017E000BFFFF7CCFB91
:1029E000001B642809D828688001F7D50BE000BFD8
:1029F000FFF7C2FB001B642802D90320BDE8F88F53
:102A000028688001F4D40020F8E70120F6E70000F0
:102A1000A48800080838024000004742800E474260
:102A2000007000402DE9F0470446007900268946F1
:102A300001280CD0012727716079B046012808D001
:102A40005FF0010684F804803046BDE8F08702207C
:102A5000FBE702206071FFF78FFB05460BE000BF2C
:102A6000FFF78AFB401B022805D90420607184F817
:102A700004800320E9E720684068C043C007EFD125
:102A800020688068A060C9F800006771DAE710B5B7
:102A9000044600F10801FFF7C5FF08B1002010BD92
:102AA000A06810BD10B5040002D0607910B106E036
:102AB000012010BD00202071204600F00BF80220FC
:102AC00060712068016841F00401016001206071BB
:102AD000002010BD08B500680649884208D10648A4
:102AE000016841F040010160006800F04000009082
:102AF00008BD000000080650343802407047704797
:102B000070B50C46054600684049884207D04049E8
:102B1000884204D040F273613E4802F09BF920687D
:102B2000B0F5006F05D020B140F27461394802F071
:102B300091F96068B0F5806F05D020B140F2756101
:102B4000344802F087F9A06868B1B0F5807F0AD0F8
:102B5000B0F5007F07D0B0F5407F04D040F2766139
:102B60002C4802F077F9E068FF2804D940F2776139
:102B7000284802F06FF92069B0F5805F05D020B1D8
:102B80004FF4CF61234802F065F9606938B1B0F5C0
:102B9000005F04D040F279611E4802F05BF9A06941
:102BA000B0F5804F05D020B140F27A61194802F0AB
:102BB00051F995F83C00012825D0012085F83C000A
:102BC000E068A26820F440701043626820F48060DE
:102BD0001043226820F400601043226920F48050E2
:102BE0001043626920F400501043A26920F4804031
:102BF0001043002120F4004010432A68506485F8F7
:102C00003C10002070BD022070BD0000000001409B
:102C1000000401402C88000870B50D460446006889
:102C2000334988421FD0B0F1804F1CD031498842CF
:102C300019D03149884216D03049884213D03049E2
:102C4000884210D02F4988420DD02F4988420AD09F
:102C50002E49884207D02E49884204D040F24B6169
:102C60002C4802F0F7F8286890B1102810D02028DE
:102C70000ED030280CD040280AD0502808D0602828
:102C800006D0702804D040F24C61224802F0E2F8ED
:102C90006868802805D020B140F24D611D4802F0DF
:102CA000D9F894F83C0001281FD0012084F83C009A
:102CB000022184F83D1021684A6822F070024A60BF
:102CC00021684A682B681A434A6021688A6822F0A2
:102CD00080028A6021688A686B681A438A6084F877
:102CE0003D00002084F83C0070BD022070BD000053
:102CF000000001400004004000080040000C0040BB
:102D00000010004000140040000401400040014059
:102D1000001800402C88000810B5040054D0344836
:102D2000226882422AD0B2F1804F27D031488242B5
:102D300024D03148824221D0304882421ED03048CF
:102D400082421BD02F48824218D02F48824215D091
:102D50002E48824212D02E4882420FD02D48824205
:102D60000CD02D48824209D02C48824206D02C48F3
:102D7000824203D0D7212B4802F06CF8A06858B1EA
:102D8000102809D0202807D0402805D0602803D07B
:102D9000D821244802F05EF8206948B1B0F5807F60
:102DA00006D0B0F5007F03D0D9211E4802F052F8BA
:102DB000A06928B1802803D0DA211A4802F04AF825
:102DC00094F83D0010B107E0012010BD002084F808
:102DD0003C00204600F028F8022084F83D00211D28
:102DE000206801F069FC012084F83D00002010BD3E
:102DF000000001400004004000080040000C0040BA
:102E00000010004000140040000401400040014058
:102E1000004401400048014000180040001C0040F0
:102E200000200040B487000808B5154A016815481D
:102E3000914207D1016841F001010160006800F092
:102E4000010005E0104A914204D10E48001F04E041
:102E5000009008BD0D4A914207D1016841F002017E
:102E60000160006800F00200F2E7094A9142F0D1E7
:102E7000016841F480310160006800F48030E7E7C8
:102E800000000140443802400004004000040140BA
:102E90000040014010B5044601681E4881422BD015
:102EA000B1F1804F28D01C48814225D01B48814277
:102EB00022D01B4881421FD01A4881421CD01A4898
:102EC000814219D01948814216D01948814213D045
:102ED0001848814210D0184881420DD017488142CD
:102EE0000AD01748814207D01648814204D040F2E8
:102EF0003311154801F0AEFF022084F83D00206830
:102F0000016841F001010160012084F83D000020CA
:102F100010BD000000000140000400400008004017
:102F2000000C00400010004000140040000401406C
:102F300000400140004401400048014000180040AA
:102F4000001C004000200040B487000810B5044673
:102F500001681D4881422BD0B1F1804F28D01B4819
:102F6000814225D01A48814222D01A4881421FD07E
:102F7000194881421CD01948814219D01848814211
:102F800016D01848814213D01748814210D01748F4
:102F900081420DD0164881420AD01648814207D09E
:102FA0001548814204D040F26311144801F052FFE9
:102FB0002068C16841F00101C1602068016841F0EA
:102FC00001010160002010BD00000140000400402C
:102FD00000080040000C00400010004000140040B9
:102FE000000401400040014000440140004801400D
:102FF00000180040001C004000200040B48700087A
:103000002DE9F05F044690F83C000D46012844D0BD
:10301000012084F83C00022084F83D002868B0F5C7
:10302000805F16D0B0F5005F13D090B1102810D09B
:1030300020280ED030280CD040280AD0502808D0A4
:10304000602806D0702804D040F67F71F84801F05F
:1030500001FF2068816821F0770121F47F418160C0
:103060002868F449F44AF54BF54EF64FDFF8D8835B
:10307000DFF8D8B3DFF8D8E3DFF8D8934FF0804C0F
:103080004FF4004A50287DD00FDC20287BD007DC8D
:10309000002879D0102878D197E10220BDE8F09F70
:1030A000302873D04028F6D139E160286FD07028DD
:1030B0007AD0B0F5805F44D04FF400584045EAD153
:1030C000206888420ED060450CD090420AD09842C9
:1030D00008D0B04206D0B84204D040F6AC71D44813
:1030E00001F0B8FE6868504509D040B1022806D00A
:1030F0000A2804D040F6AE71CD4801F0ABFEA868B6
:1031000060B1B0F5805F09D0404507D0B0F5405FB1
:1031100004D040F6AF71C64801F09CFEE8680F2865
:1031200004D94FF47B61C24801F094FED5E9012136
:10313000EB68206801F082FB2068816841F48041DF
:1031400073E0206888422AD0604528D0904226D07B
:10315000984224D0B04222D0BF4988421FD0BF49F4
:1031600088421CD0B8421AD0404518D0584516D0D5
:10317000704514D0484512D0B94988420FD0B9499A
:10318000884206E053E039E106E1C1E06CE18BE002
:103190000AE004D040F68B71A54801F05BFE206880
:1031A000816821F0070140E0206888420ED0604528
:1031B0000CD090420AD0984208D0B04206D0B84213
:1031C00004D040F694719A4801F044FE6868504576
:1031D00009D040B1022806D00A2804D040F69671E2
:1031E000934801F037FEA86868B1B0F5805F0AD057
:1031F000B0F5005F07D0B0F5405F04D040F697719E
:103200008B4801F027FEE8680F2804D940F6987132
:10321000874801F01FFED5E90121EB68206801F025
:103220000DFB2068816841F07701816070E02068C3
:1032300088421CD060451AD0904218D0984216D0CF
:10324000B04214D0B84212D0404510D058450ED0EC
:1032500070450CD048450AD08149884207D0814941
:10326000884204D040F6BE71714801F0F3FD6868F1
:10327000504509D040B1022806D00A2804D040F6B3
:10328000C1716B4801F0E6FDE8680F2804D940F6EB
:10329000C271674801F0DEFDEA686968206801F0E4
:1032A000DBFB5021206831E02068884212D0604565
:1032B00010D090420ED098420CD0B0420AD0B84202
:1032C00008D0404506D0484504D040F6CC71584857
:1032D00001F0C0FD6868504509D040B1022806D011
:1032E0000A2804D040F6CF71514801F0B3FDE868D8
:1032F0000F2804D94FF47D614D4801F0ABFDEA6819
:103300006968206801F0B9FB6021206801F0A0FA2B
:10331000012084F83D00002084F83C00BEE62068CF
:1033200088421CD060451AD0904218D0984216D0DE
:10333000B04214D0B84212D0404510D058450ED0FB
:1033400070450CD048450AD04549884207D04549C8
:10335000884204D040F6DA71354801F07BFD686898
:10336000504509D040B1022806D00A2804D040F6C2
:10337000DD712F4801F06EFDE8680F2804D940F692
:10338000DE712B4801F066FDEA686968206801F08B
:1033900063FB40212068B9E72068884212D060456D
:1033A00010D090420ED098420CD0B0420AD0B84211
:1033B00008D0404506D0484504D040F6E8711C4886
:1033C00001F048FD00212068A0E72068884212D063
:1033D000604510D090420ED098420CD0B0420AD036
:1033E000B84208D0404506D0484504D040F6EE71BA
:1033F0000F4801F02FFD1021206887E720688842E0
:1034000012D0604510D090420ED098420CD0B042FD
:103410000AD0B84208D0404506D0484504D040F60E
:10342000F471034801F016FD202120686EE70000CA
:10343000B48700080000014000040040000800407C
:10344000000C0040000401400040014000440140E5
:1034500000480140001800400010004000140040E7
:10346000001C0040002000402068884212D06045C7
:1034700010D090420ED098420CD0B0420AD0B84240
:1034800008D0404506D0484504D040F6FA710348BC
:1034900001F0E0FC3021206838E70000B487000824
:1034A000704770B50446006801694FF00005C943D4
:1034B000890715D4C168C943890711D4E91E016180
:1034C00001202077206880698007204602D0FFF71E
:1034D000E7FF04E000F0DCF8204600F08CFA2577E6
:1034E00020680169C943490717D4C168C94349071E
:1034F00013D46FF0040101610220207720688069F5
:1035000010F4407F204602D0FFF7CAFF04E000F02D
:10351000BFF8204600F06FFA257720680169C9439B
:10352000090716D4C168C943090712D46FF008010E
:103530000161042020772068C0698007204602D0FE
:10354000FFF7AEFF04E000F0A3F8204600F053FAC6
:10355000257720680169C943C90617D4C168C943E2
:10356000C90613D46FF0100101610820207720688C
:10357000C06910F4407F204602D0FFF791FF04E0BD
:1035800000F086F8204600F036FA257720680169B9
:10359000C943C90708D1C168C943C90704D1891EF5
:1035A0000161204600F064FB20680169C9430906F7
:1035B00009D4C168C943090605D46FF080010161CF
:1035C0002046FFF79BFA20680169C943490609D4E0
:1035D000C168C943490605D46FF040010161204626
:1035E00000F05AFB20680169C94389060BD4C16801
:1035F000C943890607D46FF0200101612046BDE868
:103600007040FFF77CBA70BD10B586B00446142137
:103610006846FCF769FE2368184C1948022203210A
:10362000A34212D1036843F00103036000680292D1
:1036300000F0010005904FF47060CDE90002012018
:10364000CDE9031069460F4813E00F4CA34212D195
:10365000036843F0040303600068CDE9022100F031
:10366000040005904FF47070CDE9000204916946A2
:103670000648FEF7EDFB06B010BD0000000001405B
:1036800030380240000002400004014000080240BF
:10369000704700002DE9F05F044690F83C00924628
:1036A0000D4601284ED04FF0010B84F83CB0BAF122
:1036B000000F10D0BAF1040F0DD0BAF1080F0AD0E4
:1036C000BAF10C0F07D0BAF1180F04D04FF44561CE
:1036D000764801F0BFFB2868602806D0702804D027
:1036E00040F65141714801F0B5FBA86830B102289D
:1036F00004D040F652416D4801F0ACFB286930B16E
:10370000042804D040F65341684801F0A3FB02208E
:1037100084F83D006649674B674E684FDFF8A0C1EB
:10372000DFF8A091684A4FF08048BAF1000F0CD042
:10373000BAF1040F3ED0BAF1080F66D0BAF10C0FFF
:1037400062D187E00220BDE8F09F206888421ED049
:1037500040451CD098421AD0B04218D0B84216D07A
:10376000604514D0484512D0584988420FD0584976
:1037700088420CD090420AD05649884207D0564918
:10378000884204D040F65B41484801F063FB29467B
:10379000206801F065F82068816941F008018161C5
:1037A0002068816921F004018161206881692A69AA
:1037B000114328E02068884212D0404510D098423A
:1037C0000ED0B0420CD0B8420AD0604508D048456F
:1037D00006D0904204D040F66A41344801F03AFBEA
:1037E0002946206801F068F82068816941F4006189
:1037F00081612068816921F480618161206881692B
:103800002A6941EA022181614AE0206888420ED09B
:1038100040450CD098420AD0B04208D0B84206D0F9
:10382000604504D040F67941204801F013FB294659
:10383000206801F083F82068C16941F00801C16186
:103840002068C16921F00401C1612068C1692A6949
:10385000114324E0206888420ED040450CD09842A5
:103860000AD0B04208D0B84206D0604504D040F635
:1038700088410E4801F0EEFA2946206801F0B4F8BC
:103880002068C16941F40061C1612068C16921F407
:103890008061C1612068C1692A6941EA0221C16170
:1038A00084F83DB0002084F83C004CE7B487000861
:1038B000000001400004004000080040000C0040EF
:1038C0000004014000400140001800400044014055
:1038D00000480140001C00400020004010B50400DA
:1038E00058D03648226882422BD0B2F1804F28D07F
:1038F0003348824225D03348824222D03248824225
:103900001FD0324882421CD03148824219D03148FF
:10391000824216D03048824213D03048824210D0C2
:103920002F4882420DD02F4882420AD02E48824230
:1039300007D02E48824204D040F2F3312C4801F0E7
:1039400089FAA06860B110280AD0202808D0402841
:1039500006D0602804D04FF47D71254801F07AFA32
:10396000206950B1B0F5807F07D0B0F5007F04D05A
:1039700040F2F5311E4801F06DFAA06930B180289F
:1039800004D040F2F6311A4801F064FA94F83D0090
:1039900010B107E0012010BD002084F83C00204653
:1039A00000F028F8022084F83D00211D206800F076
:1039B00083FE012084F83D00002010BD000001407E
:1039C0000004004000080040000C004000100040CF
:1039D0000014004000040140004001400044014048
:1039E0000048014000180040001C0040002000403A
:1039F000B4870008704770472DE9F041054600681C
:103A00003B4E3C4F0C46B04206D1ECB3042C50D098
:103A1000082C4ED00C2C4CD0B0F1804F5FD03649E2
:103A2000884206D184B3042C43D0082C41D00C2CFE
:103A30003FD03249884206D134B3042C39D0082C07
:103A400037D00C2C35D02E49884206D1E4B1042C55
:103A50002FD0082C2DD00C2C2BD0B84206D19CB1E5
:103A6000042C26D0082C24D00C2C22D025498842A6
:103A700002D14CB1042C1CD02349884200D11CB186
:103A80002249884202D100E013E094B120498842E3
:103A900002D174B1042C0CD01E49884200D144B12B
:103AA0001D49884200D124B140F255411B4801F024
:103AB000D1F901222146286800F062FE2868B04250
:103AC00001D0B84203D1416C41F4004141642868FF
:103AD000016841F0010101600020BDE8F081002C87
:103AE000E7D0042CE5D0082CE3D00C2CE1D0DBE7A8
:103AF00000000140000401400004004000080040B4
:103B0000000C0040004001400044014000480140DA
:103B100000180040001C004000200040B48700084E
:103B20002DE9F04105460068454E464F0C46B0422F
:103B300006D1ECB3042C50D0082C4ED00C2C4CD019
:103B4000B0F1804F72D04049884206D184B3042C32
:103B500043D0082C41D00C2C3FD03C49884206D1A0
:103B600034B3042C39D0082C37D00C2C35D038493C
:103B7000884206D1E4B1042C2FD0082C2DD00C2C77
:103B80002BD0B84206D19CB1042C26D0082C24D0CE
:103B90000C2C22D02F49884202D14CB1042C1CD0CD
:103BA0002D49884200D11CB12C49884202D100E045
:103BB00013E094B12A49884202D174B1042C0CD08C
:103BC0002849884200D144B12749884200D124B114
:103BD00040F27641254801F03DF90022214628684F
:103BE00000F0CEFD41F2111128688A10B04201D0D8
:103BF000B84209D1036A0B4206D1036A134203D1CA
:103C0000436C23F4004343642868036A0B4206D1E3
:103C1000016A114203D1016821F001010160012014
:103C200085F83D000020BDE8F081FFE7002CD4D0EE
:103C3000042CD2D0082CD0D00C2CCED0C8E7000059
:103C40000000014000040140000400400008004062
:103C5000000C004000400140004401400048014089
:103C600000180040001C004000200040B4870008FD
:103C700010B5044600680749884201D103F028F9CD
:103C80002068B0F1804F03D1BDE81040FEF77ABA4A
:103C900010BD000000400140704700007FB50024C7
:103CA0003E480094019402943B490394C0E90014F7
:103CB00084600125846129070462C16209264910D4
:103CC000C6618162C0E9034505634461FDF708F8F8
:103CD00008B1FCF77FFDCDE90045062469462F4871
:103CE0000294FCF727FF08B1FCF774FD009502254C
:103CF00069462A480195FCF71DFF08B1FCF76AFDEB
:103D000000950325694625480195FCF713FF08B186
:103D1000FCF760FD0420CDE9005069461F48FCF720
:103D200009FF08B1FCF756FD0C200090052001901A
:103D300069461A48FCF7FEFE08B1FCF74BFD0D2062
:103D4000CDE9000469461548FCF7F4FE08B1FCF71C
:103D500041FD0E2000900720019069460F48FCF7B6
:103D6000E9FE08B1FCF736FD0F2000900820019015
:103D700069460A48FCF7DEFE08B1FCF72BFD0A2075
:103D8000CDE9000669460548FCF7D4FE002801D0BD
:103D9000FCF720FD7FBD0000002001405402002000
:103DA000114810B50F4901600521416000214FF015
:103DB0004072C0E902124FF4E02202614FF4001297
:103DC000C0E905210122C0E907214162C0E90A12C8
:103DD000FDF736FB002803D0BDE81040FCF7FABC25
:103DE00010BD000000680040FC020020074910B52B
:103DF000054808600846FDF7A7FC002803D0BDE889
:103E00001040FCF7E7BC10BD003002400400002069
:103E1000094808B5016841F480010160006800228A
:103E200000F48000009005213820FEF737FABDE845
:103E300008403820FEF71EBA3038024010B594B062
:103E4000142216496846FCF736FA0021684603F04A
:103E5000CDF8134C114914222060143105A8FCF749
:103E60002AFA002105A803F0C1F80C496060142269
:103E700028310AA8FCF71FFA00210AA803F0B6F8B7
:103E80000649A06014223C310FA8FCF714FA002167
:103E90000FA803F0ABF8E06014B010BD008200087A
:103EA0000C0000202DE9F04786B014216846FCF78D
:103EB0001BFA5B480024016841F0040101600168BD
:103EC00001F004010591016841F080010160016881
:103ED00001F080010591016841F001010160016874
:103EE00001F001010591016841F0020101600168E2
:103EF00001F002010591016841F0080101600068CC
:103F0000DFF820A100F008004FF4204505900022C2
:103F100029465046FEF716F9DFF80C81002244F2DC
:103F2000FC014046FEF70EF9DFF8009100224FF445
:103F300010414846FEF706F902270095CDE90274C4
:103F40000125694650460195FDF782FF4FF4B040C8
:103F50008DE8310069465046FDF77AFF032600964A
:103F6000CDE9016469463248FDF772FF0097CDE95B
:103F7000016469465046FDF76BFF3020CDE900062D
:103F8000694602944846FDF763FFC0208DE8310082
:103F900069464846FDF75CFF48F203008DE83100B2
:103FA00069464046FDF754FFFC2003968DE8A100CA
:103FB00069464046FDF74CFF4FF47060CDE90006BE
:103FC000694602944046FDF743FFA80303948DE839
:103FD000A10069464046FDF73BFF28030090CDE96C
:103FE0000154694648460394FDF732FFE8030396FF
:103FF0008DE8A10069464846FDF72AFFA8028DE832
:10400000910069465046FDF723FF04208DE83100FA
:1040100069460848FDF71CFF06B0BDE8F0870000C0
:104020003038024000080240000402400000024014
:10403000001C0240000C0240074910B5054808600A
:104040000846FEF72FFD002803D0BDE81040FCF71E
:10405000C1BB10BD000806504003002010B594B04D
:1040600000240E940F941094119412941C2168460D
:104070001394FCF739F91C2107A8FCF735F93448EB
:104080003249C0E90014FF21C0E9024104614461E2
:104090008461FEF741FE08B1FCF79CFB4FF48050B1
:1040A0000E900EA92A48FEF7ABFF08B1FCF792FB71
:1040B0002748FFF713FC08B1FCF78CFB2020CDE963
:1040C000120412A92248FEF7A7FD08B1FCF782FBF3
:1040D000602000907F20CDE90104039404940594AE
:1040E000002269461A480694FFF7D4FA08B1FCF793
:1040F00071FB042269461648FFF7CCFA08B1FCF7B9
:1041000069FB082269461248FFF7C4FA08B1FCF7B8
:1041100061FB0C2269460E48FFF7BCFA08B1FCF7B8
:1041200059FB0794089409944FF400500A94CDE980
:104130000B4007A906480D94FEF7E2FC08B1FCF716
:1041400049FB0348FFF760FA14B010BD00000140BE
:104150004C03002010B586B0002417480094019449
:10416000029403940494134905940160EB21C0E97F
:1041700001141F21C0E903148461FEF7CDFD08B1CD
:10418000FCF728FB4FF48050009069460A48FEF780
:1041900037FF08B1FCF71EFB2020CDE9040404A979
:1041A0000548FEF739FD002801D0FCF713FB06B0E7
:1041B00010BD0000000400408C03002010B594B036
:1041C00000240E940F941094119412941C216846AC
:1041D0001394FCF789F81C2107A8FCF785F83448EC
:1041E0003249C0E90014FF21C0E902410461446181
:1041F0008461FEF791FD08B1FCF7ECFA4FF48050B2
:104200000E900EA92A48FEF7FBFE08B1FCF7E2FA71
:104210002748FFF763FB08B1FCF7DCFA129412A9F8
:1042200023481394FEF7F8FC08B1FCF7D3FA60209A
:1042300000907F20CDE901040394049405940022AA
:1042400069461B480694FFF725FA08B1FCF7C2FA45
:10425000042269461648FFF71DFA08B1FCF7BAFABE
:10426000082269461248FFF715FA08B1FCF7B2FABE
:104270000C2269460E48FFF70DFA08B1FCF7AAFABE
:104280000794089409944FF400500A94CDE90B4028
:1042900007A907480D94FEF733FC08B1FCF79AFA1A
:1042A0000348FFF7B1F914B010BD0000000401404D
:1042B000CC0300201FB5002110480091019102910C
:1042C0000D4A039102604FF4BB72C0E9012109223B
:1042D000C0E903218161FEF71FFD08B1FCF77AFAFE
:1042E0004FF48050009069460448FEF789FE00288C
:1042F00001D0FCF76FFA1FBD004001400C04002004
:1043000070470907090E002806DA00F00F0000F1D7
:10431000E02080F8141D704700F1E02080F80014C0
:104320007047000000F0F0FE0348FDF707FA1E207A
:1043300002F050FEF6E70000FC020020564E574FF8
:10434000574C584D94F8700081066FD4C1066DD457
:1043500055490978C90769D1C1074FEA807145D02D
:104360000029317801DB09B90FE009B1012101E031
:10437000C0F3400194F8712020F0040061F30002C2
:1043800084F8712084F8700011E040071DD547487B
:1043900001F084FC58B194F8710020F0010084F819
:1043A000710094F8701060F3820184F870103F4837
:1043B00001F06AFCC8B394F8710040F0040084F87E
:1043C000710001F0A9FC386038E0384801F05CFC6D
:1043D00068B394F8710040F0010084F8710094F81B
:1043E000701060F3820184F8701027E0002925DB4B
:1043F000317841B194F8711020F0040041F00101CE
:1044000084F871100FE04007C1D4284801F03CFC4B
:1044100068B194F8710040F0010184F8711094F8CB
:10442000700061F3820084F8700007E01FE0FFE78E
:1044300094F8710020F0010084F8710094F8710084
:10444000C0071CD003F0BEF994F8760030B9287884
:1044500020F07800C10861F38200287028784107B5
:1044600001D5022100E0012161F30100287001F073
:104470003FFA01F0E5FC192002F0ACFD62E703F021
:104480002FFB94F87000C10703D0000701D503216A
:1044900000E000212878E7E721000020B801002093
:1044A000C00400202A000020920500208C04002077
:1044B0000C4D0D4C2878C0070BD194F87100800783
:1044C00007D494F87000810603D4C00601D40120FB
:1044D00000E0002001F016F901F07AFE3C2002F025
:1044E00079FDE7E792050020C00400204FF08056D8
:1044F000314CDFF8C880324DF7002078C0070BD16F
:1045000095F87100C00707D195F87000810603D4B3
:10451000C00601D4012100E0002195F8710000F0EF
:10452000010003F0A7FB00F097FC01F0EDFA207802
:10453000C00713D195F87600F8B198F8001006EB93
:10454000F1114FEA716188F8001011F0780F05D170
:1045500007EBF1014FEA717188F80010E07906EB82
:1045600030104FEA3070E071000711D1A07807EBEE
:10457000B0004FEAB070A0700AE0A07820F002000E
:10458000A07098F80010420862F3820188F80010C9
:1045900095F87010C8070BD0E86E10B1401EE866A1
:1045A00006E021F00100410861F3C30085F87000C6
:1045B0000A2002F00FFDA0E7920500202A0000204B
:1045C000C004002010B5502080F31188BFF34F8F36
:1045D000BFF36F8F03F04AFD18B104494FF08050CC
:1045E0000860002080F3118810BD000004ED00E099
:1045F00030B591B030216846FBF776FE14210CA847
:10460000FBF772FE01200224039010200094002585
:1046100006940490CDE90750F020CDE90904052067
:104620000B906846FEF708F80CA90F2081E83100CE
:104630004FF4A0500F90E002109003210CA8FDF75A
:1046400085FE11B030BD00000D48016841F0010148
:1046500001600B4A0021083211600268094B1A40C0
:104660000260031D084A1A60026822F48022026078
:1046700003480C3001600549580608607047000087
:1046800000380240FFFFF6FE1030002408ED00E085
:1046900010B50448FEF705FFBDE810400248FEF7DC
:1046A00000BF00004C0300200C0400200148FEF76E
:1046B000F8BE00004C040020F0B50268254C264DE1
:1046C000264E274F274B4FF0804CA04209D0604523
:1046D00007D0A84205D0B04203D0B84201D09842DA
:1046E00004D122F0700E4A6842EA0E02A0421BD0AA
:1046F000604519D0A84217D0B04215D0B84213D0A7
:10470000984211D0184DA8420ED0184DA8420BD097
:10471000174DA84208D0174DA84205D0164DA84203
:1047200002D0164DA84203D122F44075CA682A432C
:1047300022F080054A692A4302608A68C2620A68D8
:104740008262A04201D0984201D10969016301212E
:104750004161F0BD0000014000040040000800403D
:10476000000C0040000401400040014000440140B2
:104770000048014000180040001C0040002000409C
:1047800070B50446214816460D46844225D0B4F142
:10479000804F22D01E4884421FD01E4884421CD025
:1047A0001D48844219D01D48844216D01C488442BA
:1047B00013D01C48844210D01B4884420DD01B48A3
:1047C00084420AD01A48844207D01A48844204D04E
:1047D00041F29421184800F03DFB65B1042D0AD048
:1047E000082D08D00C2D06D0182D04D041F29521AB
:1047F000114800F02FFB0120216AA840814321626B
:10480000206AAE403043206270BD000000000140CD
:104810000004004000080040000C0040000401407B
:1048200000400140004401400048014000180040A1
:10483000001C004000200040B487000810B58468C8
:1048400042EA032224F47F440A432243826010BDDB
:10485000826822F070020A4342F0070181607047CB
:1048600030B5026A22F001020262026A436884697A
:104870000D6824F07304254322F002048A68224361
:104880000B4CA04202D00B4CA0420BD122F00804EA
:10489000CA6823F4407322434C6922F004021C438B
:1048A0008B6923434360856149684163026230BD7F
:1048B00000000140000401402DE9F0410446006A77
:1048C0000D4620F010002062206A6768A1692A68FE
:1048D00021F4E64141EA0228A96820F0200040EADC
:1048E00001161348844202D01248844217D1E86866
:1048F00030B1082804D041F211210F4800F0AAFA83
:10490000E96826F0800040EA011020F0400669695D
:1049100027F4406040EA8100A96940EA81076760A6
:10492000C4F818806868A0632662BDE8F0810000C2
:104930000000014000040140B48700082DE9F04167
:104940000446006A0D4620F480702062206A676881
:10495000E16920F4007021F07302296841EA02083D
:10496000A96840EA01261D48844202D01C488442BE
:104970002BD1E86830B1082804D041F2233119481E
:1049800000F068FAA869B0F5007F05D020B141F2C7
:104990002431144800F05EFA6869B0F5807F05D0D4
:1049A00020B141F225310F4800F054FAE96826F4AD
:1049B000006040EA012020F48066696927F44050D5
:1049C00040EA0110A96940EA01176760C4F81C8039
:1049D0006868E0632662BDE8F081000000000140E5
:1049E00000040140B48700082DE9F0410446006A44
:1049F0000D4620F480502062206A6668E1692A68CA
:104A000021F4E64141EA0228A96820F4005040EA76
:104A100001370E48844202D00D4884420ED16869A5
:104A2000B0F5807F05D020B141F26931094800F02E
:104A300011FA696926F4804040EA81166660C4F87C
:104A40001C80686820642762BDE8F0810000014096
:104A500000040140B487000810B5036A046A24F01A
:104A600001040462846924F0F00444EA021423F08F
:104A70000A020A438461026210BD10B5036A23F082
:104A8000100303628369046A23F4704343EA023229
:104A900024F0A00343EA01118261016210BD00000D
:104AA000064B10B501229A60002203E0845C1C6072
:104AB000521CD2B28A42F9D3186810BD00300240AD
:104AC0000FB4084B10B504A902AA039800F01CF813
:104AD000044602A9002000F0B8F9204610BC5DF899
:104AE00014FB00004B4E000802E008C8121F08C16A
:104AF000002AFAD170477047002001E001C1121F5F
:104B0000002AFBD1704700002DE9FF4F8BB088468B
:104B10000546002606E025280BD0DDE90D1290475A
:104B20006D1C761C28780028F5D10FB03046BDE802
:104B3000F08F0024A146A2460122AE4900E00443C2
:104B400015F8013F203B02FA03F00842F7D128781C
:104B50002A2810D06FF02F022878A0F130010929FF
:104B600015D809EB890102EB410144F0020400EB86
:104B700001096D1CF0E758F8041B5FEA010903D531
:104B800044F40054C9F1000944F002046D1C287873
:104B90002E2817D115F8010F44F004042A280ED04E
:104BA0006FF02F022878A0F1300109290AD80AEB0A
:104BB0008A0102EB410100EB010A6D1CF2E758F893
:104BC00004AB6D1C28786C280FD006DC4C2817D05D
:104BD00068280DD06A2814D104E0742810D07A28EF
:104BE0000FD10DE044F400140AE044F4801401E015
:104BF00044F440146978814202D104F580146D1C9C
:104C00006D1C2878692865D006DC00288DD06328C3
:104C100027D0642806D15DE06E2808D073282AD0FA
:104C2000752877D0DDE90D129047761CE0E0C4F3DB
:104C30000250022809D003280DD0D8F8001004280B
:104C40000DD00E6008F10408D2E0D8F80010F21779
:104C5000C1E90062F6E7D8F800100E80F2E70E70A6
:104C6000F0E718F8041B8DF8001000208DF8010003
:104C7000EB46012003E058F804BB4FF0FF3061071A
:104C80004FF0000701D40AE07F1C57450DDA874238
:104C9000FADB1BF807100029F6D106E07F1C8742DB
:104CA000FCDB1BF807100029F8D1DDE90D23A9EB87
:104CB00007008146214600F0B1F83044C61904E0EF
:104CC000DDE90D121BF8010B90477F1EF8D221463B
:104CD000484688E058F8040BC4F302514FF00A0B21
:104CE000032900D100B2042900D140B2002802DA21
:104CF00040422D2102E0210505D52B218DF82410FD
:104D0000012104E006E0E10710D02021F6E708AF1A
:104D1000089113E058F8040BC4F302514FF00A0B4A
:104D2000032900D180B2042900D1C0B20021EEE7EE
:104D30005946FBF709FB303107F8011D0028F7D170
:104D4000ADEB070000F1200B600702D524F480349E
:104D500001E04FF0010ADA4502DDAAEB0B0000E0AA
:104D60000020824600EB0B0108980144A9EB0100EA
:104D70000A90E00306D4DDE90D2321460A9800F0ED
:104D80004DF806444FF0000908E009A911F80900A0
:104D9000DDE90D12904709F10109761C0899894552
:104DA000F3DBE0030CD5DDE90D2321460A9800F082
:104DB00035F8064404E0DDE90D1230209047761CFA
:104DC000BAF10001AAF1010AF5DC05E0DDE90D12F6
:104DD00017F8010B9047761CBBF10001ABF1010BFA
:104DE000F4DC0A982146DDE90D2300F005F80644BD
:104DF0006D1C97E6092801002DE9F04104460025C5
:104E00001E461746880404D405E039462020B047E2
:104E10006D1C641EF9D52846BDE8F0812DE9F041EE
:104E2000044600251E469046C80301D5302700E001
:104E30002027880404D505E041463846B0476D1C5C
:104E4000641EF9D52846BDE8F0810A68531C0B6042
:104E500010707047704700002DE9F0470025DFF81B
:104E6000A481694E694C2F464FF4FA794FF01E0A1F
:104E700005EB450108EB410081880068FDF752F918
:104E8000002805EB850000EBC5000BD0315C8A07DC
:104E900030D5A4F8029041F0010182193154C2F8D2
:104EA00005A02AE08119D1F80120322A14D9A4F8EA
:104EB0000290C1F80170325C67F3410242F00802CF
:104EC0003254D1F80930ABBB530738D442F0040256
:104ED0003254C1F809A032E0012A06D9D1F80920DC
:104EE0001AB9325C42F00202325451F8010F401CF0
:104EF000086024E021F002013154315C21F0080106
:104F0000CA0862F341013154C1F340028119C1F86A
:104F10000120D1F809201AB1521EC1F8092003E07E
:104F2000325C22F004023254D1F805201AB1521E2C
:104F3000C1F8052003E0315C21F0010131546D1C02
:104F4000EDB2042D94D332484FF4804590F84500DB
:104F5000C1073048294622D00646FDF7E3F808B9D4
:104F6000207848B129463046FDF7DCF8E0B1A0884A
:104F700098B1401EA08017E0617801200029A18827
:104F800006D0322901D1677005E0491CA1800BE0F1
:104F90000129FAD960702070ECE7277004E0FDF772
:104FA000C1F828B3002060701B4E40213046FDF749
:104FB000B9F8164F8021BF1D38703046FDF7B2F8A2
:104FC000164E787001213046FDF7ACF8B87002211A
:104FD0003046FDF7A7F8F870608858B101222946DD
:104FE0003046FDF7AFF86088401E6080BDE8F0876E
:104FF0000120D8E729463046BDE8F0470022FDF7FA
:10500000A1B80000688200088C0400202000002065
:10501000C0040020000802400000024000040240DA
:1050200070B58AB028216846FBF75EF9002001219F
:10503000CDE90810CDE9060104900E2002AA03A9CB
:10504000059016460D460020FBF76EFD32462946B8
:105050004FF04040FBF768FD69461F48FCF72AF80F
:1050600005981E4C401C05902068A178C0F34D1097
:105070004001C90840EAC14040F0004081B2000C44
:10508000CDE90001324629461548FBF74DFD69463A
:105090001148FCF70FF805984FF08041401C05902F
:1050A000E078324600F0030041EA00602946FBF751
:1050B0003BFD324629464FF04340FBF735FD69463C
:1050C0000548FBF7F7FF04480649416306490163B9
:1050D00000F00CF80AB070BDFC020020C0040020F3
:1050E000E0FFFFC0BC070020A007002005480168C2
:1050F0004A6942F002024A610068416941F00101D7
:1051000041617047FC0200202DE9F0438BB04FF065
:105110000008F04CCDF80480CDF80880CDF80C8064
:10512000CDF81080CDF81480CDF81880CDF81C8013
:105130002068009004F13C0000F0D8FD04A800F0C5
:10514000B7FD0127E44D002870D094F870004FF4AB
:10515000FA6140F0010084F87000E1669DF81310D8
:10516000C1F3830106292AD2DFE801F0292A2C03A2
:1051700030C90599002922D09DF81810CA0703D01C
:1051800040F0080084F8700094F8700002070AD517
:105190004A0702D540F0100003E00A0703D540F0AB
:1051A000800084F87000880709D594F8710040F0F9
:1051B000040084F8710000F0AFFDC4F87200EFE065
:1051C0006F70EDE0000731D52F70EDE09DF8030022
:1051D00020F03C0014308DF803000598002845D0DD
:1051E0009DF81800810841D19DF8081010F00300C7
:1051F00021F0FC018DF808104FF0070904D00128B8
:1052000035D0022832D154E00420019000208DF8DE
:105210000800B4F84400ADF8090094F846008DF891
:105220000B00684602F0B4F9002619E0C4E000BFA4
:105230009DF80800CDF8049020F00300401C8DF884
:105240000800C6EBC600204450F84B1FCDF80910EB
:105250008088ADF80D00684602F09AF9761CF6B227
:1052600094F84500C0F34400B042E1D898E000262D
:1052700018E000BF9DF80800CDF8049020F003006E
:10528000401C8DF80800C6EBC600204450F84B1FA8
:10529000CDF809108088ADF80D00684602F078F965
:1052A000761CF6B294F84500C0F34400B042E1D851
:1052B00076E094F8450010F03E0F71D0002617E01C
:1052C000CDF804909DF818009DF8081060F30101D6
:1052D000C6EBC60020448DF80810016ACDF809100D
:1052E000808CADF80D00684602F052F9761CF6B2DB
:1052F00094F84500C0F34400B042E1D850E005996D
:10530000A9B3C1064CD480064AD49DF81800810880
:1053100046D1B4F84510C1F38511B1EB900F3FD3DE
:1053200080079DF8190023D094F8451000F01F0065
:10533000C1F34401884233D8BDF81D10C1F30512F2
:10534000322A2DD8DDF81920BDF81B30C2F38B129C
:10535000C3F38B039A4223D8059A072A20D3C0EBC4
:10536000C0002044DDF819204264A0F8481017E07E
:1053700084F844009DF81A0094F8451060F3000189
:1053800084F845109DF81B00010994F8460061F36C
:10539000051084F846000109E07861F30100E0702F
:1053A00094F87000000713D59DF81000C0F3C100F9
:1053B000022802D0012805D00AE094F8700040F0DD
:1053C000020003E094F8700020F0020084F87000FE
:1053D00094F87000C10779D001075ED5C0F3400191
:1053E000C0F380021143EA78914207D1C0F3001262
:1053F000C0F340131A43AB789A4207D0E970C0F368
:105400000011C0F340121143A9706F70C10639D466
:10541000800637D4207B6179C0F30010C1F30011FE
:10542000884205D0A088A4F80B00A07960732F7083
:10543000D4F81A00D4F81310C0F31320C1F31321C9
:10544000884214D1E069D4F81510000BB0EB113F7D
:105450000DD1A07EE17CC0F38012C1F380139A428B
:1054600005D1C0F30110C1F3011188420AD0D4F86C
:105470001200C4F81900E08AA4F81D00207EE0772D
:105480002F7001E0287850B185F8018085F8008000
:105490000021012002F0E8FA01E085F80080687838
:1054A000002813D085F801809DF8030020F03C000F
:1054B000001D8DF8030006200190E06B0290B4F807
:1054C0004000ADF80C00684602F062F80BB0BDE891
:1054D000F0830000C00400204300002010B5044603
:1054E000002280210548FCF72DFE204602F024F81A
:1054F0002007BDE81040000E02F01EB80004024074
:1055000070B5524C94F83C0020F01F00401C84F809
:105510003C00A08F20F4F070C030A0874C48016898
:10552000401D216000784A4D40F2FF7202EA0023DC
:10553000AD1DB4F83D002D7863F34B0005EB50032F
:1055400063F34B00424BA4F83D001B1D1D7894F8FB
:1055500045301E2665F3450384F84530A578B6EB43
:10556000D50F15D223F03E03083384F84530C3F33A
:10557000440363F352112160A17821F0F80118313E
:10558000A170E17821F00301491C41F0C001E170F4
:1055900094F84510C1F34403042B04D921F03E01D3
:1055A000083184F84510C0F34A0340F2E3718B429E
:1055B00001D3934203D161F34B00A4F83D00244D85
:1055C0001035284600F0CCF828B100F04BF82149FE
:1055D0000020087017E01D4829464430282205465F
:1055E000FAF769FE1948282229469730FAF763FE30
:1055F000EDE7411CC0EBC000204410F8202F61F300
:1056000004020270C8B294F84510C1F3440181420B
:10561000EFD894F846000109E07861F30100E070EA
:1056200002F00CFB4FF4FA70FCF734FB0749092237
:10563000C0310948FBF7A4FCFFF7F2FC0748FDF76F
:1056400085FCBDE870400648FDF724BCC00400207E
:10565000F0BF000842000020540200200C0400208B
:105660008C030020254910B5642081F84400B1F86E
:10567000450020F47C60A1F8450091F8460020F038
:105680003000103081F84600002027E0421CC0EBBB
:10569000C00008441A4C10F84B3F62F30403037037
:1056A000036823400360438843F6FC74234343802C
:1056B000838823F47C7350338380B0F8033023F461
:1056C0007C6303F5F063A0F80330437923F01C03F7
:1056D0004371037823F020030370D0B291F8452082
:1056E000C2F344028242D1D8302081F86A0081F8A6
:1056F000690081F8680081F8670010BDC0040020CF
:105700003F00FCFF70B5002822D0124C2078002802
:105710001ED1114928220D4601F15300FAF7EFFD81
:10572000002815D000F056FA002811D10220207070
:1057300028222946094800F053FA08B1012006E062
:105740000548282229465330FAF7B5FD002020707D
:1057500070BD0000420000200405002000C00008C9
:1057600010B50178FF293BD0B0F8011011F47C6F1F
:1057700036D14178C1F34401042931D81D4942781A
:1057800091F84510C1F34401C2F34402914227D17C
:10579000002128E0C1EBC1020244D379491C03F087
:1057A0001F038B421CD1B2F80730547A43EA0443FA
:1057B000B2F80940C3F38B13C4F38B04A3420FD890
:1057C000B2F80B30C3F30513322B09D8137BC3F3A4
:1057D0008203032B04D8D279C2F34012012A01D9E3
:1057E000012010BDC9B24278C2F344028A42D1D826
:1057F000002010BDC0040020002807D0C00103E035
:1058000000BF00BF00BF00BF401EF9D170470000BD
:105810002DE9F041324E05463027307830B92F70EF
:105820002D20E870A8706870012030702D4800F0BD
:105830002BFA2D4C90B1A07820F00200A070C0F39C
:105840004001E07961F30300E0713078284410F8FA
:10585000011C392902D0491C00F8011C21480D38CF
:1058600000F012FA90B1A07820F00200A070C0F30E
:105870004001E07961F30300E0713078291811F8F4
:10588000010C302802D0401E01F8010C15481A38CE
:1058900000F0FAF988B13078401CC0B230700428AA
:1058A00004D9002030700120BDE8F081284400F8C0
:1058B000017CE07920F00F00E0710C4829788170BC
:1058C0006978C170A9780171E9784171A178890777
:1058D00003D532782021104441700020E4E7000015
:1058E0002C000020A604002092050020F4070020D0
:1058F0002DE9F043814991F87100C207804800F119
:10590000180300F110046ED07E4A1278D2076AD1D3
:1059100091F87020D50666D4920664D4C56800223A
:105920001DB16D1EC560BDE8F08300204FF0010978
:1059300064E0C0EBC00677180544B7F84E60EDB2DE
:10594000C6F38516122E23D3B7F820C006F105083A
:10595000CCF3451CC44503D80CF1050CB44517D253
:1059600001EB800891F844C0D8F87760B6EB8C0F53
:1059700002D3D8F8776002E0761CC8F8776091F817
:1059800044C066450CD909FA00F61643F2B207E0A6
:1059900001EB800CDCF8776016B1761ECCF87760EE
:1059A000B7F82160C6F3CB0733F81060B74203D8CD
:1059B00034F81060B74217D201EB850691F844C065
:1059C000D6F87770B7EB8C0F02D27F1CC6F87770D1
:1059D000D6F8776091F84470BE420DD909FA05F601
:1059E0001643F2B208E028E001EB8505D5F87760B0
:1059F00016B1761EC5F87760401CC0B291F84550CC
:105A0000C5F34405854294D881F8762091F8450085
:105A100051F8134FC0F3440309FA03F0401E02EAA1
:105A2000000363F31B24EA400C600240D1F802003B
:105A300062F31F30C1F8020075E7B1F815200025A8
:105A4000C2F30B02C1F81520D1F8132040F6FF78FD
:105A500065F31B22C1F81320120A81F876204FF457
:105A60007A72C260284642E0C0EBC0025618B6F80F
:105A70004D2056F84B7FC2F38B02C7F38B17B688C5
:105A800002EB070C4FEA5C0CC6F305160CFB06FC98
:105A90006426BCFBF6F63604360C4FEA520C00D1F5
:105AA0000126B74203D9BE1B24F8106001E024F898
:105AB0001050A2F6FF767642664503D9624423F879
:105AC000102001E023F8108034F8106033F8102023
:105AD000964200D81AB924F8105023F8108001EB30
