:020000040800F2
:10000000981F0020D5000008DD000008DF00000870
:1000100000000000000000000000000000000000E0
:10002000000000000000000000000000E1000008E7
:100030000000000000000000E3000008D7020008F4
:10004000E7000008E7000008E7000008E7000008F4
:10005000E7000008E7000008BD020008E70000080C
:10006000E7000008E7000008E7000008E7000008D4
:10007000E7000008E7000008E7000008E7000008C4
:10008000E7000008E7000008E7000008E7000008B4
:10009000E7000008091D0008E7000008E700000865
:1000A000E7000008E7000008E7000008E700000894
:1000B000E7000008E7000008D7110008E700000883
:1000C0000348854602F0FCFC00480047FF02000898
:1000D000981F00201E4880471E480047FEE7FEE7A5
:1000E000FEE7FEE7FEE7FEE701B2814202D0C1175C
:1000F00019484840704770B502290DDD4B089D0036
:10010000445FA24204DDC91A28440229F6DC03E058
:10011000013319460229F1DC818809B2C5882DB264
:10012000048824B2408800B2091B0FD0121B064677
:10013000281A5043C517CA1755404A106A40521B27
:10014000801802F054FC3044FFF7CEFF70BD000071
:100150005D010008C1000008FF7F000030B44F4877
:1001600082B0016801242143016041684C4A11407A
:10017000416001684B4A114001600168A20491434B
:10018000016041683F22120491434160C16A09093C
:100190000901C162016BFF22543291430163416B3B
:1001A000A14341630023836001930093016822040B
:1001B00011430160510005252D0302680A40009299
:1001C000019A521C0192009A002A02D1019AAA4275
:1001D000F3D10168890301D5009400E00093324A0D
:1001E00011211160416841604168416041687F228E
:1001F000D203914341600099012941681BD021221B
:10020000D2031143416001680122120611430160CB
:1002100001688901FCD5416889088900416041680D
:1002200002221143416041680907890F0229FAD16E
:1002300002B030BC70470922120411434160E2E76A
:1002400070B5164D69680C2001401848184C03D051
:10025000042901D0082901D0206011E06A6869688A
:1002600003239202DB03160F1940B61C002910D09D
:10027000E96A0907090F491C02F0A3FB70432060DB
:1002800068680C490006000F085C2168C1402160C5
:1002900070BD094846432660F2E7000000100240A6
:1002A0000CB8FF08FFFFF6FE0020024000127A00A3
:1002B000000000200400002000093D0010B52B497B
:1002C0004020086001F0C4FB01F076FC01F071F8F9
:1002D00001F089FE10BD10B500F07DFF01F062FB5A
:1002E00023484168491C41600168491C01600A2992
:1002F00004DB002101601F494020086010BD01217E
:100300001D4800F09AFE01211C4800F09FFE0121CB
:100310001B4800F089FE012001F0EAFA00F011FF0D
:1003200001F05AFD17480724C1690902090A0207AA
:100330001143C16114490868FF221204904301224D
:10034000D2051043086011487D21C900006802F001
:1003500038FB0F49401E4861002088610C610D4840
:1003600040210160C1050160FEE7000080E200E07D
:100370001400002000E200E0004A03000300000235
:1003800001001E0004ED00E004E400E00000002095
:1003900000E000E000E100E0F0B5092382B2DB06F6
:1003A000D218002383B0000C48D08C05A40F02940F
:1003B0004C05E40F01940C06A40F00948C06A40FC6
:1003C0000907090FA6468C46C10733D094685D0023
:1003D0000321A9408C439460029C9668AC4034434E
:1003E0009460978801269E40B74397809788019E26
:1003F0009E403743978014688C431460009C1668B5
:10040000AC4034431460D4688C43D4607146D468E3
:10041000A9402143D16059076446CD0EAC40D910A4
:10042000890089180F6A0F26AE40B7430F620D6A24
:1004300025430D6240085B1C0028C5D103B0F0BD08
:1004400010B501214C06204600F01BFE002120467D
:1004500000F017FE10BD10B4036800220224A3436D
:1004600003600368012423430360F84B00E0521C3F
:100470004468E40701D19A42F9D14268D2073ED0DC
:100480008C798022012C04683CD094430460CC79A0
:100490004022012C046837D0944304600C7A202257
:1004A000012C046832D0944304604C7A1022012C51
:1004B00004682DD0944304608C7A0822012C0468CF
:1004C00028D094430460CC7A0422012C046823D001
:1004D000944304608A78CC789207240622430C79EE
:1004E000240422434C79098824052243491E0A43E7
:1004F000C261016849084900016000210FE010BC99
:10050000002070471443C1E71443C6E71443CBE708
:100510001443D0E71443D5E71443DAE7491C426893
:10052000D20701D09942F9D14068C007E7D110BC89
:100530000120704730B4817A01231A468A40C449A9
:100540000C681C430C60CB699343CB61037B002B8D
:1005500012D1CB689343CB60C38844881B042343E8
:10056000847AE40064182364838804881B0423438A
:10057000847AE40064186364037B012B24D1CB6884
:100580001343CB600578C4782B4645782D022B4366
:1005900085782D042B43240623431024E341847AD9
:1005A000E400641823640579C4792B4645792D024B
:1005B0002B4385792D042B43240623431024E34148
:1005C000847AE40064186364C37A002B4B6805D016
:1005D00013434B600389002B02D004E09343F8E7F8
:1005E0004B6993434B610389012B02D14B69134340
:1005F0004B61407B012802D1C8691043C86108687B
:1006000040084000086030BC704700218171C17112
:10061000017241728172C1728170C17003210171D6
:100620000221417101210180704789490A68012333
:100630001A430A600A68874B1A400A600A68000277
:1006400002430A60086840084000086070470122C1
:1006500012040029016801D0114300E091430160B8
:10066000704710B402468024FF32630081320029B3
:1006700001680AD0214301605068184350605069F6
:1006800018435061506A184309E0A1430160506863
:1006900098435060506998435061506A9843506243
:1006A00010BC704730B40246936800205B0108D448
:1006B0009068000101D5012003E09068C0002FD5AB
:1006C000022003019A18FF3281321368DB07DB0F27
:1006D00013600B7A002B26D014684D681C434B7AAC
:1006E000ED002B431C4314608B7A1B071B0F8B728E
:1006F00053681B091B01536053688C7A2343536072
:10070000CB68CC7A1B02234393600B69C97B1B0225
:100710000B43D360116801231943116030BC70474B
:1007200030BC0420704713684C7A23430C8864055E
:1007300023431360D8E7484A002904D0012905D093
:10074000022925D106E08068444901E080684449D7
:10075000084002E0806843490840811A904215D061
:1007600007DC002814D0404940180ED002280DD1D3
:100770000AE0FF39FF39891E06D03C48081804D02A
:1007800001214904884201D10120704700207047AF
:1007900002207047002909D001290CD0022904D178
:1007A00081680122D20511438160704781688022EF
:1007B00011438160704781680122D2031143816037
:1007C00070470B011B1830B4FF3381331C6B0425B9
:1007D0002C4014721C6B2AD0E40854601C6B022558
:1007E0002C4054725C6B2407240F94725C6B240AB7
:1007F000D4749C6BD4729C6B240A14739C6B240C71
:1008000054739C6B240E9473DC6BD473DC6B240ADE
:100810001474DC6B240C5474DB6B1B0E9374202259
:10082000002907D001691143016130BC7047640D94
:100830001460D3E7C1681143C16030BC7047202207
:10084000002915D00169114301617047FFFFFF00C6
:1008500000660040F1C0FFFF000100080300000433
:100860000003000800000310FFFFFFFB0003FFF779
:10087000C1681143C160E8E702460020002905D0A5
:10088000012902D110698007800F7047D068FAE70C
:100890000023CC4A002904D0012916D0022923D0F4
:1008A00039E0016889088900491C016000E0521E96
:1008B00041688907890F012901D0002AF7D14068D2
:1008C0008007800F012823D124E00168890889006E
:1008D000016000E0521E4168890701D0002AF9D169
:1008E0004068800714D115E00168022349084900D7
:1008F0001943016000E0521E41688907890F0229EF
:1009000001D0002AF7D140688007800F022801D06B
:10091000002300E0012318467047026800215208B6
:10092000520002231A43026040688007800F0228A9
:1009300000D101210846704710B4A2490268002383
:100940000224A243026000E0491E4268920701D5DA
:100950000029F9D14068800700D4012310BC184653
:10096000704780694006400F000170478069000EA3
:10097000704780690002000E7047002A426901D06A
:100980000A4300E08A4342617047024600200B029E
:100990001B0F05D092690A40110300D00120704757
:1009A000CB0104D552680A401103F7D170470B01FF
:1009B00004D592680A401103F0D170478B0104D529
:1009C000D2680A401103E9D1704712690A40110345
:1009D000E4D170477C4A914202D100218161704785
:1009E0000A03120B8B0101D5C26070474B0101D580
:1009F00002617047090101D582607047426070470B
:100A000010B40246536900200B4212D0FF24013477
:100A10000B1BA1426DD01BDC08294ED00BDC012939
:100A20003CD0022942D0042903D1D16808221142C6
:100A300039D110BC7047102946D020294BD040290D
:100A4000F7D111691022002011422CD110BC70473F
:100A50007F242402191BA34260D011DCFF3B5B1EE4
:100A60004ED0FF3BFF3B9B1E51D0012189028B42A0
:100A7000ECD1916970220020114214D110BC704752
:100A80000123DB03C91A2DD05B009942F6D15168CE
:100A900010220020114206D110BC704791684B4AC9
:100AA00000201142F8D010BC01207047D16800200E
:100AB0008907890FF7D110BC7047D1681022002038
:100AC0001142F0D110BC7047116900208907890FCD
:100AD000E9D110BC70471169082200201142E2D10F
:100AE00010BC70475168082200201142DBD110BCB5
:100AF000704791690020C907C90FD4D110BC704755
:100B00009169022200201142CDD110BC7047916939
:100B1000042200201142C6D110BC70475168042243
:100B200000201142BFD110BC7047F0B401267602FC
:100B30008D1B082310240422B14240D011DC20294F
:100B400034D008DC01292AD004292CD0082900D16E
:100B5000C460F0BC704740292BD0FF390129F8D17F
:100B60002DE03F267602AF1B0021B54208D00BDCFA
:100B7000FF3DFF3DAD1E22D001239B029D42E8D1E7
:100B800081614260F0BC70470121C903791A13D01A
:100B9000012212049142F5D14460F0BC70470B4928
:100BA0008160F0BC7047C360F0BC70470361F0BC6B
:100BB00070470461F0BC70474360F0BC704742600E
:100BC000F0BC7047FFFFFF007000F0300101010032
:100BD000F74801680122114301604168F54A11405C
:100BE00041600168F44A11400160016801229204E9
:100BF0009143016041683F22120491434160C16A00
:100C000009090901C162016BEC4A11400163416BA2
:100C1000490849004163002181607047E44900228E
:100C20008A70887070470023E14942090DD0012A7B
:100C30000DD0022A0DD0496BC006C00E01228240A1
:100C40000A4200D00123184670470968F4E7096A90
:100C5000F2E7496AF0E718B4002000900120D44B75
:100C60004004052424031A680021104200D0012109
:100C7000009A521C0092A24201D00029F3D01968B8
:100C8000084000D0012018BC7047C94A1168F823F9
:100C90009943C000084310607047C54900280868A0
:100CA00002D00122104301E0400840000860704774
:100CB000BF4A516BF8239943C00008435063704703
:100CC000BB490028486B02D00122104301E04008D4
:100CD000400048637047B64904220028486B01D0A1
:100CE000904300E0104348637047B1490A6A5208D4
:100CF00052000A620A6A04239A430A620A6A024399
:100D00000A627047AA490A6A18239A430A620A6A61
:100D100002430A627047A6490028486A02D00122AD
:100D2000104301E0400840004862704710B4A04AF8
:100D300053687B24E403A34353605368084303438D
:100D4000536010BC704701229949120600280868B8
:100D500001D0104300E0904308607047012294499D
:100D600012040028486B01D0104300E09043486310
:100D700070478F4AD16A090909010143D16270475E
:100D800001228B49D2040028086801D0104300E0FA
:100D9000904308607047864A53681B021B0A00068E
:100DA0000843184350607047814A51688908890098
:100DB0000143516070477E4840680C2108407047ED
:100DC0007B4A5168F0239943014351607047784A48
:100DD000516807231B0299430143516070477449CE
:100DE0004A6801239B039A434A604A6883B21A43C4
:100DF0004A600A6B8B159A430A630A6B000C024324
:100E00000A6370476A490A6B40239A430A630A6B74
:100E100002430A63704766490A6B10239A430A63C8
:100E20000A6B02430A637047020F6149012A0AD024
:100E3000022A0A6B0BD003239B049A430A630A6BB2
:100E400002430A6370470A6B9208920002E0032390
:100E50001B049A430A63F2E755490A6B80239A43BD
:100E60000A630A6B02430A637047F8B5504D0446A3
:100E7000686800210C22524E104005D0042803D08F
:100E8000082803D00C281AD026601AE06968686820
:100E900003228902D2030F0F1040BF1C00280AD082
:100EA000E86A0107090F3046491C01F08AFD7843C2
:100EB0000146216005E0434839464143F9E742488D
:100EC00020606868414F0006000F3B5C20680246C6
:100ED000DA4062606B685B055B0FFB5CDA40A26026
:100EE0002B6BDB0502D43A4BE36006E06B685B04D6
:100EF00001D4530800E09308E3602B6B5F06354B89
:100F000002D4354F276100E023612F6BFF0601D427
:100F1000666100E060612F6BBF070ED02F6BBF07CB
:100F2000BF0F012F0BD02F6BBF07BF0F022F08D0B1
:100F30002F6BFF43BF0706D006E0A26104E0A0616B
:100F400002E0A36100E0A6612F6BBF03BF0F0FD0CB
:100F50002F6BBF03BF0F012F0CD02F6BBF03BF0F31
:100F6000022F09D02F6BBF03BF0F032F06D006E05F
:100F7000E26104E0E06102E0E36100E0E6612F6B22
:100F80003F03BF0F0FD02A6B1203920F012A0CD020
:100F9000286B0003800F022820D0286B0003800FED
:100FA00003281DD01DE022621BE0206219E0000032
:100FB000001002400CB8FF08FFFFF6FEACFEF0FF89
:100FC00000127A0000093D00006CDC021C000020C9
:100FD000809FD5000080000012800000236200E0A6
:100FE0002662286B000602D438486062F8BD616250
:100FF000F8BD37490A6A02430A6270470122344940
:10100000D2030028086A01D0104300E09043086230
:10101000704701222E4912040028086A01D01043AB
:1010200000E0904308627047294A0029516901D0C5
:10103000014300E0814351617047254A00299169CD
:1010400001D0014300E0814391617047204A0029AB
:10105000D16901D0014300E08143D16170471C4A4E
:101060000029916A01D0014300E0814391627047F9
:10107000174A0029D16801D0014300E08143D160C3
:101080007047134A0029116901D0014300E08143F0
:10109000116170470E4A0029517A01D0014300E0E6
:1010A0008143517270470A48416A01221206114376
:1010B00041627047064A0146926800200A4200D009
:1010C000012070470249887270470000006CDC0202
:1010D00000100240F0B4A14B99681C680A46491CF4
:1010E000641E2140DC688C4208D014255C686A4389
:1010F000A218F0C8F0C2006810609960F0BC704798
:1011000070B497498B68CA68934210D014244B6816
:1011100062439A1878CA78C012680260C8680A6880
:10112000401C521E1040C86070BC0120704770BC4B
:1011300000207047C000042303430B80000C108084
:101140007047F0B5E524A400012087B02146C00611
:10115000FFF722F9012021460007FFF71DF9814919
:101160000868FF22120402269043720510430860AB
:1011700001257D49100208607C4F3846FFF760F971
:1011800004A8FFF742FA002468468474C474072157
:101190000175467508210182C575457604A9384652
:1011A000FFF759F9684645730481C4720573042139
:1011B0000322418052020280C18082808472FFF744
:1011C000B9F96B49A8040860012202213846FFF7EB
:1011D000D4FB07B0F0BDF8B5644C02212046FFF700
:1011E0000FFC00284FD05E4FB8683968461C491E76
:1011F0000E40F968B14240D01422796850430D186E
:101200005C48006B5A49C2084A60072328685201AB
:101210001B06520F9843120610430F2292042860B7
:1012200090434A689202120F920410430322D2069E
:10123000286090434A68D200920FD206104328607B
:101240004968800C89038004890B08432860800367
:101250007D21800BC90001F0B4FB68604548406BFC
:1012600045490207120F28460C30AA6001F0D3FB53
:10127000E06820210843E060BE6002212046FFF7BD
:10128000BFFB0028B0D1A068400166D5A16801204D
:101290000143A160314CE368A06883425DD0142013
:1012A00061685843324D08180F212E6889040E409A
:1012B00001680A024F01920F7F0F92053F063A43E1
:1012C0008F03BF0B3A43CF00BF0FFF068902090F00
:1012D0003A4389040A43324326492A600D68ED07E0
:1012E000ED0F0D600D68D200121D15430D604A68A8
:1012F000120912014A604A68057A2D072D0F2A4308
:101300004A60451C0C22AE1837783A4677783F027F
:101310003A43B778F6783F043A4336063243067BC1
:10132000120232438A601022AD182E78007C3246B9
:101330006E7836023243AE78ED78360432432D06AD
:101340002A4312020243CA6008680122104308605F
:101350002068401E5B1C0340E360F8BD4400002091
:10136000340000201CE400E000E100E000640040E4
:101370002C00002080650040B8650040FE49801EBA
:10138000122814D202007A44127992189744080D58
:101390000F0B0B0D0D0D0D0B0B0F0F0F0F0F080883
:1013A0000020887070470220FBE70420F9E7012045
:1013B000F7E7F0B5ADB005A8FFF7A2FE0026EF4CA9
:1013C00000287DD008A80A90EB4D00202A78EA700A
:1013D000002A0DD905998903890BC301E3589B03A2
:1013E0009B0B8B4200D1E870401CC0B29042F4D3FA
:1013F000E87890421FD1521C2A70C1016258059BA7
:10140000920C9B0392049B0B1A43625009194A8861
:101410003C239A43059B9B021B0F9B001A434A8067
:10142000069A8A808A78059B9206DB00920E9B0FB3
:101430009B011A438A70C3011A1991788D06059988
:10144000AD0EC900890F8F013D4395700325009AA9
:10145000AD05AA430125ED0552190327FF06E35800
:10146000BA43920C9B0392049B0B1A430092FF22F7
:10147000C34BF53285005A51C24A01251554BE4866
:10148000012946601BD0022919D0072100980906BE
:1014900088430521090640180090BB4800780028C1
:1014A00004D000992807B9430818009068460673CD
:1014B00003980295284303906846FFF70BFE00E06F
:1014C00084E10598C000800F03287DD0059949016B
:1014D000490F082979D20A007A4412799218974460
:1014E00003745F74BE741D3A0698022809D0072061
:1014F00000990006814303204006081802960090D8
:101500000AE00721009809068843032109064018CC
:10151000009068460673029568469DE0964808A9C3
:10152000C0780978C0010219117308A94878897830
:101530000902401808A9C9780904401808A90979BE
:10154000090640189060072100980906084300909A
:101550000296684680E008AA1178874AD278D201BC
:10156000131908AA527812028918196102280BD19E
:1015700007200099000681430120400608180090CA
:1015800068460673029567E00720009900068143CC
:1015900003200006081800906846067302955BE079
:1015A00006980F2842D0102840D011283ED0089825
:1015B0000006000E7048417819D000290CD1079917
:1015C000C0780A07120F01E023E1CAE0C001001948
:1015D00024300A9901F01FFA072000990006814380
:1015E0000320000608180090684606731CE00029D6
:1015F00009D10799C0780A07C0010019120F1C30E1
:101600000A9901F008FA0698072803D0032801D0A8
:101610000928B9D10720009900068143012040061E
:101620000818009068460573029515E007980A9916
:1016300002075148120FC078C00100191C3001F098
:10164000EAF9072100980906884303210906401892
:101650000090684606730295FFF73CFDB0E00698DF
:101660000F287DD010287BD008980006000E04D0EB
:10167000012831D0022874D156E008980003010DEA
:101680003D48C078C001001901860899090D0187FD
:1016900009990905090D418609990902090D418732
:1016A0000999090EC1760698072807D0032805D0A6
:1016B000092803D0082801D00A2852D10720009910
:1016C0000006814303200006081800906846057351
:1016D0000295FFF7FFFC73E008980003010D264810
:1016E000C078C001001981860899090D8187099980
:1016F0000905090DC18609990902090DC1870698D6
:10170000072803D0032801D0092859D107200099C0
:101710000006814303200006081800900220694655
:1017200008736846029597E708980002020E12486F
:10173000C078C00101198A750322486912029043DA
:10174000089A9205920F12021043486108980322EA
:10175000000EC875486992029043089A120501E08C
:1017600026E02DE0920F92021043099A0A76032296
:1017700012039043089A09E054000020BC0A00209C
:10178000BC1A00203C1B0020AC0000209204920FE9
:1017900012031043099A1204120E4A76032292038E
:1017A0009043089A1204920F92031043486107E095
:1017B0003B48099AC078C001011908988A614861BC
:1017C00005A8FFF79DFC002800D0FDE5344F7868A0
:1017D000401C7860642810D97E60072100980906B3
:1017E00088430121090640182E4902968843800C3F
:1017F000800400906846FFF76DFC387800250028CB
:101800004BD92948AA00815800290DD0491E815082
:101810003EE00720009900068143012000060818D9
:1018200000900296684617E720480021415520485D
:10183000E90108180446802101F006F93E78B54216
:1018400023D2802221460CA801F0E5F8701BC007C6
:1018500005D0803480220CA9204601F0DCF83878CD
:10186000401B40100606360E0FD080220CA9A0188F
:1018700001F0D1F8FF34013480220CA9204601F098
:10188000CAF8761E3606360EEFD13878401E38700C
:101890006D1C3878EDB28542B3D32DB0F0BD000099
:1018A000540000200000FC18BC1A00203C1B002043
:1018B000BC0A00207D20DC49C0008863704710B45A
:1018C000136801245B00002800D023431803000B99
:1018D000106005D0D54A904200D10C7010BC704702
:1018E0000020087010BC704710B5FEF755FD10BD04
:1018F00070B5002800D00120CB4D82212863012043
:101900004006FEF749FDCB48C949006801F059F887
:10191000C949401E0881CA48C84AC262002282637F
:101920000D22D202028380220280012282821023B1
:101930000B80C44BD1039980038813430380C802F2
:1019400009242A6B0314E406002A27D023850126E4
:10195000F607002A24D021854021FEF71DFD4021F5
:101960003046FEF719FD7D20C0001021A8638803D2
:10197000FEF712FD1021C803FEF70EFD10214803EB
:10198000FEF70AFD10210803FEF706FD0120000600
:101990000114A1614021FEF7FFFC70BDA361D6E7F1
:1019A000A161D9E770B40921C906088AA64D40078C
:1019B000C3172868420001205B1C00D002431403B7
:1019C000240B2C60A14D0022984B002C37D09C4258
:1019D00000D128700C8A9E4E2407E51734686400F5
:1019E0006D1C00D004432403240B9A4D346028D08E
:1019F0009C4200D128700C8A974EA407E5173468E2
:101A000064006D1C00D004432403240B934D346008
:101A100019D09C4200D12870098A914DC907CC1772
:101A200029684900641C00D001430903090B8D4C4F
:101A300029600AD0994200D1207070BC70472A708A
:101A4000C8E72A70D7E72A70E6E7227070BC7047B3
:101A5000F8B5754EB07B3070F07B7070357C864683
:101A6000B570707CF0708446B07C0006000E30715A
:101A70000090F17C71716C490C6A01D0002C2BD064
:101A80000020B072684960464B69002801D0002BE5
:101A900024D000276449F7717046CA69002801D034
:101AA000002A1DD0002030725F48002D816901D0CE
:101AB000002917D000205C4E70720020B071F66AC9
:101AC000002F11D0002E03D0574E0127B771F071AF
:101AD000554F3226FE6209E00120D2E70127D9E7FF
:101AE0000120E0E70120E6E7002E03D04E4EF76A22
:101AF0007F1EF762009F4C4E002F02D0641C3462A0
:101B000000E030626446002C02D05B1C736100E090
:101B10007061002D02D0491CB16101E0B0617062BA
:101B20007146002902D0521CF26101E0F061B062FE
:101B30003073FF21F531326A8B008A4206DB8A421C
:101B400001D1012200E0002232733362F072726927
:101B5000C82A03DB0BD00022F27273617073B26982
:101B6000C82A08DB05D000227273B36105E00122A8
:101B7000F2E70122F8E7322A07DB726A521C72622E
:101B8000142A02DB012270627272F269322A09DBC6
:101B90003222F261B26A521CB262142A02DB0122C2
:101BA000B0623272B26B264B002A03D0521EB2636F
:101BB0009963F8BD9863F8BD10B41B480122446BCB
:101BC000016B920209205301C006022C09D0012C9E
:101BD00014D0032C1AD0002920D0028500290AD164
:101BE00006E0002901D0826100E00285002902D1CF
:101BF000836110BC7047038510BC7047002903D077
:101C000002850029F7D0F3E78261FAE7002901D0C5
:101C1000826100E002850029EDD0E9E78261DDE71D
:101C200001494863704700005C000020FFFF0F007F
:101C30000024F40000000020202C0140E7030000F5
:101C4000002C0140402C0140980000206C00002036
:101C50009C0000206B000020A00000206D000020F0
:101C6000A40000206E00002081B005200090401EDE
:101C70000090FCD101B07047B5494A6A92B24B6AF4
:101C80009B1A9BB28342FADB7047B24981B08A8AC1
:101C90009207920F8000104388820522104600921E
:101CA000401E0090FCD101231B038B611046009263
:101CB000401E0090FCD10B8510460092401E009003
:101CC000FCD101B07047A34981B08A8A8000920795
:101CD000920F10430122920310438882052210467E
:101CE0000092401E0090FCD101231B038B61104623
:101CF0000092401E0090FCD10B8510460092401EC1
:101D00000090FCD101B0704730B5934D002028827F
:101D1000924C206811280EDA082802D1C020FFF763
:101D2000B4FF8F482168405CFFF7CDFF2068401C5E
:101D300020600920288030BDF0B50020894C8849FA
:101D40000122235C0B54002B03D0401C521C092A97
:101D5000F7DD2023092811DA0922151A002D0DDDDF
:101D60000A18521EEC0701D05370521C6C1004D09C
:101D700053709370921C641EFAD1281811271128F1
:101D80000EDA01223D1A012D0ADB774E3418203C71
:101D9000E47D0C54002C03D0401C521C9542F5DA13
:101DA00011280FDA3A1A002A0CDD0818401ED10754
:101DB00001D04370401C511004D043708370801CCC
:101DC000491EFAD16549002008608020FFF75DFFB9
:101DD000614909200880F0BDF8B55D4C6348E062B8
:101DE00064486349006800F0ECFD6349401E0881C7
:101DF00001212180584A6323D362604B188191816D
:101E00005F490868FF22120290430122D203104367
:101E100008605C499001086040215B48FEF7BCFA0D
:101E20005A48616A89B2626A521A93B28342FADBF3
:101E3000616A89B2626A521A93B28342FADB616ABA
:101E400089B2626A521A93B28342FADB616A89B23A
:101E5000626A521A92B28242FADB4D48616A89B2D2
:101E6000626A521A93B28342FADB616A89B2626A89
:101E7000521A93B28342FADB616A89B2626A521AD9
:101E800092B28242FADB3820FFF7FFFE616A6420DB
:101E900089B2626A521A92B28242FADB0C20FFF7D0
:101EA000F4FE616A642089B2626A521A92B2824276
:101EB000FADB0120FFF7E9FE3648616A89B2626AFF
:101EC000521A92B28242FADB0620FFF7DEFE616A06
:101ED000642089B2626A521A92B28242FADB4020CE
:101EE000FFF7D3FE616A642089B2626A521A92B225
:101EF0008242FADB0020174D0527FF219131264A47
:101F0000AB8A125C9B079B0F92001A4301239B0331
:101F10001A43AA823A460097521E0092FCD101232E
:101F20001B03AB613A460097521E0092FCD12B85F1
:101F30003A460097521E0092FCD1626A92B2636ADE
:101F40009B1A9BB28B42FADB401C2828D7D3F8BDE2
:101F5000004001400004004800440140A800002067
:101F60006E1B00205C1B0020651B0020FFFF000093
:101F700020A1070000000020204001402044014033
:101F800014E400E000E100E00004FC7318790000B4
:101F900048EE0000204E0000EE2F0008401F0D28E4
:101FA0001FD201007944097949188F4406080A0CA8
:101FB0001A0E10121A1A14161800EEA07047F0A08C
:101FC0007047F1A07047F3A07047F4A07047F5A0E8
:101FD0007047F6A07047F7A07047F9A07047FAA0C5
:101FE0007047FCA07047F0B583B00921FA4800F0B3
:101FF0002BFD0921F94800F027FDF94FF94E7968CA
:10200000F94D002400290AD03846C0782A46C0017C
:10201000801801297ED0022900D093E121E1F3A2AA
:10202000F5A1ED4800F080FDF448F5A10278EB48F9
:1020300000F07AFDF4480078002804D0FFF73AFC5D
:10204000FC70012078603078002862D0FFF732FC05
:10205000EE4A1F21106889058843012109064018AE
:102060000F2189048843810C890494600123116045
:102070007B703E783846002E24D00323DB0699433C
:102080000123DB060470C9181160DC4984700978EB
:102090004A1C3BD00427491C8578D34AEB019B1886
:1020A0009A88022A08D1DA6A0826B2431607F60F80
:1020B000B600BA433243DA626D1CEAB282708A42D9
:1020C000EAD323E003700323DB06994301231B07B4
:1020D000C9181160C949847009784A1C16D00426B1
:1020E000491C8578C04AEB019B189A88022A08D1BE
:1020F000DA6A08273A431707FF0FBF00B2433A4393
:10210000DA626D1CEAB282708A42EAD3BF48FEF7F7
:10211000E1FF00E01BE0BE480078002800D1BEE3EC
:10212000BA48BC4A01689143890C07228904120607
:10213000914305221206891801600473C1680222C6
:102140001143C16001218160FEF7C4FFA7E300795C
:10215000401F0D281FD201007944097949188F4486
:1021600006080A0C1A0E10121A1A1416180081A268
:1021700012E083A210E084A20EE086A20CE087A207
:102180000AE088A208E089A206E08AA204E08CA204
:1021900002E08DA200E08FA297A18F4800F0C4FC5E
:1021A000F8789DA1C00128588203920B8B4800F05B
:1021B000BBFC9548007800280DD0FFF77BFB8F49CA
:1021C000F8780978491E884202DA401CF87002E06B
:1021D000BC60FC707C60307800282FD0FFF76AFB71
:1021E000F8782E46C301991988788209012A2AD0E5
:1021F0008006800E40308870844D03202A68800558
:1022000082430120C00510181F22120690438A78CD
:1022100089789209D20610430F2289069204090F89
:10222000904389040843F158800C89038004890B8A
:102230000843AC6028602846FEF74CFF78480078D9
:10224000002808D103E08006800E8030D3E775486F
:102250000078002876D0FFF72DFB0220BC60786064
:102260001DE33178002908D08188022905D06E4904
:102270000A78002A0FD000220A70B9680B2942D2CE
:102280000A007A4412799218974407313E5D7271C0
:10229000706F6E6D6C000122EEE7818802290DD00F
:1022A00062A14D4800F040FCF87863A1C0014019DC
:1022B000037B8268494800F037FC49E2808D0107C2
:1022C000C90F00914107C207CB0FD20F5DA1424851
:1022D00000F02AFCF878C0014019C06AC103C006AA
:1022E0000B0DC20F5AA13D4800F01EFC30E25AA16E
:1022F000394800F019FCF8785AA1C0014019026968
:10230000364800F011FC23E2F96800290AD0491E82
:10231000F96056A1304800F007FC56A12F4800F0A4
:1023200003FC15E2038F028E54A12B4800F0FCFB46
:10233000F87855A1C0014019438F428E274800F01C
:10234000F3FB05E2ABE2F96800290AD0491EF96007
:1023500050A1214800F0E8FB46A1204800F0E4FB32
:10236000F6E19DE0E7E1BCE18CE13DE108E1CCE094
:10237000ADE0000043E46570612D50A8000000004E
:102380004D432D50A80000004DB8BB6FE32D5042C7
:10239000000000004D432D50420000004D432D50E1
:1023A0004100000043E46570612D50004D432D5005
:1023B0000000000043B8B4BD61BB2D500000000018
:1023C0004D432D50A00000004DB8BB6FE32D50547D
:1023D000000000002D2D2D005C1B0020651B00203F
:1023E000AC00002063000020BC0A0020BA6FBB20B4
:1023F0007963BF3A000000002573000054000020FC
:10240000202020202575000066000020801B002071
:10241000690000200000FC1863BD3A2535750000F6
:1024200065000020640000205500002048617061B4
:10243000B26FBF2E000000002535753A2530327589
:10244000000000002025752025752025752000003E
:1024500020257520257500002042657063B8C73AB5
:10246000000000002025367500000000A86F706F86
:10247000B4B800003120B820320000000925303304
:1024800058092530335800000A253033580A2530C2
:1024900033580000A4BD61C065BDB8C7000000008E
:1024A00081788909022905D0C169FF4A0903090B0E
:1024B0001140C161C069FDA1030D0003020DFE487A
:1024C00000F032FBFDA1FE4800F02EFB40E1F96870
:1024D00000290AD0491EF960FAA1F74800F024FB50
:1024E000FAA1F74800F020FB32E1838F828EF9A138
:1024F000F14800F019FBF878F9A1C0014019C38F29
:10250000C28EEF4800F010FB22E1F96800290AD0E2
:10251000491EF960F5A1E84800F006FBF6A1E8487D
:1025200000F002FB14E181788909022913D0F44AF2
:10253000016ADD4B11400A02090B120D0903114318
:102540000A050162C1690903090B11430A0D120250
:1025500019401143C161C069D4A1030D0003020DEC
:10256000D54800F0E1FAF878C0014019006A01028C
:1025700002050B0D120DE3A1D14800F0D5FAE7E0FA
:10258000F96800290AD0491EF960E1A1CA4800F0A3
:10259000CBFAE2A1CA4800F0C7FAD9E04069E14E9F
:1025A0000105890F715C0191020E81050092890F6E
:1025B0000002735C020EDCA1BF4800F0B5FAF878A7
:1025C000C0014019818A008B0A04920FB25C030497
:1025D00001921B0E8904890F0093735CC2B2D6A1CD
:1025E000B74800F0A1FAB3E0F96800290AD0491E03
:1025F000F960D5A1B04800F097FAD5A1B04800F035
:1026000093FAA5E081788909022913D0BC4A016AAE
:10261000A54B11400A02090B120D090311430A05CB
:102620000162C1690903090B11430A0D1202194025
:102630001143C161818ABB4E0A05C069920FB25C29
:10264000030D01928905890F00930003735C020D4D
:10265000B5A1994800F068FAF878C0014019818A5C
:10266000006A0A04920FB25C030201921B0D8904F6
:10267000890F00930205735C120DAFA1904800F022
:1026800053FA65E0F96800290AD0491EF9608DA166
:10269000894800F049FAB0A1894800F045FA57E0AE
:1026A0004069C103490F019102034105520F009295
:1026B00080044B0F420FAAA17F4800F035FAF8784A
:1026C000C00140194069C100490F01914102420F08
:1026D000009280014B0F420FA1A1794800F024FA2B
:1026E00036E0F96800290AD0491EF96075A17248E0
:1026F00000F01AFA9DA1724800F016FA28E0008B4B
:10270000C10502054307520F490F8006009201914F
:10271000420F5B0F92A1684800F006FAF878C001FA
:1027200040198069410480034B0F420F91A1644816
:1027300000F0FAF90CE0F968002923D0491EF9608D
:102740008EA15D4800F0F0F98EA15D4800F0ECF933
:102750008E480078002852D0FFF7ACF8F878C00116
:1027600040198088C01E0F2843D20100794409799E
:1027700049188F441C3E31311C281C2831313E3E03
:1027800037373700808B82A1C3B2C005C20F4A48D9
:1027900000F0CAF9F878C0014019808B4105800526
:1027A000CB0FC20F7EA1464800F0BEF9D0E7B86853
:1027B000072804D2401CB860022802D019E0BC608F
:1027C00064E00620FBE0B8680528F8D2401CB86039
:1027D00003280ED10420F2E0B8680328EFD2401C91
:1027E000B86006E0B8680A2807D2401CB860022822
:1027F00003D0B868012847D848E00820DFE06C48DB
:102800000078002842D0FFF755F8F878C001401949
:102810008088C01E0F2834D20100794409794918F4
:102820008F44072F20200714071420202F2F28283B
:102830002800B868002804D0401EB860052802D0DF
:102840001FE00720BBE00120B8601FE0B868002847
:1028500004D0401EB860032802D012E00520AEE08C
:102860000220ACE0B868002802D0401EB86008E042
:102870000320A4E0B868002814D0401EB8600728E0
:1028800010D0B868012801D96420F8604948007860
:10289000002804D0FFF70EF87C60BC60FC70FFF7E6
:1028A0004BFA89E08AE00000FF00F0FF0925303391
:1028B000580A2530335800005C1B0020200000001F
:1028C000651B0020A86F706FB4B800003320B820DB
:1028D000340000000B253033580B253033580000EE
:1028E0000C253033580C253033580000A4BD61C08E
:1028F00065BDB8C70000000031202D203400000065
:10290000FF0F00FF0B253033580C253033580000E3
:10291000A9706FB3BDB820B800000000BF65BCB29D
:1029200070C3000016300008092530327525630A8F
:1029300025303275256300000B2530327525630C78
:1029400025303275256300005465BA7977B8650083
:1029500079706FB3BDB80000A0434320312D34001F
:10296000257520257520257520257500A043432059
:10297000352D370025752025750000005465BA797E
:1029800077B8B90063BF61BF7963000065000020BC
:10299000416C253175204E3A25303275000000001B
:1029A00050772530317520525325303175000000A5
:1029B000640000206600002003B0F0BD0A20B8606B
:1029C00062E730B50B46014600202022012409E0D1
:1029D0000D46D5409D4205D31D469540491B2546D1
:1029E000954040191546521E002DF1DC30BD70B5E2
:1029F00000242546002801DA01244042002901DA9A
:102A000001254942FFF7DDFFAC4200D04042002CD7
:102A100000D0494270BD03460B439B0703D009E039
:102A200008C9121F08C0042AFAD203E00B78037009
:102A3000401C491C521EF9D27047D2B201E002700C
:102A4000401C491EFBD270470022F6E710B5134622
:102A50000A4604461946FFF7F0FF204610BDF0B5C0
:102A60001FB40646002082B0054640240191009024
:102A70001BE0019922460F46304600F043F8049AC5
:102A8000059B801A994110D310461946224600F042
:102A900029F8361A8F410197224601200021009F14
:102AA00000F020F838184D4100902046641E0028A0
:102AB000DFDC019B00982946324607B0F0BD0000DC
:102AC000064C0125064E05E0E36807CC2B430C3C81
:102AD00098471034B442F7D3FDF7F6FA1C300008DB
:102AE0003C30000810B5202A04DB0146203A914012
:102AF000002010BD914020239C1A0346E340194357
:102B0000904010BD10B5202A04DB0846203AD04082
:102B1000002110BD0B46D340D0402024A21A914082
:102B20000843194610BD00000FB410B504A9074BA7
:102B300002AA039800F01CF8044602A9002000F045
:102B400051FA204610BC08BC04B01847E52F000815
:102B500002E008C8121F08C1002AFAD17047704766
:102B6000002001E001C1121F002AFBD170470000C4
:102B7000FFB591B00F460546002606E025280AD08D
:102B8000149A139990476D1C761C28780028F5D16B
:102B9000304615B0F0BD002400940121F34A0294A0
:102BA00000E004436D1C2B780846203B98401042FF
:102BB000F7D128782A280ED0022128780246303A08
:102BC000092A15D8009A0A235A43303A80180C4330
:102BD0006D1C0090F1E701CF0090002805DA01207C
:102BE00040030443009840420090022004436D1CBF
:102BF00028782E2815D10420044368786D1C2A28D3
:102C00000AD101CF6D1C02900BE002990A225143B8
:102C1000303940186D1C0290287801463039092956
:102C2000F3D928786C2810D006DC4C281AD06828F4
:102C30000ED06A2817D104E0742813D07A2812D154
:102C400010E00120400504430CE00121090501E0EA
:102C5000032109050C436978814203D10120000555
:102C600024186D1C6D1C287803906E281ED00CDC77
:102C7000632831D004DC00288AD0582811D1B2E072
:102C800064287BD069280CD178E073282DD004DC2F
:102C90006F2870D0702804D1A7E075286CD07828F0
:102CA0006BD0149A13999047761C62E06002400F33
:102CB000022807D003280AD0042838680AD0066002
:102CC0003F1D56E03868F11706604160F8E7386844
:102CD0000680F5E70670F3E7387869460874002047
:102CE000487404A80390012003E038680390002092
:102CF000C0433F1D61070FD5002101E00199491C28
:102D0000029A0191914213DA8142F7DB019A039909
:102D1000895C0029F2D10BE0002101E00199491CF6
:102D200001918142FADB019A0399895C0029F5D16E
:102D300001990098139A401A00902146149B00F0C4
:102D40003BF901998019461807E003980399007828
:102D5000491C0391149A139990470198401E0190C1
:102D6000401CF2D12146149B139A009800F014F9EC
:102D700086196D1C09E741E033E034E00A200021A8
:102D8000049005916002410F022905D001CFC217BE
:102D90009446032905D007E0FF1DFF08FF0003CF7D
:102DA00006E000B2C2179446042902D140B2C1170E
:102DB0008C4600226146944506DA0A4600214042CC
:102DC00091418C462D2102E0210504D52B216A4634
:102DD0001176012103E0E10701D02021F7E70191FD
:102DE00054E00A200BE0102009E01020049000219C
:102DF0000420044308200591029003E008200021EC
:102E0000059104906002410F022905D001CF0022F4
:102E10009446032906D006E0FF1DFF08FF0003CFFC
:102E20008C4603E080B2042900D1C0B20021019198
:102E300021072BD50399702906D0049A1021059BF0
:102E40004A401A4305D00EE040216A46117601211E
:102E500008E06146014306D030216A4611760399A5
:102E6000517602210191049A0821059B4A401A4398
:102E70000CD16146014301D1610707D530216A4673
:102E80001176012101910299491E02910399582955
:102E900004D037A103910FA90F910DE039A1F9E7F3
:102EA0006146059B049AFFF7DAFD039B8C469B5C09
:102EB0000F9A521E0F92137061460143F0D10F9882
:102EC00007A9081A20300390600704D501200004E8
:102ED0008443029801E0012002900399884201DDB9
:102EE000401A00E00020411802900198091800984B
:102EF000401A0090E00306D42146149B139A0098D0
:102F000000F05AF886190020049008E006A9085C31
:102F1000149A139990470498401C761C04900199C8
:102F20008842F3DBE0030CD52146149B139A0098EA
:102F300000F042F8861904E0149A30201399904763
:102F4000761C0299481E02900029F5DC08E00F98D3
:102F50000F990078491C0F91149A13999047761C89
:102F60000399481E03900029F1DCFBE609280100C3
:102F700030313233343536373839616263646566EF
:102F800000000000303132333435363738394142B1
:102F90004344454600000000F8B5044600251E469F
:102FA0001746880404D405E039462020B0476D1C3C
:102FB000641EF9D52846F8BDFFB50446002581B04A
:102FC0001E46C80301D5302700E02027880404D519
:102FD00005E038460399B0476D1C641EF9D52846B4
:102FE00005B0F0BD0A68531C0B60107070471F1BC2
:102FF000131B1B1B111F1F1B131B1B1B111F1F133D
:103000000D1D1B17011F1F130D1B1D0D131F1F1758
:103010001515111D1D1F4146425300003C3000088C
:1030200000000020BC000000502B0008F830000811
:10303000BC000020DC1E0000602B0008006CDC02DD
:103040000000000000000000010203040607080958
:103050000000000000000000000000000102030466
:103060000102030406070809000000000000000038
:1030700040000000BC000020000000000000000034
:1030800040000000BC05002000000000000000001F
:103090000000000000000000000000000000000030
:1030A0000000000000000000000000000000000020
:1030B0000000000000000000000000000000000010
:1030C0000000000000000000000000000000000000
:1030D00000000000000000000000000000000000F0
:1030E00000000000000000000000000000000000E0
:0830F0000000000000000000D8
:04000005080000C12E
:00000001FF
