:020000040800F2
:10000000182D0020D5000008DD000008DF000008E2
:1000100000000000000000000000000000000000E0
:10002000000000000000000000000000E1000008E7
:100030000000000000000000E3000008F3020008D8
:10004000E7000008E7000008E7000008E7000008F4
:10005000E7000008E7000008C5020008E700000804
:10006000E700000859570008E7000008E70000080B
:10007000E7000008E7000008E7000008E7000008C4
:10008000E7000008E7000008E7000008E7000008B4
:10009000E70000087D3B0008E7000008E7000008D3
:1000A000E7000008E7000008E70000080F5200081A
:1000B000E7000008E70000086D260008E7000008D8
:1000C0000348854606F054F900480047310300080C
:1000D000182D00201E4880471E480047FEE7FEE717
:1000E000FEE7FEE7FEE7FEE701B2814202D0C1175C
:1000F00019484840704770B502290DDD4B089D0036
:10010000445FA24204DDC91A28440229F6DC03E058
:10011000013319460229F1DC818809B2C5882DB264
:10012000048824B2408800B2091B0FD0121B064677
:10013000281A5043C517CA1755404A106A40521B27
:10014000801805F041FF3044FFF7CEFF70BD00007E
:100150005D010008C1000008FF7F000030B4504876
:1001600082B0016801242143016041684D4A114079
:10017000416001684C4A114001600168A20491434A
:10018000016041683F22120491434160C16A09093C
:100190000901C162016BFF22543291430163416B3B
:1001A000A14341630023836001930093016822040B
:1001B00011430160510005252D0302680A40009299
:1001C000019A521C0192009A002A02D1019AAA4275
:1001D000F3D10168890301D5009400E00093334A0C
:1001E00011211160416841604168416041687F228E
:1001F000D203914341600099012941681BD021221B
:10020000D2031143416001680122120611430160CB
:1002100001688901FCD5416889088900416041680D
:1002200002221143416041680907890F0229FAD16E
:1002300002B030BC70470922120411434160E2E76A
:1002400070B5174E71680C20194A1A4C014004D041
:100250001948042903D0082903D0226013E0206044
:1002600011E07268716803239202DB03150F1940D5
:10027000AD1C002910D0F16A0907090F491C05F0CF
:100280008DFE6843206070680C490006000F085C12
:100290002168C140216070BD094845432560F2E7EF
:1002A000001002400CB8FF08FFFFF6FE00200240DD
:1002B00000127A0000000020001BB700040000209C
:1002C00000093D0010B55A494020086003F0CCFAFF
:1002D00003F072F857488068032803D0072801D03C
:1002E000092801D104F09CF900F04CFA03F0AFFBAF
:1002F00010BD10B502F0BAF903F064F94E480122BE
:100300008168491C81604168491C41600A2904DBFD
:100310000021416049494020086049480078002890
:1003200005D04848027048480168491C016010BD6A
:1003300002F07CFB0121454801F03BF901214448D2
:1003400001F040F90121434801F02AF903F066F871
:10035000384CA068112801D000F04CF93E48806A62
:10036000002806D0A06803280FD007280DD0092840
:100370000BD002F0FCF805F050FDA068032807D070
:10038000072805D0092803D006E002F0A6F8F2E716
:1003900003F047FD03F05AFCA0680F2806D0102890
:1003A00004D0112804D005F07CFB01E005F005F82D
:1003B0002A48C1690902090A02071143C161284993
:1003C0000868FF22120490430122D20510430860FE
:1003D0007D242448E4002146006805F0DFFD224A20
:1003E000401E506100269661072010611F48402280
:1003F0000260C2050260144D124F00F06DF92868CA
:100400002146884209D31A4A13685B1C13600A4AC2
:100410000123137005F0C2FD296009480078002807
:10042000EBD138780028E8D005F03AFD3E70E4E7DB
:1004300080E200E0200600201400002000E200E03E
:10044000C5020020C4020020C0020020004A0300B0
:100450000300000201001E00C802002004ED00E0BD
:1004600004E400E00000002000E000E000E100E023
:10047000AC020020BB480021016041608160C16086
:10048000016141618161C16101624162B64A81627B
:100490009268112A14D00F2A24D0102A22D00323C4
:1004A0000362032A0DD0072A0BD0092A09D0AF4ACC
:1004B000028101804281418082818180C281C1802C
:1004C0007047AB493022CA718A714A710A71322170
:1004D0008183018381820182012181778176817507
:1004E00081747047072101700522027541704275C1
:1004F00081708275C170C275017102764171427658
:100500008171827670479849896811296ED00F29C8
:100510005CD010295AD0026AFF2A69D0002A67D01D
:10052000032925D0072923D0092921D002898F4901
:100530008A425DD803888B425AD8934258D8428960
:100540008A4255D843888B4252D8934250D88289E8
:100550008A424DD883888B424AD8934248D8C28970
:100560008A4245D8C088884242D8904240D83DE06F
:10057000018A3F293CD8818A3F2939D8018B3F29FC
:1005800036D8818B3F2933D8817C032930D8817DAF
:1005900003292DD8817E03292AD8817F032927D8D2
:1005A000014620310A79303A0A2A21D24A79303A72
:1005B0000A2A1DD28A79303A0A2A19D2C9793039E1
:1005C0000A2915D2806A012812D80FE06549002057
:1005D0000A5C072A0CD8002A0AD00A18127D072ABA
:1005E00006D8002A04D0401C1428F1DB00207047F4
:1005F00001207047F0B5604F604D5E4E28463E606A
:10060000FFF781FF574C002809D03D603546304642
:10061000FFF779FF002802D0FFF72CFF0AE00FCD8B
:100620000FC40FCD0FC4AA6869682868A260616012
:100630002060203C0FCC1C340FC42C3C0FCC1C344D
:100640000FC44C3CA26A616A206A62652165E0645D
:10065000F0BDF8B515460E46074601F011FA3846CA
:1006600001F057FA042809D10024002D0BD9A0006D
:100670003158C01901F07FFA042801D00120F8BDDB
:10068000641CAC42F3D301F004FA0020F8BD3A48F0
:10069000406870473A4910B52C22881A05F0BAFC18
:1006A000002818D02F481EC81C301EC02C381EC869
:1006B0001C301EC04C38836A426A016A4365026579
:1006C000C1642D484168002901D0022902D10121CD
:1006D00041608160012010BD27488168002940D019
:1006E000F8B5254800218160254E0B27056801F0EB
:1006F000C7F9284601F00DFA042825D10024A000EE
:100700003158401901F037FA04281DD1641CBC424D
:10071000F5D301F0BEF91848184C0168A14200D188
:10072000144C1548164E0B27046001F0A9F9204619
:1007300001F0EFF9042807D10025A800315800196D
:1007400001F019FA042803D00B4902204860F8BDD3
:100750006D1CBD42F1D301F09CF9074900204860AF
:10076000F8BD7047C802002020060020FE0F0000E0
:10077000E802002000F801082000002000F0010835
:10078000F402002010B551488068C01E0F2828D2FE
:1007900001007944097949188F44072345450745E5
:1007A0000745454523237A7A7A0049484949007824
:1007B00009780843484909780843484909780843B3
:1007C00001D002F007FE03F0F8FC4549C0B2087002
:1007D000001F062806D2434901200870014603F095
:1007E00074FB10BD404841490078097808434049EE
:1007F0000978084307D03F4A12780A4300D0012203
:10080000384B1A7002E0374B00221A70394A1278BE
:100810000A4301D0012100E00021002800D001207E
:1008200003F053FB10BD2D48334900780978084385
:1008300003D030480278002A1AD0304800780843A4
:100840000AD02A480178002906D02A490A78002AC5
:1008500002D000220A7002702348244900780978E7
:1008600008430AD023490978002906D0012105E070
:10087000012101701D480170EEE70021194A00288E
:10088000117000D001201B49097804F02EFA10BD28
:10089000154C2078002805D016480078002801D093
:1008A000012200E00022164801781648007804F082
:1008B000C9FD2078002805D00E480078002801D016
:1008C000012000E000200749087010BD200600202C
:1008D0008B0000208C0000208D0000208E00002066
:1008E0002C000020C50200206800002064000020C9
:1008F0008900002069000020920000209000002064
:100900008500002084000020F0B5092382B2DB06B8
:10091000D218002383B0000C48D08C05A40F029499
:100920004C05E40F01940C06A40F00948C06A40F50
:100930000907090FA6468C46C10733D094685D00AD
:100940000321A9408C439460029C9668AC403443D8
:100950009460978801269E40B74397809788019EB0
:100960009E403743978014688C431460009C16683F
:10097000AC4034431460D4688C43D4607146D4686E
:10098000A9402143D16059076446CD0EAC40D9102F
:10099000890089180F6A0F26AE40B7430F620D6AAF
:1009A00025430D6240085B1C0028C5D103B0F0BD93
:1009B00010B501214C06204600F01FFE0021204604
:1009C00000F01BFE10BD10B4036800220224A343F4
:1009D00003600368012423430360F84B00E0521CCA
:1009E0004468E40701D19A42F9D14268D2073ED067
:1009F0008C798022012C04683CD094430460CC792B
:100A00004022012C046837D0944304600C7A2022E1
:100A1000012C046832D0944304604C7A1022012CDB
:100A200004682DD0944304608C7A0822012C046859
:100A300028D094430460CC7A0422012C046823D08B
:100A4000944304608A78CC789207240622430C7978
:100A5000240422434C79098824052243491E0A4371
:100A6000C261016849084900016000210FE010BC23
:100A7000002070471443C1E71443C6E71443CBE793
:100A80001443D0E71443D5E71443DAE7491C42681E
:100A9000D20701D09942F9D14068C007E7D110BC14
:100AA0000120704730B4817A01231A468A40C44934
:100AB0000C681C430C60CB699343CB61037B002B18
:100AC00012D1CB689343CB60C38844881B04234373
:100AD000847AE40064182364838804881B04234315
:100AE000847AE40064186364037B012B24D1CB680F
:100AF0001343CB600578C4782B4645782D022B43F1
:100B000085782D042B43240623431024E341847A63
:100B1000E400641823640579C4792B4645792D02D5
:100B20002B4385792D042B43240623431024E341D2
:100B3000847AE40064186364C37A002B4B6805D0A0
:100B400013434B600389002B02D004E09343F8E782
:100B50004B6993434B610389012B02D14B691343CA
:100B60004B61407B012802D1C8691043C861086805
:100B700040084000086030BC704700218171C1719D
:100B8000017241728172C1728170C1700321017161
:100B90000221417101210180704789490A680123BE
:100BA0001A430A600A68874B1A400A600A68000202
:100BB00002430A600868400840000860704701224C
:100BC00012040029016801D0114300E09143016043
:100BD000704710B402468024FF326300813200293E
:100BE00001680AD021430160506818435060506981
:100BF00018435061506A184309E0A14301605068EE
:100C000098435060506998435061506A98435062CD
:100C100010BC704730B40246936800205B0108D4D2
:100C20009068000101D5012003E09068C0002FD535
:100C3000022003019A18FF3281321368DB07DB0FB1
:100C400013600B7A002B26D014684D681C434B7A36
:100C5000ED002B431C4314608B7A1B071B0F8B7218
:100C600053681B091B01536053688C7A23435360FC
:100C7000CB68CC7A1B02234393600B69C97B1B02B0
:100C80000B43D360116801231943116030BC7047D6
:100C900030BC0420704713684C7A23430C886405E9
:100CA00023431360D8E7484A002904D0012905D01E
:100CB000022925D106E08068444901E08068444962
:100CC000084002E0806843490840811A904215D0EC
:100CD00007DC002814D0404940180ED002280DD15E
:100CE0000AE0FF39FF39891E06D03C48081804D0B5
:100CF00001214904884201D101207047002070473A
:100D000002207047002909D001290CD0022904D102
:100D100081680122D2051143816070478168802279
:100D200011438160704781680122D20311438160C1
:100D300070470B011B1830B4FF3381331C6B042543
:100D40002C4014721C6B2AD0E40854601C6B0225E2
:100D50002C4054725C6B2407240F94725C6B240A41
:100D6000D4749C6BD4729C6B240A14739C6B240CFB
:100D700054739C6B240E9473DC6BD473DC6B240A69
:100D80001474DC6B240C5474DB6B1B0E93742022E4
:100D9000002907D001691143016130BC7047640D1F
:100DA0001460D3E7C1681143C16030BC7047202292
:100DB000002915D00169114301617047FFFFFF0051
:100DC00000660040F1C0FFFF0001000803000004BE
:100DD0000003000800000310FFFFFFFB0003FFF704
:100DE000C1681143C160E8E702460020002905D030
:100DF000012902D110698007800F7047D068FAE797
:100E00000023CC4A002904D0012916D0022923D07E
:100E100039E0016889088900491C016000E0521E20
:100E200041688907890F012901D0002AF7D140685C
:100E30008007800F012823D124E0016889088900F8
:100E4000016000E0521E4168890701D0002AF9D1F3
:100E50004068800714D115E0016802234908490061
:100E60001943016000E0521E41688907890F022979
:100E700001D0002AF7D140688007800F022801D0F6
:100E8000002300E001231846704702680021520841
:100E9000520002231A43026040688007800F022834
:100EA00000D101210846704710B4A249026800230E
:100EB0000224A243026000E0491E4268920701D565
:100EC0000029F9D14068800700D4012310BC1846DE
:100ED000704780694006400F000170478069000E2E
:100EE000704780690002000E7047002A426901D0F5
:100EF0000A4300E08A4342617047024600200B0229
:100F00001B0F05D092690A40110300D001207047E1
:100F1000CB0104D552680A401103F7D170470B0189
:100F200004D592680A401103F0D170478B0104D5B3
:100F3000D2680A401103E9D1704712690A401103CF
:100F4000E4D170477C4A914202D10021816170470F
:100F50000A03120B8B0101D5C26070474B0101D50A
:100F600002617047090101D5826070474260704795
:100F700010B40246536900200B4212D0FF24013402
:100F80000B1BA1426DD01BDC08294ED00BDC0129C4
:100F90003CD0022942D0042903D1D1680822114251
:100FA00039D110BC7047102946D020294BD0402998
:100FB000F7D111691022002011422CD110BC7047CA
:100FC0007F242402191BA34260D011DCFF3B5B1E6F
:100FD0004ED0FF3BFF3B9B1E51D0012189028B422B
:100FE000ECD1916970220020114214D110BC7047DD
:100FF0000123DB03C91A2DD05B009942F6D1516859
:1010000010220020114206D110BC704791684B4A53
:1010100000201142F8D010BC01207047D168002098
:101020008907890FF7D110BC7047D16810220020C2
:101030001142F0D110BC7047116900208907890F57
:10104000E9D110BC70471169082200201142E2D199
:1010500010BC70475168082200201142DBD110BC3F
:10106000704791690020C907C90FD4D110BC7047DF
:101070009169022200201142CDD110BC70479169C4
:10108000042200201142C6D110BC704751680422CE
:1010900000201142BFD110BC7047F0B40126760287
:1010A0008D1B082310240422B14240D011DC2029DA
:1010B00034D008DC01292AD004292CD0082900D1F9
:1010C000C460F0BC704740292BD0FF390129F8D10A
:1010D0002DE03F267602AF1B0021B54208D00BDC85
:1010E000FF3DFF3DAD1E22D001239B029D42E8D172
:1010F00081614260F0BC70470121C903791A13D0A5
:10110000012212049142F5D14460F0BC70470B49B2
:101110008160F0BC7047C360F0BC70470361F0BCF5
:1011200070470461F0BC70474360F0BC7047426098
:10113000F0BC7047FFFFFF007000F03001010100BC
:10114000F74801680122114301604168F54A1140E6
:1011500041600168F44A1140016001680122920473
:101160009143016041683F22120491434160C16A8A
:1011700009090901C162016BEC4A11400163416B2D
:10118000490849004163002181607047E449002219
:101190008A70887070470023E14942090DD0012A06
:1011A0000DD0022A0DD0496BC006C00E012282402C
:1011B0000A4200D00123184670470968F4E7096A1B
:1011C000F2E7496AF0E718B4002000900120D44B00
:1011D0004004052424031A680021104200D0012194
:1011E000009A521C0092A24201D00029F3D0196843
:1011F000084000D0012018BC7047C94A1168F82384
:101200009943C000084310607047C549002808682A
:1012100002D00122104301E04008400008607047FE
:10122000BF4A516BF8239943C0000843506370478D
:10123000BB490028486B02D00122104301E040085E
:10124000400048637047B64904220028486B01D02B
:10125000904300E0104348637047B1490A6A52085E
:1012600052000A620A6A04239A430A620A6A024323
:101270000A627047AA490A6A18239A430A620A6AEC
:1012800002430A627047A6490028486A02D0012238
:10129000104301E0400840004862704710B4A04A83
:1012A00053687B24E403A343536053680843034318
:1012B000536010BC70470122994912060028086843
:1012C00001D0104300E09043086070470122944928
:1012D00012040028486B01D0104300E0904348639B
:1012E00070478F4AD16A090909010143D1627047E9
:1012F00001228B49D2040028086801D0104300E085
:10130000904308607047864A53681B021B0A000618
:101310000843184350607047814A51688908890022
:101320000143516070477E4840680C210840704777
:101330007B4A5168F0239943014351607047784AD2
:10134000516807231B029943014351607047744958
:101350004A6801239B039A434A604A6883B21A434E
:101360004A600A6B8B159A430A630A6B000C0243AE
:101370000A6370476A490A6B40239A430A630A6BFF
:1013800002430A63704766490A6B10239A430A6353
:101390000A6B02430A637047020F6149012A0AD0AF
:1013A000022A0A6B0BD003239B049A430A630A6B3D
:1013B00002430A6370470A6B9208920002E003231B
:1013C0001B049A430A63F2E755490A6B80239A4348
:1013D0000A630A6B02430A637047F8B5504D04462E
:1013E0006A6800210C20524E024006D05148042A5F
:1013F00005D0082A05D00C2A1BD026601BE02060EF
:1014000019E06A68696803239202DB03170F194029
:10141000BF1C002909D0E96A0907090F491C04F01B
:10142000BDFD78430146216005E04348394641430C
:10143000F9E7424820606868414F0006000F3B5CB6
:1014400020680246DA4062606B685B055B0FFB5CFC
:10145000DA40A2602B6BDB0502D43A4BE36006E076
:101460006B685B0401D4530800E09308E3602B6BC6
:101470005F06354B02D4354F276100E023612F6BA7
:10148000FF0601D4666100E060612F6BBF070ED0DC
:101490002F6BBF07BF0F012F0BD02F6BBF07BF0FE5
:1014A000022F08D02F6BFF43BF0706D006E0A261D2
:1014B00004E0A06102E0A36100E0A6612F6BBF031E
:1014C000BF0F0FD02F6BBF03BF0F012F0CD02F6B9F
:1014D000BF03BF0F022F09D02F6BBF03BF0F032F16
:1014E00006D006E0E26104E0E06102E0E36100E0D2
:1014F000E6612F6B3F03BF0F0FD02A6B1203920FD1
:10150000012A25D0286B0003800F022822D0286BE7
:101510000003800F03281FD01FE022621DE000009F
:10152000001002400CB8FF08FFFFF6FEACFEF0FF13
:1015300000127A00001BB70000093D00006CDC02BD
:1015400034000020809FD500008000001280000041
:10155000206202E0236200E02662286B000602D4CB
:1015600038486062F8BD6162F8BD37490A6A0243D3
:101570000A62704701223449D2030028086A01D068
:10158000104300E090430862704701222E49120484
:101590000028086A01D0104300E0904308627047B9
:1015A000294A0029516901D0014300E0814351617A
:1015B0007047254A0029916901D0014300E0814329
:1015C00091617047204A0029D16901D0014300E0B0
:1015D0008143D16170471C4A0029916A01D00143BF
:1015E00000E0814391627047174A0029D16801D019
:1015F000014300E08143D1607047134A002911691B
:1016000001D0014300E08143116170470E4A002977
:10161000517A01D0014300E08143517270470A487A
:10162000416A01221206114341627047064A01468F
:10163000926800200A4200D0012070470249887257
:1016400070470000006CDC020010024088498842AC
:101650000AD110B501214C022046FFF7C5FF002139
:101660002046FFF7C1FF10BD704730B4C368814A00
:101670008C6813400A680D792243CC686D032C43B3
:1016800022430C69496922430A431A43C26030BCB1
:1016900070470021016001718160C1600161416199
:1016A00070470029816803D001221143816070478F
:1016B000022211438160704701617047002A02696C
:1016C00001D00A4300E08A43026170470122D2033D
:1016D0000029C16801D0114300E09143C160704707
:1016E000012292030029C16801D0114300E0914317
:1016F000C16070470122D2050029C16801D01143A1
:1017000000E09143C16070470904114301627047D2
:10171000C2681F239B069A430A43C2607047012296
:1017200092050029C16801D0114300E09143C160D6
:10173000704701225049D2050028886801D0104323
:1017400000E090438860704701224B4992050028D1
:10175000886801D0104300E0904388607047012200
:10176000454912060028886801D0104300E09043E4
:1017700088607047836A0B4383624261704701222D
:1017800052030029C16801D0114300E09143C160B8
:101790007047012212040029C16801D0114300E002
:1017A0009143C1607047012212030029C16801D032
:1017B000114300E09143C16070478268002101231A
:1017C000DB071A4382600F231B038268491CD20F78
:1017D000D207994201D0002AF7D18168002901DBA4
:1017E000006C7047002070478168102211438160AF
:1017F000704781680422114381607047006C80B299
:1018000070470029C16802D00122114301E0490854
:101810004900C1607047C26802239A43C260C2682F
:101820000A43C2607047002A426801D00A4300E0C0
:101830008A434260704702460020CB0104D592687B
:1018400001231B069A4300E012680A4200D00120DF
:101850007047016070474368002200680B400842EF
:1018600002D0002B00D00122104670470160704763
:101870000024014003D2FFFF00270140F0B40168BB
:10188000634A114001600021016041608160C160D4
:10189000604B61490F2298422DD0604CF023A0424A
:1018A00002D14868184330E05D4D0F242402A8425D
:1018B00029D05C4E2501B04202D14868284324E07B
:1018C000594F0F263604B84202D1486830431CE015
:1018D000564FB84203D148680F22120505E0544F15
:1018E000B84204D148680F22120610430DE0514F50
:1018F0005149B84201D14868F7E7504A9042D0D0E8
:101900004F4A904204D1486820434860F0BC704779
:101910004C4A9042D1D04C4A9042D6D0F0BC70474D
:1019200030B40368494A0C6A13408A684D692243FF
:101930000C692C4322438C692243CC6922434C6AB4
:1019400022438C6A22431A430260CA6842600A68D2
:1019500082604968C16030BC70470021016041600D
:101960008160C160016141618161C1610162416267
:10197000816270470029016802D00122114301E011
:10198000234A11400160704710B48030826A0B0F07
:101990009C000F23A3409A438262826A09010909CD
:1019A0000A43826210BC704741607047406880B251
:1019B0007047002A026801D00A4300E08A430260AF
:1019C00070470021C20001D51B4A00E0124A12688C
:1019D000024200D0012108467047C10001D51649D6
:1019E00000E00D49486070470021C20001D5124A4D
:1019F00000E0094A1268024200D0012108467047FF
:101A0000C10001D50C4900E003494860704700005F
:101A1000FEFF000008000240000002401C000240DF
:101A20003000024044000240580002406C00024076
:101A30008000024008040240000402401C040240EE
:101A40003004024044040240580402400F80FFFF6B
:101A5000FE4A116849084900014311607047FB497B
:101A600010220028086801D0104300E0904308606D
:101A70007047F64900200968890600D501207047A3
:101A8000F2480169090603D5F1494160F149416015
:101A90007047EE4801698022114301617047EB49AC
:101AA0000420CA68D20701D001207047CA68D20654
:101AB00001D502207047C9684907FBD5032070474C
:101AC000E2490246CB680420DB071FD1CB68DB0666
:101AD00001D5022016E0C968490713D5032011E09B
:101AE000CB680420DB0701D0012008E0CB68DB06CF
:101AF00001D5022003E0CB685B0700D50320521E0E
:101B0000012803D0002A00D105207047002AE7D120
:101B1000FAE7F0B50B2706463F043846FFF7D0FF3B
:101B200004280FD1C94C2069022528432061666131
:101B300020694021084320613846FFF7C1FF216931
:101B4000A9432161F0BD70B50B252D042846FFF790
:101B5000B7FF04280ED1BD4C206904263043206114
:101B600020694021084320612846FFF7A9FF216929
:101B7000B143216170BDF8B5064600200B273F0434
:101B800000900D463846FFF79BFF042815D1AF4C57
:101B9000206901210843206135803846FFF790FF16
:101BA000042806D1B61C280C009630803846FFF772
:101BB00087FF2169490849002161F8BDF0B50B276D
:101BC00006463F040D463846FFF77AFF04280CD13D
:101BD0009E4C206901210843206135803846FFF77B
:101BE0006FFF2169490849002161F0BD97480169EB
:101BF000890503D49649816096498160704793486E
:101C000001694215914301617047904801690122C1
:101C100052031143016170478C490020C96949078B
:101C2000890F00D001207047F0B5884CAA25E069E3
:101C30004007800F00D000250B273F043846FFF7F0
:101C40003FFF042812D120692026304320612069FB
:101C50004021084320613846FFF732FF1021042855
:101C600005D0052802D022698A432261F0BD20698F
:101C7000B043206120690E463043206176480580DC
:101C80003846FFF71DFF0528F0D02169B1432161D7
:101C9000F0BDF0B5C04301040E0E0102C7B2040E40
:101CA0000B200D0E0004FFF70BFF042831D167490C
:101CB0000A6910231A430A61FF2F07D0664807817B
:101CC0000B200004FFF7FCFE04281BD1FF2E07D0D9
:101CD000614846810B200004FFF7F2FE042811D171
:101CE000FF2D07D05C4885810B200004FFF7E8FE3C
:101CF000042807D1FF2C07D05748C4810B200004CB
:101D0000FFF7DEFE052804D050490B6910229343EB
:101D10000B61F0BDF0B50B26074636043046FFF7E1
:101D2000CFFE04280FD1494C20692025284320618B
:101D300020694021084320613046FFF7C1FE042896
:101D400002D005280ED1F0BD2069A843206120698A
:101D5000102528432061404807803046FFF7B0FE39
:101D60000528F0D02169A9432161F0BDF0B50546F1
:101D70000B2094460F460004FFF7A2FE042814D15E
:101D8000324C20691026304320613D4360460543B4
:101D9000F8200543304845800B200004FFF790FEF3
:101DA000052802D02169B1432161F0BDF0B50B27B0
:101DB00005463F043846FFF783FE042810D1234C24
:101DC0002069102630432061EF20054322484580DA
:101DD0003846FFF775FE052802D02169B14321611D
:101DE000F0BDF0B50B2705463F043846FFF768FE07
:101DF000042810D1154C2069102630432061F720AB
:101E00000543154845803846FFF75AFE052802D09D
:101E10002169B1432161F0BDF0B50B2705463F04B0
:101E20003846FFF74DFE042819D1084C20691026CA
:101E3000304320617F200543074845803846FFF73F
:101E40003FFE05280BD02169B14307E00020024086
:101E500023016745AB89EFCD00F8FF1F2161F0BD7D
:101E6000F0B50B2705463F043846FFF729FE042846
:101E700010D13D4C2069102630432061DF200543FE
:101E80003A4845803846FFF71BFE052802D02169F5
:101E9000B1432161F0BDF0B50B2705463F0438463C
:101EA000FFF70EFE042810D12F4C20691026304376
:101EB0002061BF2005432D4845803846FFF700FECE
:101EC000052802D02169B1432161F0BDF0B50B278F
:101ED00006463F043846FFF7F3FD04280ED1224C96
:101EE0002069102528432061204846803846FFF7A6
:101EF000E7FD052802D02169A9432161F0BDF0B5B5
:101F000007460B200E460004FFF7DAFD04280ED129
:101F1000154C20691025284320613E800B200004C9
:101F2000FFF7CEFD052802D02169A9432161F0BD4C
:101F30000D48C0690004000E70470B48006A7047E6
:101F4000094A0029116901D0014300E08143116170
:101F50007047054A0146D26800200A4200D001209D
:101F600070470149C86070470020024000F8FF1F19
:101F7000F64910B5884207D101218C032046FFF7AE
:101F800033FB0021204650E0F149884209D101216C
:101F90004C042046FFF731FB00212046FFF72DFBC4
:101FA00010BDEC49884209D101218C042046FFF77D
:101FB00024FB00212046FFF720FB10BDE6498842A4
:101FC00009D10121CC042046FFF717FB0021204650
:101FD000FFF713FB10BDE149884209D101210C052F
:101FE0002046FFF70AFB00212046FFF706FB10BD45
:101FF000DB49884206D101212020FFF7F5FA0021B4
:10200000202012E0D749884206D101214020FFF765
:10201000EBFA0021402008E0D3498842E7D10121B2
:102020008020FFF7E1FA00218020FFF7DDFA10BDE4
:1020300030B5044600688BB00D4640084000206073
:102040006068032109038843A9680143616020682F
:10205000C649EA680840696811432A690243114386
:102060002160A06803210902884369690143A160D6
:102070006846FFF7B2F9B548844201D106980AE0F4
:10208000B348844201D1079805E0B248844201D1A7
:10209000089800E0029821680904296800D54000EA
:1020A00003F07CFF2A6852088A4200D8401C21684D
:1020B000090404D50107AE4A490F10400843A08126
:1020C0000BB030BD4B21C90101600021416081602E
:1020D0000C22C16002614161704710B442680F2355
:1020E0001B029A434C680B6823438C68C9680C43F5
:1020F00023431343436010BC7047002101604160DB
:102100008160C16070470029016802D0012211433B
:1021100001E04908490001607047002A026801D0C7
:102120000A4300E08A43026070470122D20300297B
:10213000016801D0114300E0914301607047012222
:10214000D2020029816801D0114300E091438160EF
:1021500070470122D2040029416801D0114300E0F8
:10216000914341607047012292040029416801D0E7
:10217000114300E0914341607047002A426801D05A
:102180000A4300E08A43426070470122D2030029DB
:10219000416801D0114300E0914341607047012242
:1021A000D2050029416801D0114300E0914341600C
:1021B00070474269120E1206426142690A43426147
:1021C0007047028A120A12020282028A0A430282BB
:1021D000704702220029016801D0114300E09143B9
:1021E00001607047826803231B059A4382608268FE
:1021F0000A4382607047012212050029416801D01C
:10220000114300E0914341607047426803235B053E
:102210009A43426042680A4342607047C905C90D4B
:1022200001857047808CC005C00D7047426812025E
:10223000120A4260426809060A434260704701225E
:1022400052030029016801D0114300E0914301606D
:10225000704702680123DB029A43026002680A4366
:1022600002607047426810239A43426042680A4302
:1022700042607047426820239A43426042680A43A2
:1022800042607047012292030029416801D0114346
:1022900000E091434160704708220029816801D025
:1022A000114300E0914381607047028AD2B20282FA
:1022B000028A09020A4302827047202200298168AB
:1022C00001D0114300E09143816070471022002942
:1022D000816801D0114300E09143816070478268BA
:1022E00007235B049A438260826849040A43826040
:1022F000704742691202120A4261426909060A43A2
:1023000042617047826804239A43826082680A436C
:102310008260704702220029816801D0114300E0E9
:10232000914381607047012292030029816801D0A6
:10233000114300E091438160704782680123DB0311
:102340009A43826082680A43826070470038014085
:102350000044004000480040004C00400050004055
:102360000014014000180140001C0140F3E9FFFF88
:10237000F0FF000002681F235B059A4302600268B9
:1023800049050A430260704702681F231B049A43F1
:102390000260026809040A4302607047002A8268EA
:1023A00001D00A4300E08A438260704782680123BB
:1023B0005B039A43826082680A438260704710B46C
:1023C0000B041C0E01238B40022C02D0032C02D0E4
:1023D00002E0001D00E008300168002A01D0194326
:1023E00000E09943016010BC7047002A028B01D0C5
:1023F0000A4300E08A4302837047826801231B037B
:102400009A43826082680A43826070470246D269BA
:1024100000200A4200D0012070470162704730B4AA
:102420000A04130E0122144600258C40012B0FD004
:10243000022B10D083682340090CC0698A401040E9
:10244000002B02D0002800D00125284630BC704760
:1024500003682340F0E74368EDE70A0C012191404F
:102460000162704730B4FD4B197A1C780A46491C4A
:10247000641E21405C7A8C420AD00C256A435C6859
:102480004568A218046880685560146090601972ED
:1024900030BC704710B4F2490B7A4A7A934212D09A
:1024A0000C244B6862439A1854681368926844601D
:1024B00003608260487A0A78401C521E10404872BD
:1024C00010BC0120704710BC00207047C0000423DE
:1024D00003430B80000C10807047F0B5E524A40086
:1024E000012087B02146C006FEF70EFA01202146E2
:1024F0000007FEF709FADB490868FF2212040226EA
:1025000090437205104308600125D7491002086006
:10251000D64F3846FEF74CFA04A8FEF72EFB0024EF
:1025200068468474C47407210175467508210182C8
:10253000C575457604A93846FEF745FA68464573E1
:102540000481C47205730421032241805202028077
:10255000C18082808472FEF7A5FAC549A80408608C
:10256000012202213846FEF7C0FC07B0F0BDF0B5ED
:10257000E521012087B08900C006FEF7C5F9E521F5
:10258000012089000007FEF7BFF9B6480068FF2167
:10259000090488430127BF05B24938430860012573
:1025A000B149A8070860B148FEF702FA04A8FEF78F
:1025B000E4FA002468468474C4740721017502217A
:1025C000417508210182C57504A9A848FEF7FBF9E9
:1025D000684645730481C4720573042646800480EE
:1025E0000321C680490281808472FEF75BFAA14C08
:1025F000A08880043843C1000A46324368464280BE
:10260000090C01803F21C680490181808572FEF757
:1026100049FA2068E9050843C2001146314368467B
:102620004180110C0180691FC18093498180022182
:1026300081720581FEF736FAA1880322890492058A
:102640002068114308438A49012208600221874813
:10265000FEF74BFC012210218448FEF746FC0122C4
:1026600011468248FEF741FC07B0F0BDF8B583483B
:102670007027806A7D4E002807D07E488068032836
:102680007ED007287CD009287AD002213046FEF778
:102690006FFC002839D0724D287A2978441C491ED5
:1026A0000C40697AA1422AD00C2250436968744ACE
:1026B0000818116BCB086E494B6001685B015B0F1A
:1026C000B9431B0119430160526B09091207120F2C
:1026D00009011143FF22813201609143644A52682B
:1026E000D200920FD201114302C00A07120F6549AE
:1026F00003F07EFCF06820210843F0602C72022178
:102700003046FEF735FC0028C5D110215748FEF7AA
:102710002FFC00283CD0554D514E307A3178441C66
:10272000491E0C40717AA1422CD00C227168504392
:10273000554B0818196BCA084D494A600168520187
:10274000520FB9431201114301605A6B0909120774
:10275000120F09011143FF22813201609143444A63
:102760005268D200920FD201114302C00A07120F21
:10277000464903F03DFC296920200143296100E01E
:102780002AE0347210212846FEF7F2FB0028C3D15C
:102790003648816849017DD58168012211438160F5
:1027A0002E4B5A7A187A824274D00C2059685043C2
:1027B0002F4C081821680D0201782D0A4906490F8F
:1027C00009062943324D21602D78002D7ED0032546
:1027D000ED0629432160DAE002213046FEF7C8FB0E
:1027E000002839D01E4D287A2978441C491E0C40F7
:1027F000697AA1422AD00C2250436968204A0818FD
:10280000116BCB081A494B6001685B015B0FB94340
:102810001B0119430160526B09091207120F0901CC
:102820001143FF22813201609143114A5268D20064
:10283000920FD201114302C00A07120F114903F08F
:10284000D7FBF06820210843F0602C72022130464B
:10285000FEF78EFB0028C5D1B0681CE058000020B0
:102860004C0000201CE400E000E100E000640040B7
:1028700044000020200600201F060000C80200209F
:1028800080650040B865004090650040C865004024
:102890006C00002067E0400165D5B0680121084365
:1028A000B0605B4B5A7A187A82425CD00C2059682F
:1028B0005043091857483F240568A40425400C7864
:1028C0006406640F24062C43534D00E04CE0046082
:1028D0002D78002D04D001252D072C43046003E042
:1028E0000125ED062C4304604C480568ED07ED0F0B
:1028F00005600568E400241D25430560446824093B
:102900002401446044680D782D072D0F2C4344604A
:102910004C1C4F7925463C468F790E7A3F023C434A
:10292000CF7936063F043C4334430E7924023443C6
:10293000846008242D192E78097A34466E78360280
:102940003443AE78ED78360434432D062C4324020C
:102950000C43C46001680124214301601878401EC3
:10296000521C02405A72F8BD2D4D2E4E2D783678ED
:10297000354304D001252D072943216007E02A4D66
:102980002D78002D03D00125ED06294321600C464A
:1029900022490D68ED07ED0F0D600D68E400241D60
:1029A00025430D604C68240924014C604C6805786F
:1029B0002D072D0F2C434C604779067A3D468779C9
:1029C00036063F023D43C779441C3F043D4335432F
:1029D00006792D0235438D60082565192E78007A19
:1029E00034466E7836023443AE78ED78360434439C
:1029F0002D062C4324020443CC60086801242043A4
:102A000008601878401E521C02405A72F8BD00003F
:102A10005800002044000020C502002080650040CE
:102A200069000020890000206800002070B5FF497F
:102A3000FD4C2DC92DC46AC96AC4FD49203C884299
:102A400001D8022A00D9FEE77D21C90003F0A6FAC9
:102A5000A06070BDF8B5016870229143203101601B
:102A6000F149041D8968C91E0F297CD20A007A44E5
:102A700012799218974407777878077807787878EA
:102A80007777DCDCDC000168EA4E090909010831CE
:102A900001600A21B06903F097FAE74A216800054E
:102AA000000B11400843206001216068090788433A
:102AB000318EC907C90808430121090660608843AF
:102AC000B18DC907C909084360600A21B06D03F0E0
:102AD0007BFA216800050903090B084320600120E7
:102AE000656840078543306F0A21C00780080543A9
:102AF0000120400665608543F06ED04EC007800916
:102B000005436560B06903F05FFA0705280B3F0DC8
:102B1000000307430120800767608743308E0A2146
:102B2000C007400807430120800667608743B08DD7
:102B3000C007400907436760B06D03F045FAC0491C
:102B40000005000A0F4038436060316F40004008C4
:102B5000C90708430121C90660608843F16EC907AF
:102B6000090908436060F8BD0168090909010831D5
:102B70000160B14821680140B24882891205120BF8
:102B8000114321600122616812079143027DD2073F
:102B9000D20811430122120661609143027CD207E0
:102BA000D209114361602168828C0903090B120567
:102BB000114321600122616852079143828DD2073F
:102BC000920811430122520661609143028DD2079F
:102BD000920911436160828F090B12050903120DDE
:102BE00011430122920761609143426CD20752085F
:102BF00011430122920661609143026CD20752098F
:102C000011438F4A61601140426D1205120A11434F
:102C10006160C26D49004908D20711436160012219
:102C2000806DD206C0079143000901436160F8BD81
:102C30000168002509090901891C01607A4825708D
:102C40008068112832D080480278002A12D07F4B49
:102C50007F4800211E78002E05D00678002E02D075
:102C60004E1C26700570521E401C491C5B1C12062F
:102C7000120EEFD101212068890288437549097835
:102C8000C907490D08432060012149028843724960
:102C90000978C907890D0843FF21013188436F492D
:102CA0000978C907C90D08432060F8BD2068EBE723
:102CB000F0B500208DB00490059003900090019035
:102CC00005460290064609906548664C806A0028D1
:102CD00007D055488068032815D0072813D0092845
:102CE00011D003A8FFF7D6FB002879D001277D205B
:102CF000C000A060A7700398C005800F022815D0FF
:102D0000012815D016E003A8FFF7C4FB0028FAD16C
:102D10007F1C142F7EDD009870218843103000093D
:102D2000000100906846FFF79DFB41E3677001E0FA
:102D30000020607003984006400F08286BD2010005
:102D40007944097949188F4466911D25FD03FCFBE0
:102D50000498C00703D00498C007C00F20702078E3
:102D6000002858D00498800703D504988007C00F26
:102D7000E070049840074ED504984007C10F3A48C8
:102D8000017052E269460498087101256846FFF710
:102D900061FE4AE22079002868D123488068112822
:102DA00039D00021617100997022914340310909A5
:102DB0000901083100916A460499C01E11710E285C
:102DC00073D201007944097949188F446F6E060661
:102DD0006F0A6F0A06066E6EA6A60020107146E006
:102DE00029E204980006000E41D0134801990140E1
:102DF0001B4882881202114382890903090B1205BC
:102E0000114301910299C288090B09031205120DA1
:102E1000114301E0CCE269E1C089094A0005114093
:102E2000000A01430291F4E02006002000F00008AF
:102E3000FFFF030028010020FF00F0FFA801002091
:102E4000FF0F00FFE415002094020020CC160020A4
:102E5000E01600207E0200207D0200207C0200207F
:102E6000C802002068000020F1000020D9E0FE48E0
:102E700001990140FD4802881202114302890903A9
:102E8000090B12051143019102994288090B1205A1
:102E90000903120D1143F64A114042891205120A24
:102EA00011430291008C6946C872B2E00020107193
:102EB000EE481146027C8A71032201991202914365
:102EC000827C9207920D11430191027D6946CA717D
:102ED0000322019992029143827D9207120D1143C0
:102EE0000191027E69460A720322019912039143FD
:102EF000827E9207920C11430191027F69464A72C9
:102F00000322019992039143827F9207120C11438D
:102F10000191008C6946C8727BE00498C0B2844677
:102F2000032876D20498C100081AC2B2009807217B
:102F300000090001083000900198C902884302E0AE
:102F400064E14EE169E0C9498B18197D4907890C94
:102F50000843072109028843C449895C4907490D90
:102F60000843072149048843597D4907090B084351
:102F700007218903884359784907C90B084307216A
:102F8000C9058843997D490789090843072109052F
:102F9000884399784907490A0843D97DC000C00889
:102FA00049070843072189068843D9784907C90892
:102FB00008430190029838218843197E4907890EF9
:102FC00008431979C0084907C000490F0843072181
:102FD00049028843597E4907090D0843FF21C13141
:102FE000884359794907C90D084302906046022871
:102FF0000FD207210298C9038843997E4907890B9C
:10300000084307210903884399794907490C084374
:1030100002906846FFF726FA07E120792169084304
:1030200001D0012601E193488068C01E0F285DD2BF
:1030300001007944097949188F4459F70707592441
:1030400059240707F7F78888D100049904980903E1
:10305000000D0A0D904202D984490A800881059822
:10306000059900020A05000D120D904202D97F4910
:103070004A8048810598000E67D005987B49000E6C
:103080000862A9E004980006000E049814D0049980
:10309000000D09030A0D904202D974498A80888183
:1030A0000598059900020A05000D120D90424CD9B1
:1030B0006E49CA80C8818FE0010D0003020D914264
:1030C00002D96A480280018105980002010D059825
:1030D0000205120D914202D964484280418105984F
:1030E000000E03D005986149000E08629DE0049827
:1030F0000002000E402801D25C4908820498800535
:10310000810F5A4881740499090E402900D28182A6
:1031100004990905890F81750599C9B2402900D222
:10312000018304998904890F817605990904090EA0
:10313000402900D2818304990904890F8177059978
:10314000090E49D00599090E016245E00498C0B204
:103150008446032869D20498C100081AC1B20498B1
:103160008004420F414843181A75049A5205520FC1
:10317000425404980003400F58750498C003400F50
:10318000587004988001400F987504984002400FD1
:1031900098700498400FD8750498C000400FD870FC
:1031A00005988006400F187605984007400F187163
:1031B00005980005400F58760598C005400F5871D6
:1031C0006046022808D205988003400F987605983B
:1031D0004004400F987128E00120099025E02770F5
:1031E00023E0009870218843603000090001401DF1
:1031F000009021486946007808712048007848719D
:1032000000208871C8710872684603E70098702131
:10321000084300090001801C0090022069460871E3
:10322000002048716846FFF71DF903A8FFF732F93F
:10323000002800D05BE52079E168884200D00126B3
:10324000A17829435BD0002859D12078002856D096
:1032500008480B4F80680F2857D0102855D01128E8
:1032600053D068460EE00000FF00F0FFC8020020C7
:10327000FF0F00FF20060020A8020020A40200206B
:103280007C000020FFF7E6FB0298C000C10F7868C1
:10329000C200D20F914256D1029982008900C90F13
:1032A000D20F91424FD1029942004900C90FD20F6B
:1032B000914248D10299C20FC90F914243D102995C
:1032C000C201C901C90FD20F91423CD102998201BA
:1032D0008901C90FD20F914235D1029942014901AA
:1032E000C90FD20F91422ED1029900010901C90FD5
:1032F000C00F814227D102990198A1616061002D20
:1033000023D06846FFF7AEF82AE06846FFF7A2FB35
:1033100001988005C10F38688205D20F914212D101
:10332000019942054905C90FD20F91420BD101996C
:10333000C205C905C90FD20F914204D10199C0B28B
:10334000C9B28142D7D00125D5E7002E08D0009818
:10335000702188430009000100906846FFF782F859
:103360000998002806D00020207001252561FDF76E
:1033700091F92570206900280ED0FDF788F9002802
:1033800002D0022814D104E0002020610120207026
:103390000EE0002020610BE06078002808D1A068D2
:1033A000002802D0401EA06002E000202070A07023
:1033B0002079E0600DB0F0BD10B500F0FEFE0449CC
:1033C0000968084300D00120FFF772FC10BD00001F
:1033D000300000207D20FA4900010864704710B4D5
:1033E000136801245B00002800D023431803000B5E
:1033F000106005D0F34A904200D10C7010BC7047A9
:103400000020087010BC7047EF4AF04B52689A4297
:1034100003D010B5FDF778FA10BD7047F8B5E8484D
:1034200001214164EA490166EA494166E648092406
:103430008068E406C01E0F2856D20100794409793D
:1034400049188F44079C726F076F076F726F9C9CBF
:10345000525252000120DA4DC00728664009DA4E68
:103460006866DA4F726840108221BA4201D0FDF7D7
:103470004BFADA48D849006802F090FDD849401E5E
:103480000881D948D74AC262002282630D22D20243
:103490000283802202800122828210230B80D34B80
:1034A000D10399800188114301807D2000012864A7
:1034B0001021CF48FDF728FA1021CE48FDF724FA55
:1034C0001021CD48FDF720FA1021CC48FDF71CFA59
:1034D0001021CB48FDF718FA012000060114A16164
:1034E00072684021BA4248D149E010218803FDF7B3
:1034F0000BFA1021C348FDF707FAC44AC24820213D
:103500001185450589022185AF4EB04F7268402173
:10351000BA4201D0FDF7F8F9726840212846BA4254
:103520002BD12CE01021B54827E01021B348FDF73E
:10353000EBF9B748B54A011491614021FDF7E4F970
:103540000120042180040025A1614021FDF7DCF960
:103550001F2101208007C162AE4A1560C5638563E3
:103560004563682282838022028001228282AA4BE4
:1035700082151A80C1631021A848FDF7C5F9904D46
:103580006A6C686E002A014612D00B0C81B20919D0
:103590000B85296E002A10D00A0C89B209190A85F8
:1035A0004021FDF7B1F94021286EFDF7ADF9F8BDD6
:1035B0000B0C81B209198B61EBE70A0C89B209196E
:1035C0008A61EDE710B480488068C01E0F2870D271
:1035D00001007944097949188F440793987F077F40
:1035E000077F987F9393C5C5C5008D49088A8D4B89
:1035F000C004C21718684000521C01D001221043B9
:103600000003000B186055D06E4A904202D1864AE2
:10361000012010708548008A854B4007C217186842
:103620004000521C01D0012210430003000B18601F
:1036300044D0644A904202D17E4A01201070088A28
:103640007D4B0005C21718684000521C01D00122B2
:1036500010430003000B186034D05A4A904202D144
:10366000764A012010706948008A754CC30B2268A5
:10367000012043405200002B00D002431203120BE2
:10368000226023D04F4B9A4201D16E4A1070098AB2
:103690006D4B4904CA1719684900521C00D00143F8
:1036A0000903090B196015D0464A914229D167498F
:1036B00083E026E05C4A00201070ABE75D4A002002
:1036C0001070BCE75D4A00201070CCE75D4B002213
:1036D0001A70DCE700205D496FE04C48008A514BCE
:1036E000C20B186801214A404000002A00D008435C
:1036F0000003000B186006D0324A904201D15448B2
:10370000017010BC70470020514956E03F4B188AA9
:10371000444CC20B2168012042404900002A00D0DD
:1037200001430903090B216016D0264A914201D1B9
:1037300047490870198A424B0905CA171968490098
:10374000521C00D001430903090B196008D01D4A1F
:103750009142D6D13B4930E03D4A00211170E9E762
:103760000020384929E02948008A2E494007C20F25
:1037700008684000002A01D0012210430003000B1A
:10378000086068D00F49884202D12A490120087098
:103790000920C006008A26494007C20F0868400079
:1037A000002A01D0012210430003000B086056D00C
:1037B00004498842A5D11C490120087010BC7047FB
:1037C00084000020FFFF0F00200600209A02000066
:1037D00000040800000410000024F4000000002091
:1037E000202C0140E7030000002C0140402C014048
:1037F00000080010000C040000080008000400800D
:1038000000080040000404000004200000040048F8
:103810000004004040000040200000400004000878
:1038200000080048D000002095000020000C00484F
:10383000D400002094000020D80000209600002032
:10384000DC00002097000020E0000020990000200C
:1038500098000020FFE79C490020087098E79B49EA
:103860000020087010BC7047F0B599488CB0017CFE
:1038700001700591417C41700491817C8170C27C12
:10388000C2708C460192017D01718E46417D41716D
:10389000C17E8175017FC175417F0176817F41764F
:1038A000C17F81760146C96A002A01D000292BD048
:1038B00000228272864B62461D6A002A01D0002DCA
:1038C00024D00022C2710B92814B059A9C6A002A77
:1038D00001D0002C1CD0002202727D4B049A5B6A3E
:1038E000002A01D0002B15D0002279484272794875
:1038F000774A8068126B06280ED00C280CD0082856
:103900000AD00A2808D00FE00122D2E70122D9E725
:103910000122E1E70122E8E77646002E01D0002AE5
:1039200014D000276A4EB773694E0027B7710B9FFA
:10393000F66B002F0CD0002E04D0654E0127B77116
:103940000027F771624F1426FE6303E00127E9E7C1
:10395000002E03D05E4EF76B7F1EF7635C4F002690
:103960007E73019F002F03D0594F491CF96209E073
:103970007D27FF00B94201D3012700E00027544909
:103980004F73CE62524F6146002902D06D1C3D62DA
:1039900000E03E620499002902D05B1C7B6201E0DA
:1039A0007E627E630599002902D0641CBC6201E03E
:1039B000BE62BE637146002902D0521C3A6300E029
:1039C0003E63FE737D23DB003C6BE8215A009C4282
:1039D00001D3F9733A63FE72FF233C6A91339C4230
:1039E00001D3F9723A623E73FC6A9C4201D3397387
:1039F000FA62796A142909D314217962796B491C16
:103A00007963142902D301217E637972B96A14297A
:103A100009D31421B962B96B491CB963142902D3C3
:103A20000121BE633972072803D0032801D0092879
:103A300008D1386C2849002806D0401E3864FF2081
:103A4000F53088630CB0F0BD8E630CB0F0BD70B47F
:103A50001F480926416EF6060B0C89B28C19016EBF
:103A6000856C0A0C89B28919406C012D16D0022D83
:103A700007D0032D1AD0002820D0238500280AD192
:103A800006E0002801D0A36100E02385002802D1D0
:103A90008A6170BC70470A8570BC7047002803D0EB
:103AA00023850028F7D0F3E7A361FAE7002801D0C7
:103AB000A36100E023850028EDD0E9E7A361DDE7FD
:103AC000034988647047000094000020950000209E
:103AD0008400002020060020002C014081B0052039
:103AE0000090401E0090FCD101B07047B5494A6A71
:103AF00092B24B6A9B1A9BB28342FADB7047B2497F
:103B000081B08A8A9207920F800010438882052232
:103B100010460092401E0090FCD101231B038B61D4
:103B200010460092401E0090FCD10B85104600927A
:103B3000401E0090FCD101B07047A34981B08A8A31
:103B400080009207920F1043012292031043888253
:103B5000052210460092401E0090FCD101231B0359
:103B60008B6110460092401E0090FCD10B851046E0
:103B70000092401E0090FCD101B0704730B5934DCB
:103B800000202882924C206811280EDA082802D1E1
:103B9000C020FFF7B4FF8F482168405CFFF7CDFFDE
:103BA0002068401C20600920288030BDF0B500202E
:103BB000894C88490122235C0B54002B03D0401C04
:103BC000521C092AF7DD2023092811DA0922151AC7
:103BD000002D0DDD0A18521EEC0701D05370521C47
:103BE0006C1004D053709370921C641EFAD1281884
:103BF000112711280EDA01223D1A012D0ADB774E1A
:103C00003418203CE47D0C54002C03D0401C521C82
:103C10009542F5DA11280FDA3A1A002A0CDD081855
:103C2000401ED10701D04370401C511004D0437096
:103C30008370801C491EFAD16549002008608020ED
:103C4000FFF75DFF614909200880F0BDF8B55D4CC4
:103C50006348E06264486349006802F09FF9634981
:103C6000401E088101212180584A6323D362604BA2
:103C7000188191815F490868FF2212029043012256
:103C8000D203104308605C499001086040215B4802
:103C9000FCF73AFE5A48616A89B2626A521A93B2D4
:103CA0008342FADB616A89B2626A521A93B2834232
:103CB000FADB616A89B2626A521A93B28342FADB12
:103CC000616A89B2626A521A92B28242FADB4D4844
:103CD000616A89B2626A521A93B28342FADB616AFC
:103CE00089B2626A521A93B28342FADB616A89B27C
:103CF000626A521A92B28242FADB3820FFF7FFFE64
:103D0000616A642089B2626A521A92B28242FADB14
:103D10000C20FFF7F4FE616A642089B2626A521ACD
:103D200092B28242FADB0120FFF7E9FE3648616A6F
:103D300089B2626A521A92B28242FADB0620FFF717
:103D4000DEFE616A642089B2626A521A92B28242CD
:103D5000FADB4020FFF7D3FE616A642089B2626A11
:103D6000521A92B28242FADB0020174D0527FF213A
:103D70009131264AAB8A125C9B079B0F92001A4333
:103D800001239B031A43AA823A460097521E0092CF
:103D9000FCD101231B03AB613A460097521E0092EF
:103DA000FCD12B853A460097521E0092FCD1626AE4
:103DB00092B2636A9B1A9BB28B42FADB401C2828A2
:103DC000D7D3F8BD00400140000400480044014042
:103DD000EC0000205206002040060020490600208A
:103DE000FFFF000020A1070000000020204001404C
:103DF0002044014014E400E000E100E00004FC7312
:103E00001879000048EE0000204E0000C666000849
:103E100010B4FD4C6063A163E263FC48036010BC16
:103E2000704710B58021FA48FCF76EFD8021F948F3
:103E3000FCF76AFD8021F848FCF766FD8021F74811
:103E4000FCF762FDF049F648C862F04900200860BE
:103E5000ED49C86388634863F24808838883EA4869
:103E600080210180E84A01209082F04AEE481080CB
:103E7000E548008801221043E34A108010220920FF
:103E8000C006028520220285402202850185E8487D
:103E90000121018502210185E64801220285018573
:103EA000032040210005FCF72FFD03204021800561
:103EB000FCF72AFDC12040218002FCF725FD61208E
:103EC0004021C002FCF720FD10BDF3B581B0019880
:103ED00000287DD0029800287AD0D74B10219A7CF8
:103EE0002020002A06D0012A08D0022A0BD0032A5B
:103EF00011D10CE00922D206118502E00922D20676
:103F00009161108507E00922D206118502E009229D
:103F1000D206916190619A7D40208021002A06D0CE
:103F2000012A08D0022A0BD0032A11D10CE0092261
:103F3000D206108502E00922D2069061118507E0C1
:103F40000922D206108502E00922D2069061916111
:103F50009C7EB74802210122002C06D0012C06D0FD
:103F6000022C07D0032C09D106E0028500E0826113
:103F7000018503E0028500E0826181619C7FAD489C
:103F8000002C06D0012C06D0022C07D0032C09D11E
:103F900006E0028500E08261018503E0028500E021
:103FA000826181610024A54861020F18A448A54AD6
:103FB000C178A0004E00BB5F1558ED1AA24B1B58EC
:103FC000ED181550BB53A14BAA11A601F51800E03E
:103FD0008AE09B4F491C2A62F9709D498A4200DDA4
:103FE0000A462A62A969AA61E96193494018008AD0
:103FF0000A21484398516969286881420DD0686157
:104000002888022102B29348FCF775F84B21C900B9
:104010006860884200DC01466960686A002801D156
:1040200001206862A869002806D1FF20696A5F3014
:10403000814201DB00206862E86B282805DA696AA2
:10404000012902DD401CE86317E00026EE63E96900
:10405000A8692A68411A101A0818142101F0B4FF3F
:10406000E860696A0818686201D56E6205E0AF21F0
:104070008900884200DD08466862641CE4B2042CB2
:1040800091D36F4BD86A002809D0C82098600020CF
:104090001871FF2101310920C00601854EE09868A2
:1040A000002802D0401E9860F3E7002018716A488B
:1040B00001780029EDD06948CA0705D0026C40306C
:1040C000002A01D001221A714908E2D01A79046C41
:1040D000002C00D0012280300468002C00D0012286
:1040E000491EF4D11A71D4E7554FC820B86000209A
:1040F0004549034648638863C8634448036056489B
:1041000000230578002D12D9504C5E1E0021980125
:1041100002195162D163D162104620305661116399
:1041200001765B1C4176DBB29162AB42EFD300209B
:104130003871FF2101310920C006816143483249AD
:10414000436A426E4648446A406E4B638A63CC635E
:104150002E4908600198002812D00298002805D046
:1041600037480079002809D0012004E03D48007854
:10417000002800D00320FFF7A3FC04E00220FAE7A8
:104180000020FFF79DFC2E488178002911D081691D
:10419000491C8161142906D3C16900290BD0002173
:1041A000C16100218161C069002800D00220FFF7B1
:1041B00087FC03B0F0BD0121F2E72148C06A7047D7
:1041C0001F48C06A7047F1B5274884B00278244977
:1041D0000291002A7ED00025057024482449254BF1
:1041E000254A264C04260568002D02D10D68002DB5
:1041F00050D0114F1D783F6ABD4241D10025157046
:104200000D6005601D704CE000040040400400405B
:1042100000084000000880000008000100080002BB
:10422000ED02000068680000111100002004004049
:104230000004004800080048C8020020640600206E
:10424000F0000020B41400200419002028010020F0
:10425000E7030000F2660008940200201801002025
:10426000A80100206A000020140000205401002052
:104270005801002060010020610100204C01002055
:1042800015787F00BD4202D901250D6009E06D1C43
:10429000157006E0AF252768AD00AF4201D10125BA
:1042A000056040304031403240334034761E9AD170
:1042B000F949CB6A002B0AD1C86E002807D10298B1
:1042C000C06A002803D10298C06E002827D00122BE
:1042D000F24800E027E00270846A002C02D000223D
:1042E000826200E08262EE4AD46AA34210D0C96EB4
:1042F000D26E91420CD00299CA6AEA49CB6A9A42BC
:1043000006D0029AC96ED26E8A4201D00021417055
:10431000FF220132E249E04801F07CFE03E0DF4980
:10432000002008708862DC4C0A21206E01F04CFEEF
:1043300006460A21206A01F047FE02460498DA4D3B
:10434000807D8007800F295C049800960191807C15
:10435000D6A18007800F2B5CD84802F057F802984E
:104360000A21006E01F030FE064602980A21006A1A
:1043700001F02AFE04990246897FD5488907890FF2
:10438000695C019104990096897E8907890F6B5CAD
:10439000CBA102F03BF8E26AC8492020002A05D0F0
:1043A000BE4A926A002A01D088704870E26E002AE4
:1043B00005D0BA4A926A002A01D0887148710299E0
:1043C000CA6AC349002A05D0B44A926A002A01D0B9
:1043D00088704870029AD26E002A05D0AF4A926A5D
:1043E000002A01D08871487105B0F0BDF7B584B0DE
:1043F0000E460546042901DAB54800E0AF480290B0
:10440000B44874100178B44800780143A34801D03F
:1044100050214162082E0BDA016A491C01626429AD
:1044200006DB00210162816A00293ED00021816201
:104430009A48416A002904D0491E416200218162E4
:104440000162A87D984F8007800F385CA98A00918F
:104450000190A87C2A8A8007800F3B5C93A1974833
:1044600001F0D4FFA87FA98B8007800F385C0091F2
:104470000190A87E2A8B8007800F3B5C90A1944816
:1044800001F0C4FF8549886A002819D08B48032EA3
:1044900001DD8F48361F2022002E08D0012E09D0C2
:1044A000022E09D0032E0BD109E00121BFE7827053
:1044B000427005E0C27003E08271427100E0C27197
:1044C000069800282FD0FF209130844A604382183C
:1044D0007248834BC66894467700D15BA0001A5897
:1044E000029D521A7F49095852181A5010466246C6
:1044F000D153C82101F052FD0346C72E03D26748AD
:10450000761CC66002E065490020C8607648834298
:104510000BDC641CE2B275A1284601F077FF6879D4
:10452000A8712E20687107B0F0BD6F4BF1E7F8B5A8
:104530000E4607466748684900780978574C084393
:1045400001D050206062206A0025401C206264284F
:1045500005DB2562A06A002843D00020A062606AC3
:10456000002803D0A562401E2562606230680028E2
:1045700003DB6148007800280BD0554920200870E3
:1045800048708D7038465DA101F06BFF3560256283
:10459000656251480078002808D0206A00283BDB7B
:1045A0003068395C392901D0491C395449480078B0
:1045B000002808D0206A002830DB3168785C302879
:1045C00001D0401E78544F480078002811D0206A4E
:1045D00000280EDB3068401C3060042803DB01201B
:1045E000F8BD0120BAE76321C94321623021395463
:1045F000A5623946444801F01AFD216A4248002963
:1046000002DA32682D211154A16A002902D03268E1
:10461000202111540020F8BD2562C1E72562CCE7B6
:10462000F0B51E4C83B0E26A3848009200783849F1
:10463000844620460669264F701E097800250A2AFE
:1046400029D00ADC6AD213007B441B79DB189F4413
:1046500017ABB6CEE2FD6565FCFB0F2A70D008DC17
:104660000B2A6ED00C2A6DD00D2A6CD00E2A55D193
:10467000E0E1142A68D0632A67D0642A4ED1F8E1B9
:104680002448254A057015706246A570002A46D058
:104690006320E0626CE091E128010020F00000203E
:1046A000C414002044150020EE66000801252E32B7
:1046B00075256302252E3275256300004006002013
:1046C00003252E3275256304252E327525630000DF
:1046D000490600208C0000208D000020640E002080
:1046E000A414002004190020E70300002563202003
:1046F000252E3375202000008A000020302D2D2D1E
:10470000000000008B0000204B06002089000020E4
:1047100069000020640000206C0000207AE0DD4A7F
:10472000002903D0DC48FFF74EFD21E0DB49097882
:1047300000290BD06421E16201210170117017E0A2
:104740000DE14EE158E170E18BE18EE1657025707D
:10475000D348A5628068032818D009281CD00722F6
:10476000D0A1D24801F044FCD1A1D44801F04EFEC2
:10477000D348D449007809780843D34909780843D5
:1047800048D0C448007800280CD07BE10722CFA194
:10479000C64801F02DFCE7E70922CEA1C34801F08D
:1047A00027FCE1E701205AE1C048CDA101F064FEF9
:1047B000CD4901200870801E206102204FE1CB48C6
:1047C0000078002806D0CA480078002802D00420CB
:1047D0002561E062C749C848FFF7A9FE002801D05B
:1047E00003203CE1C548007800287DD14AE104223D
:1047F000C349C14801F024FC002808D01920400119
:104800002061AA48BFA101F044FE3D70A7E004204A
:104810002561E06236E1F007A948007850D0002811
:104820001FD00120606170109B49820051180191D6
:104830008F7C032F15D28101B44809180091486A72
:1048400001F0EEFCB24A02E09FE08AE068E0B14B82
:1048500001F06EFC01F0F8FC00997F1C48620198A1
:1048600087749848007800281BD001206061701080
:1048700089498200511801918F7C002F11D081014C
:10488000A24809180091486A01F0CAFCA04AA14B4D
:1048900001F04EFC01F0D8FC00997F1E486201989F
:1048A00087748948007800282CD0761C2661072E52
:1048B00025DDFBF7EFFEE06A2561401CE06221E0A8
:1048C00000280AD001206061701081007248091828
:1048D000088A3F2801D2401C08827A4800780028C4
:1048E000DFD00120606100E015E0701081006A48AF
:1048F0000918088A0028D4D0401E0882D1E7F007A2
:1049000000D16561644862692169FFF76FFD7B48EA
:104910000078002851D074480570A570E562B1E0B8
:10492000FBF7B5FE002802D0022846D10AE0092292
:1049300079A15E4801F05CFBFF203D709130206161
:104940000B208CE059486FA101F0A3FD072275A14F
:104950005A4801F04DFB19203D70400120611420A0
:104960007DE0002E09D0206170A1504801F04EFD7D
:1049700071A1524801F04AFD84E00020C04320614B
:104980000920E062FBF786FE7CE0FBF780FE002852
:1049900002D0022876D1D5E709225FA1434801F071
:1049A00027FBFF203D7091302061A07800286FD157
:1049B000E06A401CE062FEF70DFD63E0FBF767FE76
:1049C000002802D002285DD1BCE7092252A1374855
:1049D00001F00EFBFF203D7091302061E06A401C29
:1049E0003DE0002E3FD1092254A1304801F000FBE8
:1049F000701E2061009831E03E493F48FFF797FD67
:104A000000280AD050492448096B4162E06A401CE2
:104A1000E062FF209130206134E0384800780028BF
:104A200030D031480570A57032E0FBF733FEE06A04
:104A3000401C14E02C480570A570FBF728FE0028E8
:104A400002D002281ED17DE7092233A1174801F0C8
:104A5000CFFAFF203D7091302061E06A401CE06297
:104A600010E0002E14D020610CE0604600280FD02A
:104A700005E036480078002808D1002906D006480D
:104A8000FFF7A1FBFFF792F803B0F0BD01480570F6
:104A9000E562F7E769000020C80200208E000020D0
:104AA000200600202020434241A4000040060020B0
:104AB00020762E302E302E310000000049060020D6
:104AC0008D0000208C0000208B0000202020A148B9
:104AD00043A7000020A9A420424FA74300000000E4
:104AE00020204B4FE00000006C00002085000020DB
:104AF0008400002000010020200100208F00002001
:104B0000EC020020204FACA5A04B41002801002062
:104B1000333333333333F33FA461BEB86361BD6FC6
:104B200000000000A441A8A543A50000A461BEB8F0
:104B300063C42E2E0000000020000000484F422ECB
:104B4000204B4FE000000000F0000020900000200B
:104B5000FA4908637047F0B5F94901240A78F94920
:104B6000E4070B7882B0D9079C4609195B1E0091B7
:104B700099008E46F149002A7ED0896A0191002968
:104B80005ED0EE49896800295FD0EC49C9680029E8
:104B90005ED0002B1FDD009C011FEB4A002C07D0CC
:104BA0004D685468A54200DC2C46091D5460121D56
:104BB0004C685E100FD08D6857680831A74200DA44
:104BC0003C46546097684C68AF4200DA3D469560B9
:104BD0000832761EEFD16146012907D47146DB4ABF
:104BE00040585458A04200DD20465050D34D7D21FE
:104BF000E868C900401CE860884221DB002B13DD17
:104C0000009AD148D249002A03D04268001D4A6068
:104C1000091D44685A1007D083684C60C4688B60D3
:104C200008300831521EF7D16046012804D4C74924
:104C300070460A58C7490A500020E8600120E8621F
:104C4000BE480199816002B0F0BDBC4A0021D1602C
:104C5000002B15DD009C011FBB4A002C03D04C68C3
:104C6000091D5460121D4D685C1009D08E68556096
:104C7000CD680831966000E00AE00832641EF5D184
:104C800061460129B2D471464258B0484250ADE75E
:104C90000122CA62002B1ADD009D021FAC4CAE49F6
:104CA000002D05D055688D611831121D6560241DD9
:104CB00055685B100BD096688D616560D5680E6392
:104CC000A660303108325B1E0834002BF3D16146F8
:104CD000491EB8D418235943A04B72468058C918AE
:104CE000C8609C49885002B0F0BDF3B59D499C480E
:104CF0000F78007801253843AD079149002400283A
:104D0000994E0A788D4881B008D0416A7D23491CAC
:104D10001B014162994203DD436205E0446203E006
:104D20000846FF38913801D0002F3FD0002A3FD1EC
:104D30008C48824F04703C62BC61FC613C618B48D2
:104D4000347004708A4804708A4804708A48047079
:104D50000020FEF7B5FE89488068052801D00B28A1
:104D60001ED1387800280FD06C62288801210843B2
:104D70002880012082218004FBF7C6FD3878401E80
:104D8000C0B23870E8630BE02888400840002880F3
:104D900040210803FBF7B8FD04210920C006018566
:104DA0006749012008707649087001E0002A74D034
:104DB0006248006900281FD0604D012847D0FBF7EA
:104DC00066FC01286AD05E485E4904700A780020BB
:104DD000002A09DD614B18214143C9184C610C615F
:104DE000401C4C609042F6DB6448AC61806805284A
:104DF0007ED00B287CD0CFE050488169491C81616E
:104E0000C8294BDD8461C06A002847D04D48002185
:104E10000378002B15DD49484E4E504F056B182086
:104E200048438A00C019B2580260002D0DD0521FAD
:104E30000260002A00DC0022491C446002609942A2
:104E4000EDDB3E480121C46276E0D21EF0E73B482C
:104E5000C06A00283FD03B4800210578002D38DD8E
:104E600036484269066B83699446084618225043C7
:104E70003A4A8F008018103AD2590768002E0ED097
:104E800097424CDD4268521C4260032A1ADB3A1EEC
:104E900000DC00224460026011E0A0E07CE0974268
:104EA0003DDD4268521C4260032A0BDB3B46BA10D0
:104EB00002D1002B00DD0122BA1A446002600120F9
:104EC00084460023491CA942CFDB1C48614683610C
:104ED00041611A48C46219488169491C81617D2079
:104EE000C000814258DD174900200E78002E00E0F6
:104EF0004CE01DDD214A234D2349936818270246C3
:104F00007A43164FBA58FF272137BA4203DC0A2BDF
:104F100007D0082B05D04700CA537A1804E0446034
:104F2000D0E742008C525218401C1581B042E5DB9C
:104F3000FBF7B0FB0148022101612DE02C020020AB
:104F40006C00002094020020C0150020C415002031
:104F5000D0150020D4150020D8150020E41500201D
:104F6000880000206B000020F0000020F1000020ED
:104F70002A0200202902002028020020200600200A
:104F80006D000020FE0F0000C80200201F202870C6
:104F900004210920C00681618D48C169491CC16195
:104FA000142915DB016A00290DD00021C4610162BA
:104FB000002912D04169002907D0491E4161012012
:104FC000FEF77EFD04E00121F0E70220FEF778FD08
:104FD00080480078002877D1ECE00020F0E70198C5
:104FE000002872D0029800286FD0794F7868002886
:104FF00001D0401E786078488068052801D00B28D1
:1050000024D1387800280FD06C6228880121084309
:105010002880012082218004FBF776FC3878401E2E
:10502000C0B23870E8630BE0288840084000288050
:1050300040210803FBF768FC04210920C006018514
:1050400066480078002800D0012030706048C06AAF
:1050500000287DD000216148614E01700D463178F5
:1050600000295DDD5F4F604C182060496843AA004D
:1050700000198A5869000369795A002B04D08A42C2
:1050800018DA0021416021E08A4203DA5049496878
:10509000002902D00021416023E04168FF22491C21
:1050A0002D32416091421CDB0121016100218160B0
:1050B000416013E04168491C4160022906DB002180
:1050C0004160416101610CE07AE02DE08168491C9A
:1050D00081603A6A914201D3012141613F49012037
:1050E000087043482169026991420ED0A16A826A20
:1050F00091420AD0216C026C914206D0A16D806D64
:10510000814202D03B490020087032781820424387
:105110003749354800F07EFF30786D1C8542A3DBAF
:105120002B490020C86229E07D20294BC00058602F
:105130003048347004703048294904702F48047096
:105140002F4804700A780020002A0BDD264D00E06D
:105150001AE01821414349194C610C61401C4C6014
:105160009042F4DB1C488068052801D00B2805D14B
:105170001F20187004210920C006816101980028B1
:1051800010D00298002805D014480078002807D0D5
:10519000012015E71B4800780028FAD003200FE70C
:1051A00002200DE70020FEF78BFC0A48007800285B
:1051B00006D107E00198002804D00298002801D009
:1051C000012100E000210248816203B0F0BD00002F
:1051D0002C0200206C00002020060020F40000209B
:1051E00094020020C8020020E4150020D4150020FD
:1051F00044160020F10000202A020020290200208D
:10520000280200206A000020824840687047F8B5F4
:10521000814DE869000701D508202862E869012668
:1052200081067E487B4C002913DA0321615606294A
:1052300081880ADA03237A4AE356D154E1780529B2
:1052400000D1A670E178491CE170E969754A114006
:10525000E961E969090632D52178002700291BD0C8
:1052600001227149A256895601816078401C40B2E2
:105270006070062800D12770606800281BD00022CB
:105280006A492846FDF79BF8012269492846FDF73F
:1052900096F86760A6600EE0A06800280BD0002298
:1052A00063492846FDF78BF8012260492846FDF73F
:1052B00086F8A7606660E86980218843E861F8BDE8
:1052C000F8B5054658485526F6430446067045701D
:1052D0008170C27003710025457141790278891887
:1052E000417141794278891841714179A2788918D0
:1052F00061716179E278891861716179227989181F
:1053000061716179494261710C3CA570E57065700D
:10531000012626702178404F00291AD0A157405607
:105320003E4908816078401C40B26070062800D178
:105330002570606800280BD000223C493846FDF7F4
:105340003EF801223A493846FDF739F8A660656013
:10535000F8BDA0680028FBD0002235493846FDF78B
:105360002EF8012231493846FDF729F86660A5601C
:10537000F8BD70B42A4B1C785D782C199D782C19D7
:10538000DD782C191D792C19644265B2214CA67860
:10539000002E0FD00026A670E67005241C57AC42E4
:1053A00008D15C780470D87808701879107070BCD7
:1053B0000120704770BC0020704710B51D4986B0B1
:1053C0001420087001201C494006FBF79DFA0120BB
:1053D00091218006FBF798FA4B20C0010021009034
:1053E0000C200D4C019102910391059104906946A6
:1053F0002046FCF71DFE01212046FCF784FE0F48E5
:1054000001680902090A016001200D49C00608600F
:1054100006B010BD60020020003801402038014075
:1054200072020020FAFEFAFF6C020020050105005E
:1054300007010700940200209103000018E400E037
:1054400000E100E0F7B584B00025684605710572FB
:10545000834C05702078A17816460843617808438C
:1054600005D00120FEF72CFB002E12D11CE0002EEF
:1054700013D07C488068112804D06069002805D0CA
:10548000022004E00220FEF71BFB02E00320FEF7EF
:1054900017FB207900280AD106E07348007800281D
:1054A00000D00320FEF70CFBE07830430CD16D48B0
:1054B0008068112808D06069002803D0A570401EBC
:1054C000606101E00120A07002AA01A96846FFF70F
:1054D00050FF664F00282AD07D20C00060616946D9
:1054E0000020085600281FD06149097888421BDC3B
:1054F000401E40B26A461070042151565D4A4B1C52
:1055000003D0125C002A08D009E0012111545A4A44
:1055100011545A490D543D5406E0574A1554395414
:105520006946564A097A11540220FEF7C9FA4D48D5
:1055300014210068C8287DD301220920049BD203CE
:10554000C006002B06D0484B1B78002B79D0028573
:1055500001207CE0444B65701B78002B09D002854C
:105560000598002820D0A06800280BD0401EA0601D
:1055700012E082617D20C00060612570A570E1604D
:1055800007B0F0BD207922781043A278104301D1F2
:1055900002202071012020702020394A002E08D0DE
:1055A000E160906107B0F0BD002020712070C8203C
:1055B000DDE710852B4880681128F3D0E0680028CB
:1055C00003D0401EE06007B0F0BDE1602078002805
:1055D0001BD120692B4D294E29180B7D325C93423B
:1055E00003D12A5C3B5C9A420FD01423CB562A5637
:1055F0002221401CC94340B2FFF762FE20692918EE
:105600000A7D3254295C395408E020691B493B5615
:105610000A56401C332140B2FFF752FE206914495C
:10562000401C20610978884201D300202061207944
:10563000002801E007E004E0C5D0401E207107B05B
:10564000F0BD826184E70498002881D0002060705A
:105650007D20C00060612570A570E16007B0F0BDDD
:105660007C020020200600206A000020A4160020F2
:1056700094020020E0160020CC160020B81600206E
:1056800000040048C802002001460122080C00283E
:1056900001D110320904080E002801D10832090294
:1056A000080F002801D1121D0901880F002801D11F
:1056B000921C8900C80F121A2020801A704770B5FA
:1056C0000546042D01DA002070BD2846FFF7DCFFF7
:1056D0000446601E1E214143E01E2A4602419007F7
:1056E000000FFE4A10580E18FD48864200DD06469F
:1056F0003046E9E702460023002106E0F948007839
:1057000048434000105AC318491C2029F6D35808B2
:10571000704702460023002107E0F2480078484322
:105720004000105A4043C318491C2029F5D398085B
:10573000704770B504462046FFF7DCFF054620465B
:10574000FFF7E7FF0646720128466843111AC8179B
:10575000800D4018801270BDF0B587B00420FCF7B2
:1057600030F9002804D00420FCF737F9DE4D07E0BB
:105770000220FCF732F9DB4800788001DA4945184D
:10578000DA488068C01E030000F094FE0AE7515218
:1057900006E69BE89C53075100BFA81CFFF7AAFF31
:1057A0000011D349081A02902846FFF7A3FF001101
:1057B000CF49081A0390CF480078002803D002A8E8
:1057C000FFF7C9F933E0002423E0A002CA494018DA
:1057D000CA4909884900405AA100C94A5158081AC3
:1057E000A10002AA51584018A100C54A5050A0007B
:1057F00002A9085AA102C04A8918C04A1288520058
:105800008852A000BE490858400AA100BD4A505025
:10581000641CBD4800788442D7DBBA48FFF79BF987
:10582000B6480088401CC005C00DB449088035E169
:1058300000BF2846FFF75EFF00110290A81CFFF78B
:1058400059FF00110390AB480078002803D002A84C
:10585000FFF781F934E0002424E0A002A6494018B3
:10586000A64909884900405AA100A54A5158081A7A
:10587000A10002AA51584018A100A14A5050A0000E
:1058800002A9085A81B2A0029B4A80189B4A12883A
:1058900052008152A0009A490858400AA100994A32
:1058A0005050641C984800788442D6DB9548FFF736
:1058B00052F992480088401CC005C00D8F490880ED
:1058C000ECE000BFA81DFFF734FF02902846FFF769
:1058D00030FF0390281DFFF72CFF0490A81CFFF752
:1058E00028FF0590002428E0A10002AA5058FFF7E5
:1058F000E6FE86490860A0027F4940187F49098872
:105900004900405AA1007E4A5158081A7F49096847
:105910004018A10050507D48008881B2A002764A0C
:105920008018764A128852008152A00074490858A3
:10593000400AA100734A5050641C734800788442A6
:10594000D2DB7048FFF707F96C480088401CC0059F
:10595000C00D6A490880A1E000BF00BF002490E0AC
:1059600061004819FFF7E5FEA10002AA5050A1000E
:105970005058FFF7A4FE65490860A0025E49401830
:105980005E4909884900405AA1005D4A5158081AE9
:105990005E4909684018A10050505C480088A10287
:1059A000554A8918554A128852008852A000544915
:1059B0000858C00802B202215548FAF79CFBA10022
:1059C000504A5050A00011460858002802DA002022
:1059D000A1005050A1004F4808188078002806D038
:1059E000012816D0022826D0032848D135E0A1008E
:1059F000444A505800F014FC0646474A474B00F012
:105A00002FFB0191009000F01FFCA1003D4A505077
:105A100035E0A1003B4A505800F002FC0646404ADF
:105A2000404B00F01DFB0191009000F00DFCA10027
:105A3000344A505023E0A100324A505800F0F0FBA5
:105A40000646374A374B00F00BFB0191009000F0FF
:105A5000FBFBA1002B4A505011E0A100294A5058ED
:105A600000F0DEFB06462E4A2E4B00F0F9FA0191BB
:105A7000009000F0E9FBA100224A505000BF00BF97
:105A8000641C21480078844200DA69E71B480078EA
:105A9000401C4007400F1949088000BF00BF07B0F5
:105AA000F0BD00B591B011488068C01E030000F041
:105AB00001FD0A6B7C06426A566C5707437C00BFA7
:105AC000C0218802FAF720FF072203211648FBF7BE
:105AD00051FE0220034908700B4927E06467000863
