:020000040800F2
:10000000F88600205D020008D53B0008EF340008A8
:10001000690200086B0200086D0200080000000081
:100020000000000000000000000000009D0100082A
:100030007102000800000000F9010008B13E00084C
:1000400077020008770200087702000877020008AC
:10005000770200087702000877020008770200089C
:10006000770200087702000877020008770200088C
:10007000770200087702000877020008770200087C
:10008000770200087702000877020008770200086C
:10009000770200087702000877020008770200085C
:1000A000853F000877020008770200087702000801
:1000B000A13F0008770200087702000877020008D5
:1000C000770200087702000877020008770200082C
:1000D000770200087702000877020008770200081C
:1000E000770200087702000877020008770200080C
:1000F00077020008770200087702000877020008FC
:1001000077020008770200087702000877020008EB
:1001100077020008770200087702000877020008DB
:100120003509000877020008770200087702000806
:100130007702000877020008770200081909000812
:10014000F908000877020008770200087702000823
:10015000770200087702000877020008770200089B
:10016000770200087702000877020008770200088B
:1001700077020008770200087702000800000000FC
:100180007702000877020008DFF80CD000F02CFBA3
:1001900000480047497D0008F88600202C4B19686C
:1001A0000868B0E8F04F80F30988BFF36F8F4FF015
:1001B000000080F3118870470000000008480068C4
:1001C000006880F308884FF0000080F3148862B65E
:1001D00061B6BFF34F8FBFF36F8F00DF00BF00BF6B
:1001E00008ED00E0DFF80C00016841F470010160E7
:1001F000704700BF88ED00E0EFF30980BFF36F8F19
:10020000134B1A681EF0100F08BF20ED108A20E96A
:10021000F04F106009B44FF0500080F31188BFF325
:100220004F8FBFF36F8F08F089FF4FF0000080F30E
:10023000118809BC19680868B0E8F04F1EF0100F6B
:1002400008BFB0EC108A80F30988BFF36F8F704746
:1002500010000020EFF3058070470000064880473B
:1002600006480047FEE7FEE7FEE7FEE7FEE7FEE79B
:10027000FEE7FEE7FEE7FEE7753F0008890100089C
:100280002DE9F05F0546002092469B4688460646CB
:10029000814640241BE0284641464746224600F05E
:1002A00023FA53465A46C01A914110D311461846B4
:1002B000224600F00AFA2D1A67EB01084F46224643
:1002C0000120002100F001FA17EB00094E41201E29
:1002D000A4F10104DFDC484631462A464346BDE826
:1002E000F09F40EA01039B0703D009E008C9121FF1
:1002F00008C0042AFAD203E011F8013B00F8013BE0
:10030000521EF9D2704730B504460020034600E083
:100310005B1C934203D2E05CCD5C401BF8D030BD47
:100320002DE9FE4F804681EA0300C00F0C46009085
:1003300021F0004123F00045B8EB0200A94105D2AD
:100340004046214690461C460B46024623F000409C
:10035000104347D0270DC7F30A00C3F30A51029098
:10036000401A019040286BDAC3F3130040F4801B5D
:100370000098924620B10023D2EB030A63EB0B0BEB
:1003800001985946C0F14002504600F09EF90646D9
:100390000D4650465946019A00F0B6F910EB080098
:1003A0006141002487EA115284EAE7731A4340D07E
:1003B000009A62B3019A012A4FEA075215DC001B2A
:1003C00061EB02014FF0004202EA0752CDE9004220
:1003D000001C41F5801132462B4600F0B6F903B0FF
:1003E000BDE8F08F40462146F9E7001B61EB0201B2
:1003F000001C41F5801300185B412018A2F500177E
:1004000047EB030140EAD570B6196D4111E06D0864
:100410004FEA360645EAC0754FEA0752001B61EB0A
:100420000201001C41F5801149084FEA3000001913
:10043000514132462B4603B0BDE8F04F00F076B98B
:100440000098012240000023D0EB020263EBE0732E
:10045000009821464FEAE074B8EB000061EB04011C
:10046000E9E783F000435BE781F0004158E72DE9BD
:10047000FE4F81EA030404F0004421F0004100949F
:100480004FF0000B23F0004350EA01045ED052EA23
:1004900003045BD0C3F30A54C1F30A552C44A4F2FD
:1004A000F3340194A0FB0254C1F3130141F4801111
:1004B000C3F3130343F4801301FB024400FB034E18
:1004C000840A970A44EA815447EA8357A4FB0768E1
:1004D00002958D0A05FB07854FEA932C04FB0C540B
:1004E0002705029D4FEA065847EA1637B5EB08057F
:1004F0006EEB070C870E920E47EA811742EA8312D1
:10050000A7FB0201B6EB0B0164EB00042B0D43EAE1
:100510000C335E1844EB1C50DA465146E7FB0201EF
:10052000C5F313044FEA0B3343EA14534FEA043282
:10053000019C43EA0603A4F10C040294009CCDE95B
:1005400000B400F002F903B0BDE8F08F00200146CE
:10055000F9E72DE9F04D81EA030404F0004B21F0A6
:10056000004514464FF0000A23F0004150EA05020E
:1005700020D054EA01021DD0C5F30A570246C5F344
:100580001303C1F31300C1F30A5640F4801543F47A
:100590008013A7EB0608101BD64608F2FD3873EB54
:1005A000050002D308F1010801E092185B41B8F19F
:1005B000000F03DA00200146BDE8F08D00204FF463
:1005C0008011064684460EE0171B73EB050705D322
:1005D000121B63EB050306434CEA010C49084FEA82
:1005E000300092185B4150EA0107EDD152EA030056
:1005F00012D082EA040083EA0501084305D0101BEB
:10060000AB4106D20122002306E000224FF0004356
:1006100002E06FF0010253101AEB06004CEB085198
:1006200010EB0A0041EB0B01BDE8F04D00F07EB885
:100630000EB5C10F80EAE0700844CA07002140F2FD
:1006400033438DE80E000A460B4600F07EF803B0F7
:1006500000BD0EB540F2334102910021CDE90011F9
:100660000A460B4600F071F803B000BDC1F30A5210
:1006700010B5C1F3130140F2FF3341F480119A42E7
:1006800001DA002010BD40F233439A42A2F2334215
:1006900003DC524200F028F810BD904010BD30B588
:1006A0000B46014600202022012409E021FA02F530
:1006B0009D4205D303FA02F5491B04FA02F52844CA
:1006C000151EA2F10102F1DC30BD202A04DB203A24
:1006D00000FA02F1002070479140C2F1200320FA95
:1006E00003F3194390407047202A04DB203A21FA93
:1006F00002F00021704721FA02F3D040C2F120023B
:100700009140084319467047202A06DBCB17203A50
:1007100041FA02F043EAE07306E041FA02F3D04006
:10072000C2F12002914008431946704710B5141ECB
:1007300073F1000408DA401C41F1000192185B419A
:100740001A4301D120F0010010BD2DE9F04D924671
:100750009B4611B1B1FA81F202E0B0FA80F2203288
:100760009046FFF7B2FF04460F4640EA0A0041EA0E
:100770000B0153465A46084313D0114653EA010071
:1007800019D0C8F140025046FFF7AEFF05460E46AD
:10079000504659464246FFF798FF084305D00120CE
:1007A00004E020463946BDE8F08D0020054346EAC6
:1007B000E0762C4337430A986305E40AA0EB08006F
:1007C0000022FD0A44EA47540A3002D500200146BF
:1007D000E9E7010510196941DDE90845001969419A
:1007E000BDE8F04DA2E70000064C074D06E0E068CA
:1007F00040F0010394E8070098471034AC42F6D368
:10080000FFF7C6FC30AF000850AF000870B58C1879
:1008100010F8015B15F0070301D110F8013B2A1114
:1008200006D110F8012B03E010F8016B01F8016B01
:100830005B1EF9D12B0705D40023521E0DD401F8FD
:10084000013BFAE710F8013BCB1A921C03E013F8C6
:10085000015B01F8015B521EF9D5A142D8D30020FB
:1008600070BD10B50246806B016C11F0500F016C29
:1008700005D011F0100F28D000F07FFB10BD41F41F
:100880000071016401688A6812F0405F04BF027E53
:10089000002A17D1CA6A12F4700F1CBF8A6812F4BA
:1008A000806F0FD14A6822F020024A60016C21F467
:1008B00080710164016C11F4805F03D1016C41F01F
:1008C0000101016400F052FB10BD806BC16CBDE8FA
:1008D00010401046084710B5806B40210164416C00
:1008E00041F00401416400F048FB10BD10B5806B7D
:1008F00000F042FB10BD000010B50022044905487D
:1009000007F0DAFFBDE81040024800F0D2BD000059
:10091000950000205841002010B50449044808F013
:10092000A3F9BDE81040024800F0C3BD9D000020BF
:1009300058410020014801F00DB80000F8400020A7
:1009400072B6FEE72DE9F0412E4E05460020F0611B
:1009500001F034FC2C4C0746206810F4803F0FD087
:10096000B5F1FF3F08D025B101F028FCC01BA8421B
:1009700002D90320BDE8F081206810F4803FEFD158
:10098000206810F0010F1CBF01202060206810F0CB
:10099000F20008BFBDE8F081206810F0100F05D00C
:1009A000F06940F01000F06110202060206810F025
:1009B000200F05D0F06940F00800F0612020206091
:1009C000206810F0400F05D0F06940F00400F0619D
:1009D00040202060206810F0800F05D0F06940F0C2
:1009E0000200F06180202060206810F0020F05D026
:1009F000F06940F02000F061022020600120BDE895
:100A0000F08100004C0200200C3C024070B506460C
:100A100014480D46002406704170402022460021F3
:100A200008F0BAFB45F0B8002246002108F0B4FBFC
:100A3000C0202246002108F0AFFB601CC4B2022C8B
:100A4000EBD306F03F00B20940F04000144600210D
:100A500008F0A2FB45F0B8002246BDE87040002136
:100A600008F09ABBBD0000202DE9F0414348FF216A
:100A7000434C0160012141600321C16001462046D1
:100A800001F092FA00BF122100BF491EFCD10022E2
:100A90004FF40051204601F08CFB00224FF480619E
:100AA000204601F086FB00BF00BF072100BF491EA2
:100AB000FCD101229102204601F07BFB00BF00BF68
:100AC0000C2000BF401EFCD10022C020114608F0BF
:100AD00063FBC0200122002108F05EFB00223F20C2
:100AE000114608F059FB3F200122002108F054FB79
:100AF00000210846FFF78AFF224D002600272F70AD
:100B00006E703C4640202246002108F045FB46F02E
:100B1000B8002246002108F03FFBC02022460021F9
:100B200008F03AFB601CC4B2022CEBD3BA0947F0C0
:100B300040001446002108F02FFB46F0B800224682
:100B4000002108F029FB002429780020802906D202
:100B50008A09012108F020FB2878401C2870601CBD
:100B6000C4B2802CF0D3701CC6B2082EC6D3BDE828
:100B7000F04100210846FFF749BF0000F44500207E
:100B8000000C0240BD0000202DE9F0470646007829
:100B900000281ABFDFF88CA0234DBDE8F08700BF06
:100BA00016F8017B4FF0050807EB87002E2F21D0A8
:100BB0001CDC202F18BF2C2F1CD000BF4FF00004CE
:100BC0000AEB0009297819F80400802906D28A095D
:100BD000012108F0E1FA2878401C2870601CC4B29A
:100BE000A045EFD81F2F0AD8B7B908E03A2F18BF91
:100BF0003B2FE3D14FF002084FF00004E0E72878E4
:100C00004FF00003802807D282090121184608F01E
:100C1000C3FA2878401C287030780028C0D1BDE87D
:100C2000F087000059A60008BD0000202DE9F05F04
:100C300080460146007820B10E4611F8010F0028C9
:100C4000FAD1464526BFDFF8A4B0294DBDE8F09F94
:100C500016F80199052709EB8900B9F12E0F0DD07F
:100C600006DCB9F1200F18BFB9F12C0F08D105E04F
:100C7000B9F13A0F18BFB9F13B0F01D14FF002079C
:100C8000A7F10101CCB2BC4238BF0BEB000A13D272
:100C900029781AF8040080290AD28A09012108F06B
:100CA0007BFA2878401EC0B228706978FFF7AEFE44
:100CB000601EC4B2BC42EBD3B9F11F0F02D8B9F128
:100CC000000F0FD12878002380280BD28209012140
:100CD000184608F061FA2878401EC0B2287069787A
:100CE000FFF794FE4645B3D2BDE8F09F59A6000831
:100CF000BD0000202DE9F0470646007800281ABF05
:100D0000DFF890A0244DBDE8F08700BF16F8017B06
:100D10004FF0050807EB87002E2F24D01FDC202F73
:100D200018BF2C2F1FD000BF4FF000040AEB0009A2
:100D3000297819F8040080296FEA0000C0B206D2B1
:100D40008A09012108F028FA2878401C2870601CC4
:100D5000C4B2A045ECD81F2F0AD8B7B908E03A2F83
:100D600018BF3B2FE0D14FF002084FF00004DDE741
:100D700028784FF0FF03802807D282090121184606
:100D800008F00AFA2878401C287030780028BDD175
:100D9000BDE8F08759A60008BD00002010B5064C3C
:100DA0002178802928BF10BD8A09012108F0F4F9B3
:100DB0002078401C207010BDBD00002030B482B0EF
:100DC0004FF0000CCDF804C090F83C20012A01BF80
:100DD000022002B030BC7047012280F83C200A6833
:100DE00007230468092A14D9E5680A3A02EB42028B
:100DF00003FA02F225EA0202E2600B788A680A3BF3
:100E000003EB430302FA03F30268D4682343D3607D
:100E100011E0256902EB420203FA02F225EA02021E
:100E200022610B788A6803EB430302FA03F302683A
:100E30001469234313614A681F23072A16D20468E2
:100E4000656B521E02EB820203FA02F225EA0202ED
:100E500062630B790A885B1E92B203EB830302FA8A
:100E600003F30268546B234353632DE004680D2A97
:100E700015D2256BD21F02EB820203FA02F225EA99
:100E8000020222630B790A88DB1F92B203EB830311
:100E900002FA03F30268146B2343136314E0E56A58
:100EA0000D3A02EB820203FA02F225EA0202E26242
:100EB0000B790A880D3B92B203EB830302FA03F32A
:100EC0000268D46A2343D362254B0468234A9C42B8
:100ED00004BF0C68122C03D1546844F4800454609D
:100EE00004689C422FD10B68102B18BF112B2AD1FC
:100EF000536843F4000353600968102923D119494A
:100F0000194A0968B1FBF2F101EB81014900019135
:100F1000009118D0B1F1004F1BD20029D8BF002199
:100F200005DD11F0010102D0019A521E0192009AD2
:100F3000491C521C914206DA019B891C5B1E5B1EF8
:100F400001939142F8DB80F83CC002B0002030BC35
:100F500070470199491E0191FCD1F4E7002301403B
:100F6000002001400C00002040420F00014806F024
:100F70007FBC0000924300207047704770B50400AA
:100F80004FF0000504BF012070BD206C002628B979
:100F9000204600F0ADF8666484F83C60206C10F0E8
:100FA000100F18BF012503D084F83C60284670BD9F
:100FB000206C20F4885040F00200206449484168C9
:100FC00021F440314160416862681143416020680A
:100FD000416821F48071416020684168226941EADA
:100FE000022141602068416821F040714160206821
:100FF0004168A268114341602068816821F4006162
:10100000816020688168E26811438160A06A6FF0A6
:101010007061C8422068816821F070618160206839
:10102000816808BF21F040510BD0A26A1143816052
:101030002068816821F04051816020688168E26AFF
:10104000114381602068816821F00201816020687D
:101050008168227E41EA4201816094F820000028E4
:101060002068416808BF21F400610ED041F400619E
:1010700041602068416821F4604141602068416816
:10108000194B626A03EB4232114341602068C16A26
:1010900021F47001C1622068C16AA28B134B03EB7B
:1010A00002521143C1622068816821F4007181609D
:1010B0002068816894F8302041EA422181602068EC
:1010C000816821F48061816020688168626941EAF9
:1010D000822181606664206C20F0020040F00100F3
:1010E000206461E70023014000E0FFFF0000F0FF03
:1010F00070B586B0002506460095019502950395CA
:1011000004950068A0F18041B1F590311CBF06B094
:1011100070BD2248016841F4807101600068204977
:1011200000F480700590086840F0040008600868CA
:1011300000F004000590086840F0010008600868AD
:10114000032400F0010005903D20CDE9000469462C
:10115000144800F029FF0F20CDE9000469460295EC
:10116000114800F021FF124C1048C4E90005001599
:10117000A560C4E90350400060618000A061401197
:10118000C4E907052046656200F0D2FC002818BFBC
:10119000FFF7D6FBB463A66306B070BD44380240C7
:1011A0003038024000080240000002401064024053
:1011B000F840002030B583B000250446019590F832
:1011C0003C001346012802BF022003B030BD0120BD
:1011D00084F83C002068826812F0010F2BD18268ED
:1011E00042F0010282605848584A0068B0FBF2F0B1
:1011F00010EB4000019000901DD0B0F1004F73D271
:101200000028D8BF002005DD10F0010002D0019AAF
:10121000521E0192009A401C521C90420BDA00BFF1
:10122000DDF804C0801CACF1010CACF1010CCDF870
:1012300004C09042F4DB2068826812F4807F03D0FF
:10124000826822F4807282602068826812F0010F46
:1012500069D0226C22F0010222F4C06242F4807252
:101260002264406810F4806F05D0206C20F4005098
:1012700040F480502064206C10F4805F08BF6564E7
:1012800003D0606C20F00600606484F83C50A26BD0
:1012900030482F4DD063A26B2F481064A26B2F48AB
:1012A000D06422686FF0220010602068426842F02B
:1012B000806242602068826842F4807282602068A6
:1012C0000A4600F14C0C6146A06B00F0DFFC686838
:1012D000234910F01F0F206807D0884204BF81689F
:1012E00011F0405F1AD026E028E0884212D01D4A53
:1012F000904204BFD1F8042312F01F0F0AD0A0F1CE
:101300008042B2F5913216D1D1F8041301F01F01D9
:10131000102910D2816811F0405F0CD1816841F032
:101320008041816007E0206C40F010002064606C18
:1013300040F00100606403B0002030BD0198401E01
:101340000190FCD177E700000C00002040420F0024
:101350000023014063080008ED080008D7080008D2
:10136000002001400021014090F82020012A18BFF0
:10137000022A06D0416A41F4802141624FF0010007
:1013800070470068426942EA010141614FF0000084
:101390007047000090F82020012A18BF022A06D0CA
:1013A000416A41F4802141624FF0010070473F489B
:1013B000D0F8002242F00102C0F80022D0F800224A
:1013C00022F47C52C0F80022D0F800224B6A42EA94
:1013D0000322C0F800220A7D4FF0010302F01F0231
:1013E00003FA02F2D0F81C3223EA0203C0F81C32DE
:1013F000CB69DBB9D0F80C3223EA0203C0F80C3217
:10140000B1F80CC04B686CF31F43D1F814C000EB6B
:10141000CC0CCCF84032B1F808C00B686CF31F4319
:10142000D1F814C000EBCC0CCCF84432CB69012BC2
:101430001AD1D0F80C321343C0F80C32B1F800C006
:101440004B686CF31F43D1F814C000EBCC0CCCF804
:101450004032B1F808C0CB686CF31F43D1F814C018
:1014600000EBCC0CCCF844328B69002BD0F8043262
:101470000CBF93431343C0F804320B69002BD0F820
:1014800014320CBF93431343C0F81432096A012984
:1014900004D1D0F81C121143C0F81C12D0F800126D
:1014A00021F00101C0F800120020704700640040E4
:1014B00070472DE9F05F0546006800244669D0F8C2
:1014C00004908768D0F80CB0D0F810A0D0F818803D
:1014D00016F0010F25D017F0010F07D00121816010
:1014E00017F0020F7CD0284600F02DFA17F4807F09
:1014F00009D029684FF48070886017F4007F70D09D
:10150000284600F022FA17F4803F0AD029684FF4E9
:101510008030886017F4003F00F0B980284600F062
:1015200016FA16F0080F18BF1BF0100F04D0296828
:10153000102044F40074C86016F0040F4FF0080740
:1015400018BF1BF0080F04D02868C760284600F0B9
:10155000C1F916F0020F07D02868C06810F0030F19
:101560001CBF284600F0B7F916F0400F18BF1AF05C
:10157000100F04D02968102044F48064086116F02C
:10158000200F18BF1AF0080F04D0286807612846FA
:1015900000F0A2F916F0100F07D02868006910F0CB
:1015A000030F1CBF284600F098F916F4003F18BF3F
:1015B00019F0100F05D0296810204860284600F067
:1015C0008DF916F4803F18BF19F0080F04D0286871
:1015D0004760284600F0BCF916F4004F78D001E0CF
:1015E00035E044E019F0040F6FD016F4807F1CBF83
:1015F00018F0010F44F0010416F4007F1CBF18F02E
:10160000020F44F0020416F4806F1CBF18F0040FA0
:1016100044F0040416F4006F18BF18F0700F54D093
:1016200008F07000402808BF44F0400448D03EDC79
:10163000102808BF44F0080442D0202808BF44F016
:1016400010043DD0302808BF44F0200438E017F0E3
:10165000040F18BF4FF400647FF448AF17F0080F71
:101660000ABF28464FF4805400F06CF93EE717F4A7
:10167000806F18BF44F400547FF445AF17F4006F37
:101680000ABF284644F4804400F05EF93BE717F4B3
:10169000802F18BF44F400447FF443AF17F4002FA9
:1016A0000ABF284644F4803400F050F939E7502846
:1016B00008BF44F0800403D0602808BF44F480745D
:1016C0002868816921F070018161296804204860DF
:1016D000002C08BFBDE8F09F686A20436862284676
:1016E000FFF7E6FEBDE8F09F002804BF0120704729
:1016F00070B5044690F82000002804BF204600F092
:1017000089F82068016821F00201016000F056FDAF
:101710000546206840684FF0050610F0020F09D01A
:1017200000F04CFD401B0A2817D82068406810F0D4
:10173000020FF5D12068016841F00101016000F05D
:101740003DFD05462068406810F0010F12D100BF32
:1017500000F034FD401B0A2807D9606A40F40030CD
:10176000606284F82060012070BD2068406810F03D
:10177000010FEDD0207E0128206801680CBF41F0E8
:10178000800121F080010160607E012820680168ED
:101790000CBF41F0400121F040010160A07E012812
:1017A000206801680CBF41F0200121F02001016098
:1017B000E07E0128206801680CBF21F0100141F093
:1017C00010010160207F0128206801680CBF41F0F2
:1017D000080121F008010160607F0128206801688C
:1017E0000CBF41F0040121F004010160D4E90201C1
:1017F0000843D4E90412114308436168491E0843B1
:101800002168C86100206062012084F82000002067
:1018100070BD00002DE9F04186B0002400940194D1
:101820000294039404940068A0F18041B1F5D04182
:101830001CBF06B0BDE8F0812348016841F080611B
:101840000160016801F080610591016841F000715B
:101850000160006800F0007005901C48016841F0CC
:10186000020101600068022500F0020005904FF4BB
:101870008050CDE9000501200326CDE90206DFF8FE
:101880005080092769460497404600F08DFB2803E5
:10189000CDE90005CDE9024669460497404600F0CF
:1018A00083FB002207213F2000F018FD3F2000F0BD
:1018B00005FD00220821402000F010FD402000F02E
:1018C000FDFC06B0BDE8F0814038024030380240EF
:1018D000000402407047704770477047704700002F
:1018E00070B5044690F82000012804D0606A40F4E6
:1018F000002060621CE0022084F82000206801685B
:1019000021F00101016000F059FC054620684068A3
:1019100010F0010F13D000BF00F050FC401B0A284C
:1019200008D9606A40F400306062052084F8200025
:10193000012070BD2068406810F0010FECD100203C
:10194000606270BD7047704770477047704770475E
:10195000704700002DE9F8430446002700977348BC
:101960004FF41651A56D0068B0FBF1F92E6894F89C
:101970005C00082101FA00F0304211D020680268B2
:1019800012F0040F0CD0026822F00402026094F8F6
:101990005C0001FA00F0A860606D40F00100606535
:1019A00094F85C004FF0010808FA00F0304209D0CA
:1019B0002168496911F0800F04D0A860606D40F083
:1019C0000200606594F85C1004208840304209D021
:1019D0002168096811F0020F04D0A860606D40F022
:1019E0000400606594F85C1010208840304220D0DC
:1019F0002168096811F0080F1BD0A86020680168F1
:101A000011F4802F09D0006810F4002F02D0A16CCF
:101A100079B10CE0216C51B90BE0016811F4807FC1
:101A200003D1016821F008010160216C09B1204651
:101A3000884794F85C102020884030424AD02168C2
:101A4000096811F0100F45D0A86094F835000528FA
:101A50002068016809D011F4802F2BD0006810F4A1
:101A6000002F24D0E16B21B332E021F01601016098
:101A70002068416921F080014161206C002804BF89
:101A8000A06C002804D02068016821F008010160E2
:101A900094F85C004FF03F0101FA00F0A86084F870
:101AA000347084F83580216DD1BBBDE8F883616C5A
:101AB00071B90FE0016811F4807F07D1016821F04E
:101AC0001001016084F8347084F83580E16B09B14D
:101AD00020468847606D002808BFBDE8F883606D28
:101AE00010F0010F17D04FF0050084F83500206882
:101AF000016821F001010160009800F101000090EF
:101B0000484504D82068006810F0010FF4D184F82B
:101B1000347084F83580E16C002908BFBDE8F88393
:101B2000204601B0BDE8F043084700000C0000204B
:101B300070B5044600F042FB0546002C04BF0120AE
:101B400070BD002684F83460022084F835002068D7
:101B5000016821F0010101602068006810F0010FA8
:101B600010D000BF00F02AFB401B052805D920201B
:101B70006065032084F8350070BD2068006810F0AF
:101B8000010FEFD1216808683D4A1040D4E90123D4
:101B90001A43D4E9033C43EA0C031A4363691A432A
:101BA000A3691A43E3691A43236A1A431043626A1A
:101BB000042A03D1D4E90B231A4310430860D4F854
:101BC00000C0DCF81400012320F00701606A40EA3D
:101BD0000102042837D1A16AE06A0A4318B3A56953
:101BE00055B1B5F5005F14D000291CBF01290229A9
:101BF00021D003291CD026E019B1012905D00229E2
:101C000021D110F0807F1ED015E0B0F1C07F1AD135
:101C100011E081B1012907D002290CD0032908BFA6
:101C2000B0F1C07F07D00EE010F0807F03D10AE052
:101C300010F0807F07D04FF04000606584F83530A9
:101C40004FF0010070BDCCF8142020680D4AC1B2DD
:101C5000A1F11001A2FB01210B4A4FEA1111032946
:101C6000525CE2656FF3090088BF001D3F2191407F
:101C7000A0658160666584F83530002070BD000085
:101C80003F8010F0ABAAAAAAF097000870B490F8B1
:101C90003450846D4FF0000C012D02BF022070BC47
:101CA0007047012580F8345090F835600025012EEA
:101CB0001CBF80F834504FF0020C02D070BC60465C
:101CC0007047022680F83560456505682E6826F461
:101CD00080262E6005686B608368402B036803BF15
:101CE0009A600268D16099601CBF0168CA6090F870
:101CF0005C103F2202FA01F1A16001680A6842F01B
:101D000016020A60016C21B101680A6842F00802FB
:101D10000A600068016841F001010160CEE700003F
:101D200070B5044600F04AFA0546B4F1FF3F02D010
:101D300004480078044400F041FA401BA042FAD362
:101D400070BD0000000000202DE9F0474F4F06460F
:101D50008846387E012804BF0220BDE8F0870120B4
:101D600038764CF25030FEF7EDFD00287DD1411E53
:101D7000C8F800103168464C012938D0D6E9025124
:101D80002944A94288BF4FF002094FD9307C10F096
:101D9000FF014FF000000AD0012908BF4FF4807006
:101DA00005D002290CBF4FF400704FF44070216839
:101DB00021F440712160216808432060206820F0F0
:101DC000F8002060216849EAC500084320602068C7
:101DD00040F4803020604CF25030FEF7B3FD2168B3
:101DE00021F0FA012160D8B1C8F800501EE0307C23
:101DF000216821F440712160216841F004012160D3
:101E000021684FF4803242EA0020084320604CF2FF
:101E10005030FEF797FD216821F00401216005E0B4
:101E2000D6E9022111446D1CA942AFD819490A68AC
:101E300012F4007F0FD00A6822F400720A600A6868
:101E400042F400620A600A6822F400620A600A68CA
:101E500042F400720A600A6812F4806F11D00A68B6
:101E600022F480620A600A6800E00AE042F48052CC
:101E70000A600A6822F480520A600A6842F48062AA
:101E80000A6000213976BDE8F08700004C0200208E
:101E9000103C0240003C02400348016841F0004110
:101EA0000160002070470000103C02402DE9F0471F
:101EB0002E4F81461546387E98460E46012804BFAF
:101EC0000220BDE8F087012038764CF25030FEF752
:101ED00039FD18BB264CB9F1000F23D0B9F1010F21
:101EE0002CD02068B9F1020F20F4407020602068E7
:101EF00032D040F440702060206840F00100206043
:101F00003560BFF36F8FC6F8048000BF4CF25030CD
:101F1000FEF718FD216821F00101216000213976CA
:101F2000BDE8F087206820F44070206020682060C1
:101F3000206840F0010020603570E7E7206820F459
:101F400040702060206840F480702060206840F07D
:101F5000010020603580D9E740F4007020602068DF
:101F600040F0010020603560D0E700004C02002006
:101F7000103C0240084900200A6812F0004F08BFD8
:101F80007047064B064A1360064B1360096811F050
:101F9000004F18BF01207047103C024023016745E5
:101FA000043C0240AB89EFCD2DE9F84F7B4D7A4CD4
:101FB00000224FF001094FF0030C4FF00F0A05F11A
:101FC000040E00BF0B6809FA02F63340B34240F03A
:101FD000DC800F7907F00307012F18BF022F19D1FA
:101FE000D0F808804FEA42070CFA07FB28EA0B08F2
:101FF000D1F80CB00BFA07F747EA08078760476883
:1020000027EA06060F79C7F3001707FA02F747EA2F
:10201000060646604E683CEA06060BD0C7685600C6
:102020000CFA06F827EA0807D1F8088008FA06F63D
:102030003E43C6600E7906F00306022E11D1D60883
:1020400000EB8607D7F820805607F60E0AFA06FB43
:1020500028EA0B08D1F810B00BFA06F646EA080693
:102060003E62076856000CFA06F827EA080791F85E
:10207000048008F0030808FA06F63E4306604E683E
:1020800016F0805F7DD0266846F48046266026687C
:1020900006F48046009622F0030606F1804707F515
:1020A0009837D7F808889607360F0AFA06FB28EA09
:1020B0000B08A0F1804BBBF5003B38D0A0F1804B62
:1020C000BBF5013B08BF4FF0010B30D0A0F1804BB6
:1020D000BBF5023B08BF4FF0020B28D0A0F1804BAC
:1020E000BBF5033B08BF4FF0030B20D0A0F1804BA2
:1020F000BBF5043B08BF4FF0040B18D0A0F1804B98
:10210000BBF5053B08BF4FF0050B10D0A0F1804B8D
:10211000BBF5063B08BF4FF0060B08D0A0F1804B83
:10212000BBF5073B0CBF4FF0070B4FF0080B0BFA4A
:1021300006F646EA0806C7F808682E684F689E4308
:1021400017F4803F18BF1E432E60DEF800604F6812
:102150009E4317F4003F18BF1E43CEF80060104F97
:102160003E68D1F804809E4318F4801F18BF1E43B8
:102170003E600C4F3E68D1F804809E4318F4001F67
:1021800000E002E018BF1E433E60521C102AFFF41C
:1021900019AFBDE8F88F000044380240003C014010
:1021A000083C01400C3C01400069084018BF012078
:1021B0007047002A08BF09048161704701488068A0
:1021C0007047000000000020024881680278114436
:1021D00081607047000000200B4810B5016841F491
:1021E00000710160016841F480610160016841F49F
:1021F00080710160032000F0A3F8002000F006F8D1
:1022000000F03EF8002010BD003C024010B5014631
:1022100088B000221C2000F061F81C2000F04EF86D
:1022200014480024016841F001010160006805A91B
:1022300000F001000690684600F042F900F060F9F5
:102240000D494000B0FBF1F0411E0C484FF08042B8
:10225000026040F2E732C0E90324C0E9011400F053
:1022600075FC00280ABF0548012000F022FD08B0D7
:1022700010BD00004038024040420F00B042002034
:102280000C4882B0016841F480410160006800F4AC
:10229000804000900848016841F08051016000686A
:1022A000002200F0805000900F21901E02B000F03C
:1022B00015B8000044380240403802400028B8BF3A
:1022C000704700F01F01012202FA01F1400980006D
:1022D00000F1E020C0F8001170470000174B10B467
:1022E0001B68C3F30223C3F1070CBCF1040F88BFC2
:1022F0004FF0040C1C1D072C34BF0023DB1E0124EF
:1023000004FA0CFCACF1010C0CEA0101994004FA4E
:1023100003F35B1E1A40114300284FEA0111A1BFCD
:1023200000F1E02080F8001410BC704700F00F00AE
:1023300000F1E02080F8141D10BC70470CED00E0A7
:10234000074900F007000A684FF6FF031A4042EA07
:10235000002040F0FD7040F0806008607047000091
:102360000CED00E0002804BF012070472DE9F04784
:102370004D4E04460F46306801F0FF0800F007009C
:10238000B84206D286F80080306800F00700B842F4
:1023900061D12068454D10F0020F14D010F0040FE9
:1023A00003D0286840F4E0502860207810F0080F2F
:1023B00003D0286840F4604028602868A16820F0B5
:1023C000F00008432860207810F0010F37D06068D3
:1023D0003749012823D0022818BF0328096823D0D1
:1023E00011F0020F37D0296821F0030141EA000003
:1023F0002860FFF7E3FE81462868616800F00C0062
:10240000B0EB810F18BF41F2883A18D0FFF7D6FE23
:10241000A0EB090050450BD90320BDE8F0870968FF
:1024200011F4003FDFD116E011F0007FDBD112E0A4
:102430002868616800F00C00B0EB810FE6D13068CD
:1024400000F00700B84209D986F80080306800F033
:102450000700B84202D00120BDE8F087207810F0D4
:10246000040F05D02868E16820F4E0500843286094
:10247000207810F0080F06D02868216920F4604009
:1024800040EAC100286000F04BF82968094AC1F30E
:102490000311515CC8400849086008480068FFF70C
:1024A000B5FE0020BDE8F087003C0240083802403D
:1024B00000380240F89700080C00002004000020BB
:1024C0000F2202600C4A136803F003034360136891
:1024D00003F0F0038360136803F4E053C3601268F1
:1024E0004FF4E05303EAD20202610448006800F0AE
:1024F000070008607047000008380240003C0240B6
:102500000448054900680968044AC1F38221515C06
:10251000C84070470C0000200838024008980008A6
:102520001848006810F00C02174808BF7047174998
:10253000042A04BF08467047082A18BF704710B520
:10254000134C2268236802F03F0213F4800F08D076
:1025500020680023C0F38810A0FB0101FDF790FE66
:1025600007E021680023C1F38811A1FB0001FDF7FA
:1025700087FE2168C1F30141491C4900B0FBF1F01D
:1025800010BD0000083802400024F400001BB70012
:1025900004380240002804BF012070472DE9F84F9D
:1025A00004460078DFF8CC8310F0010FA8F1040591
:1025B00058D008F10400016801F00C01042909D089
:1025C000006800F00C0008280DD1D8F8000010F4C5
:1025D000800F08D0286810F4003F43D060680028BE
:1025E00000F0C1813EE06068B0F5803F19D0B0F5E1
:1025F000A02F28680CBF40F4802020F48030286091
:1026000028680CBF40F4803020F480202860606887
:10261000B8B1FFF7D3FD0646286810F4003F05D097
:1026200020E0286840F480302860F0E7FFF7C6FD1E
:10263000801B642800F22F81286810F4003FF5D039
:1026400010E0FFF7BBFD0646286810F4003F09D0F4
:10265000FFF7B4FD801B642800F21D81286810F488
:10266000003FF5D12078C44F10F0020F47D0C34986
:10267000086810F00C0F16D0086800F00C0008284D
:1026800004BFD8F8000010F4800F0CD0E06820B32D
:102690004FF001003860FFF791FD0646286810F002
:1026A000020F09D011E0286810F0020F1CBFE0688B
:1026B00001280AD000F057B9FFF780FD801B0228DF
:1026C0007ED8286810F0020FF6D02868216920F023
:1026D000F80040EAC100286011E000203860FFF7F0
:1026E0006DFD0646286810F0020F08D0FFF766FD62
:1026F000801B022864D8286810F0020FF6D12078D9
:1027000010F0080F2AD09E489E4E616999B10121B0
:102710000160FFF753FD8146306810F0020F1DD1B4
:10272000FFF74CFDA0EB0900022849D8306810F0F3
:10273000020FF5D012E000210160FFF73FFD814656
:10274000306810F0020F09D0FFF738FDA0EB090048
:10275000022835D8306810F0020FF5D1207810F03B
:10276000040F7FD088484FF0000B006810F0805FA6
:102770000AD18548016841F08051016000684FF03E
:10278000010B00F080500090DFF80092D9F80000B3
:1027900010F4807F1AD1D9F8000040F48070C9F895
:1027A0000000FFF70BFD0646D9F8000010F4807F0B
:1027B0000CD100BFFFF702FD801B02286BD800E0A0
:1027C00069E0D9F8000010F4807FF3D0A068704E63
:1027D00001281BD0052830680CBF40F0040020F011
:1027E0000100306030680CBF40F0010020F00400B0
:1027F000C6F80000A06841F2883AB8B1FFF7DEFCE5
:102800008146306810F0020F05D021E0306840F0BA
:1028100001003060EEE7FFF7D1FCA0EB0900504566
:1028200039D8306810F0020FF5D011E0FFF7C6FC80
:102830008146306810F0020F0AD000BFFFF7BEFCDF
:10284000A0EB0900504526D8306810F0020FF5D1F2
:10285000BBF1000F06D04C48016821F0805100E028
:1028600000E00160A069E8B34449096801F00C0187
:10287000082950D002284FF0000038660ED0FFF72C
:102880009DFC0446286810F0007F6FD0FFF796FC8F
:10289000001B02283AD90320BDE8F88FFFF78EFC11
:1028A0000646286810F0007F09D000BFFFF786FCBD
:1028B000801B0228EFD8286810F0007FF6D1D4E9F9
:1028C00007010843A16A334A490802EB0141626AE1
:1028D00041EA8211084394F82C1040EA0160C8F8DC
:1028E000000000E042E001203866FFF767FC044684
:1028F000286810F0007F39D1FFF760FC001B022828
:10290000C9D8286810F0007FF6D02FE0286810F0B2
:10291000007FBBD12AE0012808BFBDE8F88FD8F8B6
:102920000000E26900F4800191421CD1226A00F0AB
:102930003F01914217D147F6C071626A0140B1EB85
:10294000821F10D1A26A4FF0FF3300F4403103EB35
:102950005202B1EB024F06D194F82C1000F07060D7
:10296000B0EB016F02D00120BDE8F88F0020BDE878
:10297000F88F000004380240000047420838024047
:10298000800E4742743802404038024000700040D8
:10299000703802400000FFFF2DE9F0410446007945
:1029A000022701280CD00126267160794FF000081B
:1029B00001281CBF0420A06005D000BF84F804805B
:1029C0000020BDE8F0816771FFF7F8FB054620683D
:1029D000406810F0010F0CD1FFF7F0FB401B0228FC
:1029E00002D96671A760E9E72068406810F0010F1E
:1029F000F2D020688068E060667184F80480BDE8E9
:102A0000F081002804BF0120704770B5044640796A
:102A1000002518B92571204600F00CF802206071DD
:102A20002068016841F00401016001206071A56027
:102A3000002070BD006881B0A0F1A041B1F5C121B6
:102A40001CBF01B070470548016841F040010160BA
:102A5000006800F04000009001B070473438024038
:102A60007047704790F83C20012A04BF022070474D
:102A7000012280F83C20CA688B6822F440721A4315
:102A80004B6822F480621A430B6822F400621A43F6
:102A90000B6922F480521A434B6922F400521A4304
:102AA000C96922F48042114302685164002180F810
:102AB0003C100846704790F83C20012A04BF0220D1
:102AC000704730B4012380F83C30022280F83D206A
:102AD00002685468D2F808C00D6824F070042C43D2
:102AE00054600268A2F18044B4F5803418BFB2F19A
:102AF000804F1DD0A2F18044B4F580641CBFA2F1C8
:102B00008044B4F5006413D0A2F18044B4F540646D
:102B10001CBFA2F18044B4F5823409D0A2F18044F4
:102B2000B4F5A0341CBFA2F18044B4F5C05405D163
:102B300049682CF0800C41EA0C01916080F83D302E
:102B4000002180F83C1030BC08467047002804BFC4
:102B50000120704710B5044690F83D0028B90020C8
:102B600084F83C00204600F01FF8022084F83D0065
:102B7000211D206801F01AFA012084F8460084F82B
:102B80003E0084F83F0084F8400084F8410084F857
:102B9000420084F8430084F8440084F8450084F837
:102BA0003D00002010BD000008B501682148A1F1DA
:102BB0008042B2F5803222D0A1F18042B2F580622B
:102BC0000EBF1D48A1F18042B2F5823229D0A1F199
:102BD0008042B2F5A03218BF08BD016841F48031CF
:102BE00001600068002200F4803000900521182068
:102BF000FFF774FBBDE808401820FFF75FBB0168D2
:102C000041F0010101600068002200F00100009025
:102C100005211820FFF762FBBDE808401820FFF7E8
:102C20004DBB016841F002010160006800F0020044
:102C3000009008BD443802404038024090F83D10F2
:102C400001291CBF01207047022180F83D10006857
:102C5000A0F18041B1F5803118BFB0F1804F1DD097
:102C6000A0F18041B1F580611CBFA0F18041B1F5B8
:102C7000006113D0A0F18041B1F540611CBFA0F10B
:102C80008041B1F5823109D0A0F18041B1F5A03188
:102C90001CBFA0F18041B1F5C05104D1816801F0A1
:102CA0000701062903D0016841F0010101600020FD
:102CB000704790F83D1001291CBF01207047022188
:102CC00080F83D100168CA6842F00102CA600068DD
:102CD000A0F18041B1F5803118BFB0F1804F1DD017
:102CE000A0F18041B1F580611CBFA0F18041B1F538
:102CF000006113D0A0F18041B1F540611CBFA0F18B
:102D00008041B1F5823109D0A0F18041B1F5A03107
:102D10001CBFA0F18041B1F5C05104D1816801F020
:102D20000701062903D0016841F00101016000207C
:102D3000704790F83C20012A0DBF0220012380F843
:102D40003C30704730B4022280F83D20D0F800C0FB
:102D5000DCF8082022F0770222F47F42CCF8082029
:102D60000A68502A3DD00CDC202A74D004DC002AEA
:102D700018BF102A51D18CE0302A6CD0402A6CD078
:102D800091E0602A4AD0702A06D0B2F5805F44D024
:102D9000B2F5005F12D086E0D1E9014C0268C96843
:102DA000956844EA012125F47F4541EA0C01294355
:102DB000916001688A6842F0770210E00268D1F8F9
:102DC00004C08C68C96895684CEA012125F47F45E8
:102DD00021432943916001688A6842F480428A60F5
:102DE00061E00268D1F804C0C968146A156A25F068
:102DF00001051562956924F00A0425F0F00545EAFD
:102E0000011144EA0C0C9161C2F820C001688A6883
:102E100022F0700242F057028A6044E00268D1F862
:102E200004C0C968146A24F0100414629569146A15
:102E300025F4704545EA013124F0A00444EA0C1C55
:102E40009161C2F820C001688A6822F0700242F0E5
:102E500067028A6027E01CE0FFE70268D1F804C03F
:102E6000CC68116A156A25F001051562956921F093
:102E70000A0125F0F00545EA041441EA0C019461C9
:102E8000116201688A6822F0700242F047028A608B
:102E900009E00168D1F808C02CF0700C4CEA02027D
:102EA00042F007028A6080F83D30002180F83C1033
:102EB00030BC08467047704770B504460068016929
:102EC0004FF0000511F0020F1CBFC16811F0020F96
:102ED00013D06FF002010161012020772068806922
:102EE00010F0030F204602D0FFF7E5FF04E000F0EA
:102EF000E1F8204600F024FA25772068016911F0F6
:102F0000040F1CBFC16811F0040F13D06FF004014F
:102F10000161022020772068806910F4407F2046FC
:102F200002D0FFF7C8FF04E000F0C4F8204600F02C
:102F300007FA25772068016911F0080F1CBFC168E6
:102F400011F0080F13D06FF0080101610420207701
:102F50002068C06910F0030F204602D0FFF7ABFFD6
:102F600004E000F0A7F8204600F0EAF92577206891
:102F7000016911F0100F1CBFC16811F0100F13D0C0
:102F80006FF010010161082020772068C06910F4FB
:102F9000407F204602D0FFF78EFF04E000F08AF861
:102FA000204600F0CDF925772068016911F0010F66
:102FB0001CBFC16811F0010F05D06FF00101016164
:102FC000204600F080FA2068016911F0800F1CBFD4
:102FD000C16811F0800F05D06FF0800101612046BB
:102FE000FFF73EFD2068016911F0400F1CBFC1686A
:102FF00011F0400F05D06FF040010161204600F054
:1030000075FA2068016911F0200F1ABFC16811F02C
:10301000200F70BD6FF0200101612046BDE87040B7
:10302000FFF71FBD00B587B000210091019102910B
:103030000391049103681C4802210322A3F1804CF0
:10304000BCF5803C1CD0A3F1804CBCF5823C1CBF7D
:1030500007B000BD036843F0040303600068CDE9D6
:10306000021200F0040005904FF47070CDE90001E9
:1030700069460E48CDF81020FEF796FF07B000BD58
:10308000036843F0010303600068CDE9021200F019
:10309000010005904FF47060CDE90001012004901B
:1030A00069460348E8E70000303802400008024063
:1030B0000000024070470000F0B490F83C30012B53
:1030C00002BF0220F0BC7047012380F83C30834BE4
:1030D000DFF80CC242B1042A44D0082A7ED00C2A60
:1030E00000F0C38000F0F2B80268146A24F0010412
:1030F0001462146A556896690F6826F073063E4399
:103100008F6824F002043C439A4218BF624506D1FE
:10311000CF6824F0080447EA040424F004049A4227
:1031200018BF624509D1D1F814C025F440734CEAA8
:103130000303D1F818C04CEA0305556096614B684B
:10314000536314620268936943F008039361026851
:10315000936923F00403936102689369096943EA60
:10316000010140E00268146A24F010041462156A38
:10317000546896690F6826F4E64646EA07268F6883
:1031800025F0200545EA07159A4218BF624506D189
:10319000CF6825F0800545EA071525F040059A42DD
:1031A00018BF624509D1D1F814C024F4406343EA42
:1031B0008C03D1F818C043EA8C04546096614B68C4
:1031C000936315620268936943F400639361026834
:1031D000936923F480639361026800E005E09369DA
:1031E000096943EA0121916170E00268146A24F4DC
:1031F00080741462146A5568D6690F6826F07306E5
:1032000047EA06068F6824F4007444EA07249A42C9
:1032100018BF624506D1CF6824F4006444EA07244D
:1032200024F480649A4218BF624509D1D1F814C0D1
:1032300025F4405343EA0C13D1F818C043EA0C15A7
:103240005560D6614B68D36314620268D36943F05A
:103250000803D3610268D36923F00403D3610268D1
:10326000D369096943EA01012FE00268146A24F472
:1032700080541462166A5468D5690F6825F4E645CF
:1032800045EA07258F6826F4005646EA07369A4233
:1032900018BF624505D1D1F814C024F4804343EA35
:1032A0008C145460D5614B68136416620268D3694C
:1032B00043F40063D3610268D36923F48063D3616C
:1032C0000268D369096943EA0121D1614FF0000125
:1032D00080F83C10F0BC0846704700000000014038
:1032E00000040140002804BF0120704710B50446C7
:1032F00090F83D0028B9002084F83C00204600F0FA
:103300001EF8022084F83D00211D206800F04EFECA
:10331000012084F8460084F83E0084F83F0084F8D9
:10332000400084F8410084F8420084F8430084F8A7
:10333000440084F8450084F83D00002010BD70472B
:1033400070470000022361B104294BD0082951D0F5
:1033500090F84120012A08BF80F8413008D00120B0
:10336000704790F83E20012A08BF80F83E30F6D121
:1033700001F01F03026801219940136A8B43136215
:10338000136A19431162254A0168254B914218BFFF
:10339000994205D1D1F844C04CF4004CC1F844C066
:1033A0000068904218BFB0F1804F2BD0A0F180414F
:1033B000B1F580611CBFA0F18041B1F5006121D061
:1033C000A0F18041B1F5406118BF98421AD0A0F138
:1033D0008041B1F5A0311CBFA0F18041B1F5C051D1
:1033E00010D014E090F83F20012A08BF80F83F3049
:1033F000B5D1BDE790F84020012A08BF80F84030E1
:10340000ADD1B5E7816801F00701062903D0016855
:1034100041F0010101600020704700000000014000
:103420000004014070B4026801F01F040123166A11
:103430004FF0000C03FA04F526EA05051562156A3B
:103440000CFA04FC45EA0C0CC2F820C0026841F2F8
:10345000111CA2F1804540F24444B5F580351CBFF3
:10346000A2F18045B5F582350AD1156A15EA0C0F2F
:1034700004BF156A254203D1556C25F400455564F7
:103480000268156A15EA0C0F04BFD2F820C01CEAC6
:10349000040F05D1D2F800C02CF0010CC2F800C016
:1034A000002908BF80F83E300AD0042908BF80F800
:1034B0003F3005D008290CBF80F8403080F84130FB
:1034C000002070BC704710B504460068A0F1804130
:1034D000B1F5A03108BF04F02BF92068B0F1804F9E
:1034E00018BF10BDBDE81040FEF76EBE7047FEE786
:1034F00070B584B000244B4800940194029448496C
:103500000394016001254FF480310561C0E9011485
:10351000047680F820400903C1620A26C66149107A
:10352000C460816280F830504461FDF727FD0028B7
:1035300018BFFDF705FACDE900450624694639486C
:103540000294FDF73BFC002818BFFDF7F9F9009540
:103550000225694633480195FDF730FC002818BF65
:10356000FDF7EEF90095032569462E480195FDF714
:1035700025FC002818BFFDF7E3F90420CDE9005031
:1035800069462848FDF71AFC002818BFFDF7D8F94E
:103590000C2000900520019069462248FDF70EFCA2
:1035A000002818BFFDF7CCF90D20CDE900046946CD
:1035B0001C48FDF703FC002818BFFDF7C1F90E20D9
:1035C00000900720019069461648FDF7F7FB002898
:1035D00018BFFDF7B5F90F2000900820019069464B
:1035E0001048FDF7EBFB002818BFFDF7A9F90920EB
:1035F000CDE9006069460B48FDF7E0FB002818BFE5
:10360000FDF79EF91020CDE9000669460548FDF753
:10361000D5FB002818BFFDF793F904B070BD00007A
:1036200000200140B0400020114810B50F49016052
:103630000721416000214FF04072C0E902124FF4AF
:10364000E02202614FF400124261017601224276CB
:103650008176C27601774177FEF746F8002808BFE9
:1036600010BDBDE81040FDF76BB9000000680040D8
:1036700058410020094808B5016841F48001016003
:103680000068002200F48000009006213820FEF738
:1036900025FEBDE808403820FEF710BE3038024055
:1036A000F0B5194C9DB094E86F108DE86F100021B3
:1036B000684604F0E6FE154D1C340DF11C0E286022
:1036C00094E8CF108EE8CF10002107A81C3C04F02E
:1036D000D8FE3834686094E8CF100DF1380E383CCD
:1036E0008EE8CF1000210EA804F0CBFE5434A86061
:1036F00094E85F1015AF87E85F10002115A804F06B
:10370000C0FEE8601DB0F0BD1098000878000020F1
:103710002DE9F04F87B0002464480094019402948E
:1037200003940494016841F010010160016801F004
:1037300010010591016841F004010160016801F088
:1037400004010591016841F080010160016801F008
:1037500080010591016841F001010160016801F0FB
:1037600001010591016841F002010160016801F069
:1037700002010591016841F0080101600068DFF86D
:10378000308100F00800059000224FF420414046AF
:10379000FEF70FFDDFF81C91002247F6FF71484647
:1037A000FEF707FDDFF810A100224FF4104150464C
:1037B000FEF7FFFC4EF27F000326CDE90006DFF89E
:1037C000FCB0694602945846FEF7EEFB4FF42040E9
:1037D00001250227CDE90005CDE90274694640467E
:1037E000FEF7E2FBA803CDE90004694602954046D6
:1037F000FEF7DAFB41F60240CDE900066946029485
:103800004046FEF7D1FB3020CDE900066946029420
:103810005046FEF7C9FBC020CDE900046946029579
:103820005046FEF7C1FBDFF8988000966946404697
:10383000CDE90145FEF7B8FB4CF6FC70CDE900067A
:10384000694602944046FEF7AFFB4FF4FC50CDE9C9
:103850000004694602955846FEF7A6FB47F6FF307E
:10386000CDE90005CDE9027469464846FEF79CFBA8
:10387000A802CDE90005CDE9025469464846FEF7A5
:1038800093FBE803CDE90006694602944846FEF73B
:103890008BFB4FF41040CDE90005CDE90274694679
:1038A0005046FEF781FB07B0BDE8F08F303802408C
:1038B00000080240000C02400000024000100240DC
:1038C00000040240074910B5054808600846FFF7A4
:1038D00098F8002808BF10BDBDE81040FDF730B8CB
:1038E000000806508041002010B596B000241094C6
:1038F00014941294139415940094119401940394C5
:10390000049405943D4802940694089409940A94FA
:103910000B940C940D940E9437490F94C0E9001445
:10392000FF21C0E90241046144618461FFF70EF99F
:10393000002818BFFDF704F84FF48050109010A92C
:103940002E48FFF7F6F9002818BFFCF7F9FF2B48BF
:10395000FFF7C8FC002818BFFCF7F2FF2020CDE9D4
:10396000140414A92548FFF7A6F8002818BFFCF78F
:10397000E7FF602000907F20CDE9010403940494C8
:103980000594002269461D480694FFF795FB002820
:1039900018BFFCF7D5FF042269461848FFF78CFBD7
:1039A000002818BFFCF7CCFF082269461348FFF730
:1039B00083FB002818BFFCF7C3FF0C2269460F48A1
:1039C000FFF77AFB002818BFFCF7BAFF08944FF402
:1039D0000050CDE90C400A9409940B9408A90748BB
:1039E0000F94FFF73FF8002818BFFCF7A9FF034822
:1039F000FFF718FB16B010BD0000014090410020F9
:103A000010B586B0002418480094019402940394E1
:103A10000494144905940160A721C0E901143F21D1
:103A2000C0E903148461FFF791F8002818BFFCF780
:103A300087FF4FF48050009069460B48FFF779F9F3
:103A4000002818BFFCF77CFF2020CDE9040404A95E
:103A50000548FFF730F8002818BFFCF771FF06B0E3
:103A600010BD000000040040D841002010B596B001
:103A700000241094149412941394159400941194A7
:103A800001940394049405943D4802940694089488
:103A900009940A940B940C940D940E9437490F9446
:103AA000C0E90014FF21C0E902410461446184615E
:103AB000FFF74CF8002818BFFCF742FF4FF4805086
:103AC000109010A92E48FFF734F9002818BFFCF712
:103AD00037FF2B48FFF706FC002818BFFCF730FF24
:103AE0002020CDE9140414A92548FEF7E4FF00289E
:103AF00018BFFCF725FF602000907F20CDE901046E
:103B0000039404940594002269461D480694FFF727
:103B1000D3FA002818BFFCF713FF0422694618489F
:103B2000FFF7CAFA002818BFFCF70AFF0822694607
:103B30001348FFF7C1FA002818BFFCF701FF0C2259
:103B400069460F48FFF7B8FA002818BFFCF7F8FEDF
:103B500008944FF40050CDE90C400A9409940B945A
:103B600008A907480F94FEF77DFF002818BFFCF74F
:103B7000E7FE0348FFF756FA16B010BD00040140F7
:103B80002042002000B585B000211148009101912C
:103B900002910E4A03910260A422C0E901211F2272
:103BA000C0E903218161FEF7D1FF002818BFFCF7AF
:103BB000C7FE4FF48050009069460548FFF7B9F8FA
:103BC000002818BFFCF7BCFE05B000BD0040014056
:103BD00068420020FEE700F089FF642004F044FC06
:103BE000F9E70000654F664E664D674C94F870002B
:103BF00010F0900F10D094F845006449C0F34402CF
:103C000004F14C0000F0A4FD03F01EFE04F0BAF82D
:103C10007D2004F029FCE9E710F0010F38D0397855
:103C200000F002020A4315D000290CBFC0F3400285
:103C3000012294F8711020F0040062F3000184F86E
:103C4000711084F8700006F1340003F073FD002851
:103C500069D046E010F0040F06F1340014D003F0F0
:103C600074FD58B194F8710020F0010084F87100DF
:103C700094F8701060F3820184F8701006F134003B
:103C800003F058FDB8B32CE003F054FDA0BB44E0B2
:103C900010F0020F47D1397851B194F8711020F02B
:103CA000040041F0010184F8711084F870003AE0DA
:103CB00010F0040F06F134001FD003F046FD58B198
:103CC00094F8710020F0010084F8710094F87010ED
:103CD00060F3820184F8701006F1340003F02AFDCD
:103CE00048B194F8710040F0040084F8710003F0CA
:103CF000A5FDC4F8720016E002E003F01BFD60B100
:103D000094F8710040F0010084F8710094F870108C
:103D100060F3820184F8701005E094F8710020F0DF
:103D2000010084F8710094F8710010F0010F15D0B3
:103D300004F060FE94F8760030B9287820F078001E
:103D4000C10861F382002870287810F0040F14BFB6
:103D50000221012161F30100287055E704F044FFBE
:103D600094F8700010F0010F1ABF10F0080F032133
:103D70000021287861F30100287045E789000020C0
:103D8000F842002093000020464300201A440020FF
:103D9000124C00BF94F8700010F0800F04BF94F82C
:103DA000711011F0020F04D110F0100F08BF0120A4
:103DB00000D0002001F080FA94F8450094F84430D7
:103DC000C0F34402064904F14C0003F0CBFA01F0C1
:103DD000A9FA4FF4967004F047FBDBE74643002056
:103DE0001A440020304D314C4FF08056012700BF5F
:103DF00094F8710010F0020F05BF94F8701011F0E4
:103E0000100F00210121C0F3400004F0EFFF00F08B
:103E1000FDFA03F0B7FB94F8701011F0100F04BF17
:103E200094F87600002821D0287806EBF0104FEAAD
:103E30007060287010F0780F04D127EA900262F3C6
:103E40008200287094F87600A0B194F8970006EBF1
:103E500070104FEAF06084F8970010F01E0F04BF56
:103E600027EA000262F3000008D009E0287820F079
:103E70000400287094F8970020F0010084F897005F
:103E800011F0010F0CD0E06E00281CBF401EE06650
:103E900006D121F00100410861F3C30084F87000ED
:103EA0000A2004F0E1FAA3E7930000204643002033
:103EB00010B5502080F31188BFF34F8FBFF36F8F81
:103EC00005F044FB18B104494FF080500860002011
:103ED00080F3118810BD000004ED00E030B593B010
:103EE0000025224802950395049505950C950D959E
:103EF0000E950F951095016841F0805101600068A2
:103F000000F0805011901A48016841F4804101602E
:103F10000068022400F48040119001200090000409
:103F200001908001CDE906400C2008904FF4A87064
:103F3000CDE9090407200B906846FEF72BFB08B17A
:103F400072B6FEE70F20CDE90C044FF4A050CDE986
:103F50000E504FF48050109005210CA8FEF702FA85
:103F6000002804BF13B030BD72B6FEE740380240EF
:103F7000007000400248016841F470010160704720
:103F800088ED00E010B50448FEF796FFBDE810404C
:103F90000248FEF791BF00009041002068420020D7
:103FA0000148FEF789BF0000B0420020F0B402686B
:103FB0002C4B2D4C2D4D2E4EDFF8B8C0984218BF1B
:103FC000B0F1804F07D0A04218BFA84203D0B04242
:103FD00018BF604504D14F6822F0700247EA020220
:103FE000984218BFB0F1804F25D0A04218BFA84218
:103FF00021D0B04218BF60451DD0A0F18044B4F577
:10400000A0341CBFA0F18044B4F5A23413D0A0F1B9
:104010008044B4F5A4341CBFA0F18044B4F5C0546E
:1040200009D0A0F18044B4F5E0541CBFA0F1804455
:10403000B4F5005403D1CC6822F4407222434C6999
:1040400022F08002224302608A68C2620A688262A9
:10405000984212BF6045096901634FF00101416157
:10406000F0BC704700000140000400400008004020
:10407000000C0040000401400FB4084B10B504A927
:1040800002AA039800F01CF8044602A9002000F0E0
:10409000B8F9204610BC5DF814FB0000034400088A
:1040A00002E008C8121F08C1002AFAD17047704701
:1040B000002001E001C1121F002AFBD1704700005F
:1040C0002DE9FF4F8BB088460546002606E02528DF
:1040D0000BD0DDE90D1290476D1C761C2878002866
:1040E000F5D10FB03046BDE8F08F0024A146A246BE
:1040F0000122AE4900E0044315F8013F203B02FADB
:1041000003F00842F7D128782A2810D06FF02F0248
:104110002878A0F13001092915D809EB890102EBB3
:10412000410144F0020400EB01096D1CF0E758F86E
:10413000041B5FEA010903D544F40054C9F10009E6
:1041400044F002046D1C28782E2817D115F8010FB1
:1041500044F004042A280ED06FF02F022878A0F132
:10416000300109290AD80AEB8A0102EB410100EB70
:10417000010A6D1CF2E758F804AB6D1C28786C2816
:104180000FD006DC4C2817D068280DD06A2814D12F
:1041900004E0742810D07A280FD10DE044F4001404
:1041A0000AE044F4801401E044F440146978814248
:1041B00002D104F580146D1C6D1C2878692865D027
:1041C00006DC00288DD0632827D0642806D15DE066
:1041D0006E2808D073282AD0752877D0DDE90D1213
:1041E0009047761CE0E0C4F30250022809D003286F
:1041F0000DD0D8F8001004280DD00E6008F1040886
:10420000D2E0D8F80010F217C1E90062F6E7D8F85A
:1042100000100E80F2E70E70F0E718F8041B8DF81E
:10422000001000208DF80100EB46012003E058F853
:1042300004BB4FF0FF3061074FF0000701D40AE0E4
:104240007F1C57450DDA8742FADB1BF8071000295F
:10425000F6D106E07F1C8742FCDB1BF80710002923
:10426000F8D1DDE90D23A9EB07008146214600F0D6
:10427000B1F83044C61904E0DDE90D121BF8010B5A
:1042800090477F1EF8D22146484688E058F8040B34
:10429000C4F302514FF00A0B032900D100B20429E4
:1042A00000D140B2002802DA40422D2102E021056F
:1042B00005D52B218DF82410012104E006E0E1074B
:1042C00010D02021F6E708AF089113E058F8040B4E
:1042D000C4F302514FF00A0B032900D180B2042924
:1042E00000D1C0B20021EEE75946FCF7D8F93031D1
:1042F00007F8011D0028F7D1ADEB070000F1200BF6
:10430000600702D524F4803401E04FF0010ADA4559
:1043100002DDAAEB0B0000E00020824600EB0B015F
:1043200008980144A9EB01000A90E00306D4DDE9F6
:104330000D2321460A9800F04DF806444FF000097D
:1043400008E009A911F80900DDE90D12904709F10B
:104350000109761C08998945F3DBE0030CD5DDE9FA
:104360000D2321460A9800F035F8064404E0DDE903
:104370000D1230209047761CBAF10001AAF1010A13
:10438000F5DC05E0DDE90D1217F8010B9047761C0E
:10439000BBF10001ABF1010BF4DC0A982146DDE929
:1043A0000D2300F005F806446D1C97E6092801006E
:1043B0002DE9F041044600251E461746880404D422
:1043C00005E039462020B0476D1C641EF9D528460B
:1043D000BDE8F0812DE9F041044600251E469046D7
:1043E000C80301D5302700E02027880404D505E064
:1043F00041463846B0476D1C641EF9D52846BDE8D5
:10440000F0810A68531C0B60107070472DE9F0476B
:104410000024DFF8BC816F4E6F4D27464FF4FA79C8
:104420004FF01E0A04EB440008EB4000818800684E
:10443000FDF7BAFE002804EB840032D000EBC40084
:10444000315C11F0020F04BF21F00201315407D09A
:10445000A5F8029041F0010131548119C1F805A07D
:10446000315C21F00801CA0862F341013154C1F303
:1044700040028119C1F80120D1F80920002A19BF92
:10448000521EC1F80920325C22F0040208BF3254E7
:10449000D1F80520002A1CBF501EC1F8050031D1FB
:1044A0002CE000EBC4018819D0F80120322A16D97B
:1044B000A5F80290C0F80170725C67F3410242F007
:1044C00008027254D0F80930002B08BF12F0040F14
:1044D00018D142F004027254C0F809A012E0012A77
:1044E00006D9D0F809201AB9725C42F0020272545F
:1044F000D0F80110491CC0F8011003E0315C21F034
:1045000001013154601CC4B2062C8BD333484FF4E4
:10451000804190F8450010F0010F314826D0044644
:10452000FDF742FE002804BF287800280CD04FF485
:1045300080412046FDF738FEF8B1A88800280CBF5E
:104540002F70401E19D00FE0697801200029A9883A
:1045500005D0322908BF6F7005D0481C04E001293E
:1045600088BF6870F9D92870A88006E0FDF71CFEA6
:10457000002814BF0020012068701A4E40213046E8
:10458000FDF712FE184C802120703046FDF70CFE1E
:10459000164E607001213046FDF706FEA070022124
:1045A0003046FDF701FEE0706988114841B10122F3
:1045B0009103FDF7FEFD6888401E6880BDE8F08726
:1045C000BDE8F04700224FF48041FDF7F2BD000046
:1045D00080980008F8420020880000204643002010
:1045E00000080240000002408E000020000402404B
:1045F000000C024010B442880368C2F38B02C3F37C
:104600008B142244B0F804C05208130ACCF3051CE2
:1046100013FB0CF3002B08BF0123B1F800C09C4230
:1046200083BFE31A63F30B0CA1F800C00CF47043D2
:1046300098BF0B804088C0F38B0340F6FF70A0EB5F
:10464000030C0001944507D91A44B1F8013062F314
:104650000F13A1F8013004E0B1F801200243A1F8E2
:1046600001200B88B1F80120C3F30B0CBCEB121F27
:1046700004D832F00F021CBF10BC704703F4704224
:104680000A80B1F801201043A1F8010010BC704766
:104690004FF0000C002A98BF70472DE9F00740F654
:1046A000FF794FF6F07800BFCCEBCC031D180CEB74
:1046B0004C036C882E68C4F38B04C6F38B173C4400
:1046C000B5F804A064080B44260ACAF3051A16FBC1
:1046D0000AF6002E08BF0126B74288BFBF1B1E88FE
:1046E0008CBF67F30B0606F470461E806D88C5F319
:1046F0008B05A9EB0506A64207D92C44B3F8015057
:1047000064F30F15A3F8015005E0B3F8014044EA43
:104710000804A3F801401C88B3F80150C4F30B0649
:10472000B6EB151F02D835F00F0508D104F470441C
:104730001C80B3F8014044EA0804A3F801400CF1DE
:10474000010303F0FF0C9445AED3BDE8F0077047BA
:104750002DE9F05F0546140088464FF0000018BFB1
:10476000B1490BD0C0EBC00211F800C0AB5C401CDB
:104770006CF34513C0B2AB548442F3D8AB4FDFF8AF
:10478000B0C297F870000CF10809A9F11C0610F0EE
:10479000400F30781AD0012822D90020002C12D9DD
:1047A000C0EBC0014A193CF81030116863F3911155
:1047B000116039F810305188401C63F38D01C0B28C
:1047C00051808442ECD80520307001E0012807D9DF
:1047D00098480122017822EA910262F301010170F6
:1047E00030784FF6FF7243F6FC7340F6FF7A0528E7
:1047F00028BFBDE8F09FDFE800F003325463AB0050
:1048000097F8700010F0100F08BFBDE8F09F4FF44C
:10481000485070600020002C1BD900BFC0EBC001C5
:1048200029440B68C3F38B132CF810304B88C3F367
:104830008B0329F810300B68401C43F47F5343F47A
:1048400070330B604B88C0B26FF38D034B80844292
:10485000E4D8A7F86A2004F0CDF8022075E097F8B4
:10486000700010F0100F08BFBDE8F09F0020002C72
:1048700013D900BFC0EBC0012944401CD1F800C0CF
:10488000C0B26FF3911CC1F800C0B1F802C08442FD
:104890004CEA030CA1F802C0ECD8A7F86A20042067
:1048A00053E07068642803D9401E7060BDE8F09F33
:1048B00097F8700040F0200087F87000032044E073
:1048C00070680028F0D10021002C84BF4FF4801CB8
:1048D000CCF1000832D900BFC1EBC1002844026806
:1048E000B0F802B0C2F38B19CBF38B0EF14504D8AC
:1048F0002BF0030939F4404905D16FF3911202609E
:1049000042881A434280D0F800B0B0F80290CBF34E
:104910008B1EC9F38B0296450CD152453DBF0CEB63
:10492000B9324FEAB242428008EBBB4224BF4FEAA1
:10493000B2320260481CC1B2A142CDD3B7F86A00BE
:10494000401FA7F86A003078401C3070BDE8F09F27
:1049500004F04AF90021317097F8700061F30410F7
:10496000010961F38610810961F34510002187F880
:104970007000002C8CBF4FF6F077BDE8F09F00BFB1
:10498000C1EBC100431901EB41005A88D3F800C0C4
:10499000C2F38B02CCF38B163244B3F80490520866
:1049A00040444FEA122CC9F305191CFB09FCBCF169
:1049B000000F08BF4FF0010C664506D9A6EB0C0CA2
:1049C00006886CF30B06068005E0B0F800C00CF416
:1049D000704CA0F800C05B88C3F38B03AAEB030CF8
:1049E000944588BF1344B0F801208CBF63F30F12C5
:1049F0003A43A0F801200288B0F80130C2F30B0C52
:104A0000BCEB131F02D833F00F0307D102F470423E
:104A10000280B0F801203A43A0F80120481CC1B23E
:104A2000A142ADD3BDE8F09F8E0000204643002098
:104A3000300200209300002070B58AB00026294C77
:104A4000019604960096039606962548099601213C
:104A50002060089107910E2105914FF44041029189
:104A60006946FCF797FC204D0F200590E8784FF041
:104A7000804100F0030041EA006081B2000CCDE902
:104A800000014FF44340CDE9020669462068FCF777
:104A900081FC102005902868A978C0F34D104001D2
:104AA000C90840EAC14040F0004081B2000CCDE9A5
:104AB00000014FF6E07003904CF2FF00029069464F
:104AC0002068FCF767FC02212068FCF74DFC0121FF
:104AD0002068FCF749FC2068FCF702FF0AB070BDB3
:104AE00058410020A8000020464300202DE9F04F47
:104AF0008FB04FF00008CDF82080CDF82480CDF89D
:104B00001880CDF81C80CDF80C80CDF81080FE4EBA
:104B1000CDF814803068029006A802F021FEFB4F09
:104B20004FF00109002800F035814FF4FA7A4FF078
:104B3000040B072596F8700040F0010086F870001D
:104B4000C6F86CA09DF81B10C1F38301062980F004
:104B50001B81DFE801F097BB34033AFD9DF81C1080
:104B6000002900F011819DF81D1011F0010F1CBFEC
:104B700040F0080086F8700096F8700010F0080FFA
:104B800008D011F0040F18BF40F0100010D000BF83
:104B900086F8700011F0020F74D096F8710040F0A2
:104BA000040086F8710002F049FEC6F87200EBE0DE
:104BB00011F0080F18BF40F04000E9D1EAE710F00B
:104BC000080F18BF87F80090DEE010F0100F7DD1BD
:104BD0009DF80B0020F03C0014308DF80B009DF880
:104BE0001C0000284ED09DF81D0010F0FC0F49D18C
:104BF0009DF80D1010F0030221F0FC018DF80D104E
:104C000004D0012A3FD0022A6AD0BDE08DF80CB052
:104C100000208DF80D00706CCDF80E00B6F848003D
:104C2000ADF8120096F84A008DF8140002A803F0BF
:104C30009BFE96F845000024C0F34400002821D9CB
:104C40008DF80C509DF80D0020F00300401C8DF8ED
:104C50000D00C4EBC4003044C16CCDF80E10B0F8A8
:104C60005010ADF8121090F852008DF8140002A800
:104C700003F07AFE601CC4B296F84500C0F344000D
:104C8000A042DDD880E096F845000024C0F344003F
:104C9000002879D98DF80C509DF81D009DF80D1055
:104CA00060F30101C4EBC40030448DF80D10C16CF9
:104CB000CDF80E10B0F85010ADF8121090F8520068
:104CC0008DF8140002A803F04FFE00E05AE0601CCB
:104CD000C4B296F84500C0F34400A042DAD853E0CD
:104CE00096F845C01CF03E0F4ED09DF81E2012F0E5
:104CF0001F0F19D060F3010102F01F00C0EBC000CC
:104D00008DF80C5030448DF80D10D0F81910CDF8F6
:104D10000E10B0F81D10ADF81210C07F8DF8140001
:104D200002A803F021FE2FE00024CCF34400002869
:104D30002AD900BF8DF80C509DF81D009DF80D106C
:104D400060F30101C4EBC4008DF80D10304400E0A5
:104D500015E0016ACDF80E10818CADF8121090F8B4
:104D600026008DF8140002A803F0FEFD601CC4B2FA
:104D700096F84500C0F34400A042DBD804E010F0F0
:104D8000100F35D087F8019006A802F0E9FC002842
:104D90007FF4D0AE96F8701011F0080F02D011F029
:104DA000100F71D087F800807878C8B187F801803B
:104DB0009DF80B0020F03C00001D8DF80B00062034
:104DC0008DF80C0006F13C0002F01AFDF06BCDF8F6
:104DD0000D00B6F84000ADF8110002A803F0C4FDC4
:104DE0004C484B49006803F03FFF0FB0BDE8F08F1F
:104DF0009DF81C100029C7D09DF81D0010F0FC0F75
:104E0000C2D1B6F84520C2F38512B2EB900FBBD3E6
:104E100010F0030039D00128B6D19DF81E0096F895
:104E2000452000F01F00C2F34402904220D8BDF894
:104E30002220C2F30512322A1AD8DDF81E20BDF84E
:104E40002030C2F38B12C3F38B03934228BF072990
:104E50000ED3C0EBC0013144DDF81E20C1F845205F
:104E6000BDF82220A1F849209DF8242081F84B208C
:104E700000EB40022849C0EBC000114430444530EB
:104E8000C91EFFF7B7FB7FE71AE09DF81E0086F802
:104E900044009DF81F0096F8451060F3000186F865
:104EA00045109DF82000010996F8460061F30510B1
:104EB00086F846000109F07861F30100F07063E7BD
:104EC0009DF81800C0F3C100022808BF41F002009D
:104ED00004D0012808BF21F0020001D186F870003B
:104EE00096F87000C0F34001C0F380021143FA78D5
:104EF000914204D1BB78C0F300129A4203D0F970FA
:104F0000C0F30010B87009E046430020AC00002058
:104F10009D000020A80000201A440020F068D6F868
:104F20000510C0F31320C1F3132188420ED1D6F827
:104F30000E00D6F80710000BB0EB113F06D102F0BF
:104F40004BFC3178C1F3C101884210D07068C6F8BB
:104F50000B003089A6F80F00B07A707402F03CFCA8
:104F6000317860F3C401317087F8009003E038783D
:104F700000283FF419AF87F8018087F80080CDF84A
:104F80002C80CDF83080CDF8348031680A919DF8BE
:104F90002B10012021F03C0108318DF82B109DF8D9
:104FA0002D1060F3010121F00300401C20F0FC00F3
:104FB0008DF82D0008208DF82C007068CDF82E009B
:104FC0003089ADF83200B07A8DF834000AA803F0C9
:104FD000CBFCE9E670B56420FCF7A2FEFBF744FDCC
:104FE0006420FCF79DFE7E4C94F83C0020F01F00EE
:104FF000801C84F83C00A08F20F4F0706030A08703
:1050000078480268801D22600178A0F1010C9CF8AC
:10501000003000789CF800C00502B4F83D0065F34C
:105020004B000CEB500C6CF34B0003EB012161F3D4
:105030004B006D49A4F83D00097894F845304FF0D5
:105040001E0C61F3450384F84530A178BCEBD10F09
:1050500015D26FF3521202F180012160A17821F084
:10506000F8014031A170E17821F00301491C41F0C1
:10507000C001E17023F03E01083184F8451094F836
:105080004510C1F34402042A02D811F03E0F04D1A6
:1050900021F03E01083184F84510C0F34A0140F286
:1050A000E272914203D3A1F5E062FF3A05D16FF3BA
:1050B0004B0000F6C870A4F83D004C490878002564
:1050C000FF2850D0B1F8010010F47C6F4BD1487824
:1050D000C0F34400042846D894F84500C0F34402C5
:1050E0004878C0F3440082423DD148780022C0F3A2
:1050F000440090422BD900BFC2EBC2000844037A9F
:1051000002F1010C03F01F0363452CD10289837A5D
:1051100042EA03424389C2F38B12C3F38B039A42E0
:1051200021D88289C2F30512322A1CD8427BC2F3ED
:105130008202042A17D8007AC0F34010012812D83E
:1051400048780CF0FF02C0F344009042D4D82822E3
:1051500004F14400FBF7C5F8282204F14401244877
:10516000FBF7BFF801E000F051F822482249057032
:1051700094F84500C0F3440204F14C00FFF788FAAC
:1051800094F845100020C1F34401002910D9411CB6
:10519000C0EBC000204490F8202061F3040280F8A6
:1051A0002020C8B294F84510C1F344018142EED8E2
:1051B00094F846000109E07861F30100E07003F023
:1051C000E9FD0A220D490E48FBF7F4FFFFF734FC16
:1051D0000C48FDF733FDBDE870400B48FDF769BD95
:1051E00046430020F0BF0008F4BF000800C00008DC
:1051F000DE430020920000201A44002006440020D4
:10520000B0400020D8410020684200202949642095
:1052100081F84400B1F8450020F47C60A1F8450015
:1052200091F8460020F03000103081F8460091F8E7
:1052300045200020C2F34402002A8CBF43F6FC73D1
:105240007047421CC0EBC000084490F84CC062F3A9
:10525000040C80F84CC0D0F84CC06FF3911CC0F81F
:105260004CC0B0F84EC04CEA030CA0F84EC0B0F8E9
:1052700050C02CF47C7C0CF1100CA0F850C0B0F89D
:105280004FC04CF47C6CA0F84FC090F851C02CF08B
:105290001C0C80F851C090F84CC02CF0200C80F809
:1052A0004CC0D0B291F84520C2F344028242C8D823
:1052B0007047000046430020002808BF704770B5C3
:1052C000144C2078002818BF70BD2822124D05F11B
:1052D000440105F19800FBF716F8002808BF70BDDF
:1052E00002F0BEF9002818BF70BD022020702822ED
:1052F00005F14401094802F0B9F9002818BF01205E
:1053000006D1282205F144010548FAF7EAFF0020FA
:10531000207070BD920000204643002000C00008AD
:10532000DE4300202DE9F04F95B00020FB4E0090A9
:1053300001900290039004900590069007900890C9
:10534000099096F8701011F0800F314691F84510D1
:10535000C1F3440518BF6D1CDFF8C4A3DFF8C49384
:105360004FF0010B9AF8001011F007010FD009F26D
:105370004327A7F60B05DFF8B083A5F28C5401296B
:1053800000F0CB82022901F0168001F04FBF00210E
:105390000846FBF73BFBE548FBF7F6FB0121002045
:1053A000FBF734FB96F8710010F0010F18BFE0A076
:1053B00014D000BFFBF7E8FB01217F20FBF726FBA1
:1053C000D6F83D0096F84130020BE2A16846FEF7A0
:1053D00053FE6846FBF72AFC00240CE096F87000A8
:1053E00010F0080F18BFDEA0E4D110F0010F14BFB9
:1053F000E4A0EDA0DEE7A71CF9B20020FBF706FB56
:105400009AF80000B5EBD00F98BF00275CD900F0E8
:1054100007015144097AA14212D196F84510C1F30F
:105420004401B1EBD00F98BFEAA006D90BEBD00234
:10543000EBA16846FEF720FE6846FBF75BFC2BE01D
:1054400004EBD000401A401C00F0FF0896F845001D
:10545000C0F34400404524D34246E1A16846FEF72C
:105460000BFE96F8970010F0010F12D0D6F8050049
:10547000C0F31321A8F101000BFA00F0014204BFB0
:10548000D6F8071010EA113003D06846FBF732FC5B
:1054900002E06846FBF778FBF9B22720FBF7B6FA83
:1054A00019E0401C404506D196F8700010F0800FBE
:1054B00018BFC8A0EED100270020FBF76FFC781CB6
:1054C000C7B2272FF8D306E00020FBF767FC781C53
:1054D000C7B2272FF8D3FF20FBF760FC0020FBF7B3
:1054E0005DFC601CC4B2052C85D396F84500C0F362
:1054F00044019AF80000B1EBD00F40F2B18196F868
:10550000971011F0010F6AD0D6F80510C008C1F34A
:1055100013210BFA00F05546014218BF00275ED058
:10552000B81CC1B22920FBF771FA07EBC7000024B1
:1055300000EB07182878C008C0EBC0003044CD212C
:10554000B0F84F00C0F3851010FB01F0C00AC0EBAB
:10555000001000EB8000484408EB0401405CC043AD
:10556000C0B2FBF71BFC601CC4B2192CE2D30020B4
:10557000FBF714FC0020FBF711FC0020FBF70EFCEE
:105580000020FBF70BFC781CC7B2032FC8D3052102
:105590002920FBF73BFA96F8711011F0020F2978D9
:1055A0004FEAD101C1EBC10101EB06000BD0018C28
:1055B000B0F84F00C1F34513C0F385128BA16846C4
:1055C000FEF75AFD07E0B0F84F008BA1C0F385123B
:1055D0006846FEF751FD6846FBF78CFB5DE0002551
:1055E0005746A81CC1B22920FBF710FA05EBC500ED
:1055F000002400EB05183878C008C0EBC000304428
:10560000CD21B0F84F00C0F3851010FB01F0C00AA7
:10561000C0EB001000EB8000484408EB0401405C44
:10562000FBF7BCFB601CC4B2192CE4D30020FBF7D1
:10563000B5FB0020FBF7B2FB0020FBF7AFFB00201F
:10564000FBF7ACFB681CC5B2032DCAD3052129208A
:10565000FBF7DCF996F8711011F0020F39784FEA78
:10566000D101C1EBC10101EB06000BD0018CB0F8F8
:105670004F00C1F34513C0F385125CA16846FEF7E5
:10568000FBFC07E0B0F84F005BA1C0F38512684651
:10569000FEF7F2FC6846FBF777FA96F89700594F49
:1056A00010F0010F38D09AF80000D6F80710C008A3
:1056B0000BFA00F010EA113F18BF00252CD0A81CEF
:1056C000C1B24620FBF7A2F90024C5EBC50800BF14
:1056D0009AF8000004EBC801C008C0EBC0003044D9
:1056E00090F85100C0F38200C0EBC00007EB4010FF
:1056F000405CC043C0B2FBF751FB601CC4B2382C05
:10570000E6D30020FBF74AFB0020FBF747FB681CB1
:10571000C5B2042DD3D3D3E076E000004643002089
:1057200026440020F8A30008CDCCCCCC447300085C
:10573000E7E0F9E8F2E020202020202020202020AF
:105740002020202020202020202020202020202059
:1057500000000000202025753A2530327500000039
:10576000E0EAF2E8E2E8F0EEE2E0ED20202020209E
:105770002020202020202020202020202020202029
:1057800020000000EFEEE4EAEBFEF7E5ED2020203C
:105790002020202020202020202020202020202009
:1057A0002020202020200000EEE6E8E4E0EDE8E5FF
:1057B00020202020202020202020202020202020E9
:1057C00020202020202020202020202020202020D9
:1057D00020000000F0E5E62E20C4D32000000000E9
:1057E000EAE0EDE0EB25327500000000253032756F
:1057F0002F25303275000000202020253032752002
:1058000020202000D09900080024A01CC1B246200E
:10581000FBF7FCF80025C4EBC40800BF9AF80000B1
:1058200005EBC801C008C0EBC000304490F851003F
:10583000C0F38200C0EBC00007EB4010405CFBF7F8
:10584000ADFA681CC5B2382DE8D30020FBF7A6FAE4
:105850000020FBF7A3FA601CC4B2042CD5D32FE0C0
:105860009AF801004FF0020110F0E00F4FF029000C
:105870002DD0FBF7CBF8F9A0FBF786F903212920FF
:10588000FBF7C4F8FCA0FBF77FF904212920FBF704
:10589000BDF8FEA0FBF778F905212920FBF7B6F843
:1058A00096F8450010F0010F96F8970000F00100FF
:1058B0002DD0002818BFFBA025D000BFFBF71AFA97
:1058C00006212920FBF7A2F8FCA001F0C3BBFBF7DF
:1058D0009DF8E2A0FBF758F903212920FBF796F881
:1058E000E5A0FBF751F904212920FBF78FF8E7A089
:1058F000FBF74AF905212920FBF788F896F84500BF
:1059000010F0010F07D0E7A0FBF73EF9D8E7002819
:1059100018BFF2A0D2D1F1A0F6E70A900B900C903C
:105920000D900E900F9010901190129000211390F6
:105930000846FBF76BF89AF80000ED490BEBD00234
:105940000AA8FEF799FB0AA8FBF71EF99AF80100CE
:1059500040090AD0012800F00282022800F0F282F9
:10596000032800F0848401F061BC01210020FBF7D2
:105970004DF8E0A0FBF7BEF901212920FBF746F81E
:10598000FF20FBF70BFA0020FBF708FADBA0FBF780
:10599000FBF80020FBF702FADAA0FBF7F5F802218A
:1059A0000020FBF733F8DAA0FBF7EEF802212920FC
:1059B000FBF72CF8FF20FBF7F1F90020FBF7EEF9DD
:1059C0005FF000049AF80000C008C0EBC00030444B
:1059D000CD21B0F84F00C0F3851010FB01F0C00AD4
:1059E000C0EB001000EB80004844005DFBF7D6F9E7
:1059F000601CC4B2192CE5D300240020FBF7CEF9BB
:105A0000601CC4B20C2CF8D30024385DFBF7C6F937
:105A1000601CC4B20A2CF8D35FF000049AF80000AE
:105A2000C008C0EBC0003044CD21008CC0F345104D
:105A300010FB01F0C00AC0EB001000EB80004844EE
:105A4000005DFBF7ABF9601CC4B2192CE6D300244F
:105A50000020FBF7A3F9601CC4B20C2CF8D3002083
:105A6000FBF79CF903210020FAF7D0FFABA0FBF76E
:105A70008BF803212920FAF7C9FFFF20FBF78EF9E5
:105A80000020FBF78BF900249AF80000C008C0EB57
:105A9000C0003044CD21B0F84F00C0F3851010FB9A
:105AA00001F0C00AC0EB001000EB80004844204425
:105AB000407EFBF773F9601CC4B2192CE4D39AF84A
:105AC000000099A1C008C0EBC0003044B0F84F00FE
:105AD000C0F385126846FEF7CFFA6846FBF754F824
