:020000040800F2
:10000000B81500204D0100086D1F0008BD1C000838
:1000100000000000000000000000000000000000E0
:10002000000000000000000000000000B51F0008F4
:1000300000000000000000000B010008352000084F
:100040005F0100085F0100085F0100085F01000810
:100050005F0100085F0100085F0100085F01000800
:100060005F010008AD0300085F0100085F010008A0
:100070005F0100085F0100085F010008112100080E
:100080005F0100085F0100085F0100085F010008D0
:100090005F0100085F0100085F0100085F010008C0
:1000A0005F0100085F0100085F0100085F010008B0
:1000B0005F0100085F010008790300085F01000884
:1000C0000348854600F0BCF800480047A92D000809
:1000D000B8150020084B19680868203080F309889B
:1000E000022080F31488BFF36F8F3FBCAE4608BC7C
:1000F00004BC62B61847000038000020EFF31080FF
:1001000072B6704780F310887047EFF309800E4B8A
:100110001A6820381060F0C044464D4656465F4687
:10012000F0C008B572B603F041FA62B60CBC1168B3
:1001300008681030F0C8A046A946B246BB4680F316
:1001400009882038F0C81847380000200448804744
:1001500004480047FEE7FEE7FEE7FEE7FEE7FEE7AE
:10016000B5200008C100000830B50B46014600204C
:100170002022012409E00D46D5409D4205D31D46AD
:100180009540491B2546954040191546521E002DA5
:10019000F1DC30BD10B5202A04DB0846203AD040FF
:1001A000002110BD0B46D340D0402024A21A91401C
:1001B0000843194610BD03460B439B0703D009E0D3
:1001C00008C9121F08C0042AFAD203E00B78037092
:1001D000401C491C521EF9D27047D2B201E0027095
:1001E000401C491EFBD270470022F6E710B51346AB
:1001F0000A4604461946FFF7F0FF204610BD30B509
:1002000004460020034600E05B1C934203D2E05CFE
:10021000CD5C401BF8D030BD0321001D401E03788B
:1002200012021A43491EF9D51046704703460322AD
:100230000870000A491C521EFAD518467047000083
:10024000064C0125064E05E0E36807CC2B430C3C29
:1002500098471034B442F7D3FFF736FF8C380008C4
:10026000AC38000810B50146406A426C50231A426F
:100270000AD1416C01225202114341640168CA68EB
:100280001205920F05D020E0C06B026B0846904724
:1002900010BD026A002A18D10A68120715D58A68AB
:1002A00053070122002B09DB4B680C24A3434B604E
:1002B000416C130299431143416406E0416C2023D1
:1002C00019434164816C1143816400F0F7F910BD5A
:1002D00010B5406A416C402211434164816C042294
:1002E0001143816400F0ECF910BD10B5406A00F0D4
:1002F000E6F910BDF8B5044600200090206881683A
:100300008907890F012905D10168C9072CD1C16866
:10031000090429D48168154A1026114001250029B5
:1003200015D1816829438160124811490068FFF79F
:100330001BFF00E0401E00900028FBD100F09CFF56
:1003400007460CE000F098FFC01B022807D9606C3C
:1003500030436064A06C2843A0640120F8BD20688D
:100360000068C043C007EDD10020F8BD1700008031
:1003700040420F000000002010B5094800684069A5
:10038000800704D500220749054802F01BFF0649F3
:10039000034802F0A1FF024800F05DFB10BD000021
:1003A00020010020C2020020C3030020F8B51E482F
:1003B0000068400734D51D481D4B02688568510010
:1003C0005C5A2D1B1B4C2688AD1985605E521A4E57
:1003D0002D04737A377A1B023B43184F2D0D3B4097
:1003E000ED002B4333721B0A7372114B4668203B9E
:1003F0005D5A6488751B2D1945605C520E4922397F
:100400004B7D0C7D1B0223431B0B2C041B03240D73
:1004100023430B751B0A4B75521C1107090F016012
:10042000074800F015FDF8BD000002401000002054
:10043000A8010020220000208B0200200780FFFF7F
:10044000DC00002010B5044600680549401814215E
:10045000FFF78AFE800020640248E06310BD0000C0
:10046000F8FFFDBF0000024030B5056C0124AC4030
:10047000C56B6C60046863604368102B036803D02D
:1004800099600068C26030BD9A600068C16030BD8C
:10049000FEE7000006490020C86106480169042201
:1004A000114301610169402211430161704700005D
:1004B0000802002000200240064A0021D1610649BE
:1004C0000A6902231A430A614861086940221043FD
:1004D00008617047080200200020024010B5054B5B
:1004E0000022DA61044A1369012423431361018065
:1004F00010BD0000080200200020024010B50B4A89
:100500000020D168CB060A4904D5C86902231843E4
:10051000C8611020D3685B0705D5CB69012423434C
:10052000CB6104210843D06010BD000000200240D0
:100530000802002070B5054600F09EFE0646104CED
:100540000AE0681C08D0002D04D000F095FE801B46
:10055000A84201D9032070BDE068C007F1D1E0686E
:10056000800601D52020E060E068C00602D4E06883
:10057000400703D5FFF7C2FF012070BD002070BD0A
:100580000020024083B2000C0B6010607047000036
:10059000F8B500250446403400952278012A3BD066
:1005A0000122227003689E68760776D43F4F4E681A
:1005B000BE4254D09E6A0F78BA4016439E62012311
:1005C000826B1B079A421FD0012A1DD0022A1BD022
:1005D000032A19D0042A17D0052A15D0062A13D0C9
:1005E000072A11D002688B6856697607760FB342E6
:1005F0000AD05369DB08DB005361006842690B7A5B
:100600005B075B0F1A4342610868102806D0112867
:1006100004D0122802D045E00220F8BD244A936895
:10062000102809D011280AD0012000060343936046
:100630000868102806D035E00120C005F6E7012043
:100640008005F3E71C481B490068FFF78DFD0A2170
:10065000484300E0401E00900028FBD122E0986A49
:100660000E78B240904398620868102803D0112891
:1006700001D0122816D10E498A68102807D01128F7
:1006800008D00120000682438A600BE005E00120CB
:10069000C005F8E701208005F5E7416C20221143F1
:1006A00041640125002020702846F8BD011000009B
:1006B0000027014040420F000000002070477047B3
:1006C00070470000F8B500250446002803D0606C90
:1006D000002802D008E00120F8BD0020A0644021DD
:1006E0000855204600F0A8F8606C1022C0060028CB
:1006F00070DB2068816849076CD4616C13019943F1
:1007000002231943616481688907890F012905D192
:100710000168C9070FD1C16809040CD4C168182346
:100720009943A3681943C16020680169636889001F
:100730008908194301612068C1683D4B1940C160B7
:10074000A069E1698003C9030843216A4B03184388
:10075000636B012B02D001231B0300E0002318432D
:10076000E36818432369022B09D000231843236B45
:10077000666A5B0018430123012E02D00AE00423BD
:10078000F4E7002927D0616C202631436164A16C15
:100790001943A164A16A0E46FF3EC23E02D0E66A3A
:1007A000314308432168CE680643CE600126A16B21
:1007B0003607B14213D0012911D002290FD00329E5
:1007C0000DD004290BD0052909D0062907D0072907
:1007D00005D010E028E0012109040843DAE7216888
:1007E0004E69F608F6004E6121684E69278F7F0733
:1007F0007F0F3E434E612168C9680E4E31408142F1
:1008000007D10020A064606C80088000401C6064F8
:1008100008E0606C0221884310436064A06C1843B8
:10082000A06401252846F8BD606C10436064F8E7B9
:100830001902FEFFE7FF3F8370B586B0054614211D
:100840006846FFF7D1FC1C492868884232D11B4911
:100850008A69401502438A618A69024005924A69A1
:10086000000202434A6149690026014005911120B6
:10087000009003200190092069460296C00600F00E
:1008800043FC0F480F4C41C480202660606040004C
:10089000A0608000E06020202061032000036061F0
:1008A0000848083C00F022FB002801D0FFF7F0FDCB
:1008B000EC63656206B070BD002401400010024088
:1008C00008000240DC000020F7B50446006800255F
:1008D000806840073DD426464036307801280AD04B
:1008E00001273770E069012807D02046FFF702FD95
:1008F000050002D02EE00220FEBD606C16490840C3
:10090000FF210131084360640020A0643070E16B76
:1009100012488862E16B1248C862E16B11480863B3
:1009200021681C2008602068416810221143416042
:100930002068C1683943C1602168E06B4031029B87
:10094000019A00F0FFFA2068816804221143816057
:1009500000E002252846FEBDFEF1FFFF650200080B
:10096000EB020008D102000830B52022125C0368B7
:10097000012A08D0022A06D0416A012292041143BA
:100980004162012030BDDA1DFF32FA3214680120C5
:10099000044314600C7DE406E40EA040D469844353
:1009A000D461CC69002C1AD1D4688443D4608C897A
:1009B0008D882404ADB22C434D69ED00ED18FF3550
:1009C000FF3502352C640C890D882404ADB22C430C
:1009D0004D69ED00ED18FF35FF3502356C64CC69CB
:1009E000012C1AD1D4680443D4600C888D88240467
:1009F000ADB22C434D69ED00ED18FF35FF350235E2
:100A00002C640C898D892404ADB22C434D69ED0012
:100A1000EB18FF33FF3302335C648B69002B5368A0
:100A20000BD0034353600B69002B536907D003437A
:100A30005361096A012904D006E08343F2E7834346
:100A4000F6E7D1690143D1611068400840001060A9
:100A5000002030BD7047F0B50546006885B0466996
:100A60000024416801918768C1680391016902917E
:100A700081690091F10748D0F90714D00121816004
:100A8000B80703D5284600F0DDF90CE0780702D559
:100A90000124E40207E0380702D50124240302E020
:100AA000284600F0CEF9F80517D5FF202968013057
:100AB0008860B80503D5284600F0C6F90DE0780532
:100AC00002D50120400303E0380503D5012080034F
:100AD000044302E0284600F0B6F9F80315D50120DA
:100AE000296800048860B90303D5284600F0AEF9F0
:100AF0000BE0790302D50120C00301E0390301D5E1
:100B0000044302E0284600F0A0F93007102700282F
:100B100006DA0398C00603D5780104432868C76045
:100B2000700708D50398000705D529680820C86014
:100B3000284600F055F9B00706D52868C068800738
:100B400002D0284600F04DF9700607D50298C0067D
:100B500004D501208002044328680761B00608D547
:100B60000298000705D5296808200861284600F08A
:100B700039F9F00606D528680069800702D02846B2
:100B800000F031F9B00307D50198C00604D52868F4
:100B90004760284600F028F9F00308D501980007BF
:100BA00005D5296808204860284600F050F930042F
:100BB0003CD5019841070420002935DAF10504D518
:100BC0000099C90701D001210C43B10504D5009952
:100BD000890701D502210C43710503D50099490706
:100BE00000D5044331051FD500994906490F1BD094
:100BF000009A70210A40402A11D006DC102A09D040
:100C0000202A09D0302A0BD108E0502A18D0602AB7
:100C100006D117E0082202E03C4301E02022144301
:100C20002A6893698B43936129684860002C05D03A
:100C3000686A204368622846FFF70CFF05B0F0BDE4
:100C40008022ECE7FF220132E9E7F8B5040005D085
:100C5000254620352878002802D004E00120F8BD80
:100C6000204600F07BF82068016802229143016071
:100C700000F002FB012706467F0404E000F0FCFAC6
:100C8000801B0A2811D8206840688007F6D42068A5
:100C9000016801221143016000F0EEFA06460AE005
:100CA00000F0EAFA801B0A2805D9606A38436062BE
:100CB00005202870D2E720684068C007F0D0217E68
:100CC0008020012921680A683BD082430A60617E46
:100CD0004020012921680A6835D082430A60A17E3C
:100CE0002020012921680A682FD082430A60E17E12
:100CF0001020012921680A6829D002430A60217F57
:100D00000820012921680A6823D082430A60617F94
:100D10000420012921680A681DD082430A60E16825
:100D2000A068626908432169114308436168491E4C
:100D300008432168C86100206062012028700020FB
:100D4000F8BD0243C2E70243C8E70243CEE782434D
:100D5000D4E70243DAE70243E0E70000F0B587B0EA
:100D6000044614216846FFF73FFA1B492068884271
:100D700030D11A48C269012149060A43C261C269D9
:100D80000A400592426909120A43426140690224FD
:100D90000840059088110090019401200325042645
:100DA00002AA61C20927FF066946384600F0ACF97D
:100DB000E00200900194002002AA61C26946384610
:100DC00000F0A2F9002203211E2000F0CFFA1E201D
:100DD00000F0C2FA07B0F0BD00640040001002400D
:100DE0007047704770477047704770B505460446B6
:100DF00020352878012805D0606A0121C9040843FC
:100E0000606216E0022028702068016849084900E5
:100E1000016000F031FA06460DE000F02DFA801B6B
:100E20000A2808D9606A0121490408436062052044
:100E30002870012070BD20684068C007EDD1606255
:100E400070BD704770477047704770477047704774
:100E5000F0B4C16B0D6801680C680422066C13467F
:100E6000B3402B420DD063070BD50B689B0602D411
:100E70000B6893430B60016C8A40C16B4A60C16A86
:100E800019E00227B74002462F4001232032002FED
:100E900015D0A70713D50C68A40604D40C680A253E
:100EA000AC430C605370036C02219940C36B5960D2
:100EB00000211170816A002916D0F0BC084708276C
:100EC000B7402F4210D024070ED50C680E25AC4336
:100ED0000C60046C1946A140C46B6160836353705D
:100EE00000211170016BE6E7F0BC704770B504009B
:100EF00024D00220214620310D4648702268116816
:100F00000F48A3680140606826691843E3683343CB
:100F1000184363691843A3691843E36918430843F6
:100F200010602046FFF78EFA0020A062E062206386
:100F30006063A06301216970287070BD012070BDDD
:100F40000FC0FFFFF8B504468C462030017800251D
:100F5000012909D00126067041780027012905D012
:100F6000077002252846F8BD0220F8BD0221417015
:100F7000A76320680168490849000160614620466E
:100F8000FFF772FAE06A00282068016802D00E229A
:100F9000114306E00A22114301602068016804221F
:100FA000914301602068016831430160DAE7000085
:100FB000F8B5054623480F46017E012601290BD0CE
:100FC000012101762868204C012807D02046FFF730
:100FD000B1FA002813D030E00220F8BD2046FFF718
:100FE000A9FA002829D1FFF755FA2046FFF7A2FAFF
:100FF0000646164801690422914301611DE0002064
:10100000C04338606C6812E02046FFF755FA0E487E
:10101000FFF790FA06460D48026902218A430261F1
:10102000002E01D03C6008E00120C0022418A8680E
:10103000C10268680818A042E6D80248002101767B
:101040003046F8BD0802002050C3000000200240D6
:1010500003480169802211430161002070470000AC
:1010600000200240F0B51FB407461A480024017E54
:1010700015461E46012907D0012101761648FFF7C3
:1010800059FA002803D020E0022005B0F0BD012F5E
:1010900002D0022F00D00427220128463146FFF754
:1010A00079F881B2019862001018FFF717FA0A4820
:1010B000FFF740FA09490A69520852000A610028FC
:1010C00003D1641CE4B2BC42E6D3024900220A7692
:1010D000DBE700000802002050C3000000200240AF
:1010E000064900200A69120607D5054A4A60054AE2
:1010F0004A600969090600D50120704700200240B6
:1011000023016745AB89EFCDF8B5002393E0224674
:1011100001249C40A44622407ED04C68022C01D081
:10112000122C0CD1DC08A40027183C6A5D07ED0ED8
:101130000F26AE40B4430E69AE4026433E620568BA
:101140005E000324B4400F79A543BF07BF0FB7402B
:101150002F4307604D68012D05D0022D03D0112DBE
:1011600001D0122D0ED18568CF68A543B7402F431B
:10117000876047686546AF430D79ED06ED0F9D40EA
:101180003D434560C568A5438C68B4402C43C460AA
:101190004C68E4004ED52B4CA56901263543A5616A
:1011A000A4699D0834400094274CAD002F19BC68F9
:1011B0009D072E0F0F25B540AC430925ED06A8422B
:1011C00001D1002514E0214DA84201D101250FE0F5
:1011D0001F4DA84201D102250AE01E4DA84201D1AF
:1011E000032505E01C4DA84201D1042500E005259A
:1011F000B5402543BD60194C25684E689543F603FC
:1012000000D51543256065684E689543B60300D543
:1012100015436560A56800E00CE04E689543F60252
:1012200000D51543A560E5684E689543B60200D524
:101230001543E5605B1C0A681446DA4000D066E797
:10124000F8BD00000010024000000140000400480A
:1012500000080048000C004800100048000401404D
:101260000069084000D001207047002A01D0816148
:1012700070478162704700000148006870470000B5
:101280001C00002002480168491C016070470000F2
:101290001C00002010B506480168102211430160AF
:1012A000002000F007F800F03FF8002010BD00001B
:1012B0000020024000B5014687B000220F2000F058
:1012C00055F80F2000F048F81348C1690122114376
:1012D000C161C06904A910400590684600F0F4F8A7
:1012E00000F00EF90D49FEF73FFF01220C4992076D
:1012F0000A600C4A401ECA6048600020086188608D
:10130000084600F063FB002802D0012007B000BDB2
:10131000034800F093FBF9E70010024040420F0041
:10132000C8010020E703000008B50A4881690122CE
:1013300011438161816911400091C26901040A432E
:10134000C261C0690022084003210090481F00F0DC
:101350000DF808BD00100240C106C90E01208840EA
:10136000014908607047000000E100E010B500F09E
:10137000FFFD10BDF8B505464E480E460068C00793
:10138000C00FB0420AD24B480168490849003143B6
:1013900001600068C007C00FB04270D12878464C89
:1013A000800705D56068F0218843A968084360601C
:1013B0002878C00753D06868012817D0022818D0B1
:1013C000032819D021688907002958DA616889083B
:1013D000890001436160FFF74FFF696807460129F3
:1013E00013D002291DD0032927D034E021688903B6
:1013F000EAE721688901E7E7616BC903E4E7FFF7E2
:101400003BFFC11B2D48814223D860680007800F35
:101410000128F4D123E0FFF72FFFC11B27488142A9
:1014200017D860680007800F0228F4D117E0FFF793
:1014300023FFC11B214881420BD860680007800F41
:101440000328F4D10BE0FFF717FFC11B1B488142B3
:1014500001D90320F8BD60680007800FF3D115485B
:101460000168C907C90FB1420BD901684908490091
:10147000314301600068C007C00FB04201D00120B5
:10148000F8BD2878400706D560680721090288431F
:10149000E9680843606000F043F86168084A09069B
:1014A000090F515CC840074908600020FFF702FFA0
:1014B0000020F8BD00200240001002408813000008
:1014C000EC3700080000002010B5072202600A4A2D
:1014D00053689B079B0F43605368F024234083604D
:1014E000526807231B021A40C26004480068C00704
:1014F000C00F086010BD0000001002400020024034
:101500000448054900684968044A4905490F515C87
:10151000C84070470000002000100240FC3700085F
:1015200030B516A30FCB89B06C460FC417A30FCBF1
:101530000FC41A494A680C20144604401848042C69
:1015400005D0184B082C04D00C2C00D1184609B03B
:1015500030BD9402240F6D462C5DC96A04AD0907A5
:10156000090FD203695C920F022A02D0032A00D12C
:101570001846FEF7F9FD6043E9E7000002030405A1
:10158000060708090A0B0C0D0E0F101001020304C8
:1015900005060708090A0B0C0D0E0F10001002407B
:1015A00000127A00006CDC02FEB504460078F04EB2
:1015B000F04DC00748D068680007800F01281FD091
:1015C00068680007800F022804D16868C003800F94
:1015D000022815D06168012919D001208004002952
:1015E00001D0052917D02968B143296029688143B2
:1015F0002960606800281BD0FFF73EFE074613E015
:101600002868800320D56068002876D01CE0286810
:1016100030432860EDE7296801432960F7E7FFF7C9
:101620002BFEC01B642869D828688003F7D50BE01F
:10163000FFF722FE074604E0FFF71EFEC01B6428EA
:10164000F1D828688003F7D4207880073ED56868F1
:101650000007800F14D068680007800F022804D1AB
:101660006868C003800F01280AD0E0680028286855
:101670001DD0012108432860FFF7FEFD07460BE05F
:10168000286880070BD5E068012836D107E0FFF70E
:10169000F3FDC01B0228C6D828688007F7D5286844
:1016A000F82188432169C900084328600EE04008FA
:1016B00040002860FFF7E0FD074604E0FFF7DCFD8F
:1016C000C01B0228AFD828688007F7D4207800070D
:1016D00024D5E0690028686A11D0012108436862B6
:1016E000FFF7CAFD074604E0FFF7C6FDC01B02284E
:1016F00099D8686A8007F7D510E036E1D1E0400854
:1017000040006862FFF7B8FD074604E0FFF7B4FD4C
:10171000C01B022887D8686A8007F7D4207804277E
:101720004007002861DA00200190E869C00008D471
:10173000E969B8060143E961E969014001200091C6
:1017400001908D480168C90511D4016882151143C3
:101750000160FFF791FD009005E0FFF78DFD009916
:10176000401A642897D884480068C005F5D5A06859
:1017700001280AD0002801D0052811D0286A400885
:1017800040002862286AB84302E0286A0121084321
:101790002862A068002812D0FFF76EFD00900AE0D2
:1017A000286A38432862F0E7FFF766FD0099411A7E
:1017B0007248814275D8286A8007F5D50DE0FFF799
:1017C0005BFD009006E0FFF757FD0099411A6B485A
:1017D000814266D8286A8007F5D40198002804D091
:1017E000E969012000078143E9612078C00635D509
:1017F000606901280CD0401D686B24D038436863B1
:10180000686B400840006863FFF736FD074622E03A
:10181000686B38436863686B012108436863FFF7AE
:101820002BFD074604E0FFF727FDC01B022838D830
:10183000686B8007F7D5686BF8218843A169C900F8
:10184000084368630AE0B8436863F4E7FFF714FDF0
:10185000C01B022825D8686B8007F7D42078800643
:1018600037D568680007800F032813D06868000721
:10187000800F022804D16868C003800F032809D0B4
:10188000206A0028686B16D030436863FFF7F4FCC9
:1018900006460CE0686BC0031BD5206A012864D1A2
:1018A00017E05BE0FFF7E8FC801B022856D8686B66
:1018B000C003F7D50DE0B0436863FFF7DDFC0646D3
:1018C00004E0FFF7D9FC801B022847D8686BC003EF
:1018D000F7D4606A002846D069680907890F022991
:1018E00043D0012636060228286805D0B043286078
:1018F000FFF7C2FC044633E0B0432860FFF7BCFCAE
:10190000074604E0FFF7B8FCC01B022826D8286869
:101910008001F7D4E86A216B000900010843E862FE
:10192000A16AE06A084369687B22D20391430843B5
:101930006860286830432860FFF79EFC044604E096
:10194000FFF79AFC001B022808D828688001F7D509
:1019500009E0FFF791FC001B022801D90320FEBD1E
:1019600028688001F5D40020FEBD0120FEBD0000E6
:1019700000000100001002400070004088130000C9
:101980007047704770B502462032137F012B1BD081
:101990000123137702245477046865687026B543E1
:1019A0006560046865680E68354365600468A5680D
:1019B0008026B543A5600068846849680C4384604C
:1019C00053770020107770BD022070BD70B5040001
:1019D00005D025462035687F002802D006E001208A
:1019E00070BD00202877204600F00AF802206877B2
:1019F000211D206800F094FB01206877002070BD55
:101A000008B500680549884207D10548C269022126
:101A10000A43C261C0690840009008BD000400404C
:101A2000001002400222014620314A770268136802
:101A30000120034313604877002070470268D36891
:101A400001210B43D360006802680A430260002052
:101A50007047F8B5054604462035287F012817D081
:101A600001272F7702206877226890687726FF2366
:101A7000B0431B02984390600868502837D00EDCB2
:101A8000202857D006DC00284ED0102840D14EE048
:101A90000220F8BD302850D0402839D13CE06028E1
:101AA0002DD0702817D001221203801A0ED0904238
:101AB0002ED1CB684A688968206800F07BFB2068DB
:101AC0008168012292031143816021E020688168CE
:101AD000C908C900F8E7CB684A688968206800F03F
:101AE00069FB21688868B0433043886010E0CA68A9
:101AF0004968206800F071FB5021206806E0CA6840
:101B00004968206800F07AFB6021206800F05DFBE6
:101B10006F7700202877F8BDCA684968206800F010
:101B20005CFB40212068F1E700212068EEE71021EE
:101B30002068EBE720212068E8E730212068E5E70E
:101B4000704770B50446006801690025C9438907DC
:101B5000002915DBC168C943890711D4E91E016159
:101B600001202077206880698007204602D0FFF797
:101B7000E7FF04E000F096F8204600F094F825779F
:101B800020680169C943490717D4C168C943490797
:101B900013D40421C94301610220207720688069A1
:101BA0008005800F204602D0FFF7CAFF04E000F056
:101BB00079F8204600F077F8257720680169C94355
:101BC000090716D4C168C943090712D40821C943BB
:101BD0000161042020772068C0698007204602D078
:101BE000FFF7AEFF04E000F05DF8204600F05BF880
:101BF000257720680169C943C90617D4C168C9435C
:101C0000C90613D41021C943016108202077206838
:101C1000C0698005800F204602D0FFF791FF04E0E5
:101C200000F040F8204600F03EF825772068016972
:101C3000C943C90708D1C168C943C90704D1891E6E
:101C40000161204600F030F820680169C9430906A7
:101C500009D4C168C943090605D48021C94301617B
:101C60002046FFF78DFE20680169C943490609D463
:101C7000C168C943490605D44021C94301612046D2
:101C800000F01BF820680169C943890609D4C168BE
:101C9000C943890605D42021C94301612046FFF7C5
:101CA00070FE70BD7047704710B50068012189074C
:101CB000884201D1FFF7E6FA10BD7047054C0122BA
:101CC00004212046FFF7D1FA002220212046FFF709
:101CD000CCFAFEE7000400483EB500241A491B4830
:101CE00000940194029412C0046008220121831818
:101CF000446016C344618461C022C46102628A02E6
:101D000081624262C1620838FEF7DCFC002801D023
:101D1000FEF7BEFB01200003019006200290009414
:101D200069460A48FEF734FC002801D0FEF7B0FBF4
:101D30000420009069460548FEF72AFC002801D0DF
:101D4000FEF7A6FB3EBD00000024014090000020ED
:101D500010B50F480D49016008214160002107229C
:101D60008160120402610122C16052054261017664
:101D7000012242768176C27601774177FEF765FFD0
:101D8000002801D0FEF784FB10BD00000064004075
:101D90002001002008B50848416901221143416132
:101DA000406903211040009000220920FFF7DEFA6D
:101DB0000920FFF7D1FA08BD0010024010B590B01D
:101DC000142211496846FEF7F6F90021684601F031
:101DD00013F80E4C0C4920601422143105A8FEF7AC
:101DE000EAF9002105A801F007F80749606014220C
:101DF00028310AA8FEF7DFF900210AA800F0FCFF4D
:101E0000A06010B010BD00000438000804000020DD
:101E1000F0B587B014216846FEF7E6F9314842690B
:101E20000121C9040A43426142690A40059242699C
:101E3000C9000A43426142690A4005924269491158
:101E40000A43426142690A400592426949000A43D5
:101E500042614069CF270840BF0005900022394603
:101E60002148FFF702FA07204003032500240090D1
:101E70006946019502941D48FFF746F900956946A9
:101E80001B4801950294FFF73FF91A480926F60608
:101E900000906946019502943046FFF735F91648DF
:101EA00000906946019502940F48FFF72DF901252E
:101EB000029469460C48009701950394FFF724F9B2
:101EC0000F2000036A4631C269460748FFF71CF934
:101ED00028026A4631C269463046FFF715F907B055
:101EE000F0BD000000100240000400480008004857
:101EF00000140048EE860000C30C000010B586B048
:101F00000024009417480194029403940494144903
:101F10000594016014498460416004611F2184615B
:101F2000C160FFF753FD002801D0FEF7B1FA012090
:101F30000003009069460B48FFF78BFD002801D095
:101F4000FEF7A6FA202004A911C106480839FFF7B8
:101F500019FD002801D0FEF79BFA06B010BD000065
:101F60000004004048010020FF010000704700000D
:101F70008307FF22DB0E9A408907090E994000284B
:101F80000BDA0007000F0838830808489B00181870
:101F9000C36993430B43C3617047830804489B00A4
:101FA0001B181868904308431860704700ED00E064
:101FB00000E400E0704700F007FB1E2000F00FFF78
:101FC000F9E70000084C00F049F9A07F810603D42E
:101FD000400701D4012000E0002000F0BBFD1920E3
:101FE00000F0FDFEEFE70000890200201048F72610
:101FF0000446054620343A3500F0D0F9A77FF807AB
:1020000012D02846FEF708F9002804D02946401EC1
:10201000FEF70CF908E07908490008468907C90F5E
:102020003040C9000843A0770A2000F0D8FEE3E75B
:102030006902002010B5FEF761F8044601F022FBAA
:10204000002803D001200349000748602046FEF71E
:1020500059F810BD00ED00E030B591B0342168466C
:10206000FEF7C2F800240F941220009001200D9476
:102070000390059010200E94109404900690C002D6
:102080000A90400102250B9009950C946846FFF7D1
:102090008BFA002800D0FEE707200D900F94012155
:1020A0000E9510940DA8FFF765F9002800D0FEE703
:1020B00011B030BD1248016801221143016041682E
:1020C000104A1140416001680F4A114001600168E7
:1020D000012292049143016041683F22120491431E
:1020E0004160C16A09090901C162016B074A1140D7
:1020F0000163416B490849004163002181607047D9
:10210000001002400CB8FF08FFFFF6FE2CFEFCFF9B
:1021100010B50248FFF715FD10BD0000C8010020F2
:10212000F0B502681D4B0124A4071D4D984203D051
:10213000A04201D0A84203D17026B2434E68324378
:10214000184E194F98420DD0A0420BD0A84209D08A
:10215000164CA04206D0B04204D0B84202D0144C73
:10216000A04204D103242402A243CC682243802449
:10217000A2434C69224302608A68C2620A68826292
:10218000984206D0B04204D0B84202D0084A9042E9
:1021900001D10969016301214161F0BD002C0140B9
:1021A0000004004000400140004401400020004085
:1021B0000048014030B58468FF252D021B021343FF
:1021C000AC430B432343836030BD826870239A4342
:1021D0000A4307210A438260704730B5036A046AE4
:1021E0006408640004628469F025AC431201224350
:1021F0000A24A3430B438261036230BD30B5036AF6
:102200001024A34303628469036A0F252D0312037C
:10221000AC432243A024A343090119438261016214
:1022200030BD30B47446641E2578641CAB4200D2C5
:102230001D46635D5B00E31830BC184702E008C828
:10224000121F08C1002AFAD170477047002001E030
:1022500001C1121F002AFBD170470000F8B54B4E98
:10226000DF20B57FFB210540A806C00F0D40800090
:1022700005436807BF210D40C00F80010543680674
:102280003146B577C00F2031FDF7D0FFF077404CD5
:10229000E8075AD0607D2027C109002918D0317C79
:1022A0004A1E327414D2F178890611D4B11C4A7ACC
:1022B000097A12020A4351040A0D21468B7B497B9D
:1022C0001B020B439904090D8A4201D938436075FA
:1022D000280744D52F4800F003FD4025002808D0EA
:1022E000607DDF2228434106C90F490110400843A1
:1022F000607528480D3000F0F3FC002802D0607DA6
:102300003843607523481A3000F0EAFC002802D0F8
:10231000607D284360751F480D3800F0E1FC0028FF
:1023200003D0607D1021084360751A48273000F003
:10233000D7FC002813D0607D01224106C009490E58
:102340005040C0010143617509E0104803210C3879
:10235000FDF74AFF0D480321401FFDF745FFF078C8
:102360000D4D8006C20F20212846FEF77EFFF07833
:1023700001214006C20F49022846FEF776FF607D24
:102380001021C2092846FEF770FFF8BD890200201F
:10239000690200203502002000040048F8B5494DCC
:1023A000002421460620414347480E183046FDF7D9
:1023B00033FF024671793079090201431046FEF776
:1023C0004FFF00280ED00D2027464743E85D8107C8
:1023D00040D501210843E85579190A20491DFDF728
:1023E00025FF3AE00D20274647437E19701CFDF774
:1023F00013FF64281CD9711C0020FDF717FF410052
:10240000E85DFD221040084308210843E8550936DD
:1024100000903046FDF700FF00284CD1009840079F
:1024200049D4009804210843E85531460A203BE08E
:10243000022809D930460930FDF7EEFE002803D105
:10244000E85D02210843E855701CFDF7E5FE711CAC
:10245000401C29E0FD210840E855E85DF7210840CF
:102460000107C90FFD22490010400843E8558007C5
:102470007E19C00F711CFDF7D9FE3046093000905F
:10248000FDF7CAFE002804D0401E0099FDF7CEFEDD
:1024900003E0E85DFB210840E855701DFDF7BCFE38
:1024A000002804D0711D401EFDF7C0FE03E0E85D6A
:1024B00040084000E855641CE4B2052C00D270E7E7
:1024C000F8BD00002802002040380008F0B58DB0AB
:1024D00028216846FDF788FE28216846FDF784FE1E
:1024E0000025012406950E26049502AA03A9059548
:1024F00008942846099607940B920A91FEF742F831
:1025000070070B9A0A99FEF73DF869462B48FEF7CB
:102510002BFA28216846FDF767FE294F0996089493
:102520000695079404950594787839780002BA786E
:1025300008431146120410434003800CC9084001AF
:10254000C9040843E107401881B2000C01910090D2
:102550001C480B9A0A99FEF715F869461748FEF7CA
:1025600003FA28216846FDF73FFE09960695049573
:102570000225089407940595F878A107800780093B
:1025800040180B9A0A99FDF7FDFFC32000060B9A2D
:102590000A99FDF7F7FF69460848FEF7E5F907488D
:1025A00001684A692A434A610068416921434161DF
:1025B0000248FEF71AFC0DB0F0BD0000200100201B
:1025C00069020020E0FFFFC0F0B58DB00024059443
:1025D000C7480494069407940A9000F0BFFB04A82F
:1025E00000F088FB002870D000200190029003903A
:1025F000BF483238FDF710FEBD4F0090123FBD7F3F
:102600000126354339467D20BD771A310001FDF79B
:102610000DFE6846C07CB74C8006010F06A801304D
:1026200008900B00FFF7FDFD06C6C50F041EBAC6D5
:102630000598002806D06846007EC007FAD008201A
:102640000543BD77B6E0280700D526700598022817
:10265000F8D9A748032210380899FDF7ACFD0020EF
:102660002070A7E068076ED4A8066CD46946C878C5
:10267000C321084069461430C8700598002841D02D
:10268000087E81083ED16946097A8A07920F694619
:102690000A72810702A80130890F0890002904D02E
:1026A000012930D002292DD14EE0042001900020D4
:1026B000694608728E4903222E390898FDF77BFD82
:1026C000684600F0C3FD002515E00EE107216A46CB
:1026D0000191117A89088900491C1172E900491B8E
:1026E000091806220B310898FDF765FD684600F0D1
:1026F000ADFD6D1CEDB27E48323841798906C90EB8
:10270000A942E3D856E0002515E00721019169466A
:10271000097A8A0892006946521C0A72E900491B2C
:10272000091806220B310898FDF745FD684600F0B0
:102730008DFD6D1CEDB26E48323841798906C90EA7
:10274000A942E2D836E034E0694832384179890656
:10275000C90E2FD0002519E0072101916946097A99
:102760008A086946097E92008907890F0A436946EB
:102770000A72E900491B0918062229310898FDF759
:102780001AFD684600F062FD6D1CEDB25848323803
:1027900041798906C90EA942DED80BE0680708D442
:1027A000A80606D40598002803D06846007E810854
:1027B00028D06670B87F01077FD58107C206114314
:1027C000E278C90F914206D1420783061A43A378E3
:1027D000D20F9A4206D0E170410780060143C80F2C
:1027E000A070667042493239487DC20608D482061C
:1027F00006D4420604D4097FC009C909814251D0D8
:10280000267052E03A49820832398B794D791902A3
:1028100029430905890E8A42CCD8800733D06846FF
:10282000407E3349C20632394879D20E8006C00E46
:102830008242BFD86846837F457F180228438005BF
:10284000800E3228B6D86846837E407E1B02034342
:102850006846C07E000403439803030D6846057F65
:10286000C07E2D020543A804000D8342A2D805981E
:1028700007289FD3D000801A40180622001D08990F
:10288000FDF799FC96E71A486A46517E3238017185
:102890004179927E49084900D207D20F1143417114
:1028A00088E70AE02078002809D0002060702070B6
:1028B0000146012000F0E4FC01E000202070607877
:1028C000002812D0002060706946C878C3210840F3
:1028D0006946001DC87006200246019002A80A99A8
:1028E000FDF769FC684600F0B1FC0DB0F0BD0000DA
:1028F0009B02002034000020F8B55C4DA87C400904
:102900004001401CA874A81C417C027C09021143B0
:10291000A0229143520011430174090A41745449A1
:1029200004222238FDF747FC514910398B7D4C7D3C
:102930009C46887DEA1C4007400D4600507C137C75
:10294000000218434B4B4F7D184030430605760D6F
:10295000F6197605360D18403043184063461B02C1
:102960001B195B051B0D18431074030A5374097D72
:102970001446C9068E0E233C6179C12319403143A8
:102980006171A6788C46F1081E291CD961782778D8
:102990000902394336043143374E314080312170CA
:1029A0000E0A6670090CA17061461940891C61719C
:1029B000A178C0264907490F1031A170E178890834
:1029C00089003143E17061798E06F60E012E02D93D
:1029D0001940891C61710105284B490D994203D3A7
:1029E000264B1D33994206D13A2188432449084396
:1029F0001074000A50741E4E1036304600F0D8F89D
:102A0000002808D000F044F81E49002008706179C1
:102A10008906C90E14E010223146201DFDF7CBFBBC
:102A200012481022211D2930FDF7C5FBECE76A7A18
:102A3000401C5209C3065201DB0E1A436A72C0B22F
:102A40008142F4D8E078A179800889068000890F56
:102A500008430C49E0700222891C0B48FDF734FF43
:102A6000FFF734FD0948FEF7DDFFF8BD89020020BD
:102A7000F0BF000801F0FFFF1F00F8FFE2070000B1
:102A8000C40F00002000002090000020480100201A
:102A9000F0B52D4964200871084682794379120205
:102AA0003F251A43AD01AA434271120A8271887907
:102AB000CF2210402030887100223EE0D000801AE2
:102AC0004018C37A521C5B09D4065B01E40E234311
:102AD000C372037BC67A1B023343467BC41C360495
:102AE00033431A4ED2B23340C3721E0A06731B0C14
:102AF0004373867B477B36023E43154F3E43467306
:102B0000360A8673637B267B1B0233433F263601DE
:102B1000B343503323731B0A6373C37B847B1B0251
:102B20002343AB4383731B0AC373037CE324234017
:102B30000374C37ADF242340C37248798006C00E31
:102B40009042BBD8F0BD0000690200203F00FCFFAE
:102B5000FC3F000070B5002823D0124D28780028D3
:102B60001FD1114C10222046211D4930FDF747FB93
:102B7000002816D000F070F8002812D1022028702A
:102B80001022211D094800F06DF8002801D0012015
:102B900006E005481022211D4930FDF70CFB0020FE
:102BA000287070BD200000206902002000C00008CD
:102BB00070B50178FF2943D0827843781102194318
:102BC0000905890E3CD141788906C90E022937D8FA
:102BD000204949798906CA0E41788906C90E8A4278
:102BE0002ED100212FE0CA00521A1218D379491CA5
:102BF000DB06DB0E8B4223D1147AD31CD579240259
:102C00002C43557A967A2D042C43A403250D547A2F
:102C100036022643B404240DA54211D85C7A1D7AED
:102C200023022B439B059B0E322B09D8137BDB061B
:102C30005B0F032B04D8D2799206D20F012A01D957
:102C4000012070BDC9B242789206D20E8A42CAD81B
:102C5000002070BD69020020014800787047000024
:102C600027000020F7B51C4C84B020780F460028C0
:102C700030D103900090022020700498012601902A
:102C8000164902963420C860FEF72AFA03A968465E
:102C9000FEF78EF9002803D0FEF7DAF9304618E087
:102CA000002510E078194078795D0002081882B29A
:102CB000022020700498002341190120FEF7D2F968
:102CC0000028E9D1AD1C06988542EBD3FEF7C0F988
:102CD0000020207007B0F0BD270000200020024037
:102CE0000178CA0704D049084900017001207047E3
:102CF0000020704710B50D4C21780B070A091B0FF7
:102D00009A4210D00909090109191022491CFDF73E
:102D100052FA207801070009090F401C0001014305
:102D20002170012010BD002010BD0000C202002053
:102D30000948807F810601D4410701D503207047EF
:102D4000810701D4C10601D502207047000701D5D3
:102D500001207047002070478902002070B5104D97
:102D60000446E1210901A868FDF7FEF90101E078B8
:102D7000A27800021043227912041043094A10403D
:102D80000143A170080AE070080C20713C21A8687A
:102D9000FDF7EAF93C21FDF7E7F9617170BD00002C
:102DA000280000200F0000FFFEF774FAFFF754F927
:102DB000FFF72EF8FEF7EEFFFEF78EFFFEF7C8FFD7
:102DC000FFF79CF8FFF798FDFEF7F8FF00F00FF80B
:102DD000FEE701460020842900D0C81C704710B5CA
:102DE000002800D1012000F09BFB002010BD10B591
:102DF00000F0AEFB002010BD3EB5044608200D4695
:102E0000205EFFF7E6FF02A901910090208A2B4681
:102E100082B22168606800F00DFC012801D000201A
:102E20003EBD02983EBD0000F8B5134C0F46E66863
:102E300005462068001D00F0D5FA681C07D1002F58
:102E400005D021680D48091D00F004FBF8BD20687D
:102E5000751945602168B54204D2A06B091D00F0C8
:102E6000E1FAF8BD606B091D00F0DCFAA06A85424A
:102E7000F7D2A562F8BD000038000020A0050020B0
:102E8000F8B5054600F0F2FA294CA068401CA06095
:102E90002068284F002803D06069002827D02CE044
:102EA0002560A068012828D1002614207043C0198D
:102EB00000F0AAFA761C072EF7D31E488C3000F0DB
:102EC000A3FA1C48A03000F09FFA1A48B43000F072
:102ED0009BFA1848C83000F097FA1648DC3000F02A
:102EE00093FA14488C3060631430A06305E02068C6
:102EF000E96AC06A884200D82560606A401C606246
:102F0000E86A2169884200D9206114214843C01928
:102F1000291D00F09FFA00F0B5FA6069002806D07C
:102F20002068E96AC06A884201D200F0EDFAF8BD73
:102F300038000020C404002070B5114E114C18E078
:102F400000F02CFB3068002817D000F0F9FB00F0EF
:102F50008DFAF068C568281D00F044FAA068401E8C
:102F6000A0606068401E606000F08CFA284600F0A7
:102F70000BF860680028E3D170BD00F0E1FBF8E7D2
:102F80008C0500203800002010B50446006B00F0CE
:102F900087FA204600F084FA10BD000003210E4895
:102FA0008902420705D0C01DC0080B4AC000821A22
:102FB000891A0A4A0023411809C20839C908C900F8
:102FC000183A11604B600B600B1A0AC09360012025
:102FD000C0075360D0607047B40500208400002013
:102FE000044CFFF7A9FF20680128FAD900F08CFAF9
:102FF000F7E70000C4040020FFB581B00C9C9000EE
:10300000236B001F1818C6080A9DF600700701D030
:1030100072B6FEE723180A5C20331A750A5C002A90
:1030200002D0401C1028F5D32046403000270090E5
:10303000C770072D00D30625E562A764201D6564CF
:1030400000F0EDF92046183000F0E9F9246107207E
:10305000401B6462A061E764009807743046049ADC
:10306000019900F09FF820600B98002800D00460C0
:1030700005B0F0BD30B5114900E011460A68824242
:10308000FBD34B685C18844203D140681818486031
:10309000084643681C18944209D1084C103C246827
:1030A000A24209D052689A1842600A681268026007
:1030B000814200D0086030BD0460F9E78400002040
:1030C0000648416B0968002905D0416BC968C96889
:1030D0004968816270470021C943FAE7380000203F
:1030E00003480068401C72B600D0FEE7FEE700000F
:1030F0008C000020F8B50546002700F04FFA284E56
:103100003068002801D1FFF749FFF06805423FD140
:10311000002D3DD00835680708D06807400F08210A
:10312000081A4519680701D072B6FEE7002D2FD0A6
:10313000706885422CD81A48103001460C6801E0AE
:1031400020460C466168A94202D221680029F7D1C5
:1031500031688C421CD007682168016060680837BC
:10316000411B102908D96019420701D072B6FEE749
:1031700041606560FFF77EFF61687068401A7060AB
:10318000B268904200D2B060F0680143002003C4EE
:1031900000F0D6FA780701D072B6FEE73846F8BDDF
:1031A0007400002010B50124031F24061C601B1F9F
:1031B0001960191F024B0B60143940380A6010BDAA
:1031C000E1300008F7B5044608780E46411C0907AF
:1031D000090F82B0020900918A4229D00007000E2F
:1031E0008019471C0498216805012846FF30B1303A
:1031F00008583946FDF71AF83878C008C00038700A
:103200002846FF302168B5300858391DC0B2FDF797
:103210000DF8FF3521680246B9353846491908309E
:10322000FCF7C9FF307801090098090101433170AA
:10323000049920200129216804D0CA680243CA6089
:1032400005B0F0BD0A6902430A61F9E770B50B4C9D
:1032500001462078421C15072D0F0209AA420BD007
:103260000007000E00191022401CFCF7A4FF207874
:10327000000900012843207070BD0000C303002036
:103280001FB50020029003901248FCF7C5FF6B4663
:103290000090D878C32108400830D87003200D4929
:1032A00001900A7D5A72487D9872BF2318404306E8
:1032B000DF24DB0F20405B0118438306DB0FEF2484
:1032C0001B01204018434875CA7608776846FFF707
:1032D000BDFF1FBD69020020FEB50F46064677E020
:1032E00000090001C519306881686D1C49018168B9
:1032F00004D5012211438160002112E00901816897
:1033000007D5FF2201321143816035490120087041
:1033100009E0C90062D5816801221204114381606D
:1033200002212F480170E8788009032808D1FFF7AF
:10333000FFFC8007C10E2878E72210400843287060
:1033400027483168007804012046FF308130019021
:103350000858C2070198D20F0A502046FF30853026
:103360003168009008580209009812010A50281D7F
:10337000FCF752FF0146326800981058014300984C
:10338000115028460830FCF747FF2146FF313268CC
:103390008931505028460C30FCF73EFFFF3431682D
:1033A0008D3408512846FCF737FFC108C9000120B9
:1033B000091D0143326801981058014301981150CA
:1033C000387801070009090F401C000101433970DA
:1033D000387802070109120F914281D1FEBD000029
:1033E000260000204368826801699A608368426809
:1033F0005A604A68824201D182684A6000220261B2
:103400000868401E0860704701460831002241608C
:10341000D243C160826001610021016070470021D8
:103420000161704730B50B685A1C02D00246083261
:1034300002E0026904E02246546825689D42FAD9F8
:1034400053684B6099608A60516008610168491C4B
:10345000016030BD42684A6093688B609368596030
:10346000916008610168491C0160704772B60448A8
:103470000168491C0160BFF34F8FBFF36F8F704726
:103480008C00002005490868002804D0401E086010
:1034900000D162B6704772B6FEE700008C000020D3
:1034A00070B500281AD004460D4D083C6068E968E4
:1034B000084201D172B6FEE72268002A01D072B636
:1034C000FEE78843606000F069F86068696840184A
:1034D00068602046FFF7CEFD00F032F970BD0000B5
:1034E0007400002010B506487D21C9000068FCF773
:1034F0003BFE0449401E48610720086110BD0000E2
:103500000000002000E000E00120044900074860BE
:10351000BFF34F8FBFF36F8F7047000000ED00E0E7
:1035200010B502000FD00948006B002801D072B618
:10353000FEE700F033F800211046FFF775FC00F0BD
:10354000FFF8002801D1FFF7DFFF10BD3800002091
:103550001CB50E4800240190234680220CA1009443
:103560000D4800F067F8012803D0401C0CD172B65A
:10357000FEE772B600210548C9432C38816201215B
:103580004161C46000F03EF81CBD000064000020F2
:1035900049444C4500000000E12F00080248016B3F
:1035A000491C0163704700003800002010B5134823
:1035B000016B002902D00121C16110BD0021C16150
:1035C00001690F4A02E0002915D0491E14234B431C
:1035D000D358002BF7D014234B439A185368144642
:1035E0005B6808345360A34201D15B685360DA68BA
:1035F0000260016110BD72B6FEE7000038000020D5
:10360000C404002010B50948016AFF2212041143C6
:103610000162016A120211430162FFF763FF04496C
:1036200000200860FCF756FD002010BD00ED00E012
:103630008C000020FFB585B0164690000F9FFFF765
:1036400059FD05001AD05420FFF754FD040012D094
:10365000256300210E980391019700900294324651
:10366000089B06990598FFF7C7FC2046FFF708FC62
:10367000012009B0F0BD2846FFF712FF0020C0432B
:10368000F7E70000F8B52C4C0027206B002808D085
:10369000A069401CA061E069002800D001273846DD
:1036A000F8BDE668761CE6600ED1606B0068002805
:1036B00001D072B6FEE7606BA16B6163A063206A04
:1036C000401C2062FFF7FCFCA06A86420AD3606BB4
:1036D0000068002810D0606BC068C56868688642C2
:1036E0000DD2A06220681421C06A484313490858CB
:1036F0000128D0D90127CEE70020C043F1E7281DDB
:10370000FFF770FEA86A002803D028461830FFF79C
:1037100069FEE86A2169884200D920611421484382
:1037200006494018291DFFF795FEE86A2168C96A15
:103730008842CCD30127CAE738000020C404002007
:10374000F8B5284C0025206B2E46002808D0FFF73E
:103750008DFE206B401E2063206B002802D03DE0D0
:1037600072B6FEE7A168204F00291DD136E0F86847
:10377000C56828461830FFF735FE281DFFF732FED2
:10378000E86A2169884200D920611421484316491A
:10379000B4394018291DFFF75DFEE86A2168C96A3F
:1037A000884201D30120E06138680028DFD1002D74
:1037B00001D0FFF785FCA569002D09D00127FFF78F
:1037C00061FF002800D0E7616D1EF8D10020A061E4
:1037D000E069002802D00126FFF796FEFFF752FEAF
:1037E0003046F8BD380000207805002000000000B9
:1037F00000000000010203040607080900000000A1
:10380000010203046C380008ED1F000803000000EB
:10381000000000008000000060380008B71F0008AA
:103820000200000000000000800000007C3800085A
:10383000C51F0008FDFF0000000000008000000020
:103840000000004800010004004800100004004887
:1038500000200004004800400004004800800000F0
:103860006D795461736B43414E0000006D79546172
:10387000736B5379735469636B0000006D79546105
:10388000736B436F6E74726F6C000000AC3800088D
:1038900000000020900000003C2200083C39000895
:1038A00090000020281500004C22000800127A0029
:1038B0000000000000000000000000000000000008
:1038C00000000000000000000000000002000000F6
:1038D00000000000000000000000000000000000E8
:1038E00000000000000000000000000000000000D8
:1038F00000000000000000000000000000000000C8
:1039000000000000000000000000000000000000B7
:1039100000000000000000000000000000000000A7
:103920000000000000000000000000000000000097
:0C3930000000000000000000AAAAAAAAE3
:04000005080000C12E
:00000001FF
