:020000040800F2
:10000000A83E00204D010008C1140008DD120008C0
:1000100000000000000000000000000000000000E0
:10002000000000000000000000000000C3140008F1
:1000300000000000000000000B0100086D15000822
:100040005F0100085F0100085F0100085F01000810
:100050005F0100085F0100085F0100085F01000800
:100060005F0100085F0100085F0100085F010008F0
:100070005F0100085F0100085F01000841160008E9
:100080005F0100085F0100085F0100085F010008D0
:100090005F0100085F0100085F0100085F010008C0
:1000A0005F0100085F0100085F0100085F010008B0
:1000B0005F0100085F010008C90200085F01000835
:1000C0000348854600F0EEF8004800477923000811
:1000D000A83E0020084B19680868203080F3098882
:1000E000022080F31488BFF36F8F3FBCAE4608BC7C
:1000F00004BC62B61847000010000020EFF3108027
:1001000072B6704780F310887047EFF309800E4B8A
:100110001A6820381060F0C044464D4656465F4687
:10012000F0C008B572B603F03BFA62B60CBC1168B9
:1001300008681030F0C8A046A946B246BB4680F316
:1001400009882038F0C8184710000020044880476C
:1001500004480047FEE7FEE7FEE7FEE7FEE7FEE7AE
:10016000E5150008C100000830B50B460146002027
:100170002022012409E00D46D5409D4205D31D46AD
:100180009540491B2546954040191546521E002DA5
:10019000F1DC30BDF0B51FB40646002082B0054644
:1001A0004024019100901BE0019922460F46304601
:1001B00000F020F8049A059B801A994110D310464C
:1001C0001946224600F05EF8361A8F410197224602
:1001D00001200021009F00F055F838184D41009093
:1001E0002046641E0028DFDC019B00982946324629
:1001F00007B0F0BD10B5202A04DB0846203AD040F5
:10020000002110BD0B46D340D0402024A21A9140BB
:100210000843194610BD03460B439B0703D009E072
:1002200008C9121F08C0042AFAD203E00B78037031
:10023000401C491C521EF9D27047D2B201E0027034
:10024000401C491EFBD270470022F6E710B513464A
:100250000A4604461946FFF7F0FF204610BD032169
:10026000001D401E037812021A43491EF9D510469C
:100270007047034603220870000A491C521EFAD533
:100280001846704710B5202A04DB0146203A9140F9
:10029000002010BD914020239C1A0346E3401943DF
:1002A000904010BD064C0125064E05E0E36807CCE2
:1002B0002B430C3C98471034B442F7D3FFF704FFAC
:1002C000443900086439000810B50B4C20684069B7
:1002D000800704D500220949204602F092FF2068D9
:1002E0004069C00703D00649034803F009F80248F3
:1002F00000F085F810BD000094360020383700204B
:10030000DA380020FEE783B2000C0B601060704703
:1003100030B52022125C0368012A08D0022A06D0D8
:10032000416A0122920411434162012030BDDA1D6D
:10033000FF32FA3214680120044314600C7DE40695
:10034000E40EA040D4698443D461CC69002C1AD156
:10035000D4688443D4608C898D882404ADB22C4346
:100360004D69ED00ED18FF35FF3502352C640C8921
:100370000D882404ADB22C434D69ED00ED18FF3516
:10038000FF3502356C64CC69012C1AD1D468044362
:10039000D4600C888D882404ADB22C434D69ED00E7
:1003A000ED18FF35FF3502352C640C898D89240446
:1003B000ADB22C434D69ED00EB18FF33FF33023330
:1003C0005C648B69002B53680BD0034353600B694B
:1003D000002B536907D003435361096A012904D0F4
:1003E00006E08343F2E78343F6E7D1690143D16135
:1003F0001068400840001060002030BD7047F0B524
:100400000546006885B04669002441680191876807
:10041000C16803910169029181690091F10748D097
:10042000F90714D001218160B80703D5284600F0F0
:10043000DDF90CE0780702D50124E40207E0380773
:1004400002D50124240302E0284600F0CEF9F80585
:1004500017D5FF20296801308860B80503D52846E4
:1004600000F0C6F90DE0780502D50120400303E055
:10047000380503D501208003044302E0284600F03C
:10048000B6F9F80315D50120296800048860B9037E
:1004900003D5284600F0AEF90BE0790302D5012020
:1004A000C00301E0390301D5044302E0284600F00F
:1004B000A0F930071027002806DA0398C00603D5F4
:1004C000780104432868C760700708D503980007BF
:1004D00005D529680820C860284600F055F9B007FE
:1004E00006D52868C068800702D0284600F04DF97C
:1004F000700607D50298C00604D501208002044387
:1005000028680761B00608D50298000705D5296854
:1005100008200861284600F039F9F00606D5286859
:100520000069800702D0284600F031F9B00307D5F2
:100530000198C00604D528684760284600F028F9CD
:10054000F00308D50198000705D529680820486000
:10055000284600F050F930043CD5019841070420AA
:10056000002935DAF10504D50099C90701D0012128
:100570000C43B10504D50099890701D502210C432C
:10058000710503D50099490700D5044331051FD5EE
:1005900000994906490F1BD0009A70210A40402A51
:1005A00011D006DC102A09D0202A09D0302A0BD11C
:1005B00008E0502A18D0602A06D117E0082202E08D
:1005C0003C4301E0202214432A6893698B439361E2
:1005D00029684860002C05D0686A20436862284674
:1005E000FFF70CFF05B0F0BD8022ECE7FF220132DF
:1005F000E9E7F8B5040005D025462035287800281D
:1006000002D004E00120F8BD204600F07BF820680D
:10061000016802229143016000F0BAF90127064601
:100620007F0404E000F0B4F9801B0A2811D8206888
:1006300040688007F6D420680168012211430160F8
:1006400000F0A6F906460AE000F0A2F9801B0A288D
:1006500005D9606A3843606205202870D2E72068B7
:100660004068C007F0D0217E8020012921680A68F7
:100670003BD082430A60617E4020012921680A68DC
:1006800035D082430A60A17E2020012921680A68B2
:100690002FD082430A60E17E1020012921680A6878
:1006A00029D002430A60217F0820012921680A68B5
:1006B00023D082430A60617F0420012921680A68EF
:1006C0001DD082430A60E168A0686269084321691D
:1006D000114308436168491E08432168C86100202E
:1006E0006062012028700020F8BD0243C2E7024387
:1006F000C8E70243CEE78243D4E70243DAE7024386
:10070000E0E70000F0B587B0044614216846FFF723
:100710009BFD1B492068884230D11A48C2690121DB
:1007200049060A43C261C2690A4005924269091238
:100730000A434261406902240840059088110090F4
:10074000019401200325042602AA61C20927FF069D
:100750006946384600F050F8E0020090019400200D
:1007600002AA61C26946384600F046F80022032119
:100770001E2000F09BF91E2000F08CF907B0F0BDA0
:100780000064004000100240704770477047704797
:10079000704770B50546044620352878012805D0F5
:1007A000606A0121C9040843606216E002202870D3
:1007B0002068016849084900016000F0E9F8064630
:1007C0000DE000F0E5F8801B0A2808D9606A0121D5
:1007D00049040843606205202870012070BD20682C
:1007E0004068C007EDD1606270BD704770477047C8
:1007F0007047704770477047FCB500230124A6E09E
:1008000027462A469F403A4073D04D68012D05D0B7
:10081000022D03D0112D01D0122D16D1856803268B
:10082000AC465D00AE46AE406546B543AC46CE68CC
:100830007546AE4065462E43866046680D79BE43D8
:10084000ED06ED0F9D4035434560C6685F0003250A
:10085000BD40AE46AE4335468E68BE402E43C660B0
:100860004E68022E01D0122E14D1DE08B6003618C2
:100870000196366A5D07B446EE0E0F25B540009628
:100880006646AE43B4460D69009EB54066462E43AB
:10089000019D2E6206687546AE430D79AD07AD0F1A
:1008A000BD40354305604D68ED004FD52B4DAE6919
:1008B0002643AE61AD699E08ED07ED0F0095284D0A
:1008C000B6007519AC46AD689E07360F0F27B740C6
:1008D000BD430927FF06B84201D1002715E0214F8B
:1008E000B84201D1012710E01F4FB84202D10227C0
:1008F0000BE02BE01D4FB84201D1032705E01C4F50
:10090000B84201D1042700E00527B7402F436546D0
:10091000AF60184E35684F689543FF0300D5154307
:10092000356075684F689543BF0300D51543756002
:10093000B5684F689543FF0200D51543B560F5686B
:100940004F689543BF0200D51543F5605B1C0A68EC
:100950001546DA4000D053E7FCBD0000001002400D
:10096000000001400004004800080048000C004856
:1009700000100048000401400069084000D0012038
:100980007047002A01D08161704781627047000082
:1009900001488068704700000000002008B5064943
:1009A0008A6901231A438A618969194000910349C0
:1009B0000A6802430A6008BD0010024000000140BE
:1009C0000248816802788918816070470000002021
:1009D00010B506480168102211430160002000F0A4
:1009E00007F800F03FF8002010BD00000020024092
:1009F00000B5014687B000220F2000F057F80F2005
:100A000000F048F81348C16901221143C161C0696F
:100A100004A910400590684600F0D6F800F0F0F800
:100A20000D49FFF7A1FB01220C4992070A600C4A0D
:100A3000401ECA604860002008618860084600F0D7
:100A40003DFB002802D0012007B000BD034800F0A4
:100A50005BFBF9E70010024040420F00BC3600206B
:100A6000E703000008B50A4881690122114381614A
:100A7000816911400091C26901040A43C261C069E1
:100A80000022084003210090481F00F00FF808BD25
:100A900000100240002805DBC106C90E0120884075
:100AA000014908607047000000E100E010B500F067
:100AB00053FE10BDF8B50F4606005FD03D4D2868C7
:100AC000C007C00FB84209D2286840084000384328
:100AD00028602868C007C00FB8424FD13068364C34
:100AE00081070CD5400704D5606807210902084337
:100AF00060606068F0218843B168084360603078C6
:100B0000C0072CD07068012810D0022811D003280B
:100B100012D021688907002930DA616889088900C4
:100B200001436160FFF734FF009011E02168890301
:100B3000F1E721688901EEE7616BC903EBE7FFF795
:100B400027FF0099411A1D48814201D90320F8BDB1
:100B500060680C210840716889008842EFD12868DC
:100B6000C007C00FB8420BD928684008400038437E
:100B700028602868C007C00FB84201D00120F8BD26
:100B80003078400706D56068072109028843F1687C
:100B90000843606000F044F86168094A0906090FDB
:100BA000515CC840074908600020FFF721FF002082
:100BB000F8BD000000200240001002408813000031
:100BC0006C3800080C00002010B5072202600A4AA9
:100BD00053689B079B0F43605368F0242340836056
:100BE000526807231B021A40C26004480068C0070D
:100BF000C00F086010BD000000100240002002403D
:100C00000448054900684968044A4905490F515C90
:100C1000C84070470C000020001002407C380008DB
:100C200030B519A30FCB89B06C460FC41AA30FCBF4
:100C30000FC41D4A51680C200B4603401B48042B6F
:100C400005D01B4D082B04D00C2B00D1284609B031
:100C500030BD8B021B0F6C46E45CD26A04AB1207FA
:100C6000120FC9039A5C890F022901D0032901D010
:100C7000002301E0002328460021FFF78BFA2146DC
:100C800000F044FDE3E7000002030405060708093D
:100C90000A0B0C0D0E0F10100102030405060708C5
:100CA000090A0B0C0D0E0F100010024000127A0002
:100CB000006CDC02FEB5040070D02078F94EFA4DCD
:100CC000C00748D068680007800F01281FD06868F7
:100CD0000007800F022804D16868C003800F022833
:100CE00015D06168012919D001208004002901D0A4
:100CF000052917D02968B1432960296881432960F3
:100D0000606800281BD0FFF743FE074613E0286801
:100D1000800320D560680028CED01CE028683043CE
:100D20002860EDE7296801432960F7E7FFF730FE07
:100D3000C01B642870D828688003F7D50BE0FFF744
:100D400027FE074604E0FFF723FEC01B6428F1D806
:100D500028688003F7D4207880073FD568680007AB
:100D6000800F14D068680007800F022804D16868DB
:100D7000C003800F01280AD0E068002828681ED030
:100D8000012108432860FFF703FE07460CE02868AE
:100D900080070CD5E068012800D108E080E1FFF76A
:100DA000F7FDC01B0228C5D828688007F7D528683A
:100DB000F82188432169C900084328600EE04008F3
:100DC00040002860FFF7E4FD074604E0FFF7E0FD80
:100DD000C01B0228AED828688007F7D42078000707
:100DE00023D5E0690028686A0FD0012108436862B2
:100DF000FFF7CEFD074604E0FFF7CAFDC01B02283F
:100E000098D8686A8007F7D50FE04008400068620C
:100E1000FFF7BEFD074605E0C3E0FFF7B9FDC01BC5
:100E2000022887D8686A8007F7D42078042740070B
:100E3000002861DA00200190E869C00008D4E9695F
:100E4000B8060143E961E969014001200091019080
:100E500096480168C90511D40168821511430160E3
:100E6000FFF796FD009005E0FFF792FD0099401A0C
:100E7000642898D88D480068C005F5D5A068012879
:100E80000AD0002801D0052811D0286A4008400067
:100E90002862286AB84302E0286A012108432862D0
:100EA000A068002812D0FFF773FD00900AE0286ABE
:100EB00038432862F0E7FFF76BFD0099411A7C4840
:100EC00081426ED8286A8007F5D50DE0FFF760FDF6
:100ED000009006E0FFF75CFD0099411A74488142DA
:100EE0005FD8286A8007F5D40198002804D0E96902
:100EF000012000078143E9612078C00635D560698B
:100F000001280CD0401D686B24D038436863686B9F
:100F1000400840006863FFF73BFD074622E0686B2E
:100F200038436863686B012108436863FFF730FD4D
:100F3000074604E0FFF72CFDC01B022831D8686B80
:100F40008007F7D5686BF8218843A169C900084379
:100F500068630AE0B8436863F4E7FFF719FDC01B54
:100F600002281ED8686B8007F7D42078800637D512
:100F700068680007800F032814D068680007800F96
:100F8000022804D16868C003800F03280AD0206AB1
:100F90000028686B16D030436863FFF7F9FC0646FB
:100FA0000CE062E0686BC0031AD5206A012877D193
:100FB00016E0FFF7EDFC801B022856D8686BC003D3
:100FC000F7D50DE0B0436863FFF7E2FC064604E0A6
:100FD000FFF7DEFC801B022847D8686BC003F7D4FC
:100FE000606A002866D069680907890F022942D023
:100FF000012636060228286805D0B0432860FFF78E
:10100000C7FC044633E0B0432860FFF7C1FC074645
:1010100004E0FFF7BDFCC01B022826D82868800129
:10102000F7D4E86A216B000900010843E862A16A6D
:10103000E06A084369687B22D203914308436860F1
:10104000286830432860FFF7A3FC044604E0FFF75C
:101050009FFC001B022808D828688001F7D529E0EA
:10106000FFF796FC001B022801D90320FEBD28686B
:101070008001F5D41EE00128F8D06868E96A0322EF
:10108000D203A36A02409A420AD10907226B090FD0
:10109000914205D10F2189040840E16A884209D0B4
:1010A0000120FEBD00000100001002400070004061
:1010B000881300000020F4E77047704770B5040003
:1010C00005D025462035687F002802D006E00120A3
:1010D00070BD00202877204600F014F802206877C1
:1010E000211D206800F0B4FA01204034A071A877D7
:1010F000E87720706070A070E07020716071687790
:10110000002070BD70470000014620314A7F012A4F
:1011100001D00120704702224A770268D36801217A
:101120000B43D36000680B4A904208D08A07904274
:1011300005D0094A904202D0084A904204D1826800
:101140005207520F062A02D002680A4302600020AA
:1011500070470000002C01400004004000400140A6
:10116000704770B50446006801690025C9438907C6
:10117000002915DBC168C943890711D4E91E016143
:1011800001202077206880698007204602D0FFF781
:10119000E7FF04E000F096F8204600F094F8257789
:1011A00020680169C943490717D4C168C943490781
:1011B00013D40421C943016102202077206880698B
:1011C0008005800F204602D0FFF7CAFF04E000F040
:1011D00079F8204600F077F8257720680169C9433F
:1011E000090716D4C168C943090712D40821C943A5
:1011F0000161042020772068C0698007204602D062
:10120000FFF7AEFF04E000F05DF8204600F05BF869
:10121000257720680169C943C90617D4C168C94345
:10122000C90613D41021C943016108202077206822
:10123000C0698005800F204602D0FFF791FF04E0CF
:1012400000F040F8204600F03EF82577206801695C
:10125000C943C90708D1C168C943C90704D1891E58
:101260000161204600F030F820680169C943090691
:1012700009D4C168C943090605D48021C943016165
:101280002046FFF719FF20680169C943490609D4C0
:10129000C168C943490605D44021C94301612046BC
:1012A00000F01BF820680169C943890609D4C168A8
:1012B000C943890605D42021C94301612046FFF7AF
:1012C000FCFE70BD7047704710B5006801218907AA
:1012D000884201D1FFF774FB10BD7047FEE70000A4
:1012E00010B50F480D490160082141600021072217
:1012F0008160120402610122C160520542610176DF
:10130000012242768176C27601774177FFF771F943
:10131000002801D0FEF7F6FF10BD00000064004079
:101320009436002010B596B01C2211496846FEF78D
:1013300072FF0021684601F0F0FC0E4C0C49206061
:101340001C221C3107A8FEF766FF002107A801F048
:10135000E4FC074960601C2238310EA8FEF75BFFF1
:1013600000210EA801F0D9FCA06016B010BD00004D
:10137000843800086C000020F0B587B0142168465E
:10138000FEF762FF454948690126F604304348618B
:101390004869304005904A69F00002434A614A6951
:1013A000024005924869B2101043486148691040F4
:1013B0000590486952001043486148691040059003
:1013C0004A69700002434A6149690022014005915F
:1013D00033493448FFF7D5FA09200022B112C0067C
:1013E000FFF7CFFA002204212F48FFF7CAFA2F484F
:1013F0000325002400906946019502942C48FFF7CC
:10140000FBF9009569462B4801950294FFF7F4F922
:101410000F2001276A4691C209206946C006FFF7DE
:10142000EBF9254800900920694601950294C00611
:10143000FFF7E2F9214800906946019502941948A6
:10144000FFF7DAF9164802250090694601970295E0
:1014500003941448FFF7D0F9280200900920029461
:10146000694601970394C006FFF7C6F9042000906F
:1014700069460197029503940B48FFF7BDF9E8030D
:10148000FFF78CFA2804FFF789FA6804FFF786FA59
:101490003046FFF783FA07B0F0BD000000100240AD
:1014A000F873000000040048000C0048FFFF000033
:1014B0000008004800140048F0850000078C000078
:1014C0007047704700F0C4FC3C2001F019FCF9E7BC
:1014D00000F06AFF642001F013FCF9E7204F214D72
:1014E00000F0D0FB00242EE0FF2037306043C61907
:1014F000FF362B363046FEF7B2FE002804D03146C8
:10150000401EFEF7B6FE1CE0204609E0FF21373101
:101510004843C019FF2241183732FEF77CFEF0B273
:101520002978461C8E42F1D3C8B2FF213731484397
:10153000C019401AFEF788FE2878401E641E2870E5
:10154000E4B2641CE4B228788442CDD30648016832
:10155000002901D0491E01600A2001F0D1FBBFE73C
:10156000800D0020680000207C00002010B5FEF7F0
:10157000C5FD044602F0C6F8002803D00120034947
:10158000000748602046FEF7BDFD10BD00ED00E0FD
:1015900030B591B034216846FEF756FE00250D9512
:1015A000022401200E950390102009940F950490B9
:1015B0000094C0020A90109540010B900C9568466B
:1015C000FFF778FB002800D0FEE707200DA931C106
:1015D00001210DA81095FFF76DFA002800D0FEE755
:1015E00011B030BD12480168012211430160416809
:1015F000104A1140416001680F4A114001600168C2
:10160000012292049143016041683F2212049143F8
:101610004160C16A09090901C162016B074A1140B1
:101620000163416B490849004163002181607047B3
:10163000001002400CB8FF08FFFFF6FE2CFEFCFF76
:1016400010B50248FFF78DFD10BD0000BC3600202C
:10165000F0B502681D4B0124A4071D4D984203D02C
:10166000A04201D0A84203D17026B2434E68324353
:10167000184E194F98420DD0A0420BD0A84209D065
:10168000164CA04206D0B04204D0B84202D0144C4E
:10169000A04204D103242402A243CC682243802424
:1016A000A2434C69224302608A68C2620A6882626D
:1016B000984206D0B04204D0B84202D0084A9042C4
:1016C00001D10969016301214161F0BD002C014094
:1016D0000004004000400140004401400020004060
:1016E000004801400FB410B504A9074B02AA0398A3
:1016F00000F064F8044602A9002000F099FA2046A0
:1017000010BC08BC04B01847311C0008F8B5040C24
:101710008BB2264682B25E430D0C1046370C5843FE
:10172000360480190021794116466E43370C360481
:101730008019794126466E438919F8BD30B4744644
:10174000641E2578641CAB4200D21D46635D5B00BD
:10175000E31830BC184700008307FF22DB0E9A40D5
:101760008907090E9940002808DB830809489B0077
:101770001B18186890430843186070470007000F53
:101780000838830804489B001B18D8699043084315
:10179000D861704700E400E000ED00E002E008C816
:1017A000121F08C1002AFAD170477047002001E0DB
:1017B00001C1121F002AFBD170470000FFB591B094
:1017C0000F460546002606E025280AD0149A1399EC
:1017D00090476D1C761C28780028F5D1304615B04E
:1017E000F0BD002400940121F34A029400E0044378
:1017F0006D1C2B780846203B98401042F7D1287882
:101800002A280ED0022128780246303A092A15D813
:10181000009A0A235A43303A80180C436D1C0090FA
:10182000F1E701CF0090002805DA012040030443CE
:10183000009840420090022004436D1C28782E2816
:1018400015D10420044368786D1C2A280AD101CFE1
:101850006D1C02900BE002990A2251433039401866
:101860006D1C02902878014630390929F3D928786F
:101870006C2810D006DC4C281AD068280ED06A28B4
:1018800017D104E0742813D07A2812D110E0012077
:10189000400504430CE00121090501E0032109058D
:1018A0000C436978814203D10120000524186D1C86
:1018B0006D1C287803906E281ED00CDC632831D074
:1018C00004DC00288AD0582811D1B2E064287BD0EB
:1018D00069280CD178E073282DD004DC6F2870D0F3
:1018E000702804D1A7E075286CD078286BD0149AA2
:1018F00013999047761C62E06002400F022807D0DF
:1019000003280AD0042838680AD006603F1D56E034
:101910003868F11706604160F8E738680680F5E737
:101920000670F3E73878694608740020487404A804
:101930000390012003E0386803900020C0433F1D5E
:1019400061070FD5002101E00199491C029A01911C
:10195000914213DA8142F7DB019A0399895C0029ED
:10196000F2D10BE0002101E00199491C0191814273
:10197000FADB019A0399895C0029F5D10199009855
:10198000139A401A00902146149B00F03BF90199EC
:101990008019461807E0039803990078491C0391C1
:1019A000149A139990470198401E0190401CF2D15F
:1019B0002146149B139A009800F014F986196D1CA7
:1019C00009E741E033E034E00A200021049005916A
:1019D0006002410F022905D001CFC21794460329A6
:1019E00005D007E0FF1DFF08FF0003CF06E000B2AF
:1019F000C2179446042902D140B2C1178C46002276
:101A00006146944506DA0A460021404291418C46DF
:101A10002D2102E0210504D52B216A4611760121F2
:101A200003E0E10701D02021F7E7019154E00A200B
:101A30000BE0102009E01020049000210420044352
:101A400008200591029003E00820002105910490F0
:101A50006002410F022905D001CF002294460329DC
:101A600006D006E0FF1DFF08FF0003CF8C4603E011
:101A700080B2042900D1C0B20021019121072BD5E9
:101A80000399702906D0049A1021059B4A401A43F5
:101A900005D00EE040216A461176012108E061463A
:101AA000014306D030216A4611760399517602210E
:101AB0000191049A0821059B4A401A430CD16146C2
:101AC000014301D1610707D530216A461176012112
:101AD00001910299491E02910399582904D037A116
:101AE00003910FA90F910DE039A1F9E76146059B1C
:101AF000049AFEF74FFB039B8C469B5C0F9A521E89
:101B00000F92137061460143F0D10F9807A9081A8C
:101B100020300390600704D501200004844302981C
:101B200001E0012002900399884201DD401A00E0A3
:101B3000002041180290019809180098401A00905E
:101B4000E00306D42146149B139A009800F05AF83B
:101B500086190020049008E006A9085C149A1399DD
:101B600090470498401C761C049001998842F3DB4E
:101B7000E0030CD52146149B139A009800F042F81C
:101B8000861904E0149A302013999047761C029924
:101B9000481E02900029F5DC08E00F980F990078A4
:101BA000491C0F91149A13999047761C0399481E6B
:101BB00003900029F1DCFBE60928010030313233C3
:101BC0003435363738396162636465660000000079
:101BD0003031323334353637383941424344454663
:101BE00000000000F8B5044600251E46174688048C
:101BF00004D405E039462020B0476D1C641EF9D599
:101C00002846F8BDFFB50446002581B01E46C8032E
:101C100001D5302700E02027880404D505E03846A8
:101C20000399B0476D1C641EF9D5284605B0F0BD78
:101C30000A68531C0B60107070471FB50178C90605
:101C4000890F1DD100240094019402940394FEF79F
:101C500006FB00906846C078810668460278E72057
:101C600002406846890E0270C320803101406846F8
:101C70000C31C17001210C434471017101F038FB3A
:101C80001FBD0000F8B5554D0024062021464143F4
:101C900053480E183046FEF7E2FA7179327909029C
:101CA0001143FEF769FE002812D00D202746474356
:101CB000E85D810748D5FF214A4AF53111800121AD
:101CC0000843E85579190F20491DFEF7D2FA3EE086
:101CD0000D20274647437E19701CFEF7C0FA3228B4
:101CE00020D9FF203F49F5300880711C0020FEF705
:101CF000C0FA4100E85DFD22104008430821084376
:101D0000E855093600903046FEF7A9FA00284CD174
:101D10000098400749D4009804210843E85531460B
:101D20000F203BE0012809D930460930FEF797FA29
:101D3000002803D1E85D02210843E855701CFEF736
:101D40008EFA711C401C29E0FD210840E855E85D31
:101D5000F72108400107C90FFD2249001040084340
:101D6000E85580077E19C00F711CFEF782FA3046D5
:101D700009300090FEF773FA002804D0401E009945
:101D8000FEF777FA03E0E85DFB210840E855701D97
:101D9000FEF765FA002804D0711D401EFEF769FAAF
:101DA00003E0E85D40084000E855641CE4B2042C00
:101DB00000D26AE70B4C0121228809204902C006A3
:101DC000002A06D00122FEF7DCFD2088401E20807C
:101DD000F8BD0022FEF7D5FDF8BD00000437002055
:101DE000D83800087800002030B58BB0282168462C
:101DF000FEF72AFA144D1348286000F027F8002156
:101E00000E2004910691099005914007019101244B
:101E1000010C00910894079403A902AAFEF773FA33
:101E200069462868FEF774FA286801684A6902233F
:101E30001A434A6101684A6922434A61FEF7A9FCD4
:101E40000BB030BD943600208C000020704700009D
:101E50001FB500F041F80E480168002911D100912A
:101E6000019102910391FA2101606946C878C3216A
:101E70008006800E08406946001DC870684601F063
:101E800037FA05480349006801F03AFA1FBD00001F
:101E90007C000020DA3800208C00002010B50446B9
:101EA0000121002289030548FEF76BFD204601F061
:101EB000F1F92007000E01F0EDF910BD0004004813
:101EC000002807D0000203E000BF00BF00BF00BF32
:101ED000401EF9D170470000F0B58BB00026059682
:101EE00006960796049600960196029608A8039611
:101EF0000670684600F050F900287DD008A96846B1
:101F000000F0F4F8002877D008A80078FF213731D6
:101F10006A4D48434419E07821468006800E80309F
:101F2000E070FF317D202B31C000FEF7A2F9204682
:101F3000FEF795F904906846017CE7200140684669
:101F40000174C078C3278006000F694601282CD091
:101F500002287DD0052860D148798007800F4CD0B9
:101F600001285CD0022858D18879891DC006C00E8E
:101F7000C200101A201803229030FEF74CF9684670
:101F80008079FF22C10608A80078373250434019F3
:101F90004079C90E8006C00E81423ED16846C17CA0
:101FA00039400831C174067583E020460A79FF3054
:101FB0002F30491DFEF72FF908A80078FF2137318F
:101FC00048434219FF322432507B137B01023C48C4
:101FD000194301406846C0880005400D4000014398
:101FE0001173080A50736846C17C39401031C174BE
:101FF0000121017546755CE00FE088792071C9798F
:102000006079CA0740084000D20F10438906C122F8
:10201000C90E10404900084360710BB0F0BD8879CB
:10202000891DC006C00EC200101A20180622001D0D
:10203000FEF7F1F868468079FF22C10608A800780B
:102040003732504340194079C90E8006C00E00E077
:102050000BE08142E1D16846C17C39401031C17446
:10206000012101750221417523E08878C00802280A
:1020700008460FD040790A79800703D02046FF3008
:10208000243002E02046FF302430891D521EFEF726
:10209000C2F8C2E7FF34807924342070C8796070B8
:1020A0000846C988C182C17C39400831C1740179B0
:1020B000017504A801F01CF9AFE70000800D0020B5
:1020C00001F0FFFF0178CA0704D0490849000170F8
:1020D000012070470020704701784A0704D5FB2291
:1020E000114001700120704700207047F3B507468A
:1020F000284881B00024264E05782DE0FF21373195
:10210000614389198B78BA789C46D008DB089842DD
:1021100021D178783B7800021843120410434A78A2
:10212000097812020A43614609040A434003510335
:10213000800C890C88420ED13846FEF790F8FF21BA
:10214000373161438919FEF794F83846FFF775FD7A
:102150000298047017E0641CAC42CFDB0D4C202DBC
:1021600013D23846FEF77BF8FF2137314D43A919CA
:10217000FEF77FF83846FFF760FD0298217801707E
:102180002078401C20700120FEBD0020FEBD000014
:10219000800D00206800002010B50146014800F0C5
:1021A000B1FF10BD3837002000B5801E0300FFF7D7
:1021B000C5FA151E102222140C20221216222222E9
:1021C000180E222222221A1C22000CA000BD0DA0F3
:1021D00000BD0EA000BD0FA000BD10A000BD11A04D
:1021E00000BD12A000BD13A000BD14A000BD15A02D
:1021F00000BD16A000BD18A000BD00002020A14811
:1022000043A70000A120ACAFA8000000202043425B
:1022100041A400004D4320A94B42A400A9A42042A0
:102220004FA743004D4320A94B41A40020A120A467
:10223000AF43000020205043B8A7000020205043A7
:10224000B4A700002020A8E0A90000004B61BC65F5
:10225000702E3520000000002D2D2D0070B50121BD
:10226000002289032448FEF78CFB302001F012F88D
:102270006420FFF725FE302001F00CF86420FFF702
:102280001FFE302001F006F86420FFF719FE202021
:1022900001F000F86420FFF713FE2820FFF7FEFD91
:1022A0006420FFF70DFE0C20FFF7F8FD3220FFF74A
:1022B00007FE0120FFF7F2FD9620FFF701FE062042
:1022C000FFF7ECFD3220FFF7FBFD4020FFF7E6FDB6
:1022D0003220FFF7F5FD094D0024285D01F08CF94F
:1022E0003220FFF7EDFD641CE4B2282CF5D38020EA
:1022F000FFF7D4FD70BD000000040048F43800086A
:10230000F8B500252C460220FFF7C8FD194F2026FE
:1023100001E0102D0AD2785D002803D001F06CF99D
:10232000641CE4B27E556D1CEDB204E0202001F087
:1023300063F9641CE4B2082CEBD3C020FFF7AEFDB8
:1023400000240C4F2546143701E0102D0AD2785D89
:10235000002803D001F050F9641CE4B27E556D1CD6
:10236000EDB204E0202001F047F9641CE4B2082C2F
:10237000EBD3F8BD7C3A0020FEF72AFBFFF708F903
:10238000FEF7FAFFFEF7ACFFFFF768FFFFF72CFD43
:10239000FEF7C8FF00F0BCFCFEE7014600208429E0
:1023A00000D0C81C70470000F0B589B00025029528
:1023B00003950495FE4C0595A288E727FD480690F5
:1023C000002A0DD0273801460D3007901A31FA48FF
:1023D00008910078F94E012A56D0022A7ED1E9E010
:1023E000F7A1FA48FFF77EF9F34EF9A13278FA48DF
:1023F000FFF778F93078002870D0EE482738FFF7DB
:1024000061FE002802D0257001206BE0E9482738E2
:10241000FFF762FE00281CD068460295C07A81064C
:10242000890EC32001406846091DC1720573012051
:10243000A0706178002905D065706946087A384037
:10244000083004E060706946087A3840103008723D
:10245000ACE00698FFF740FE0028CDD06846029514
:10246000C07A8106890EC320014068460C31C172D2
:10247000017A394010310172417B042001436846E2
:1024800041730121017391E0002801D1A5802570DD
:102490002078FF213731484380198078C008FFF742
:1024A00083FE0246CDA1C948FFF71CF92078FF2121
:1024B00037314843811948780A78897800021043F7
:1024C000090408434003820CC5A1C348FFF70AF979
:1024D000B8482738FFF7F6FD002800E050E303D0A6
:1024E000A088401CA080A3E30898FFF7EBFD00281C
:1024F00009D0B14920780978491E884201DA401C88
:102500000AE0257094E30798FFF7DCFD002808D067
:102510002078002802D0401E207089E3A648007869
:10252000F9E70698FFF7CEFD002803D0E580257077
:10253000A5807DE39F482738FFF7CEFD00287DD199
:1025400010E03840103001E0384008300872C87A96
:10255000C3218006800E803008406946001DC87285
:102560000D7323E00698FFF7B7FD0028BBD0207855
:10257000FF21373148438019FDF771FE694602900B
:10258000C87AC3218006800E80300840001D0840B4
:1025900069460C30C872087A384010300872487B9F
:1025A00004210843694648730120087302A800F01B
:1025B0009FFE3DE3002802D1E580A58025707C4880
:1025C000E28881681300481EFFF7B8F808051C4B25
:1025D000AFF0EFEEEDEC84A17C48FFF783F82078B4
:1025E000FF21373148438019FF302130417C027C84
:1025F000C37C807C09021143000401430802020BE2
:102600007CA1DCE12078FF213731484380198178B3
:10261000FF30C908243041780078090201430805D9
:10262000000D6421FDF7A0FD02460B4674A167482A
:10263000FFF758F8FF212078373100E01DE24843CA
:1026400080190146FF3123314A7B0B7B1102FF3099
:1026500019432130C905807B0B0FC206D20E6CA135
:10266000ADE12278FF2337335A4392199378DB0880
:10267000022B2DD0002902D068A1A06006E1917B39
:10268000507B090201438804030D107BD17A0002BC
:102690000843517B090408438003020D61A14B48A4
:1026A000FFF720F82078FF21373148438019417D1A
:1026B000027D0902114389040B0DC17C827C007DDF
:1026C00009021143000401438803020D58A176E179
:1026D000002906D0A06059A13C48FFF703F85AA191
:1026E000C3E1FF3221321079C1090191420681060E
:1026F000D20F0092C006CB0FC20F55A13348FEF790
:10270000F1FF2078FF21373148438019827B437BDA
:102710001102194389040B0D8030417E027E0802AC
:1027200010434004020D4DA149E12278FF233733C5
:102730005A4392199378DB08102B38D00F2B36D0E0
:10274000002906D0A06035A12048FEF7CBFF46A1A6
:102750008BE1117FD07E090201438804030D907E36
:10276000517E00020843D17E090408438003020D14
:102770003FA11648FEF7B6FF2078FF2137314843C6
:102780008019014622314A780B78110219438904D5
:1027900020300B0D41780278090280781143000443
:1027A00001436BE064E158E10DE1D1E081E069E0D3
:1027B000800000202B37002068000020800D0020C2
:1027C000BA6FBB207963BF3A000000007C3A00205A
:1027D0002020202025750000903A0020257300005D
:1027E00063BD3A253575000048617061B26FBF2E38
:1027F000000000002535753A2530327500000000D4
:10280000553A20253032752E2530327500000000F3
:1028100056253033752E253033750000A86F706F44
:10282000B4B800000125303358012530335800007A
:10283000022530335802253033580000436F63BF00
:102840006FC7BD2E000000002020A8E0A9000000F6
:1028500025752025752025752025750025303358D0
:102860002F253033580000003320B82034000000FA
:102870000325303358032530335800008803020DF8
:10288000EDA19CE0002906D0EEA1A060EF48FEF784
:1028900029FFEFA1E9E0D07D917D0002084380058A
:1028A000830E107CD17B000208438005820EEAA1D2
:1028B00049E02278FF2337335A4392199378DB0893
:1028C000102B2BD00F2B29D0002902D0DDA1A06026
:1028D00042E0D07D917D000208438005830E107C8C
:1028E000D17B000208438005820EDBA1D748FEF7AA
:1028F000F9FE2078FF213731484380190146203105
:102900004A790B791102194389058B0E817F427F29
:10291000080210438005820ED3A150E0002902D0A6
:10292000D5A1A060B2E710468330417F037F080243
:1029300018434004030D8032507E117E000208438C
:102940004004020DCFA1C148FEF7CCFED0A18CE01F
:10295000002906D0C8A1A060BC48FEF7C3FECFA1E5
:1029600083E02078FF2137314843811908468330BE
:10297000427F007F120202435004030D084680305C
:10298000417E007E090201434804020DBDA1AF480B
:10299000FEF7A8FE2078FF21373148438019014611
:1029A000A1314A7B0B7B1102194349040B0DA23064
:1029B00041790279080210434004020DB9A1BC48D4
:1029C000FEF790FE54E0002906D0A060B9A19F4810
:1029D000FEF788FEBAA148E02078FF21373148434E
:1029E0008119C87D8B7D0007820FB7481B02825C6E
:1029F000487D019203431805800E0090087C000773
:102A0000820FB148835CC87B897B000208430005C4
:102A1000820EAEA18D48FEF765FE2078FF2137318A
:102A2000484380192521095C09078A0FA6498A5C59
:102A3000014623314B7809781B020B431905890E97
:102A400001920091817F09078A0F9F498B5C417F2A
:102A5000027F08021043000565E000291ED0A06037
:102A60009EA17A48FEF73EFE9EA19148FEF73AFEEF
:102A70009E48FFF731FB00285BD02478FF203730D9
:102A80004443A019FDF7EBFB0290305D6946C00698
:102A9000800F0128087A00D056E552E52078FF2102
:102AA000373148438119C87D0007820F8648825C10
:102AB00008468230437F007F1B0203435805800E87
:102AC00001920090087C0007820F7F48835C0846D3
:102AD0008330417D007D090201434805820E7BA1C0
:102AE0005A48FEF7FFFD2078FF213731484380190F
:102AF0002521095C09078A0F73498A5C0146A031C8
:102B00004B7B097B1B020B435905890E01920091F7
:102B1000817FA13009078A0F6B498B5C417902796B
:102B2000080210434005820E71A16148FEF7DAFDEC
:102B30009EE70698FFF7D0FA002800D017E508981E
:102B4000FFF7C0FA052700282CD02078FF21373165
:102B5000484380198078C008801E0300FEF7EEFD10
:102B600015190C58580C0C0C5811115858581515AB
:102B7000585858581E1E5800E08807280CD3E58086
:102B800056E0E088062807D3F9E7E088042803D355
:102B9000F5E7E0880228F2D2401C38E0E0880028FF
:102BA0003BD0ECE70798FFF78DFA002838D0207863
:102BB000FF213731484380198078C008801E030008
:102BC000FEF7BCFD151C0C26260C0C0C261111263C
:102BD000262617172626262621212600E0880028EB
:102BE00014D1072003E0E08800280FD10620E08000
:102BF00011E0E088002809D10420F8E7E0880028E7
:102C000004D10220F3E7E088002806D0401EE080CF
:102C1000E08801280CD9A7600AE00120E08007E0E5
:102C20000698FFF74FFA002802D00120A080A6E7FF
:102C3000FFF766FB09B0F0BD04253033580425309A
:102C400033580000E06FBE7963BA00007C3A002080
:102C50003120B820320000000125303275252502D0
:102C600025303275252500000325303275252504D1
:102C70002530327525250000A4BD61C065BDB8C7EB
:102C80000000000001253033580225303358000081
:102C900020202020202020200000000031202D2096
:102CA0003400000003253033580425303358000029
:102CB000903A0020A9706FB3BDB820B800000000A2
:102CC000BF65BCB270C30000F03800080125303287
:102CD0007525630225303275256300005465BA7985
:102CE00077B8650079706FB3BDB800000437002075
:102CF00003253032752563042530327525630000C5
:102D000010B5002800D1012000F0FEFB002010BD0E
:102D100010B500F011FC002010BD7FB50D46044633
:102D200041690820205E002911D0A16900290ED038
:102D3000FFF733FB6B46A269616907C32B46226923
:102D40002168606800F0BBFC039004B070BDFFF721
:102D500024FB03A901910090208A2B4682B22168AE
:102D6000606800F083FC012801D00020EDE70398A3
:102D7000EBE70000F8B5134C0F466669054620687E
:102D8000001D00F02AFB681C07D1002F05D0216828
:102D90000D48091D00F064FBF8BD206875194560F9
:102DA0002168B54204D2A068091D00F041FBF8BDBE
:102DB0006068091D00F03CFB206B8542F7D225635B
:102DC000F8BD0000100000206C010020F8B5054699
:102DD00000F052FB294C2069401C20612068284FDC
:102DE000002803D0E069002827D02CE02560206966
:102DF000012828D1002614207043C01900F00AFBD6
:102E0000761C072EF7D31E488C3000F003FB1C48BD
:102E1000A03000F0FFFA1A48B43000F0FBFA18486E
:102E2000C83000F0F7FA1648DC3000F0F3FA144826
:102E30008C3060601430A06005E02068E96AC06AE8
:102E4000884200D82560E06A401CE062E86AA16917
:102E5000884200D9A06114214843C019291D00F0FF
:102E6000FFFA00F015FBE069002806D02068E96A47
:102E7000C06A884201D200F03BFBF8BD1000002080
:102E80009000002010B504464030407C002805D05A
:102E9000012806D0022807D072B6FEE7206B00F0AA
:102EA00005FB204600F002FB10BD000003210E4888
:102EB0008902420705D0C01DC0080B4AC000821A13
:102EC000891A0A4A0023411809C20839C908C900E9
:102ED000183A11604B600B600B1A0AC09360012016
:102EE000C0075360D0607047800100205C00002064
:102EF0000F4E104C3746C83F11E000F0BDFAF068A5
:102F0000C568281D00F069FA2069401E2061E0684C
:102F1000401EE06000F0BCFA2846FFF7B3FFE0680F
:102F20000028EAD138680128F9D900F0E1FAF6E77B
:102F30005801002010000020FFB581B00C9C9000CB
:102F4000236B001F1818C6080A9DF600700701D0F1
:102F500072B6FEE723180A5C20331A750A5C002A51
:102F600002D0401C1028F5D32046403000270090A6
:102F7000C770072D00D30625E562A764201D656490
:102F800000F053FA2046183000F04FFA2461072071
:102F9000401B6462A061E764009807743046049A9D
:102FA000019900F09FF820600B98002800D0046081
:102FB00005B0F0BD30B5114900E011460A68824203
:102FC000FBD34B685C18844203D1406818184860F2
:102FD000084643681C18944209D1084C103C2468E8
:102FE000A24209D052689A1842600A6812680260C8
:102FF000814200D0086030BD0460F9E75C00002029
:10300000064841680968002905D04168C968C9684F
:103010004968016370470021C943FAE710000020A6
:1030200003480068401C72B600D0FEE7FEE70000CF
:1030300064000020F8B50546002700F0A9FA284EE4
:103040003068002801D1FFF731FFF06805423FD119
:10305000002D3DD00835680708D06807400F0821CB
:10306000081A4519680701D072B6FEE7002D2FD067
:10307000706885422CD81A48103001460C6801E06F
:1030800020460C466168A94202D221680029F7D186
:1030900031688C421CD0076821680160606808377D
:1030A000411B102908D96019420701D072B6FEE70A
:1030B00041606560FFF77EFF61687068401A70606C
:1030C000B268904200D2B060F0680143002003C4AF
:1030D00000F076FB780701D072B6FEE73846F8BDFF
:1030E0004C00002010B50124031F24061C601B1F88
:1030F0001960191F024B0B60143940380A6010BD6B
:103100002130000870B50D460446217800200907DB
:1031100039D060780D210007000F48430019801C4A
:10312000FDF79DF82946FDF7A4F860780D2100070A
:10313000000F484300198079287160780007000F5C
:1031400048430019C01DFDF78AF8691DFDF791F885
:1031500060780D210007000F484300190B30FDF780
:103160007EF829460931FDF784F860780007000FE2
:10317000401C607020780109401E09010007000F03
:1031800001432170012070BD70B504460D4608460C
:10319000FDF765F821780D22090951430919891CA9
:1031A000FDF767F820780D220009504329790019AE
:1031B0008171681DFDF753F821780D2209095143EB
:1031C0000919C91DFDF755F828460930FDF747F8DC
:1031D00021780D220909514309190B31FDF749F8EE
:1031E000217808070909491C000F0907090E08433F
:1031F0000421C841890640181C21C84120700120C3
:1032000070BDF7B5054608780E4600090D21484304
:10321000811902988F1C040120462968FF30B130C3
:1032200008583946FDF725F83878C008C0003870CE
:103230002046FF302968B530085838712046FF30E5
:103240002968B9300858791DFDF713F8FF3428684C
:10325000BD34005939460931FDF70BF831780807BC
:103260000909491C000F0907090E08430421C84138
:10327000890640181C21C84130700299202001297C
:10328000296803D0CA680243CA60FEBD0A690243C6
:103290000A61FEBD70B5154C6169FF229200914331
:1032A000C20601D540221143820601D58022114376
:1032B000420602D5FF2201321143000602D5012049
:1032C0004002014361613220FEF7FAFD012215033D
:1032D00029462046FDF755FB3220FEF7F1FD00227E
:1032E00029462046FDF74DFB70BD00000004004854
:1032F00010B501460148FFF747FF10BDDA3800203E
:10330000F8B5064608780D46000765D068780D21A7
:103310000007000F48434719306800218268BF1C2E
:10332000520104D5826801231A43826011E081684A
:103330000901816805D5FF22013211438160012115
:1033400007E0C90048D58168012212041143816059
:103350000221080132680090FF3081300446105885
:10336000C007C00F105100983168FF3085300A58EF
:10337000120912010A5031680A583B791A430A505F
:10338000781DFCF76CFF014600983268FF308930E9
:10339000115038460930FCF762FF01460098326848
:1033A000FF308D3011503846FCF759FFC108C90075
:1033B0000120091D326801431059014311516878F9
:1033C0000007000F401C687028780109401E0901A1
:1033D0000007000F01432970F8BD43688268016946
:1033E0009A60836842685A604A68824201D1826862
:1033F0004A60002202610868401E08600868704741
:10340000034B0360184654300860802010607047FA
:10341000403400200146083100224160D243C1609F
:1034200082600161002101607047002101617047E5
:1034300030B50B685A1C02D00246083202E002691D
:1034400004E02246546825689D42FAD953684B60CF
:1034500099608A60516008610168491C016030BD53
:1034600042684A6093688B60936859609160086114
:103470000168491C0160704772B604480168491C24
:103480000160BFF34F8FBFF36F8F70476400002060
:1034900005490868002804D0401E086000D162B6C3
:1034A000704772B6FEE700006400002070B5002887
:1034B0001AD004460D4D083C6068E968084201D105
:1034C00072B6FEE72268002A01D072B6FEE7884392
:1034D000606000F05DF860686968401868602046C8
:1034E000FFF768FD00F06CF970BD00004C00002093
:1034F0000120044900074860BFF34F8FBFF36F8F6F
:103500007047000000ED00E010B502000FD0094840
:10351000806B002801D072B6FEE700F039F8002178
:103520001046FFF727FC00F04BF9002801D1FFF708
:10353000DFFF10BD1000002010B586B000240394FA
:1035400005AA04A903A80494FFF75AFF0499039855
:10355000009401910290002309A10B48059A00F004
:10356000AEF80A490028486308D072B60020C0436C
:1035700008630120C8614C6100F050F806B010BD2E
:1035800049444C4500000000F12E000810000020C6
:103590000248816B491C81637047000010000020C5
:1035A00010B51348816B002902D00121416210BD82
:1035B0000021416281690F4A02E0002915D0491EAD
:1035C00014234B43D358002BF7D014234B439A18A2
:1035D000536814465B6808345360A34201D15B68AA
:1035E0005360DA680260816110BD72B6FEE70000C8
:1035F000100000209000002010B504460122910325
:103600000548FDF7BEF92046FFF744FE2007000EEF
:10361000FFF740FE10BD00000004004870B50F48E1
:10362000016AFF22120411430162016A120211436E
:1036300001620B4C00252561A5610A487D21C90066
:103640000068FCF791FD401E60610720206106487C
:103650000560FCF73FFD002070BD000000ED00E0BC
:1036600000E000E00C00002064000020FFB585B001
:10367000164690000F9FFFF7DDFC05001CD054207C
:10368000FFF7D8FC040014D0002051212563085511
:103690000E9900910390019702943246089B069977
:1036A0000598FFF749FC2046FFF790FB012009B081
:1036B000F0BD2846FFF7FAFE0020C043F7E7F0B55B
:1036C00085B007460B9D0C9C0A98002D15D0002C48
:1036D00015D054262563022551263555002504AE04
:1036E00000900196039502943846FFF725FC20468A
:1036F000FFF76CFB049805B0F0BD72B6FEE772B63A
:10370000FEE70000F8B52C4C0027A06B002808D07D
:10371000206A401C2062606A002800D001273846D9
:10372000F8BD6669761C66610ED160680068002885
:1037300001D072B6FEE76068A1686160A060A06A0F
:10374000401CA062FFF75CFC206B86420AD36068D5
:103750000068002810D06068C068C5686868864244
:103760000DD2206320681421C06A484313490858C9
:103770000128D0D90127CEE70020C043F1E7281D5A
:10378000FFF72BFEA86A002803D028461830FFF761
:1037900024FEE86AA169884200D9A0611421484347
:1037A00006494018291DFFF75BFEE86A2168C96ACF
:1037B0008842CCD30127CAE71000002090000020E7
:1037C000F8B5284C0025A06B2E46002808D0FFF73E
:1037D00053FEA06B401EA063A06B002802D03DE00A
:1037E00072B6FEE72169204F00291DD136E0F86846
:1037F000C56828461830FFF7F0FD281DFFF7EDFDDE
:10380000E86AA169884200D9A06114214843164999
:10381000B4394018291DFFF723FEE86A2168C96AF8
:10382000884201D30120606238680028DFD1002D72
:1038300001D0FFF7E5FB256A002D09D00127FFF72E
:1038400061FF002800D067626D1EF8D10020206261
:10385000606A002802D00126FFF74AFEFFF718FE33
:103860003046F8BD10000020440100200000000098
:103870000000000001020304060708090000000020
:103880000102030428390008DD14000803000000C9
:1038900000000000800000000000000000000000A8
:1038A0001C390008C51400080200000000000000D8
:1038B000800000000000000000000000383900080F
:1038C000D1140008FDFF000000000000800000008F
:1038D000000000000000000000000048010000009F
:1038E00000480200000000480400000000480800F2
:1038F0004146425300000000000000001F1B131B44
:103900001B1B111F1F130D1D1B17011F1F130D1B49
:103910001D0D131F1F171515111D1D1F6D795461E6
:10392000736B43414E0000006D795461736B5379A2
:10393000735469636B0000006D795461736B4D655E
:103940006E7500006439000800000020900000003F
:103950009C170008F439000890000020183E000071
:10396000AC17000801000000040000000000000087
:1039700000127A00000000000000000000000000BB
:103980000000000000000000000000000000000037
:103990000000000000000000000000000000000027
:1039A0000000000000000000000000000000000017
:1039B0000000000000000000000000000000000007
:1039C0000000000000000000AAAAAAAA000000004F
:1039D00000000000000000000000000000000000E7
:1039E00000000000000000000000000000000000D7
:0439F00000000000D3
:04000005080000C12E
:00000001FF
