:020000040800F2
:10000000981C00204D010008AD2800085525000867
:1000100000000000000000000000000000000000E0
:10002000000000000000000000000000AF280008F1
:1000300000000000000000000B010008F52A000885
:100040005F0100085F0100085F0100085F01000810
:100050005F0100085F0100085F0100085F01000800
:100060005F010008E10800085F0100085F01000867
:100070005F0100085F0100085F010008752B0008A0
:100080005F0100085F0100085F0100085F010008D0
:100090005F0100085F0100085F0100085F010008C0
:1000A0005F0100085F0100085F0100085F010008B0
:1000B0005F0100085F010008A50800085F01000853
:1000C0000348854600F02CFB00480047ED4200083D
:1000D000981C0020084B19680868203080F30988B4
:1000E000022080F31488BFF36F8F3FBCAE4608BC7C
:1000F00004BC62B61847000078000020EFF31080BF
:1001000072B6704780F310887047EFF309800E4B8A
:100110001A6820381060F0C044464D4656465F4687
:10012000F0C008B572B604F0BFFD62B60CBC116831
:1001300008681030F0C8A046A946B246BB4680F316
:1001400009882038F0C81847780000200448804704
:1001500004480047FEE7FEE7FEE7FEE7FEE7FEE7AE
:10016000192B0008C100000830B50B4601460020DD
:100170002022012409E00D46D5409D4205D31D46AD
:100180009540491B2546954040191546521E002DA5
:10019000F1DC30BDF0B51FB40646002082B0054644
:1001A0004024019100901BE0019922460F46304601
:1001B00000F020F8049A059B801A994110D310464C
:1001C0001946224600F02AFA361A8F410197224634
:1001D00001200021009F00F021FA38184D410090C5
:1001E0002046641E0028DFDC019B00982946324629
:1001F00007B0F0BD10B5202A04DB0846203AD040F5
:10020000002110BD0B46D340D0402024A21A9140BB
:100210000843194610BD03460B439B0703D009E072
:1002200008C9121F08C0042AFAD203E00B78037031
:10023000401C491C521EF9D27047D2B201E0027034
:10024000401C491EFBD270470022F6E710B513464A
:100250000A4604461946FFF7F0FF204610BD30B5A8
:1002600004460020034600E05B1C934203D2E05C9E
:10027000CD5C401BF8D030BDF0B50746084658406D
:1002800087B0C00F049048000E4659004008490846
:10029000BC1A884105D2384631461E4617460B46E1
:1002A00002465800400810434CD0300D03904005E2
:1002B0005900400D490D0590401A0290402872DA0D
:1002C00018030121000B09050843019004980092CE
:1002D000002805D0019952420020884100920190E7
:1002E000029840210A1A0199009800F097F90546F2
:1002F0000C466B4607CB00F0A1F9C0197141039A77
:100300000E0D0023D71756401A467A40164344D0A4
:10031000049A002A2DD0029A012A039A15DC1205AC
:10032000C01A914101263605001C7141D20F059E6D
:10033000D2070093019202962A46234600F09EF9C6
:1003400007B0F0BD38463146FAE71605224A0F4697
:10035000B218C01AB74101210905001C4F4100180D
:100360007F41114618187941E20F10436D1964411D
:1003700013E0E2076D0815436408C2071443039AAB
:1003800001261205C01A91413605001C7141CE07A5
:10039000400830434908C01851412A46234600F01E
:1003A00060F9CDE7FFE7049801224000C117121A57
:1003B00000238B4104983146C417381AA141EEE757
:1003C00030B40124E407634030BC55E730B4012465
:1003D000E407614030BC4FE70000E0FFF0B51FB418
:1003E00088B00B990998002448400999C00F49002A
:1003F00049080991C0070B990090490049080B91E1
:1004000009990898A64608431CD00B990A980843F6
:1004100018D0099801244000420D4800410D099868
:1004200024050003000B204309900B980003000BE8
:1004300020430B9050181C4940180022019014468C
:10044000104605E0002001460DB0F0BD032801DA9A
:10045000034600E003239C46C11A0AAE0AE05F008F
:1004600008ADED5B4F00F75B7D430027AA187C4188
:10047000491C5B1E6145F2DD410004AB5A52210468
:10048000120C0A43240C401C0828DFDB0198029060
:100490000099704601910090059B049A079906986F
:1004A00000F0ECF8D0E700000DFCFFFFF0B50C46C3
:1004B0005C4085B0E40FE40703944C000026640818
:1004C00059009446490802460296224321D06246CA
:1004D0000A431ED06200570D4A000E032303550D38
:1004E000012402462C492405781B1B0B360B4018AF
:1004F00023432643614600901C46501AB44103D35F
:100500000098401C009002E0921800985B4100287F
:1005100003DA0020014605B0F0BD002001210905E5
:100520000746864611E064461D46141BB54106D3B6
:100530006546521BB341744607430C43A646CD079C
:1005400040084908284392185B4105460D43EAD10B
:100550001046184313D06046194650407140084376
:1005600006D06046101AB34106D20122002306E0ED
:1005700000220123DB0702E00122D243531000983E
:1005800074460105381C6141029C039D00196941B4
:1005900000F067F8BFE70000FD0300000EB5C217CA
:1005A000C10F5040CA0740180021054B0293019229
:1005B00000910A460B4600F061F803B000BD000050
:1005C000330400000EB505490291002100910A464E
:1005D0000B46019100F052F803B000BD3304000057
:1005E0004A0009030123090B1B051943094B10B5E8
:1005F000520D9A4201DA002010BD064B34339A4264
:1006000003DC9A1AFFF7F6FD10BD03495118884024
:1006100010BD0000FF030000CDFBFFFF10B5202A36
:1006200004DB0146203A9140002010BD9140202378
:100630009C1A0346E3401943904010BD10B5202A90
:1006400006DBCB170846203A1041C1170B4306E0E2
:100650000B461341D0402024A21A9140084319466A
:1006600010BD10B5002B08DA0024401C614192181F
:100670005B411A4301D14008400010BDF0B51FB4E2
:1006800082B005460C0003D0084602F0C7FA02E02B
:1006900002F0C4FA20300246009021462846FFF7B7
:1006A000BDFF049B059A04460F46184311430843B7
:1006B00014D0184610431BD0009840210A1A18463F
:1006C0000599FFF797FD05460E46009A059904988F
:1006D000FFF7A4FF084305D0012004E02046394677
:1006E00007B0F0BD0020C11705430E432C4337432C
:1006F00000990E986305401A7905E40A00220C431C
:10070000FD0A0A3002D500200146E9E7010510196B
:1007100069410C9C0D9D00196941FFF7A2FFDFE7BD
:10072000064C0125064E05E0E36807CC2B430C3C44
:1007300098471034B442F7D3FFF7C6FCF4510008D1
:100740001452000810B50146406A826B50231A42C9
:100750000AD1816B01225202114381630168CA6888
:100760001205920F05D020E0006B026B08469047FF
:1007700010BD827E002A18D10A68120715D58A6832
:1007800053070122002B09DB4B680C24A3434B6069
:10079000816B130299431143816306E0816B20232F
:1007A00019438163C16B1143C16300F099F910BD16
:1007B00010B5406A816B402211438163C16B0422F2
:1007C0001143C16300F095F910BD10B5406A00F007
:1007D0008FF910BDF0B5044683B00020009020686A
:1007E00081688907890F012905D10168C90748D1A6
:1007F000C168090445D48168264A102611400125A4
:1008000000292ED18168294381602448224900684B
:10081000FFF7AAFC00900190002815D020498842DB
:1008200032D8002826DD284002D00099491E0091C8
:100830000199401C491C884206DA009A801C521E0D
:10084000521E00928842F8DB01F052F807462068F9
:100850000068C043C00714D001F04AF8C01B02284A
:100860000AD9A06B3043A063E06B2843E06301200A
:1008700003B0F0BD0020DBE720680068C043C0077C
:10088000EAD1002003B0F0BD0098401E0090FCD1DA
:10089000DAE700001700008040420F00000000204F
:1008A000FFFFFF7F10B50B4C20684069800704D51F
:1008B00000220949204603F017FF20684069C0075D
:1008C00003D00649034803F0BDFF024800F006FBD1
:1008D00010BD0000A80200206B040020AF0700201C
:1008E00010B5024800F086FD10BD00006402002033
:1008F000FEE7000070B5044600F0FAFF1A4D064608
:10090000E868C0070DD0601C08D0002C04D000F0AF
:10091000EFFF801BA04201D9032070BDE868C0072B
:10092000F1D1E868800601D52020E860E868C006BB
:1009300002D4E868400715D5E9680020CA060B49CB
:1009400004D5C86902221043C8611020EA68520722
:1009500005D5CA6901231A43CA6104210843E86026
:10096000012070BD002070BD0020024088030020DF
:10097000F0B583B00025044620340095227D012A7D
:100980003BD00123237502689668760770D44F4FD9
:100990004E68BE426ED0966A0F78BB401E43966288
:1009A0000123C26A1B079A421FD0012A1DD0022AC6
:1009B0001BD0032A19D0042A17D0052A15D0062ADD
:1009C00013D0072A11D002688B6856697607760F14
:1009D000B3420AD05369DB08DB0053610068426907
:1009E0000B7A5B075B0F1A4342610868102807D037
:1009F000112805D0122803D05EE0022003B0F0BD1C
:100A0000334A9368102809D011280AD00120000623
:100A1000034393600868102806D04DE00120C0050C
:100A2000F6E701208005F3E72B482A490068FFF725
:100A30009BFB0A214843009001903DD02749884202
:100A40003FD8002812DDC007C00F02D00099491E10
:100A500000910199401C491C88422DDA009A801CA3
:100A6000521E521E00928842F8DB25E00020F0E77B
:100A70001DE0FFE7906A0E78B340984390620868E3
:100A8000102803D0112801D0122815D110498A68E6
:100A9000102806D0112807D00120000682438A6062
:100AA0000AE00120C005F9E701208005F6E7816B27
:100AB000202211438163012500202075284603B0C0
:100AC000F0BD0098401E0090FCD1F5E70110000039
:100AD0000027014040420F0000000020FFFFFF7F81
:100AE00010B5024803F0C6FA10BD0000B4030020A0
:100AF00070477047F8B500260446002805D0A06B63
:100B000025462035002802D007E00120F8BD00204E
:100B1000E0632875204600F0A9F8A06B1022C006FB
:100B2000002870DB2068816849076CD4A16B130131
:100B3000994302231943A16381688907890F012919
:100B400005D10168C9070FD1C16809040CD4C16877
:100B500018239943A3681943C16020680169636839
:100B600089008908194301612068C1683D4B19401B
:100B7000C160207E617E8003C9030843A17E4B03D0
:100B80001843A36A012B02D001231B0300E00023BA
:100B90001843E36818432369022B09D00023184344
:100BA0002B79E57E5B0018430123012D02D00AE07A
:100BB0000423F4E7002927D0A16B20252943A16352
:100BC000E16B1943E163E1690D46FF3DC23D02D08F
:100BD000256A294308432168CD680543CD60012576
:100BE000E16A2D07A94213D0012911D002290FD0A3
:100BF00003290DD004290BD0052909D0062907D0D7
:100C0000072905D010E028E0012109040843DAE7AC
:100C100021684D69ED08ED004D6121684D69A78D92
:100C20007F077F0F3D434D612168C9680E4D294004
:100C3000814207D10020E063A06B80088000401C47
:100C4000A06308E0A06B022188431043A063E06B1F
:100C50001843E06301263046F8BDA06B1043A06343
:100C6000F8E700001902FEFFE7FF3F8370B586B08A
:100C700000250646009501950295039504950068A8
:100C8000224988423FD122498A69401502438A613C
:100C90008A69024005924A69000202434A614A6930
:100CA000024005924A69400002434A6149690324AF
:100CB000014005912D200090092001946946C0064D
:100CC00000F048FD0120009069460295019411480A
:100CD00000F040FD114C10486560A5602060802048
:100CE000E06040002061800060612020A06103205E
:100CF0000003E061204600F0CFFB002801D0FFF7A1
:100D0000F7FD3463666206B070BD00000024014048
:100D10000010024000040048080002406402002065
:100D2000F7B5044600680025806840073ED4264693
:100D30002036307D01280AD001273775607E0128D2
:100D400008D02046FFF746FD050003D02FE0022023
:100D500003B0F0BDA06B17490840FF2101310843E3
:100D6000A0630020E0633075216B13488862216B1B
:100D70001248C862216B1248086321681C20086071
:100D8000206841681022114341602068C1683943DE
:100D9000C1602168206B4031029B019A00F0B0FBDA
:100DA0002068816804221143816000E00225284602
:100DB00003B0F0BDFEF1FFFF45070008CB070008B8
:100DC000B10700082022125C012A08D0022A06D0AE
:100DD000416A012292041143416201207047006878
:100DE00042690A4342610020704730B42022125CFD
:100DF0000368012A09D0022A07D0416A012292041D
:100E00001143416230BC01207047DA1DFF32FA32D3
:100E100014680120044314600C7DE406E40EA04035
:100E2000D4698443D461CC69002C1AD1D46884433A
:100E3000D4608C898D882404ADB22C434D69ED00BB
:100E4000ED18FF35FF3502352C640C890D8824041C
:100E5000ADB22C434D69ED00ED18FF35FF3502357D
:100E60006C64CC69012C1AD1D4680443D4600C881A
:100E70008D882404ADB22C434D69ED00ED18FF358B
:100E8000FF3502352C640C898D892404ADB22C43C6
:100E90004D69ED00EB18FF33FF3302335C648B695F
:100EA000002B53680BD0034353600B69002B53692D
:100EB00007D003435361096A012904D006E0834344
:100EC000F2E78343F6E7D1690143D1611068400836
:100ED0004000106030BC002070477047F0B50546F8
:100EE000006885B046690024416801918768C1683F
:100EF00003910169029181690091F10749D0F907D5
:100F000014D001218160B80703D5284600F0ECF920
:100F10000CE0780702D50124E40207E0380702D587
:100F20000124240302E0284600F0DDF9F80517D576
:100F3000FF20296801308860B80503D5284600F0F5
:100F4000D5F90DE0780502D50120400303E038050E
:100F500003D501208003044302E0284600F0C5F9D0
:100F6000F80316D50120296800048860B90303D569
:100F7000284600F0BDF90CE0790303D50120C00339
:100F8000044306E0390301D5044302E0284600F09B
:100F9000AEF930071027002806DA0398C00603D5FB
:100FA000780104432868C760700708D503980007D4
:100FB00005D529680820C860284600F05FF9B00709
:100FC00006D52868C068800702D0284600F057F987
:100FD000700607D50298C00604D50120800204439C
:100FE00028680761B00608D50298000705D529686A
:100FF00008200861284600F043F9F00606D5286865
:101000000069800702D0284600F03BF9B00307D5FD
:101010000198C00604D528684760284600F032F9D8
:10102000F00308D50198000705D529680820486015
:10103000284600F05EF9300442D5019841070420AB
:1010400000293BDAF10504D50099C90701D0012137
:101050000C43B10504D50099890701D502210C4341
:10106000710503D50099490700D50443310525D5FD
:1010700000994906490F21D0009A70210A40402A60
:1010800013D006DC102A09D0202A09D0302A11D129
:1010900008E0502A08D0602A0CD108E0082204E0B9
:1010A0003C4307E0202200E08022144302E0FF22BC
:1010B000013214432A6893698B439361296848601D
:1010C000002C05D0686A204368622846FFF705FFB8
:1010D00005B0F0BD002801D101207047F8B50546E4
:1010E000044620352878002802D1204600F082F8F6
:1010F0002068016802229143016000F0F9FB064676
:10110000206840683A4F800708D500F0F1FB801B4B
:101110000A2814D8206840688007F6D4206801683F
:1011200001221143016000F0E3FB0646206840689D
:10113000C0070FD100F0DCFB801B0A2806D9606ACB
:1011400038436062052028700120F8BD206840689F
:10115000C007EFD0217E8020012921680A683BD09A
:1011600082430A60607E402101282068026835D0F1
:101170008A430260A17E2020012921680A682FD0BD
:1011800082430A60E17E1020012921680A6829D083
:1011900002430A60207F082101282068026823D0CA
:1011A0008A430260617F0420012921680A681DD0FA
:1011B00082430A60E168A0686269084321691143BB
:1011C00008436168491E08432168C86100206062C5
:1011D000012028700020F8BD0243C2E70A43C8E797
:1011E0000243CEE78243D4E70A43DAE70243E0E76B
:1011F00000000200F0B587B000240094019402942E
:101200000394049400681B49884231D11A48C2698A
:10121000012149060A43C261C2690A400592426936
:1012200009120A434261406902250840059088116D
:1012300000900120029003260427092001956946A9
:1012400004970396C00600F085FAE8020090092092
:1012500069460497039601950294C00600F07AFA55
:10126000002203211E2000F0C1FB1E2000F0B2FB73
:1012700007B0F0BD006400400010024070477047A6
:1012800070477047704770B505460446203528788A
:10129000012805D0606A0121C9040843606219E091
:1012A000022028702068016849084900016000F0A8
:1012B0001FFB064620684068C00711D000F018FBED
:1012C000801B0A2808D9606A01214904084360622A
:1012D00005202870012070BD20684068C007EDD14E
:1012E0000020606270BD704770477047704770475C
:1012F00070477047F0B4054600201E23012601E028
:101300005B1E05D3DF06FF0E3446BC400C42F7D00F
:10131000002A0FD0082A0BD0102A06D0182A01D193
:10132000072B07D3F0BC01207047082BFAD201E04D
:10133000102BF7D22B6859612B6899681824A143A8
:1013400011439960F0BC7047002801D1012070471B
:1013500010B50446407F002803D12077204600F0D6
:1013600035F8022060772079002808D02046E2680E
:10137000A168FFF7BFFF002809D0012010BD216838
:101380001148486120688168182291438160607922
:10139000002814D0216820690861216888686022CB
:1013A0009043626910438860216888688022904376
:1013B000A2691043886001206077002010BD0020E2
:1013C0002168C0430861E8E7B71DC1040068074908
:1013D00081B0884207D10648426940210A434261F0
:1013E00040690840009001B07047000000300240A2
:1013F00000100240F0B4C16B0D6801680C68042253
:10140000066C1346B3402B4210D063070ED50B6811
:101410009B0602D40B6893430B60016C8A40C16B3E
:101420004A60C16A002935D1F0BC70470227B74035
:1014300002462F4001232032002F15D0A70713D5D5
:101440000C68A40604D40C680A25AC430C605370E5
:10145000036C02219940C36B596000211170816AAD
:10146000002917D1F0BC70470827B7402F42F9D0A8
:101470002407F7D50C680E25AC430C60046C1946A4
:10148000A140C46B61608363537000211170016BD4
:101490000029E7D0F0BC0847002801D1012070479F
:1014A00070B504460221203005464170226811685B
:1014B0001048A3680140606826691843E368334315
:1014C000184363691843A3691843E3691843084341
:1014D00010600949206840181421FEF745FE80007D
:1014E000206400210548A163E06301206870297031
:1014F000084670BD0FC0FFFFF8FFFDBF00000240AF
:10150000F0B404469446203422780026012A0AD0FA
:101510000125257062780027012A07D0277002264E
:101520003046F0BC7047F0BC022070470222627067
:10153000876302681468640864001460046C2F46B2
:10154000A740C46B62466760046863604368102B01
:1015500003680AD099600168CA60C16A00290168FD
:101560000A6806D00E231A430AE09A600268D16026
:10157000F3E70A231A430A6001680A6804239A43BE
:101580000A600068016829430160C9E770B5044634
:1015900000F0AEF90546601C02D00448007824181B
:1015A00000F0A6F9401BA042FAD370BD1400002041
:1015B000F3B5064681B0012000902E48017E012936
:1015C0000CD00121017630682B4D2C4C012808D01D
:1015D0002846FFF78FF900281AD045E0022003B013
:1015E000F0BD2846FFF786F900283DD12149C861A2
:1015F000206904263043206120694021084320618E
:101600002846FFF777F900902069B04320612BE06E
:1016100000210298C9430160B0687568C002401992
:10162000A84221D9022713490020C8612069384304
:101630002061656120694021084320610E48FFF761
:1016400059F900902069B84320610098002802D021
:101650000298056008E00120C0022D18B068C102A0
:1016600070680818A842DED8024900200876009861
:1016700003B0F0BD8803002050C3000000200240EA
:101680000348016980221143016100207047000076
:1016900000200240F0B51FB4054621480024017E19
:1016A00082B01646012907D0012707761D48FFF7AB
:1016B00021F9002803D02DE0022007B0F0BD012D54
:1016C0001ED0022D1ED004200090174D03986100FB
:1016D0000F18220130460599FEF78CFD104A0021B3
:1016E000D161296901221143296138800D48FFF732
:1016F00001F9296949084900296100280AD104E053
:10170000012000E002200090DFE7641C0099E4B2B1
:101710008C42DBD3024A0021117607B0F0BD0000F5
:101720008803002050C3000000200240064900202A
:101730000A69120607D5054A4A60054A4A600969DE
:10174000090600D5012070470020024023016745AB
:10175000AB89EFCD0B680022002B6FD0F0B582B0C3
:10176000012425460B6895402B4068D04E68012E19
:1017700005D0022E03D0112E01D0122E16D186686C
:101780000327B4465600B646B7406646BE43B44645
:10179000CF687646B7406646374387604668AE43B3
:1017A0000D79ED06ED0F954035434560C66857004D
:1017B0000325BD40AC46AE438D68BD403543C56092
:1017C0004D68022D01D0122D14D1D508AD002D1871
:1017D00001952E6A5507B646EE0E0F25B5400096C8
:1017E0007646AE43B6460D69009EB54076462E431A
:1017F000019D2E6205686646B5430E79B607B60FA1
:10180000BE402E4306604D68ED004ED52B4EB569A7
:101810002543B561B4699508E407E40F0094284CAA
:10182000AD002F19BC6895072E0F0F25B540AC43AE
:101830000925ED06A84203D1002516E03CE034E07E
:10184000204DA84201D101250FE01F4DA84201D132
:1018500002250AE01D4DA84201D1032505E01C4DDB
:10186000A84201D1042500E00525B5402543BD600F
:10187000184C25684E689D43F60300D51D4325602E
:1018800065684E689D43B60300D51D436560A56835
:101890004E689D43F60200D51D43A560E5684E687D
:1018A0009D43B60200D51D43E5600B68521CD34032
:1018B00000D055E702B0F0BD7047000000100240B4
:1018C000000001400004004800080048000C0048E7
:1018D00000100048000401400069084000D00120C9
:1018E0007047002A01D08161704781627047000013
:1018F0000148806870470000140000200248816899
:1019000002788918816070471400002010B50648DD
:101910000168102211430160002000F007F800F078
:1019200041F8002010BD00000020024000B5014633
:1019300087B000220F2000F059F80F2000F04AF87D
:101940001448C16901221143C161C06904A9104052
:101950000590684600F002F900F01CF90E49FEF708
:1019600003FC01220D4992070A600D4A401ECA601D
:101970004860002008618860084600F0E5FB002808
:1019800002D0012007B000BD044800F03DFC07B0C4
:1019900000BD00000010024040420F003C03002048
:1019A000E703000008B50A488169012211438161FB
:1019B000816911400091C26901040A43C261C06992
:1019C0000022084003210090481F00F00FF808BDD6
:1019D00000100240002805DBC106C90E0120884026
:1019E000014908607047000000E100E08207D30E63
:1019F000FF229A408907090E9940002808DB8308D6
:101A000009489B001818036893430B430360704711
:101A10000007000F0838830804489B001B18D8698A
:101A200090430843D861704700E400E000ED00E017
:101A3000002801D101207047F8B5054642480E46FE
:101A40000068C007C00FB0420AD23F49086840088A
:101A50004000304308600868C007C00FB04257D14B
:101A600028683A4C81070CD5400704D560680721E7
:101A70000902084360606068F0218843A968084350
:101A800060602878C00733D0686801281DD002281C
:101A90001FD0032821D02168890739D561688908BA
:101AA000890001436160FFF723FF616807466A68A8
:101AB0000C200140920091421AD0FFF719FFC11B80
:101AC000234881420DD90320F8BD216889031FD521
:101AD000E4E7216889011BD5E0E7616BC90317D5ED
:101AE000DCE760680C210840696889008842E4D11D
:101AF00015480168C907C90FB1420BD901684908E7
:101B00004900314301600068C007C00FB04201D0F6
:101B10000120F8BD2878400706D56168072000023B
:101B20008143E8680143616000F044F86168094A54
:101B30000906090F515CC840074908600020FFF7FB
:101B4000F5FE0020F8BD0000002002400010024019
:101B5000881300002C5100080000002010B4072258
:101B600002600A4A53689B079B0F43605368F02446
:101B700023408360526807231B021A40C260044856
:101B80000068C007C00F086010BC7047001002401A
:101B9000002002400448054900684968044A490594
:101BA000490F515CC84070470000002000100240FF
:101BB0003C51000830B51DA30FCB89B06C460FC453
:101BC0001EA30FCB0FC4214A51680C200B460340C3
:101BD0001F48042B05D01F4D082B04D00C2B00D11F
:101BE000284609B030BD8B021B0F6C46E45CD26AFC
:101BF00004AB1207120FC9039A5C890F022901D0A6
:101C0000032908D000231946FEF7C4FA214601F043
:101C10001CF809B030BD002328461946FEF7BAFA71
:101C2000214601F012F809B030BD0000020304059E
:101C3000060708090A0B0C0D0E0F10100102030411
:101C400005060708090A0B0C0D0E0F1000100240C4
:101C500000127A00006CDC02002801D101207047DC
:101C6000F8B504460078FF4DC00757D068680007F4
:101C7000800F01282BD068680007800F022804D14C
:101C80006868C003800F022821D06168012925D02F
:101C900001208004002927D0052929682DD0821031
:101CA000914329602968814329606068002827D012
:101CB000FFF71EFE0646286880032FD4FFF718FEA4
:101CC000801B64287ED828688003F7D526E0286822
:101CD000800323D56068002875D01FE028680121A3
:101CE000090408432860E0E72A68012109048A43BF
:101CF0002A60296881432960D7E701432960EDE71D
:101D0000FFF7F6FD06462868800307D5FFF7F0FDCC
:101D1000801B642856D828688003F7D42078800771
:101D200042D568680007800F26D068680007800FDA
:101D3000022804D16868C003800F01281CD0E06825
:101D4000002828681FD0012108432860FFF7D0FD34
:101D500006462868800707D4FFF7CAFD801B0228C3
:101D600030D828688007F7D52868F821884321698A
:101D7000C9000843286017E028688007F4D5E068A8
:101D8000012820D1F0E7400840002860FFF7B0FDAF
:101D900006462868800707D5FFF7AAFD801B0228A2
:101DA00010D828688007F7D4207800072AD5E06982
:101DB000002815D0696A012001436962FFF798FD88
:101DC000064601E07CE083E1686A80071AD4FFF7E9
:101DD0008FFD801B022873D8686A8007F7D511E051
:101DE000686A400840006862FFF782FD0646686A3C
:101DF000800707D5FFF77CFD801B022860D8686A42
:101E00008007F7D42078400771D500200090E8695A
:101E1000C00008D4E969012000070143E961E969CC
:101E2000014001200090904F3868C00511D43868F7
:101E3000B91508433860FFF75BFD06463868C005F2
:101E400007D4FFF755FD801B642839D83868C005D2
:101E5000F7D5A06801281ED0002820D0052827D05B
:101E6000286A400840002862286A042188432862C2
:101E7000A0687E4E002824D0FFF73AFD0746286A66
:101E800080072CD4FFF734FDC01BB04218D8286A55
:101E90008007F7D523E0296A0120014306E0286A7C
:101EA000400840002862296A042081432962DFE754
:101EB000296A042001432962286A01210843D6E7E0
:101EC00080E0FFF715FD0746286A800707D5FFF772
:101ED0000FFDC01BB04275D8286A8007F7D4009860
:101EE000002804D0E869012109078843E8612078C7
:101EF000C0061AD56069012825D0401D41D0686B05
:101F0000042108436863686B400840006863FFF77A
:101F1000EFFC0646686B800707D5FFF7E9FC801BDE
:101F200002284FD8686B8007F7D42078800664D5E4
:101F300068680007800F032845D068680007800F95
:101F4000022823D027E0686B042108436863686B8C
:101F5000012108436863FFF7CBFC0646686B8007E6
:101F600007D4FFF7C5FC801B022860D8686B800788
:101F7000F7D5686BF8218843A169C90008436863F5
:101F8000D3E7696B042081436963F2E76868C003A3
:101F9000800F032817D0206A00281BD0686B01210E
:101FA000090408436863FFF7A3FC0646686BC00397
:101FB00023D4FFF79DFC801B022838D8686BC00330
:101FC000F7D51AE033E0686BC00316D5206A012804
:101FD0007ED112E0696B0120000481436963FFF741
:101FE00087FC0646686BC00307D5FFF781FC801BA2
:101FF00002281CD8686BC003F7D4606A00286DD033
:1020000069680907890F02294FD001273F06022876
:1020100028680ED0B8432860FFF76AFC0446286899
:1020200080015BD5FFF764FC001B022839D903202F
:10203000F8BDB8432860FFF75BFC064628688001BE
:1020400007D5FFF755FC801B0228F0D828688001CF
:10205000F7D4E86A216B000900010843E862E16AED
:10206000A06A05E0001002400070004088130000E4
:10207000014368687B22D20390430143696028686A
:1020800038432860FFF734FC04462868800125D4D3
:10209000FFF72EFC001B0228C9D828688001F7D55D
:1020A0001CE028688001BDD418E00128C0D0686811
:1020B000EA6A0321C903A36A014099420CD11107BE
:1020C000226B090F914207D10F218904084000E0DB
:1020D00002E0E16A884201D00120F8BD0020F8BD8D
:1020E0007047704702462032137F012B01D1022036
:1020F0007047F0B40125157702235377066874689A
:10210000B3687027BC430F682743776000680B4CA7
:10211000A04208D0AC07A04205D0094CA04202D092
:10212000084CA04204D180244968A343194381602C
:10213000557700201077F0BC70470000002C01405C
:102140000004004000400140002801D101207047F8
:1021500070B5054604462035687F002803D12877EE
:10216000204600F015F802206877211D206800F055
:1021700009FD01204034A071A877E87720706070D5
:10218000A070E070207160716877002070BD000061
:102190000068074981B0884207D10648C269022118
:1021A0000A43C261C0690840009001B07047000056
:1021B0000004004000100240014620314A7F012AFD
:1021C00001D00120704702224A7700680B4A0121A2
:1021D000904208D08A07904205D0094A904202D026
:1021E000084A904204D182685207520F062A02D050
:1021F00002680A430260002070470000002C014082
:102200000004004000400140014620314A7F012A7D
:1022100001D00120704702224A770268D368012169
:102220000B43D36000680B4A904208D08A07904263
:1022300005D0094A904202D0084A904204D18268EF
:102240005207520F062A02D002680A430260002099
:1022500070470000002C0140000400400040014095
:10226000034620331A7F012A02D001221A7701E0A7
:1022700002207047F0B502225A770568AC687722D1
:102280009443FF2212029443AC600E687024072529
:10229000502E39D00CDC202E74D004DC002E71D0EE
:1022A000102E4ED18DE0302E6CD0402E49D16AE0F8
:1022B000602E47D0702E17D001242403351B40D048
:1022C000A5423ED10468CF688E684D68A1689143ED
:1022D0003A022A4332430A43A2600068816801221D
:1022E00092031143816072E00468CF688E684D6884
:1022F000A16891433A022A4332430A43A26001682B
:102300008868772210431BE002684F68CE68116A24
:10231000BE468C46116A4908490011629169F0274E
:10232000B94336010E4361460A27B943774639431C
:1023300096611162016850228868A04310432843C7
:10234000886044E04E680268B646CE68116A10277D
:10235000B94311629169176A3603BC460F273F03E0
:10236000B9430E436746A0218F43714609013943A3
:1023700096611162016860228868A0431043284377
:10238000886024E01DE002684F68CE68116ABE468E
:102390008C46116A4908490011629169F027B943D6
:1023A00036010E4361460A27B943774639439661A1
:1023B0001162016840228868A04310432843886066
:1023C00005E001688868A043304328438860012005
:1023D000587700201877F0BD704770B50446006844
:1023E00001690025C9438907002915DBC168C94374
:1023F000890711D4E91E01610120207720688069D6
:102400008007204602D0FFF7E7FF04E000F096F8CF
:10241000204600F094F8257720680169C9434907F0
:1024200017D4C168C943490713D40421C9430161C2
:1024300002202077206880698005800F204602D026
:10244000FFF7CAFF04E000F079F8204600F077F8C3
:10245000257720680169C943090716D4C168C943B3
:10246000090712D40821C94301610420207720689C
:10247000C0698007204602D0FFF7AEFF04E000F0FD
:102480005DF8204600F05BF8257720680169C943B4
:10249000C90617D4C168C943C90613D41021C9435A
:1024A0000161082020772068C0698005800F2046E0
:1024B00002D0FFF791FF04E000F040F8204600F062
:1024C0003EF8257720680169C943C90708D1C1686A
:1024D000C943C90704D1891E0161204600F030F8C4
:1024E00020680169C943090609D4C168C9430906BE
:1024F00005D48021C94301612046FFF7F1FD206822
:102500000169C943490609D4C168C943490605D4CC
:102510004021C9430161204600F01BF82068016991
:10252000C943890609D4C168C943890605D4202155
:10253000C94301612046FFF7D4FD70BD7047704765
:1025400010B5006801218907884201D1FFF7D6F94B
:1025500010BD7047054C002210212046FFF7C1F93D
:10256000012208212046FFF7BCF9FEE700040048DD
:1025700030B583B000242B48009401940294446049
:1025800084602749C460016008250121456101611B
:10259000047644768476C476C022C2618A020262DE
:1025A000214A11718162FEF7A5FA002801D0FEF7D9
:1025B0009FF9012000030094019005246946194801
:1025C0000294FEF7D5F9002801D0FEF791F9022018
:1025D000009069461348FEF7CBF9002801D0FEF7BA
:1025E00087F90320009069460E48FEF7C1F90028DC
:1025F00001D0FEF77DF969460A480094FEF7B8F964
:10260000002801D0FEF774F9694606480095FEF7E8
:10261000AFF9002801D0FEF76BF903B030BD000020
:1026200000240140240200204402002010B50F487D
:102630000D490160082141600021072281601204D8
:1026400002610122C1605205426101760122427697
:102650008176C27601774177FEF73CFD002801D0F4
:10266000FEF746F910BD000000640040A8020020FB
:1026700010B50948074901600021017141714161AC
:10268000816101210162FEF75FFE002801D0FEF7A3
:102690002FF910BD00300240D002002008B50848D4
:1026A00041690122114341614069032110400090BA
:1026B00000220920FFF79AF90920FFF78BF908BDDE
:1026C0000010024030B5254C9DB00FCC6D460FC5B3
:1026D000A26861682068059104900692002168460E
:1026E000103C01F050FE1E4D286020461C300FC8E3
:1026F0000A93099208910790626B216BE06A0C9132
:102700000B900D92002107A801F03DFE6860204665
:1027100038300FC8119310920F910E90226DE16C1A
:10272000A06C13911290149200210EA801F02BFEC0
:10273000A860204654300FC8189317921691159030
:10274000E26EA16E606E1A9119901B92002115A87D
:1027500001F019FEE8601DB030BD000044510008D2
:102760000400002070B586B000242F480094019426
:1027700002940394049442690121C9040A4342610A
:1027800042690A4005924269C9000A4342614269AE
:102790000A400592426949110A43426142690A406E
:1027A0000592426949000A43426140691F4E084050
:1027B0000590002218213046FFF793F807204003C8
:1027C000032500906946019502941948FEF7C2FF5F
:1027D00000956946174801950294FEF7BBFF16481D
:1027E00000906946019502948006FEF7B3FF1348F6
:1027F00000906946019502943046FEF7ABFF7001E8
:10280000012500906946029501943046FEF7A2FF2B
:1028100018200090022002900195694603943046EA
:10282000FEF798FF06B070BD00100240000400489B
:102830000008004800140048D2870000E67F00002E
:1028400010B586B0002400941748019402940394B4
:102850000494144905940160FF218460416004617F
:102860001F218461C160FFF76FFC002801D0FEF7D3
:102870003FF801200003009069460B48FFF7F0FC89
:10288000002801D0FEF734F82020049004A9059414
:102890000548FFF727FC002801D0FEF729F806B00D
:1028A00010BD000000040040F40200207047704793
:1028B00000F09CFD642001F059FDF9E7FB26494D2D
:1028C000494C1027207CC10670D4C10721D0810754
:1028D00008D541068007490EC00FC00101433140B1
:1028E00021742CE04007414804D501F003FB002887
:1028F00018D124E001F0FEFA00281CD0217C8020B1
:102900000843C9090122114389003040084320745B
:1029100015E0810713D44007344808D501F0EAFADE
:1029200000280CD0207C4006400E3040EFE701F03C
:10293000E1FA0028E2D1207C4006400EE7E7207C47
:10294000C0091AD001F07CFF607CC006000F09D1DD
:102950002878872108404106890E04221140304022
:1029600008432870287881088900400701D5012094
:1029700000E00220014329700EE001F062FF207C9C
:10298000C10703D0000701D5032100E0002128780A
:102990008008800001432970144801F0B5FA00282E
:1029A0000FD0207C384320740BE0FFE700F01AFBC7
:1029B0000E4801F0A9FA002803D0217C40200143F1
:1029C0002174207CC00602D4607CC00708D000209F
:1029D00001F0C6F801F03EFB192001F0C7FC71E7D9
:1029E0000120F5E721000020080400205E040020FB
:1029F000074C25460C35607923798006C20E0549BF
:102A0000284601F037F9642001F0B0FCF3E700003C
:102A1000A8030020140B0020344C354F26462036E6
:102A2000B51C6034707B317B000208436A7A297AD6
:102A300000051202000D0A43904202D2012100203B
:102A400008E0207CC10903D1C10601D4012100E0C6
:102A50000021C00901F0C2FF00F02CF9607CC00623
:102A6000000F02D1207CC0062FD538780721C8413D
:102A70000121090740181921C84141063870090F82
:102A800009D14107C9178900091D4907FB22490FD0
:102A9000104001433970217CC80723D00C20231833
:102AA0001A7810465A78120210439A78120410438A
:102AB000DA78120610430CD0401E2073010A6173AD
:102AC000010CA173000EE0730CE03978FB2001408B
:102AD000E0E748084000F72101408007C00FC00030
:102AE000014321740A2001F041FC9BE7A803002068
:102AF0002100002010B5FDF701FB044602F0DEF9CD
:102B0000002803D001200349000748602046FDF754
:102B1000F9FA10BD00ED00E01248016801221143EE
:102B200001604168104A1140416001680F4A11403C
:102B300001600168012292049143016041683F22D3
:102B4000120491434160C16A09090901C162016B24
:102B5000074A11400163416B490849004163002164
:102B600081607047001002400CB8FF08FFFFF6FEBE
:102B70002CFEFCFF10B50248FFF72FFC10BD000033
:102B80003C030020F0B402681E4B0124A4071E4D34
:102B9000984203D0A04201D0A84203D17026B2438C
:102BA0004E683243194E1A4F98420DD0A0420BD0B6
:102BB000A84209D0174CA04206D0B04204D0B84277
:102BC00002D0154CA04204D103242402A243CC68B5
:102BD00022438024A2434C69224302608A68C26275
:102BE0000A688262984206D0B04204D0B84202D04D
:102BF000094A904201D10969016301214161F0BC98
:102C000070470000002C01400004004000400140DB
:102C10000044014000200040004801402021020CF7
:102C200001D010211046020A01D0104608390209CD
:102C300001D01046091F820801D01046891E4208A3
:102C400001D0881E7047081A7047F0B4040C8BB28C
:102C5000264682B25E430D0C1046370C58433604AC
:102C600080190021794116466E43370C36048019CD
:102C7000794126466E438919F0BC70470A78027084
:102C80004B7843708A788270CA78C2700B7903716E
:102C90004A794271704702E008C8121F08C1002A31
:102CA000FAD170477047002001E001C1121F002ACD
:102CB000FBD17047F8B50024FD250620214641438D
:102CC0006B480818417902790902114303461A78C2
:102CD00010465A78120210439A7812041043DA7898
:102CE00012061043FEF7F8FD002811D020460D21F2
:102CF000484360490A5C930769D501231A430A5483
:102D00000A2243185A7100269E71DE711E7260E01D
:102D100022460D20574B4243D118491C0F78CE78DC
:102D200038464F7836063F0238438F783F043843A1
:102D30003043642823D90020087048708870C87018
:102D4000985C08262840304398548E1937783B46C3
:102D500077783F023B43B778F6783F043B4336062B
:102D600033437ED1434E43077BD404231843B054EE
:102D70000A20087200224A728A72CA7271E005281B
:102D800011D908200E183778384677783F02384333
:102D9000B778F6783F0438433606304303D1985C61
:102DA0000226304398540A7810464A78120210439B
:102DB0008A7812041043CA7812061043401C087027
:102DC000020A4A70020C8A70000EC87049E02A405C
:102DD0000A540A5CF7231A401307DB0F5B002A40F2
:102DE0001A430A549207D30F421853701E0A967062
:102DF0001E0CD6701B0E13710823521CD618377880
:102E00003B4677783F023B43B778F6783F043B4335
:102E10003606334308D05B1E13721E0A56721E0C10
:102E200096721B0ED37203E00B5CFB2633400B54EF
:102E3000167933465679360233439679360433434E
:102E4000D6793606334308D05B1E1371180A5071C9
:102E5000180C9071180ED07103E00A5C52085200F1
:102E60000A54641C2406240E00D126E7F8BD000095
:102E7000B45100085E04002070B4C2788378120256
:102E80001A439204130D4278047812022243847884
:102E900006792404224344799203150D24025A1919
:102EA00034435308A4051A0AA40E624300D1012238
:102EB0000C68240B2403954205D9AA1A1205120D99
:102EC00014430C6000E00C60C27884781002204348
:102ED0008004040D0E480F4A001B9842086806D96A
:102EE000E318D5431B0528401B0A184300E0104394
:102EF00004050302240D1D0D0860AC4201D81B0D12
:102F000003D1000B00031043086070BC7047000041
:102F1000FF0F000000F0FF00F7B58646002394463F
:102F2000100057D0D800C11A70460E1801989900A9
:102F30000918F078B278000210438004020D74780A
:102F40003578B07824022C4300040443A003070D15
:102F5000D0194508707932790002024392052C0A93
:102F6000920E544300D10124A74208D90A68381BA5
:102F7000120B12030005000D02430A6003E008680B
:102F8000000B00030860F078B27800021043800460
:102F9000020D1148801AA842086807D90F4C52192F
:102FA00012052040120A1043086002E00C4A104348
:102FB000086002050402120D250DAA4201D8220D57
:102FC00004D1000B064A0003104308605B1CDBB20F
:102FD0006345A7D303B0F0BDFF0F0000FF0F00FF54
:102FE00000F0FF00F8B5BA48BA4E4079317C80064F
:102FF000C50EB9484A06007836D5012840D9BF2009
:10300000014000203174002D2AD9B3494C69C10018
:10301000091A0A1951781378090219439378B04FA5
:103020001B041943AD4B19404300FF5A401C3F0598
:10303000BF0B394311700F0A5770090C9170D1788A
:10304000977809023943A74FC0B23940A64FFB5ABF
:103050001B059B0C19439170090AD170A842D6D365
:103060009D490620087001E0012809D99F49087888
:1030700082084007C0439200C00F400002430A701C
:103080009548DF2701789A4C9A48009007297DD20D
:103090000800784400790018874403093A8392991C
:1030A000FE00307CC0067BD502218B488DE0307C51
:1030B000C00625D5864B002059798906C90E1FD038
:1030C000864EC100091ACA18517B157B0902294393
:1030D000957B401C2D042943314011730D0A557313
:1030E000090C9173D17B957B09022943214391738C
:1030F000090AD1735979C0B28906C90E8142E0D854
:1031000000997D480872000A48720620724946E01C
:1031100001F096FB7D217048490241600020002D9E
:1031200033D96D496E4F4B69C100091AC9184A78E5
:103130000C78120222438C78240422439203160D49
:103140004200BE52CC788E7824023443A404664EEA
:10315000240DB4524A780C78120222438C78401C19
:1031600024042243654CC0B222430A70140A4C70F6
:10317000120C8A70CA788C7812022243594C224071
:103180008A70120ACA70A842CED300E008E0009903
:1031900059480872000A48724F490878401C087064
:1031A000F8BD4D48FF224168F532914202D9491ECF
:1031B0004160F8BD317C202211433174042104E0C8
:1031C000454841680029F2D105210170F8BD307CE5
:1031D000002238403074002D56D93F484369D00052
:1031E000801AC01841780478090221438478C6788F
:1031F00087782404360221433E438C03B604240D11
:10320000370DBC4201D8340D0FD1344C2140017030
:103210000C0A4470090C8170C1788478090221433A
:10322000334C21438170090AC17041780478090246
:10323000214384788678240421438C03270DC478A5
:1032400024023443A604360DB74219D12C4FBE4296
:103250000AD20E21CC410121090561181224E14155
:103260008170090AC1700BE01224E1410124240598
:10327000091B0E24E14101700C0A4470090C817095
:10328000521CD2B2AA42AAD30098417A027A08020A
:103290001043401F009900E006E00872000A4872DF
:1032A0000D480178491C90E701F0CBFA0A4900204B
:1032B0000870307CEF210840C106C90F4901384031
:1032C000084330742A460F490F48FFF725FEF8BD22
:1032D000A803002008040020380000203F00FCFF65
:1032E0005800002003C0FFFF6000002021000020E4
:1032F000FC3F0000CA030020FFFF0000C0FF0300E6
:10330000FF0F0000140B0020B403002070B58AB03A
:103310000024009401940294039404942E4D059487
:103320000694079408942B480994286000F05CF8F0
:1033300001260320089606940494059480030796BA
:103340000994019400940394029069462868FDF75B
:103350004CFD0596214E0121F078890780078009F0
:10336000401881B2000C0090C32001910002039428
:10337000029069462868FDF738FD022005907078B4
:1033800031780002B278084311461204104340031A
:10339000800CC9084001C90408430121C90740182D
:1033A00081B2000C00900E48039001910D480290EC
:1033B00069462868FDF719FD02212868FDF702FD1E
:1033C00001212868FDF7FEFC2868FDF75CFF0AB0C4
:1033D00070BD0000A802002024000020A8030020E7
:1033E000E0FF0000FFC0000070470000F0B58DB0A6
:1033F000002006900790F9490490059001900290F2
:1034000003900A7810434A78120210438A78C978E8
:103410001204104309060843009004A800F07EFD42
:10342000EF4C00287DD0EF486F460890227C0121A8
:10343000FF200A432D3022742073030A6373030CA8
:10344000A373000EE0736846C07C8006000F062858
:1034500068D203007B441B79DB189F4463971C02EE
:1034600021D76846007D00285CD06846417DC807AA
:1034700002D0082002432274207C020752D54A075A
:1034800003D510210843207431E109074AD54021B2
:10349000084320742BE1100744D5D348017026E17E
:1034A000D00673D46846C178C32001406846143101
:1034B000C170007D002835D06846407D810831D13B
:1034C000694649798A07920F69464A718107890FCF
:1034D00004D0012934D0022924D158E004206946BF
:1034E000087100204871BD4D0722291DB81DFCF749
:1034F00092FE684601F044F9687900268006C00E05
:1035000010D007216846017140790722810889009F
:103510006846491C4171F000801B4119B81D0C31EF
:1035200001E0EAE071E0FCF776FE684601F028F978
:103530006879761C8006F6B2C00EB042E1D8D6E0BB
:10354000A64E002570798006C00E5ED00721684621
:1035500001714079072281086846407D8900800713
:10356000800F014368464171E800401B8119B81D76
:103570000C31FCF750FE684601F002F970796D1CC1
:103580008006EDB2C00EA842E0D8B0E0ADE0934DA9
:1035900069798A06D10E38D06946897DCB0612D06A
:1035A00007226B4680071A71800F5871C806C00E3B
:1035B000C100081A4119B81D4131FCF72CFE6846BC
:1035C00001F0DEF893E00026D00E1ED007216846F9
:1035D00001714079072281086846407D8900800793
:1035E000800F014368464171F000801B4119B81DEE
:1035F0004831FCF710FE684601F0C2F86879761C85
:103600008006F6B2C00EB042E0D870E0D0066CD4AE
:103610006846007D00286AD06946497D8A0866D1DF
:10362000089A8B08557916792A0232431205920EB0
:1036300093425CD88907890F02D0012957D11DE038
:103640006A466648917D01714179D27D4908D20769
:103650004900D20F114341718179CF2211406A464E
:10366000127E9206920F120111438171C27889066F
:10367000890F920892000A43C27038E06946897D3A
:10368000564DCB066979DB0E8906C90E8B421DD8D3
:103690006946498B8905890E322917D86A46D18A2D
:1036A000127E120411436A46128B89039204090D9B
:1036B000120D91420AD8072808D3D800C01A401921
:1036C00005A907220231401DFCF7A5FD6846807D53
:1036D0004649C006C00E82005118C200101A401997
:1036E000401D091FFFF7C8FB01E03F48417004A8D7
:1036F00000F014FC002800D098E6207C01076CD56F
:10370000C1066AD46946097CC906890F022902D01C
:10371000012903D005E00221084301E0FD21084012
:103720002074C0B2810742072F4C1143E278C90FC1
:10373000914204D1C206D30FA278934203D0C006AF
:10374000E170C00FA07025480025014621314A7D57
:103750000B7D11022030C27D1943120411430B036B
:1037600023491B0B4A7B0E7B1102027C314312045E
:1037700011430903090B1F4E8B421CD11E494A7D80
:103780000B7D1102427E19431204114309020A0BF8
:10379000417C037C807C0902194300040143080238
:1037A000000B824207D100F01BFC0C490978C906C6
:1037B000890F884224D0072231461048FCF72BFDA0
:1037C00000F00EFC8007C20E0448E7230178194080
:1037D000114301700120207015E03BE0A803002098
:1037E00008040020A903002028000020140B00205A
:1037F000CA030020D4030020CB030020DB030020F9
:103800002078002829D065702570254909950A95EA
:103810000B950A7810464A78120210438A78C978C4
:10382000120410430906084308A90890C878C32168
:10383000084008A90830C8700120487108200871A4
:1038400009A8072231460230FCF7E5FC08A800F081
:1038500097FF02E0134900200870124841780029C0
:1038600016D0002141706946C878C32108406946D6
:10387000001DC870062008710B48044600F0C4FB08
:1038800001A821460130FFF7F9F9684600F078FFFA
:1038900007480649006800F0D5FF0DB0F0BD0000F4
:1038A000A8030020280000200C040020AF070020FF
:1038B00024000020F8B56748684C0179490949019E
:1038C000891C01714179027909021143FF22E13219
:1038D000914360310171090A41715F48018821807B
:1038E00040885F4960808D7D4B7D887D5D4A4007C3
:1038F000400D460050791779000238435A4F38403E
:10390000304306054F7D760DF619574F76052D028B
:10391000360D3840EB1830435B0538401B0D18431B
:103920001071030A5371097D6379C906C125890E97
:103930002B400B436371A678F1081E291AD96178D0
:1039400027780902394336043143484E2B40314031
:10395000803121700E0A090C4907490F66705831F1
:10396000A170E178C02689088900491C3143E170C3
:1039700008336371D9B28B06DB0E042B02D92940C0
:103980000831617101053A4B490D994202D3394B17
:10399000994206D13A218843374908431071000AF9
:1039A00050710A20FDF7F2FD00F0E8FF0A20FDF754
:1039B000EDFD324D284600F003F900283ED000F01E
:1039C0006DF82F490020087060792E498006C20EDC
:1039D0002D48FFF7A1FA617900208906C90E11D0A0
:1039E000C100091A091940310A7A401C5209C3065C
:1039F0005201DB0E1A430A726179C0B28906C90E00
:103A00008142EDD8E078A179800889068000890F8D
:103A10000843E0700A20FDF7B9FD06221B491C4847
:103A2000FDF77EF90A20FDF7B1FDFFF76FFC0A20D4
:103A3000FDF7ACFD1748FEF7BFFBF8BD282229466D
:103A4000201DFCF7E8FB2822211D1348FCF7E3FBAF
:103A5000B7E7000008040020F0BF0008A80300201A
:103A6000E0BF00080904002001F0FFFF1F00F8FF7D
:103A7000E2070000FF070000C40F000000C00008BC
:103A800020000020140B0020B4030020520400206A
:103A900024020020F40200202A040020F0B42D4C5F
:103AA0006420207120468179427909023F25114323
:103AB000AD01A9434171090A8171A079CF21084064
:103AC0001030A071607900228006C00E40D0224FD5
:103AD000D000801A0019017B521C4909D306490104
:103AE000DB0E1943437BC9B21B020B43817BD2B26D
:103AF00009040B433B4003731E0A4673190C817380
:103B0000C17B837B09021943144B19438173090A52
:103B1000C173417C037C090219433F231B01994374
:103B200020310174037CC67B1B023343AB43C37358
:103B30001B0A090A0374C9B2E32319404174017BCB
:103B4000DF231940017360798006C00E9042BFD810
:103B5000F0BC7047A80300203F00FCFFFC3F0000C2
:103B6000002823D070B5124D287800281DD1114CA3
:103B70002822211D1048FCF772FB002815D000F008
:103B80006DF9002811D1022028702822211D0B4830
:103B900000F06AF9002801D0012005E02822211D4B
:103BA0000548FCF738FB0020287070BD7047000006
:103BB00020000020A80300202A04002000C00008E4
:103BC00030B40178FF2946D0827843781102194336
:103BD0000905890E3FD141788906C90E04293AD8D2
:103BE0002349427849798906C90E9206D20E91423C
:103BF00031D1427800219206D20E8A4234D9CA00CD
:103C0000521A1218137A491CDB06DB0E8B4222D1A2
:103C1000537A147A1B022343947A240423439B038C
:103C20001C0DD37A957A1B022B439B041B0D9C42DF
:103C300011D8537B147B1B0223439B059B0E322B15
:103C400009D8537BDB065B0F032B04D8127A92064C
:103C5000D20F012A02D930BC012070474278C9B284
:103C60009206D20E8A42CAD830BC002070470000AB
:103C7000A8030020FFB57349704D8C46487C097C31
:103C8000000208436146897C9E4609046C4E084345
:103C90002B7C84B030400190DC096B48E127002187
:103CA000002C7ED0DB067CD40368002B03D05B1E87
:103CB000036008B0F0BD00200446002A59D97346BD
:103CC0005B000093C100614B0E1AF31841335E7A1A
:103CD0001B7A36021E4371040F0D059E8100765833
:103CE0003102090D8F4203D833051B0D9F4207D2C5
:103CF0005749A700CE59009B9E4208D2761C05E08A
:103D00005349A700CE59002E01D0761ECE515049FE
:103D1000A6008F5977456F7C039713D9FF063F0F95
:103D2000234601249C40274202971DD1009B8B51C2
:103D30000299039B21430907E126CC0E33401C4323
:103D40006C7411E0FF063F0F234601249C4027427C
:103D5000029709D0029FE123A743039C7F001C40E8
:103D600027436F7400238B51401CC0B2044690421D
:103D7000A8D3687CC006010F344840798006C20E83
:103D800001209040401E014008010199084361460E
:103D90000874020A4A74010C6046817408B0F0BDD0
:103DA000FFE764230360019863461874040A5C7497
:103DB000030C6046837427486646437B047B1B02E2
:103DC00023436446247C240423431C0D737C367CEB
:103DD0001B0233436646B67C2405360433431B027C
:103DE0001B0B1C430473230A4373240C63461C748B
:103DF000447B067B20026446247C304324046B7C95
:103E0000204300073B40C00E03436B74002AC5D01B
:103E10001148D30704D00346803B4160001D596719
:103E20005208BBD00346803B41605967816008302F
:103E30009967521EF6D108B0F0BD000008040020BA
:103E40000F0000FFC80300202C000020A803002062
:103E5000F40A0020CA030020000B0020014800786B
:103E60007047000030000020F0B50D461F4906469F
:103E7000087885B0174600282AD1039000900220C8
:103E8000087072B601200290194901963420C8606A
:103E9000FDF74CFC03A96846FDF78AFB002812D108
:103EA0000024002F19D928194078295D000208182C
:103EB00082B20E4902200870311900230120FDF75B
:103EC000E9FB002806D0FDF7DBFB0849012008705C
:103ED00005B0F0BDA41CBC42E5D3FDF7D1FB62B632
:103EE00000200249087005B0F0BD0000300000203D
:103EF000002002400178CA0704D049084900017037
:103F0000012070470020704701784A0704D5FB2242
:103F100011400170012070470020704710B42F49F4
:103F200000220B78002B56D08A780D235A43521862
:103F3000131D1C7822465C78240222439C78DB788F
:103F4000240422431B061A430270130A4370130C05
:103F50008370120EC2708A780D235A435218127A57
:103F600002718A785A4352180823521CD3181C78BD
:103F700022465C78240222439C78DB782404224386
:103F80001B061A434271130A8371130CC371120E7C
:103F900002728A780D235A4352180C23521CD318EC
:103FA0001C7822465C78240222439C78DB78240427
:103FB00022431B061A434272130A8372130CC37204
:103FC000120E02738878401C8006800E8870087874
:103FD000401E0870012210BC104670476B04002080
:103FE0000848007CC10601D503207047810701D431
:103FF000410701D502207047000701D50120704715
:10400000002070470804002070B5104D0446E121DF
:104010000901E868FCF7A8F80101E078A27800023D
:104020001043227912041043094A10400143A17041
:10403000080AE070080C20713C21E868FCF794F84D
:104040003C21FCF791F8617170BD00006800002010
:104050000F0000FF054A5069182188430449097878
:104060008907C90E014351617047000000040048F0
:1040700021000020F1B58C4A8C4C9068D368400038
:10408000215A8AB0591A8A4B8A4E9D884919D160A3
:104090002552747B357B24022C43240B49042403D2
:1040A000090D0C432105240B090D24030C43347323
:1040B000210A7173804C1569215A6D1AD9886D18BF
:1040C000156121526803000C50807C48002441791E
:1040D0008906C90E7ED07A4808907A4802907448C2
:1040E0006100425A7848E10042500918486883014B
:1040F000181A101880114860744922018B58984290
:1041000001D9012500E00025984201D2012700E0F5
:104110000027ED1B9F01FB1AC018800928186C4B63
:104120008850984200D9184651184860E100091B90
:10413000624F8C46C9190A4641320092557A137A69
:104140002D021D43634B00051D40400C05431572B5
:10415000280A50720898007C800666D56804010D14
:104160004CD00A99020D614448780B78000218433C
:104170008B781B04184383031B0D9A4217D2564BAE
:104180009201184010430870020A4A70000C534A0A
:104190008870137898085B07DB175B1C9B0780000F
:1041A0009B0F18431070FF223F48F5324260009881
:1041B000427A037A100218434004020DC8788B78C3
:1041C0000002184383041B0D9A4217D9444B184030
:1041D000920000E05FE010438870000AC8703F4919
:1041E000087882084007C017401C80079200800FA3
:1041F00002430A70FF202C49F53048602A48408865
:104200003072000A70720298417A027A08021043F2
:10421000717B327B090211430905090D884232D9AD
:1042200002980172090A41722DE0087B80062AD4A7
:10423000707A317A000208431B494A88904222D999
:10424000801AFCF7ABF90022264BFCF72FF900226D
:10425000254BFCF711F8144AD1619061069068046F
:104260000591000DFCF7AEF9059B069AFCF7B6F830
:10427000FCF7B6F9174900050D40400C009928439A
:104280000872000A48727879641C8006E4B2C00E95
:10429000A04200D923E70448017A491C4907490F85
:1042A00081600BB0F0BD000038000020240B00201E
:1042B00052040020C8030020340B0020A803002073
:1042C00008040020CA030020840B0020440B0020B7
:1042D000FF0F00000780FFFF3F00FCFF21000020D0
:1042E00003C0FFFF000059400000F03F92B0FDF70F
:1042F0000DFB34216846FBF7A7FF00240F94122022
:10430000009001200390059010200E9410940490CA
:104310000690C0020A904001119402250B90099565
:104320000C946846FDF798FC002800D0FEE70720B3
:104330000E90109401210F9511940EA8FDF778FBB3
:10434000002800D0FEE7FEF70DFAFEF7A7F9FEF70A
:104350000FF9FEF76BF9FEF773FAFEF789F9FFF72D
:10436000A9FAFEF7AFF900F009F8FEE710B500284A
:1043700000D1012000F04CFC002010BD10B500F071
:104380005FFC002010BDF0B508244769045F466853
:10439000026985B0002F12D08369002B0FD0002551
:1043A000842C00D0E51C01970095029300680B4611
:1043B0000146304600F02DFD039005B0F0BD00250C
:1043C000842C00D0E51C03AB0095019300680B46DC
:1043D000014692B2304600F0C1FC012802D0002014
:1043E00005B0F0BD039805B0F0BD0000F8B5134C62
:1043F0000F46666905462068001D00F04BFB681CEF
:1044000007D1002F05D021680D48091D00F089FB58
:10441000F8BD2068751945602168B54204D2A068CE
:10442000091D00F065FBF8BD6068091D00F060FB28
:10443000206B8542F7D22563F8BD0000780000208C
:10444000800C0020F8B5064600F078FB274D28695F
:10445000401C28612868264F002803D0E8690028FE
:1044600021D026E02E602869012822D100241420C2
:104470006043C01900F02EFB641C072CF7D31D48C5
:1044800000F028FB1C4800F025FB1C4800F022FB34
:104490001B4800F01FFB1B4800F01CFB1548686020
:1044A0001430A86005E02868F16AC06A884200D824
:1044B0002E60E86A401CE862F06AA969884212D856
:1044C00014214843C019311D00F02BFB00F042FBC2
:1044D000E869002806D02868F16AC06A884201D2DB
:1044E00000F08AFBF8BDA861EAE700007800002030
:1044F000A40B0020300C0020440C0020580C00209D
:104500006C0C0020800C0020184E194C194FE068EC
:10451000002825D000F012FBF068C568281D00F0C7
:10452000B9FA2069401E2061E068401EE06000F09A
:1045300011FB5120405D002805D001280AD0022837
:104540000BD072B6FEE7286B00F012FB284600F095
:104550000FFB02E0284600F00BFBE0680028D9D1F1
:1045600038680128D3D900F047FBD0E76C0C002055
:1045700078000020A40B002003480068401C72B69D
:1045800000D0FEE7FEE70000CC000020F8B50646AC
:10459000002400F081FB4849484D0868002801D0FC
:1045A000C8681CE0032246489202430705D0C01D9C
:1045B000C008434BC000C31AD21A82180023083A1D
:1045C000D2086B60D20028600A6053601360131A2F
:1045D000436002608B600120C0074B60C8600642E8
:1045E000009061D1002E5FD00836700708D07007A8
:1045F000400F0822101A8619700701D072B6FEE724
:10460000002E51D04868864686424DD82B482A68ED
:1046100001E010461A465368B34202D21368002BD9
:10462000F7D125490D68AA423ED00468116801609F
:1046300050680834801B102828D991194B0701D0E5
:1046400072B6FEE748601D4B566000E003461868EE
:104650008842FBD35E68F7188F4203D1496871180E
:10466000596019464E68B446761886420AD1A84267
:1046700006D040686044486018680068086002E03E
:104680000D6000E008608B4200D0196053680A4852
:104690007146C91A41608568A94200D281600098BC
:1046A000034300205360106000F072FC600701D0EB
:1046B00072B6FEE72046F8BDB4000020C40000201A
:1046C000940C002010B40124031F24061C601B1F3F
:1046D0001960191F034B0B6014390A6010BC403875
:1046E000704700007945000870B40B78402B39D230
:1046F0004B780D246343140125465B18FF3506688B
:10470000B13575591D712E0A5E712E0C9E712D0EDC
:10471000DD711D79ED08ED001D712546FF35066838
:10472000B53575591D722546FF350668B935755979
:104730005D722E0A9E722E0CDE722D0E1D73FF34DA
:104740000568BD342C595C73250A9D73250CDD73F7
:10475000240E1C744B785B1C9B069B0E4B700B78D5
:104760005B1C0B7020210068012A04D0C2680A4338
:10477000C26070BC704702690A43026170BC704736
:1047800010B42E4900220B78402B53D20478C37802
:10479000224644781B0624022243847824042243C0
:1047A0001A434B780D2463435B181A71140A5C7129
:1047B000140C9C71120EDA714A780D24037962434D
:1047C00052181372401C0479C379224644791B069F
:1047D000240222438479240422431A434B780D2473
:1047E00063435B185A72140A9C72140CDC72120E2A
:1047F0001A73082282181378184653781B0218433C
:104800009378D2781B041843120610434A780D237C
:104810005A4352185073030A9373030CD373000E58
:1048200010744878401C8006800E48700878401C40
:104830000870012210BC104670470000AF0700202E
:10484000704770470A78002A7ED0F0B48A780D232A
:104850005A4355180268002394682D1D640104D53D
:10486000946801263443946011E093681B019368B7
:1048700005D5FF24013423439360012307E0DB00C7
:1048800077D5936801242404234393600223EA78B4
:104890009209032A16D1384A127CD40601D5032284
:1048A0000AE0940701D4540701D5022204E012075C
:1048B00001D5012200E00022D4002A78E726324008
:1048C00022432A701C012346FF3306688133F258C5
:1048D000D207D20FF25006681A1DB7583F093F01A0
:1048E000B7500768BE58BC462F793E436746BE5056
:1048F0006F796A1C3E46AF7994463F023E43EF799A
:104900002A7A3F043E43120616431A4607680832C5
:10491000BE506246082692191778FF343E465778F3
:104920003F023E439778D2783F043E431206164337
:1049300002688D3416510268D4582E7830466E784D
:1049400036023043AE7800E015E0ED7836043043AF
:104950002D062843C008C0000125001D284304433C
:10496000D4508878401C8006800E88700878401EDD
:104970000870F0BC7047704708040020F8B40024A9
:104980001348E1000E1835680095681C18D0002304
:1049900010481A46022168444778FB188778801C23
:1049A000BA18491E0906DBB2D2B2090EF4D1981822
:1049B00040427168C0B2C9B2884201D10648C560A0
:1049C000641CFF2CDCD30448C1688160F8BC7047CC
:1049D00000000108FFFFFFFF6800002010B500285D
:1049E0000ED00A484168642906D3C268521C643953
:1049F000C2604160012101704168491C416010BDE5
:104A00000029FCD000F004F810BD00006800002070
:104A1000F0B51D4D83B02878002832D0E868002416
:104A20001A4E002824D00090002319481A4602216B
:104A30004778FB188778801CBA18491E0906DBB234
:104A4000D2B2090EF4D198184042C0B20190FFF7DB
:104A500005FA002815D103E0641CA4B2FF2C07D886
:104A6000E000801908226946FFF7FEF90028F3D11B
:104A7000E00080190168E868814202D1A860002046
:104A8000287003B0F0BD000068000020000001089D
:104A9000730000204368826801699A6083684268F5
:104AA0005A604A68824201D182684A6000220261EB
:104AB0000868401E0860086870470000034B0360E8
:104AC000034808604020106070470000D0000020BC
:104AD000240100200146083100224160D243C16018
:104AE000826001610021016070470021016170470F
:104AF00030B40B685A1C02D00246083202E0026948
:104B000004E02246546825689D42FAD953684B60F8
:104B100099608A60516008610168491C016030BC7D
:104B2000704742684A6093688B60936859609160EF
:104B300008610168491C01607047000072B60448B2
:104B40000168491C0160BFF34F8FBFF36F8F70473F
:104B5000CC00002005490868002804D0401E0860E9
:104B600000D162B6704772B6FEE70000CC000020AC
:104B700000283BD070B505461D4E083D6868F168B9
:104B8000084201D172B6FEE72A68002A01D072B647
:104B9000FEE78843686000F07FF868687168154C2C
:104BA0004018706000E004462068A842FBD36168AA
:104BB0000A19AA4203D16A682546891861606968A2
:104BC0004A1982420BD13268904206D040680818D8
:104BD000686020680068286002E02A6000E02860C1
:104BE000AC4200D0256000F0D3F970BD70470000E2
:104BF000B4000020C40000200120044900074860E0
:104C0000BFF34F8FBFF36F8F7047000000ED00E0E0
:104C100010B500280FD009498A6B002A01D072B65E
:104C2000FEE78A6B521C8A630021FFF7DFFB00F06E
:104C3000AFF9002801D1FFF7DFFF10BD7800002099
:104C400010B586B00024039405AA04A903A804940F
:104C5000FFF734FF04990398009401910290002318
:104C600009A10B48059A00F0D4F80A4900284863C6
:104C700008D072B60020C04308630120C8614C61AF
:104C800000F044F806B010BD49444C450000000057
:104C900009450008780000200248816B491C8163A7
:104CA0007047000078000020164B986B002802D057
:104CB000012058627047002058629869142102460A
:104CC0004A4311498A58002A0AD1002806D01422E2
:104CD000401E42438A58002AF7D001E072B6FEE730
:104CE000142210B4424351184A680C4652680834E2
:104CF0004A60A24201D152684A60D1681960986145
:104D000010BC704778000020A40B002070B50F483D
:104D1000016AFF22120411430162016A1202114367
:104D200001620B4C00252561A5610A487D21C9005F
:104D30000068FBF719FA401E6061072020610648F1
:104D40000560FBF7C7F9002070BD000000ED00E032
:104D500000E000E000000020CC000020FFB583B0A0
:104D6000970038460C9DFFF711FC06001AD054201E
:104D7000FFF70CFC0400304612D0206300215122C2
:104D800011553F1FC0190399C0080291C000069A2F
:104D900004990D9E00900192400707D072B6FEE77D
:104DA000FFF7E6FE0020C04307B0F0BD22180B5C01
:104DB000203213750A5C002A02D0401C1028F5D35B
:104DC000274600204037F870072D00D30625E562FE
:104DD00000206564A064201DFFF787FE2046183080
:104DE000FFF783FE07202461411B6462A16100205C
:104DF000E0643874019A02990098FFF763FC206020
:104E0000002E00D034602046FFF71CFB012007B0C5
:104E1000F0BDF0B585B00B9E0A9D0C9C002E14D001
:104E2000002C14D054272663022651273E550190AA
:104E300002A8039000939000236B001F1818C70866
:104E4000FF00780705D072B6FEE772B6FEE772B6CD
:104E5000FEE723180A5C20331A750A5C002A02D088
:104E6000401C1028F5D3264600204036F070072D50
:104E700000D30625E56200206564A064201DFFF7CD
:104E800034FE20461830FFF730FE24610720411B16
:104E90006462A1610021E16431743846009A01998D
:104EA000FFF710FC20600398002800D002942046F1
:104EB000FFF7C8FA029805B0F0BD0000F8B5324D12
:104EC0000027A86B002808D0286A401C2862686A5E
:104ED000002800D001273846F8BD6E69761C6E6147
:104EE00015D168680068002801D072B6FEE76868CE
:104EF000A9686960A860A86A401CA8626868006820
:104F0000002813D06868C068C06840682863286BB0
:104F1000864211D36868006800280AD06868C068B3
:104F2000C4686068864211D2286305E00020C0434F
:104F3000ECE70020C043286328681421C06A484376
:104F4000124908580128C2D90127C0E7201DFFF7E0
:104F5000A1FDA06A002803D020461830FFF79AFD73
:104F6000E06AA96988420DD81421484307494018CE
:104F7000211DFFF7D6FDE06A2968C96A8842C9D3B6
:104F80000127C7E7A861EFE778000020A40B002005
:104F9000F0B583B00020624D0190A86B002808D0C6
:104FA000FFF7CCFDA86B401EA863A86B002802D0B9
:104FB000ACE072B6FEE72869002879D0594E306817
:104FC000594F002828D0F068C46820461830FFF7F1
:104FD00061FD201DFFF75EFDE06AA969884268D87F
:104FE00014214843C019211DFFF79BFDE06A296881
:104FF000C96A884201D30120686230680028E2D182
:10500000002C09D0686829460068002813D0486839
:10501000C068C06840680863286A009000286ED0A5
:10502000A86B0027002809D0286A401C2862686AFB
:1050300000285DD15AE00020C043ECE76E69761C81
:105040006E6115D168680068002801D072B6FEE76D
:105050006868A9686960A860A86A401CA862686856
:105060000068002813D06868C068C068406828637A
:10507000286B864211D36868006800280AD06868E7
:10508000C068C4686068864214D2286305E00020C6
:10509000C043ECE70020C043286329682846C96A5A
:1050A00014225143204A51580129C0D9406A1FE0B7
:1050B0002CE030E0201DFFF7EDFCA06A002803D0B3
:1050C00020461830FFF7E6FCE06AA969884224D838
:1050D0001421484314494018211DFFF722FDE06ABE
:1050E0002968C96A8842C6D30127C4E7002F01D0C6
:1050F000012068620098401E009091D12862686A81
:10510000002803D001200190FFF776FDFFF722FD74
:10511000019803B0F0BDA86162E7A861D8E700007C
:1051200078000020580C0020A40B00200000000094
:105130000000000001020304060708090000000047
:1051400001020304C8510008192A000803000000E6
:10515000000000004000000000000000000000000F
:10516000BC510008B1280008010000000000000048
:10517000400000000000000000000000D8510008BE
:10518000BD280008000000000000000040000000F2
:105190000000000000000000E8510008F1290008AC
:1051A000FFFF0000000000004000000000000000C1
:1051B0000000000000040048008000006D79546188
:1051C000736B43414E0000006D795461736B5379EA
:1051D000735469636B0000006D795461736B436FA6
:1051E0006E74726F6C0000006D795461736B4D6565
:1051F0006E7500001452000800000020D00000006E
:10520000962C0008E4520008D0000020C81B0000C3
:10521000A62C000800127A00000000000000000028
:105220000000000000000000010000000400000079
:10523000000000000200000000000000000000006C
:1052400064000000000000000000000000000000FA
:10525000000000000000000000000000000000004E
:10526000B403002000000000000000000000000067
:10527000000000000000000000000000000000002E
:10528000000000000000000000000000000000001E
:10529000000000000000000000000000000000000E
:1052A00000000000000000000000000000000000FE
:1052B00000000000000000000000000000000000EE
:1052C00000000000000000000000000000000000DE
:1052D00000000000000000000000000000000000CE
:0452E000AAAAAAAA22
:04000005080000C12E
:00000001FF
