:020000040800F2
:10000000E81B00204D010008391F0008F11C000802
:1000100000000000000000000000000000000000E0
:100020000000000000000000000000003B1F00086E
:1000300000000000000000000B01000891200008F3
:100040005F0100085F0100085F0100085F01000810
:100050005F0100085F0100085F0100085F01000800
:100060005F0100085F0100085F0100085F010008F0
:10007000A50200085F0100085F010008B920000820
:100080005F0100085F0100085F0100085F010008D0
:100090005F0100085F0100085F0100085F010008C0
:1000A0005F0100085F0100085F0100085F010008B0
:1000B0005F0100085F010008DD0300085F01000820
:1000C0000348854600F0DCF800480047B5290008E1
:1000D000E81B0020084B19680868203080F3098865
:1000E000022080F31488BFF36F8F3FBCAE4608BC7C
:1000F00004BC62B61847000048000020EFF31080EF
:1001000072B6704780F310887047EFF309800E4B8A
:100110001A6820381060F0C044464D4656465F4687
:10012000F0C008B572B603F019F962B60CBC1168DC
:1001300008681030F0C8A046A946B246BB4680F316
:1001400009882038F0C81847480000200448804734
:1001500004480047FEE7FEE7FEE7FEE7FEE7FEE7AE
:10016000B5200008C100000830B50B46014600204C
:100170002022012409E00D46D5409D4205D31D46AD
:100180009540491B2546954040191546521E002DA5
:10019000F1DC30BDF0B51FB40646002082B0054644
:1001A0004024019100901BE0019922460F46304601
:1001B00000F020F8049A059B801A994110D310464C
:1001C0001946224600F04BF8361A8F410197224615
:1001D00001200021009F00F042F838184D410090A6
:1001E0002046641E0028DFDC019B00982946324629
:1001F00007B0F0BD10B5202A04DB0846203AD040F5
:10020000002110BD0B46D340D0402024A21A9140BB
:100210000843194610BD03460B439B0703D009E072
:1002200008C9121F08C0042AFAD203E00B78037031
:10023000401C491C521EF9D27047D2B201E0027034
:10024000401C491EFBD270470022F6E710B513464A
:100250000A4604461946FFF7F0FF204610BD10B5C8
:10026000202A04DB0146203A9140002010BD914035
:1002700020239C1A0346E3401943904010BD000020
:10028000064C0125064E05E0E36807CC2B430C3CE9
:1002900098471034B442F7D3FFF716FF78380008B8
:1002A0009838000870B5154800F0BCF981B21448C0
:1002B000426885685300134AD45A2C1B6418846022
:1002C0001148D152C17C827C09021143090B2204DE
:1002D0000903120D114381740A0AC2744279037929
:1002E00012021A430905120B090D12030A43027187
:1002F000110A4171014800F098F970BDE40900202D
:100300002C000020700A0020A0000020F0B5044658
:1003100083B000200090206881688907890F012937
:1003200005D10168C90748D1C168090445D481686D
:10033000264A10261140012500292ED18168294323
:100340008160244822490068FFF70EFF0090019069
:10035000002815D02049884232D8002826DD2840C0
:1003600002D00099491E00910199401C491C884205
:1003700006DA009A801C521E521E00928842F8DB58
:1003800000F0AEFF074620680068C043C00714D0E5
:1003900000F0A6FFC01B02280AD9A06B3043A0635F
:1003A000E06B2843E063012003B0F0BD0020DBE7F1
:1003B00020680068C043C007EAD1002003B0F0BD48
:1003C0000098401E0090FCD1DAE700001700008082
:1003D00040420F0044000020FFFFFF7F10B50F4C8C
:1003E00020684069800704D500220D49204602F0AC
:1003F000D7FC206841690B4A114207D14069C00708
:1004000008D00949054802F077FD03E0074908785C
:10041000401C0870014800F02BFB10BD240A00208E
:1004200006010020030500004A0400202C000020E3
:1004300072B6FEE770B5044600F052FF1A4D06464C
:10044000E868C0070DD0601C08D0002C04D000F074
:1004500047FF801BA04201D9032070BDE868C00798
:10046000F1D1E868800601D52020E860E868C00680
:1004700002D4E868400715D5E9680020CA060B4990
:1004800004D5C86902221043C8611020EA685207E7
:1004900005D5CA6901231A43CA6104210843E860EB
:1004A000012070BD002070BD00200240D80A00204D
:1004B000F0B583B00025044620340095227D012A42
:1004C0003BD00123237502689668760770D44F4F9E
:1004D0004E68BE426ED0966A0F78BB401E4396624D
:1004E0000123C26A1B079A421FD0012A1DD0022A8B
:1004F0001BD0032A19D0042A17D0052A15D0062AA2
:1005000013D0072A11D002688B6856697607760FD8
:10051000B3420AD05369DB08DB00536100684269CB
:100520000B7A5B075B0F1A4342610868102807D0FB
:10053000112805D0122803D05EE0022003B0F0BDE0
:10054000334A9368102809D011280AD001200006E8
:10055000034393600868102806D04DE00120C005D1
:10056000F6E701208005F3E72B482A490068FFF7EA
:10057000FBFD0A214843009001903DD02749884265
:100580003FD8002812DDC007C00F02D00099491ED5
:1005900000910199401C491C88422DDA009A801C68
:1005A000521E521E00928842F8DB25E00020F0E740
:1005B0001DE0FFE7906A0E78B340984390620868A8
:1005C000102803D0112801D0122815D110498A68AB
:1005D000102806D0112807D00120000682438A6027
:1005E0000AE00120C005F9E701208005F6E7816BEC
:1005F000202211438163012500202075284603B085
:10060000F0BD0098401E0090FCD1F5E701100000FD
:100610000027014040420F0044000020FFFFFF7F01
:10062000704770470068006C704770B504460068FA
:100630000168490702D54168490705D401680907DF
:1006400030D5416809072DD5A16BC90604D4A16B2B
:10065000012252021143A163C1680C250905890FCB
:1006600000291AD1A17E002917D10168090714D5E4
:1006700081684A070121002A08DB4268AA434260D8
:10068000A06B0A0290430843A06306E0A06B2022FF
:100690001043A063E06B0843E0632046FFF7C0FF10
:1006A000206805602068016809060DD540680006CD
:1006B0000AD5A06B012109040843A063204600F07D
:1006C000D9F821688020086020680168C90613D520
:1006D0004168C90610D5A16A1025012902D0C16858
:1006E000C90707D0E16B02221143E1630560204690
:1006F000FFF797FF2068056070BD0000F8B5002681
:100700000446002805D0A06B25462035002802D0DD
:1007100007E00120F8BD0020E0632875204600F0C6
:10072000ABF8A06B1022C006002870DB206881683F
:1007300049076CD4A16B1301994302231943A163A8
:1007400081688907890F012905D10168C9070FD17F
:10075000C16809040CD4C16818239943A3681943DC
:10076000C1602068016963688900890819430161D3
:100770002068C1683D4B1940C160207E617E8003C6
:10078000C9030843A17E4B031843A36A012B02D07F
:1007900001231B0300E000231843E3681843236987
:1007A000022B09D0002318432B79E57E5B00184308
:1007B0000123012D02D00AE00423F4E7002927D009
:1007C000A16B20252943A163E16B1943E163E16932
:1007D0000D46FF3DC23D02D0256A294308432168EA
:1007E000CD680543CD600125E16A2D07A94213D0EC
:1007F000012911D002290FD003290DD004290BD0D3
:10080000052909D0062907D0072905D010E028E0DE
:10081000012109040843DAE721684D69ED08ED007C
:100820004D6121684D69A78D7F077F0F3D434D6165
:100830002168C9680E4D2940814207D10020E0633C
:10084000A06B80088000401CA06308E0A06B022120
:1008500088431043A063E06B1843E06301263046F1
:10086000F8BDA06B1043A063F8E700001902FEFF7B
:10087000E7FF3F837047000000B587B0002100917B
:1008800001910291039104910068124988421FD19D
:100890001148826941150A43826182690A400592C2
:1008A000426909020A4342614069084005900120FB
:1008B00000900320019009206946C00600F048FC22
:1008C000002203210C2000F089FD0C2000F07AFDAD
:1008D00007B000BD002401400010024070B504467E
:1008E000216800208968490732D425462035297DB2
:1008F00001292DD001212975617E012904D02046CE
:10090000FFF704FD002818D1A16B124A1140FF2205
:1009100001321143A1630021E163297522681C2182
:10092000116063690422082B08D023685D680D43B9
:100930005D6021688B6813438B6070BD21684B68D4
:1009400093434B6021684B6818252B434B60F0E7BD
:10095000022070BDFEF1FFFF2022125C012A08D0A8
:10096000022A06D0416A0122920411434162012009
:100970007047006842690A4342610020704730B402
:100980002022125C0368012A09D0022A07D0416A9A
:10099000012292041143416230BC01207047DA1DEC
:1009A000FF32FA3214680120044314600C7DE4061F
:1009B000E40EA040D4698443D461CC69002C1AD1E0
:1009C000D4688443D4608C898D882404ADB22C43D0
:1009D0004D69ED00ED18FF35FF3502352C640C89AB
:1009E0000D882404ADB22C434D69ED00ED18FF35A0
:1009F000FF3502356C64CC69012C1AD1D4680443EC
:100A0000D4600C888D882404ADB22C434D69ED0070
:100A1000ED18FF35FF3502352C640C898D892404CF
:100A2000ADB22C434D69ED00EB18FF33FF330233B9
:100A30005C648B69002B53680BD0034353600B69D4
:100A4000002B536907D003435361096A012904D07D
:100A500006E08343F2E78343F6E7D1690143D161BE
:100A6000106840084000106030BC0020704770479C
:100A7000F0B50546006885B04669002441680191DB
:100A80008768C16803910169029181690091F1074A
:100A900049D0F90714D001218160B80703D5284651
:100AA00000F0ECF90CE0780702D50124E40207E03D
:100AB000380702D50124240302E0284600F0DDF9BE
:100AC000F80517D5FF20296801308860B80503D5DF
:100AD000284600F0D5F90DE0780502D50120400345
:100AE00003E0380503D501208003044302E02846D3
:100AF00000F0C5F9F80316D50120296800048860C4
:100B0000B90303D5284600F0BDF90CE0790303D5FD
:100B10000120C003044306E0390301D5044302E089
:100B2000284600F0AEF930071027002806DA0398AF
:100B3000C00603D5780104432868C760700708D54C
:100B40000398000705D529680820C860284600F0EA
:100B50005FF9B00706D52868C068800702D028462C
:100B600000F057F9700607D50298C00604D5012099
:100B70008002044328680761B00608D50298000780
:100B800005D5296808200861284600F043F9F006D9
:100B900006D528680069800702D0284600F03BF996
:100BA000B00307D50198C00604D5286847602846D9
:100BB00000F032F9F00308D50198000705D529683F
:100BC00008204860284600F05EF9300442D50198BC
:100BD0004107042000293BDAF10504D50099C90733
:100BE00001D001210C43B10504D50099890701D535
:100BF00002210C43710503D50099490700D5044330
:100C0000310525D500994906490F21D0009A702158
:100C10000A40402A13D006DC102A09D0202A09D025
:100C2000302A11D108E0502A08D0602A0CD108E0FF
:100C3000082204E03C4307E0202200E08022144325
:100C400002E0FF22013214432A6893698B439361C7
:100C500029684860002C05D0686A204368622846ED
:100C6000FFF705FF05B0F0BD002801D10120704756
:100C7000F8B50546044620352878002802D12046DC
:100C800000F082F82068016802229143016000F0C0
:100C900027FB0646206840683A4F800708D500F0D9
:100CA0001FFB801B0A2814D8206840688007F6D4F0
:100CB0002068016801221143016000F011FB064623
:100CC00020684068C0070FD100F00AFB801B0A288B
:100CD00006D9606A38436062052028700120F8BD9B
:100CE00020684068C007EFD0217E8020012921685C
:100CF0000A683BD082430A60607E40210128206858
:100D0000026835D08A430260A17E20200129216833
:100D10000A682FD082430A60E17E102001292168F1
:100D20000A6829D002430A60207F08210128206830
:100D3000026823D08A430260617F04200129216870
:100D40000A681DD082430A60E168A06862690843AE
:100D50002169114308436168491E08432168C8613D
:100D600000206062012028700020F8BD0243C2E725
:100D70000A43C8E70243CEE78243D4E70A43DAE7EF
:100D80000243E0E700000200F0B587B000240094C1
:100D9000019402940394049400681B49884231D161
:100DA0001A48C269012149060A43C261C2690A4060
:100DB0000592426909120A434261406902250840CE
:100DC0000590881100900120029003260427092035
:100DD0000195694604970396C00600F0B9F9E80248
:100DE0000090092069460497039601950294C00675
:100DF00000F0AEF9002203211E2000F0EFFA1E20C1
:100E000000F0E0FA07B0F0BD0064004000100240BE
:100E10007047704770477047704770B50546044685
:100E200020352878012805D0606A0121C9040843CB
:100E3000606219E0022028702068016849084900B2
:100E4000016000F04DFA064620684068C00711D0E6
:100E500000F046FA801B0A2808D9606A012149047B
:100E60000843606205202870012070BD206840683A
:100E7000C007EDD10020606270BD704770477047B9
:100E80007047704770477047F0B4054600201E2336
:100E9000012601E05B1E05D3DF06FF0E3446BC4091
:100EA0000C42F7D0002A0FD0082A0BD0102A06D007
:100EB000182A01D1072B07D3F0BC01207047082B5B
:100EC000FAD201E0102BF7D22B6859612B68996890
:100ED0001824A14311439960F0BC7047002801D148
:100EE0000120704710B50446407F002803D12077C9
:100EF000204600F035F8022060772079002808D0DD
:100F00002046E268A168FFF7BFFF002809D0012052
:100F100010BD2168114848612068816818229143FA
:100F200081606079002814D02168206908612168F7
:100F300088686022904362691043886021688868ED
:100F400080229043A26910438860012060770020CE
:100F500010BD00202168C0430861E8E7B71DC10447
:100F60000068074981B0884207D10648426940219C
:100F70000A43426140690840009001B07047000098
:100F8000003002400010024070B5044600F0A8F99D
:100F90000546601C02D004480078241800F0A0F92F
:100FA000401BA042FAD370BD38000020F3B50646BE
:100FB00081B0012000902E48017E01290CD0012132
:100FC000017630682B4D2C4C012808D02846FFF7BD
:100FD00031FA00281AD045E0022003B0F0BD2846BF
:100FE000FFF728FA00283DD12149C861206904266D
:100FF0003043206120694021084320612846FFF7E3
:1010000019FA00902069B04320612BE0002102987A
:10101000C9430160B0687568C0024019A84221D96F
:10102000022713490020C8612069384320616561A7
:1010300020694021084320610E48FFF7FBF900902A
:101040002069B84320610098002802D0029805600A
:1010500008E00120C0022D18B068C10270680818AD
:10106000A842DED8024900200876009803B0F0BDFF
:10107000D80A002050C30000002002400348016944
:1010800080221143016100207047000000200240CF
:10109000F0B51FB4054621480024017E82B01646F3
:1010A000012907D0012707761D48FFF7C3F900285B
:1010B00003D02DE0022007B0F0BD012D1ED0022D7F
:1010C0001ED004200090174D039861000F182201D4
:1010D00030460599FFF78EF8104A0021D161296941
:1010E00001221143296138800D48FFF7A3F92969CE
:1010F00049084900296100280AD104E0012000E0E4
:1011000002200090DFE7641C0099E4B28C42DBD33C
:10111000024A0021117607B0F0BD0000D80A002075
:1011200050C3000000200240064900200A69120650
:1011300007D5054A4A60054A4A600969090600D58B
:10114000012070470020024023016745AB89EFCDA5
:101150000B680022002B6FD0F0B582B00124254629
:101160000B6895402B4068D04E68012E05D0022EAA
:1011700003D0112E01D0122E16D186680327B44653
:101180005600B646B7406646BE43B446CF6876467C
:10119000B7406646374387604668AE430D79ED0633
:1011A000ED0F954035434560C66857000325BD40A7
:1011B000AC46AE438D68BD403543C5604D68022DD9
:1011C00001D0122D14D1D508AD002D1801952E6A2D
:1011D0005507B646EE0E0F25B54000967646AE434F
:1011E000B6460D69009EB54076462E43019D2E629F
:1011F00005686646B5430E79B607B60FBE402E4366
:1012000006604D68ED004ED52B4EB5692543B5619E
:10121000B4699508E407E40F0094284CAD002F1939
:10122000BC6895072E0F0F25B540AC430925ED0688
:10123000A84203D1002516E03CE034E0204DA8424E
:1012400001D101250FE01F4DA84201D102250AE07E
:101250001D4DA84201D1032505E01C4DA84201D136
:10126000042500E00525B5402543BD60184C2568E0
:101270004E689D43F60300D51D43256065684E68A2
:101280009D43B60300D51D436560A5684E689D4328
:10129000F60200D51D43A560E5684E689D43B60281
:1012A00000D51D43E5600B68521CD34000D055E7C4
:1012B00002B0F0BD70470000001002400000014085
:1012C0000004004800080048000C004800100048D6
:1012D00000040140002A01D081617047816270479B
:1012E000014880687047000038000020024881688B
:1012F00002788918816070473800002010B50648D0
:101300000168102211430160002000F007F800F08E
:1013100041F8002010BD00000020024000B5014649
:1013200087B000220F2000F059F80F2000F04AF893
:101330001448C16901221143C161C06904A9104068
:101340000590684600F002F900F01CF90E49FEF71E
:101350000BFF01220D4992070A600D4A401ECA6028
:101360004860002008618860084600F0B3FB002850
:1013700002D0012007B000BD044800F0CFFB07B049
:1013800000BD00000010024040420F00900A002003
:10139000E703000008B50A48816901221143816111
:1013A000816911400091C26901040A43C261C069A8
:1013B0000022084003210090481F00F00FF808BDEC
:1013C00000100240002805DBC106C90E012088403C
:1013D000014908607047000000E100E08207D30E79
:1013E000FF229A408907090E9940002808DB8308EC
:1013F00009489B001818036893430B430360704728
:101400000007000F0838830804489B001B18D869A0
:1014100090430843D861704700E400E000ED00E02D
:10142000002801D101207047F8B5054642480E4614
:101430000068C007C00FB0420AD23F4908684008A0
:101440004000304308600868C007C00FB04257D161
:1014500028683A4C81070CD5400704D560680721FD
:101460000902084360606068F0218843A968084366
:1014700060602878C00733D0686801281DD0022832
:101480001FD0032821D02168890739D561688908D0
:10149000890001436160FFF723FF616807466A68BE
:1014A0000C200140920091421AD0FFF719FFC11B96
:1014B000234881420DD90320F8BD216889031FD537
:1014C000E4E7216889011BD5E0E7616BC90317D503
:1014D000DCE760680C210840696889008842E4D133
:1014E00015480168C907C90FB1420BD901684908FD
:1014F0004900314301600068C007C00FB04201D00D
:101500000120F8BD2878400706D561680720000251
:101510008143E8680143616000F044F86168094A6A
:101520000906090F515CC840074908600020FFF711
:10153000F5FE0020F8BD000000200240001002402F
:1015400088130000343800084400002010B407223B
:1015500002600A4A53689B079B0F43605368F0245C
:1015600023408360526807231B021A40C26004486C
:101570000068C007C00F086010BC70470010024030
:10158000002002400448054900684968044A4905AA
:10159000490F515CC84070474400002000100240D1
:1015A0004438000830B51DA30FCB89B06C460FC47A
:1015B0001EA30FCB0FC4214A51680C200B460340D9
:1015C0001F48042B05D01F4D082B04D00C2B00D135
:1015D000284609B030BD8B021B0F6C46E45CD26A12
:1015E00004AB1207120FC9039A5C890F022901D0BC
:1015F000032908D000231946FEF7CCFD214600F050
:10160000AFFD09B030BD002328461946FEF7C2FDE4
:10161000214600F0A5FD09B030BD0000020304051D
:10162000060708090A0B0C0D0E0F10100102030427
:1016300005060708090A0B0C0D0E0F1000100240DA
:1016400000127A00006CDC02002801D101207047F2
:10165000F8B504460078FF4DC00757D0686800070A
:10166000800F01282BD068680007800F022804D162
:101670006868C003800F022821D06168012925D045
:1016800001208004002927D0052929682DD0821047
:10169000914329602968814329606068002827D028
:1016A000FFF71EFE0646286880032FD4FFF718FEBA
:1016B000801B64287ED828688003F7D526E0286838
:1016C000800323D56068002875D01FE028680121B9
:1016D000090408432860E0E72A68012109048A43D5
:1016E0002A60296881432960D7E701432960EDE733
:1016F000FFF7F6FD06462868800307D5FFF7F0FDE3
:10170000801B642856D828688003F7D42078800787
:1017100042D568680007800F26D068680007800FF0
:10172000022804D16868C003800F01281CD0E0683B
:10173000002828681FD0012108432860FFF7D0FD4A
:1017400006462868800707D4FFF7CAFD801B0228D9
:1017500030D828688007F7D52868F82188432169A0
:10176000C9000843286017E028688007F4D5E068BE
:10177000012820D1F0E7400840002860FFF7B0FDC5
:1017800006462868800707D5FFF7AAFD801B0228B8
:1017900010D828688007F7D4207800072AD5E06998
:1017A000002815D0696A012001436962FFF798FD9E
:1017B000064601E07CE083E1686A80071AD4FFF7FF
:1017C0008FFD801B022873D8686A8007F7D511E067
:1017D000686A400840006862FFF782FD0646686A52
:1017E000800707D5FFF77CFD801B022860D8686A58
:1017F0008007F7D42078400771D500200090E86971
:10180000C00008D4E969012000070143E961E969E2
:10181000014001200090904F3868C00511D438680D
:10182000B91508433860FFF75BFD06463868C00508
:1018300007D4FFF755FD801B642839D83868C005E8
:10184000F7D5A06801281ED0002820D0052827D071
:10185000286A400840002862286A042188432862D8
:10186000A0687E4E002824D0FFF73AFD0746286A7C
:1018700080072CD4FFF734FDC01BB04218D8286A6B
:101880008007F7D523E0296A0120014306E0286A92
:10189000400840002862296A042081432962DFE76A
:1018A000296A042001432962286A01210843D6E7F6
:1018B00080E0FFF715FD0746286A800707D5FFF788
:1018C0000FFDC01BB04275D8286A8007F7D4009876
:1018D000002804D0E869012109078843E8612078DD
:1018E000C0061AD56069012825D0401D41D0686B1B
:1018F000042108436863686B400840006863FFF791
:10190000EFFC0646686B800707D5FFF7E9FC801BF4
:1019100002284FD8686B8007F7D42078800664D5FA
:1019200068680007800F032845D068680007800FAB
:10193000022823D027E0686B042108436863686BA2
:10194000012108436863FFF7CBFC0646686B8007FC
:1019500007D4FFF7C5FC801B022860D8686B80079E
:10196000F7D5686BF8218843A169C900084368630B
:10197000D3E7696B042081436963F2E76868C003B9
:10198000800F032817D0206A00281BD0686B012124
:10199000090408436863FFF7A3FC0646686BC003AD
:1019A00023D4FFF79DFC801B022838D8686BC00346
:1019B000F7D51AE033E0686BC00316D5206A01281A
:1019C0007ED112E0696B0120000481436963FFF757
:1019D00087FC0646686BC00307D5FFF781FC801BB8
:1019E00002281CD8686BC003F7D4606A00286DD049
:1019F00069680907890F02294FD001273F0602288D
:101A000028680ED0B8432860FFF76AFC04462868AF
:101A100080015BD5FFF764FC001B022839D9032045
:101A2000F8BDB8432860FFF75BFC064628688001D4
:101A300007D5FFF755FC801B0228F0D828688001E5
:101A4000F7D4E86A216B000900010843E862E16A03
:101A5000A06A05E0001002400070004088130000FA
:101A6000014368687B22D203904301436960286880
:101A700038432860FFF734FC04462868800125D4E9
:101A8000FFF72EFC001B0228C9D828688001F7D573
:101A90001CE028688001BDD418E00128C0D0686827
:101AA000EA6A0321C903A36A014099420CD11107D4
:101AB000226B090F914207D10F218904084000E0F1
:101AC00002E0E16A884201D00120F8BD0020F8BDA3
:101AD00070477047002801D10120704770B5054656
:101AE00004462035687F002803D12877204600F07F
:101AF00014F802206877211D206800F0E5FA012023
:101B00004034A071A877E87720706070A070E07012
:101B1000207160716877002070BD704701462031E8
:101B20004A7F012A01D00120704702224A770268C9
:101B3000D36801210B43D36000680B4A904208D060
:101B40008A07904205D0094A904202D0084A904242
:101B500004D182685207520F062A02D002680A4353
:101B60000260002070470000002C0140000400408B
:101B700000400140704770B50446006801690025C7
:101B8000C9438907002915DBC168C943890711D4F6
:101B9000E91E0161012020772068806980072046C6
:101BA00002D0FFF7E7FF04E000F096F8204600F0CF
:101BB00094F8257720680169C943490717D4C1689B
:101BC000C943490713D40421C94301610220207786
:101BD000206880698005800F204602D0FFF7CAFF89
:101BE00004E000F079F8204600F077F825772068C7
:101BF0000169C943090716D4C168C943090712D44A
:101C00000821C9430161042020772068C06980074A
:101C1000204602D0FFF7AEFF04E000F05DF820465A
:101C200000F05BF8257720680169C943C90617D41D
:101C3000C168C943C90613D41021C94301610820F2
:101C400020772068C0698005800F204602D0FFF70A
:101C500091FF04E000F040F8204600F03EF82577C0
:101C600020680169C943C90708D1C168C943C907C8
:101C700004D1891E0161204600F030F82068016916
:101C8000C943090609D4C168C943090605D480219E
:101C9000C94301612046FFF71BFF20680169C94362
:101CA000490609D4C168C943490605D44021C9433E
:101CB0000161204600F01BF820680169C9438906CC
:101CC00009D4C168C943890605D42021C9430161EB
:101CD0002046FFF7FEFE70BD7047704710B50068E4
:101CE00001218907884201D1FFF700FB10BD704731
:101CF000FEE7000010B584B0002418480094019459
:101D00000294446084601449C46001600822426106
:101D100001210161047644768476C476C022C261D2
:101D20008A0202620E4A14718162FEF7E7FC002803
:101D300001D0FEF77DFB01200003019005200290F9
:101D4000009469460548FEF7B3FB002801D0FEF772
:101D50006FFB04B010BD000000240140E409002026
:101D6000040A002010B50F480D49016008214160A8
:101D7000002107228160120402610122C160520524
:101D800042610176012242768176C27601774177FF
:101D9000FEF76AFF002801D0FEF74AFB10BD0000E5
:101DA00000640040240A002010B50948074901607A
:101DB0000021017141714161816101210162FFF7DF
:101DC0008DF8002801D0FEF733FB10BD0030024033
:101DD0004C0A002030B51C4C95B00FCC6D460FC599
:101DE000A268616820680591049006920021684607
:101DF000103C00F024FE154D286020461C300FC812
:101E00000A93099208910790626B216BE06A0C912A
:101E10000B900D92002107A800F011FE686020468B
:101E200038300FC8119310920F910E90226DE16C13
:101E3000A06C13911290149200210EA800F0FFFDE7
:101E4000A86015B030BD0000E03700082000002079
:101E5000F0B587B0002432480094019402940394B2
:101E6000049442690121C9040A43426142690A405B
:101E700005924269C9000A43426142690A400592DB
:101E8000426949110A43426142690A400592426926
:101E900049000A434261406909270840FF0605904E
:101EA000002218213846FFF715FA002224211D4888
:101EB000FFF710FA072040030325009069460195BB
:101EC00002941948FFF744F90095694617480195AF
:101ED0000294FFF73DF91648009069460195029477
:101EE0003846FFF735F9182001260090029469461C
:101EF000019603943846FFF72BF90E480090694687
:101F0000019502940748FFF723F9242000900294DA
:101F10006946019603940348FFF71AF907B0F0BD2C
:101F20000010024000040048000800480014004867
:101F3000E6870000DBFF0000FEE7704700F0B6F91F
:101F4000642000F06FFDF9E7EF2709262A4D2B4C9E
:101F5000F606207D38402075C1070ED0810709D5CF
:101F600041068007490EC00FC0010143FB2001401C
:101F7000217502E04006400E2075207DC009607D7D
:101F800017D0C00710D1012208213046FFF7A2F96F
:101F90000A20FEF7F9FF012210213046FFF79AF9D7
:101FA000607D012108436075287880088000801CCE
:101FB0001BE0C0070DD0002208213046FFF78AF948
:101FC000002210213046FFF785F9607D400840006F
:101FD0006075207DC10703D0000701D5032000E014
:101FE00000202978890889000843287000F0CEFC79
:101FF000192000F017FDACE700000020E0000020F1
:10200000224DF7272E464236B41E68792979000200
:1020100008430105707B327B0002090D10438142A9
:1020200002D20121002008E0207DC10903D1C106B0
:1020300001D4012100E00021C00901F029F8207D30
:1020400081071FD4C1071DD0102163181A781146CB
:102050005A78120211439A7812041143DA78120660
:10206000114308D0491E2174080A6074080CA0743A
:10207000080EE07406E038400107C90F4008400030
:10208000084320750A2000F0CDFCBEE7A000002028
:1020900010B5FEF733F8044601F06AFA002803D0C1
:1020A00001200349000748602046FEF72BF810BDC9
:1020B00000ED00E07047000010B50248FFF75BFD3F
:1020C00010BD0000900A0020F0B402681E4B0124ED
:1020D000A4071E4D984203D0A04201D0A84203D1CC
:1020E0007026B2434E683243194E1A4F98420DD0B3
:1020F000A0420BD0A84209D0174CA04206D0B04253
:1021000004D0B84202D0154CA04204D103242402CA
:10211000A243CC6822438024A2434C69224302603C
:102120008A68C2620A688262984206D0B04204D0CD
:10213000B84202D0094A904201D1096901630121E4
:102140004161F0BC70470000002C014000040040D9
:102150000040014000440140002000400048014090
:10216000F0B4040C8BB2264682B25E430D0C1046CE
:10217000370C5843360480190021794116466E43C6
:10218000370C36048019794126466E438919F0BC14
:1021900070470A7802704B7843708A788270CA78E8
:1021A000C2700B7903714A794271704702E008C826
:1021B000121F08C1002AFAD170477047002001E0C1
:1021C00001C1121F002AFBD17047000070B58AB010
:1021D0000024009401940294039404942E4D0594D9
:1021E0000694079408942B480994286000F05CF842
:1021F000012603200896069404940594800307960C
:102200000994019400940394029069462868FEF7AB
:10221000B6FB0596214E0121F078890780078009D9
:10222000401881B2000C0090C32001910002039479
:10223000029069462868FEF7A2FB0220059070789C
:1022400031780002B278084311461204104340036B
:10225000800CC9084001C90408430121C90740187E
:1022600081B2000C00900E48039001910D4802903D
:1022700069462868FEF783FB02212868FEF76CFB9D
:1022800001212868FEF768FB2868FEF7C6FD0AB042
:1022900070BD0000240A002004000020A0000020DF
:1022A000E0FF0000FFC0000070470000F0B58DB0F7
:1022B000002006900790E04A04900590019002905B
:1022C0000390117808435178090208439178090472
:1022D0000843D17809060843009004A800F0BAFA30
:1022E000D64C00287ED0D6480990D6486E4607279F
:1022F0000890227D0121FF200A432D302275207491
:10230000030A6374030CA374000EE0746846C07C77
:102310008006000F062851D203007B441B79DB188E
:102320009F44C8C61C02218E6846007D002845D007
:102330006846417DC80702D0082002432275207DEF
:1023400002073BD54A0703D5102108432075B1E0A9
:10235000090733D5402108432075ABE010072DD580
:10236000B9480170A6E0D0067ED46846C178C32083
:10237000014068461431C170007D00281ED06846B7
:10238000407D81081AD1694649798A07920F6946CA
:102390004A718107890F04D001290FD002290DD17C
:1023A0000DE0042069460871002048710722B01D25
:1023B0000999FDF730FF684600F03EFD7AE061794B
:1023C0008906CA0E76D06A46927DD30615D06B4632
:1023D00080071F71800F5871D006C00EC100091A06
:1023E000954800E06CE009180722B01D1931FDF78F
:1023F00012FF684600F020FD5CE00025C80E59D0B1
:10240000684607714079072281086846407D890047
:102410008007800F014368464171E800411B8648F0
:102420000918B01D2031FDF7F6FE684600F004FDE6
:1024300060796D1C8006EDB2C00EA842E0D839E08C
:10244000D00635D46846007D002833D06846407DEC
:1024500081082FD1089982084B790D7919022943F7
:102460000905890E8A4200E022E023D88007800F08
:1024700020D16846807D2071607941086846C07D22
:102480004900C007C00F01436171A179CF2001400D
:102490006846007E8006800F00010143A171880616
:1024A0006549800FCA78920892000243CA7001E021
:1024B0006548417004A800F0CDF9002800D018E765
:1024C000207D01077ED5C1067CD46946097CC906FA
:1024D000890F022902D0012903D005E00221084317
:1024E00001E0FD2108402075C0B281074207564D2A
:1024F0001143EA78C90F914204D1C206D30FAA78DA
:10250000934203D0C006E970C00FA8704A494A4CF4
:10251000887B4A7BC97B00021043090408430103FE
:10252000E079A27900021043227A002612041043B7
:102530000003090B000B81421BD12146087CCA7B9A
:10254000497C00021043090408430002010B607A31
:10255000227A00021043A27A120410430002000BF8
:10256000814206D100F0D8F92178C906890F884246
:1025700010D00722211D3548FDF74DFE00F0CCF9A3
:1025800021788007E722C00E11400143217001200D
:10259000287002E0287800282BD06E702E700996E3
:1025A0000A960B962278E178104662781202104360
:1025B000A2781204104309060843089008A8C178BD
:1025C000C32000E012E0014008A80831C1700120DA
:1025D000014608A84171082101710722211D801DB3
:1025E000FDF719FE08A800F027FC02E016490020BC
:1025F000087015484178002916D0002141706946BD
:10260000C878C32108406946001DC87006200871BB
:102610000F48044600F094F901A821460130FFF765
:10262000B8FD684600F008FC0B480A49006800F055
:1026300063FC0DB0F0BD0000A0000020E000002011
:10264000E4000020E100002008000020AB00002092
:10265000DC0000204A04002004000020F8B54B48AC
:10266000017F49094901891C0177417F027F0902E5
:102670001143FF22E132914360310177090A41772A
:10268000434944480A7802704A7842708A788270D6
:10269000C978C17040498D7D4C7D887D3F4A400797
:1026A000400D4600507F137F000218433C4B4F7D86
:1026B000184030430605760DF6197605360D18409C
:1026C000304318402B021B195B051B0D1843107774
:1026D000030A5377097D334CC9066579C123890EF6
:1026E0001D400D432B4965718E78F1081E291DD9B7
:1026F000284B360459781F780902394331432A4E52
:102700003140803119700E0A5E70090C9970C12138
:102710000D4065719978C0254907490FB03199700E
:10272000D97889088900491C2943D97061798B06B9
:10273000DB0E02D0C1231940617101051B4B490D0D
:10274000994202D31A4B994206D13A21884319493A
:1027500008431077000A50770E48A279C178920694
:1027600089088900920F1143C1700A20FEF70CFC02
:1027700000F05EFC0A20FEF707FC0F48FEF7AEF8FB
:102780000A20FEF701FCFFF721FDF8BDC000002084
:10279000F0BF0008A0000020E0BF0008C10000203A
:1027A00001F0FFFFE00000201F00F8FFE20700003B
:1027B000FF070000C40F0000E40900200148007872
:1027C000704700000C000020F0B50D461F4906467A
:1027D000087885B0174600282AD10390009002207F
:1027E000087072B601200290194901963420C86021
:1027F000FEF79AFC03A96846FEF7D8FB002812D121
:102800000024002F19D928194078295D00020818E2
:1028100082B20E4902200870311900230120FEF710
:1028200037FC002806D0FEF729FC08490120087073
:1028300005B0F0BDA41CBC42E5D3FEF71FFC62B698
:1028400000200249087005B0F0BD00000C00002017
:102850000020024010B42F4900220B78002B56D0E4
:102860008A780D235A435218131D1C7822465C782F
:10287000240222439C78DB78240422431B061A435B
:102880000270130A4370130C8370120EC2708A78A0
:102890000D235A435218127A02718A785A435218F9
:1028A0000823521CD3181C7822465C782402224349
:1028B0009C78DB78240422431B061A434271130AD6
:1028C0008371130CC371120E02728A780D235A435E
:1028D00052180C23521CD3181C7822465C78240210
:1028E00022439C78DB78240422431B061A4342725D
:1028F000130A8372130CC372120E02738878401C81
:102900008006800E88700878401E0870012210BC76
:1029100010467047060100200848007DC10601D519
:1029200003207047810701D4410701D50220704779
:10293000000701D50120704700207047E00000200B
:1029400070B5104D0446E1210901E868FDF70CFC63
:102950000101E078A27800021043227912041043AA
:10296000094A10400143A170080AE070080C207168
:102970003C21E868FDF7F8FB3C21FDF7F5FB6171B0
:1029800070BD0000100000200F0000FF074A5169D1
:1029900024208143064803789807C00F400108436C
:1029A000D907490F014351617047000000040048F6
:1029B0000000002092B0FEF7A1FC34216846FDF72C
:1029C00043FC00240F9430200090012008900590D3
:1029D000109410200E940690119409946846FEF706
:1029E00033FE002801D072B6FEE707200E900320C8
:1029F0000F901094012111940EA8FEF711FD0028EC
:102A000001D072B6FEE7FFF723FAFFF773F9FFF77D
:102A1000A9F9FFF7C9F9FFF721FEFFF7DBF900F08D
:102A200009F8FEE710B5002800D1012000F04AFCAB
:102A3000002010BD10B500F05DFC002010BDF0B509
:102A400008244769045F4668026985B0002F12D0E8
:102A50008369002B0FD00025842C00D0E51C019742
:102A60000095029300680B460146304600F02BFDAE
:102A7000039005B0F0BD0025842C00D0E51C03AB0D
:102A80000095019300680B46014692B2304600F073
:102A9000BFFC012802D0002005B0F0BD039805B0AE
:102AA000F0BD0000F8B5134C0F4666690546206876
:102AB000001D00F049FB681C07D1002F05D02168DC
:102AC0000D48091D00F087FBF8BD206875194560A9
:102AD0002168B54204D2A068091D00F063FBF8BD6F
:102AE0006068091D00F05EFB206B8542F7D225630C
:102AF000F8BD000048000020D40B0020F8B50646C1
:102B000000F076FB274D2869401C28612868264F75
:102B1000002803D0E869002821D026E02E6028692B
:102B2000012822D1002414206043C01900F02CFB9E
:102B3000641C072CF7D31D4800F026FB1C4800F04E
:102B400023FB1C4800F020FB1B4800F01DFB1B482A
:102B500000F01AFB154868601430A86005E028688A
:102B6000F16AC06A884200D82E60E86A401CE862B8
:102B7000F06AA969884212D814214843C019311D4E
:102B800000F029FB00F040FBE869002806D0286827
:102B9000F16AC06A884201D200F088FBF8BDA861E2
:102BA000EAE7000048000020F80A0020840B00201B
:102BB000980B0020AC0B0020C00B0020D40B002091
:102BC000184E194C194FE068002825D000F010FB72
:102BD000F068C568281D00F0B7FA2069401E206122
:102BE000E068401EE06000F00FFB5120405D0028CF
:102BF00005D001280AD002280BD072B6FEE7286B58
:102C000000F010FB284600F00DFB02E0284600F023
:102C100009FBE0680028D9D138680128D3D900F031
:102C200045FBD0E7C00B002048000020F80A002038
:102C300003480068401C72B600D0FEE7FEE70000C3
:102C40009C000020F8B50646002400F07FFB4849B0
:102C5000484D0868002801D0C8681CE00322464897
:102C60009202430705D0C01DC008434BC000C31AE1
:102C7000D21A82180023083AD2086B60D20028606A
:102C80000A6053601360131A436002608B60012076
:102C9000C0074B60C8600642009061D1002E5FD033
:102CA0000836700708D07007400F0822101A8619DE
:102CB000700701D072B6FEE7002E51D048688646F4
:102CC00086424DD82B482A6801E010461A465368C0
:102CD000B34202D21368002BF7D125490D68AA42EE
:102CE0003ED004681168016050680834801B1028C9
:102CF00028D991194B0701D072B6FEE748601D4BE9
:102D0000566000E0034618688842FBD35E68F718F7
:102D10008F4203D149687118596019464E68B4460C
:102D2000761886420AD1A84206D0406860444860BE
:102D300018680068086002E00D6000E008608B42DF
:102D400000D0196053680A487146C91A4160856805
:102D5000A94200D2816000980343002053601060B4
:102D600000F070FC600701D072B6FEE72046F8BDA7
:102D70008400002094000020E80B002010B40124FF
:102D8000031F24061C601B1F1960191F034B0B60D7
:102D900014390A6010BC403870470000312C00081C
:102DA00070B40B78402B39D24B780D246343140157
:102DB00025465B18FF350668B13575591D712E0A19
:102DC0005E712E0C9E712D0EDD711D79ED08ED00EA
:102DD0001D712546FF350668B53575591D722546A6
:102DE000FF350668B93575595D722E0A9E722E0C34
:102DF000DE722D0E1D73FF340568BD342C595C73D3
:102E0000250A9D73250CDD73240E1C744B785B1C06
:102E10009B069B0E4B700B785B1C0B70202100688F
:102E2000012A04D0C2680A43C26070BC70470269BC
:102E30000A43026170BC704710B42E4900220B781F
:102E4000402B53D20478C378224644781B062402D0
:102E500022438478240422431A434B780D2463438D
:102E60005B181A71140A5C71140C9C71120EDA71E1
:102E70004A780D240379624352181372401C047976
:102E8000C379224644791B06240222438479240410
:102E900022431A434B780D2463435B185A72140A79
:102EA0009C72140CDC72120E1A73082282181378AA
:102EB000184653781B0218439378D2781B041843A2
:102EC000120610434A780D235A4352185073030ACE
:102ED0009373030CD373000E10744878401C800663
:102EE000800E48700878401C0870012210BC104603
:102EF000704700004A0400200A78002A7ED0F0B40F
:102F00008A780D235A4355180268002394682D1DB2
:102F1000640104D5946801263443946011E09368F9
:102F20001B01936805D5FF240134234393600123DB
:102F300007E0DB0077D593680124240423439360E2
:102F40000223EA789209032A16D1384A127DD40660
:102F500001D503220AE0940701D4540701D50222C7
:102F600004E0120701D5012200E00022D4002A78F3
:102F7000E726324022432A701C012346FF330668AD
:102F80008133F258D207D20FF25006681A1DB75893
:102F90003F093F01B7500768BE58BC462F793E43F2
:102FA0006746BE506F796A1C3E46AF7994463F0231
:102FB0003E43EF792A7A3F043E43120616431A46EF
:102FC00007680832BE506246082692191778FF3407
:102FD0003E4657783F023E439778D2783F043E43BF
:102FE0001206164302688D3416510268D4582E78A2
:102FF00030466E7836023043AE7800E015E0ED786A
:10300000360430432D062843C008C0000125001DAA
:1030100028430443D4508878401C8006800E887072
:103020000878401E0870F0BC70477047E000002030
:10303000F8B400241348E1000E1835680095681CA8
:1030400018D0002310481A46022168444778FB181C
:103050008778801CBA18491E0906DBB2D2B2090E65
:10306000F4D1981840427168C0B2C9B2884201D107
:103070000648C560641CFF2CDCD30448C16881602D
:10308000F8BC704700000108FFFFFFFF10000020A0
:1030900010B500280ED00A484168642906D3C268DA
:1030A000521C6439C2604160012101704168491CB1
:1030B000416010BD0029FCD000F004F810BD0000F4
:1030C00010000020F0B51D4D83B02878002832D0C4
:1030D000E86800241A4E002824D0009000231948E4
:1030E0001A4602214778FB188778801CBA18491EB7
:1030F0000906DBB2D2B2090EF4D198184042C0B230
:103100000190FFF75BFB002815D103E0641CA4B21B
:10311000FF2C07D8E000801908226946FFF754FB0E
:103120000028F3D1E00080190168E868814202D1EB
:10313000A8600020287003B0F0BD0000100000203F
:10314000000001081B0000204368826801699A6042
:10315000836842685A604A68824201D182684A6044
:10316000002202610868401E08600868704700007D
:10317000034B036003480860802010607047000024
:1031800090070020E407002001460831002241603A
:10319000D243C1608260016100210160704700215B
:1031A0000161704730B40B685A1C02D002460832E5
:1031B00002E0026904E02246546825689D42FAD97B
:1031C00053684B6099608A60516008610168491CCE
:1031D000016030BC704742684A6093688B609368B6
:1031E0005960916008610168491C016070470000E6
:1031F00072B604480168491C0160BFF34F8FBFF3EA
:103200006F8F70479C00002005490868002804D093
:10321000401E086000D162B6704772B6FEE700003B
:103220009C00002000283BD070B505461D4E083D8F
:103230006868F168084201D172B6FEE72A68002A80
:1032400001D072B6FEE78843686000F07FF86868D6
:103250007168154C4018706000E004462068A84270
:10326000FBD361680A19AA4203D16A682546891806
:10327000616069684A1982420BD13268904206D077
:1032800040680818686020680068286002E02A60CA
:1032900000E02860AC4200D0256000F0D3F970BD9A
:1032A00070470000840000209400002001200449A1
:1032B00000074860BFF34F8FBFF36F8F7047000068
:1032C00000ED00E010B500280FD009498A6B002AF4
:1032D00001D072B6FEE78A6B521C8A630021FFF7A9
:1032E000E1FB00F0AFF9002801D1FFF7DFFF10BDCF
:1032F0004800002010B586B00024039405AA04A954
:1033000003A80494FFF734FF0499039800940191F3
:103310000290002309A10B48059A00F0D4F80A494D
:103320000028486308D072B60020C043086301201B
:10333000C8614C6100F044F806B010BD49444C45EA
:1033400000000000C12B0008480000200248816BEB
:10335000491C81637047000048000020164B986BA1
:10336000002802D0012058627047002058629869F6
:10337000142102464A4311498A58002A0AD10028DA
:1033800006D01422401E42438A58002AF7D001E09A
:1033900072B6FEE7142210B4424351184A680C4634
:1033A000526808344A60A24201D152684A60D1682A
:1033B0001960986110BC704748000020F80A00208E
:1033C00070B50F48016AFF22120411430162016ABD
:1033D0001202114301620B4C00252561A5610A48C8
:1033E0007D21C9000068FCF7BFFE401E6061072018
:1033F000206106480560FCF76DFE002070BD0000EE
:1034000000ED00E000E000E0440000209C0000200F
:10341000FFB583B0970038460C9DFFF713FC0600FC
:103420001AD05420FFF70EFC0400304612D020635F
:103430000021512211553F1FC0190399C008029164
:10344000C000069A04990D9E00900192400707D093
:1034500072B6FEE7FFF7E6FE0020C04307B0F0BDFE
:1034600022180B5C203213750A5C002A02D0401C23
:103470001028F5D3274600204037F870072D00D3D9
:103480000625E56200206564A064201DFFF787FE25
:1034900020461830FFF783FE07202461411B646239
:1034A000A1610020E0643874019A02990098FFF746
:1034B00065FC2060002E00D034602046FFF71EFB24
:1034C000012007B0F0BDF0B585B00B9E0A9D0C9CA5
:1034D000002E14D0002C14D0542726630226512726
:1034E0003E55019002A8039000939000236B001FAB
:1034F0001818C708FF00780705D072B6FEE772B645
:10350000FEE772B6FEE723180A5C20331A750A5CE0
:10351000002A02D0401C1028F5D326460020403651
:10352000F070072D00D30625E56200206564A064D5
:10353000201DFFF734FE20461830FFF730FE2461CF
:103540000720411B6462A1610021E16431743846A7
:10355000009A0199FFF712FC20600398002800D020
:1035600002942046FFF7CAFA029805B0F0BD0000A9
:10357000F8B5324D0027A86B002808D0286A401CF7
:103580002862686A002800D001273846F8BD6E69B5
:10359000761C6E6115D168680068002801D072B68B
:1035A000FEE76868A9686960A860A86A401CA8620C
:1035B00068680068002813D06868C068C068406800
:1035C0002863286B864211D36868006800280AD0F7
:1035D0006868C068C4686068864211D2286305E0E4
:1035E0000020C043ECE70020C04328632868142172
:1035F000C06A4843124908580128C2D90127C0E7C8
:10360000201DFFF7A1FDA06A002803D02046183036
:10361000FFF79AFDE06AA96988420DD81421484352
:1036200007494018211DFFF7D6FDE06A2968C96ADD
:103630008842C9D30127C7E7A861EFE74800002007
:10364000F80A0020F0B583B00020624D0190A86B0D
:10365000002808D0FFF7CCFDA86B401EA863A86B1C
:10366000002802D0ACE072B6FEE72869002879D0C5
:10367000594E3068594F002828D0F068C468204659
:103680001830FFF761FD201DFFF75EFDE06AA969B4
:10369000884268D814214843C019211DFFF79BFDBB
:1036A000E06A2968C96A884201D3012068623068EB
:1036B0000028E2D1002C09D068682946006800285B
:1036C00013D04868C068C06840680863286A0090E2
:1036D00000286ED0A86B0027002809D0286A401C5B
:1036E0002862686A00285DD15AE00020C043ECE7F8
:1036F0006E69761C6E6115D168680068002801D07B
:1037000072B6FEE76868A9686960A860A86A401C8C
:10371000A86268680068002813D06868C068C0683C
:1037200040682863286B864211D3686800680028C7
:103730000AD06868C068C4686068864214D228638A
:1037400005E00020C043ECE70020C043286329685F
:103750002846C96A14225143204A51580129C0D928
:10376000406A1FE02CE030E0201DFFF7EDFCA06A6E
:10377000002803D020461830FFF7E6FCE06AA9696C
:10378000884224D81421484314494018211DFFF7CA
:1037900022FDE06A2968C96A8842C6D30127C4E7C6
:1037A000002F01D0012068620098401E009091D146
:1037B0002862686A002803D001200190FFF776FD97
:1037C000FFF722FD019803B0F0BDA86162E7A86190
:1037D000D8E7000048000020AC0B0020F80A0020C9
:1037E0005838000801200008030000000000000015
:1037F0004000000000000000000000004C380008FD
:103800003D1F000802000000000000004000000012
:10381000000000000000000068380008491F000890
:10382000FDFF00000000000040000000000000005C
:10383000000000000000000000000000010203047E
:103840000607080900000000010203046D795461B5
:10385000736B43414E0000006D795461736B537973
:10386000735469636B0000006D795461736B436F2F
:103870006E74726F6C000000983800080000002021
:10388000A0000000AC21000838390008A00000208A
:10389000481B0000BC2100080000000000000000E0
:1038A0000000000000000000000000000000000018
:1038B0000000000000000000000000000000000008
:1038C00000000000000000000000000000000000F8
:1038D00001000000040000000000000000127A0057
:1038E00000000000000000000000000000000000D8
:1038F00000000000000000000000000000000000C8
:1039000000000000000000000000000000000000B7
:1039100000000000000000000000000000000000A7
:103920000000000000000000000000000000000097
:0839300000000000AAAAAAAAE7
:04000005080000C12E
:00000001FF
