:020000040800F2
:10000000581C00204D0100087D27000831240008FD
:1000100000000000000000000000000000000000E0
:100020000000000000000000000000007F27000822
:1000300000000000000000000B010008412A000839
:100040005F0100085F0100085F0100085F01000810
:100050005F0100085F0100085F0100085F01000800
:100060005F010008E10800085F0100085F01000867
:100070005F0100085F0100085F010008C12A000855
:100080005F0100085F0100085F0100085F010008D0
:100090005F0100085F0100085F0100085F010008C0
:1000A0005F0100085F0100085F0100085F010008B0
:1000B0005F0100085F010008A50800085F01000853
:1000C0000348854600F02CFB0048004751430008D8
:1000D000581C0020084B19680868203080F30988F4
:1000E000022080F31488BFF36F8F3FBCAE4608BC7C
:1000F00004BC62B61847000088000020EFF31080AF
:1001000072B6704780F310887047EFF309800E4B8A
:100110001A6820381060F0C044464D4656465F4687
:10012000F0C008B572B604F0F7FD62B60CBC1168F9
:1001300008681030F0C8A046A946B246BB4680F316
:1001400009882038F0C818478800002004488047F4
:1001500004480047FEE7FEE7FEE7FEE7FEE7FEE7AE
:10016000652A0008C100000830B50B460146002092
:100170002022012409E00D46D5409D4205D31D46AD
:100180009540491B2546954040191546521E002DA5
:10019000F1DC30BDF0B51FB40646002082B0054644
:1001A0004024019100901BE0019922460F46304601
:1001B00000F020F8049A059B801A994110D310464C
:1001C0001946224600F02AFA361A8F410197224634
:1001D00001200021009F00F021FA38184D410090C5
:1001E0002046641E0028DFDC019B00982946324629
:1001F00007B0F0BD10B5202A04DB0846203AD040F5
:10020000002110BD0B46D340D0402024A21A9140BB
:100210000843194610BD03460B439B0703D009E072
:1002200008C9121F08C0042AFAD203E00B78037031
:10023000401C491C521EF9D27047D2B201E0027034
:10024000401C491EFBD270470022F6E710B513464A
:100250000A4604461946FFF7F0FF204610BD30B5A8
:1002600004460020034600E05B1C934203D2E05C9E
:10027000CD5C401BF8D030BDF0B50746084658406D
:1002800087B0C00F049048000E4659004008490846
:10029000BC1A884105D2384631461E4617460B46E1
:1002A00002465800400810434CD0300D03904005E2
:1002B0005900400D490D0590401A0290402872DA0D
:1002C00018030121000B09050843019004980092CE
:1002D000002805D0019952420020884100920190E7
:1002E000029840210A1A0199009800F097F90546F2
:1002F0000C466B4607CB00F0A1F9C0197141039A77
:100300000E0D0023D71756401A467A40164344D0A4
:10031000049A002A2DD0029A012A039A15DC1205AC
:10032000C01A914101263605001C7141D20F059E6D
:10033000D2070093019202962A46234600F09EF9C6
:1003400007B0F0BD38463146FAE71605224A0F4697
:10035000B218C01AB74101210905001C4F4100180D
:100360007F41114618187941E20F10436D1964411D
:1003700013E0E2076D0815436408C2071443039AAB
:1003800001261205C01A91413605001C7141CE07A5
:10039000400830434908C01851412A46234600F01E
:1003A00060F9CDE7FFE7049801224000C117121A57
:1003B00000238B4104983146C417381AA141EEE757
:1003C00030B40124E407634030BC55E730B4012465
:1003D000E407614030BC4FE70000E0FFF0B51FB418
:1003E00088B00B990998002448400999C00F49002A
:1003F00049080991C0070B990090490049080B91E1
:1004000009990898A64608431CD00B990A980843F6
:1004100018D0099801244000420D4800410D099868
:1004200024050003000B204309900B980003000BE8
:1004300020430B9050181C4940180022019014468C
:10044000104605E0002001460DB0F0BD032801DA9A
:10045000034600E003239C46C11A0AAE0AE05F008F
:1004600008ADED5B4F00F75B7D430027AA187C4188
:10047000491C5B1E6145F2DD410004AB5A52210468
:10048000120C0A43240C401C0828DFDB0198029060
:100490000099704601910090059B049A079906986F
:1004A00000F0ECF8D0E700000DFCFFFFF0B50C46C3
:1004B0005C4085B0E40FE40703944C000026640818
:1004C00059009446490802460296224321D06246CA
:1004D0000A431ED06200570D4A000E032303550D38
:1004E000012402462C492405781B1B0B360B4018AF
:1004F00023432643614600901C46501AB44103D35F
:100500000098401C009002E0921800985B4100287F
:1005100003DA0020014605B0F0BD002001210905E5
:100520000746864611E064461D46141BB54106D3B6
:100530006546521BB341744607430C43A646CD079C
:1005400040084908284392185B4105460D43EAD10B
:100550001046184313D06046194650407140084376
:1005600006D06046101AB34106D20122002306E0ED
:1005700000220123DB0702E00122D243531000983E
:1005800074460105381C6141029C039D00196941B4
:1005900000F067F8BFE70000FD0300000EB5C217CA
:1005A000C10F5040CA0740180021054B0293019229
:1005B00000910A460B4600F061F803B000BD000050
:1005C000330400000EB505490291002100910A464E
:1005D0000B46019100F052F803B000BD3304000057
:1005E0004A0009030123090B1B051943094B10B5E8
:1005F000520D9A4201DA002010BD064B34339A4264
:1006000003DC9A1AFFF7F6FD10BD03495118884024
:1006100010BD0000FF030000CDFBFFFF10B5202A36
:1006200004DB0146203A9140002010BD9140202378
:100630009C1A0346E3401943904010BD10B5202A90
:1006400006DBCB170846203A1041C1170B4306E0E2
:100650000B461341D0402024A21A9140084319466A
:1006600010BD10B5002B08DA0024401C614192181F
:100670005B411A4301D14008400010BDF0B51FB4E2
:1006800082B005460C0003D0084602F06DFA02E085
:1006900002F06AFA20300246009021462846FFF711
:1006A000BDFF049B059A04460F46184311430843B7
:1006B00014D0184610431BD0009840210A1A18463F
:1006C0000599FFF797FD05460E46009A059904988F
:1006D000FFF7A4FF084305D0012004E02046394677
:1006E00007B0F0BD0020C11705430E432C4337432C
:1006F00000990E986305401A7905E40A00220C431C
:10070000FD0A0A3002D500200146E9E7010510196B
:1007100069410C9C0D9D00196941FFF7A2FFDFE7BD
:10072000064C0125064E05E0E36807CC2B430C3C44
:1007300098471034B442F7D3FFF7C6FC685200085C
:100740008852000810B50146406A826B50231A4255
:100750000AD1816B01225202114381630168CA6888
:100760001205920F05D020E0006B026B08469047FF
:1007700010BD827E002A18D10A68120715D58A6832
:1007800053070122002B09DB4B680C24A3434B6069
:10079000816B130299431143816306E0816B20232F
:1007A00019438163C16B1143C16300F099F910BD16
:1007B00010B5406A816B402211438163C16B0422F2
:1007C0001143C16300F095F910BD10B5406A00F007
:1007D0008FF910BDF0B5044683B00020009020686A
:1007E00081688907890F012905D10168C90748D1A6
:1007F000C168090445D48168264A102611400125A4
:1008000000292ED18168294381602448224900684B
:10081000FFF7AAFC00900190002815D020498842DB
:1008200032D8002826DD284002D00099491E0091C8
:100830000199401C491C884206DA009A801C521E0D
:10084000521E00928842F8DB00F0C0FF0746206885
:100850000068C043C00714D000F0B8FFC01B0228D6
:100860000AD9A06B3043A063E06B2843E06301200A
:1008700003B0F0BD0020DBE720680068C043C0077C
:10088000EAD1002003B0F0BD0098401E0090FCD1DA
:10089000DAE700001700008040420F00000000204F
:1008A000FFFFFF7F10B50B4C20684069800704D51F
:1008B00000220949204603F041FF20684069C00733
:1008C00003D00649034803F0F5FF024800F0F4FAAC
:1008D00010BD0000B80200202B0400206F0700208C
:1008E00010B5024800F0F4FC10BD000074020020B6
:1008F000FEE7000070B5044600F068FF1A4D06469A
:10090000E868C0070DD0601C08D0002C04D000F0AF
:100910005DFF801BA04201D9032070BDE868C007BD
:10092000F1D1E868800601D52020E860E868C006BB
:1009300002D4E868400715D5E9680020CA060B49CB
:1009400004D5C86902221043C8611020EA68520722
:1009500005D5CA6901231A43CA6104210843E86026
:10096000012070BD002070BD0020024070030020F7
:10097000F0B583B00025044620340095227D012A7D
:100980003BD00123237502689668760770D44F4FD9
:100990004E68BE426ED0966A0F78BB401E43966288
:1009A0000123C26A1B079A421FD0012A1DD0022AC6
:1009B0001BD0032A19D0042A17D0052A15D0062ADD
:1009C00013D0072A11D002688B6856697607760F14
:1009D000B3420AD05369DB08DB0053610068426907
:1009E0000B7A5B075B0F1A4342610868102807D037
:1009F000112805D0122803D05EE0022003B0F0BD1C
:100A0000334A9368102809D011280AD00120000623
:100A1000034393600868102806D04DE00120C0050C
:100A2000F6E701208005F3E72B482A490068FFF725
:100A30009BFB0A214843009001903DD02749884202
:100A40003FD8002812DDC007C00F02D00099491E10
:100A500000910199401C491C88422DDA009A801CA3
:100A6000521E521E00928842F8DB25E00020F0E77B
:100A70001DE0FFE7906A0E78B340984390620868E3
:100A8000102803D0112801D0122815D110498A68E6
:100A9000102806D0112807D00120000682438A6062
:100AA0000AE00120C005F9E701208005F6E7816B27
:100AB000202211438163012500202075284603B0C0
:100AC000F0BD0098401E0090FCD1F5E70110000039
:100AD0000027014040420F0000000020FFFFFF7F81
:100AE00010B5024803F0FAFA10BD0000E803002038
:100AF00070477047F8B500260446002805D0A06B63
:100B000025462035002802D007E00120F8BD00204E
:100B1000E0632875204600F0A9F8A06B1022C006FB
:100B2000002870DB2068816849076CD4A16B130131
:100B3000994302231943A16381688907890F012919
:100B400005D10168C9070FD1C16809040CD4C16877
:100B500018239943A3681943C16020680169636839
:100B600089008908194301612068C1683D4B19401B
:100B7000C160207E617E8003C9030843A17E4B03D0
:100B80001843A36A012B02D001231B0300E00023BA
:100B90001843E36818432369022B09D00023184344
:100BA0002B79E57E5B0018430123012D02D00AE07A
:100BB0000423F4E7002927D0A16B20252943A16352
:100BC000E16B1943E163E1690D46FF3DC23D02D08F
:100BD000256A294308432168CD680543CD60012576
:100BE000E16A2D07A94213D0012911D002290FD0A3
:100BF00003290DD004290BD0052909D0062907D0D7
:100C0000072905D010E028E0012109040843DAE7AC
:100C100021684D69ED08ED004D6121684D69A78D92
:100C20007F077F0F3D434D612168C9680E4D294004
:100C3000814207D10020E063A06B80088000401C47
:100C4000A06308E0A06B022188431043A063E06B1F
:100C50001843E06301263046F8BDA06B1043A06343
:100C6000F8E700001902FEFFE7FF3F8370B586B08A
:100C700000260546009601960296039604960068A3
:100C80001A49884230D11A498A69401502438A615B
:100C90008A69024005924A69000202434A61496931
:100CA000014005910B200090032001900920694626
:100CB000C00600F0BDFC104C0E486660A6602060C7
:100CC0008020E06040002061800060612020A06101
:100CD00003200003E061204600F04CFB002801D017
:100CE000FFF706FE2C63656206B070BD002401406C
:100CF000001002400800024074020020F7B50446CC
:100D000000680025806840073ED426462036307DA6
:100D100001280AD001273775607E012808D02046B7
:100D2000FFF758FD050003D02FE0022003B0F0BD0F
:100D3000A06B17490840FF2101310843A063002040
:100D4000E0633075216B13488862216B1248C862DA
:100D5000216B1248086321681C20086020684168E4
:100D60001022114341602068C1683943C160216885
:100D7000206B4031029B019A00F030FB20688168B3
:100D800004221143816000E00225284603B0F0BD33
:100D9000FEF1FFFF45070008CB070008B107000878
:100DA0002022125C012A08D0022A06D0416A0122C0
:100DB00092041143416201207047006842690A436E
:100DC00042610020704730B42022125C0368012A7F
:100DD00009D0022A07D0416A0122920411434162DC
:100DE00030BC01207047DA1DFF32FA32146801204E
:100DF000044314600C7DE406E40EA040D4698443EF
:100E0000D461CC69002C1AD1D4688443D4608C8915
:100E10008D882404ADB22C434D69ED00ED18FF35EB
:100E2000FF3502352C640C890D882404ADB22C43A7
:100E30004D69ED00ED18FF35FF3502356C64CC6966
:100E4000012C1AD1D4680443D4600C888D88240402
:100E5000ADB22C434D69ED00ED18FF35FF3502357D
:100E60002C640C898D892404ADB22C434D69ED00AE
:100E7000EB18FF33FF3302335C648B69002B53683C
:100E80000BD0034353600B69002B536907D0034316
:100E90005361096A012904D006E08343F2E78343E2
:100EA000F6E7D1690143D161106840084000106045
:100EB00030BC002070477047F0B50546006885B02B
:100EC00046690024416801918768C16803910169FE
:100ED000029181690091F10749D0F90714D00121ED
:100EE0008160B80703D5284600F0ECF90CE07807DC
:100EF00002D50124E40207E0380702D501242403C7
:100F000002E0284600F0DDF9F80517D5FF20296832
:100F100001308860B80503D5284600F0D5F90DE00A
:100F2000780502D50120400303E0380503D50120F0
:100F30008003044302E0284600F0C5F9F80316D503
:100F40000120296800048860B90303D5284600F011
:100F5000BDF90CE0790303D50120C003044306E08A
:100F6000390301D5044302E0284600F0AEF930070A
:100F70001027002806DA0398C00603D57801044339
:100F80002868C760700708D50398000705D5296849
:100F90000820C860284600F05FF9B00706D5286829
:100FA000C068800702D0284600F057F9700607D5C0
:100FB0000298C00604D50120800204432868076116
:100FC000B00608D50298000705D5296808200861F1
:100FD000284600F043F9F00606D528680069800726
:100FE00002D0284600F03BF9B00307D50198C006AF
:100FF00004D528684760284600F032F9F00308D588
:101000000198000705D5296808204860284600F0A7
:101010005EF9300442D501984107042000293BDAEB
:10102000F10504D50099C90701D001210C43B10590
:1010300004D50099890701D502210C43710503D518
:101040000099490700D50443310525D50099490683
:10105000490F21D0009A70210A40402A13D006DCA3
:10106000102A09D0202A09D0302A11D108E0502AAC
:1010700008D0602A0CD108E0082204E03C4307E0D5
:10108000202200E08022144302E0FF2201321443B8
:101090002A6893698B43936129684860002C05D0C6
:1010A000686A204368622846FFF705FF05B0F0BD77
:1010B000002801D101207047F8B5054604462035C7
:1010C0002878002802D1204600F082F820680168C4
:1010D00002229143016000F079FB064620684068D7
:1010E0003A4F800708D500F071FB801B0A2814D8FE
:1010F000206840688007F6D4206801680122114307
:10110000016000F063FB064620684068C0070FD10D
:1011100000F05CFB801B0A2806D9606A38436062D5
:10112000052028700120F8BD20684068C007EFD076
:10113000217E8020012921680A683BD082430A6011
:10114000607E402101282068026835D08A43026011
:10115000A17E2020012921680A682FD082430A60DD
:10116000E17E1020012921680A6829D002430A6023
:10117000207F082101282068026823D08A4302606A
:10118000617F0420012921680A681DD082430A601A
:10119000E168A068626908432169114308436168F6
:1011A000491E08432168C861002060620120287040
:1011B0000020F8BD0243C2E70A43C8E70243CEE776
:1011C0008243D4E70A43DAE70243E0E70000020083
:1011D000F0B587B000240094019402940394049421
:1011E00000681B49884231D11A48C2690121490669
:1011F0000A43C261C2690A400592426909120A4360
:101200004261406902250840059088110090012044
:101210000290032604270920019569460497039646
:10122000C00600F005FAE80200900920694604971C
:10123000039601950294C00600F0FAF900220321FA
:101240001E2000F041FB1E2000F032FB07B0F0BD75
:1012500000640040001002407047704770477047BC
:10126000704770B50546044620352878012805D01A
:10127000606A0121C9040843606219E002202870F5
:101280002068016849084900016000F09FFA06469D
:1012900020684068C00711D000F098FA801B0A2827
:1012A00008D9606A0121490408436062052028705A
:1012B000012070BD20684068C007EDD10020606249
:1012C00070BD7047704770477047704770477047F0
:1012D000F0B4C16B0D6801680C680422066C1346FB
:1012E000B3402B4210D063070ED50B689B0602D487
:1012F0000B6893430B60016C8A40C16B4A60C16A02
:10130000002935D1F0BC70470227B74002462F4074
:1013100001232032002F15D0A70713D50C68A4068F
:1013200004D40C680A25AC430C605370036C022192
:101330009940C36B596000211170816A002917D14F
:10134000F0BC70470827B7402F42F9D02407F7D5E3
:101350000C680E25AC430C60046C1946A140C46BAC
:1013600061608363537000211170016B0029E7D025
:10137000F0BC0847002801D10120704770B5044631
:101380000221203005464170226811681048A36888
:101390000140606826691843E36833431843636972
:1013A0001843A3691843E3691843084310600949C7
:1013B000206840181421FEF7D7FE80002064002129
:1013C0000548A163E063012068702970084670BD7C
:1013D0000FC0FFFFF8FFFDBF00000240F0B404465D
:1013E0009446203422780026012A0AD0012525704F
:1013F00062780027012A07D0277002263046F0BC09
:101400007047F0BC02207047022262708763026856
:101410001468640864001460046C2F46A740C46B11
:1014200062466760046863604368102B03680AD0F3
:1014300099600168CA60C16A002901680A6806D01B
:101440000E231A430AE09A600268D160F3E70A2388
:101450001A430A6001680A6804239A430A60006814
:10146000016829430160C9E770B5044600F0AEF990
:101470000546601C02D004480078241800F0A6F944
:10148000401BA042FAD370BD14000020F3B50646FD
:1014900081B0012000902E48017E01290CD001214D
:1014A000017630682B4D2C4C012808D02846FFF7D8
:1014B00021FA00281AD045E0022003B0F0BD2846EA
:1014C000FFF718FA00283DD12149C8612069042698
:1014D0003043206120694021084320612846FFF7FE
:1014E00009FA00902069B04320612BE000210298A6
:1014F000C9430160B0687568C0024019A84221D98B
:10150000022713490020C8612069384320616561C2
:1015100020694021084320610E48FFF7EBF9009055
:101520002069B84320610098002802D00298056025
:1015300008E00120C0022D18B068C10270680818C8
:10154000A842DED8024900200876009803B0F0BD1A
:101550007003002050C300000020024003480169CE
:1015600080221143016100207047000000200240EA
:10157000F0B51FB4054621480024017E82B016460E
:10158000012907D0012707761D48FFF7B3F9002886
:1015900003D02DE0022007B0F0BD012D1ED0022D9A
:1015A0001ED004200090174D039861000F182201EF
:1015B00030460599FEF71EFE104A0021D1612969C7
:1015C00001221143296138800D48FFF793F92969F9
:1015D00049084900296100280AD104E0012000E0FF
:1015E00002200090DFE7641C0099E4B28C42DBD358
:1015F000024A0021117607B0F0BD00007003002000
:1016000050C3000000200240064900200A6912066B
:1016100007D5054A4A60054A4A600969090600D5A6
:10162000012070470020024023016745AB89EFCDC0
:101630000B680022002B6FD0F0B582B00124254644
:101640000B6895402B4068D04E68012E05D0022EC5
:1016500003D0112E01D0122E16D186680327B4466E
:101660005600B646B7406646BE43B446CF68764697
:10167000B7406646374387604668AE430D79ED064E
:10168000ED0F954035434560C66857000325BD40C2
:10169000AC46AE438D68BD403543C5604D68022DF4
:1016A00001D0122D14D1D508AD002D1801952E6A48
:1016B0005507B646EE0E0F25B54000967646AE436A
:1016C000B6460D69009EB54076462E43019D2E62BA
:1016D00005686646B5430E79B607B60FBE402E4381
:1016E00006604D68ED004ED52B4EB5692543B561BA
:1016F000B4699508E407E40F0094284CAD002F1955
:10170000BC6895072E0F0F25B540AC430925ED06A3
:10171000A84203D1002516E03CE034E0204DA84269
:1017200001D101250FE01F4DA84201D102250AE099
:101730001D4DA84201D1032505E01C4DA84201D151
:10174000042500E00525B5402543BD60184C2568FB
:101750004E689D43F60300D51D43256065684E68BD
:101760009D43B60300D51D436560A5684E689D4343
:10177000F60200D51D43A560E5684E689D43B6029C
:1017800000D51D43E5600B68521CD34000D055E7DF
:1017900002B0F0BD704700000010024000000140A0
:1017A0000004004800080048000C004800100048F1
:1017B000000401400069084000D001207047002A61
:1017C00001D08161704781627047000001488068E4
:1017D00070470000140000200248816802788918D0
:1017E000816070471400002010B50648016810227F
:1017F00011430160002000F007F800F041F80020DC
:1018000010BD00000020024000B5014687B0002254
:101810000F2000F059F80F2000F04AF81448C16971
:1018200001221143C161C06904A9104005906846B6
:1018300000F002F900F01CF90E49FEF795FC0122B8
:101840000D4992070A600D4A401ECA604860002098
:1018500008618860084600F0E5FB002802D00120FE
:1018600007B000BD044800F03DFC07B000BD00001B
:101870000010024040420F0028030020E703000050
:1018800008B50A48816901221143816181691140CB
:101890000091C26901040A43C261C0690022084084
:1018A00003210090481F00F00FF808BD001002400F
:1018B000002805DBC106C90E0120884001490860E7
:1018C0007047000000E100E08207D30EFF229A403B
:1018D0008907090E9940002808DB830809489B0006
:1018E0001818036893430B43036070470007000F09
:1018F0000838830804489B001B18D86990430843A4
:10190000D861704700E400E000ED00E0002801D15C
:1019100001207047F8B5054642480E460068C007EA
:10192000C00FB0420AD23F49086840084000304327
:1019300008600868C007C00FB04257D128683A4C09
:1019400081070CD5400704D56068072109020843C8
:1019500060606068F0218843A96808436060287867
:10196000C00733D0686801281DD002281FD0032883
:1019700021D02168890739D5616889088900014328
:101980006160FFF723FF616807466A680C20014029
:10199000920091421AD0FFF719FFC11B23488142E0
:1019A0000DD90320F8BD216889031FD5E4E721681C
:1019B00089011BD5E0E7616BC90317D5DCE76068D7
:1019C0000C210840696889008842E4D11548016803
:1019D000C907C90FB1420BD9016849084900314311
:1019E00001600068C007C00FB04201D00120F8BDFF
:1019F0002878400706D56168072000028143E8681F
:101A00000143616000F044F86168094A0906090F62
:101A1000515CC840074908600020FFF7F5FE002030
:101A2000F8BD0000002002400010024088130000B2
:101A30009C5100080000002010B4072202600A4AEE
:101A400053689B079B0F43605368F02423408360D7
:101A5000526807231B021A40C26004480068C0078E
:101A6000C00F086010BC7047001002400020024008
:101A70000448054900684968044A4905490F515C12
:101A8000C84070470000002000100240AC51000820
:101A900030B51DA30FCB89B06C460FC41EA30FCB6E
:101AA0000FC4214A51680C200B4603401F48042BE9
:101AB00005D01F4D082B04D00C2B00D1284609B0AF
:101AC00030BD8B021B0F6C46E45CD26A04AB12077C
:101AD000120FC9039A5C890F022901D0032908D08B
:101AE00000231946FEF756FB214601F054F809B0D1
:101AF00030BD002328461946FEF74CFB214601F075
:101B00004AF809B030BD00000203040506070809C1
:101B10000A0B0C0D0E0F1010010203040506070836
:101B2000090A0B0C0D0E0F100010024000127A0073
:101B3000006CDC02002801D101207047F8B5044692
:101B40000078FF4DC00757D068680007800F012854
:101B50002BD068680007800F022804D16868C00392
:101B6000800F022821D06168012925D0012080043E
:101B7000002927D0052929682DD08210914329609A
:101B80002968814329606068002827D0FFF71EFE7E
:101B90000646286880032FD4FFF718FE801B6428B0
:101BA0007ED828688003F7D526E02868800323D5EF
:101BB0006068002875D01FE02868012109040843E7
:101BC0002860E0E72A68012109048A432A6029681D
:101BD00081432960D7E701432960EDE7FFF7F6FD70
:101BE00006462868800307D5FFF7F0FD801B6428B0
:101BF00056D828688003F7D42078800742D56868D3
:101C00000007800F26D068680007800F022804D1E3
:101C10006868C003800F01281CD0E068002828688D
:101C20001FD0012108432860FFF7D0FD0646286831
:101C3000800707D4FFF7CAFD801B022830D8286828
:101C40008007F7D52868F82188432169C90008432F
:101C5000286017E028688007F4D5E068012820D1C3
:101C6000F0E7400840002860FFF7B0FD064628680E
:101C7000800707D5FFF7AAFD801B022810D8286827
:101C80008007F7D4207800072AD5E069002815D00E
:101C9000696A012001436962FFF798FD064601E089
:101CA0007CE083E1686A80071AD4FFF78FFD801B10
:101CB000022873D8686A8007F7D511E0686A40087F
:101CC00040006862FFF782FD0646686A800707D514
:101CD000FFF77CFD801B022860D8686A8007F7D474
:101CE0002078400771D500200090E869C00008D432
:101CF000E969012000070143E961E9690140012028
:101D00000090904F3868C00511D43868B915084361
:101D10003860FFF75BFD06463868C00507D4FFF75B
:101D200055FD801B642839D83868C005F7D5A068F0
:101D300001281ED0002820D0052827D0286A400876
:101D400040002862286A042188432862A0687E4EE9
:101D5000002824D0FFF73AFD0746286A80072CD4D4
:101D6000FFF734FDC01BB04218D8286A8007F7D5AA
:101D700023E0296A0120014306E0286A4008400068
:101D80002862296A042081432962DFE7296A042046
:101D900001432962286A01210843D6E780E0FFF762
:101DA00015FD0746286A800707D5FFF70FFDC01B02
:101DB000B04275D8286A8007F7D40098002804D06C
:101DC000E869012109078843E8612078C0061AD52F
:101DD0006069012825D0401D41D0686B042108436B
:101DE0006863686B400840006863FFF7EFFC0646D5
:101DF000686B800707D5FFF7E9FC801B02284FD8E6
:101E0000686B8007F7D42078800664D5686800077F
:101E1000800F032845D068680007800F022823D070
:101E200027E0686B042108436863686B012108435D
:101E30006863FFF7CBFC0646686B800707D4FFF7A3
:101E4000C5FC801B022860D8686B8007F7D5686BDB
:101E5000F8218843A169C90008436863D3E7696B27
:101E6000042081436963F2E76868C003800F032898
:101E700017D0206A00281BD0686B01210904084391
:101E80006863FFF7A3FC0646686BC00323D4FFF723
:101E90009DFC801B022838D8686BC003F7D51AE078
:101EA00033E0686BC00316D5206A01287ED112E0AA
:101EB000696B0120000481436963FFF787FC0646D4
:101EC000686BC00307D5FFF781FC801B02281CD874
:101ED000686BC003F7D4606A00286DD06968090791
:101EE000890F02294FD001273F06022828680ED00B
:101EF000B8432860FFF76AFC0446286880015BD578
:101F0000FFF764FC001B022839D90320F8BDB84351
:101F10002860FFF75BFC06462868800107D5FFF7BD
:101F200055FC801B0228F0D828688001F7D4E86AA5
:101F3000216B000900010843E862E16AA06A05E03C
:101F400000100240007000408813000001436868E0
:101F50007B22D2039043014369602868384328609C
:101F6000FFF734FC04462868800125D4FFF72EFCD7
:101F7000001B0228C9D828688001F7D51CE0286812
:101F80008001BDD418E00128C0D06868EA6A032146
:101F9000C903A36A014099420CD11107226B090FB2
:101FA000914207D10F218904084000E002E0E16A74
:101FB000884201D00120F8BD0020F8BD704770476D
:101FC00002462032137F012B01D102207047F0B46A
:101FD000012515770223537706687468B368702764
:101FE000BC430F682743776000680B4CA04208D0C1
:101FF000AC07A04205D0094CA04202D0084CA04238
:1020000004D180244968A343194381605577002097
:102010001077F0BC70470000002C01400004004025
:1020200000400140002801D10120704770B50546ED
:1020300004462035687F002803D12877204600F029
:1020400015F802206877211D206800F041FD01206D
:102050004034A071A877E87720706070A070E070BD
:10206000207160716877002070BD0000006807492A
:1020700081B0884207D10648C26902210A43C26181
:10208000C0690840009001B07047000000040040A3
:1020900000100240014620314A7F012A01D0012070
:1020A000704702224A7700680B4A0121904208D00B
:1020B0008A07904205D0094A904202D0084A9042CD
:1020C00004D182685207520F062A02D002680A43DE
:1020D0000260002070470000002C01400004004016
:1020E00000400140014620314A7F012A01D00120F1
:1020F000704702224A770268D36801210B43D360FC
:1021000000680B4A904208D08A07904205D0094ADD
:10211000904202D0084A904204D182685207520F7E
:10212000062A02D002680A430260002070470000BD
:10213000002C0140000400400040014003462033D1
:102140001A7F012A02D001221A7701E0022070478B
:10215000F0B502225A770568AC6877229443FF22D3
:1021600012029443AC600E6870240725502E39D0BB
:102170000CDC202E74D004DC002E71D0102E4ED139
:102180008DE0302E6CD0402E49D16AE0602E47D0D1
:10219000702E17D001242403351B40D0A5423ED118
:1021A0000468CF688E684D68A16891433A022A435B
:1021B00032430A43A26000688168012292031143FE
:1021C000816072E00468CF688E684D68A1689143B1
:1021D0003A022A4332430A43A260016888687722A0
:1021E00010431BE002684F68CE68116ABE468C46F9
:1021F000116A4908490011629169F027B943360113
:102200000E4361460A27B943774639439661116206
:10221000016850228868A04310432843886044E046
:102220004E680268B646CE68116A1027B94311623B
:102230009169176A3603BC460F273F03B9430E4323
:102240006746A0218F4371460901394396611162A7
:10225000016860228868A04310432843886024E016
:102260001DE002684F68CE68116ABE468C46116A4E
:102270004908490011629169F027B94336010E43BC
:1022800061460A27B943774639439661116201686E
:1022900040228868A04310432843886005E0016815
:1022A0008868A04330432843886001205877002085
:1022B0001877F0BD704770B50446006801690025C5
:1022C000C9438907002915DBC168C943890711D4AF
:1022D000E91E01610120207720688069800720467F
:1022E00002D0FFF7E7FF04E000F096F8204600F088
:1022F00094F8257720680169C943490717D4C16854
:10230000C943490713D40421C9430161022020773E
:10231000206880698005800F204602D0FFF7CAFF41
:1023200004E000F079F8204600F077F8257720687F
:102330000169C943090716D4C168C943090712D402
:102340000821C9430161042020772068C069800703
:10235000204602D0FFF7AEFF04E000F05DF8204613
:1023600000F05BF8257720680169C943C90617D4D6
:10237000C168C943C90613D41021C94301610820AB
:1023800020772068C0698005800F204602D0FFF7C3
:1023900091FF04E000F040F8204600F03EF8257779
:1023A00020680169C943C90708D1C168C943C90781
:1023B00004D1891E0161204600F030F820680169CF
:1023C000C943090609D4C168C943090605D4802157
:1023D000C94301612046FFF7F1FD20680169C94347
:1023E000490609D4C168C943490605D44021C943F7
:1023F0000161204600F01BF820680169C943890685
:1024000009D4C168C943890605D42021C9430161A3
:102410002046FFF7D4FD70BD7047704710B50068C7
:1024200001218907884201D1FFF7D6F910BD704715
:10243000054C002210212046FFF7C1F90122082196
:102440002046FFF7BCF9F4E70004004830B583B03C
:10245000002426480094019402944460846001257D
:1024600005612149C4600160082141610476447618
:102470008476C476C021C161A90201621C490D7134
:102480008562FEF737FB002801D0FEF731FA012004
:102490000003019005200290009469461348FEF75E
:1024A00067FA002801D0FEF723FA69460F48009525
:1024B000FEF75EFA002801D0FEF71AFA032000901A
:1024C00069460A48FEF754FA002801D0FEF710FAD0
:1024D0001020009069460548FEF74AFA002801D00E
:1024E000FEF706FA03B030BD00240140340200209C
:1024F0005402002010B50F480D49016008214160C9
:10250000002107228160120402610122C16052058C
:1025100042610176012242768276C2760177417766
:10252000FEF7C6FD002801D0FEF7E2F910BD00005D
:1025300000640040B802002008B508484169012243
:10254000114341614069032110400090002209209D
:10255000FFF7BAF90920FFF7ABF908BD00100240F8
:1025600030B5254C9DB00FCC6D460FC5A268616893
:10257000206805910490069200216846103C01F005
:102580002CFF1E4D286020461C300FC80A9309926C
:1025900008910790626B216BE06A0C910B900D9291
:1025A000002107A801F019FF6860204638300FC8E5
:1025B000119310920F910E90226DE16CA06C13910B
:1025C0001290149200210EA801F007FFA860204687
:1025D00054300FC81893179216911590E26EA16EA1
:1025E000606E1A9119901B92002115A801F0F5FE5A
:1025F000E8601DB030BD0000B451000804000020A8
:10260000F0B587B000243C480094019402940394F0
:10261000049442690121C9040A43426142690A40A3
:1026200005924269C9000A43426142690A40059223
:10263000426949110A43426142690A40059242696E
:1026400049000A434261406909270840FF06059096
:10265000012204213846FFF7B2F80022382127482A
:10266000FFF7ADF807204003032500906946019568
:1026700002942348FEF7DCFF009569462148019546
:102680000294FEF7D5FF04200126009001966946CA
:10269000029603943846FEF7CBFF1B48009069462C
:1026A000019502943846FEF7C3FF1848009069462A
:1026B000019502941148FEF7BBFF1120C002009063
:1026C0006946029601940D48FEF7B2FF182000906B
:1026D000022002900196694603940848FEF7A8FF7D
:1026E0002020009002946946019603940348FEF767
:1026F0009FFF07B0F0BD000000100240000400483A
:102700000008004800140048F0870000C777000068
:1027100010B586B0002400941748019402940394E5
:102720000494144905940160FF21846041600461B0
:102730001F218461C160FFF775FC002801D0FEF7FE
:10274000D7F801200003009069460B48FFF7F6FC1C
:10275000002801D0FEF7CCF82020049004A90594AD
:102760000548FFF72DFC002801D0FEF7C1F806B0A0
:1027700010BD000000040040E002002070477047D8
:1027800000F0E6FD642001F01BFEF9E782B0674827
:10279000FB26674D674C10270090A07DC10674D4BE
:1027A000C10743D081071AD541068007C00F490EE3
:1027B000C00101433140A175009801F0C9FB002818
:1027C00068D0E17D02200143E17501F071FC2076C3
:1027D000010A6176010CA176000EE0765AE040070E
:1027E00000980ED501F0BEFB002804D0A07D400665
:1027F000400E3040A075009801F0AAFB002828D1B7
:1028000048E001F0A5FB00280BD0A27D80201146F6
:102810000143D00901221043800031400143A175DA
:1028200038E0A07D4006400EA07533E0810731D42A
:10283000400700981BD501F095FB002804D0A07D2F
:102840004006400E3040A075009801F081FB002842
:1028500020D0E07D02210843E07501F029FC2076BC
:10286000010A6176010CA176000EE07612E001F01B
:102870006FFB00280AD0A17D80200843C9090122EE
:10288000114389003040084303E032E0A07D400658
:10289000400EA075A07DC00914D001F0FBFF207F81
:1028A000000704D128784007400F3040287028786E
:1028B00081088900400701D5012000E00220014382
:1028C00029700EE001F0EEFFA07DC10703D00007E4
:1028D00001D5032000E000202978890889000843F9
:1028E0002870154801F03EFB00280DD0A07D38432C
:1028F00009E000F01DFB104801F034FB002803D074
:10290000A07D40210843A075A07DC00602D4E07DD3
:10291000C00708D0002001F0FFF801F0CFFB19201C
:1029200001F04EFD39E70120F5E700009D0300208E
:102930002A000020EA03002090030020084CFF2614
:1029400025463E352D362034E07DA37D8006C20E1F
:102950000449284601F06AF9304601F031FDF3E7F9
:10296000AA030020D40A0020334F344E3C464034A2
:10297000A51C78793979000208430105687B2A7B18
:102980000002090D104381420AD3A07DC10903D181
:10299000C10601D4012100E00021C00902F056F86F
:1029A00000F02EF901F018FA207F000702D1A07D77
:1029B000C00615D531784807C908491CC906400F1B
:1029C000090E08433070C1080ED14107C9178900AC
:1029D000091D4907FB22490F10400143317003E0F4
:1029E0003078FB2108403070A17DC8071FD010202F
:1029F0002A181378184653781B0218439378D27814
:102A00001B0418431206104308D0401E2874010A04
:102A10006974010CA974000EE87408E048084000CD
:102A2000F72101408007C00FC0000143A1750A20B3
:102A300001F0C6FC9DE70000AA0300202A00002048
:102A400010B5FDF75BFB044602F070FA002803D0D6
:102A500001200349000748602046FDF753FB10BDE5
:102A600000ED00E012480168012211430160416855
:102A7000104A1140416001680F4A1140016001682D
:102A8000012292049143016041683F221204914364
:102A90004160C16A09090901C162016B074A11401D
:102AA0000163416B4908490041630021816070471F
:102AB000001002400CB8FF08FFFFF6FE2CFEFCFFE2
:102AC00010B50248FFF7F7FB10BD000028030020F7
:102AD000F0B402681E4B0124A4071E4D984203D097
:102AE000A04201D0A84203D17026B2434E683243BF
:102AF000194E1A4F98420DD0A0420BD0A84209D0CF
:102B0000174CA04206D0B04204D0B84202D0154CB7
:102B1000A04204D103242402A243CC68224380248F
:102B2000A2434C69224302608A68C2620A688262D8
:102B3000984206D0B04204D0B84202D0094A90422E
:102B400001D10969016301214161F0BC70470000B6
:102B5000002C0140000400400040014000440140BE
:102B600000200040004801402021020C01D010212B
:102B70001046020A01D010460839020901D0104659
:102B8000091F820801D01046891E420801D0881E04
:102B90007047081A7047F0B4040C8BB2264682B214
:102BA0005E430D0C1046370C584336048019002143
:102BB000794116466E43370C360480197941264612
:102BC0006E438919F0BC70470A7802704B784370E5
:102BD0008A788270CA78C2700B7903714A7942711F
:102BE000704702E008C8121F08C1002AFAD17047D6
:102BF0007047002001E001C1121F002AFBD170477D
:102C0000F8B50024FD250620214641436B480818ED
:102C1000417902790902114303461A7810465A781D
:102C2000120210439A7812041043DA781206104305
:102C3000FEF7C0FD002811D020460D214843604911
:102C40000A5C930769D501231A430A540A224318E0
:102C50005A7100269E71DE711E7260E022460D20C0
:102C6000574B4243D118491C0F78CE7838464F78DD
:102C700036063F0238438F783F0438433043642898
:102C800023D90020087048708870C870985C0826A6
:102C90002840304398548E1937783B4677783F0266
:102CA0003B43B778F6783F043B43360633437ED147
:102CB000434E43077BD404231843B0540A200872C0
:102CC00000224A728A72CA7271E0052811D908205E
:102CD0000E183778384677783F023843B778F67859
:102CE0003F0438433606304303D1985C0226304314
:102CF00098540A7810464A78120210438A781204CF
:102D00001043CA7812061043401C0870020A4A7029
:102D1000020C8A70000EC87049E02A400A540A5C0E
:102D2000F7231A401307DB0F5B002A401A430A54AB
:102D30009207D30F421853701E0A96701E0CD6705D
:102D40001B0E13710823521CD61837783B46777830
:102D50003F023B43B778F6783F043B4336063343A4
:102D600008D05B1E13721E0A56721E0C96721B0E42
:102D7000D37203E00B5CFB2633400B5416793346C9
:102D8000567936023343967936043343D67936067C
:102D9000334308D05B1E1371180A5071180C9071E0
:102DA000180ED07103E00A5C520852000A54641CE9
:102DB000E4B2022C00D226E7F8BD0000245200083D
:102DC0009003002070B4C278837812021A439204F0
:102DD000130D427804781202224384780679240481
:102DE000224344799203150D24025A19344353089F
:102DF000A4051A0AA40E624300D101220C68240B18
:102E00002403954205D9AA1A1205120D14430C6029
:102E100000E00C60C2788478100220438004040D26
:102E20000E480F4A001B9842086806D9E318D5439C
:102E30001B0528401B0A184300E010430405030249
:102E4000240D1D0D0860AC4201D81B0D03D1000BF1
:102E500000031043086070BC70470000FF0F0000C3
:102E600000F0FF00F7B5864600239446100057D0C7
:102E7000D800C11A70460E18019899000918F07808
:102E8000B278000210438004020D74783578B0786F
:102E900024022C4300040443A003070DD019450865
:102EA000707932790002024392052C0A920E544343
:102EB00000D10124A74208D90A68381B120B12035B
:102EC0000005000D02430A6003E00868000B0003E0
:102ED0000860F078B278000210438004020D1148B7
:102EE000801AA842086807D90F4C521912052040D1
:102EF000120A1043086002E00C4A10430860020501
:102F00000402120D250DAA4201D8220D04D1000B96
:102F1000064A0003104308605B1CDBB26345A7D37D
:102F200003B0F0BDFF0F0000FF0F00FF00F0FF0037
:102F3000F8B5BF4BBF4CD87DA17D8006C50EBE48FD
:102F40004A06007837D5012841D9BF20014000202A
:102F5000A175002D2BD9B84949698C46C1000A1AC0
:102F6000624451781678090231439678B44F36049A
:102F70003143B24E31404600BF5B401C3F05BF0BA2
:102F8000394311700F0A5770090C9170D1789778F6
:102F900009023943AB4FC0B23940AB4FBE5B360577
:102FA000B60C31439170090AD170A842D6D3A24918
:102FB0000620087001E0012809D9A44A1078810888
:102FC0004007C0438900C00F4000014311709A4878
:102FD000DF2601789E4F9F48009007297ED2080087
:102FE000784400790018874403093D8696A0FD00C7
:102FF000A07DC0067ED502218F4802E1A07DC006DB
:1030000028D5D97D00208906C90E23D08B4EC1005A
:103010000A1A9149401C521814462234617F257FB8
:103020000902294340321578C0B22D0429433140AA
:1030300021770D0A6577090C11705178147809020F
:10304000214339431170090A5170D97D8906C90E8F
:103050008142DCD8009981480873000A4873062031
:10306000754946E001F016FC7D2173484902416034
:103070000020002D35D97049714B4C69C100091AE7
:1030800009194A780E78120232438E783604324398
:103090009203160D42009E52CE788F7836023E4340
:1030A000B604694F360DBE524A780E78120232438A
:1030B0008E78360432436A4E32430A70160A4E70D6
:1030C000120C8A70CA788E78120232435D4E3240FA
:1030D0008A70120A401CCA70C0B200E00AE0A8421E
:1030E000CCD300995D480873000A487352490878A8
:1030F000401C0870F8BD5049FF224868F5329042E4
:1031000002D9401E4860F8BDA07D20221043A07562
:1031100004200870F8BD48484168002902D0491EC3
:103120004160F8BD05210170F8BDA07D002230404E
:10313000A075002D58D940484469D000801A001964
:1031400041780378090219438378C67887781B048D
:10315000360219433E438B03B6041B0D370DBB42A9
:1031600001D8330D0FD1354B194001700B0A437054
:10317000090C8170C178837809021943344B1943D3
:103180008170090AC1704178037809021943837874
:1031900086781B0419438B031F0DC3781B0233432E
:1031A0009E04360DB74219D12E4FBE420AD20E21CF
:1031B000CB410121090559181223D9418170090A0F
:1031C000C1700BE01223D94101231B05C91A0E233C
:1031D000D94101700B0A4370090C8170521CD2B2A4
:1031E000AA4200E00FE0A8D30098417B027B0802CE
:1031F00010430099401F0873000A48730E48017875
:10320000491C0170F8BD01F04DFB0B49002008700E
:10321000A07DEF210840C106C90F49013040084395
:10322000A0752A4610491148FFF71CFEF8BD0000A2
:10323000CA030020EA030020480000203F00FCFFF2
:103240006800002003C0FFFF700000202A0000205B
:10325000FC3F0000EC030020AA030020FFFF000059
:10326000C0FF0300FF0F0000D40A0020E803002085
:1032700070B58AB0002400940194029403940494DD
:103280002E4D05940694079408942B4809942860C1
:1032900000F05CF801260320089606940494059437
:1032A0008003079609940194009403940290694660
:1032B0002868FDF788FD0596214E0121F0788907E1
:1032C00080078009401881B2000C0090C320019152
:1032D00000020394029069462868FDF774FD0220FD
:1032E0000590707831780002B278084311461204D4
:1032F00010434003800CC9084001C9040843012160
:10330000C907401881B2000C00900E48039001914B
:103310000D48029069462868FDF755FD022128688E
:10332000FDF73EFD01212868FDF73AFD2868FDF70D
:1033300098FF0AB070BD0000B80200202C000020E9
:10334000AA030020E0FF0000FFC00000704700005B
:10335000F0B58DB000200690079004900590019084
:103360000290FE4903900A7810434A7812021043F3
:103370008A78C9781204104309060843009004A80B
:1033800000F0FAFDF64E00287ED0F6480A90F64886
:103390000990F648F64C0890B37D01221343B375AB
:1033A000FF212D310A980D0A017445740D0C8574A6
:1033B000090EC1746846C07C8006000F06287DD2C5
:1033C00001007944097949188F4478A82B0230EA22
:1033D0006846007D002871D06846417DC80702D04C
:1033E00008200343B375B07D02070AD54A0703D509
:1033F00010221043B07504E00A0702D540221043A2
:10340000B07588075AD5F07D02210843F07500F0A9
:103410004FFE3076010A7176010CB176000EF0761F
:103420002FE118074AD5D34802702AE1D80675D48F
:103430006946C878C321084069461430C870087DC1
:1034400000283BD0487D810838D1694649798A07F0
:10345000920F69464A718107890F04D0012936D03D
:1034600002292BD15BE004206946087100204871D5
:103470006F460722B81D0999FCF7CDFE684601F09A
:10348000A9F90025E07D00E001E18006C00E15D01D
:103490000721684601714079072281088900684642
:1034A000491C4171E800411BAC480918B81D3E3168
:1034B000FCF7B1FE684601F08DF900E06FE0E07DB9
:1034C0006D1C8006EDB2C00EA842E1D8D9E0E07DC7
:1034D00000258006C00E62D06F4607216846017144
:1034E0004079072281086846407D89008007800F67
:1034F000014368464171E800411B98480918B81D0E
:103500003E31FCF788FE684601F064F9E07D6D1CF1
:103510008006EDB2C00EA842DFD8B2E0AFE0E17D98
:103520008A06D10E3BD06946897DCB0613D007228F
:103530006B4680071A71800F5871C806C00EC10013
:10354000091A86480918981D0B31FCF764FE684675
:1035500001F040F995E00025D00E20D06F460721FC
:10356000684601714079072281086846407D8900DC
:103570008007800F014368464171E800411B77488E
:103580000918B81D1231FCF746FE684601F022F911
:10359000E07D6D1C8006EDB2C00EA842DFD870E061
:1035A000D8066CD46846017D00296AD0407D820827
:1035B00067D1089A8308557D177D2A023A43120580
:1035C000920E93425DD88007800F02D0012858D117
:1035D0001DE06946887DA075E07DC97D4008C9076A
:1035E0004000C90F0843E075207ECF21084069469E
:1035F000097E8906890F090108432076574980060C
:10360000CA78800F920892000243CA7039E0684677
:10361000807DC206E07DD20E8006C00E82421ED89A
:103620006846408B8005800E322818D86846C38AC9
:10363000007E000403439803030D6846008B80045A
:10364000000D83420BD8072909D3D000811A4348C3
:103650000722081805A902313730FCF7DCFD68465F
:10366000807D4549C006C00E82005118C200121A62
:103670003A48091F10183730FFF7A4FB01E03D4816
:10368000427004A800F078FC002800D084E6B07DE9
:10369000010775D5C10673D46946097CC906890F2F
:1036A000022902D0012903D005E00221084301E0EC
:1036B000FD210840B075C0B2810742072D4C11436F
:1036C000E278C90F914204D1C206A378D20F9A4280
:1036D00003D0C006E170C00FA070204A0026907B86
:1036E000517B00020843D17B1546090408430103BE
:1036F000E879AA79000210432A7A090B12041043D0
:103700000003000B81421BD12946087CCA7B497CFF
:1037100000021043090408430002010B687A2A7A68
:1037200000021043AA7A120410430002000B8142E7
:1037300006D100F083FC2978C906890F884224D07D
:103740000722291D0D48FCF766FD00F077FC29785B
:103750008007E722C00E1140014312E0AA030020B7
:10376000EA030020EC030020E0030020CD0300204A
:10377000CA03002030000020D40A0020B503002036
:103780002DE029700120207002E02078002829D047
:103790006670267009960A960B962A78E978104684
:1037A0006A78090612021043AA78120410430843EB
:1037B000089008A8C178C320014008A80831C1704A
:1037C0000120014608A84171082101710722291D25
:1037D000801DFCF720FD08A800F0FCFF02E0124964
:1037E0000020087010484178002916D0002141704F
:1037F0006846C178C32001406846091DC170062192
:1038000001710A48044600F02DFC01A82146013050
:10381000FFF7DAF9684600F0DDFF06480449006862
:1038200001F048F80DB0F0BD30000020D8030020B2
:103830006F0700202C000020F8B56A4C6C4DA07B6F
:1038400040094001801CA0736748417B027B09024C
:103850001143FF22E132914340310173090A417360
:10386000624801782970417869708178A970C078C0
:103870006049E8708B7D4E7D9C46887D5E4A40079E
:10388000400D4300507B177B000238435B4F3840AC
:10389000184303054F7D5B0DDB19584F5B051B0D6E
:1038A0003840184363461B029B195B0538401B0DCB
:1038B00018431073030A5373097DE77DC906C123BA
:1038C000890E1F400F43E775AB78D9081E291BD915
:1038D00069782E78090231431B041943484B19407B
:1038E000A03129700B0A090C4907490F6B70783118
:1038F000A970E978C02389088900891C1943E970F7
:10390000C1210F403F1DE775F9B28B06DB0E022B7C
:1039100003D9C1231940091DE1750105394B490D32
:10392000994202D3384B994206D136218843374910
:1039300008431073000A50730A20FDF795FD01F04B
:1039400055F8334E304600F017F900283DD000F00E
:1039500071F8304900200870E07D2F498006C20EC2
:103960002E48FFF77FFAE17D00208906C90E10D0AE
:10397000C100091A49198A7C401C5209C306520128
:10398000DB0E1A438A74E17DC0B28906C90E8142FA
:10399000EED8E878217E800889068000890F0843E8
:1039A000E8700A20FDF760FD04221D491D48FDF75F
:1039B000A5F90A20FDF758FDFFF75AFC0A20FDF78C
:1039C00053FD1948FEF766FBF8BD184831461C2226
:1039D0000646FCF720FC1C2231461548FCF71BFC70
:1039E000B7E70000CA030020CC030020F0BF0008A6
:1039F000AA030020E0BF0008CD03002001F0FFFF74
:103A00001F00F8FFE2070000FF070000C80F0000DA
:103A100000C0000820000020D40A0020E803002095
:103A20002200002034020020E0020020E0030020F9
:103A30000F040020F0B4334B642098753248417D68
:103A4000047D0A023F21224389018A430275120A3A
:103A50004275187ECF22104020301876D87D002283
:103A60008006C00E4BD0D000811A2848521C08187E
:103A7000014620318C7FD50664096401ED0E2C438C
:103A80008C778D1C6C7F2E7F240234430646403693
:103A9000377841303F043C431D4FD2B23C402C7735
:103AA000270A6F77240C34707478357824022C43FD
:103AB000184D2C433470240A7470B41C6578277830
:103AC0002D023D433F273F01BD43503525702D0A50
:103AD00065704478057824022C43BD00AC43047023
:103AE000240A4470F478E3200440F470887FDF24D3
:103AF00020408877D87D8006C00E9042B3D8F0BCB5
:103B000070470000CA030020CD030020AA03002054
:103B10003F00FCFFFC3F0000002823D070B5124C92
:103B2000207800281DD111491C220D461048FCF7B1
:103B300096FB002815D000F0BFF9002811D1022013
:103B400020701C2229460B4800F0BCF9002801D047
:103B5000012005E01C2229460548FCF75CFB0020FB
:103B6000207070BD7047000020000020E00300209E
:103B70000F04002000C0000830B40178FF2946D0AF
:103B800082784378110219430905890E3FD14178A3
:103B90008906C90E02293AD823494278C97D890687
:103BA000C90E9206D20E914231D14278002192067E
:103BB000D20E8A4234D9CA00521A1218137A491CFA
:103BC000DB06DB0E8B4222D1537A147A1B0223438D
:103BD000947A240423439B031D0DD37A947A1B0209
:103BE00023439B041B0D9D4211D8537B147B1B0266
:103BF00023439B059B0E322B09D8537BDB065B0FBF
:103C0000032B04D8127A9206D20F012A02D930BCB3
:103C1000012070474278C9B29206D20E8A42CAD8B1
:103C200030BC002070470000CA030020FFB5654982
:103C3000624D487A097A0002084362499C46897AB3
:103C40005F4E09040843AB7D82B030400090DC0930
:103C50005D480021002C71D0DB066FD44368002B37
:103C600003D05B1E436006B0F0BD00200446002A6E
:103C70004DD963465B009E46C100524B0E1AF318A5
:103C80001E7DDB7C36021E4371040F0D039E8100F6
:103C900076583102090D8F4203D833051B0D9F4220
:103CA00006D24A49A6008B59734508D25B1C05E031
:103CB0004649A6008B59002B01D05B1E8B5143490E
:103CC000A700CB5963450ED92B7F0126A64001934F
:103CD00033401B0716D17346CB5101990907090FD1
:103CE000314329770EE023462E7F01249C40019624
:103CF0002640330706D00F23019EA3431E402E7794
:103D00000023CB51401CC0B204469042B4D330488B
:103D1000297FC07D8006C20E01209040401E000712
:103D2000000F01400801009A264910430872020A58
:103D30004A72000C887206B0F0BDFFE7642343604E
:103D4000204B00981872040A5C72000C9872D879A3
:103D50009C79000220431C7A1E7A240420435C7A5A
:103D6000000D240234439E7A0005360434432402B5
:103D7000240B20439871040ADC71000C1872E0B225
:103D80009C791B7A000220431B0418432877002AE1
:103D9000D1D01048D30704D00346803B4160001DBA
:103DA00059675208C7D00346803B4160596781601C
:103DB00008309967521EF6D106B0F0BDEA03002024
:103DC0000F0000FFAA03002034000020B40A0020E6
:103DD000CA030020C00A002070B5344E0025F07DD3
:103DE000334C800700281DDA00F062F918217218A0
:103DF0001378194653781B0219439378D2781B0421
:103E0000194312061143401AE1218900884202D861
:103E1000307F000703D1F07DFD210840F075F07D73
:103E200080073AD4307F000737D0B07DC00934D046
:103E30002078122834D201007944097949188F4436
:103E40000815081508151A201A201A200815081533
:103E5000082501206070A0680A2804D1A560207898
:103E6000401C20701CE0401CA06019E06570A06838
:103E70000A28F8D1F2E701206070A0681E28F2D16C
:103E8000ECE76570A0681428EDD1E7E76570A068DD
:103E90006428E8D12570A56002E065702570A560F2
:103EA000627820210348FDF78AFC70BDEA030020F8
:103EB00034000020000400480148007870470000EA
:103EC00040000020F0B50D461F490646087885B031
:103ED000174600282AD1039000900220087072B67D
:103EE00001200290194901963420C860FDF78CFB2F
:103EF00003A96846FDF7CAFA002812D10024002F52
:103F000019D928194078295D0002081882B20E4993
:103F100002200870311900230120FDF729FB002839
:103F200006D0FDF71BFB08490120087005B0F0BD65
:103F3000A41CBC42E5D3FDF711FB62B60020024988
:103F4000087005B0F0BD00004000002000200240D5
:103F50000178CA0704D04908490001700120704760
:103F60000020704701784A0704D5FB2211400170F8
:103F7000012070470020704710B42F4900220B78B1
:103F8000002B56D08A780D235A435218131D1C78E3
:103F900022465C78240222439C78DB782404224366
:103FA0001B061A430270130A4370130C8370120E1F
:103FB000C2708A780D235A435218127A02718A7895
:103FC0005A4352180823521CD3181C7822465C7896
:103FD000240222439C78DB78240422431B061A43E4
:103FE0004271130A8371130CC371120E02728A7824
:103FF0000D235A4352180C23521CD3181C78224606
:104000005C78240222439C78DB78240422431B063C
:104010001A434272130A8372130CC372120E027394
:104020008878401C8006800E88700878401E0870D2
:10403000012210BC104670472B0400200848807DE8
:10404000C10601D503207047810701D4410701D57E
:1040500002207047000701D50120704700207047FB
:10406000EA03002070B5104D0446E1210901E8681B
:10407000FCF77AF80101E078A27800021043227977
:1040800012041043094A10400143A170080AE0706D
:10409000080C20713C21E868FCF766F83C21FCF72D
:1040A00063F8617170BD0000780000200F0000FF10
:1040B0000148C0687047000078000020054A506938
:1040C00018218843044909788907C90E01435161C1
:1040D00070470000000400482A000020F1B58B481A
:1040E0008B4B8168C4684A00995A84B0641A894924
:1040F0008D886419C4609D52874B64045D791E7974
:104100002D0235432D0B2D03240D25432C052D0B9E
:10411000240D2D0325431D712C0A5C717F4C06690B
:10412000A55A751BCE88AD190561A6526A03120CFB
:1041300042807B480390C07D00248006C00E7DD065
:104140007848794E019073486100405A774AE100FF
:10415000505089184B689A01D21A80188011486013
:10416000734922018B58984201D9012500E00025AE
:10417000984201D2012700E00027ED1B9F01FB1AA6
:10418000C018800928186B4B8850984200D91846EF
:1041900051184860E100091B5F4A8C468918CB1C06
:1041A00000930D7DCF7C2D023D43634F00053D40C4
:1041B000400C0543CD74280A0875B07D800666D58D
:1041C0006804010D4CD00499030D614448780D78C2
:1041D000000228438D782D04284385032D0DAB4222
:1041E00017D2564D9B01284018430870030A4B70A4
:1041F000000C8870524803789D085B07DB175B1C36
:104200009B07AD009B0F1D430570FF233F48F5330F
:1042100043600098437C057C180228434004030D4A
:10422000C8788D780002284385042D0DAB4217D93C
:10423000444D9B0028401843887000E05EE0000A6F
:10424000C8703F4801788B084907C917491C89077E
:104250009B00890F0B430370FF202C49F530486009
:104260002A4840883073000A70730198417B007BB4
:104270000902014350791279000210430005000D34
:10428000814232D901990873000A48732DE0203128
:10429000887F800629D4707B317B00021B4F084346
:1042A0007988884221D9401AFCF778F90022264BF8
:1042B000FCF7FCF80022254BFBF7DEFFF961B86143
:1042C00007466804000D0291FCF77CF93A46029B10
:1042D000FCF784F8FCF784F90005410C164805400A
:1042E000009829430174090A41740398641CC07D35
:1042F000E4B28006C00EA04200D924E70348017A48
:10430000491C4907490F816005B0F0BD48000020F5
:10431000E40A002022000020AA030020F40A002062
:10432000CA030020EC030020EA030020440B002015
:10433000040B0020FF0F00000780FFFF3F00FCFF81
:104340002A00002003C0FFFF000059400000F03F9A
:1043500092B0FDF749FA34216846FBF775FF002457
:104360000F943020009001200890059010941020A8
:104370000E940690119409946846FDF7DBFB002823
:1043800000D0FEE707200E9003200F90109401212B
:1043900011940EA8FDF7BAFA002800D0FEE7FEF748
:1043A0002FF9FEF7C9F8FEF751F8FEF7A3F8FEF76C
:1043B000AFF9FFF741FAFEF7D3F800F009F8FEE78E
:1043C00010B5002800D1012000F05AFC002010BDDB
:1043D00010B500F06DFC002010BDF0B50824476951
:1043E000045F4668026985B0002F12D08369002BF4
:1043F0000FD00025842C00D0E51C01970095029376
:1044000000680B460146304600F03BFD039005B0C6
:10441000F0BD0025842C00D0E51C03AB0095019372
:1044200000680B46014692B2304600F0CFFC0128EE
:1044300002D0002005B0F0BD039805B0F0BD00002B
:10444000F8B5134C0F46666905462068001D00F05C
:1044500059FB681C07D1002F05D021680D48091DA4
:1044600000F097FBF8BD2068751945602168B542DA
:1044700004D2A068091D00F073FBF8BD6068091D37
:1044800000F06EFB206B8542F7D22563F8BD00007B
:1044900088000020400C0020F8B5064600F086FB9E
:1044A000274D2869401C28612868264F002803D022
:1044B000E869002821D026E02E602869012822D151
:1044C000002414206043C01900F03CFB641C072C3E
:1044D000F7D31D4800F036FB1C4800F033FB1C48A6
:1044E00000F030FB1B4800F02DFB1B4800F02AFBBE
:1044F000154868601430A86005E02868F16AC06A51
:10450000884200D82E60E86A401CE862F06AA96917
:10451000884212D814214843C019311D00F039FBDC
:1045200000F050FBE869002806D02868F16AC06AEC
:10453000884201D200F098FBF8BDA861EAE70000CC
:1045400088000020640B0020F00B0020040C0020E9
:10455000180C00202C0C0020400C0020184E194C88
:10456000194FE068002825D000F020FBF068C568EE
:10457000281D00F0C7FA2069401E2061E068401E37
:10458000E06000F01FFB5120405D002805D00128AD
:104590000AD002280BD072B6FEE7286B00F020FB91
:1045A000284600F01DFB02E0284600F019FBE068F9
:1045B0000028D9D138680128D3D900F055FBD0E7BD
:1045C0002C0C002088000020640B002003480068A9
:1045D000401C72B600D0FEE7FEE70000DC000020C1
:1045E000F8B50646002400F08FFB4849484D08689E
:1045F000002801D0C8681CE0032246489202430705
:1046000005D0C01DC008434BC000C31AD21A82187F
:104610000023083AD2086B60D20028600A60536019
:104620001360131A436002608B600120C0074B6067
:10463000C8600642009061D1002E5FD00836700736
:1046400008D07007400F0822101A8619700701D091
:1046500072B6FEE7002E51D04868864686424DD895
:104660002B482A6801E010461A465368B34202D22A
:104670001368002BF7D125490D68AA423ED0046883
:104680001168016050680834801B102828D99119DE
:104690004B0701D072B6FEE748601D4B566000E044
:1046A000034618688842FBD35E68F7188F4203D12F
:1046B00049687118596019464E68B44676188642A2
:1046C0000AD1A84206D04068604448601868006873
:1046D000086002E00D6000E008608B4200D01960C5
:1046E00053680A487146C91A41608568A94200D2D8
:1046F00081600098034300205360106000F080FC4C
:10470000600701D072B6FEE72046F8BDC400002065
:10471000D4000020540C002010B40124031F2406F0
:104720001C601B1F1960191F034B0B6014390A60B2
:1047300010BC403870470000CD45000870B40B78BD
:10474000402B39D24B780D246343140125465B1866
:10475000FF350668B13575591D712E0A5E712E0C34
:104760009E712D0EDD711D79ED08ED001D71254640
:10477000FF350668B53575591D722546FF35066843
:10478000B93575595D722E0A9E722E0CDE722D0E91
:104790001D73FF340568BD342C595C73250A9D7365
:1047A000250CDD73240E1C744B785B1C9B069B0E42
:1047B0004B700B785B1C0B7020210068012A04D021
:1047C000C2680A43C26070BC704702690A43026152
:1047D00070BC704710B42E4900220B78402B53D286
:1047E0000478C378224644781B0624022243847846
:1047F000240422431A434B780D2463435B181A7137
:10480000140A5C71140C9C71120EDA714A780D2432
:104810000379624352181372401C0479C37922460B
:1048200044791B06240222438479240422431A4338
:104830004B780D2463435B185A72140A9C72140C53
:10484000DC72120E1A7308228218137818465378F5
:104850001B0218439378D2781B04184312061043A6
:104860004A780D235A4352185073030A9373030C6A
:10487000D373000E10744878401C8006800E487078
:104880000878401C0870012210BC104670470000D8
:104890006F07002010B5092000220421C006FCF794
:1048A0008EFF10BD10B5092001220421C006FCF7BF
:1048B00086FF10BD0A78002A7ED0F0B48A780D23D6
:1048C0005A4355180268002394682D1D640104D5CD
:1048D000946801263443946011E093681B01936847
:1048E00005D5FF24013423439360012307E0DB0057
:1048F00077D5936801242404234393600223EA7844
:104900009209032A16D1384A927DD40601D5032292
:104910000AE0940701D4540701D5022204E01207EB
:1049200001D5012200E00022D4002A78E726324097
:1049300022432A701C012346FF3306688133F25854
:10494000D207D20FF25006681A1DB7583F093F012F
:10495000B7500768BE58BC462F793E436746BE50E5
:104960006F796A1C3E46AF7994463F023E43EF7929
:104970002A7A3F043E43120616431A460768083255
:10498000BE506246082692191778FF343E46577883
:104990003F023E439778D2783F043E4312061643C7
:1049A00002688D3416510268D4582E7830466E78DD
:1049B00036023043AE7800E015E0ED78360430433F
:1049C0002D062843C008C0000125001D28430443CC
:1049D000D4508878401C8006800E88700878401E6D
:1049E0000870F0BC70477047EA030020F8B4002458
:1049F0001348E1000E1835680095681C18D0002394
:104A000010481A46022168444778FB188778801CB2
:104A1000BA18491E0906DBB2D2B2090EF4D19818B1
:104A200040427168C0B2C9B2884201D10648C5602F
:104A3000641CFF2CDCD30448C1688160F8BC70475B
:104A400000000108FFFFFFFF7800002010B50028DC
:104A50000ED00A484168642906D3C268521C6439E2
:104A6000C2604160012101704168491C416010BD74
:104A70000029FCD000F004F810BD000078000020F0
:104A8000F0B51D4D83B02878002832D0E8680024A6
:104A90001A4E002824D00090002319481A460221FB
:104AA0004778FB188778801CBA18491E0906DBB2C4
:104AB000D2B2090EF4D198184042C0B20190FFF76B
:104AC000FBF9002815D103E0641CA4B2FF2C07D821
:104AD000E000801908226946FFF7F4F90028F3D1B5
:104AE000E00080190168E868814202D1A8600020D6
:104AF000287003B0F0BD000078000020000001081D
:104B0000830000204368826801699A608368426874
:104B10005A604A68824201D182684A60002202617A
:104B20000868401E0860086870470000034B036077
:104B3000034808604020106070470000E00000203B
:104B4000340100200146083100224160D243C16097
:104B5000826001610021016070470021016170479E
:104B600030B40B685A1C02D00246083202E00269D7
:104B700004E02246546825689D42FAD953684B6088
:104B800099608A60516008610168491C016030BC0D
:104B9000704742684A6093688B609368596091607F
:104BA00008610168491C01607047000072B6044842
:104BB0000168491C0160BFF34F8FBFF36F8F7047CF
:104BC000DC00002005490868002804D0401E086069
:104BD00000D162B6704772B6FEE70000DC0000202C
:104BE00000283BD070B505461D4E083D6868F16849
:104BF000084201D172B6FEE72A68002A01D072B6D7
:104C0000FEE78843686000F07FF868687168154CBB
:104C10004018706000E004462068A842FBD3616839
:104C20000A19AA4203D16A68254689186160696831
:104C30004A1982420BD13268904206D04068081867
:104C4000686020680068286002E02A6000E0286050
:104C5000AC4200D0256000F0D3F970BD7047000071
:104C6000C4000020D400002001200449000748604F
:104C7000BFF34F8FBFF36F8F7047000000ED00E070
:104C800010B500280FD009498A6B002A01D072B6EE
:104C9000FEE78A6B521C8A630021FFF7D1FB00F00C
:104CA000AFF9002801D1FFF7DFFF10BD8800002019
:104CB00010B586B00024039405AA04A903A804949F
:104CC000FFF734FF049903980094019102900023A8
:104CD00009A10B48059A00F0D4F80A490028486356
:104CE00008D072B60020C04308630120C8614C613F
:104CF00000F044F806B010BD49444C4500000000E7
:104D00005D450008880000200248816B491C8163D2
:104D10007047000088000020164B986B002802D0D6
:104D20000120586270470020586298691421024699
:104D30004A4311498A58002A0AD1002806D0142271
:104D4000401E42438A58002AF7D001E072B6FEE7BF
:104D5000142210B4424351184A680C465268083471
:104D60004A60A24201D152684A60D16819609861D4
:104D700010BC704788000020640B002070B50F48FD
:104D8000016AFF22120411430162016A12021143F7
:104D900001620B4C00252561A5610A487D21C900EF
:104DA0000068FBF7E1F9401E6061072020610648BA
:104DB0000560FBF78FF9002070BD000000ED00E0FA
:104DC00000E000E000000020DC000020FFB583B020
:104DD000970038460C9DFFF703FC06001AD05420BC
:104DE000FFF7FEFB0400304612D020630021512261
:104DF00011553F1FC0190399C0080291C000069ABF
:104E000004990D9E00900192400707D072B6FEE70C
:104E1000FFF7E6FE0020C04307B0F0BD22180B5C90
:104E2000203213750A5C002A02D0401C1028F5D3EA
:104E3000274600204037F870072D00D30625E5628D
:104E400000206564A064201DFFF787FE204618300F
:104E5000FFF783FE07202461411B6462A1610020EB
:104E6000E0643874019A02990098FFF755FC2060BD
:104E7000002E00D034602046FFF70EFB012007B063
:104E8000F0BDF0B585B00B9E0A9D0C9C002E14D091
:104E9000002C14D054272663022651273E5501903A
:104EA00002A8039000939000236B001F1818C708F6
:104EB000FF00780705D072B6FEE772B6FEE772B65D
:104EC000FEE723180A5C20331A750A5C002A02D018
:104ED000401C1028F5D3264600204036F070072DE0
:104EE00000D30625E56200206564A064201DFFF75D
:104EF00034FE20461830FFF730FE24610720411BA6
:104F00006462A1610021E16431743846009A01991C
:104F1000FFF702FC20600398002800D0029420468E
:104F2000FFF7BAFA029805B0F0BD0000F8B5324DAF
:104F30000027A86B002808D0286A401C2862686AED
:104F4000002800D001273846F8BD6E69761C6E61D6
:104F500015D168680068002801D072B6FEE768685D
:104F6000A9686960A860A86A401CA86268680068AF
:104F7000002813D06868C068C06840682863286B40
:104F8000864211D36868006800280AD06868C06843
:104F9000C4686068864211D2286305E00020C043DF
:104FA000ECE70020C043286328681421C06A484306
:104FB000124908580128C2D90127C0E7201DFFF770
:104FC000A1FDA06A002803D020461830FFF79AFD03
:104FD000E06AA96988420DD814214843074940185E
:104FE000211DFFF7D6FDE06A2968C96A8842C9D346
:104FF0000127C7E7A861EFE788000020640B0020C5
:10500000F0B583B00020624D0190A86B002808D055
:10501000FFF7CCFDA86B401EA863A86B002802D048
:10502000ACE072B6FEE72869002879D0594E3068A6
:10503000594F002828D0F068C46820461830FFF780
:1050400061FD201DFFF75EFDE06AA969884268D80E
:1050500014214843C019211DFFF79BFDE06A296810
:10506000C96A884201D30120686230680028E2D111
:10507000002C09D0686829460068002813D04868C9
:10508000C068C06840680863286A009000286ED035
:10509000A86B0027002809D0286A401C2862686A8B
:1050A00000285DD15AE00020C043ECE76E69761C11
:1050B0006E6115D168680068002801D072B6FEE7FD
:1050C0006868A9686960A860A86A401CA8626868E6
:1050D0000068002813D06868C068C068406828630A
:1050E000286B864211D36868006800280AD0686877
:1050F000C068C4686068864214D2286305E0002056
:10510000C043ECE70020C043286329682846C96AE9
:1051100014225143204A51580129C0D9406A1FE046
:105120002CE030E0201DFFF7EDFCA06A002803D042
:1051300020461830FFF7E6FCE06AA969884224D8C7
:105140001421484314494018211DFFF722FDE06A4D
:105150002968C96A8842C6D30127C4E7002F01D055
:10516000012068620098401E009091D12862686A10
:10517000002803D001200190FFF776FDFFF722FD04
:10518000019803B0F0BDA86162E7A861D8E700000C
:1051900088000020180C0020640B00200000000094
:1051A00000000000010203040607080900000000D7
:1051B000010203043C5200086929000803000000B2
:1051C000000000004000000000000000000000009F
:1051D0003052000881270008010000000000000094
:1051E0004000000000000000000000004C520008D9
:1051F0008D270008000000000000000040000000B3
:1052000000000000000000005C5200083D2900087A
:10521000FFFF000000000000400000000000000050
:10522000000000000004004800800004004800085E
:105230006D795461736B43414E0000006D79546188
:10524000736B5379735469636B0000006D7954611B
:10525000736B436F6E74726F6C0000006D795461F4
:10526000736B4D656E7500008852000800000020C9
:10527000E0000000E22B000868530008E000002076
:10528000781B0000F22B000800127A0000000000DA
:10529000000000000000000000000000010000000D
:1052A00004000000000000000200000000000000F8
:1052B00000000000000000000000000000000000EE
:1052C000640000000000000000000000000000007A
:1052D00000000000000000000000000000000000CE
:1052E00000000000E80300200000000000000000B3
:1052F00000000000000000000000000000000000AE
:10530000000000000000000000000000000000009D
:10531000000000000000000000000000000000008D
:10532000000000000000000000000000000000007D
:10533000000000000000000000000000000000006D
:10534000000000000000000000000000000000005D
:10535000000000000000000000000000000000004D
:0853600000000000AAAAAAAA9D
:04000005080000C12E
:00000001FF
