:020000040800F2
:10000000F886002031020008193800083B02000879
:100010003D0200083F020008410200080000000005
:10002000000000000000000000000000990100082E
:100030004502000800000000DD010008DD3A00086C
:100040004B0200084B0200084B0200084B0200085C
:100050004B0200084B0200084B0200084B0200084C
:100060004B0200084B0200084B0200084B0200083C
:100070004B0200084B0200084B0200084B0200082C
:100080004B0200084B0200084B0200084B0200081C
:100090004B0200084B0200084B0200084B0200080C
:1000A000953B00084B0200084B0200084B02000879
:1000B000B13B00084B0200084B0200084B0200084D
:1000C0004B0200084B0200084B0200084B020008DC
:1000D0004B0200084B0200084B0200084B020008CC
:1000E0004B0200084B0200084B0200084B020008BC
:1000F0004B0200084B0200084B0200084B020008AC
:100100004B0200084B0200084B0200084B0200089B
:100110004B0200084B0200084B0200084B0200088B
:10012000090900084B0200084B0200084B020008B6
:100130004B0200080000000000000000ED0800086D
:10014000CD0800084B0200084B0200084B020008D3
:100150004B0200084B0200084B0200084B0200084B
:100160004B0200084B0200084B0200084B0200083B
:100170004B0200084B0200080000000000000000D5
:100180004B020008DFF80CD000F026FB00480047C7
:100190004D5D0008F8860020224B19680868B0E819
:1001A000F00F80F30988BFF36F8F4FF0000080F3EA
:1001B00011884EF00D0E70470000000006480068E0
:1001C000006880F3088862B661B6BFF34F8FBFF353
:1001D0006F8F00DF00BF00BF08ED00E0EFF3098084
:1001E000BFF36F8F0F4B1A6820E9F00F106008B54E
:1001F0004FF0500080F31188BFF34F8FBFF36F8F24
:1002000007F0CAFB4FF0000080F31188BDE80840FA
:1002100019680868B0E8F00F80F30988BFF36F8FA2
:10022000704700BF10000020EFF30580704700000A
:100230000648804706480047FEE7FEE7FEE7FEE780
:10024000FEE7FEE7FEE7FEE7FEE7FEE7933B00087A
:10025000850100082DE9F05F0546002092469B4687
:1002600088460646814640241BE0284641464746CC
:10027000224600F032FA53465A46C01A914110D332
:1002800011461846224600F019FA2D1A67EB0108AC
:100290004F4622460120002100F010FA17EB00091A
:1002A0004E41201EA4F10104DFDC484631462A46B7
:1002B0004346BDE8F09F40EA01039B0703D009E0F5
:1002C00008C9121F08C0042AFAD203E011F8013B42
:1002D00000F8013B521EF9D2704730B504460020A9
:1002E000034600E05B1C934203D2E05CCD5C401B04
:1002F000F8D030BD30B505460020034600E05B1C59
:10030000934205D2EC5CC85C201A01D1002CF6D1D6
:1003100030BD2DE9FE4F804681EA0300C00F0C4638
:10032000009021F0004123F00045B8EB0200A94104
:1003300005D24046214690461C460B46024623F015
:100340000040104347D0270DC7F30A00C3F30A51FA
:100350000290401A019040286BDAC3F3130040F476
:10036000801B0098924620B10023D2EB030A63EB76
:100370000B0B01985946C0F14002504600F09EF91F
:1003800006460D4650465946019A00F0B6F910EB64
:1003900008006141002487EA115284EAE7731A4396
:1003A00040D0009A62B3019A012A4FEA075215DC45
:1003B000001B61EB02014FF0004202EA0752CDE957
:1003C0000042001C41F5801132462B4600F0B6F980
:1003D00003B0BDE8F08F40462146F9E7001B61EB12
:1003E0000201001C41F5801300185B412018A2F5A2
:1003F000001747EB030140EAD570B6196D4111E0D3
:100400006D084FEA360645EAC0754FEA0752001BF1
:1004100061EB0201001C41F5801149084FEA3000F0
:100420000019514132462B4603B0BDE8F04F00F0B1
:1004300076B90098012240000023D0EB020263EB62
:10044000E073009821464FEAE074B8EB000061EBDE
:100450000401E9E783F000435BE781F0004158E7DE
:100460002DE9FE4F81EA030404F0004421F000412D
:1004700000944FF0000B23F0004350EA01045ED0DB
:1004800052EA03045BD0C3F30A54C1F30A552C4467
:10049000A4F2F3340194A0FB0254C1F3130141F41C
:1004A0008011C3F3130343F4801301FB024400FBE8
:1004B000034E840A970A44EA815447EA8357A4FB0F
:1004C000076802958D0A05FB07854FEA932C04FB0C
:1004D0000C542705029D4FEA065847EA1637B5EB3C
:1004E00008056EEB070C870E920E47EA811742EA69
:1004F0008312A7FB0201B6EB0B0164EB00042B0D8A
:1005000043EA0C335E1844EB1C50DA465146E7FBD5
:100510000201C5F313044FEA0B3343EA14534FEAC5
:100520000432019C43EA0603A4F10C040294009CEB
:10053000CDE900B400F002F903B0BDE8F08F00206F
:100540000146F9E72DE9F04D81EA030404F0004B80
:1005500021F0004514464FF0000A23F0004150EA14
:10056000050220D054EA01021DD0C5F30A57024605
:10057000C5F31303C1F31300C1F30A5640F4801509
:1005800043F48013A7EB0608101BD64608F2FD388B
:1005900073EB050002D308F1010801E092185B41FA
:1005A000B8F1000F03DA00200146BDE8F08D00200D
:1005B0004FF48011064684460EE0171B73EB0507C7
:1005C00005D3121B63EB050306434CEA010C4908F3
:1005D0004FEA300092185B4150EA0107EDD152EA30
:1005E000030012D082EA040083EA0501084305D023
:1005F000101BAB4106D20122002306E000224FF07F
:10060000004302E06FF0010253101AEB06004CEBBE
:10061000085110EB0A0041EB0B01BDE8F04D00F072
:100620007EB80EB5C10F80EAE0700844CA07002109
:1006300040F233438DE80E000A460B4600F07EF888
:1006400003B000BD0EB540F2334102910021CDE967
:1006500000110A460B4600F071F803B000BDC1F36B
:100660000A5210B5C1F3130140F2FF3341F4801177
:100670009A4201DA002010BD40F233439A42A2F2BE
:10068000334203DC524200F028F810BD904010BD08
:1006900030B50B46014600202022012409E021FA52
:1006A00002F59D4205D303FA02F5491B04FA02F54F
:1006B0002844151EA2F10102F1DC30BD202A04DB22
:1006C000203A00FA02F1002070479140C2F1200365
:1006D00020FA03F3194390407047202A04DB203AA4
:1006E00021FA02F00021704721FA02F3D040C2F152
:1006F00020029140084319467047202A06DBCB1799
:10070000203A41FA02F043EAE07306E041FA02F3CC
:10071000D040C2F12002914008431946704710B5FD
:10072000141E73F1000408DA401C41F10001921814
:100730005B411A4301D120F0010010BD2DE9F04DBD
:1007400092469B4611B1B1FA81F202E0B0FA80F212
:1007500020329046FFF7B2FF04460F4640EA0A00F7
:1007600041EA0B0153465A46084313D0114653EA57
:10077000010019D0C8F140025046FFF7AEFF054610
:100780000E46504659464246FFF798FF084305D0AB
:10079000012004E020463946BDE8F08D00200543E5
:1007A00046EAE0762C4337430A986305E40AA0EB57
:1007B00008000022FD0A44EA47540A3002D500200E
:1007C0000146E9E7010510196941DDE9084500190D
:1007D0006941BDE8F04DA2E7064C074D06E0E06830
:1007E00040F0010394E8070098471034AC42F6D378
:1007F000FFF7CCFC9C830008BC83000830B58C1844
:1008000010F8012B12F00F0301D110F8013B12096F
:1008100006D110F8012B03E010F8015B01F8015B31
:100820005B1EF9D101E001F8013B521EFBD1A14250
:10083000E6D3002030BD10B50246806B016C11F08C
:10084000500F016C05D011F0100F28D000F0A9F95D
:1008500010BD41F40071016401688A6812F0405FC4
:1008600004BF027E002A17D1CA6A12F4700F1CBF9F
:100870008A6812F4806F0FD14A6822F020024A6021
:10088000016C21F480710164016C11F4805F03D16B
:10089000016C41F00101016400F07CF910BD806B36
:1008A000C16CBDE810401046084710B5806B402170
:1008B0000164416C41F00401416400F072F910BD23
:1008C00010B5806B00F06CF910BD000010B500226F
:1008D0000449054806F09CFABDE81040024800F0C3
:1008E000E2BB0000930000205441002010B50449F1
:1008F000044806F0FBFDBDE81040024800F0D3BB01
:100900009B00002054410020014800F01DBE000063
:10091000F440002072B6FEE72DE9F0412E4E054668
:100920000020F06101F082FA2C4C0746206810F498
:10093000803F0FD0B5F1FF3F08D025B101F076FA26
:10094000C01BA84202D90320BDE8F081206810F442
:10095000803FEFD1206810F0010F1CBF0120206004
:10096000206810F0F20008BFBDE8F081206810F0A8
:10097000100F05D0F06940F00800F06110202060F1
:10098000206810F0200F05D0F06940F00400F061FD
:1009900020202060206810F0400F05D0F06940F062
:1009A0000200F06140202060206810F0800F05D028
:1009B000F06940F00100F06180202060206810F0B4
:1009C000020F05D0F06940F01000F06102202060B5
:1009D0000120BDE8F0810000480200200C3C0240EC
:1009E00030B482B04FF0000CCDF804C090F83C2039
:1009F000012A01BF022002B030BC7047012280F8FA
:100A00003C200A6807230468092A14D9E5680A3AD1
:100A100002EB420203FA02F225EA0202E2600B78DC
:100A20008A680A3B03EB430302FA03F30268D468C3
:100A30002343D36011E0256902EB420203FA02F27C
:100A400025EA020222610B788A6803EB430302FA6B
:100A500003F302681469234313614A681F23072ABA
:100A600016D20468656B521E02EB820203FA02F290
:100A700025EA020262630B790A885B1E92B203EBDD
:100A8000830302FA03F30268546B234353632DE09C
:100A900004680D2A15D2256BD21F02EB820203FADD
:100AA00002F225EA020222630B790A88DB1F92B266
:100AB00003EB830302FA03F30268146B234313630B
:100AC00014E0E56A0D3A02EB820203FA02F225EA2B
:100AD0000202E2620B790A880D3B92B203EB8303B8
:100AE00002FA03F30268D46A2343D362264A0368F6
:100AF000934204BF0B68122B05D1D2F8043343F4A0
:100B00008003C2F804330368934231D10B68102B81
:100B100018BF112B2CD1D2F8043343F40003C2F8D0
:100B200004330968102923D11849194A0968B1FB0F
:100B3000F2F101EB810149000191009118D0B1F16E
:100B4000004F1BD20029D8BF002105DD11F00101A3
:100B500002D0019A521E0192009A491C521C9142E5
:100B600006DA019B891C5B1E5B1E01939142F8DB38
:100B700080F83CC002B0002030BC70470199491E8B
:100B80000191FCD1F4E70000002001400C0000209E
:100B900040420F00014804F08DBE00007443002065
:100BA0007047704770B504004FF0000504BF012086
:100BB00070BD206C002628B9204600F0B5F86664A8
:100BC00084F83C60206C10F0100F18BF012503D092
:100BD00084F83C60284670BD206C20F4885040F0BA
:100BE000020020644E48D0F8041321F44031C0F8CC
:100BF0000413D0F8041362681143C0F8041320688A
:100C0000416821F48071416020684168226941EAAD
:100C1000022141602068416821F0407141602068F4
:100C20004168A268114341602068816821F4006135
:100C3000816020688168E26811438160A06A6FF07A
:100C40007061C8422068816821F07061816020680D
:100C5000816808BF21F040510BD0A26A1143816026
:100C60002068816821F04051816020688168E26AD3
:100C7000114381602068816821F002018160206851
:100C80008168227E41EA4201816094F820000028B8
:100C90002068416808BF21F4006113D041F400616D
:100CA00041602068416821F46041416020684168EA
:100CB0004FF46043626A93FAA3F3B3FA83F3521ECC
:100CC0009A40114341602068C16A21F47001C162F9
:100CD0002068C16AA28B134B03EB02521143C1621D
:100CE0002068816821F4007181602068816894F82F
:100CF000302041EA422181602068816821F48061CE
:100D0000816020688168626941EA8221816066644D
:100D1000206C20F0020040F00100206458E7000041
:100D2000002001400000F0FF70B586B000250646A7
:100D3000009501950295039504950068A0F1804106
:100D4000B1F590311CBF06B070BD2248016841F476
:100D5000807101600068204900F480700590086887
:100D600040F004000860086800F00400059008687E
:100D700040F0010008600868032400F001000590BD
:100D80003D20CDE900046946144800F00DFF0F2016
:100D9000CDE9000469460295114800F005FF124CA8
:100DA0001048C4E900050015A560C4E903504000DF
:100DB00060618000A0614011C4E9070520466562BA
:100DC00000F0B0FC002818BFFFF7A4FDB463A663D1
:100DD00006B070BD4438024030380240000802407E
:100DE0000000024010640240F440002030B583B09F
:100DF00000250446019590F83C001346012802BFE7
:100E0000022003B030BD012084F83C0020688268D5
:100E100012F0010F2BD1826842F001028260494832
:100E2000494A0068B0FBF2F010EB400001900090DE
:100E30001DD0B0F1004F73D20028D8BF002005DDCF
:100E400010F0010002D0019A521E0192009A401C3B
:100E5000521C90420BDA00BFDDF804C0801CACF1DC
:100E6000010CACF1010CCDF804C09042F4DB206819
:100E7000826812F0010F54D0226C22F0010222F499
:100E8000C06242F480722264406810F4806F05D022
:100E9000206C20F4005040F480502064206C10F44A
:100EA000805F08BF656403D0606C20F0060060645A
:100EB00084F83C50A26B2548D063A26B2448106490
:100EC000A26B2448D06422686FF022001060206872
:100ED000426842F0806242602068826842F4807218
:100EE000826020680A4600F14C0C6146A06B00F05D
:100EF000C7FC1949D1F8040310F01F0F206806D071
:100F0000884204BF816811F0405F04D011E081681D
:100F100011F0405F0DD1816841F08041816008E0AF
:100F20000BE0206C40F010002064606C40F0010089
:100F3000606403B04FF0000030BD0198401E019086
:100F4000FCD194E70C00002040420F003708000855
:100F5000C1080008AB0800080020014090F82020DC
:100F6000012A18BF022A06D0416A41F48021416259
:100F70004FF0010070470068426942EA0101416197
:100F80004FF000007047000090F82020012A18BFA1
:100F9000022A06D0416A41F4802141624FF00100EB
:100FA00070473F48D0F8002242F00102C0F800220A
:100FB000D0F8002222F47C52C0F80022D0F800229F
:100FC0004B6A42EA0322C0F800220A7D4FF0010377
:100FD00002F01F0203FA02F2D0F81C3223EA0203E5
:100FE000C0F81C32CB69DBB9D0F80C3223EA02031B
:100FF000C0F80C32B1F80CC04B686CF31F43D1F849
:1010000014C000EBCC0CCCF84032B1F808C00B682F
:101010006CF31F43D1F814C000EBCC0CCCF8443275
:10102000CB69012B1AD1D0F80C321343C0F80C3223
:10103000B1F800C04B686CF31F43D1F814C000EB4B
:10104000CC0CCCF84032B1F808C0CB686CF31F432D
:10105000D1F814C000EBCC0CCCF844328B69002BD7
:10106000D0F804320CBF93431343C0F804320B6929
:10107000002BD0F814320CBF93431343C0F8143242
:10108000096A012904D1D0F81C121143C0F81C12BE
:10109000D0F8001221F00101C0F8001200207047C2
:1010A0000064004070472DE9F05F054600680024A9
:1010B0004669D0F804908768D0F80CB0D0F810A03A
:1010C000D0F8188016F0010F25D017F0010F07D0C7
:1010D0000121816017F0020F7CD0284600F02DFA24
:1010E00017F4807F09D029684FF48070886017F466
:1010F000007F70D0284600F022FA17F4803F0AD013
:1011000029684FF48030886017F4003F00F0B98000
:10111000284600F016FA16F0080F18BF1BF0100F43
:1011200004D02968102044F40074C86016F0040F3D
:101130004FF0080718BF1BF0080F04D02868C760DD
:10114000284600F0C1F916F0020F07D02868C068E1
:1011500010F0030F1CBF284600F0B7F916F0400F3F
:1011600018BF1AF0100F04D02968102044F48064CE
:10117000086116F0200F18BF1AF0080F04D0286875
:101180000761284600F0A2F916F0100F07D0286872
:10119000006910F0030F1CBF284600F098F916F400
:1011A000003F18BF19F0100F05D0296810204860C3
:1011B000284600F08DF916F4803F18BF19F0080F8B
:1011C00004D028684760284600F0BCF916F4004FA8
:1011D00078D001E035E044E019F0040F6FD016F448
:1011E000807F1CBF18F0010F44F0010416F4007F4B
:1011F0001CBF18F0020F44F0020416F4806F1CBFED
:1012000018F0040F44F0040416F4006F18BF18F02F
:10121000700F54D008F07000402808BF44F040041C
:1012200048D03EDC102808BF44F0080442D02028F3
:1012300008BF44F010043DD0302808BF44F020041B
:1012400038E017F0040F18BF4FF400647FF448AF84
:1012500017F0080F0ABF28464FF4805400F06CF9CD
:101260003EE717F4806F18BF44F400547FF445AF95
:1012700017F4006F0ABF284644F4804400F05EF97A
:101280003BE717F4802F18BF44F400447FF443AFCA
:1012900017F4002F0ABF284644F4803400F050F9B8
:1012A00039E7502808BF44F0800403D0602808BF05
:1012B00044F480742868816921F070018161296893
:1012C00004204860002C08BFBDE8F09F686A2043F6
:1012D00068622846FFF7E6FEBDE8F09F002804BFDD
:1012E0000120704770B5044690F82000002804BF24
:1012F000204600F089F82068016821F002010160B1
:1013000000F094FD0546206840684FF0050610F097
:10131000020F09D000F08AFD401B0A2817D8206868
:10132000406810F0020FF5D12068016841F001011A
:10133000016000F07BFD05462068406810F0010F59
:1013400012D100BF00F072FD401B0A2807D9606A65
:1013500040F40030606284F82060012070BD206895
:10136000406810F0010FEDD0207E01282068016850
:101370000CBF41F0800121F080010160607E0128F6
:10138000206801680CBF41F0400121F0400101607C
:10139000A07E0128206801680CBF41F0200121F0E7
:1013A00020010160E07E0128206801680CBF21F067
:1013B000100141F010010160207F012820680168C0
:1013C0000CBF41F0080121F008010160607F012895
:1013D000206801680CBF41F0040121F004010160A4
:1013E000D4E902010843D4E90412114308436168B7
:1013F000491E08432168C86100206062012084F80A
:101400002000002070BD00002DE9F04186B00024CE
:10141000009401940294039404940068A0F1804124
:10142000B1F5D0411CBF06B0BDE8F081234801688A
:1014300041F080610160016801F0806105910168FF
:1014400041F000710160006800F0007005901C48D8
:10145000016841F0020101600068022500F002000D
:1014600005904FF48050CDE9000501200326CDE919
:101470000206DFF85080092769460497404600F0CD
:1014800093FB2803CDE90005CDE9024669460497A0
:10149000404600F089FB002207213F2000F056FD66
:1014A0003F2000F043FD00220821402000F04EFDC7
:1014B000402000F03BFD06B0BDE8F081403802401E
:1014C0003038024000040240704770477047704750
:1014D0007047000070B5044690F82000012804D041
:1014E000606A40F4002060621CE0022084F8200062
:1014F0002068016821F00101016000F097FC0546B9
:101500002068406810F0010F13D000BF00F08EFC7F
:10151000401B0A2808D9606A40F400306062052048
:1015200084F82000012070BD2068406810F0010F91
:10153000ECD10020606270BD704770477047704703
:1015400070477047704700002DE9F84304460027B4
:10155000009773484FF41651A56D0068B0FBF1F980
:101560002E6894F85C00082101FA00F0304211D096
:101570002068026812F0040F0CD0026822F0040206
:10158000026094F85C0001FA00F0A860606D40F021
:101590000100606594F85C004FF0010808FA00F063
:1015A000304209D02168496911F0800F04D0A86049
:1015B000606D40F00200606594F85C100420884083
:1015C000304209D02168096811F0020F04D0A860E8
:1015D000606D40F00400606594F85C101020884055
:1015E000304220D02168096811F0080F1BD0A86094
:1015F0002068016811F4802F09D0006810F4002FD2
:1016000002D0A16C79B10CE0216C51B90BE00168FA
:1016100011F4807F03D1016821F008010160216C81
:1016200009B12046884794F85C1020208840304259
:101630004AD02168096811F0100F45D0A86094F8CD
:10164000350005282068016809D011F4802F2BD0BF
:10165000006810F4002F24D0E16B21B332E021F0B8
:10166000160101602068416921F080014161206C10
:10167000002804BFA06C002804D02068016821F075
:101680000801016094F85C004FF03F0101FA00F09E
:10169000A86084F8347084F83580216DD1BBBDE832
:1016A000F883616C71B90FE0016811F4807F07D194
:1016B000016821F01001016084F8347084F83580ED
:1016C000E16B09B120468847606D002808BFBDE87E
:1016D000F883606D10F0010F17D04FF0050084F80B
:1016E00035002068016821F001010160009800F1D7
:1016F00001000090484504D82068006810F0010FF0
:10170000F4D184F8347084F83580E16C002908BF86
:10171000BDE8F883204601B0BDE8F043084700006B
:101720000C00002070B5044600F080FB0546002C3C
:1017300004BF012070BD002684F83460022084F8C4
:1017400035002068016821F001010160206800680F
:1017500010F0010F10D000BF00F068FB401B0528FF
:1017600005D920206065032084F8350070BD20680D
:10177000006810F0010FEFD1216808683D4A104061
:10178000D4E901231A43D4E9033C43EA0C031A4386
:1017900063691A43A3691A43E3691A43236A1A4324
:1017A0001043626A042A03D1D4E90B231A4310437D
:1017B0000860D4F800C0DCF81400012320F0070111
:1017C000606A40EA0102042837D1A16AE06A0A434C
:1017D00018B3A56955B1B5F5005F14D000291CBF39
:1017E0000129022921D003291CD026E019B10129A1
:1017F00005D0022921D110F0807F1ED015E0B0F174
:10180000C07F1AD111E081B1012907D002290CD083
:10181000032908BFB0F1C07F07D00EE010F0807F31
:1018200003D10AE010F0807F07D04FF040006065E0
:1018300084F835304FF0010070BDCCF814202068DA
:101840000D4AC1B2A1F11001A2FB01210B4A4FEADE
:1018500011110329525CE2656FF3090088BF001D76
:101860003F219140A0658160666584F83530002095
:1018700070BD00003F8010F0ABAAAAAAF07E00085D
:1018800070B490F83450846D4FF0000C012D02BFFD
:10189000022070BC7047012580F8345090F8356004
:1018A0000025012E1CBF80F834504FF0020C02D0EE
:1018B00070BC60467047022680F835604565056853
:1018C0002E6826F480262E6005686B608368402BA6
:1018D000036803BF9A600268D16099601CBF016809
:1018E000CA6090F85C103F2202FA01F1A160016821
:1018F0000A6842F016020A60016C21B101680A68A8
:1019000042F008020A600068016841F001010160CC
:10191000CEE7000031B500F089FA009C0546B4F12D
:10192000FF3F02D004480078044400F07FFA401BD7
:10193000A042FAD338BD0000000000202DE9F04796
:10194000524F06468846387E012804BF0220BDE873
:10195000F087012038764CF25030FEF7DDFF00288A
:101960007ED1411EC8F800103168494C01293ED093
:10197000D6E902512944A94288BF4FF0F80955D948
:10198000307C10F0FF014FF000000AD0012908BFA1
:101990004FF4807005D002290CBF4FF400704FF453
:1019A0004070216821F44071216021680843206063
:1019B000206820F0F8002060226899FAA9F1B1FAB5
:1019C00081F105FA01F040F0020010432060206828
:1019D00040F4803020604CF25030FEF79DFF2168CB
:1019E00021F0FA012160D8B1C8F800501EE0307C27
:1019F000216821F440712160216841F004012160D7
:101A000021684FF4803242EA0020084320604CF203
:101A10005030FEF781FF216821F00401216005E0CC
:101A2000D6E9022111446D1CA942A9D819490A68B6
:101A300012F4007F0FD00A6822F400720A600A686C
:101A400042F400620A600A6822F400620A600A68CE
:101A500042F400720A600A6812F4806F11D000E04C
:101A60000FE00A6822F480620A600A6842F4805239
:101A70000A600A6822F480520A600A6842F48062AE
:101A80000A6000213976BDE8F08700004802002096
:101A9000103C0240003C02400348016841F0004114
:101AA0000160002070470000103C02402DE9F04723
:101AB0002E4F81461546387E98460E46012804BFB3
:101AC0000220BDE8F087012038764CF25030FEF756
:101AD00023FF18BB264CB9F1000F23D0B9F1010F39
:101AE0002CD02068B9F1020F20F4407020602068EB
:101AF00032D040F440702060206840F00100206047
:101B00003560BFF36F8FC6F8048000BF4CF25030D1
:101B1000FEF702FF216821F00101216000213976E2
:101B2000BDE8F087206820F44070206020682060C5
:101B3000206840F0010020603570E7E7206820F45D
:101B400040702060206840F480702060206840F081
:101B5000010020603580D9E740F4007020602068E3
:101B600040F0010020603560D0E70000480200200E
:101B7000103C0240084900200A6812F0004F08BFDC
:101B80007047064B064A1360064B1360096811F054
:101B9000004F18BF01207047103C024023016745E9
:101BA000043C0240AB89EFCD0B680022002B08BF3C
:101BB00070472DE9F84F01260325924C0F2700BFEF
:101BC0000B6806FA02F813EA080300F01381D1F853
:101BD00004C0BCF1010F18BFBCF1020F05D0BCF16D
:101BE000110F18BFBCF1120F1DD1D0F808C04FEA79
:101BF000420905FA09FA2CEA0A0CD1F80CA00AFAF3
:101C000009F949EA0C0CC0F808C0D0F804C02CEA65
:101C1000080C91F80480C8F3001808FA02F848EAA2
:101C20000C0CC0F804C0D0F80C904FEA420CD1F86C
:101C300008A005FA0CF829EA08090AFA0CFA4AEA97
:101C40000909C0F80C90D1F80490B9F1020F18BF3F
:101C5000B9F1120F15D14FEAD20900EB890ADAF86F
:101C600020B04FEA42794FEAD96907FA09FE2BEA18
:101C70000E0BD1F810E00EFA09F949EA0B09CAF87F
:101C80002090D0F8009029EA080891F8049009F013
:101C9000030909FA0CFC4CEA080CC0F800C0D1F8A2
:101CA00004C01CF0805F7DD0D4F800C04CF4804CA0
:101CB000C4F800C0D4F800C00CF4804CCDF800C0CB
:101CC00022F0030C0CF1804808F59838D8F80898F1
:101CD0004FEA827C4FEA1C7C07FA0CFA29EA0A09CF
:101CE000A0F1804ABAF5003A40D0A0F1804ABAF596
:101CF000013A08BF4FF0010A38D0A0F1804ABAF586
:101D0000023A08BF4FF0020A30D0A0F1804ABAF57B
:101D1000033A08BF4FF0030A28D0A0F1804ABAF571
:101D2000043A08BF4FF0040A20D0A0F1804ABAF567
:101D3000053A08BF4FF0050A18D0A0F1804ABAF55D
:101D4000063A08BF4FF0060A10D0A0F1804ABAF553
:101D5000073A08BF4FF0070A08D0A0F1804ABAF549
:101D6000083A0CBF4FF0080A4FF0090A0AFA0CFCB7
:101D70004CEA090CC8F808C8DFF88C80D8F800C015
:101D8000D1F804902CEA030C19F4803F18BF4CEAF8
:101D9000030CC8F800C0DFF87480D8F800C02CEA43
:101DA000030C00E026E0D1F8049019F4003F18BFBE
:101DB0004CEA030CC8F800C0DFF85480D8F800C023
:101DC000D1F804902CEA030C19F4801F18BF4CEAD8
:101DD000030CC8F800C0DFF83C80D8F800C0D1F888
:101DE00004902CEA030C19F4001F18BF4CEA030CF2
:101DF000C8F800C00B68521CD3407FF4E1AEBDE8C8
:101E0000F88F000044380240003C0140043C01408F
:101E1000083C01400C3C01400069084018BF01200B
:101E20007047002A08BF0904816170470148806833
:101E300070470000000000200248816802781144C9
:101E400081607047000000200B4810B5016841F424
:101E500000710160016841F480610160016841F432
:101E600080710160032000F0A3F8002000F006F864
:101E700000F03EF8002010BD003C024010B50146C5
:101E800088B000221C2000F061F81C2000F04EF801
:101E900014480024016841F001010160006805A9AF
:101EA00000F001000690684600F07AF900F098F919
:101EB0000D494000B0FBF1F0411E0C484FF080424C
:101EC000026040F2E732C0E90324C0E9011400F0E7
:101ED0006DFC00280ABF0548012000F008FD08B08D
:101EE00010BD00004038024040420F00AC420020CC
:101EF0000C4882B0016841F480410160006800F440
:101F0000804000900848016841F0805101600068FD
:101F1000002200F0805000900F21901E02B000F0CF
:101F200015B8000044380240403802400028B8BFCD
:101F3000704700F01F01012202FA01F14009800000
:101F400000F1E020C0F8001170470000174B10B4FA
:101F50001B68C3F30223C3F1070CBCF1040F88BF55
:101F60004FF0040C1C1D072C34BF0023DB1E012482
:101F700004FA0CFCACF1010C0CEA0101994004FAE2
:101F800003F35B1E1A40114300284FEA0111A1BF61
:101F900000F1E02080F8001410BC704700F00F0042
:101FA00000F1E02080F8141D10BC70470CED00E03B
:101FB000074900F007000A684FF6FF031A4042EA9B
:101FC000002040F0FD7040F0806008607047000025
:101FD0000CED00E0002804BF012070472DE9F04718
:101FE000DFF8988104460D46D8F8000001F0FF099B
:101FF00000F00F00A84207D288F80090D8F800003F
:1020000000F00F00A8425FD120685D4F10F0020F72
:1020100014D010F0040F03D0386840F4E05038605A
:10202000207810F0080F03D0386840F46040386022
:102030003868A16820F0F00008433860207810F07C
:10204000010F33D060684F4901281FD0096802286A
:1020500021D011F0020F37D0396821F00301084375
:102060003860FFF7E3FE06463868616800F00C0050
:10207000B0EB810F18BF41F2883A17D0FFF7D6FEB8
:10208000801B50450BD90320BDE8F087096811F487
:10209000003FE1D118E011F0007FDDD114E0386895
:1020A000616800F00C00B0EB810FE7D1D8F80000B8
:1020B00000F00F00A8420AD988F80090D8F8000074
:1020C00000F00F00A84202D00120BDE8F087207880
:1020D00010F0040F05D03868E16820F4E0500843A0
:1020E0003860207810F0080F06D03868216920F495
:1020F000604040EAC1003860386810F00C022248A5
:1021000026D02249042A08BF084621D0082A1FD118
:102110001F4C2268236802F03F0213F4800F08D09E
:1021200020680023C0F38810A0FB0101FEF792F89D
:1021300007E021680023C1F38811A1FB0001FEF72D
:1021400089F82168C1F30141491C4900B0FBF1F055
:102150003968F02292FAA2F201F0F001B2FA82F2AA
:10216000D1400C4A515CC8400B4908600B480068DC
:10217000FFF784FE0020BDE8F0870000003C02402D
:1021800008380240003802400024F400001BB70069
:1021900004380240F87E00080C00002004000020F3
:1021A0000F2202600C4A136803F0030343601368B4
:1021B00003F0F0038360136803F4E053C360126814
:1021C0004FF4E05303EAD20202610448006800F0D1
:1021D0000F0008607047000008380240003C0240D1
:1021E00008480949006809684FF4E05292FAA2F2DF
:1021F00001F4E051B2FA82F2D140044A515CC84085
:10220000704700000C00002008380240087F0008DA
:10221000002804BF012070472DE9F84F04460078DC
:10222000EA4F10F0010FA7F1040542D0381D0168F4
:1022300001F00C01042908D0006800F00C00082807
:102240000CD1386810F4800F08D0286810F4003FD3
:102250002FD06068002800F0B2812AE0DC492079A4
:102260000870606890B1FFF7E1FD0646286810F439
:10227000003F1ED1FFF7DAFD801BB0F57A7F00F238
:102280003881286810F4003FF4D012E0FFF7CEFD4B
:102290000646286810F4003F0BD000BFFFF7C6FDCC
:1022A000801BB0F57A7F00F22481286810F4003F8B
:1022B000F4D120784FF0000810F0020F5DD0C5482F
:1022C00001684FF0F80911F00C0F16D0006800F00B
:1022D0000C00082804BF386810F4800F0DD0E068A7
:1022E000B0B3BD494FF001000860FFF79FFD0646FF
:1022F000286810F0020F16D01EE0286810F0020FB8
:102300001CBFE068012840F05A812868226920F04B
:10231000F80199FAA9F0B0FA80F002FA00F041EA67
:102320000000286029E0FFF781FD801B02287DD88E
:10233000286810F0020FF6D0286899FAA9F220F068
:10234000F8012069B2FA82F290400843286014E054
:10235000FFE7A148C0F80080FFF768FD064628683F
:1023600010F0020F09D000BFFFF760FD801B0228AC
:102370005CD8286810F0020FF6D1207810F0080F12
:102380002ED09648DFF858926169A1B10121016011
:10239000FFF74CFD0646D9F8000010F0020F1FD1E0
:1023A000FFF744FD801B022840D8D9F8000010F048
:1023B000020FF5D014E0C0F80080FFF737FD0646A5
:1023C000D9F8000010F0020F0AD000BFFFF72EFD71
:1023D000801B02282AD8D9F8000010F0020FF5D18E
:1023E000207810F0040F6BD07E484FF0000B00688F
:1023F00010F0805F0AD17B48016841F08051016094
:1024000000684FF0010B00F080500090DFF8D89189
:10241000D9F8000040F48070C9F80000D9F8000035
:1024200010F4807F1AD1D9F8000000E061E040F498
:102430008070C9F80000FFF7F9FC0646D9F80000E3
:1024400010F4807F0AD100BFFFF7F0FC801B022848
:102450004FD8D9F8000010F4807FF5D0634E207A71
:102460003070A0684CF2503A88B1FFF7DFFC81462B
:10247000306810F0020F1BD1FFF7D8FCA0EB090069
:10248000504536D8306810F0020FF5D010E0FFF755
:10249000CDFC8146306810F0020F09D0FFF7C6FC72
:1024A000A0EB0900504524D8306810F0020FF5D198
:1024B000BBF1000F04D04B48016821F0805101604E
:1024C000A069E0B34349096801F00C01082958D01C
:1024D000022811D04048C0F86080FFF7A7FC0446EE
:1024E000286810F0007F6DD0FFF7A0FC001B642867
:1024F00042D90320BDE8F88FDFF8DC90C9F860808E
:10250000FFF794FC0646286810F0007F09D000BF52
:10251000FFF78CFC801B6428EBD8286810F0007F44
:10252000F6D1D4E907010843616A94F82C208901A7
:1025300041EA02610843A16A2D4A490800E041E0EE
:1025400002EB0141084339682A4A114008433860C8
:102550000120C9F86000FFF769FC0446286810F004
:10256000007F2FD1FFF762FC001B6428C1D82868C8
:1025700010F0007FF6D025E0286810F0007FB3D17E
:1025800020E0012808BFBDE8F88F3868E26900F450
:102590008001914213D1226A00F03F0191420ED195
:1025A000616AC0F38812914209D1A26A00F44031F5
:1025B000914204D1E16A00F07060884202D00120AB
:1025C000BDE8F88F0020BDE8F88F00000438024015
:1025D000023802400838024000004742800E47425D
:1025E00074380240403802400070004070380240A9
:1025F0000000FFFF0080BCF02DE9F04104460079A7
:10260000022701280CD00126267160794FF00008BE
:1026100001281CBF0420A06005D000BF84F80480FE
:102620000020BDE8F0816771FFF700FC05462068D7
:10263000406810F0010F0CD1FFF7F8FB401B022897
:1026400002D96671A760E9E72068406810F0010FC1
:10265000F2D020688068E060667184F80480BDE88C
:10266000F081002804BF0120704770B5044640790E
:10267000002518B92571204600F00CF80220607181
:102680002068016841F00401016001206071A560CB
:10269000002070BD006881B0A0F1A041B1F5C1215A
:1026A0001CBF01B070470548016841F0400101605E
:1026B000006800F04000009001B0704734380240DC
:1026C0007047704790F83C20012A04BF02207047F1
:1026D000012280F83C20CA688B6822F440721A43B9
:1026E0004B6822F480621A430B6822F400621A439A
:1026F0000B6922F480521A434B6922F400521A43A8
:10270000C96922F48042114302685164002180F8B3
:102710003C100846704790F83C20012A04BF022074
:10272000704730B4012380F83C30022280F83D200D
:1027300002685468D2F808C00D6824F070042C4375
:1027400054600268A2F18044B4F5803418BFB2F13D
:10275000804F1DD0A2F18044B4F580641CBFA2F16B
:102760008044B4F5006413D0A2F18044B4F5406411
:102770001CBFA2F18044B4F5823409D0A2F1804498
:10278000B4F5A0341CBFA2F18044B4F5C05405D107
:1027900049682CF0800C41EA0C01916080F83D30D2
:1027A000002180F83C1030BC08467047002804BF68
:1027B0000120704710B5044690F83D0028B900206C
:1027C00084F83C00204600F01FF8022084F83D0009
:1027D000211D206801F0F2F9012084F8460084F8F8
:1027E0003E0084F83F0084F8400084F8410084F8FB
:1027F000420084F8430084F8440084F8450084F8DB
:102800003D00002010BD000001681948A1F1804280
:1028100081B0B2F580321BD0A1F18042B2F5806266
:102820000EBF1448A1F18042B2F5823218D0A1F156
:102830008042B2F5A0321CBF01B07047016841F47C
:1028400080310160006800F48030009001B0704772
:10285000016841F001010160006800F00100F4E747
:10286000016841F002010160006800F00200ECE73D
:10287000443802404038024090F83D1001291CBF06
:1028800001207047022180F83D100068A0F18041CE
:10289000B1F5803118BFB0F1804F1DD0A0F180415B
:1028A000B1F580611CBFA0F18041B1F5006113D08A
:1028B000A0F18041B1F540611CBFA0F18041B1F5AC
:1028C000823109D0A0F18041B1F5A0311CBFA0F147
:1028D0008041B1F5C05104D1816801F0070106299A
:1028E00003D0016841F0010101600020704790F8B9
:1028F0003D1001291CBF01207047022180F83D10C6
:102900000168CA6842F00102CA600068A0F1804113
:10291000B1F5803118BFB0F1804F1DD0A0F18041DA
:10292000B1F580611CBFA0F18041B1F5006113D009
:10293000A0F18041B1F540611CBFA0F18041B1F52B
:10294000823109D0A0F18041B1F5A0311CBFA0F1C6
:102950008041B1F5C05104D1816801F00701062919
:1029600003D0016841F0010101600020704790F838
:102970003C20012A0DBF0220012380F83C30704723
:1029800030B4022280F83D20D0F800C0DCF80820E6
:1029900022F0770222F47F42CCF808200A68502AFD
:1029A0003DD00CDC202A74D004DC002A18BF102A89
:1029B00051D18CE0302A6CD0402A6CD091E0602A52
:1029C0004AD0702A06D0B2F5805F44D0B2F5005FDD
:1029D00012D086E0D1E9014C0268C968956844EAE2
:1029E000012125F47F4541EA0C01294391600168EA
:1029F0008A6842F0770210E00268D1F804C08C685F
:102A0000C96895684CEA012125F47F452143294393
:102A1000916001688A6842F480428A6061E00268DD
:102A2000D1F804C0C968146A156A25F00105156259
:102A3000956924F00A0425F0F00545EA011144EAFD
:102A40000C0C9161C2F820C001688A6822F0700203
:102A500042F057028A6044E00268D1F804C0C968B5
:102A6000146A24F0100414629569146A25F4704500
:102A700045EA013124F0A00444EA0C1C9161C2F83B
:102A800020C001688A6822F0700242F067028A6002
:102A900027E01CE0FFE70268D1F804C0CC68116AA7
:102AA000156A25F001051562956921F00A0125F0E6
:102AB000F00545EA041441EA0C01946111620168D1
:102AC0008A6822F0700242F047028A6009E00168D9
:102AD000D1F808C02CF0700C4CEA020242F0070258
:102AE0008A6080F83D30002180F83C1030BC0846F8
:102AF0007047704770B50446006801694FF00005E3
:102B000011F0020F1CBFC16811F0020F13D06FF05B
:102B100002010161012020772068806910F0030F15
:102B2000204602D0FFF7E5FF04E000F0E1F8204680
:102B300000F024FA25772068016911F0040F1CBF0A
:102B4000C16811F0040F13D06FF00401016102207D
:102B500020772068806910F4407F204602D0FFF77C
:102B6000C8FF04E000F0C4F8204600F007FA25771B
:102B70002068016911F0080F1CBFC16811F0080F2F
:102B800013D06FF008010161042020772068C0692C
:102B900010F0030F204602D0FFF7ABFF04E000F077
:102BA000A7F8204600F0EAF925772068016911F0BE
:102BB000100F1CBFC16811F0100F13D06FF010017F
:102BC0000161082020772068C06910F4407F20460A
:102BD00002D0FFF78EFF04E000F08AF8204600F0F4
:102BE000CDF925772068016911F0010F1CBFC1687C
:102BF00011F0010F05D06FF001010161204600F0D6
:102C000080FA2068016911F0800F1CBFC16811F0C3
:102C1000800F05D06FF0800101612046FFF750FD65
:102C20002068016911F0400F1CBFC16811F0400F0E
:102C300005D06FF040010161204600F075FA206870
:102C4000016911F0200F1ABFC16811F0200F70BD8B
:102C50006FF0200101612046BDE87040FFF731BDF3
:102C600000B587B000210091019102910391049178
:102C700003681C4802210322A3F1804CBCF5803C70
:102C80001CD0A3F1804CBCF5823C1CBF07B000BD3A
:102C9000036843F0040303600068CDE9021200F00A
:102CA000040005904FF47070CDE9000169460E48AC
:102CB000CDF81020FEF778FF07B000BD036843F0A1
:102CC000010303600068CDE9021200F001000590E5
:102CD0004FF47060CDE9000101200490694603487B
:102CE000E8E70000303802400008024000000240DF
:102CF00070470000F0B490F83C30012B02BF022076
:102D0000F0BC7047012380F83C30834BDFF80CC2E5
:102D100042B1042A44D0082A7ED00C2A00F0C38095
:102D200000F0F2B80268146A24F001041462146A14
:102D3000556896690F6826F073063E438F6824F045
:102D400002043C439A4218BF624506D1CF6824F082
:102D5000080447EA040424F004049A4218BF6245B8
:102D600009D1D1F814C025F440734CEA0303D1F81B
:102D700018C04CEA0305556096614B6853631462B2
:102D80000268936943F0080393610268936923F032
:102D90000403936102689369096943EA010140E011
:102DA0000268146A24F010041462156A5468966963
:102DB0000F6826F4E64646EA07268F6825F02005C8
:102DC00045EA07159A4218BF624506D1CF6825F03B
:102DD000800545EA071525F040059A4218BF62456F
:102DE00009D1D1F814C024F4406343EA8C03D1F82C
:102DF00018C043EA8C04546096614B689363156273
:102E00000268936943F4006393610268936923F451
:102E100080639361026800E005E09369096943EA11
:102E20000121916170E00268146A24F480741462D4
:102E3000146A5568D6690F6826F0730647EA0606D5
:102E40008F6824F4007444EA07249A4218BF62454C
:102E500006D1CF6824F4006444EA072424F4806493
:102E60009A4218BF624509D1D1F814C025F44053E5
:102E700043EA0C13D1F818C043EA0C155560D6612B
:102E80004B68D36314620268D36943F00803D361CB
:102E90000268D36923F00403D3610268D369096926
:102EA00043EA01012FE00268146A24F4805414629A
:102EB000166A5468D5690F6825F4E64545EA072582
:102EC0008F6826F4005646EA07369A4218BF6245D4
:102ED00005D1D1F814C024F4804343EA8C14546023
:102EE000D5614B68136416620268D36943F40063CA
:102EF000D3610268D36923F48063D3610268D36924
:102F0000096943EA0121D1614FF0000180F83C10CA
:102F1000F0BC08467047000000000140000401407A
:102F2000002804BF0120704710B5044690F83D000A
:102F300028B9002084F83C00204600F01EF802204A
:102F400084F83D00211D206800F038FE012084F83F
:102F5000460084F83E0084F83F0084F8400084F87E
:102F6000410084F8420084F8430084F8440084F867
:102F7000450084F83D00002010BD704770470000F8
:102F8000022361B104294BD0082951D090F8412087
:102F9000012A08BF80F8413008D00120704790F81E
:102FA0003E20012A08BF80F83E30F6D101F01F0311
:102FB000026801219940136A8B431362136A194313
:102FC0001162254A0168254B914218BF994205D1EB
:102FD000D1F844C04CF4004CC1F844C000689042A1
:102FE00018BFB0F1804F2BD0A0F18041B1F58061C6
:102FF0001CBFA0F18041B1F5006121D0A0F180415A
:10300000B1F5406118BF98421AD0A0F18041B1F5E6
:10301000A0311CBFA0F18041B1F5C05110D014E027
:1030200090F83F20012A08BF80F83F30B5D1BDE7B6
:1030300090F84020012A08BF80F84030ADD1B5E7B4
:10304000816801F00701062903D0016841F0010100
:1030500001600020704700000000014000040140B2
:1030600070B4026801F01F040123166A4FF0000CCF
:1030700003FA04F526EA05051562156A0CFA04FC44
:1030800045EA0C0CC2F820C0026841F2111CA2F102
:10309000804540F24444B5F580351CBFA2F180451F
:1030A000B5F582350AD1156A15EA0C0F04BF156A09
:1030B000254203D1556C25F4004555640268156A14
:1030C00015EA0C0F04BFD2F820C01CEA040F05D18A
:1030D000D2F800C02CF0010CC2F800C0002908BFD3
:1030E00080F83E300AD0042908BF80F83F3005D070
:1030F00008290CBF80F8403080F84130002070BCB7
:10310000704710B504460068A0F18041B1F5A031C8
:1031100008BF02F0E1F92068B0F1804F18BF10BD80
:10312000BDE81040FEF788BE7047000070B584B05F
:1031300000244A4800940194029447490394C0E94A
:103140000014012505618460057680F8204009049B
:10315000C1620A26C6618910C460816280F830505D
:103160004461FDF71FFD002818BFFDF7D3FBCDE933
:1031700000450624694639480294FDF731FC0028D1
:1031800018BFFDF7C7FB0095022569463348019536
:10319000FDF726FC002818BFFDF7BCFB00950325B2
:1031A00069462E480195FDF71BFC002818BFFDF766
:1031B000B1FB0420CDE9005069462848FDF710FC1A
:1031C000002818BFFDF7A6FB0C20009005200190F9
:1031D00069462248FDF704FC002818BFFDF79AFB5A
:1031E0000D20CDE9000469461C48FDF7F9FB0028D5
:1031F00018BFFDF78FFB0E20009007200190694655
:103200001648FDF7EDFB002818BFFDF783FB0F20E4
:1032100000900820019069461048FDF7E1FB002866
:1032200018BFFDF777FB0920CDE9006069460B4820
:10323000FDF7D6FB002818BFFDF76CFB1020CDE989
:10324000000669460548FDF7CBFB002818BFFDF7CF
:1032500061FB04B070BD000000200140AC400020C4
:10326000114810B50F4901600521416000214FF060
:103270004072C0E902124FF4E02202614FF40012E2
:1032800042610176012242768176C27601774177EA
:10329000FEF724F8002808BF10BDBDE81040FDF778
:1032A00039BB00000068004054410020094808B5BF
:1032B000016841F4800101600068002200F4800090
:1032C000009006213820FEF741FEBDE80840382076
:1032D000FEF72CBE3038024030B5254C9DB094E846
:1032E0000F008DE80F00D4E90401A269CDE90401C3
:1032F00006920021684603F07AFB1E4D0DF11C0C6E
:10330000286004F11C000FC88CE80F00D4E90B0101
:10331000626B0D92CDE90B01002107A803F067FB5A
:10332000686004F138000DF1380C0FC88CE80F000C
:10333000D4E91201226DCDE91201149200210EA8E8
:1033400003F055FBA86004F154000DF1540C0FC8B4
:103350008CE80F00D4E91901E26E1B92CDE9190146
:10336000002115A803F043FBE8601DB030BD00004C
:10337000107F0008700000202DE9F04786B000247F
:103380005B4800940194029403940494016841F012
:1033900004010160016801F004010591016841F038
:1033A00080010160016801F080010591016841F030
:1033B00001010160016801F001010591016841F01E
:1033C00002010160016801F002010591016841F00C
:1033D000080101600068DFF81C8100F0080005901A
:1033E00000224FF420414046FEF71BFDDFF8089114
:1033F000002244F2FC014846FEF713FDDFF8FCA072
:1034000000224FF410415046FEF70BFD4FF42040D0
:1034100001250226CDE90005CDE902646946404652
:10342000FEF7C2FB4FF4B040CDE9000469460295B7
:103430004046FEF7B9FB03270096CDE901746946C3
:103440004046FEF7B1FB3020CDE900076946029403
:103450005046FEF7A9FBC020CDE90004694602955D
:103460005046FEF7A1FB48F20300CDE9000469468F
:1034700002954846FEF798FBFC208DE8E10069467E
:103480004846FEF791FB4FF47060CDE900076946AE
:1034900002944846FEF788FBA803CDE90005CDE974
:1034A000026469464846FEF77FFB28030090CDE999
:1034B0000154694650460394FEF776FBE8038DE815
:1034C000E10069465046FEF76FFBA802CDE9000413
:1034D000694602964046FEF767FB0420CDE90004EA
:1034E000694602950648FEF75FFB06B0BDE8F08727
:1034F0003038024000080240000402400000024050
:10350000000C0240074910B5054808600846FFF75F
:10351000A8F8002808BF10BDBDE81040FDF7FAB9B3
:10352000000806507C41002010B596B0002410948D
:103530001494129413941594009411940194039488
:10354000049405943D4802940694089409940A94BE
:103550000B940C940D940E9437490F94C0E9001409
:10356000FF21C0E90241046144618461FFF71EF953
:10357000002818BFFDF7CEF94FF48050109010A925
:103580002E48FFF7F4F9002818BFFDF7C3F92B48C0
:10359000FFF7C6FC002818BFFDF7BCF92020CDE9D5
:1035A000140414A92548FFF7B6F8002818BFFDF742
:1035B000B1F9602000907F20CDE9010403940494C8
:1035C0000594002269461D480694FFF793FB0028E6
:1035D00018BFFDF79FF9042269461848FFF78AFBD8
:1035E000002818BFFDF796F9082269461348FFF72F
:1035F00081FB002818BFFDF78DF90C2269460F48A2
:10360000FFF778FB002818BFFDF784F908944FF402
:103610000050CDE90C400A9409940B9408A907487E
:103620000F94FFF74FF8002818BFFDF773F9034810
:10363000FFF716FB16B010BD000001408C410020C2
:1036400010B586B0002418480094019402940394A5
:103650000494144905940160EB21C0E901143F2151
:10366000C0E903148461FFF7A1F8002818BFFDF733
:1036700051F94FF48050009069460B48FFF777F9F5
:10368000002818BFFDF746F92020CDE9040404A95D
:103690000548FFF740F8002818BFFDF73BF906B0D2
:1036A00010BD000000040040D441002010B596B0C9
:1036B000002410941494129413941594009411946B
:1036C00001940394049405943D480294069408944C
:1036D00009940A940B940C940D940E9437490F940A
:1036E000C0E90014FF21C0E9024104614461846122
:1036F000FFF75CF8002818BFFDF70CF94FF4805075
:10370000109010A92E48FFF732F9002818BFFDF7D6
:1037100001F92B48FFF704FC002818BFFDF7FAF861
:10372000149414A926481594FEF7F5FF002818BF35
:10373000FDF7F0F8602000907F20CDE901040394AC
:1037400004940594002269461D480694FFF7D2FAB6
:10375000002818BFFDF7DEF8042269461848FFF775
:10376000C9FA002818BFFDF7D5F8082269461448A1
:10377000FFF7C0FA002818BFFDF7CCF80C22694605
:103780000F48FFF7B7FA002818BFFDF7C3F80894F1
:103790004FF40050CDE90C400A9409940B9408A909
:1037A00007480F94FEF78EFF002818BFFDF7B2F808
:1037B0000348FFF755FA16B010BD000000040140A1
:1037C0001C42002000B585B00021124800910191F3
:1037D00002910F4A039102604FF4BB72C0E90121CC
:1037E0000922C0E903218161FEF7E0FF002818BF2C
:1037F000FDF790F84FF48050009069460548FFF7B8
:10380000B6F8002818BFFDF785F805B000BD000028
:103810000040014064420020FEE700F06DFF64209C
:1038200003F0D8F8F9E70000614E624D624C0027C2
:1038300094F8740010F0900F0ED094F845005F4992
:10384000C0F3440204F14C0000F088FD02F01EF8C1
:103850007D2003F0BFF8EBE710F0010F35D0317891
:1038600000F002020A4314D000290CBFC0F340014B
:10387000012194F8752020F0040061F3000284F81F
:10388000752084F874004E4801F028FE002865D0A9
:1038900042E010F0040F4A4813D001F02AFE58B15C
:1038A00094F8750020F0010084F8750094F8741005
:1038B00060F3820184F87410414801F00FFEA8B350
:1038C0002AE001F00BFE90BB42E010F0020F45D160
:1038D000317851B194F8751020F0040041F00101E5
:1038E00084F8751084F8740038E010F0040F344840
:1038F0001ED001F0FEFD58B194F8750020F00100D3
:1039000084F8750094F8741060F3820184F87410E0
:103910002B4801F0E3FD48B194F8750040F0040035
:1039200084F8750001F066FEC4F8760016E002E047
:1039300001F0D4FD60B194F8750040F0010084F806
:10394000750094F8741060F3820184F8741005E037
:1039500094F8750020F0010084F8750094F8750063
:1039600010F0010F14D003F087FC94F87A0028B906
:10397000287820F0F80067F382002870287810F08B
:10398000040F14BF0221012161F3010028705DE7DB
:1039900003F06CFD94F8741011F0010F1ABF11F0D0
:1039A000080F03210021287861F3010028704DE7FA
:1039B000810000208B0000202843002004440020C8
:1039C000F4420020104C00BF94F8750010F0020F74
:1039D00005BF94F8740010F0100F0020012001F0D2
:1039E000E9FA94F8450094F84430C0F344020749DA
:1039F00004F14C0001F08AFB02F0CEF94FF496700E
:103A000002F0E8FFE0E70000284300200444002023
:103A1000304D314C4FF08057012600BF94F87500AF
:103A200010F0020F05BF94F8741011F0100F002170
:103A30000121C0F3400003F01BFE00F0EFFA01F09B
:103A400075FC94F8740010F0100F04BF94F87A100D
:103A5000002921D0297806EBD10262F3C701297031
:103A600011F0F80F04D126EA910262F38201297065
:103A700094F87A10A1B194F89B1007EB71114FEAFA
:103A8000F16184F89B1011F01E0F04BF26EA0102B9
:103A900062F3000108D009E0297821F004012970BF
:103AA00094F89B1021F0010184F89B1010F0010F95
:103AB0000CD0216F00291CBF481E206706D120F0C2
:103AC0000100410861F3C30084F874000A2002F089
:103AD00081FFA3E78B0000202843002010B5502071
:103AE00080F31188BFF34F8FBFF36F8F04F0AAF8F4
:103AF00018B104494FF080500860002080F311880D
:103B000010BD000004ED00E02DE9F04192B000246A
:103B10000125029401950C940226A8051094CDE984
:103B200006600394049405940D940E940F940C2055
:103B3000F02700954FF00508CDE90807CDE90A68A0
:103B40006846FEF765FB78B110200096CDE903507A
:103B5000CDE90664CDE90807CDE90A686846FEF7B5
:103B600057FB08B172B6FEE70F20CDE90C064FF403
:103B7000A050CDE90E404FF48050109003210CA8C6
:103B8000FEF728FA002804BF12B0BDE8F08172B633
:103B9000FEE7704710B50448FEF7ACFFBDE81040E3
:103BA0000248FEF7A7BF00008C41002064420020BD
:103BB0000148FEF79FBF0000AC420020F0B402684D
:103BC0002C4B2D4C2D4D2E4EDFF8B8C0984218BF0F
:103BD000B0F1804F07D0A04218BFA84203D0B04236
:103BE00018BF604504D14F6822F0700247EA020214
:103BF000984218BFB0F1804F25D0A04218BFA8420C
:103C000021D0B04218BF60451DD0A0F18044B4F56A
:103C1000A0341CBFA0F18044B4F5A23413D0A0F1AD
:103C20008044B4F5A4341CBFA0F18044B4F5C05462
:103C300009D0A0F18044B4F5E0541CBFA0F1804449
:103C4000B4F5005403D1CC6822F4407222434C698D
:103C500022F08002224302608A68C2620A6882629D
:103C6000984212BF6045096901634FF0010141614B
:103C7000F0BC704700000140000400400008004014
:103C8000000C0040000401400FB4084B10B504A91B
:103C900002AA039800F01CF8044602A9002000F0D4
:103CA000B8F9204610BC5DF814FB00001340000872
:103CB00002E008C8121F08C1002AFAD170477047F5
:103CC000002001E001C1121F002AFBD17047000053
:103CD0002DE9FF4F8BB088460546002606E02528D3
:103CE0000BD0DDE90D1290476D1C761C287800285A
:103CF000F5D10FB03046BDE8F08F0024A146A246B2
:103D00000122AE4900E0044315F8013F203B02FACE
:103D100003F00842F7D128782A2810D06FF02F023C
:103D20002878A0F13001092915D809EB890102EBA7
:103D3000410144F0020400EB01096D1CF0E758F862
:103D4000041B5FEA010903D544F40054C9F10009DA
:103D500044F002046D1C28782E2817D115F8010FA5
:103D600044F004042A280ED06FF02F022878A0F126
:103D7000300109290AD80AEB8A0102EB410100EB64
:103D8000010A6D1CF2E758F804AB6D1C28786C280A
:103D90000FD006DC4C2817D068280DD06A2814D123
:103DA00004E0742810D07A280FD10DE044F40014F8
:103DB0000AE044F4801401E044F44014697881423C
:103DC00002D104F580146D1C6D1C2878692865D01B
:103DD00006DC00288DD0632827D0642806D15DE05A
:103DE0006E2808D073282AD0752877D0DDE90D1207
:103DF0009047761CE0E0C4F30250022809D0032863
:103E00000DD0D8F8001004280DD00E6008F1040879
:103E1000D2E0D8F80010F217C1E90062F6E7D8F84E
:103E200000100E80F2E70E70F0E718F8041B8DF812
:103E3000001000208DF80100EB46012003E058F847
:103E400004BB4FF0FF3061074FF0000701D40AE0D8
:103E50007F1C57450DDA8742FADB1BF80710002953
:103E6000F6D106E07F1C8742FCDB1BF80710002917
:103E7000F8D1DDE90D23A9EB07008146214600F0CA
:103E8000B1F83044C61904E0DDE90D121BF8010B4E
:103E900090477F1EF8D22146484688E058F8040B28
:103EA000C4F302514FF00A0B032900D100B20429D8
:103EB00000D140B2002802DA40422D2102E0210563
:103EC00005D52B218DF82410012104E006E0E1073F
:103ED00010D02021F6E708AF089113E058F8040B42
:103EE000C4F302514FF00A0B032900D180B2042918
:103EF00000D1C0B20021EEE75946FCF7C9FB3031D2
:103F000007F8011D0028F7D1ADEB070000F1200BE9
:103F1000600702D524F4803401E04FF0010ADA454D
:103F200002DDAAEB0B0000E00020824600EB0B0153
:103F300008980144A9EB01000A90E00306D4DDE9EA
:103F40000D2321460A9800F04DF806444FF0000971
:103F500008E009A911F80900DDE90D12904709F1FF
:103F60000109761C08998945F3DBE0030CD5DDE9EE
:103F70000D2321460A9800F035F8064404E0DDE9F7
:103F80000D1230209047761CBAF10001AAF1010A07
:103F9000F5DC05E0DDE90D1217F8010B9047761C02
:103FA000BBF10001ABF1010BF4DC0A982146DDE91D
:103FB0000D2300F005F806446D1C97E60928010062
:103FC0002DE9F041044600251E461746880404D416
:103FD00005E039462020B0476D1C641EF9D52846FF
:103FE000BDE8F0812DE9F041044600251E469046CB
:103FF000C80301D5302700E02027880404D505E058
:1040000041463846B0476D1C641EF9D52846BDE8C8
:10401000F0810A68531C0B60107070472DE9F0475F
:104020000024DFF8BC816F4E6F4D27464FF4FA79BC
:104030004FF0320A04EB440008EB4000818800682E
:10404000FDF7EAFE002804EB840032D000EBC40048
:10405000315C11F0020F04BF21F00201315407D08E
:10406000A5F8029041F0010131548119C1F805A071
:10407000315C21F00801CA0862F341013154C1F3F7
:1040800040028119C1F80120D1F80920002A19BF86
:10409000521EC1F80920325C22F0040208BF3254DB
:1040A000D1F80520002A1CBF501EC1F8050031D1EF
:1040B0002CE000EBC4018819D0F80120322A16D96F
:1040C000A5F80290C0F80170725C67F3410242F0FB
:1040D00008027254D0F80930002B08BF12F0040F08
:1040E00018D142F004027254C0F809A012E0012A6B
:1040F00006D9D0F809201AB9725C42F00202725453
:10410000D0F80110491CC0F8011003E0315C21F027
:1041100001013154601CC4B2042C8BD333484FF4DA
:10412000804190F8450010F0010F314826D0044638
:10413000FDF772FE002804BF287800280CD04FF449
:1041400080412046FDF768FEF8B1A88800280CBF22
:104150002F70401E19D00FE0697801200029A9882E
:1041600005D0322908BF6F7005D0481C04E0012932
:1041700088BF6870F9D92870A88006E0FDF74CFE6A
:10418000002814BF0020012068701A4E40213046DC
:10419000FDF742FE184C802120703046FDF73CFEB2
:1041A000164E607001213046FDF736FEA0700221E8
:1041B0003046FDF731FEE070688848B10122910376
:1041C0003046FDF72EFE6888401E6880BDE8F08707
:1041D0003046BDE8F04700224FF48041FDF721BE94
:1041E000807F0008F4420020800000202843002047
:1041F0000008024000000240860000200004024047
:1042000010B442880368C2F38B02C3F38B142244B8
:10421000B0F804C05208130ACCF3051C03FB0CF3DE
:10422000002B08BF0123B1F800C09C4283BFE31AF2
:1042300063F30B0CA1F800C00CF4704398BF0B8023
:104240004088C0F38B0340F6FF70A0EB030C000125
:10425000944507D91A44B1F8013062F30F13A1F85D
:10426000013004E0B1F801200243A1F801200B88DD
:10427000B1F80120C3F30B0CBCEB121F04D832F0D1
:104280000F021CBF10BC704703F470420A80B1F8E3
:1042900001201043A1F8010010BC70474FF0000C42
:1042A000002A98BF70472DE9F00740F6FF794FF6D6
:1042B000F07800BFCCEBCC031D180CEB4C036C88E2
:1042C0002E68C4F38B04C6F38B173C44B5F804A0E6
:1042D0006408260ACAF3051A06FB0AF60B44002EE8
:1042E00008BF0126B74288BFBF1B1E888CBF67F37B
:1042F0000B0606F470461E806D88C5F38B05A9EB8E
:104300000506A64207D92C44B3F8015064F30F15F3
:10431000A3F8015005E0B3F8014044EA0804A3F80B
:1043200001401C88B3F80150C4F30B06B6EB151F0F
:1043300002D835F00F0508D104F470441C80B3F89E
:10434000014044EA0804A3F801400CF1010303F022
:10435000FF0C9445AED3BDE8F00770472DE9F05F40
:104360000546140088464FF0000018BFB1490BD035
:10437000C0EBC00211F800C0AB5C401C6CF34513ED
:10438000C0B2AB548442F3D8AB4FDFF8B0C297F859
:1043900074000CF10809A9F11C0610F0400F3078E8
:1043A0001AD0012822D90020002C12D9C0EBC0015C
:1043B0004A193CF81030116863F39111116039F813
:1043C00010305188401C63F38D01C0B2518084428B
:1043D000ECD80520307001E0012807D99848012267
:1043E000017822EA910262F30101017030784FF600
:1043F000FF7243F6FC7340F6FF7A052828BFBDE83C
:10440000F09FDFE800F003325463AB0097F87400CC
:1044100010F0100F08BFBDE8F09F4FF448507060D7
:104420000020002C1BD900BFC0EBC00129440B6841
:10443000C3F38B132CF810304B88C3F38B0329F88C
:1044400010300B68401C43F47F5343F470330B600F
:104450004B88C0B26FF38D034B808442E4D8A7F839
:104460006A2002F009FF022075E097F8740010F04E
:10447000100F08BFBDE8F09F0020002C13D900BF2B
:10448000C0EBC0012944401CD1F800C0C0B26FF39A
:10449000911CC1F800C0B1F802C084424CEA030C80
:1044A000A1F802C0ECD8A7F86A20042053E0706895
:1044B000642803D9401E7060BDE8F09F97F874002F
:1044C00040F0200087F87400032044E07068002862
:1044D000F0D10021002C84BF4FF4801CCCF10008E7
:1044E00032D900BFC1EBC10028440268B0F802B065
:1044F000C2F38B19CBF38B0EF14504D82BF00309D3
:1045000039F4404905D16FF39112026042881A4391
:104510004280D0F800B0B0F80290CBF38B1EC9F304
:104520008B0296450CD152453DBF0CEBB9324FEA98
:10453000B242428008EBBB4224BF4FEAB232026073
:10454000481CC1B2A142CDD3B7F86A00401FA7F8FA
:104550006A003078401C3070BDE8F09F02F086FFA2
:104560000021317097F8740061F30410010961F3C0
:104570008610810961F34510002187F87400002C32
:104580008CBF4FF6F077BDE8F09F00BFC1EBC100D4
:10459000431901EB41005A88D3F800C0C2F38B02E3
:1045A000CCF38B163244B3F8049052084FEA122C25
:1045B000C9F305190CFB09FC4044BCF1000F08BF0E
:1045C0004FF0010C664506D9A6EB0C0C06886CF37F
:1045D0000B06068005E0B0F800C00CF4704CA0F8A3
:1045E00000C05B88C3F38B03AAEB030C944588BF20
:1045F0001344B0F801208CBF63F30F123A43A0F8C4
:1046000001200288B0F80130C2F30B0CBCEB131F81
:1046100002D833F00F0307D102F470420280B0F8E1
:1046200001203A43A0F80120481CC1B2A142ADD3F9
:10463000BDE8F09F86000020284300202C020020C7
:104640008B00002070B58AB00026294C0196049694
:104650000096039606962548099601212060089148
:1046600007910E2105914FF4404102916946FCF7F4
:104670008BFC204D0F200590E8784FF0804100F032
:10468000030041EA006081B2000CCDE900014FF463
:104690004340CDE9020669462068FCF775FC10200E
:1046A00005902868A978C0F34D104001C90840EA78
:1046B000C14040F0004081B2000CCDE900014FF64E
:1046C000E07003904CF2FF00029069462068FCF70E
:1046D0005BFC02212068FCF741FC01212068FCF70B
:1046E0003DFC2068FCF7F6FE0AB070BD5441002086
:1046F000A4000020284300202DE9F04F8FB04FF098
:104700000008CDF82080CDF82480CDF81880CDF8B1
:104710001C80CDF80C80CDF81080FE4ECDF81480B2
:104720003068029006A800F0EFFEFB4F4FF0010941
:10473000002800F035814FF4FA7A4FF0040B07257A
:1047400096F8740040F0010086F87400C6F870A076
:104750009DF81B10C1F38301062980F01B81DFE85F
:1047600001F097BB34033AFD9DF81C10002900F0BE
:1047700011819DF81D1011F0010F1CBF40F00800C1
:1047800086F8740096F8740010F0080F08D011F045
:10479000040F18BF40F0100010D000BF86F874005E
:1047A00011F0020F74D096F8750040F0040086F8FE
:1047B000750000F01FFFC6F87600EBE011F0080F5F
:1047C00018BF40F04000E9D1EAE710F0080F18BF29
:1047D00087F80090DEE010F0100F7DD19DF80B00FF
:1047E00020F03C0014308DF80B009DF81C000028D0
:1047F0004ED09DF81D0010F0FC0F49D19DF80D1012
:1048000010F0030221F0FC018DF80D1004D0012AF4
:104810003FD0022A6AD0BDE08DF80CB000208DF8A0
:104820000D00706CCDF80E00B6F84800ADF812001F
:1048300096F84A008DF8140002A802F07DFB96F865
:1048400045000024C0F34400002821D98DF80C5005
:104850009DF80D0020F00300401C8DF80D00C4EB06
:10486000C4003044C16CCDF80E10B0F85010ADF853
:10487000121090F852008DF8140002A802F05CFBB0
:10488000601CC4B296F84500C0F34400A042DDD8D5
:1048900080E096F845000024C0F34400002879D950
:1048A0008DF80C509DF81D009DF80D1060F301016E
:1048B000C4EBC40030448DF80D10C16CCDF80E105F
:1048C000B0F85010ADF8121090F852008DF81400A6
:1048D00002A802F031FB00E05AE0601CC4B296F876
:1048E0004500C0F34400A042DAD853E096F845C032
:1048F0001CF03E0F4ED09DF81E2012F01F0F19D055
:1049000060F3010102F01F00C0EBC0008DF80C50F5
:1049100030448DF80D10D0F81910CDF80E10B0F805
:104920001D10ADF81210C07F8DF8140002A802F01F
:1049300003FB2FE00024CCF3440000282AD900BF59
:104940008DF80C509DF81D009DF80D1060F30101CD
:10495000C4EBC4008DF80D10304400E015E0016A8E
:10496000CDF80E10818CADF8121090F826008DF85D
:10497000140002A802F0E0FA601CC4B296F84500E8
:10498000C0F34400A042DBD804E010F0100F35D093
:1049900087F8019006A800F0B7FD00287FF4D0AE9C
:1049A00096F8741011F0080F02D011F0100F71D0AA
:1049B00087F800807878C8B187F801809DF80B00EF
:1049C00020F03C00001D8DF80B0006208DF80C0037
:1049D00006F13C0000F0F0FDF06BCDF80D00B6F8EC
:1049E0004000ADF8110002A802F0A6FA4C484B496D
:1049F000006802F07BFD0FB0BDE8F08F9DF81C1041
:104A00000029C7D09DF81D0010F0FC0FC2D1B6F8E8
:104A10004520C2F38512B2EB900FBBD310F0030018
:104A200039D00128B6D19DF81E0096F8452000F037
:104A30001F00C2F34402904220D8BDF82220C2F3E6
:104A40000512322A1AD8DDF81E20BDF82030C2F334
:104A50008B12C3F38B03934228BF07290ED3C0EBFD
:104A6000C0013144DDF81E20C1F84520BDF82220E8
:104A7000A1F849209DF8242081F84B2000EB40024A
:104A80002849C0EBC000114430444530C91EFFF72F
:104A9000B7FB7FE71AE09DF81E0086F844009DF8FA
:104AA0001F0096F8451060F3000186F845109DF848
:104AB0002000010996F8460061F3051086F84600CB
:104AC0000109F07861F30100F07063E79DF81800C8
:104AD000C0F3C100022808BF41F0020004D0012841
:104AE00008BF21F0020001D186F8740096F8740026
:104AF000C0F34001C0F380021143FA78914204D11F
:104B0000BB78C0F300129A4203D0F970C0F30010D2
:104B1000B87009E028430020A80000209B00002076
:104B2000A400002004440020F068D6F80510C0F36B
:104B30001320C1F3132188420ED1D6F80E00D6F807
:104B40000710000BB0EB113F06D100F019FD3178D2
:104B5000C1F3C101884210D07068C6F80B003089DB
:104B6000A6F80F00B07A707400F00AFD317860F397
:104B7000C401317087F8009003E0387800283FF4D2
:104B800019AF87F8018087F80080CDF82C80CDF828
:104B90003080CDF8348031680A919DF82B100120C7
:104BA00021F03C0108318DF82B109DF82D1060F399
:104BB000010121F00300401C20F0FC008DF82D00C5
:104BC00008208DF82C007068CDF82E003089ADF8E3
:104BD0003200B07A8DF834000AA802F0ADF9E9E6A7
:104BE00070B500F00DFD6420FCF794FE7F4C94F846
:104BF0003C0020F01F00801C84F83C00A08F20F4B3
:104C0000F0706030A0877A480168801D21600278CA
:104C1000A0F1010C9CF8003000789CF800C005025F
:104C2000B4F83D0065F34B000CEB500C6CF34B00FB
:104C300003EB022262F34B006E4AA4F83D001378A6
:104C400094F845204FF01E0C63F3450284F845208C
:104C5000A378BCEBD30F14D26FF35211A0312160B3
:104C6000A17821F0F8011831A170E17821F0030159
:104C7000491C41F0C001E17022F03E01083184F886
:104C8000451094F84510C1F34402042A04D921F0D8
:104C90003E01083184F84510C0F34A0140F2E27247
:104CA000914203D3A1F5E062FF3A05D16FF34B00C7
:104CB00000F6C870A4F83D004F4908780025FF2889
:104CC00056D0B1F8010010F47C6F51D14878C0F390
:104CD000440004284CD894F84500C0F344024878B6
:104CE000C0F34400824243D1C88C002840D0C88C15
:104CF000A0F57F42FF3A3BD048780022C0F3440041
:104D0000904229D9C2EBC2035818037A03F01F0C52
:104D1000531C9C452CD1028990F80AC042EA0C42EF
:104D2000C2F38B1C4289C2F38B02944520D882893E
:104D3000C2F30512322A1BD8427BC2F38202032A35
:104D400016D8007AC0F34010012811D84878DAB29A
:104D5000C0F344009042D5D82C2204F14400FBF764
:104D6000AAFA2C2204F144012448FBF7A4FA01E03A
:104D700000F052F822482349057094F84500C0F32A
:104D8000440204F14C00FFF789FA94F84510002022
:104D9000C1F34401002910D9411CC0EBC0002044DC
:104DA00090F8202061F3040280F82020C8B294F823
:104DB0004510C1F344018142EED894F84600010940
:104DC000E07861F30100E07002F026FC0A220E494F
:104DD0000E48FCF70BF8FFF735FC0D48FDF74CFDCE
:104DE000BDE870400B48FDF782BD0000284300205D
:104DF000F0BF0008F4BF000800C00008C443002052
:104E00008A00002004440020F0430020AC40002031
:104E1000D4410020644200206548642180F8441099
:104E2000B0F8451021F47C61A0F8451040F6E4414B
:104E3000A0F86A1090F8461021F03001103180F887
:104E4000461090F84C1021F01F01491C80F84C10BE
:104E5000C16C6FF39111C164B0F84E2043F6FC7140
:104E60000A43A0F84E20B0F8502022F47C72103291
:104E7000A0F85020B0F84F2042F47C62A0F84F20F8
:104E800090F8512022F01C0280F8512090F84C201C
:104E900022F0200280F84C2090F8532022F01F02CC
:104EA000921C80F85320D0F853206FF39112C0F871
:104EB0005320B0F855200A43A0F85520B0F85720E9
:104EC00022F47C72F032A0F85720B0F8562042F459
:104ED0007C62A0F8562090F8582022F01C0280F83E
:104EE000582090F8532042F0200280F8532090F888
:104EF0005A2022F01F02D21C80F85A20D0F85A20E3
:104F00006FF39112C0F85A20B0F85C200A43A0F861
:104F10005C20B0F85E2022F47C7202F52072A0F8CA
:104F20005E20B0F85D2042F47C62A0F85D2090F82D
:104F30005F2022F01C0280F85F2090F85A2042F097
:104F4000200280F85A2090F8612022F01F02121DE2
:104F500080F86120D0F861206FF39112C0F86120D1
:104F6000B0F863201143A0F86310B0F8651021F485
:104F70007C711031A0F86510B0F8641021F47C61E8
:104F8000A0F8641090F8661021F01C0180F86610FB
:104F900090F8611021F0200180F86110302180F834
:104FA0006F1080F86E1080F86D1080F86C107047EC
:104FB00028430020002808BF704770B5144C2078A3
:104FC000002818BF70BD2C22124D05F1440105F1D7
:104FD0009C00FBF782F9002808BF70BD00F014FAAE
:104FE000002818BF70BD022020702C2205F144015A
:104FF000094800F00FFA002818BF012006D12C2222
:1050000005F144010548FBF756F90020207070BDFA
:105010008A0000202843002000C00008C44300206C
:105020002DE9F041354D04463027287830B92770F6
:105030002D20E070A070607001202870DFF8C08023
:1050400008F11A0000F04AFA2E4E90B196F89B0033
:1050500020F0010000F0010161F3440086F89B009C
:105060002878211811F8010C39281CBF401C01F8C0
:10507000010C08F10D0000F031FA90B196F89B0098
:1050800020F0010000F0010161F3440086F89B006C
:105090002878211811F8010C30281CBF401E01F897
:1050A000010C174800F01AFA98B12878401CC0B2D9
:1050B0002870042804D9002028700120BDE8F08160
:1050C000204400F8017C96F89B0020F01E0086F832
:1050D0009B000D48217881706178C170A1780171C1
:1050E000E178417196F89B1011F0010F03D02A78F6
:1050F0002021104441700020BDE8F0818C00002088
:10510000F442002028430020F04500202DE9F04F14
:10511000834D854C4FF0000695F875C01CF0010FCB
:10512000DFF800C207D095F8747017F0800F08BF41
:1051300017F0100F2ED06420CCF80400B5F807004B
:10514000C0F30B00C5F80700010BD5F8050061F3AB
:105150001B20C5F80500000A85F87A00002A08BF60
:10516000BDE8F08F04F10C0012F0010F03D040F8FD
:10517000046F40F8106C510808BFBDE8F08F46601E
:1051800040F80C6C40F8086F491E40F8106CF6D1DE
:10519000BDE8F08FDCF80470002F1EBF781ECCF83D
:1051A0000400BDE8F08F4FF0000C0127E146002A13
:1051B00088BF4FEA430873D909EB0206CCEBCC0950
:1051C00009EB000AF6B2BAF803A0CAF3851ABAF1DD
:1051D000120F6FD3A9440AF1080EB9F820B0CBF32F
:1051E000451BDE4524BF0BF1080BD34554F82CA01A
:1051F00018D2BAEB430F38BF0AF1010A02D200BF3E
:1052000044F82CA0534514D295F87AA007FA0CFB69
:105210001AEA0B0F1CD144F82C804AEA0B0A85F8D5
:105220007AA015E0BAF1000F18BFAAF1010AE7D180
:10523000E8E795F87AB007FA0CFA1BEA0A0F07D0EC
:105240002BEA0A0A85F87AA04FF0000A44F82CA04D
:10525000B9F82190C9F3CB0A0CEB4C098944B9F891
:1052600001B0BAEB1B1F05D8B9F80090C9F30B09C0
:10527000D14516D954F82690B9EB430F38BF09F140
:10528000010901D244F826904B4595F87AA007FA17
:1052900006F90AEA090B15D2BBF1000F1DD10AE08D
:1052A00023E054F82690B9F1000F18BFA9F10109C5
:1052B000E8D1E9E711E044F826804AEA090685F8D2
:1052C0007A600AE0BBF1000F07D02AEA090985F8E5
:1052D0007A904FF0000944F826900CF1010C0CF084
:1052E000FF0CE1469445FFF467AF95F8450095F84B
:1052F0007A10C0F3440207FA02F0401E01EA000CE3
:10530000D5F80530D1406CF31B23C5F805300140BA
:10531000D5F8070061F31F30C5F80700BDE8F08F2E
:1053200028430020AC000020BC45002070B5334E5F
:10533000334C4FF0000596F8750010F0040F15D0AF
:1053400000F058F9D6F87610401AB0F5617F02D80F
:1053500096F87A0028B996F8750020F0040086F8CF
:10536000750096F8750010F0040F3BD196F87A009E
:1053700000281CBF96F8750010F0010F32D020787D
:10538000122832D2DFE800F00916091609161B218F
:105390001B211B2109160916092601206070A0682F
:1053A0000A2804D1A5602078401C20701DE0401C14
:1053B000A0601AE06570A0680A28F8D1F2E7012021
:1053C0006070A0681E28F2D1ECE76570A068142810
:1053D000EDD1E7E76570A068642804BF2570A5607B
:1053E00003D0E4E765702570A5606278BDE8704081
:1053F0004FF400510348FCF714BD0000284300207F
:10540000AC0000200008024001480078704700000E
:10541000B80000202DE9F04F2C4F064687B03878B1
:1054200092460D4600281CBF07B0BDE8F08F4FF034
:10543000000BCDF814B0CDF800B0CDF808B04FF0A7
:105440000209CDF80CB087F8009021484FF0010810
:10545000CDF81090CDF80480864234BF032004209C
:10546000CDF80C801B490290F3200860FCF782FB0A
:1054700005A96846FCF762FA38B1FCF70DFB87F81E
:10548000008007B04046BDE8F08F0024BAF1000F5D
:1054900017D92819295D407887F8009001EB002082
:1054A00082B2311900230120FCF700FB30B1FCF778
:1054B000F3FA4046387007B0BDE8F08FA41C54459D
:1054C000E7D3FCF7E9FA5846F4E70000B8000020FB
:1054D000000001080C3C024001F0E0B9017811F035
:1054E000010F04BF0020704721F00101017001206D
:1054F0007047017811F0040F04BF0020704721F0BD
:1055000004010170012070471C4900220B78002B18
:1055100031D08B784A6803EB830C0CEBC3031A443D
:10552000126802608B784A6803EB830C0CEBC303B0
:105530001B1DD25C02718B784A6803EB830C0CEB69
:10554000C3035B1D1A441268C0F805208B784A68B3
:1055500003EB830C0CEBC30309331A441268C0F845
:1055600009208878CA78401C521E1040887008783C
:10557000401E087001221046704700009300002072
:10558000084890F8740010F0100F1CBF03207047FB
:1055900010F0060F1CBF0220704710F0080018BF63
:1055A0000120704728430020024890F87400C0F39F
:1055B00000107047284300200C494FF4616289684D
:1055C000B1FBF2F3D0F8012063F31F32C0F80120E1
:1055D000074AA2FB01314909A2FB01325209A2EBA1
:1055E000021201EB82014171704700003C02002071
:1055F0008988888801488068704700003C02002044
:105600002DE9F0415F4E002280213046FCF709FC75
:10561000302001F055FC46F2FF3100BF00BF00BF53
:1056200000BF491EF9D1302001F04AFC46F2FF319B
:1056300000BF00BF00BF00BF491EF9D1302001F0FC
:105640003FFC46F2FF3100BF00BF00BF00BF491E54
:10565000F9D1202001F034FC46F2FF3100BF00BF39
:1056600000BF00BF491EF9D1282400228021304606
:10567000FCF7D7FB204601F023FC802001F020FC42
:1056800046F2FF3100BF00BF00BF00BF491EF9D185
:105690000C24002280213046FCF7C3FB204601F099
:1056A0000FFCC02001F00CFC43F2FF1100BF00BF53
:1056B00000BF00BF491EF9D10124002280213046DD
:1056C000FCF7AFFB204601F0FBFB102001F0F8FBDC
:1056D00049F2FF5100BF00BF00BF00BF491EF9D112
:1056E0000624002280213046FCF79BFB204601F077
:1056F000E7FB602001F0E4FB43F2FF1100BF00BFB5
:1057000000BF00BF491EF9D140240022802130464D
:10571000FCF787FB204601F0D3FB002001F0D0FB13
:1057200043F2FF1100BF00BF00BF00BF491EF9D107
:10573000154F002401223D5D80213046FCF771FBAE
:10574000284601F0BDFB2807000E01F0B9FB43F22B
:10575000FF1000BF00BF00BF00BF401EF9D1601C9A
:10576000C4B2282CE6D38024002221463046FCF720
:1057700058FB204601F0A4FBBDE8F041002001F0F9
:105780009FBB0000000402409D7F00082DE9F04708
:105790000025DFF8EC802C4602262A468021404670
:1057A000FCF73FFB304601F08BFB2027384601F029
:1057B00087FBDFF8D09001E0102D15D219F80560B5
:1057C0006EB1012280214046FCF72BFB304601F0F0
:1057D00077FB3007000E01F073FB601CC4B209F8C0
:1057E0000570681CC5B20DE02026012280214046CC
:1057F000FCF717FB304601F063FB002001F060FB73
:10580000601CC4B2082CD7D3C02400228021C1461A
:105810004046FCF706FB204601F052FB002001F059
:105820004FFB00242546DFF8608001E0102D15D2E3
:1058300018F805606EB1012280214846FCF7F1FAA4
:10584000304601F03DFB3007000E01F039FB601CD3
:10585000C4B208F80570681CC5B20DE0202601220C
:1058600080214846FCF7DDFA304601F029FB002094
:1058700001F026FB601CC4B2082CD7D3BDE8F0872A
:1058800000040240DC450020F0450020074948693B
:10589000074A20F410401278C2F34003DB0302F001
:1058A000010243EA0232104348617047000002409F
:1058B0008B0000202DE9F14FFE4BFF4E82B0188A7D
:1058C000B188FE4A60F30B01B180588A508092F88B
:1058D00008C00CF1010C0CF0070CC2F808C096F8D7
:1058E00074C01CF0200F09D0B6F86AC0C1F30B01D8
:1058F0008C4588BFA6F86A10A6F8680096F845108F
:105900000024C1F34401002987BF0090EC4F03B08D
:10591000BDE8F08FC4EBC4029519B5F84FB01BF485
:105920007C6F00F00382E74804EB440800EB880C2E
:10593000DFF880A3DCF8041040F828103AF81400CF
:10594000CCF80400029BA0EB010013445A79C2F387
:105950008202042A30D0DCF808104043C1EB012158
:1059600001EB80000112D848CCF8081050F8342020
:10597000C2EB022202EB0111090A40F83410D248AE
:10598000DFF84C93D14A50F8341000EBC40041606A
:1059900019F80490002002EB092200BF52F820E021
:1059A000714567D25979C1F3820105292AD2DFE80E
:1059B00001F019213F444A00DCF80810C1EB012135
:1059C00000FB00100112C048CCF8081001EB4101A7
:1059D00050F83420C2EB022202EB4101090A40F8E0
:1059E0003410CCE73F2888BF3F20298C60F34A1150
:1059F000298407E03A2898BF411D28D8288C61F3F4
:105A00004A102884B9F1000F23D0587907EB04110C
:105A1000C0F382000428288CC968C0F3451001EB4C
:105A200041010CBF00EBD12000EB9120C0B219E086
:105A3000382898BFC11DE1D909E0362898BF00F188
:105A40000901DBD903E03C2898BFC11CD6D93F210E
:105A5000D4E707EB0411288CC968C0F3451000EBAC
:105A60009120C0B23F2888BF3F20298C60F34A11A3
:105A7000298403E0401CC0B23F288FD9954901EB2F
:105A80008800426841F828200AEB440109894160F6
:105A9000891A01FB01F28168C1EB811101EB02114E
:105AA000891181605879C0F3820004284FEA4110BF
:105AB000DCF808100CBF0911891190FBF1F007EB1D
:105AC0000411086007EB0410D0E900218A428CBF62
:105AD0004FF001084FF0000834BF4FF0010C4FF0B9
