:020000040800F2
:10000000009E002031020008692A000837260008F7
:100010003D0200083F020008410200080000000005
:10002000000000000000000000000000990100082E
:100030004502000800000000DD010008E52D000871
:100040004B0200084B0200084B0200084B0200085C
:100050004B0200084B0200084B0200084B0200084C
:100060004B0200084B0200084B0200084B0200083C
:100070004B0200084B0200084B0200084B0200082C
:100080004B0200084B0200084B0200080105000863
:10009000E10400084B0200084B0200084B02000874
:1000A000152E00084B0200084B0200084B02000806
:1000B000312E00084B0200084B0200084B020008DA
:1000C0004B0200084B0200084B0200084B020008DC
:1000D0004B0200084B0200084B0200084B020008CC
:1000E0004B0200084B0200084B0200084B020008BC
:1000F0004B0200084B0200084B0200084B020008AC
:100100004B0200084B0200084B0200084B0200089B
:100110004B0200084B0200084B0200084B0200088B
:100120004B0200084B0200084B0200084B0200087B
:100130004B02000800000000000000003D05000820
:100140004B0200081D0500084B0200084B02000886
:100150004B0200084B0200084B0200084B0200084B
:100160004B0200084B0200084B0200084B0200083B
:100170004B0200084B0200080000000000000000D5
:100180004B020008DFF80CD000F0FCF800480047F4
:10019000BD740008009E0020224B19680868B0E872
:1001A000F00F80F30988BFF36F8F4FF0000080F3EA
:1001B00011884EF00D0E70470000000006480068E0
:1001C000006880F3088862B661B6BFF34F8FBFF353
:1001D0006F8F00DF00BF00BF08ED00E0EFF3098084
:1001E000BFF36F8F0F4B1A6820E9F00F106008B54E
:1001F0004FF0500080F31188BFF34F8FBFF36F8F24
:1002000008F0F8FB4FF0000080F31188BDE80840CB
:1002100019680868B0E8F00F80F30988BFF36F8FA2
:10022000704700BF10000020EFF30580704700000A
:100230000648804706480047FEE7FEE7FEE7FEE780
:10024000FEE7FEE7FEE7FEE7FEE7FEE7112E000809
:10025000850100082DE9F05F0546002092469B4687
:1002600088460646814640241BE0284641464746CC
:10027000224600F076F853465A46C01A914110D3F0
:1002800011461846224600F05DF82D1A67EB01086A
:100290004F4622460120002100F054F817EB0009D8
:1002A0004E41201EA4F10104DFDC484631462A46B7
:1002B0004346BDE8F09F40EA01039B0703D009E0F5
:1002C00008C9121F08C0042AFAD203E011F8013B42
:1002D00000F8013B521EF9D27047D2B201E000F89B
:1002E000012B491EFBD270470022F6E710B51346DA
:1002F0000A4604461946FFF7F0FF204610BD30B508
:1003000004460020034600E05B1C934203D2E05CFD
:10031000CD5C401BF8D030BD30B50B460146002007
:100320002022012409E021FA02F59D4205D303FAB7
:1003300002F5491B04FA02F52844151EA2F1010238
:10034000F1DC30BD202A04DB203A00FA02F1002063
:1003500070479140C2F1200320FA03F31943904003
:100360007047202A04DB203A21FA02F0002170476E
:1003700021FA02F3D040C2F120029140084319460D
:1003800070470000064C074D06E0E06840F00103AE
:1003900094E8070098471034AC42F6D3FFF7F6FE16
:1003A00028A2000848A200084B4910B5D1F8042340
:1003B00022F44032C1F80423D1F8042343681A43DD
:1003C000C1F8042301684A6822F480724A60016817
:1003D0004A68036942EA03224A6001684A6822F0D7
:1003E00040724A6001684A6883681A434A6001683B
:1003F0008A6822F400628A6001688A68C3681A43C6
:100400008A60816A6FF07062D14201688A6822F066
:1004100070628A6001688A680CD0836A1A438A60B5
:1004200001688A6822F040528A6001688A68C36A5B
:100430001A4301E022F040528A6001688A6822F083
:1004400002028A6001688A68037E42EA43028A6087
:1004500090F82010002901684A6815D042F4006223
:100460004A6001684A6822F460424A6001684B6849
:100470004FF46044426A94FAA4F4B4FA84F4521E2D
:10048000A24013434B6002E022F400624A6001681C
:10049000CA6A22F47002CA620168CA6A838B0F4C6E
:1004A00004EB03531A43CA6201688A6822F400729B
:1004B0008A6001688A6890F8303042EA43228A6094
:1004C00001688A6822F480628A6001688A684069EB
:1004D00042EA8020886010BD002001400000F0FF4B
:1004E00010B500220449054807F0A8FFBDE81040F8
:1004F000024800F0B8BC0000BA000020A43F002071
:1005000010B50449044808F085F8BDE810400248D9
:1005100000F0A9BCC2000020A43F002010B50122B9
:100520000449054807F08AFFBDE81040024800F082
:100530009ABC0000AA000020CC3F002010B504495E
:10054000044808F067F8BDE81040024800F08BBC92
:10055000B2000020CC3F002072B6FEE7002229B195
:1005600001291FD0022920D04FF4407210490B6896
:1005700023F440730B600B6813430B600A6822F08E
:10058000F8020A600A68F82393FAA3F3B3FA83F334
:10059000984040F0020002430A60086840F480304E
:1005A000086070474FF48072E0E74FF40072DDE7B7
:1005B000103C02401348016889050FD5016821F4F9
:1005C00000710160016841F400610160016821F47B
:1005D00000610160016841F4007101600168490532
:1005E0000FD5016821F480610160016841F48051F8
:1005F0000160016821F480510160016841F480616B
:1006000001607047003C024008490A6822F44072C9
:100610000A600A6842F004020A600A684FF48033F4
:1006200043EA002002430A6070470000103C024089
:10063000064A136823F44073136013681360136849
:1006400043F001031360017070470000103C02404A
:10065000094910B50C6824F440740C600C6844F42B
:1006600040740C600C6844F001040C600260BFF33D
:100670006F8F436010BD0000103C0240074A1368B2
:1006800023F440731360136843F48073136013689A
:1006900043F001031360018070470000103C0240EA
:1006A000074A136823F440731360136843F400731C
:1006B0001360136843F0010313600160704700008A
:1006C000103C024017490868C206174805D5C269A0
:1006D00042F00802C26110220A600A68920605D53B
:1006E000C26942F00402C26120220A600A6852060E
:1006F00005D5C26942F00202C26140220A600A685E
:10070000120605D5C26942F00102C26180220A6068
:100710000A68920705D5C26942F01002C261022040
:10072000086070470C3C0240F800002070B5114989
:1007300004460020C86100F0C5FF06460E4D09E0E2
:10074000601C07D024B100F0BDFF801BA04201D97E
:10075000032070BD2868C003F2D42868C00701D008
:1007600001202860286810F0F200F2D0FFF7AAFFFD
:10077000012070BDF80000200C3C024083B2000C48
:100780000B601060704770B500242146002000F017
:1007900013F80025002000F027F96D1CEDB2802D24
:1007A000F8D3641CE4B2082CEFD3BDE870400021FC
:1007B000084600F001B8000070B505461148002455
:1007C00041F0B806057041702146402000F007F95D
:1007D0002146304600F003F92146C02000F0FFF822
:1007E000641CE4B2022CEFD3AC0905F03F0040F0EA
:1007F0004000214600F0F3F821463046BDE8704045
:1008000000F0EDB8E90000201E4810B5FF2101609E
:10081000012141600321C16001461B4800F04CFEEC
:10082000142003F0C4FC194C00224FF40071204640
:1008300000F043FF00224021204600F03EFF0A2046
:1008400003F0B5FC01224021204600F036FF0F20C6
:1008500003F0ADFC0021C02000F0C1F80121C02050
:1008600000F0BDF800213F2000F0B9F801213F2041
:1008700000F0B5F800210846FFF79EFFBDE81040E4
:10088000FFF781BFE85D002000040240000802403D
:100890002DE9F0410546052600EB85002E2D09D0F7
:1008A00004DC202D06D02C2D05D103E03A2D01D0FB
:1008B0003B2D00D102260A4900240F18385D00F0B4
:1008C00093F8641CE4B2B442F8D31F2D01D8002D74
:1008D00004D1BDE8F041002000F086B8BDE8F08109
:1008E000DD9C00082DE9F0410646052500EB860059
:1008F0002E2E09D004DC202E06D02C2E05D103E0AC
:100900003A2E01D03B2E00D10225691ECCB20A49F5
:100910000F1804E0385D00F077F8641EE4B2AC42D2
:10092000F8D31F2E01D8002E04D1BDE8F0410020DD
:1009300000F06AB8BDE8F081DD9C00082DE9F041C7
:100940000546052600EB85002E2D09D004DC202D60
:1009500006D02C2D05D103E03A2D01D03B2D00D13E
:1009600002260B4900240F18385DC043C0B200F0C6
:100970003BF8641CE4B2B442F6D31F2D01D8002D1D
:1009800004D1BDE8F041FF2000F02EB8BDE8F081B1
:10099000DD9C000810B5044602E0641CFFF778FFF8
:1009A00020780028F9D110BD70B50546014601E058
:1009B0000C46491C08780028FAD103E014F8010914
:1009C000FFF790FFAC42F9D270BD10B5044602E0CB
:1009D000641CFFF7B3FF20780028F9D110BD0A4648
:1009E000002108F07FB8000010B5064C217880295E
:1009F00006D28A09012108F075F82078401C207081
:100A000010BD0000E900002010B5094C21788029B4
:100A10000CD28A09012108F065F82078401EC0B286
:100A200020706178BDE81040FFF7C6BE10BD000021
:100A3000E900002078B50024009490F83C20012AB9
:100A400019D0012280F83C200A6807230568092A8A
:100A500013D9EE680A3A02EB420293409E43EE60DD
:100A60000B788A680A3B03EB43039A400368DD680E
:100A70002A43DA6010E0022078BD2E6902EB4202C0
:100A800093409E432E610A788B6802EB42029340AA
:100A9000026815692B4313614A681F23072A13D282
:100AA00005686E6B521E02EB820293409E436E639A
:100AB0000B790A885B1E92B203EB83039A400368AA
:100AC0005D6B2A435A6327E005680D2A12D22E6B0C
:100AD000D21F02EB820293409E432E630B790A8859
:100AE000DB1F92B203EB83039A4003681D6B2A431A
:100AF0001A6311E0EE6A0D3A02EB820293409E43C4
:100B0000EE620B790A880D3B92B203EB83039A40A5
:100B10000368DD6A2A43DA62174A0368934208D100
:100B20000B68122B05D1D2F8043343F48003C2F8CA
:100B30000433036893421AD10B68102B01D0112B98
:100B400015D1D2F8043343F40003C2F80433096822
:100B500010290CD109490A4A0968B1FBF2F101EBED
:100B60008101490000E0491E00910029FBD180F875
:100B70003C40002078BD0000002001400C00002017
:100B800040420F0070B504004FF0000503D0206C08
:100B9000002610B107E0012070BD204600F01CF8CF
:100BA000666484F83C60206CC00610D4206C20F48D
:100BB000885040F0020020642046FFF7F5FB666491
:100BC000206C20F0020040F00100206400E00125CC
:100BD00084F83C60284670BD30B587B004461421C7
:100BE0006846FFF781FB1949206888422CD11848D4
:100BF0000024016841F480710160006800F4807095
:100C0000059013481438016841F00401016001683F
:100C100001F004010591016841F0010101600068E3
:100C2000032500F0010005900120CDE9000569468B
:100C30000294084800F040FC8020CDE90005694698
:100C40000294054800F038FC07B030BD0020014098
:100C500044380240000802400000024018B500215C
:100C6000009190F83C20012A07D0012280F83C2016
:100C700002689368DB0702D011E0022018BD936878
:100C800043F001039360274A274B1268B2FBF3F24B
:100C900002EB420200E0521E0092002AFBD10268E1
:100CA0009368DB0733D0036C40F20164A34343F441
:100CB0008073036453685B0505D5036C23F400530C
:100CC00043F480530364036CDB0404D5436C23F0CA
:100CD0000603436400E0416480F83C106FF0220199
:100CE000116001684A68114B1A434A601049D1F8F3
:100CF00004230068D20601D0884210D1816811F027
:100D0000405F0CD1816841F08041816007E0016C57
:100D100041F010010164416C41F001014164002087
:100D200018BD00000C00002040420F00200000040D
:100D30000020014090F82020012A07D0022A05D087
:100D4000416A41F480214162012070470068426994
:100D50000A4342610020704710B590F82020012A14
:100D600007D0022A05D0416A41F480214162012066
:100D700010BD3B48D0F8002242F00102C0F800222A
:100D8000D0F8002222F47C52C0F80022D0F80022D1
:100D90004B6A42EA0322C0F800220A7D02F01F03D8
:100DA00001229A40D0F81C329343C0F81C32CB6920
:100DB000B3B9D0F80C329343C0F80C328C894B682D
:100DC00064F31F434C6900EBC404C4F840320C893F
:100DD0000B6864F31F434C6900EBC404C4F844324D
:100DE000CB69012B16D1D0F80C321343C0F80C326A
:100DF0000C884B6864F31F434C6900EBC404C4F8CF
:100E000040320C89CB6864F31F434C6900EBC40487
:100E1000C4F844328B69002BD0F804320ED013434F
:100E2000C0F804320B69002BD0F8143208D01343F9
:100E3000C0F81432096A012904D008E09343EFE7AF
:100E40009343F5E7D0F81C121143C0F81C12D0F8F8
:100E5000001221F00101C0F80012002010BD0000B6
:100E60000064004070472DE9F05F054600680024EB
:100E70004669D0F804908768D0F80CB0D0F810A07C
:100E8000D0F81880F10748D0F90714D0012181600B
:100E9000B80703D5284600F04CFA0CE0780702D5D5
:100EA0004FF4006407E0380702D54FF4805402E0A5
:100EB000284600F03DFAF80516D529684FF48070F1
:100EC0008860B80503D5284600F035FA0CE07805AF
:100ED00002D544F4005407E0380502D544F48044B8
:100EE00002E0284600F026FAF80316D529684FF4E8
:100EF00080308860B80303D5284600F01EFA0CE065
:100F0000780302D544F4004407E0380302D544F4E2
:100F1000803402E0284600F00FFA300707D55FEA78
:100F2000CB6004D52968102044F40074C8607007B1
:100F30004FF0080707D55FEA0B7004D52868C76033
:100F4000284600F0C3F9B00706D52868C0688007B6
:100F500002D0284600F0BBF9700607D55FEACA60E8
:100F600004D52968102044F480640861B00607D5D0
:100F70005FEA0A7004D528680761284600F0A8F9DE
:100F8000F00606D528680069800702D0284600F0E0
:100F9000A0F9B00308D55FEAC96005D5296810201B
:100FA0004860284600F096F9F00307D55FEA09701B
:100FB00004D528684760284600F0C0F9300446D5BB
:100FC0005FEA497040D5F00504D55FEAC87001D0EA
:100FD00044F00104B00504D55FEA887001D544F0FF
:100FE0000204700504D55FEA487001D544F004049A
:100FF000300529D518F0700F26D008F07000402871
:1010000015D006DC102809D020280AD0302816D1A7
:101010000AE050280ED0602811D10EE044F00804F8
:101020000DE044F010040AE044F0200407E044F02E
:10103000400404E044F0800401E044F48074286833
:10104000816921F070018161296804204860002CC9
:1010500005D0686A204368622846FFF703FFBDE8B1
:10106000F09F70B5040003D094F8200010B104E0A4
:10107000012070BD204600F081F82068016821F051
:101080000201016000F01EFB0546052604E000F0A9
:1010900019FB401B0A2811D8206840688007F6D445
:1010A0002068016841F00101016000F00BFB05467A
:1010B0000BE000F007FB401B0A2806D9606A40F4E9
:1010C0000030606284F82060D2E720684068C00782
:1010D000EFD0207E0128206801683DD021F08001FA
:1010E0000160607E01282068016838D021F040014D
:1010F0000160A07E01282068016833D021F0200122
:101100000160E07E0128206801682ED041F01001C6
:101110000160207F01282068016829D021F00801A2
:101120000160607F01282068016824D021F004015B
:101130000160D4E902010843D4E9041211430843D1
:101140006168491E08432168C8610020606201206F
:1011500084F82000002070BD41F08001C0E741F01C
:101160004001C5E741F02001CAE721F01001CFE7B7
:1011700041F00801D4E741F00401D9E72DE9F04737
:1011800086B0044614216846FFF7AEF84B4B4C4836
:10119000DFF824811968D4F800C00127484A0224E6
:1011A00003250926DFF81C911030491C4FF0000A76
:1011B000C44536D11960012907D1016841F0007199
:1011C0000160006800F000700590106840F00200B7
:1011D00010601068694600F0020005904FF48070BE
:1011E0008DE89100CDE903564F46484600F064F97A
:1011F0004FF400708DE81104CDE903566946384676
:1012000000F05AF900220621132000F0E7FA13201B
:1012100000F0D6FA00220621142000F0DFFA142094
:1012200045E0DFF8A480C44543D1D0F800C04CF0BD
:10123000806CC0F800C0D0F800C001290CF0806CB0
:10124000CDF814C0196007D1016841F00071016048
:10125000006800F000700590106840F00200106017
:101260001068694600F0020005904FF480508DE848
:101270009100CDE903564F46484600F01DF94FF462
:1012800000508DE81104CDE903566946384600F058
:1012900013F9002207213F2000F0A0FA3F2000F0C0
:1012A0008FFA00220721412000F098FA412000F037
:1012B00087FA06B0BDE8F087006400408400002093
:1012C0003038024000040240006800407047704718
:1012D000704770477047000070B5044690F82000D2
:1012E000012804D0606A40F40020606218E0022007
:1012F00084F820002068016821F00101016000F0FD
:10130000E1F905460EE000BF00F0DCF9401B0A28B9
:1013100008D9606A40F400306062052084F820003B
:10132000012070BD20684068C007EDD1606270BDCB
:1013300070477047704770477047704770470000AC
:1013400031B500F0BFF9009C0546601C02D004488E
:101350000078044400F0B6F9401BA042FAD338BD2F
:10136000000000202DE9F047044622480F46017E88
:1013700001290AD00121804601764CF250394846B5
:10138000FFF7D4F9020003D02FE00220BDE8F08778
:101390004FF0FF3038602068174D012801D0A66853
:1013A0001CE0207C6168FFF72FF94846FFF7BEF983
:1013B0000246286820F00400286014E0217C3046B2
:1013C000FFF7CCF84846FFF7B1F90200286820F093
:1013D000FA00286001D03E6005E0761CD4E90210D6
:1013E0000844B042EAD8FFF7E5F8002188F8181061
:1013F0001046CBE7F8000020103C0240034801688B
:1014000041F000410160002070470000103C0240A4
:101410002DE9F0471B4E05461446307E1F4689468F
:10142000012808D0012030764CF250384046FFF7B2
:101430007DF918B114E00220BDE8F0879DB1012DBF
:1014400016D0022D19D022463B464846FFF700F938
:101450004046FFF76BF90C490A6822F001020A6066
:1014600000213176E8E7E1B24846FFF7E1F8EFE71F
:10147000A1B24846FFF702F9EAE721464846FFF7DE
:101480000FF9E5E7F8000020103C02400749002072
:101490000A68002A09DA054A054B0C3A1360054B25
:1014A00013600968002900DA01207047103C0240EF
:1014B00023016745AB89EFCD2DE9FC4FDFF8C0A1D3
:1014C000002301250AF1040B03244FF00F0C0BF14C
:1014D000040ECEE0324605FA03F6324072D04F6871
:1014E000012F05D0022F03D0112F01D0122F17D1B9
:1014F000D0F808905F0004FA07F829EA0809009775
:10150000D1F80C8008FA07F848EA0908C0F8088002
:101510004768B7430E79C6F300169E403E434660C7
:10152000C6684FEA430804FA08F7BE4301978F687C
:1015300007FA08F73743C7604E68022E01D0122E13
:1015400013D1DE0800EB86060096366A5F07FF0EB1
:101550000CFA07F926EA0906D1F8109009FA07F9FA
:1015600049EA0609009EC6F820900668019FBE431E
:101570000F7907F0030707FA08F7374307604E684B
:10158000F60075D53F4E376847F4804737603668B8
:1015900023F0030706F4804600963B4E3E44B146D6
:1015A000D6F808689F074FEA17780CFA08F7BE4389
:1015B000364FB84201D1002729E0354FB84202D159
:1015C000012724E054E0334FB84201D102271EE046
:1015D000314FB84201D1032719E0304FB84201D151
:1015E000042714E02E4FB84201D105270FE02D4FFC
:1015F000B84201D106270AE02B4FB84201D1072794
:1016000005E02A4FB84201D1082700E0092707FA70
:1016100008F73743C9F80878DAF800605746D1F878
:10162000048096435FEAC83800D516433E60DBF875
:1016300000605F46D1F8048096435FEA883800D5A1
:1016400016433E60DEF800607746D1F8048096438A
:101650005FEAC82800D516433E60094F0C373E6844
:10166000D1F8048096435FEA882800D516433E608F
:101670005B1C0A681646DA407FF42CAFBDE8FC8F8D
:10168000003C01404438024000300140000002406C
:101690000004024000080240000C0240001002401A
:1016A0000014024000180240001C024000200240CA
:1016B0000069084000D0012070470AB1816170477D
:1016C0000904FBE701488068704700000000002023
:1016D0000248816802781144816070470000002050
:1016E0000B4810B5016841F400710160016841F4D4
:1016F00080610160016841F480710160032000F0A5
:101700008DF8002000F006F800F03EF8002010BD33
:10171000003C024010B5014688B000221C2000F0B9
:101720005DF81C2000F04CF814480024016841F0DA
:1017300001010160006805A900F0010006906846FB
:1017400000F01CF900F03AF90D494000B0FBF1F14E
:101750000C484FF08042491E026040F2E732C0E977
:101760000324C0E9011400F0F7FB10B1012008B018
:1017700010BD044800F048FCF9E700004038024082
:1017800040420F00944000200C4882B0016841F4B0
:1017900080410160006800F4804000900748001F0D
:1017A000016841F0805101600068002200F0805023
:1017B00000900F21901E02B000F010B84438024093
:1017C000002809DB00F01F02012191404009800040
:1017D00000F1E020C0F8001170470000F0B40E4B9B
:1017E0001B680C46C3F30223C3F10705042D00D97F
:1017F0000425191D072901D2002300E0DB1E012664
:1018000006FA05F1491E214099409E40761E164079
:101810003143F0BC01F0A0BC0CED00E0064900F043
:10182000070208684FF6FF03184040EA0220034A07
:1018300010430860704700000CED00E00000FA055E
:101840002DE9F0470E46050063D0DFF81C81D8F87B
:101850000000F7B200F00F00B04207D288F8007025
:10186000D8F8000000F00F00B04252D128683F4C79
:10187000810712D5400703D5206840F4E05020606E
:101880002878000703D5206840F460402060206875
:10189000A96820F0F000084320602878C0072BD00A
:1018A000324968680839012810D00968022810D028
:1018B000890700292DDA216821F003010143216005
:1018C000FFF700FF814641F2883A0EE0096889037C
:1018D000EFE78901EDE700BFFFF7F4FEA0EB090198
:1018E000514502D90320BDE8F0872068696800F0FF
:1018F0000C00B0EB810FEFD1D8F80010404601F09A
:101900000F01B14207D90770006800F00F00B04224
:1019100001D00120E7E72878400705D52068E9686D
:1019200020F4E050084320602878000706D520689E
:10193000296920F4604040EAC100206000F056F8B8
:101940002168F02292FAA2F201F0F001B2FA82F2DA
:10195000D140074A515CC840064908600648006803
:10196000FFF7D8FE0020BEE7003C024008380240E6
:10197000608E00080C000020040000200F2202608E
:101980000C4A136803F003034360136803F0F00389
:101990008360136803F4E053C36012684FF4E053AC
:1019A00003EAD20202610448006800F00F000860F8
:1019B0007047000008380240003C024008480949CE
:1019C000006809684FF4E05292FAA2F201F4E05183
:1019D000B2FA82F2D140044A515CC840704700001C
:1019E0000C00002008380240708E0008154810B521
:1019F000006810F00C02144813D01449042A0FD0C8
:101A0000082A0ED10F4C241F2268236802F03F02DF
:101A10005B0207D52068C0F38810A0FB010106E037
:101A2000084610BD2168C1F38811A1FB0001002305
:101A3000FEF710FC2168C1F30141491C4900B0FBCD
:101A4000F1F010BD083802400024F400001BB7007C
:101A50002DE9F84F04007DD0DFF818B32078ABF102
:101A60000406C007A6F1040538D0DBF8001058467C
:101A7000C1F38101012907D00068C0F38100022869
:101A800009D13068400206D52868800326D56068F1
:101A90000028E0D022E0B7492079891F08706068EB
:101AA0004FF47A7868B1FFF70DFE074605E000BFF6
:101AB000FFF708FEC01B404576D828688003F7D59D
:101AC0000CE0FFF7FFFD074605E000BFFFF7FAFD5A
:101AD000C01B4045F0D828688003F7D42078DFF891
:101AE000988280074FF0000944D5DBF80010584673
:101AF00011F00C0F4FF0F80A07D00068C0F3810016
:101B0000022809D13068400206D42868800715D51C
:101B1000E06801281ED111E0E068E0B10120C8F8BA
:101B20000000FFF7CFFD074605E000BFFFF7CAFD45
:101B3000C01B0228C0D828688007F7D528689AFA01
:101B4000AAF22169B2FA82F220F0F800914008432B
:101B500028600FE00AE1C8F80090FFF7B3FD0746E0
:101B600005E000BFFFF7AEFDC01B02281CD82868A7
:101B70008007F7D42078000727D5DFF8F8A17F4841
:101B800061690AF16C0A81B101210160FFF79AFDD8
:101B9000074604E0FFF796FDC01B022804D8DAF8D8
:101BA00000008007F6D510E082E0C0F80090FFF753
:101BB00089FD074605E000BFFFF784FDC01B022832
:101BC00076D8DAF800008007F6D4207840075FD591
:101BD000DFF8A0A100270AF1380ADAF80000C000F7
:101BE0000BD4DAF8001041F08051CAF80010DAF88E
:101BF0000000012700F0805000906148016841F426
:101C0000807101600168C90512D4016841F48071D6
:101C10000160FFF757FD009006E000BFFFF752FD9F
:101C20000099401A02287ED855480068C005F5D5AD
:101C30005049207A68310870A06888B1FFF742FDEA
:101C4000009007E0FFF73EFD0099411A4CF250303A
:101C5000814268D84748683000688007F2D510E0B4
:101C6000FFF730FD009007E0FFF72CFD0099411AC7
:101C70004CF25030814256D83E48683000688007A8
:101C8000F2D42FB1DAF8001021F08051CAF8001018
:101C9000A069B8B3DBF80010C1F38101022949D073
:101CA0000228C8F8609004D0FFF70CFD04463DE020
:101CB00039E0FFF707FD074605E000BFFFF702FD2B
:101CC000C01B64282FD828688001F7D4D4E9070105
:101CD0000843616A94F82C20890141EA02610843B3
:101CE000A16A284A490802EB014108433168264AA3
:101CF0001140084330600120C8F86000FFF7E2FCA3
:101D0000044606E034E000BFFFF7DCFC001B64285B
:101D100009D828688001F7D52AE000BFFFF7D2FC78
:101D2000001B642802D90320BDE8F88F28688001D1
:101D3000F4D41DE00128F7D03068E26900F4800196
:101D4000914213D1226A00F03F0191420ED1616AA3
:101D5000C0F38812914209D1A26A00F44031914245
:101D600004D1E16A00F07060884201D00120DBE715
:101D70000020D9E70838024000004742800E474261
:101D8000007000400000FFFF0080BCF02DE9F0472C
:101D90000446007900278A4601280ED001252571C6
:101DA00060794FF00009012809D00420A0600127C4
:101DB00084F804903846BDE8F0870220FBE74FF036
:101DC000020884F80580FFF77DFC06460CE000BFA2
:101DD000FFF778FC801B022806D96571C4F80880DB
:101DE00084F804900120E6E720684068C043C007FB
:101DF000EED120688068E060CAF800006571D7E71E
:101E000010B5044600F10C01FFF7C0FF08B1002037
:101E100010BDE06810BD70B5040003D060790025E6
:101E200010B105E0012070BD2571204600F00CF8CE
:101E3000022060712068016841F004010160012006
:101E40006071A560002070BD08B500680649884231
:101E500008D10648016841F040010160006800F0C7
:101E60004000009008BD00000008065034380240D1
:101E70007047704710B590F83C20012A22D001220B
:101E800080F83C20CA688C6822F4407222434C6877
:101E900022F4806222430C6822F4006222430C691F
:101EA00022F4805222434C6922F400522243C96931
:101EB000002322F480420A4301684A6480F83C30DF
:101EC000002010BD022010BD70B590F83C20012A02
:101ED00032D0012480F83C40022280F83D20036883
:101EE0005A689D6822F070060A6832435A60134BA4
:101EF00002689A4214D0B2F1804F11D0104B9A422E
:101F00000ED0104B9A420BD00F4B9A4208D00F4B79
:101F10009A4205D00E4B9A4202D00E4B9A4204D1FF
:101F2000496825F080031943916080F83D40002105
:101F300080F83C10084670BD022070BD00000140D2
:101F40000004004000080040000C00400004014074
:101F5000004001400018004010B5040003D094F880
:101F60003D0010B107E0012010BD002084F83C00C6
:101F7000204600F01FF8022084F83D00211D206853
:101F800000F05CFF012084F8460084F83E0084F8ED
:101F90003F0084F8400084F8410084F8420084F84F
:101FA000430084F8440084F8450084F83D00002094
:101FB00010BD000008B5114A01681148914207D1CF
:101FC000016841F001010160006800F0010009E0D2
:101FD0000C4A914211D1016841F4803101600068DE
:101FE00000F480300090002205211820FFF7F6FB56
:101FF000BDE808401820FFF7E3BB08BD0000014022
:10200000443802400040014090F83D10012901D0C1
:1020100001207047022180F83D100168CA6842F033
:102020000102CA6000681149884214D0B0F1804FA3
:1020300011D00F4988420ED00E4988420BD00E496C
:10204000884208D00D49884205D00D49884202D007
:102050000C49884204D1816801F00701062903D0A8
:10206000016841F00101016000207047000001405B
:102070000004004000080040000C00400004014043
:10208000004001400018004070B5044690F83C0044
:10209000012817D0012584F83C50022084F83D0027
:1020A0002068826822F0770222F47F42826008680A
:1020B000502830D00DDC20284DD005DC98B31028F6
:1020C0003BD148E0022070BD302844D0402834D1B4
:1020D00039E0602828D0702806D0B0F5805F2CD079
:1020E000B0F5005F29D10AE0CB68D1E90121206871
:1020F00000F015FF2068816841F0770109E0CB68A6
:10210000D1E90121206800F00AFF2068816841F4CC
:102110008041816011E0CA684968206800F0D4FFFE
:102120005021206807E016E0CA684968206800F07E
:10213000DCFF6021206800F0FCFE84F83D500020A8
:1021400084F83C0070BDCA684968206800F0BCFF94
:1021500040212068EFE7226801461046EBE7704710
:1021600070B50446006801694FF00005C94389074E
:1021700015D4C168C943890711D4E91E0161012042
:102180002077206880698007204602D0FFF7E7FFAC
:1021900004E000F0C3F8204600F052F925772068EB
:1021A0000169C943490717D4C168C943490713D412
:1021B0006FF004010161022020772068806910F42B
:1021C000407F204602D0FFF7CAFF04E000F0A6F8E7
:1021D000204600F035F9257720680169C9430907D1
:1021E00016D4C168C943090712D46FF00801016110
:1021F000042020772068C0698007204602D0FFF7BE
:10220000AEFF04E000F08AF8204600F019F92577C7
:1022100020680169C943C90617D4C168C943C90602
:1022200013D46FF010010161082020772068C06985
:1022300010F4407F204602D0FFF791FF04E000F049
:102240006DF8204600F0FCF8257720680169C94345
:10225000C90708D1C168C943C90704D1891E0161F2
:10226000204600F0ABF920680169C943090609D48A
:10227000C168C943090605D46FF080010161204699
:10228000FFF7F6FD20680169C943490609D4C16812
:10229000C943490605D46FF040010161204600F0B2
:1022A000C9F920680169C94389060BD4C168C943CB
:1022B000890607D46FF0200101612046BDE8704017
:1022C000FFF7D7BD70BD000010B586B004461421DD
:1022D0006846FEF709F80E492068884216D10D4875
:1022E0000021026842F001020260006800F0010073
:1022F00005904FF4807000900220CDE9010101208B
:10230000CDE9031069460448FFF7D6F806B010BDC2
:10231000000001403038024000000240704770B5B4
:10232000044690F83C000D4601280AD0012084F8AC
:102330003C0042B1042A18D0082A2AD00C2A4DD1D8
:1023400039E0022070BD206800F0FCFD2068816942
:1023500041F0080181612068816921F004018161F7
:10236000206881692A69114311E0206800F01AFE93
:102370002068816941F4006181612068816921F4EC
:1023800080618161206881692A6941EA0221816155
:1023900024E0206800F03CFE2068C16941F008019B
:1023A000C1612068C16921F00401C1612068C1696F
:1023B0002A69114311E0206800F05EFE2068C169BF
:1023C00041F40061C1612068C16921F48061C1618B
:1023D0002068C1692A6941EA0221C161002084F8AC
:1023E0003C0070BD10B5040003D094F83D0010B15E
:1023F00007E0012010BD002084F83C00204600F0DA
:102400001EF8022084F83D00211D206800F016FD12
:10241000012084F8460084F83E0084F83F0084F8E8
:10242000400084F8410084F8420084F8430084F8B6
:10243000440084F8450084F83D00002010BD70473A
:102440007047000010B50446022249B104290ED09D
:10245000082913D094F84100012816D0012010BD9E
:1024600094F83E000128F9D184F83E200FE094F85A
:102470003F000128F2D184F83F2008E094F84000A2
:102480000128EBD184F8402001E084F841200122AA
:10249000206800F037FD16492068164A884201D0AE
:1024A000904203D1436C43F4004343642068884264
:1024B00013D0B0F1804F10D00F4988420DD00F4992
:1024C00088420AD00E49884207D0904205D00D4973
:1024D000884202D00C49884204D1816801F007018A
:1024E000062903D0016841F001010160002010BD00
:1024F00000000140000401400004004000080040CA
:10250000000C0040004001400018004030B5044677
:1025100000680D0006D0042D08D0082D38D00C2DF1
:1025200008D139E0C16821F0020102E0C16821F060
:102530000401C16000222946206800F0E3FC1D4B25
:1025400041F2111120688A10984202D01A4B984229
:1025500009D1036A0B4206D1036A134203D1436CCB
:1025600023F4004343642068036A0B4206D1016AE6
:10257000114203D1016821F00101016001207DB108
:10258000042D10D0082D11D084F84100002030BD5A
:10259000C16821F00801CCE7C16821F01001C8E74B
:1025A00084F83E00F2E784F83F00EFE784F840004B
:1025B000ECE70000000001400004014010B50446B3
:1025C0000068A0F18041B1F5A03126D11748FFF78E
:1025D00017FC42B24FEAE27C011640F3074302EBDC
:1025E0009C7240F307204FEAE07C921000EB9C7055
:1025F00002EBA000DA1703EB927200EBA200CA17FD
:1026000001EB927100EBA10040B210F17E0FB8BF58
:102610006FF07D0006497F3048632068B0F1804F3D
:1026200018BF10BDBDE81040FFF752B8F43F0020BE
:10263000000001407047FEE77FB500241548009474
:102640000194029412490394C0E900140125056124
:102650008460057680F820402907C162C561491071
:10266000C460816280F830404461FEF78BFA08B1A3
:10267000FDF772FF0A20CDE900056946029405487E
:10268000FEF7D8F9002801D0FDF766FF7FBD0000F6
:10269000002001405C3F0020114810B50F49016047
:1026A0000521416000214FF04072C0E902124FF451
:1026B000E02202614FF4001242610176012242766B
:1026C0008176C17601774177FEF7CBFC002803D0F5
:1026D000BDE81040FDF740BF10BD000000640040A1
:1026E000A43F0020114810B50F4901600521416049
:1026F00000214FF04072C0E902124FF4E022026163
:102700004FF4001242610176012242768176C27650
:1027100001774177FEF7A5FC002803D0BDE8104003
:10272000FDF71ABF10BD000000680040CC3F00203C
:1027300010B5A4B01C221C496846FDF7BCFD002161
:10274000684605F0B6FB194C17491C2220601C3165
:1027500007A8FDF7B0FD002107A805F0AAFB124964
:1027600060601C2238310EA8FDF7A5FD00210EA8DF
:1027700005F09FFB0C49A0601C22543115A8FDF701
:102780009AFD002115A805F094FB0749E0601C2282
:1027900070311CA8FDF78FFD00211CA805F089FBF6
:1027A000206124B010BD0000788E00087000002069
:1027B0002DE9F04786B014216846FDF795FD58488D
:1027C0000024016841F004010160016801F0040186
:1027D0000591016841F080010160016801F080010C
:1027E0000591016841F001010160016801F00101FA
:1027F0000591016841F002010160016801F00201E8
:102800000591016841F0080101600068DFF814914A
:1028100000F008000590002248F2C0714846FEF71B
:102820004CFFDFF804A100224FF4C8615046FEF7C8
:1028300044FFDFF8F880002248F6FF014046FEF72B
:102840003CFF43F63E000326CDE9000669460294AC
:102850004846FEF731FE4FF4804001258DE83100F7
:1028600069464846FEF728FE4FF4044002270394C9
:102870008DE8A10069464846FEF71EFE3F208DE820
:10288000310069465046FEF717FE402003948DE85C
:10289000A10069465046FEF70FFE40F6FF00039484
:1028A0008DE8A10069464046FEF706FE4FF48840D9
:1028B000CDE90006694602944046FEF7FDFDE803B7
:1028C0000090CDE90154694640460394FEF7F4FDBB
:1028D0004FF470700090CDE9015469464846039466
:1028E000FEF7EAFD70020090CDE9015469465046BA
:1028F0000394FEF7E1FD4FF41840CDE90006694668
:1029000002945046FEF7D8FD0420CDE90006694642
:1029100002940748FEF7D0FD06B0BDE8F08700003E
:10292000303802400008024000000240000402402B
:10293000000C0240074910B5054808600846FFF73B
:102940006AFA002803D0BDE81040FDF705BE10BDAF
:1029500000080650F43F002010B596B000240F94F4
:1029600010941194129413941C2108A81494FDF748
:10297000BBFC20216846FDF7B7FC27482549C0E984
:102980000014FF21C0E90241046144618461FFF742
:10299000E3FA08B1FDF7E0FD4FF480500F900FA966
:1029A0001D48FFF771FB08B1FDF7D6FD1A48FFF788
:1029B00019FD08B1FDF7D0FD139413A9164814941E
:1029C000FFF782FA08B1FDF7C7FD6020CDE90804E2
:1029D0000A940B940C940D94002208A90E480E94AE
:1029E000FFF79DFC08B1FDF7B7FD00944FF40050D0
:1029F000CDE9044002940194039469460648079483
:102A0000FFF738FA08B1FDF7A7FD0348FFF75CFCB4
:102A100016B010BD00000140044000201FB5002189
:102A200010480091019102910D4A039102604FF408
:102A3000BB72C0E901210922C0E903218161FFF7CE
:102A40008BFA08B1FDF788FD4FF48050009069467D
:102A50000448FFF719FB002801D0FDF77DFD1FBDDD
:102A6000004001404C400020FEE700F015FF6420CC
:102A700005F013FAF9E701F0E3F91E2005F00DFA6D
:102A8000F9E70000DFF82C81494FDFF82C91DFF8DF
:102A90002CA14B4C4B4D4FEAF83B4FEA4806387897
:102AA000C0F34200022840D2B87840093DD194F8E2
:102AB0002604C007D4F8250400EA08003ED099F89F
:102AC0000010084304D000BFD4F82F04304310E0B6
:102AD000D4F8270430423BD1504603F0DFFE20B14A
:102AE0004FF6FF7001F068FB05E0D4F82F0400EA10
:102AF0000B00C4F82F04D4F82F04304234D05046D1
:102B000003F0CCFE08B100F005FDD4F82F04C0F3AB
:102B10008F2001F051FB00212B48FFF793FC01228D
:102B20004FF400412948FEF7C8FDD4F82F04304285
:102B300026D0287841071FD502211EE00028DAD1CF
:102B400099F800000028BFD1D4F82704304205D0FE
:102B5000504603F0ADFE0028C7D1CCE7504603F045
:102B60009DFE0028C1D0AFE701F050FB00211648C0
:102B7000FFF7CCFC0022D3E7012161F301000EE056
:102B800094F82604C00707D094F82804800703D5DA
:102B9000287840F0030002E0287820F00300287035
:102BA00004F07CFC04F0D8FC7D2005F076F976E793
:102BB0009C00002000FEFF01890000201041002041
:102BC0002A4100208F00002004400020000802401D
:102BD0004FF4967403F054FD01F03AFB204605F0E3
:102BE0005CF9F7E7DFF8D891DFF8D881DFF8D8A1F2
:102BF000764D774E4FEA690B2878C0070BD1D8F88D
:102C00002F2412EA090F06D1D8F8290410EA090F77
:102C100001D1012100E00021D8F833044446C0F37B
:102C20008F2005F081FD2878C0070BD1D4F82F1430
:102C300011EA090F06D1D4F8291411EA090F01D1BC
:102C4000012000E0002001F033FA00F0CFFC03F097
:102C500063FD2878C007D4F83B040DD080B35D48ED
:102C60004FF08062018802EB71214FEAF15101803F
:102C700011F4FC7F1CD023E00028F0D1E87820F08C
:102C800001015448E970027861F3820280F8002063
:102C9000D4F8250410EA0B0F2ED194F82614C80797
:102CA0002AD0D4F82204E0B1401EC4F8220423E064
:102CB00002784FF0004101EBF2014FEA71710170AF
:102CC000E878012101EB900161F38700E870810849
:102CD000DED14FF0004101EB70004FEAF070E87078
:102CE000D6E794F8280420F0020084F8280440086D
:102CF00060F3000184F82614DAF8001011B1491EBF
:102D0000CAF80010002454E0C4EB4410324A00EB2F
:102D100040001044D0F84D304BB15B1EC0F84D3030
:102D2000D0F85110B1B3491EC0F851103FE090F8EF
:102D30004020530602D52B78DB072ED08C4212D2CE
:102D400027460CE0C7EB471000EB400122485D220C
:102D5000084400F15D01FDF7AEFA7F1CFFB2307848
:102D6000401E8742EEDB3078C0EB401000EB4001A4
:102D7000194808445D215D38FDF7B6FA3078401EE9
:102D80003070641E2878E4B2C00704D0134801787C
:102D9000491E01700BE0124906E0110607D522F02A
:102DA000800180F840100D490878401E0870641CAE
:102DB000E4B231788C42A7D30A2005F06EF81BE705
:102DC00000FCFF032A410020DC0000209C000020C2
:102DD000D80000208F00002015580020DA000020C5
:102DE000D900002010B5502080F31188BFF34F8F19
:102DF000BFF36F8F05F06EFF18B104494FF080509C
:102E00000860002080F3118810BD000004ED00E090
:102E10007047000010B50448FFF7A2F9BDE8104064
:102E20000248FFF79DB90000044000204C400020FC
:102E30000148FFF795B9000094400020F0B5026802
:102E4000254C264D264E274F274B4FF0804CA04255
:102E500009D0604507D0A84205D0B04203D0B8429F
:102E600001D0984204D122F0700E4A6842EA0E0264
:102E7000A0421BD0604519D0A84217D0B04215D04F
:102E8000B84213D0984211D0184DA8420ED0184D18
:102E9000A8420BD0174DA84208D0174DA84205D024
:102EA000164DA84202D0164DA84203D122F4407517
:102EB000CA682A434D6922F080022A4302608A6868
:102EC000C2620A688262A04201D0984201D10969B7
:102ED000016301214161F0BD000001400004004098
:102EE00000080040000C0040000401400040014088
:102EF000004401400048014000180040001C004010
:102F00000020004010B501F01F030121046A994020
:102F10008C430462016A9A401143016210BD10B5EE
:102F2000846842EA032224F47F440A4322438260F5
:102F300010BD826822F070020A4342F007018160EE
:102F400070470000F0B5026A22F001020262036AD3
:102F500042688469124E24F073050C682C4323F0F8
:102F600002058B682B430D4DA84201D0B04205D11C
:102F700023F00807CB683B4323F00403A84201D0A9
:102F8000B04205D14D6922F4407215438A692A4343
:102F900042608461496841630362F0BD0000014002
:102FA00000040140F0B5026A22F010020262026AD7
:102FB000436884690D6824F4E64444EA05248D6876
:102FC00022F0200242EA05120F4D104EA84201D015
:102FD000B04206D1CF6822F0800242EA071222F006
:102FE0004002A84201D0B04207D14D6923F44063AA
:102FF00043EA85038D6943EA850343608461496838
:1030000081630262F0BD0000000001400004014045
:10301000F0B5026A22F480720262026A4368C469EF
:1030200022F4007224F073050C68124E2C438D6854
:1030300042EA05220E4DA84201D0B04206D1CF6827
:1030400022F4006242EA072222F48062A84201D000
:10305000B04207D14D6923F4405343EA05138D690B
:1030600043EA05134360C4614968C1630262F0BD6D
:10307000000001400004014030B5026A22F4805291
:103080000262046A4268C3690D6823F4E64343EAB6
:1030900005238D6824F4005444EA0534084DA84201
:1030A00002D0084DA84204D14D6922F4804242EA80
:1030B00085124260C36149680164046230BD00004A
:1030C000000001400004014010B5036A046A24F0C6
:1030D00001040462846924F0F00444EA021423F039
:1030E0000A020A438461026210BD10B5036A23F02C
:1030F000100303628369046A23F4704343EA0232D3
:1031000024F0A00343EA01118261016210BD0000B6
:10311000064B10B501229A60002203E0845C1C601B
:10312000521CD2B28A42F9D3186810BD0030024056
:103130000FB4084B10B504A902AA039800F02CF8AC
:10314000044602A9002000F0C8F9204610BC5DF832
:1031500014FB0000DB3400080907090E002804DB1B
:1031600000F1E02080F80014704700F00F0000F13B
:10317000E02080F8141D704702E008C8121F08C143
:10318000002AFAD170477047002001E001C1121FE8
:10319000002AFBD1704700002DE9FF4F8BB0884615
:1031A0000546002606E025280BD0DDE90D129047E4
:1031B0006D1C761C28780028F5D10FB03046BDE88C
:1031C000F08F0024A146A2460122AE4900E004434C
:1031D00015F8013F203B02FA03F00842F7D12878A6
:1031E0002A2810D06FF02F022878A0F13001092989
:1031F00015D809EB890102EB410144F0020400EB10
:1032000001096D1CF0E758F8041B5FEA010903D5BA
:1032100044F40054C9F1000944F002046D1C2878FC
:103220002E2817D115F8010F44F004042A280ED0D7
:103230006FF02F022878A0F1300109290AD80AEB93
:103240008A0102EB410100EB010A6D1CF2E758F81C
:1032500004AB6D1C28786C280FD006DC4C2817D0E6
:1032600068280DD06A2814D104E0742810D07A2878
:103270000FD10DE044F400140AE044F4801401E09E
:1032800044F440146978814202D104F580146D1C25
:103290006D1C2878692865D006DC00288DD063284D
:1032A00027D0642806D15DE06E2808D073282AD084
:1032B000752877D0DDE90D129047761CE0E0C4F365
:1032C0000250022809D003280DD0D8F80010042895
:1032D0000DD00E6008F10408D2E0D8F80010F21703
:1032E000C1E90062F6E7D8F800100E80F2E70E7030
:1032F000F0E718F8041B8DF8001000208DF801008D
:10330000EB46012003E058F804BB4FF0FF306107A3
:103310004FF0000701D40AE07F1C57450DDA8742C1
:10332000FADB1BF807100029F6D106E07F1C874264
:10333000FCDB1BF807100029F8D1DDE90D23A9EB10
:1033400007008146214600F0B1F83044C61904E078
:10335000DDE90D121BF8010B90477F1EF8D22146C4
:10336000484688E058F8040BC4F302514FF00A0BAA
:10337000032900D100B2042900D140B2002802DAAA
:1033800040422D2102E0210505D52B218DF8241086
:10339000012104E006E0E10710D02021F6E708AFA4
:1033A000089113E058F8040BC4F302514FF00A0BD4
:1033B000032900D180B2042900D1C0B20021EEE778
:1033C0005946FCF7A9FF303107F8011D0028F7D155
:1033D000ADEB070000F1200B600702D524F4803428
:1033E00001E04FF0010ADA4502DDAAEB0B0000E034
:1033F0000020824600EB0B0108980144A9EB010074
:103400000A90E00306D4DDE90D2321460A9800F076
:103410004DF806444FF0000908E009A911F8090029
:10342000DDE90D12904709F10109761C08998945DB
:10343000F3DBE0030CD5DDE90D2321460A9800F00B
:1034400035F8064404E0DDE90D1230209047761C83
:10345000BAF10001AAF1010AF5DC05E0DDE90D127F
:1034600017F8010B9047761CBBF10001ABF1010B83
:10347000F4DC0A982146DDE90D2300F005F8064446
:103480006D1C97E6092801002DE9F041044600254E
:103490001E461746880404D405E039462020B0476C
:1034A0006D1C641EF9D52846BDE8F0812DE9F04178
:1034B000044600251E469046C80301D5302700E08B
:1034C0002027880404D505E041463846B0476D1CE6
:1034D000641EF9D52846BDE8F0810A68531C0B60CC
:1034E0001070704710B50446C07820F0C0008030DE
:1034F00020F03C000C30E070607940F00100607119
:1035000001202071204605F001F82046BDE810405A
:1035100004F0F9BC1FB50020194C009001900290F6
:10352000039094F8360440F0800084F8360403F0E9
:1035300073FFC4F837049DF800109DF8030021F0D4
:1035400018018DF800109DF8021020F0FC0021F009
:10355000F80128318DF80210217F0C30090961F340
:1035600001008DF803009DF8050040F002008DF881
:10357000050001208DF80400684604F0C7FF1FBD58
:103580002A4100201FB50021009101910291039171
:103590000268920B62F35211009141799DF802206A
:1035A00061F3C7028DF80220407941099DF80300BC
:1035B00061F301009DF8001020F0C000803021F080
:1035C000180120F03C008DF800100C308DF803003D
:1035D0009DF8050040F002008DF8050001208DF8EF
:1035E0000400684604F092FF1FBD00002DE9F0477B
:1035F0000025DFF878815E4E5E4C2F464FF4FA7955
:103600004FF00F0A05EB450108EB41008188006887
:10361000FEF74EF8002805EB85000DD000EBC50045
:10362000315C8A0732D5A4F8029041F00101821979
:103630003154C2F805A02CE000EBC5018819D0F880
:103640000120322A14D9A4F80290C0F80170725CEB
:1036500067F3410242F008027254D0F80930ABBB64
:10366000530738D442F004027254C0F809A032E083
:10367000012A06D9D0F809201AB9725C42F0020278
:10368000725450F8011F491C016024E021F002012E
:103690003154315C21F00801CA0862F34101315410
:1036A000C1F340028119C1F80120D1F809201AB1F3
:1036B000521EC1F8092003E0325C22F004023254A9
:1036C000D1F805201AB1521EC1F8052003E0315C83
:1036D00021F0010131546D1CEDB2062D92D3264824
:1036E000264D4FF48041C07EC00723D00E462846A9
:1036F000FDF7DEFF08B9207848B131462846FDF7CE
:10370000D7FFE8B1A08898B1401EA08018E061788A
:1037100001200029A18806D0322901D1677005E077
:10372000491CA1800CE00129FAD960702070ECE7F7
:10373000277005E02846FDF7BBFF70B100206070E0
:1037400060884FF4806150B101222846FDF7B5FF33
:103750006088401E6080BDE8F0870120EFE72846C2
:10376000BDE8F0470022FDF7A8BF0000048F000865
:10377000DC400020880000202A4100200008024090
:103780002DE9F0478AB028216846FCF7ADFD3C4E94
:103790003A483D4C30603B48206001270025CDE988
:1037A00006574FF00E084CF228000595CDE9087831
:1037B000CDE9000502AA03A904959246894633483B
:1037C000FCF7DCFF69463068FDF7C6FA0095CDE9E5
:1037D00004780195524649464FF04040FCF7CEFF31
:1037E00069462068FDF7B8FA294D0F200590E87862
:1037F000B90700F0030041EA006081B2000CCDE996
:103800000001524649464FF04340FCF7B7FF694676
:103810002068FDF7A1FA102005902868A978C0F368
:103820004D104001C90840EAC14040F0004081B25B
:10383000000CCDE90001524649461648FCF79EFFB0
:1038400069462068FDF788FA02213068FDF772FAB0
:1038500001213068FDF76EFA10212068FDF76AFA41
:1038600001212068FDF766FA3068FDF735FD206814
:10387000FDF732FD0AB0BDE8F0870000A43F00204C
:10388000D0000020CC3F0020CC0000200000F8C079
:103890002A410020E0FFFFC02DE9F04F8DB04FF02E
:1038A000000ACDF818A0CDF81CA0CDF814A0CDF8D2
:1038B00020A0CDF804A0CDF808A0FE48CDF80CA0BB
:1038C00007260168DFF8F093DFF8F0B30091DDE13F
:1038D000F84D95F8260440F0010085F826044FF4D1
:1038E000FA70C5F822049DF81700C0F3830006287B
:1038F000EDD2DFE800F036373B0343F69DF81800C1
:103900000028E4D09DF81900C10705D095F82814C7
:1039100041F0020185F8281495F82814890712D57A
:10392000410707D5D5F82924012161F39922C5F86B
:10393000292408E0010706D5D5F82D14012262F3E9
:103940009921C5F82D148007C1D595F8360440F0AB
:10395000800085F83604FFF7DDFD03F05DFDC5F856
:10396000370493E101208BF801008FE195F82804DA
:103970008007ACD501208BF8000087E1D5F8291429
:10398000CF480142EED19DF8030020F03C011431F4
:103990009DF819008DF80310820807D010F003027B
:1039A00078D0012A75D0022A91D1D4E021F03C00D0
:1039B00014308DF8030004208DF8040000208DF8E9
:1039C000050055F81A0FCDF80600A888ADF80A00D2
:1039D000A8798DF80C00684604F092FD002052E0B2
:1039E0009DF803108DF8046021F03C0114318DF82E
:1039F00003109DF80510421C21F00301D7B267F3B4
:103A000087018DF80510C0EB401000EB400101EB81
:103A1000090590462868CDF80600A888ADF80A0088
:103A2000A8798DF80C00684604F06AFD002423E0B4
:103A30009DF803008DF8046020F03C0014308DF8F0
:103A400003009DF8050020F00300401C67F3870089
:103A50008DF80500C4EBC400284450F8071FCDF8CA
:103A600006108188ADF80A1080798DF80C00684640
:103A700004F046FD641CE4B26878C0F34400A04240
:103A8000D6D808F0FF008F490978884228D2A7E7E6
:103A900000E027E0B5F81B20C2F38512B2EB900FCF
:103AA0001ED321F03C0114318DF803108DF8046011
:103AB0009DF8051060F30101800860F3870105EBB4
:103AC00080108DF8051050F81E1DCDF80610818865
:103AD000ADF80A1080798DF80C00684604F010FDEE
:103AE000D4E078E0B5F81B10C1F38511B1EB900F6D
:103AF00070D3002423E000BF9DF803008DF804601C
:103B000020F03C0014308DF803009DF8050061F3AF
:103B1000010063F387008DF80500C4EBC400104476
:103B200050F8161DCDF806108188ADF80A1080797E
:103B30008DF80C00684604F0E3FC641CE4B29DF8C8
:103B400019108B0805EB831212F81D0CC0F344000A
:103B5000A0423FD9D0E7B5F81B10C1F38511B1EBF6
:103B6000900F37D300244F4628E000BF9DF8032074
:103B70008DF8046022F03C0214328DF803209DF889
:103B8000052061F3010260F38702C0EB401000EBF7
:103B900040003844C4EBC40108448DF8052050F8B7
:103BA0003A1DCDF806108188ADF80A1080798DF89D
:103BB0000C00684604F0A4FC641CE4B29DF81910E3
:103BC000880805EB801212F81D2CC2F34402A242B1
:103BD0005CD9CBE72EE0D5F82914394801427FF4AF
:103BE000C1AE9DF8181029B39DF8190082084DD177
:103BF000B5F81B20C2F38512B2EB900F46D310F03C
:103C0000030202D0012A41D115E09DF81A00A876DE
:103C10009DF81B00E97E60F30001E9769DF81C0029
:103C20000109287F61F3051028770109E87861F31D
:103C30000100E8702AE09DF81A20EB7E02F01F02D6
:103C4000C3F344039A4221D8BDF81E30C3F30513D1
:103C5000322B1BD8DDF81A30BDF81C40C3F38B1390
:103C6000C4F38B04A34211D807290FD3800805EBB6
:103C70008010C2EBC2010844DDF81A1040F81D1D87
:103C8000BDF81E1081809DF82010817105A802F0FA
:103C900019FE00287FF41CAE064F97F82804800711
:103CA0001BD5D7F8290406493C46084215D19DF892
:103CB000141009E02A41002015580020D4000020EB
:103CC00000FCFF03D8000020C1F3C10102292BD062
:103CD0000129D4F825142DD030E08BF800A000BFC6
:103CE0009BF80110C1B18BF801A09DF8030020F0F2
:103CF0003C00001D8DF8030006208DF804004B48A1
:103D000003F074FBD7F81200CDF80500F88AADF87F
:103D10000900684604F0F4FB46484549006804F091
:103D200079FC0DB0BDE8F08FD4F82514012262F3C0
:103D3000582101E0404A1140C4F82514D4F8272442
:103D4000C1F34F21C2F38F2211439BF803205D463C
:103D5000914204D1AA78C0F38F23934202D0E97034
:103D6000800AA87031480322211DC01FFCF7C7FA42
:103D700040B1A088A4F80B00A07960730021084628
:103D800004F006FC00242D4E34E000BFC4EB4410C8
:103D900000EB400101EB0900D0F84710026CC1F3C1
:103DA0001321C2F31322914215D1D0F84910D0F853
:103DB0004220090BB1EB123F0DD190F8471090F85B
:103DC0004020C1F38013C2F3801C634503D1C909AD
:103DD000B1EBD21F0CD050F83F1FC0F807108188FC
:103DE000A0F80B10817941732146012004F0D0FB2B
:103DF000641CE4B230788442C8D3287800283FF4A9
:103E00006FAF85F801A085F800A00021012004F023
:103E1000BFFB002405E02146012004F0B9FB641C2F
:103E2000E4B230788442F6D35AE700003C410020E7
:103E3000B2000020CC000020FF0100FED8000020CE
:103E40001FB502F0CFFD14484168E1B9002100918F
:103E50000191029103910F2141609DF802109DF89C
:103E6000030021F0F80128318DF802100B4920F0F1
:103E7000FC00001D097F090961F301008DF80300B2
:103E8000684604F043FB07480549006804B0BDE8F4
:103E9000104004F0BFBB0000D80000202A410020E1
:103EA000C2000020D00000202DE9F041FCF7ACFC5E
:103EB0004FF4FA70FDF744FA564CA07C20F01F0036
:103EC000801CA074608A20F4F070603060825248D8
:103ED0000168801D21600378451E2A7800782D78BE
:103EE0000602B4F8130066F34B0005EB500565F3CA
:103EF0004B0002EB032262F34B00474AA4F8130085
:103F0000121D1378E27E1E2563F34502E276A37844
:103F1000B5EBD30F12D2042363F352112160A178C1
:103F200021F0F8012031A170E17821F00301491C52
:103F300041F0C001E17022F03E01E176E17E11F036
:103F40003E0F02D021F03E01E176C0F34A0140F27B
:103F5000E272914203D3A1F5E062FF3A05D140F24B
:103F6000E47161F34B00A4F813002B4D1035284683
:103F700000F0CEF890B100F05DF8284800263546F4
:103F80000670207F0109E07861F30100E070B4F869
:103F90001B002349C0F38510087027E01D484FF42B
:103FA000816629461A3032460546FCF784F93246C6
:103FB00029461C48FCF77FF9DFE700BFC5EB451039
:103FC00000EB4002184804EB8511104407464022DC
:103FD0002231FCF770F917F8400F6D1C20F08000BB
:103FE00040F040003870C7F80D60EDB2B4F81B0027
:103FF000C0F38510A842E1D804F07AFB02F0C2FABF
:104000000A48FCF72BFEFFF7BBFBBDE8F041084870
:10401000FDF7FABF2A410020F0BF00088E00002003
:10402000D80000206D450020155800205C3F00207E
:104030004C40002030B51D4864238376B0F81B1037
:1040400021F47C61A0F81B10017F21F030011031B8
:104050000177C17E002221F03E01C1761FE000BF42
:1040600000EB821101F8223F4C7824F03F04083421
:104070004C7043F6FF74A51A0C6865F39B3441F845
:10408000054B40F2E27511F8024924F01F04641D4B
:104090008C700C88521C65F30F140C80D2B2B0F8EF
:1040A0001B10C1F385119142DAD830BD2A4100209E
:1040B00070B5002823D0124C207800281FD1114958
:1040C0004FF481652A460E4601F22940FCF717F9A4
:1040D000002814D002F088FB002810D102202070A4
:1040E0002A463146084802F085FB08B1012005E068
:1040F0002A4631460548FCF7DEF80020207070BDE6
:104100008E0000204441002000C000086D450020C2
:1041100030B50178FF2948D0B0F80110C1F38511FE
:10412000102942D8417811F03E0F3ED1002234E0F0
:104130004178C1F34401042937D8002126E000BFAB
:1041400000EB8213C1EBC10423441C7C491C04F026
:104150001F048C4229D11C8A9D7C44EA05445D8A57
:10416000C4F38B14C5F38B05AC421ED89C8AC4F3F0
:104170000514322C19D85C7DC4F38204042C14D8A5
:104180001B7CC3F340130F2B0FD0C9B24378C3F38A
:1041900044038B42D4D8521CD2B2B0F80110C1F300
:1041A00085119142C4D8002030BD012030BD00E00F
:1041B00000BF401EFCD1704730B51249124AD1F8F9
:1041C00025544FEAF23415420A46D2F82F34D2F879
:1041D000272460F39923C1F82F3408D02240C1F876
:1041E0002724D1F83104920A62F3992007E0980A53
:1041F00060F39922C1F82724D1F831042040C1F896
:10420000310430BD2A41002000FEFF010D480E4A56
:10421000D0F82514114213D1D0F82F144FEAF232FE
:104220001140C0F82F148A0AD0F8271462F399219C
:10423000C0F82714D0F83114044A1143C0F83114DF
:10424000704700002A41002000FEFF0100FCFF0330
:104250002DE9F04F87B01C216846FCF745F8DFF8E0
:10426000D093F44F99F80000C0F3420078B1DFF822
:10427000C8A30A25012876D0AAF5B966A6F28C58FB
:10428000022871D0032842F0FC8001F0DBBA02F072
:1042900079F901210020FCF78FFAE84DE84ED5F8B6
:1042A0002F04304201D0E7A00CE095F828048007E5
:1042B00001D5ECA006E095F82604C00701D0F2A0D5
:1042C00000E0FAA0FCF766FB01217F20FCF774FAFE
:1042D000D5F81300EB7D020BFCA16846FEF728FF22
:1042E0006846FCF761FB02F0B7FD99F801004C4607
:1042F00000F00F01B1EB101F7ED9F6490978B1EB40
:10430000101F66D94FF002014FF02900FCF754FA54
:1043100060780009C0EB401000EB40003844B0F872
:10432000031000680B09C0F38D32EBA16846FEF75D
:10433000FFFE6846FCF72EFB03212920FCF73CFA20
:1043400060780009C0EB401000EB4000384490F862
:104350004000410609D4E078C007E4A01DD000BFAA
:10436000FCF733FB1BE0B4E0F2E3010604D4E07891
:10437000C007E5A0F4D110E0C0F3011030B101286E
:1043800006D0022806D0032809D105E0E5A004E004
:10439000EBA002E0F1A000E0F8A0FCF7FBFA04219A
:1043A0002920FCF709FA6078FBA10009C0EB401056
:1043B00000EB400038444078C0F344026846FEF702
:1043C000B7FE6846FCF7E6FA05212920FCF7F4F968
:1043D00064E04FF002014FF0290030D1FCF7ECF916
:1043E000F4A0FCF7D7FA03212920FCF7E5F9F8A09F
:1043F000FCF7D0FA042100E052E02920FCF7DCF9B8
:10440000F8A0FCF7C7FA05212920FCF7D5F9A07818
:104410004009E87E4FEAC0700CD00028E0784FEAEF
:10442000C07002D038B1F5A001E030B1F9A0FCF7BE
:10443000CCFA47E008B1F1A020E0F6A01EE0FCF7BE
:10444000BBF9F9A0FCF7A6FA03212920FCF7B4F97F
:10445000FBA0FCF79FFA04212920FCF7ADF9FDA091
:10446000FCF798FA05212920FCF7A6F9A078400965
:1044700014D0D5F82B04304203D0FBA0FCF78AFA05
:1044800020E0E07881074FEAC07003D50028FAA049
:10449000CDD1F3E70028FCA0C9D1EFE7FEA0EDE7FE
:1044A0000024A01CC1B22920FCF786F900250020B9
:1044B000FCF79AFA6D1CEDB2592DF8D3641CE4B2E6
:1044C000042CEED306212920FCF776F9F2A001F0A6
:1044D000FDBE02F09FF801210020FCF76DF999F86C
:1044E0000100B8460009C0EB401000EB400101EBB1
:1044F00008004E4690F84000010608D4400608D552
:10450000F078C007ECA01AD0FCF75FFA19E041067A
:1045100004D4F078C007ECA0F6D110E0C0F301108D
:1045200030B1012806D0022806D0032809D105E0C1
:10453000E9A004E0EDA002E0F0A000E0F4A0FCF7A8
:1045400029FA5CA0FCF726FA0024B146A61CF1B2B9
:104550000020FCF731F999F800104846C1F34201F8
:1045600001440979A14209D199F80200ECA100F0B7
:104570001F026846521CFEF7DBFD31E0827899F895
:10458000010002F01F022244511A0009CFB2C0EB11
:10459000401000EB400101EB08004078C0F34400FC
:1045A000B84243D97A1CDEA16846FEF7C1FD99F8EE
:1045B0000310C90718D099F801000009C0EB40109A
:1045C00000EB400101EB0800016CC1F31322012153
:1045D000B9400A4204D1D0F8420011EA103F03D09A
:1045E0006846FCF7F2F903E04FEA0D00FCF7D2F958
:1045F000F1B22720FCF7E0F8FF20FCF7F5F90020E6
:10460000FCF7F2F9641CE4B2052C9FD399F803007F
:10461000C0070CD009484E46D0F83B2499F8010059
:104620000109012000FA01F31A427FE104E2FDE1F1
:104630009C000020155800207C9A00082A41002088
:1046400000FCFF03E7E0F9E8F2E020202020202032
:10465000202020202020202020202020202020205A
:1046600020202000E0EAF2E8E2E8F0EEE2E0ED20CF
:10467000202020202020202020202020202020203A
:104680002020202020000000EFEEE4EAEBFEF7E51A
:10469000ED2020202020202020202020202020204D
:1046A000202020202020202020200000EEE6E8E42A
:1046B000E0EDE8E5202020202020202020202020E0
:1046C00020202020202020200000000025753A25F1
:1046D00030327500D80000202020204E253035755E
:1046E000282530347529202020202000EFEEF1F21B
:1046F000EEF0EEEDEDE8E920202020202020202023
:104700002020202020200000EEF2F1F3F2F1F2E26E
:10471000F3E5F2202020202020202020202020202F
:1047200020202000EDE520E0EAF2E8E22E20202023
:104730002020202020202020202020202020200099
:10474000EEE6E8E4E0EDE8E520202020202020202F
:10475000202020202020202020202000E7E0F9E851
:10476000F2E02020202020202020202020202020B7
:10477000202020202020202020000000EDE0F1F269
:10478000F0EEE9EAE0202020202020202020202038
:104790002020202020000000EAE0EDE0EBEEE23AED
:1047A00020257520202020202020202020202020AF
:1047B00020200000202020202020202020D0E5E6FE
:1047C000E8EC202020202020202020202020200075
:1047D00009E4E8F1F2E0EDF6EEEDEDEEE3EE202097
:1047E0002020000020202020F3EFF0E0E2EBE5EDB8
:1047F000E8FF3A2020202020202000002020202236
:10480000E8ECEFF3EBFCF1EDFBE922202020202087
:104810000000000022F1F3F5EEE920EAEEEDF2E00F
:10482000EAF22220000000002020202020CAE0EB35
:10483000E8E1F0EEE2EAE020202020200000000085
:104840002009EFEEE4EAEBFEF7E5EDEDFBF52020C5
:1048500020000000202020202020202020E1EBEE5E
:10486000EAEEE22020202000EAE0EBE8E1F0EEE2D0
:10487000EAE02E2E2E200000202020F1E1F0EEF1C3
:10488000E8F2FC3F20202000EAE0EBE8E1F0EEE275
:10489000E0F2FC3F0000000020202020202020200B
:1048A0002020202020202020202020202020202008
:1048B0002020202020000000EEF2F1F3F2F1F2E2DD
:1048C000F3E5F22000000000EFEEF1F2EEF0EEED85
:1048D000EDE8E92000000000EDE520E0EAF2E8E282
:1048E0002E2020202020202000000000E220EEE6E4
:1048F000E8E4E0EDE8E8202020200000E220F0E0FD
:10490000E1EEF2E520202020202020200000000001
:10491000EDE0F1F2F0EEE9EAE020202020200000B6
:10492000EAE0EDE0EB253275000000007ED0C1EB3F
:10493000411101EB41024244B378126C03F01F03B2
:10494000C2F313229840024270D0D3460027AA46F1
:10495000B81CC1B22920FBF72FFF07EBC7000024CA
:1049600000EB071570780009C0EB401000EB400128
:10497000B078414400F01F00C0EBC0000844291982
:104980004089C0F38510B0FBFAF0C0EB001000EBDB
:1049900080005844405CC043C0B2FCF725F8641C5A
:1049A000E4B2192CDED30020FCF71EF80020FCF73F
:1049B0001BF80020FCF718F80020FCF715F87F1C06
:1049C000FFB2032FC4D305212920FBF7F5FEFE48D3
:1049D0000121D0F83304C0F38F22707800098140A0
:1049E0000A42C0EB40102AD0B17800EB40004446A8
:1049F00001F01F012044C1EBC1010144C91D02F0B7
:104A000011FD7078B1780009C0EB401000EB400058
:104A100001F01F012044C1EBC1010844B0F823108C
:104A20004089C1F34513C0F3851200E01CE0E7A103
:104A30006846FEF77DFB13E0AFF2A410D6E500EB6D
:104A4000400101EB0800B17801F01F01C1EBC10189
:104A50000844E1A14089C0F385126846FEF768FB6F
:104A60006846FBF7B2FF88E0AB4600264D46B01C17
:104A7000C1B22920FBF7A0FE06EBC600002400EB24
:104A8000061768780009C0EB401000EB400000EB0F
:104A90000801A87800F01F00C0EBC00008443919D5
:104AA0004089C0F38510B0FBFBF0C0EB001000EBB9
:104AB00080005044405CFBF797FF641CE4B2192C63
:104AC000DFD30020FBF790FF0020FBF78DFF0020D5
:104AD000FBF78AFF0020FBF787FF761CF6B2032E58
:104AE000C5D305212920FBF767FEB7480121D0F87F
:104AF0003304C0F38F226878000981400A42C0EB7A
:104B0000401026D0A97800EB4000444601F01F0178
:104B10002044C1EBC1010144C91D02F083FC687847
:104B2000A9780009C0EB401000EB400001F01F0124
:104B30002044C1EBC1010844B0F823104089C1F3FF
:104B40004513C0F38512A1A16846FEF7F1FA11E002
:104B50009FE000EB400101EB0800A97801F01F0184
:104B6000C1EBC10108449CA14089C0F3851268468D
:104B7000FEF7DEFA6846FBF70DFF99F80300994A45
:104B80004E46C0074DD09048D0F83B1470780309CA
:104B9000012000FA03F4214243D0B17801F01F0153
:104BA0008840C3EB431101EB410341460B44D3F86A
:104BB000423010EA133F34D0002490468A46A01CAD
:104BC000C1B24620FBF7F8FD0025C4EBC40770789E
:104BD0000009C0EB401000EB4001B078514400F0F8
:104BE0001F00C0EBC0000844007BC0F38200C0EB94
:104BF000C00108EB411005EBC701405CC043C0B2E7
:104C0000FBF7F2FE6D1CEDB2382DE0D30020FBF770
:104C1000EBFE0020FBF7E8FE641CE4B2042CCED3CC
:104C200031E000249246A01CC1B24620FBF7C4FD2F
:104C30000025C4EBC40770780009C0EB401000EBFE
:104C4000400101EB0800B17801F01F01C1EBC10187
:104C50000844007BC0F38200C0EBC0010AEB4111A5
:104C600005EBC700085CFBF7BFFE6D1CEDB2382DED
:104C7000E1D30020FBF7B8FE0020FBF7B5FE641C73
:104C8000E4B2042CCFD306212E20FBF795FD56A0CD
:104C90001DE401F091FC99F80210480907D00128A1
:104CA0007ED002287DD0032841F0EB83FDE399F804
:104CB000010001F01F010009C0EB401000EB4000B3
:104CC0003844C1EBC10101444C46C91D02F0AAFBA6
:104CD00001210020FBF770FD4BA0FBF776FE0121C0
:104CE0002920FBF769FDFF20FBF77EFE0020FBF784
:104CF0007BFE45A0FBF74EFE0020FBF775FE44A0AF
:104D0000FBF748FE02210020FBF756FD43A0FBF70E
:104D100041FE02212920FBF74FFDFF20FBF764FE37
:104D20000020FBF761FE0026A8466078A178000904
:104D3000C0EB401000EB400001F01F013844C1EB14
:104D4000C101084455464089C0F38511B1FBF8F014
:104D5000C0EB001000EB80002844805DFBF744FEB0
:104D6000761CF6B2192EE0D300260020FBF73CFE9D
:104D7000761CF6B20C2EF8D3DFF8ACA0002600BFEC
:104D80001AF80600FBF730FE761CF6B20A2EF7D3AF
:104D9000002660780009C0EB401000EB400001E005
:104DA00093E1B3E2A178384401F01F01C1EBC101E6
:104DB0000844B0F82300C0F34511B1FBF8F0C0EB94
:104DC000001000EB800031E02A41002025303275D0
:104DD0002F2530327500000020202025303275202C
:104DE0002020200054900008202020202020202077
:104DF00020202020202020202020202020202020B3
:104E00002020202000000000D3F0EEE2E5EDFC00C1
:104E1000F1E8E3EDE0EBE02020000000D1EFE5EA6F
:104E2000F2F0202000000000BF9C00082844805DB4
:104E3000FBF7DAFD761CF6B2192EAAD30026002065
:104E4000FBF7D2FD761CF6B20C2EF8D30020FBF750
:104E5000CBFD03210020FBF7AFFCFEA0FBF79AFD82
:104E600003212920FBF7A8FCFF20FBF7BDFD002054
:104E7000FBF7BAFDBB460026474660780009C0EB49
:104E8000401000EB4001A078594400F01F00C0EB37
:104E9000C00008444089C0F38510B0FBF7F0C0EBB8
:104EA000001000EB800028443044407EFBF79CFD5E
:104EB000761CF6B2192EE0D36078D8460009C0EB14
:104EC000401000EB400101EB0800A17801F01F0148
:104ED000C1EBC1010844E2A14089C0F385126846D4
:104EE000FEF726F96846FBF755FD00260AEB06009B
:104EF000807AFBF779FD761CF6B20A2EF6D30026EF
:104F000060780009C0EB401000EB400101EB0800A5
:104F1000A17801F01F01C1EBC1010844B0F82300E2
:104F2000C0F34510B0FBF7F0C0EB001000EB8000C1
:104F300028443044407EFBF757FD761CF6B2192E0C
:104F4000DED360780009C0EB401000EB400101EBBC
:104F50000800A17801F01F01C1EBC1010844C0A104
:104F6000B0F82300C0F345126846FEF7E1F8684642
:104F7000FBF710FD0020FBF737FD04210020FBF7B5
:104F80001BFCB9A0FBF706FD04212920FBF714FC4C
:104F9000FF20FBF729FD0020FBF726FDC346002676
:104FA000B8466078A1780009C0EB401000EB4000E3
:104FB0005F4601F01F013844C1EBC101084440893C
:104FC000C0F38511B1FBF8F0C0EB001000EB8000DE
:104FD0002844304490F83200FBF706FD761CF6B208
:104FE000192EDED300260020FBF7FEFC761CF6B25D
:104FF0000C2EF8D35FF000060AEB0600007DFBF7ED
:10500000F3FC761CF6B20A2EF6D3BA4600264746C3
:1050100060780009C0EB401000EB400101EB0A0092
:10502000A17801F01F01C1EBC1010844B0F82300D1
:10503000C0F34510B0FBF7F0C0EB001000EB8000B0
:105040002844304490F83200FBF7CEFC761CF6B2D0
:10505000192EDDD300240020FBF7C6FC641CE4B24B
:105060000C2CF8D30020FBF7BFFC05210020FBF738
:10507000A3FB00240020FBF7B7FC641CE4B2292C3E
:10508000F8D3FF20FBF7B0FC2A240020FBF7ACFC90
:10509000641CE4B2802CF8D306210020FBF78CFBC3
:1050A00000240020FBF7A0FC641CE4B2292CF8D3F8
:1050B000FF20FBF799FC2A240020FBF795FC641CD9
:1050C000E4B2802CF8D301F0DCB901210020FBF719
:1050D00073FBAFF2CC20FBF75DFC01212920FBF72D
:1050E0006BFBFF20FBF780FC0020FBF77DFC61A041
:1050F000FBF750FC02210020FBF75EFBAFF2E4203F
:10510000FBF763FC02212920FBF756FBFF20FBF78E
:105110006BFC00254C466078A1780009C0EB40107C
:1051200000EB400001F01F013844C1EBC10108440D
:10513000007BC0F3820000EB800101EB401006EB26
:10514000C000405DFBF750FC6D1CEDB24A2DE2D370
:1051500000250020FBF748FC6D1CEDB20C2DF8D3A8
:1051600003210020FBF728FB3AA0FBF713FC0321E7
:105170002920FBF721FBFF20FBF736FC0025607898
:105180000009C0EB401000EB4000C119A07800F00E
:105190001F00C0EBC0000844007BC0F3820000EB9E
:1051A000800101EB401006EBC000284490F84A0053
:1051B000FBF71AFC6D1CEDB24A2DE0D30025002050
:1051C000FBF712FC6D1CEDB20C2DF8D3042100206E
:1051D000FBF7F2FA24A0FBF7DDFB04212920FBF703
:1051E000EBFAFF20FBF700FC00256078A1780009AE
:1051F000C0EB401000EB400001F01F013844C1EB50
:10520000C1010844007BC0F3820000EB800101EB88
:10521000401006EBC000284490F89400FBF7E4FB34
:105220006D1CEDB24A2DE0D300250020FBF7DCFB1E
:105230006D1CEDB20C2DF8D305210020FBF7BCFA54
:1052400000250020FBF7D0FB6D1CEDB2292DF8D313
:10525000FF2019E0C4EEEFF3F1EA20200000000087
:105260002530327500000000CFEEF0EEE3E820209C
:1052700000000000D1EFE5EAF2F020F1E8E3EDE014
:10528000EBE0202000000000FBF7AEFB002560787B
:10529000A1780009C0EB401000EB400001F01F01B5
:1052A0003844C1EBC1010844007BC0F3820000EB2D
:1052B000800101EB401006EBC000284490F8DE00AE
:1052C000FBF792FB6D1CEDB24A2DE0D300240020C9
:1052D000FBF78AFB641CE4B20C2CF8D306210020F7
:1052E000FBF76AFA00240020FBF77EFB641CE4B2A3
:1052F000292CF8D3FF20FBF777FB2A240020FBF7AB
:1053000073FB641CE4B2802CF8D3DCE6012100209E
:10531000FBF752FAAFF21050FBF73CFB01212920BA
:10532000FBF74AFAFF20FBF75FFBFEA0FBF732FB1F
:1053300002210020FBF740FAAFF22050FBF72AFBD6
:1053400002212920FBF738FAFF20FBF74DFBFAA0DA
:10535000FBF720FB03210020FBF72EFAAFF20C1025
:10536000FBF733FB03212920FBF726FAFF20FBF78D
:105370003BFB00240020FBF737FB641CE4B2142C39
:10538000F8D3AA46002645464C46D0466078A17818
:105390000009C0EB401000EB400001F01F01384451
:1053A000C1EBC1010844B0F80B00C0F30511B1FB1B
:1053B000F8F0C0EB001005EB4000805DFBF714FB3C
:1053C000761CF6B20A2EE0D3BA460026474660782D
:1053D000B8460009C0EB401000EB400101EB0A00A9
:1053E000A17801F01F01C1EBC1010844B0F80B0026
:1053F000C0F30512B2FBF7F107FB1120C0EB001060
:1054000005EB4000805DFBF7EFFA761CF6B20A2E42
:10541000DDD30020FBF7E8FA0020FBF7E5FA0020D7
:10542000FBF7E2FAC94F0026B85DFBF7DDFA761C00
:10543000F6B20A2EF8D35A260020FBF7D5FA761CCE
:10544000F6B2802EF8D304210020FBF7B5F9AFF2B5
:10545000E810FBF79FFA04212920FBF7ADF9FF20A4
:10546000FBF7C2FA00260020FBF7BEFA761CF6B264
:10547000142EF8D3C3460026AA46A046B44C98F88A
:10548000011098F802000909C1EB411101EB41013B
:1054900000F01F002144C0EBC0000844B0F80B002E
:1054A000C0F30510B0FBFBF000E0D2E0C0EB001150
:1054B0000AEB41003044807AFBF796FA761CF6B28C
:1054C0000A2EDBD3A3460026554644464FF00A0871
:1054D00060780009C0EB401000EB400101EB0B00CD
:1054E000A17801F01F01C1EBC1010844B0F80B0025
:1054F000C0F30512B2FBF8F008FB1020C0EB00105F
:1055000005EB40003044807AFBF76EFA761CF6B269
:105510000A2EDBD30020FBF767FA0020FBF764FAC2
:105520000020FBF761FA0026B819BA46807AFBF72B
:105530005BFA761CF6B20A2EF6D35A260020FBF749
:1055400053FA761CF6B2802EF8D305210020FBF723
:1055500033F900260020FBF747FA761CF6B2292E15
:10556000F8D3FF20FBF740FA00260020FBF73CFAB7
:10557000761CF6B2142EF8D3002647466078A17840
:105580000009C0EB401000EB4000D84601F01F01BD
:105590004044C1EBC1010844B0F80B00C0F3051052
:1055A000B0FBF7F0C0EB001005EB40003044007D8D
:1055B000FBF71AFA761CF6B20A2EDFD300266078C3
:1055C0000009C0EB401000EB400101EB0800A1789E
:1055D00001F01F01C1EBC1010844B0F80B00C0F39A
:1055E0000510B0FBF7F107FB1100C0EB001005EB55
:1055F00040003044007DFBF7F7F9761CF6B20A2E26
:10560000DDD30020FBF7F0F90020FBF7EDF90020D7
:10561000FBF7EAF9002455462819007DFBF7E4F969
:10562000641CE4B20A2CF7D35A240020FBF7DCF9FF
:10563000641CE4B2802CF8D306210020FBF7BCF8F0
:1056400000240020FBF7D0F9641CE4B2292CF8D325
:10565000FDE399F8010001F01F010009C0EB4010C3
:1056600000EB40003844C1EBC10101444C46C91D68
:1056700001F0D8FE01210020FBF79EF8AFF678007C
:10568000FBF788F901212920FBF796F8FF20FBF7AB
:10569000ABF930A0FBF77EF96846FBF77BF90221F6
:1056A0000020FBF789F8AFF68C00FBF773F90221B5
:1056B0002920FBF781F8FF20FBF796F96078A178A5
:1056C0000009C0EB401000EB400001F01F0138441E
:1056D000C1EBC101084425A1B0F80900C0F38B0259
:1056E0006846FDF725FD6846FBF754F903210020C5
:1056F000FBF762F8AFF2A440FBF74CF90321292035
:10570000FBF75AF8FF20FBF76FF96078A1780009E2
:10571000C0EB401000EB400001F01F013844C1EB2A
:10572000C1012DE0202020CFEEE3F0E5F8EDEEF111
:10573000F2FC2020202020002020202020EDE0E38B
:10574000F0F3E7EAE820202020202000A19C0008B8
:1057500015580020202020202020CDE0E3F0F3E7A2
:10576000EAE02020202020200000000020CCE0EAF9
:10577000F1E8ECF3EC2025303475202020202000C7
:105780000844808CC0F3CB02FEA16846FDF7D0FC34
:105790006846FBF7FFF804210020FBF70DF8AFF295
:1057A0003850FBF712F904212920FBF705F8FF20F8
:1057B000FBF71AF96078A1780009C0EB401000EB04
:1057C000400001F01F013844C1EBC1010844F2A1BF
:1057D000D0F80700C0F38B126846FDF7A9FC6846B5
:1057E000FBF7D8F805210020FAF7E6FF0024002097
:1057F000FBF7FAF8641CE4B2292CF8D3FF20FBF77E
:10580000F3F829240020FBF7EFF8641CE4B2802CA5
:10581000F8D306210020FAF7CFFF00240020FBF781
:10582000E3F8641CE4B2292CF8D3FF20FBF7DCF882
:1058300029240020FBF7D8F8641CE4B2802CF8D3AC
:1058400041E400BF00F0B8FE99F80210DFF860B341
:10585000D84C480906D001287ED002287DD00328E4
:10586000EED1FDE399F80100B8460009C0EB401005
:1058700000EB400201F01F0102EB0800C1EBC10187
:105880000144C91D01F0CEFD01210020FAF794FF6B
:10589000AFF68C20FBF77EF801212920FAF78CFF68
:1058A000FF20FBF7A1F80020FBF79EF8AFF6A82039
:1058B000FBF770F80020FBF797F8AFF6AC20FBF78A
:1058C00069F802210020FAF777FFAFF6B020FBF766
:1058D00061F802212920FAF76FFFFF20FBF784F817
:1058E0000020FBF781F800264FEA0A07B4F803000E
:1058F000C0F38510B0FBF5F0C0EB001000EB8000AA
:105900003844805DFBF770F8761CF6B2192EEDD3A3
:105910005FF00006B4F80300C0F385103F2802D200
:105920001BF8060000E00020FBF75EF8761CF6B2DC
:105930000C2EEFD3DFF878A200260AF1360A00BF5A
:105940001AF80600FBF750F8761CF6B20A2EF7D3C9
:10595000C3460026B84601E07CE1C2E299F8011096
:1059600099F802000909C1EB411101EB41015F46C1
:1059700000F01F003944C0EBC0000844B0F8230019
:10598000C0F34510B0FBF5F0C0EB001000EB800158
:1059900001EB0800805DFBF727F8761CF6B2192EA4
:1059A000D9D300260020FBF71FF8761CF6B20C2E88
:1059B000F8D30020FBF718F803210020FAF7FCFECB
:1059C000AFF27070FAF7E6FF03212920FAF7F4FE30
:1059D000FF20FBF709F80020FBF706F85FF0000650
:1059E000B4F80300C0F38510B0FBF5F0C0EB001075
:1059F00000EB800101EB08003044407EFAF7F4FF31
:105A0000761CF6B2192EEBD3B4F80300A346C0F30C
:105A10008512AFF2B4716846FDF78AFB99F803006E
:105A2000C007684602D0FAF7D0FF01E0FAF7B2FFEC
:105A3000002456463019807AFAF7D6FF641CE4B287
:105A40000A2CF7D3BA4647460024C84698F80110F6
:105A500098F802000909C1EB411101EB410200F085
:105A60001F0002EB0A01C0EBC0000844B0F823009D
:105A7000C0F34510B0FBF5F0C0EB001000EB800068
:105A800038442044407EFAF7AFFF641CE4B2192C7E
:105A9000DCD398F8011098F802000909C1EB411114
:105AA00001EB410200F01F0002EB0A01C0EBC00055
:105AB0000844C146B0F82300C0F34512AFF66001B8
:105AC0006846FDF735FB6846FAF764FF0020FAF7F1
:105AD0008BFF04210020FAF76FFEAFF67400FAF78F
