:020000040800F2
:10000000888600205D020008453700086702000866
:10001000690200086B0200086D0200080000000081
:100020000000000000000000000000009D0100082A
:100030007102000800000000F90100086939000899
:1000400077020008770200087702000877020008AC
:10005000770200087702000877020008770200089C
:10006000770200087702000877020008770200088C
:10007000770200087702000877020008770200087C
:10008000770200087702000877020008770200086C
:10009000770200087702000877020008770200085C
:1000A000493A000877020008770200087702000842
:1000B000653A000877020008770200087702000816
:1000C000770200087702000877020008770200082C
:1000D000770200087702000877020008770200081C
:1000E000770200087702000877020008770200080C
:1000F00077020008770200087702000877020008FC
:1001000077020008770200087702000877020008EB
:1001100077020008770200087702000877020008DB
:10012000ED0800087702000877020008770200084F
:10013000770200080000000000000000D10800085D
:10014000B10800087702000877020008770200086B
:10015000770200087702000877020008770200089B
:10016000770200087702000877020008770200088B
:10017000770200087702000800000000000000007D
:100180007702000877020008DFF80CD000F016FBB9
:100190000048004759520008888600202C4B1968F7
:1001A0000868B0E8F04F80F30988BFF36F8F4FF015
:1001B000000080F3118870470000000008480068C4
:1001C000006880F308884FF0000080F3148862B65E
:1001D00061B6BFF34F8FBFF36F8F00DF00BF00BF6B
:1001E00008ED00E0DFF80C00016841F470010160E7
:1001F000704700BF88ED00E0EFF30980BFF36F8F19
:10020000134B1A681EF0100F08BF20ED108A20E96A
:10021000F04F106009B44FF0500080F31188BFF325
:100220004F8FBFF36F8F05F033FF4FF0000080F367
:10023000118809BC19680868B0E8F04F1EF0100F6B
:1002400008BFB0EC108A80F30988BFF36F8F704746
:1002500010000020EFF3058070470000064880473B
:1002600006480047FEE7FEE7FEE7FEE7FEE7FEE79B
:10027000FEE7FEE7FEE7FEE72D3A000889010008E9
:100280002DE9F05F0546002092469B4688460646CB
:10029000814640241BE0284641464746224600F05E
:1002A0000DFA53465A46C01A914110D311461846CA
:1002B000224600F0F4F92D1A67EB01084F4622465A
:1002C0000120002100F0EBF917EB00094E41201E40
:1002D000A4F10104DFDC484631462A464346BDE826
:1002E000F09F40EA01039B0703D009E008C9121FF1
:1002F00008C0042AFAD203E011F8013B00F8013BE0
:10030000521EF9D2704730B504460020034600E083
:100310005B1C934203D2E05CCD5C401BF8D030BD47
:100320002DE9FE4F804681EA0300C00F0C46009085
:1003300021F0004123F00045B8EB0200A94105D2AD
:100340004046214690461C460B46024623F000409C
:10035000104347D0270DC7F30A00C3F30A51029098
:10036000401A019040286BDAC3F3130040F4801B5D
:100370000098924620B10023D2EB030A63EB0B0BEB
:1003800001985946C0F14002504600F088F90646EF
:100390000D4650465946019A00F0A0F910EB0800AE
:1003A0006141002487EA115284EAE7731A4340D07E
:1003B000009A62B3019A012A4FEA075215DC001B2A
:1003C00061EB02014FF0004202EA0752CDE9004220
:1003D000001C41F5801132462B4600F0A0F903B015
:1003E000BDE8F08F40462146F9E7001B61EB0201B2
:1003F000001C41F5801300185B412018A2F500177E
:1004000047EB030140EAD570B6196D4111E06D0864
:100410004FEA360645EAC0754FEA0752001B61EB0A
:100420000201001C41F5801149084FEA3000001913
:10043000514132462B4603B0BDE8F04F00F060B9A1
:100440000098012240000023D0EB020263EBE0732E
:10045000009821464FEAE074B8EB000061EB04011C
:10046000E9E783F000435BE781F0004158E72DE9BD
:10047000FE4F81EA030404F0004421F0004100949F
:100480004FF0000B23F0004350EA01045ED052EA23
:1004900003045BD0C3F30A54C1F30A552C44A4F2FD
:1004A000F3340194A0FB0254C1F3130141F4801111
:1004B000C3F3130343F4801301FB024400FB034E18
:1004C000840A970A44EA815447EA8357A4FB0768E1
:1004D00002958D0A05FB07854FEA932C04FB0C540B
:1004E0002705029D4FEA065847EA1637B5EB08057F
:1004F0006EEB070C870E920E47EA811742EA8312D1
:10050000A7FB0201B6EB0B0164EB00042B0D43EAE1
:100510000C335E1844EB1C50DA465146E7FB0201EF
:10052000C5F313044FEA0B3343EA14534FEA043282
:10053000019C43EA0603A4F10C040294009CCDE95B
:1005400000B400F0ECF803B0BDE8F08F00200146E5
:10055000F9E72DE9F04D81EA030404F0004B21F0A6
:10056000004514464FF0000A23F0004150EA05020E
:1005700020D054EA01021DD0C5F30A570246C5F344
:100580001303C1F31300C1F30A5640F4801543F47A
:100590008013A7EB0608101BD64608F2FD3873EB54
:1005A000050002D308F1010801E092185B41B8F19F
:1005B000000F03DA00200146BDE8F08D00204FF463
:1005C0008011064684460EE0171B73EB050705D322
:1005D000121B63EB050306434CEA010C49084FEA82
:1005E000300092185B4150EA0107EDD152EA030056
:1005F00012D082EA040083EA0501084305D0101BEB
:10060000AB4106D20122002306E000224FF0004356
:1006100002E06FF0010253101AEB06004CEB085198
:1006200010EB0A0041EB0B01BDE8F04D00F068B89B
:100630000EB5C10F80EAE0700844CA07002140F2FD
:1006400033438DE80E000A460B4600F068F803B00D
:1006500000BD0EB540F2334102910021CDE90011F9
:100660000A460B4600F05BF803B000BDC1F30A5226
:1006700010B5C1F3130140F2FF3341F480119A42E7
:1006800001DA002010BD40F233439A42A2F2334215
:1006900003DC524200F012F810BD904010BD202A39
:1006A00004DB203A00FA02F1002070479140C2F1C9
:1006B000200320FA03F3194390407047202A04DBFB
:1006C000203A21FA02F00021704721FA02F3D040CB
:1006D000C2F120029140084319467047202A06DBE8
:1006E000CB17203A41FA02F043EAE07306E041FA00
:1006F00002F3D040C2F120029140084319467047EE
:1007000010B5141E73F1000408DA401C41F1000119
:1007100092185B411A4301D120F0010010BD2DE970
:10072000F04D92469B4611B1B1FA81F202E0B0FA67
:1007300080F220329046FFF7B2FF04460F4640EAAF
:100740000A0041EA0B0153465A46084313D01146AA
:1007500053EA010019D0C8F140025046FFF7AEFF3E
:1007600005460E46504659464246FFF798FF084355
:1007700005D0012004E020463946BDE8F08D002078
:10078000054346EAE0762C4337430A986305E40ABA
:10079000A0EB08000022FD0A44EA47540A3002D5C3
:1007A00000200146E9E7010510196941DDE9084526
:1007B00000196941BDE8F04DA2E70000064C074D65
:1007C00006E0E06840F0010394E807009847103421
:1007D000AC42F6D3FFF7DCFC806A0008A06A000890
:1007E00030B58C1810F8012B12F00F0301D110F85E
:1007F000013B120906D110F8012B03E010F8015B50
:1008000001F8015B5B1EF9D101E001F8013B521ECA
:10081000FBD1A142E6D3002030BD10B50246806B6B
:10082000016C11F0500F016C05D011F0100F28D0A1
:1008300000F0A7F910BD41F40071016401688A68F5
:1008400012F0405F04BF027E002A17D1CA6A12F478
:10085000700F1CBF8A6812F4806F0FD14A6822F0B3
:1008600020024A60016C21F480710164016C11F472
:10087000805F03D1016C41F00101016400F07AF95D
:1008800010BD806BC16CBDE810401046084710B524
:10089000806B40210164416C41F00401416400F02F
:1008A00070F910BD10B5806B00F06AF910BD000042
:1008B00010B500220449054805F02AF8BDE81040AB
:1008C000024800F0FABB00009200002054410020D2
:1008D00010B50449044805F077F9BDE81040024816
:1008E00000F0EBBB9A00002054410020014800F0CA
:1008F00025BE0000F440002072B6FEE72DE9F0416D
:100900002E4E05460020F06101F04CFA2C4C0746B3
:10091000206810F4803F0FD0B5F1FF3F08D025B11B
:1009200001F040FAC01BA84202D90320BDE8F081C3
:10093000206810F4803FEFD1206810F0010F1CBF39
:1009400001202060206810F0F20008BFBDE8F081AF
:10095000206810F0100F05D0F06940F01000F06131
:1009600010202060206810F0200F05D0F06940F0C2
:100970000800F06120202060206810F0400F05D0B2
:10098000F06940F00400F06140202060206810F021
:10099000800F05D0F06940F00200F06180202060F7
:1009A000206810F0020F05D0F06940F02000F061DF
:1009B000022020600120BDE8F081000048020020F4
:1009C0000C3C024030B482B04FF0000CCDF804C0B3
:1009D00090F83C20012A01BF022002B030BC7047D1
:1009E000012280F83C200A6807230468092A14D9E8
:1009F000E5680A3A02EB420203FA02F225EA020231
:100A0000E2600B788A680A3B03EB430302FA03F3C4
:100A10000268D4682343D36011E0256902EB4202E7
:100A200003FA02F225EA020222610B788A6803EBDC
:100A3000430302FA03F302681469234313614A680B
:100A40001F23072A16D20468656B521E02EB82022E
:100A500003FA02F225EA020262630B790A885B1E3E
:100A600092B203EB830302FA03F30268546B23434D
:100A700053632DE004680D2A15D2256BD21F02EBBB
:100A8000820203FA02F225EA020222630B790A8843
:100A9000DB1F92B203EB830302FA03F30268146BC9
:100AA0002343136314E0E56A0D3A02EB820203FA72
:100AB00002F225EA0202E2620B790A880D3B92B249
:100AC00003EB830302FA03F30268D46A2343D3627D
:100AD000254B0468234A9C4204BF0C68122C03D1A6
:100AE000546844F48004546004689C422FD10B681D
:100AF000102B18BF112B2AD1536843F40003536005
:100B00000968102923D11949194A0968B1FBF2F182
:100B100001EB810149000191009118D0B1F1004F22
:100B20001BD20029D8BF002105DD11F0010102D040
:100B3000019A521E0192009A491C521C914206DAF7
:100B4000019B891C5B1E5B1E01939142F8DB80F8C0
:100B50003CC002B0002030BC70470199491E019191
:100B6000FCD1F4E7002301400020014000000020F8
:100B700040420F00014804F003B900004043002048
:100B80007047704770B504004FF0000504BF0120A6
:100B900070BD206C002628B9204600F0ADF86664D0
:100BA00084F83C60206C10F0100F18BF012503D0B2
:100BB00084F83C60284670BD206C20F4885040F0DA
:100BC000020020644948416821F440314160416895
:100BD0006268114341602068416821F4807141607E
:100BE00020684168226941EA022141602068416829
:100BF00021F04071416020684168A2681143416062
:100C00002068816821F40061816020688168E26861
:100C100011438160A06A6FF07061C84220688168EA
:100C200021F0706181602068816808BF21F0405127
:100C30000BD0A26A114381602068816821F0405185
:100C4000816020688168E26A114381602068816860
:100C500021F00201816020688168227E41EA420120
:100C6000816094F8200000282068416808BF21F4C2
:100C700000610ED041F4006141602068416821F4B8
:100C80006041416020684168194B626A03EB42325F
:100C9000114341602068C16A21F47001C16220687B
:100CA000C16AA28B134B03EB02521143C16220684D
:100CB000816821F4007181602068816894F8302097
:100CC00041EA422181602068816821F4806181606D
:100CD00020688168626941EA822181606664206CD3
:100CE00020F0020040F00100206461E70023014091
:100CF00000E0FFFF0000F0FF70B586B0002506465B
:100D0000009501950295039504950068A0F1804136
:100D1000B1F590311CBF06B070BD2248016841F4A6
:100D2000807101600068204900F4807005900868B7
:100D300040F004000860086800F0040005900868AE
:100D400040F0010008600868032400F001000590ED
:100D50003D20CDE900046946144800F019FF0F203A
:100D6000CDE9000469460295114800F011FF124CCC
:100D70001048C4E900050015A560C4E9035040000F
:100D800060618000A0614011C4E9070520466562EA
:100D900000F0C2FC002818BFFFF7AEFDB463A663E5
:100DA00006B070BD443802403038024000080240AE
:100DB0000000024010640240F440002030B583B0CF
:100DC00000250446019590F83C001346012802BF17
:100DD000022003B030BD012084F83C002068826806
:100DE00012F0010F2BD1826842F001028260584854
:100DF000584A0068B0FBF2F010EB40000190009000
:100E00001DD0B0F1004F73D20028D8BF002005DDFF
:100E100010F0010002D0019A521E0192009A401C6B
:100E2000521C90420BDA00BFDDF804C0801CACF10C
:100E3000010CACF1010CCDF804C09042F4DB206849
:100E4000826812F4807F03D0826822F4807282600C
:100E50002068826812F0010F69D0226C22F0010232
:100E600022F4C06242F480722264406810F4806F01
:100E700005D0206C20F4005040F480502064206C99
:100E800010F4805F08BF656403D0606C20F006003A
:100E9000606484F83C50A26B30482F4DD063A26B45
:100EA0002F481064A26B2F48D06422686FF0220094
:100EB00010602068426842F0806242602068826868
:100EC00042F48072826020680A4600F14C0C614650
:100ED000A06B00F0CFFC6868234910F01F0F20685A
:100EE00007D0884204BF816811F0405F1AD026E025
:100EF00028E0884212D01D4A904204BFD1F8042352
:100F000012F01F0F0AD0A0F18042B2F5913216D133
:100F1000D1F8041301F01F01102910D2816811F0DB
:100F2000405F0CD1816841F08041816007E0206C16
:100F300040F010002064606C40F00100606403B079
:100F4000002030BD0198401E0190FCD177E70000E1
:100F50000000002040420F00002301401B08000851
:100F6000A50800088F08000800200140002101406A
:100F700090F82020012A18BF022A06D0416A41F4C5
:100F8000802141624FF0010070470068426942EAE7
:100F9000010141614FF000007047000090F82020EF
:100FA000012A18BF022A06D0416A41F48021416219
:100FB0004FF0010070473F48D0F8002242F0010294
:100FC000C0F80022D0F8002222F47C52C0F800229F
:100FD000D0F800224B6A42EA0322C0F800220A7DC0
:100FE0004FF0010302F01F0203FA02F2D0F81C32A4
:100FF00023EA0203C0F81C32CB69DBB9D0F80C320B
:1010000023EA0203C0F80C32B1F80CC04B686CF351
:101010001F43D1F814C000EBCC0CCCF84032B1F82F
:1010200008C00B686CF31F43D1F814C000EBCC0C64
:10103000CCF84432CB69012B1AD1D0F80C321343CF
:10104000C0F80C32B1F800C04B686CF31F43D1F804
:1010500014C000EBCC0CCCF84032B1F808C0CB681F
:101060006CF31F43D1F814C000EBCC0CCCF8443225
:101070008B69002BD0F804320CBF93431343C0F8A4
:1010800004320B69002BD0F814320CBF9343134386
:10109000C0F81432096A012904D1D0F81C12114396
:1010A000C0F81C12D0F8001221F00101C0F80012A3
:1010B000002070470064004070472DE9F05F05464E
:1010C000006800244669D0F804908768D0F80CB016
:1010D000D0F810A0D0F8188016F0010F25D017F026
:1010E000010F07D00121816017F0020F7CD0284644
:1010F00000F01DFA17F4807F09D029684FF4807042
:10110000886017F4007F70D0284600F012FA17F4B8
:10111000803F0AD029684FF48030886017F4003F80
:1011200000F0B980284600F006FA16F0080F18BF44
:101130001BF0100F04D02968102044F40074C8601C
:1011400016F0040F4FF0080718BF1BF0080F04D06B
:101150002868C760284600F0B1F916F0020F07D0E2
:101160002868C06810F0030F1CBF284600F0A7F9DC
:1011700016F0400F18BF1AF0100F04D02968102085
:1011800044F48064086116F0200F18BF1AF0080FAD
:1011900004D028680761284600F092F916F0100F75
:1011A00007D02868006910F0030F1CBF284600F024
:1011B00088F916F4003F18BF19F0100F05D0296800
:1011C00010204860284600F07DF916F4803F18BFD3
:1011D00019F0080F04D028684760284600F0ACF9E1
:1011E00016F4004F78D001E035E044E019F0040F28
:1011F0006FD016F4807F1CBF18F0010F44F001047B
:1012000016F4007F1CBF18F0020F44F0020416F41D
:10121000806F1CBF18F0040F44F0040416F4006F34
:1012200018BF18F0700F54D008F07000402808BFA5
:1012300044F0400448D03EDC102808BF44F00804C5
:1012400042D0202808BF44F010043DD0302808BF09
:1012500044F0200438E017F0040F18BF4FF4006486
:101260007FF448AF17F0080F0ABF28464FF48054A8
:1012700000F05CF93EE717F4806F18BF44F40054A7
:101280007FF445AF17F4006F0ABF284644F480444A
:1012900000F04EF93BE717F4802F18BF44F40044E8
:1012A0007FF443AF17F4002F0ABF284644F480347C
:1012B00000F040F939E7502808BF44F0800403D01B
:1012C000602808BF44F480742868816921F07001A7
:1012D0008161296804204860002C08BFBDE8F09FA8
:1012E000686A204368622846FFF7E6FEBDE8F09F83
:1012F000002804BF0120704770B5044690F8200014
:10130000002804BF204600F089F82068016821F019
:101310000201016000F046FD0546206840684FF07C
:10132000050610F0020F09D000F03CFD401B0A2812
:1013300017D82068406810F0020FF5D120680168C6
:1013400041F00101016000F02DFD05462068406874
:1013500010F0010F12D100BF00F024FD401B0A283D
:1013600007D9606A40F40030606284F82060012090
:1013700070BD2068406810F0010FEDD0207E01287C
:10138000206801680CBF41F0800121F080010160FC
:10139000607E0128206801680CBF41F0400121F007
:1013A00040010160A07E0128206801680CBF41F067
:1013B000200121F020010160E07E01282068016801
:1013C0000CBF21F0100141F010010160207F0128C5
:1013D000206801680CBF41F0080121F0080101609C
:1013E000607F0128206801680CBF41F0040121F0F2
:1013F00004010160D4E902010843D4E90412114355
:1014000008436168491E08432168C8610020606282
:10141000012084F82000002070BD000000B587B0D6
:101420000021009101910291039104910068A0F1C3
:101430008041B1F5D0411CBF07B000BD1C48016818
:1014400041F080610160016801F0806105910168EF
:1014500041F000710160006800F0007005901548CF
:10146000016841F0020101600068694600F0020075
:1014700005904FF44050009002200190032003900B
:10148000092004900C4800F083FB002208213F2033
:1014900000F018FD3F2000F005FD0022092140204A
:1014A00000F010FD402000F0FDFC07B000BD000082
:1014B0004038024030380240000402407047704714
:1014C000704770477047000070B5044690F82000E0
:1014D000012804D0606A40F4002060621CE0022011
:1014E00084F820002068016821F00101016000F00B
:1014F00059FC05462068406810F0010F13D000BF6A
:1015000000F050FC401B0A2808D9606A40F4003003
:101510006062052084F82000012070BD20684068CA
:1015200010F0010FECD10020606270BD7047704771
:101530007047704770477047704700002DE9F843C7
:1015400004460027009773484FF41651A56D0068B4
:10155000B0FBF1F92E6894F85C00082101FA00F064
:10156000304211D02068026812F0040F0CD00268DB
:1015700022F00402026094F85C0001FA00F0A86016
:10158000606D40F00100606594F85C004FF0010868
:1015900008FA00F0304209D02168496911F0800F43
:1015A00004D0A860606D40F00200606594F85C10A3
:1015B00004208840304209D02168096811F0020FE8
:1015C00004D0A860606D40F00400606594F85C1081
:1015D00010208840304220D02168096811F0080F9F
:1015E0001BD0A8602068016811F4802F09D0006822
:1015F00010F4002F02D0A16C79B10CE0216C51B92C
:101600000BE0016811F4807F03D1016821F008012B
:101610000160216C09B12046884794F85C102020B5
:10162000884030424AD02168096811F0100F45D037
:10163000A86094F8350005282068016809D011F4E5
:10164000802F2BD0006810F4002F24D0E16B21B341
:1016500032E021F0160101602068416921F080012B
:101660004161206C002804BFA06C002804D02068D1
:10167000016821F00801016094F85C004FF03F011F
:1016800001FA00F0A86084F8347084F83580216D88
:10169000D1BBBDE8F883616C71B90FE0016811F44A
:1016A000807F07D1016821F01001016084F8347057
:1016B00084F83580E16B09B120468847606D0028C9
:1016C00008BFBDE8F883606D10F0010F17D04FF030
:1016D000050084F835002068016821F001010160EF
:1016E000009800F101000090484504D82068006887
:1016F00010F0010FF4D184F8347084F83580E16C77
:10170000002908BFBDE8F883204601B0BDE8F043DA
:10171000084700000000002070B5044600F042FBBE
:101720000546002C04BF012070BD002684F83460FB
:10173000022084F835002068016821F00101016071
:101740002068006810F0010F10D000BF00F02AFBE5
:10175000401B052805D920206065032084F835004A
:1017600070BD2068006810F0010FEFD12168086893
:101770003D4A1040D4E901231A43D4E9033C43EA2B
:101780000C031A4363691A43A3691A43E3691A43B2
:10179000236A1A431043626A042A03D1D4E90B2353
:1017A0001A4310430860D4F800C0DCF81400012389
:1017B00020F00701606A40EA0102042837D1A16ADB
:1017C000E06A0A4318B3A56955B1B5F5005F14D0B6
:1017D00000291CBF0129022921D003291CD026E0A1
:1017E00019B1012905D0022921D110F0807F1ED026
:1017F00015E0B0F1C07F1AD111E081B1012907D005
:1018000002290CD0032908BFB0F1C07F07D00EE039
:1018100010F0807F03D10AE010F0807F07D04FF0F6
:101820004000606584F835304FF0010070BDCCF8A1
:10183000142020680D4AC1B2A1F11001A2FB0121C0
:101840000B4A4FEA11110329525CE2656FF309005C
:1018500088BF001D3F219140A0658160666584F8C6
:101860003530002070BD00003F8010F0ABAAAAAA5E
:101870003466000870B490F83450846D4FF0000C5A
:10188000012D02BF022070BC7047012580F8345042
:1018900090F835600025012E1CBF80F834504FF0C1
:1018A000020C02D070BC60467047022680F835609A
:1018B000456505682E6826F480262E6005686B60F5
:1018C0008368402B036803BF9A600268D160996007
:1018D0001CBF0168CA6090F85C103F2202FA01F157
:1018E000A16001680A6842F016020A60016C21B129
:1018F00001680A6842F008020A600068016841F065
:1019000001010160CEE7000070B5044600F04AFA1C
:101910000546B4F1FF3F02D004480078044400F0CB
:1019200041FA401BA042FAD370BD00000400002021
:101930002DE9F0474F4F06468846387E012804BF00
:101940000220BDE8F087012038764CF25030FEF7D7
:10195000D5FF00287DD1411EC8F800103168464CE3
:10196000012938D0D6E902512944A94288BF4FF055
:1019700002094FD9307C10F0FF014FF000000AD06F
:10198000012908BF4FF4807005D002290CBF4FF425
:1019900000704FF44070216821F44071216021688B
:1019A00008432060206820F0F8002060216849EAA0
:1019B000C50008432060206840F4803020604CF26D
:1019C0005030FEF79BFF216821F0FA012160D8B169
:1019D000C8F800501EE0307C216821F4407121607D
:1019E000216841F00401216021684FF4803242EA0D
:1019F0000020084320604CF25030FEF77FFF216842
:101A000021F00401216005E0D6E9022111446D1C9A
:101A1000A942AFD819490A6812F4007F0FD00A68AA
:101A200022F400720A600A6842F400620A600A68DE
:101A300022F400620A600A6842F400720A600A68CE
:101A400012F4806F11D00A6822F480620A600A687A
:101A500000E00AE042F480520A600A6822F48052F0
:101A60000A600A6842F480620A6000213976BDE8A3
:101A7000F087000048020020103C0240003C024079
:101A80000348016841F000410160002070470000F8
:101A9000103C02402DE9F0472E4F81461546387E16
:101AA00098460E46012804BF0220BDE8F0870120B9
:101AB00038764CF25030FEF721FF18BB264CB9F1B6
:101AC000000F23D0B9F1010F2CD02068B9F1020F1B
:101AD00020F440702060206832D040F440702060D4
:101AE000206840F0010020603560BFF36F8FC6F8BA
:101AF000048000BF4CF25030FEF700FF216821F057
:101B00000101216000213976BDE8F087206820F4CA
:101B10004070206020682060206840F00100206054
:101B20003570E7E7206820F440702060206840F4BA
:101B300080702060206840F0010020603580D9E787
:101B400040F400702060206840F0010020603560A3
:101B5000D0E7000048020020103C02400849002065
:101B60000A6812F0004F08BF7047064B064A136020
:101B7000064B1360096811F0004F18BF0120704731
:101B8000103C024023016745043C0240AB89EFCD85
:101B90002DE9F84F7B4D7A4C00224FF001094FF0B0
:101BA000030C4FF00F0A05F1040E00BF0B6809FA91
:101BB00002F63340B34240F0DC800F7907F00307B0
:101BC000012F18BF022F19D1D0F808804FEA420721
:101BD0000CFA07FB28EA0B08D1F80CB00BFA07F750
:101BE00047EA08078760476827EA06060F79C7F3C0
:101BF000001707FA02F747EA060646604E683CEA15
:101C000006060BD0C76856000CFA06F827EA080744
:101C1000D1F8088008FA06F63E43C6600E7906F051
:101C20000306022E11D1D60800EB8607D7F82080D4
:101C30005607F60E0AFA06FB28EA0B08D1F810B090
:101C40000BFA06F646EA08063E62076856000CFAEA
:101C500006F827EA080791F8048008F0030808FA54
:101C600006F63E4306604E6816F0805F7DD026681B
:101C700046F480462660266806F48046009622F0E8
:101C8000030606F1804707F59837D7F808889607C6
:101C9000360F0AFA06FB28EA0B08A0F1804BBBF5C9
:101CA000003B38D0A0F1804BBBF5013B08BF4FF0A3
:101CB000010B30D0A0F1804BBBF5023B08BF4FF0C9
:101CC000020B28D0A0F1804BBBF5033B08BF4FF0BF
:101CD000030B20D0A0F1804BBBF5043B08BF4FF0B5
:101CE000040B18D0A0F1804BBBF5053B08BF4FF0AB
:101CF000050B10D0A0F1804BBBF5063B08BF4FF0A1
:101D0000060B08D0A0F1804BBBF5073B0CBF4FF092
:101D1000070B4FF0080B0BFA06F646EA0806C7F861
:101D200008682E684F689E4317F4803F18BF1E4313
:101D30002E60DEF800604F689E4317F4003F18BF26
:101D40001E43CEF80060104F3E68D1F804809E43D9
:101D500018F4801F18BF1E433E600C4F3E68D1F838
:101D600004809E4318F4001F00E002E018BF1E43E9
:101D70003E60521C102AFFF419AFBDE8F88F000036
:101D800044380240003C0140083C01400C3C01400A
:101D90000069084018BF01207047002A08BF0904E5
:101DA000816170470148806870470000040000208E
:101DB0000248816802781144816070470400002065
:101DC0000B4810B5016841F400710160016841F4ED
:101DD00080610160016841F480710160032000F0BE
:101DE000A3F8002000F006F800F03EF8002010BD37
:101DF000003C024010B5014688B000221C2000F0D3
:101E000061F81C2000F04EF814480024016841F0ED
:101E100001010160006805A900F001000690684614
:101E200000F042F900F060F90D494000B0FBF1F01C
:101E3000411E0C484FF08042026040F2E732C0E998
:101E40000324C0E9011400F075FC00280ABF05480E
:101E5000012000F022FD08B010BD00004038024013
:101E600040420F00AC4200200C4882B0016841F4AF
:101E700080410160006800F48040009008480168DB
:101E800041F0805101600068002200F08050009015
:101E90000F21901E02B000F015B800004438024037
:101EA000403802400028B8BF704700F01F010122EF
:101EB00002FA01F14009800000F1E020C0F80011B1
:101EC00070470000174B10B41B68C3F30223C3F123
:101ED000070CBCF1040F88BF4FF0040C1C1D072C2D
:101EE00034BF0023DB1E012404FA0CFCACF1010C0E
:101EF0000CEA0101994004FA03F35B1E1A401143F6
:101F000000284FEA0111A1BF00F1E02080F8001481
:101F100010BC704700F00F0000F1E02080F8141DA5
:101F200010BC70470CED00E0074900F007000A689C
:101F30004FF6FF031A4042EA002040F0FD7040F0E7
:101F400080600860704700000CED00E0002804BFCE
:101F5000012070472DE9F0474D4E04460F4630688A
:101F600001F0FF0800F00700B84206D286F80080B2
:101F7000306800F00700B84261D12068454D10F08C
:101F8000020F14D010F0040F03D0286840F4E05082
:101F90002860207810F0080F03D0286840F46040D3
:101FA00028602868A16820F0F000084328602078A5
:101FB00010F0010F37D060683749012823D002287C
:101FC00018BF0328096823D011F0020F37D0296801
:101FD00021F0030141EA00002860FFF7E3FE81469B
:101FE0002868616800F00C00B0EB810F18BF41F267
:101FF000883A18D0FFF7D6FEA0EB090050450BD960
:102000000320BDE8F087096811F4003FDFD116E036
:1020100011F0007FDBD112E02868616800F00C004D
:10202000B0EB810FE6D1306800F00700B84209D963
:1020300086F80080306800F00700B84202D0012026
:10204000BDE8F087207810F0040F05D02868E1681B
:1020500020F4E05008432860207810F0080F06D0E4
:102060002868216920F4604040EAC100286000F03F
:102070004BF82968094AC1F30311515CC84008496B
:10208000086008480068FFF7B5FE0020BDE8F0874B
:10209000003C024008380240003802401C6600083C
:1020A00000000020080000200F2202600C4A136884
:1020B00003F003034360136803F0F00383601368C5
:1020C00003F4E053C36012684FF4E05303EAD20212
:1020D00002610448006800F00700086070470000D3
:1020E00008380240003C024004480549006809687D
:1020F000044AC1F38221515CC840704700000020AF
:10210000083802402C6600081848006810F00C02DD
:10211000174808BF70471749042A04BF084670478C
:10212000082A18BF704710B5134C2268236802F0C4
:102130003F0213F4800F08D020680023C0F38810FA
:10214000A0FB0101FEF79CF807E021680023C1F322
:102150008811A1FB0001FEF793F82168C1F301414A
:10216000491C4900B0FBF1F010BD000008380240E6
:102170000024F400001BB70004380240002804BF0C
:10218000012070472DE9F84F04460078DFF8CC8332
:1021900010F0010FA8F1040558D008F104000168FF
:1021A00001F00C01042909D0006800F00C00082897
:1021B0000DD1D8F8000010F4800F08D0286810F472
:1021C000003F43D06068002800F0C1813EE06068B5
:1021D000B0F5803F19D0B0F5A02F28680CBF40F4AF
:1021E000802020F48030286028680CBF40F48030C4
:1021F00020F4802028606068B8B1FFF7D3FD064660
:10220000286810F4003F05D020E0286840F48030B2
:102210002860F0E7FFF7C6FD801B642800F22F81DD
:10222000286810F4003FF5D010E0FFF7BBFD06462C
:10223000286810F4003F09D0FFF7B4FD801B642824
:1022400000F21D81286810F4003FF5D12078C44FBA
:1022500010F0020F47D0C349086810F00C0F16D0D9
:10226000086800F00C00082804BFD8F8000010F43B
:10227000800F0CD0E06820B34FF001003860FFF70A
:1022800091FD0646286810F0020F09D011E0286879
:1022900010F0020F1CBFE06801280AD000F057B907
:1022A000FFF780FD801B02287ED8286810F0020FFF
:1022B000F6D02868216920F0F80040EAC1002860C3
:1022C00011E000203860FFF76DFD0646286810F029
:1022D000020F08D0FFF766FD801B022864D828682B
:1022E00010F0020FF6D1207810F0080F2AD09E4887
:1022F0009E4E616999B101210160FFF753FD81464E
:10230000306810F0020F1DD1FFF74CFDA0EB090063
:10231000022849D8306810F0020FF5D012E00021F1
:102320000160FFF73FFD8146306810F0020F09D0D1
:10233000FFF738FDA0EB0900022835D8306810F00F
:10234000020FF5D1207810F0040F7FD088484FF0AD
:10235000000B006810F0805F0AD18548016841F0E9
:102360008051016000684FF0010B00F08050009038
:10237000DFF80092D9F8000010F4807F1AD1D9F864
:10238000000040F48070C9F80000FFF70BFD06461E
:10239000D9F8000010F4807F0CD100BFFFF702FDD8
:1023A000801B02286BD800E069E0D9F8000010F427
:1023B000807FF3D0A068704E01281BD005283068BC
:1023C0000CBF40F0040020F00100306030680CBF0A
:1023D00040F0010020F00400C6F80000A06841F2BF
:1023E000883AB8B1FFF7DEFC8146306810F0020F82
:1023F00005D021E0306840F001003060EEE7FFF7E3
:10240000D1FCA0EB0900504539D8306810F0020F1C
:10241000F5D011E0FFF7C6FC8146306810F0020FDE
:102420000AD000BFFFF7BEFCA0EB0900504526D83C
:10243000306810F0020FF5D1BBF1000F06D04C4808
:10244000016821F0805100E000E00160A069E8B37C
:102450004449096801F00C01082950D002284FF0C6
:10246000000038660ED0FFF79DFC0446286810F087
:10247000007F6FD0FFF796FC001B02283AD903209B
:10248000BDE8F88FFFF78EFC0646286810F0007F45
:1024900009D000BFFFF786FC801B0228EFD8286810
:1024A00010F0007FF6D1D4E907010843A16A334A4E
:1024B000490802EB0141626A41EA8211084394F83B
:1024C0002C1040EA0160C8F8000000E042E0012062
:1024D0003866FFF767FC0446286810F0007F39D1A2
:1024E000FFF760FC001B0228C9D8286810F0007FA5
:1024F000F6D02FE0286810F0007FBBD12AE0012839
:1025000008BFBDE8F88FD8F80000E26900F4800148
:1025100091421CD1226A00F03F01914217D147F647
:10252000C071626A0140B1EB821F10D1A26A4FF004
:10253000FF3300F4403103EB5202B1EB024F06D1FE
:1025400094F82C1000F07060B0EB016F02D0012005
:10255000BDE8F88F0020BDE8F88F00000438024085
:102560000000474208380240800E4742743802405B
:102570004038024000700040703802400000FFFF09
:102580002DE9F04104460079022701280CD00126EC
:10259000267160794FF0000801281CBF0420A0605C
:1025A00005D000BF84F804800020BDE8F081677189
:1025B000FFF7F8FB05462068406810F0010F0CD1CA
:1025C000FFF7F0FB401B022802D96671A760E9E71C
:1025D0002068406810F0010FF2D020688068E06049
:1025E000667184F80480BDE8F081002804BF0120F2
:1025F000704770B504464079002518B9257120460A
:1026000000F00CF8022060712068016841F00401BC
:10261000016001206071A560002070BD006881B07C
:10262000A0F1A041B1F5C1211CBF01B07047054820
:10263000016841F040010160006800F04000009036
:1026400001B07047343802407047704790F83C2022
:10265000012A04BF02207047012280F83C20CA688A
:102660008B6822F440721A434B6822F480621A434A
:102670000B6822F400621A430B6922F480521A4359
:102680004B6922F400521A43C96922F48042114373
:1026900002685164002180F83C100846704790F8A9
:1026A0003C20012A04BF0220704730B4012380F887
:1026B0003C30022280F83D2002685468D2F808C0FD
:1026C0000D6824F070042C4354600268A2F1804429
:1026D000B4F5803418BFB2F1804F1DD0A2F1804410
:1026E000B4F580641CBFA2F18044B4F5006413D03B
:1026F000A2F18044B4F540641CBFA2F18044B4F55B
:10270000823409D0A2F18044B4F5A0341CBFA2F1F8
:102710008044B4F5C05405D149682CF0800C41EADE
:102720000C01916080F83D30002180F83C1030BCF5
:1027300008467047002804BF0120704710B50446C2
:1027400090F83D0028B9002084F83C00204600F0B5
:102750001FF8022084F83D00211D206801F088F94F
:10276000012084F8460084F83E0084F83F0084F895
:10277000400084F8410084F8420084F8430084F863
:10278000440084F8450084F83D00002010BD00009E
:1027900008B501682148A1F18042B2F5803222D00B
:1027A000A1F18042B2F580620EBF1D48A1F18042C6
:1027B000B2F5823229D0A1F18042B2F5A03218BF21
:1027C00008BD016841F4803101600068002200F416
:1027D0008030009006211820FFF774FBBDE8084008
:1027E0001820FFF75FBB016841F00101016000683C
:1027F000002200F00100009006211820FFF762FB84
:10280000BDE808401820FFF74DBB016841F0020108
:102810000160006800F00200009008BD44380240EA
:102820004038024090F83D1001291CBF012070473C
:10283000022180F83D100068A0F18041B1F580319F
:1028400018BFB0F1804F1DD0A0F18041B1F580617B
:102850001CBFA0F18041B1F5006113D0A0F180410F
:10286000B1F540611CBFA0F18041B1F5823109D0C2
:10287000A0F18041B1F5A0311CBFA0F18041B1F5BC
:10288000C05104D1816801F00701062903D0016815
:1028900041F0010101600020704790F83D100129CE
:1028A0001CBF01207047022180F83D100168CA68F2
:1028B00042F00102CA600068A0F18041B1F58031A8
:1028C00018BFB0F1804F1DD0A0F18041B1F58061FB
:1028D0001CBFA0F18041B1F5006113D0A0F180418F
:1028E000B1F540611CBFA0F18041B1F5823109D042
:1028F000A0F18041B1F5A0311CBFA0F18041B1F53C
:10290000C05104D1816801F00701062903D0016894
:1029100041F0010101600020704790F83C20012A3D
:102920000DBF0220012380F83C30704730B40222F2
:1029300080F83D20D0F800C0DCF8082022F07702B3
:1029400022F47F42CCF808200A68502A3DD00CDCE3
:10295000202A74D004DC002A18BF102A51D18CE040
:10296000302A6CD0402A6CD091E0602A4AD0702A7C
:1029700006D0B2F5805F44D0B2F5005F12D086E099
:10298000D1E9014C0268C968956844EA012125F43F
:102990007F4541EA0C012943916001688A6842F051
:1029A000770210E00268D1F804C08C68C9689568A5
:1029B0004CEA012125F47F452143294391600168B8
:1029C0008A6842F480428A6061E00268D1F804C0FB
:1029D000C968146A156A25F001051562956924F025
:1029E0000A0425F0F00545EA011144EA0C0C916156
:1029F000C2F820C001688A6822F0700242F05702D3
:102A00008A6044E00268D1F804C0C968146A24F0FE
:102A1000100414629569146A25F4704545EA013181
:102A200024F0A00444EA0C1C9161C2F820C00168A3
:102A30008A6822F0700242F067028A6027E01CE098
:102A4000FFE70268D1F804C0CC68116A156A25F066
:102A500001051562956921F00A0125F0F00545EAA6
:102A6000041441EA0C019461116201688A6822F041
:102A7000700242F047028A6009E00168D1F808C09C
:102A80002CF0700C4CEA020242F007028A6080F8D7
:102A90003D30002180F83C1030BC0846704770473C
:102AA00070B50446006801694FF0000511F0020F8F
:102AB0001CBFC16811F0020F13D06FF00201016159
:102AC000012020772068806910F0030F204602D093
:102AD000FFF7E5FF04E000F0DDF8204600F020FA03
:102AE00025772068016911F0040F1CBFC16811F03F
:102AF000040F13D06FF004010161022020772068D9
:102B0000806910F4407F204602D0FFF7C8FF04E040
:102B100000F0C0F8204600F003FA2577206801692C
:102B200011F0080F1CBFC16811F0080F13D06FF02F
:102B300008010161042020772068C06910F0030FAC
:102B4000204602D0FFF7ABFF04E000F0A3F82046D8
:102B500000F0E6F925772068016911F0100F1CBF1D
:102B6000C16811F0100F13D06FF01001016108203F
:102B700020772068C06910F4407F204602D0FFF71C
:102B80008EFF04E000F086F8204600F0C9F92577B2
:102B90002068016911F0010F1CBFC16811F0010F1D
:102BA00005D06FF001010161204600F07CFA206839
:102BB000016911F0800F1CBFC16811F0800F05D0B2
:102BC0006FF0800101612046FFF73EFD206801693A
:102BD00011F0400F1CBFC16811F0400F05D06FF01D
:102BE00040010161204600F071FA2068016911F08E
:102BF000200F1ABFC16811F0200F70BD6FF02001C7
:102C000001612046BDE87040FFF71FBD00B587B0E9
:102C100000210091019102910391049102681A48E8
:102C20000221A2F18043B3F580331BD0A2F180438F
:102C3000B3F582331CBF07B000BD026842F0040246
:102C40000260006800F0040005904FF47070CDE958
:102C50000001032004900D48694600BFFEF798FF6D
:102C600007B000BD026842F001020260006800F097
:102C7000010005904FF47060CDE90001012004903F
:102C800069460348EAE70000303802400008024085
:102C90000000024070470000F0B490F83C30012B77
:102CA00002BF0220F0BC7047012380F83C30834B08
:102CB000DFF80CC242B1042A44D0082A7ED00C2A84
:102CC00000F0C38000F0F2B80268146A24F0010436
:102CD0001462146A556896690F6826F073063E43BD
:102CE0008F6824F002043C439A4218BF624506D123
:102CF000CF6824F0080447EA040424F004049A424C
:102D000018BF624509D1D1F814C025F440734CEACC
:102D10000303D1F818C04CEA0305556096614B686F
:102D2000536314620268936943F008039361026875
:102D3000936923F00403936102689369096943EA84
:102D4000010140E00268146A24F010041462156A5C
:102D5000546896690F6826F4E64646EA07268F68A7
:102D600025F0200545EA07159A4218BF624506D1AD
:102D7000CF6825F0800545EA071525F040059A4201
:102D800018BF624509D1D1F814C024F4406343EA66
:102D90008C03D1F818C043EA8C04546096614B68E8
:102DA000936315620268936943F400639361026858
:102DB000936923F480639361026800E005E09369FE
:102DC000096943EA0121916170E00268146A24F400
:102DD00080741462146A5568D6690F6826F0730609
:102DE00047EA06068F6824F4007444EA07249A42EE
:102DF00018BF624506D1CF6824F4006444EA072472
:102E000024F480649A4218BF624509D1D1F814C0F5
:102E100025F4405343EA0C13D1F818C043EA0C15CB
:102E20005560D6614B68D36314620268D36943F07E
:102E30000803D3610268D36923F00403D3610268F5
:102E4000D369096943EA01012FE00268146A24F496
:102E500080541462166A5468D5690F6825F4E645F3
:102E600045EA07258F6826F4005646EA07369A4257
:102E700018BF624505D1D1F814C024F4804343EA59
:102E80008C145460D5614B68136416620268D36970
:102E900043F40063D3610268D36923F48063D36190
:102EA0000268D369096943EA0121D1614FF0000149
:102EB00080F83C10F0BC084670470000000001405C
:102EC00000040140002804BF0120704710B50446EB
:102ED00090F83D0028B9002084F83C00204600F01E
:102EE0001EF8022084F83D00211D206800F0C0FD7E
:102EF000012084F8460084F83E0084F83F0084F8FE
:102F0000400084F8410084F8420084F8430084F8CB
:102F1000440084F8450084F83D00002010BD70474F
:102F200070470000022361B104294BD0082951D019
:102F300090F84120012A08BF80F8413008D00120D4
:102F4000704790F83E20012A08BF80F83E30F6D145
:102F500001F01F03026801219940136A8B43136239
:102F6000136A19431162254A0168254B914218BF23
:102F7000994205D1D1F844C04CF4004CC1F844C08A
:102F80000068904218BFB0F1804F2BD0A0F1804173
:102F9000B1F580611CBFA0F18041B1F5006121D085
:102FA000A0F18041B1F5406118BF98421AD0A0F15C
:102FB0008041B1F5A0311CBFA0F18041B1F5C051F5
:102FC00010D014E090F83F20012A08BF80F83F306D
:102FD000B5D1BDE790F84020012A08BF80F8403005
:102FE000ADD1B5E7816801F00701062903D001687A
:102FF00041F0010101600020704700000000014025
:103000000004014070B4026801F01F040123166A35
:103010004FF0000C03FA04F526EA05051562156A5F
:103020000CFA04FC45EA0C0CC2F820C0026841F21C
:10303000111CA2F1804540F24444B5F580351CBF17
:10304000A2F18045B5F582350AD1156A15EA0C0F53
:1030500004BF156A254203D1556C25F4004555641B
:103060000268156A15EA0C0F04BFD2F820C01CEAEA
:10307000040F05D1D2F800C02CF0010CC2F800C03A
:10308000002908BF80F83E300AD0042908BF80F824
:103090003F3005D008290CBF80F8403080F841301F
:1030A000002070BC704710B504460068A0F1804154
:1030B000B1F5A03108BF01F0D7FD2068B0F1804F15
:1030C00018BF10BDBDE81040FEF772BE704700008B
:1030D00070B584B000244B48009401940294484990
:1030E0000394016001254FF480310561C0E90114AA
:1030F000047680F820400903C1620A26C66149109F
:10310000C460816280F830504461FDF73BFD0028C7
:1031100018BFFDF7F1FBCDE90045062469463948A3
:103120000294FDF74FFC002818BFFDF7E5FB009562
:103130000225694633480195FDF744FC002818BF75
:10314000FDF7DAFB0095032569462E480195FDF74A
:1031500039FC002818BFFDF7CFFB0420CDE9005053
:1031600069462848FDF72EFC002818BFFDF7C4FB70
:103170000C2000900520019069462248FDF722FCB2
:10318000002818BFFDF7B8FB0D20CDE90004694603
:103190001C48FDF717FC002818BFFDF7ADFB0E20FB
:1031A00000900720019069461648FDF70BFC0028A7
:1031B00018BFFDF7A1FB0F20009008200190694681
:1031C0001048FDF7FFFB002818BFFDF795FB09200D
:1031D000CDE9006069460B48FDF7F4FB002818BFF5
:1031E000FDF78AFB1020CDE9000669460548FDF78A
:1031F000E9FB002818BFFDF77FFB04B070BD00009D
:1032000000200140AC400020114810B50F4901607A
:103210000721416000214FF04072C0E902124FF4D3
:10322000E02202614FF400124261017601224276EF
:103230008176C27601774177FEF75AF8002808BFF9
:1032400010BDBDE81040FDF757BB0000006800400E
:1032500054410020094808B5016841F4800101602B
:103260000068002200F48000009007213820FEF75B
:1032700029FEBDE808403820FEF714BE3038024071
:10328000F0B5194C9DB094E86F108DE86F100021D7
:10329000684602F022F9154D1C340DF11C0E286011
:1032A00094E8CF108EE8CF10002107A81C3C02F054
:1032B00014F93834686094E8CF100DF1380E383CBA
:1032C0008EE8CF1000210EA802F007F95434A86050
:1032D00094E85F1015AF87E85F10002115A802F091
:1032E000FCF8E8601DB0F0BD3C66000878000020E6
:1032F0002DE9F04387B000244948009401940294DA
:1033000003940494016841F004010160016801F034
:1033100004010591016841F080010160016801F03C
:1033200080010591016841F001010160016801F02F
:1033300001010591016841F002010160016801F09D
:1033400002010591016841F0080101600068DFF8A1
:10335000D48000F00800059000224FF42041404640
:10336000FEF71BFDDFF8C09000224FF410414846E5
:10337000FEF713FD4FF4204001250227CDE900059B
:10338000CDE9027469464046FEF702FCA803CDE988
:103390000004694602954046FEF7FAFB41F60240FA
:1033A0000326CDE90006694602944046FEF7F0FB8D
:1033B0003020CDE90006694602944846FEF7E8FB56
:1033C000C020CDE90004694602954846FEF7E0FBBF
:1033D000DFF85880009669464046CDE90145FEF782
:1033E000D7FB4CF6FC70CDE90006694602944046D6
:1033F000FEF7CEFB4FF41040CDE90005CDE9027495
:1034000069464846FEF7C4FB0420CDE9000669463C
:1034100002940748FEF7BCFB07B0BDE8F08300004C
:103420003038024000080240000002400004024020
:10343000000C0240074910B5054808600846FFF730
:10344000D4F8002808BF10BDBDE81040FDF754BAFD
:10345000000806507C41002010B596B0002410945E
:103460001494129413941594009411940194039459
:10347000049405943D4802940694089409940A948F
:103480000B940C940D940E9437490F94C0E90014DA
:10349000FF21C0E90241046144618461FFF74AF9F8
:1034A000002818BFFDF728FA4FF48050109010A99B
:1034B0002E48FFF732FA002818BFFDF71DFA2B48F7
:1034C000FFF700FD002818BFFDF716FA2020CDE910
:1034D000140414A92548FFF7E2F8002818BFFDF7E7
:1034E0000BFA602000907F20CDE90104039404943E
:1034F0000594002269461D480694FFF7CDFB00287D
:1035000018BFFDF7F9F9042269461848FFF7C4FB14
:10351000002818BFFDF7F0F9082269461348FFF7A5
:10352000BBFB002818BFFDF7E7F90C2269460F48DE
:10353000FFF7B2FB002818BFFDF7DEF908944FF43F
:103540000050CDE90C400A9409940B9408A907484F
:103550000F94FFF77BF8002818BFFDF7CDF903485B
:10356000FFF754FB16B010BD000001408C41002055
:1035700010B586B000241848009401940294039476
:103580000494144905940160A721C0E901143F2166
:10359000C0E903148461FFF7CDF8002818BFFDF7D8
:1035A000ABF94FF48050009069460B48FFF7B5F92E
:1035B000002818BFFDF7A0F92020CDE9040404A9D4
:1035C0000548FFF76CF8002818BFFDF795F906B01D
:1035D00010BD000000040040D441002010B596B09A
:1035E000002410941494129413941594009411943C
:1035F00001940394049405943D480294069408941D
:1036000009940A940B940C940D940E9437490F94DA
:10361000C0E90014FF21C0E90241046144618461F2
:10362000FFF788F8002818BFFDF766F94FF48050BF
:10363000109010A92E48FFF770F9002818BFFDF769
:103640005BF92B48FFF73EFC002818BFFDF754F943
:103650002020CDE9140414A92548FFF720F80028FC
:1036600018BFFDF749F9602000907F20CDE90104E3
:10367000039404940594002269461D480694FFF7BC
:103680000BFB002818BFFDF737F9042269461848DC
:10369000FFF702FB002818BFFDF72EF90822694644
:1036A0001348FFF7F9FA002818BFFDF725F90C2297
:1036B00069460F48FFF7F0FA002818BFFDF71CF91C
:1036C00008944FF40050CDE90C400A9409940B94EF
:1036D00008A907480F94FEF7B9FF002818BFFDF7A7
:1036E0000BF90348FFF792FA16B010BD0004014031
:1036F0001C42002000B585B00021114800910191C5
:1037000002910E4A03910260A422C0E901211F2206
:10371000C0E903218161FFF70DF8002818BFFDF70C
:10372000EBF84FF48050009069460548FFF7F5F834
:10373000002818BFFDF7E0F805B000BD00400140CB
:1037400064420020FEE700F08BFC642001F0B8FE2C
:10375000F9E700003B4E3C4D3C4C002794F87000CC
:1037600010F0100F0ED094F845003949C0F3440210
:1037700004F14C0000F09EFA01F0ECFA7D2001F01B
:103780009FFEEBE710F0010F18D0317800F0020235
:103790000A430FD000290CBFC0F34001012194F867
:1037A000712020F0040061F3000284F8712084F895
:1037B00070001CE010F0040F19D112E010F0020F9D
:1037C00015D1317851B194F8711020F0040041F016
:1037D000010184F8711084F8700008E010F0040F03
:1037E00005D194F8710020F0010084F8710094F87C
:1037F000710010F0010F14D002F028F994F876004F
:1038000028B9287820F0F80067F38200287028781B
:1038100010F0040F14BF0221012161F30100287090
:10382000AAE702F091F994F8700010F0010F1ABFA6
:1038300010F0080F03210021287861F3010028709F
:103840009AE700008900002091000020F442002047
:10385000C84300200F4C00BF94F8710010F0020F15
:1038600005BF94F8700010F0100F0020012000F048
:10387000DFFF94F8450094F84430C0F34402064951
:1038800004F14C0001F00AF84FF4967001F018FEB4
:10389000E2E70000F4420020C8430020304D314CE4
:1038A0004FF08057012600BF94F8710010F0020F0E
:1038B00005BF94F8701011F0100F00210121C0F322
:1038C000400002F03DFA00F049F901F0F7F894F8F1
:1038D000700010F0100F04BF94F87610002921D06A
:1038E000297806EBD10262F3C701297011F0F80FB5
:1038F00004D126EA910262F38201297094F87610CD
:10390000A1B194F8971007EB71114FEAF16184F8B7
:10391000971011F01E0F04BF26EA010262F30001A6
:1039200008D009E0297821F00401297094F8971053
:1039300021F0010184F8971010F0010F0CD0E16E16
:1039400000291CBF481EE06606D120F00100410896
:1039500061F3C30084F870000A2001F0B1FDA3E711
:1039600091000020F442002010B5502080F311880F
:10397000BFF34F8FBFF36F8F02F0FEFC18B1044905
:103980004FF080500860002080F3118810BD0000C7
:1039900004ED00E030B593B0002522480295039570
:1039A000049505950C950D950E950F95109501684C
:1039B00041F080510160006800F0805011901A4879
:1039C000016841F4804101600068022400F48040F5
:1039D000119001200090000401908001CDE9064083
:1039E00006200890A820CDE9090407200B9068461E
:1039F000FEF7C4FB08B172B6FEE70F20CDE90C0458
:103A00004FF4A050CDE90E504FF480501090052196
:103A10000CA8FEF79BFA002804BF13B030BD72B6A5
:103A2000FEE7000040380240007000400448016892
:103A300041F47001016003494FF000600860704775
:103A400088ED00E008ED00E010B50448FFF728F825
:103A5000BDE810400248FFF723B800008C41002069
:103A6000644200200148FFF71BB80000AC42002070
:103A7000F0B402682C4B2D4C2D4D2E4EDFF8B8C003
:103A8000984218BFB0F1804F07D0A04218BFA8429B
:103A900003D0B04218BF604504D14F6822F07002D5
:103AA00047EA0202984218BFB0F1804F25D0A042E9
:103AB00018BFA84221D0B04218BF60451DD0A0F168
:103AC0008044B4F5A0341CBFA0F18044B4F5A23406
:103AD00013D0A0F18044B4F5A4341CBFA0F18044FD
:103AE000B4F5C05409D0A0F18044B4F5E0541CBF33
:103AF000A0F18044B4F5005403D1CC6822F44072A4
:103B000022434C6922F08002224302608A68C2622A
:103B10000A688262984212BF6045096901634FF0EA
:103B200001014161F0BC7047000001400004004009
:103B300000080040000C00400004014002E008C8FA
:103B4000121F08C1002AFAD170477047002001E017
:103B500001C1121F002AFBD17047000070B5284830
:103B6000294C4FF4804190F8450010F0010F254892
:103B700027D00646FEF70CF90025002804BF207860
:103B800000280CD04FF480413046FEF701F9F8B11F
:103B9000608800280CBF2570401E19D00FE06178A6
:103BA00001200029618805D0322908BF657005D041
:103BB000481C04E0012988BF6070F9D9207060803A
:103BC00006E0FEF7E5F8002814BF00200120607031
:103BD0000E4D40212846FEF7DBF80D4C8021207069
:103BE0002846FEF7D5F80B4D607001212846FEF7F8
:103BF000CFF8A07002212846FEF7CAF8E07070BD29
:103C0000F44200200008024088000020000002402A
:103C10008C0000200004024010B442880368C2F304
:103C20008B02C3F38B142244B0F804C05208130A69
:103C3000CCF3051C13FB0CF3002B08BF0123B1F8D8
:103C400000C09C4283BFE31A63F30B0CA1F800C0D1
:103C50000CF4704398BF0B804088C0F38B0340F690
:103C6000FF70A0EB030C0001944507D91A44B1F88A
:103C7000013062F30F13A1F8013004E0B1F8012024
:103C80000243A1F801200B88B1F80120C3F30B0C0B
:103C9000BCEB121F04D832F00F021CBF10BC7047DF
:103CA00003F470420A80B1F801201043A1F801002A
:103CB00010BC70472DE9F05F0546140088464FF0B0
:103CC000000018BFB1490BD0C0EBC00211F800C012
:103CD000AB5C401C6CF34513C0B2AB548442F3D8C8
:103CE000AB4FDFF8B0C297F870000CF10809A9F1EA
:103CF0001C0610F0400F30781AD0012822D900207D
:103D0000002C12D9C0EBC0014A193CF810301168E0
:103D100063F39111116039F810305188401C63F33E
:103D20008D01C0B251808442ECD80520307001E092
:103D3000012807D998480122017822EA910262F30A
:103D40000101017030784FF6FF7243F6FC7340F6C4
:103D5000FF7A052828BFBDE8F09FDFE800F00332B6
:103D60005463AB0097F8700010F0100F08BFBDE867
:103D7000F09F4FF4485070600020002C1BD900BF0A
:103D8000C0EBC00129440B68C3F38B132CF810302F
:103D90004B88C3F38B0329F810300B68401C43F4A5
:103DA0007F5343F470330B604B88C0B26FF38D03C5
:103DB0004B808442E4D8A7F86A2001F047FE022035
:103DC00075E097F8700010F0100F08BFBDE8F09F85
:103DD0000020002C13D900BFC0EBC0012944401CB7
:103DE000D1F800C0C0B26FF3911CC1F800C0B1F8A7
:103DF00002C084424CEA030CA1F802C0ECD8A7F838
:103E00006A20042053E07068642803D9401E706063
:103E1000BDE8F09F97F8700040F0200087F8700030
:103E2000032044E070680028F0D10021002C84BFFA
:103E30004FF4801CCCF1000832D900BFC1EBC100A7
:103E400028440268B0F802B0C2F38B19CBF38B0E92
:103E5000F14504D82BF0030939F4404905D16FF33B
:103E60009112026042881A434280D0F800B0B0F844
:103E70000290CBF38B1EC9F38B0296450CD15245B1
:103E80003DBF0CEBB9324FEAB242428008EBBB4275
:103E900024BF4FEAB2320260481CC1B2A142CDD366
:103EA000B7F86A00401FA7F86A003078401C3070ED
:103EB000BDE8F09F01F048FE0021317097F87000D6
:103EC00061F30410010961F38610810961F3451063
:103ED000002187F87000002C8CBF4FF6F077BDE80A
:103EE000F09F00BFC1EBC100431901EB41005A88AC
:103EF000D3F800C0C2F38B02CCF38B163244B3F874
:103F00000490520840444FEA122CC9F305191CFBD7
:103F100009FCBCF1000F08BF4FF0010C664506D943
:103F2000A6EB0C0C06886CF30B06068005E0B0F8D7
:103F300000C00CF4704CA0F800C05B88C3F38B0386
:103F4000AAEB030C944588BF1344B0F801208CBF42
:103F500063F30F123A43A0F801200288B0F8013051
:103F6000C2F30B0CBCEB131F02D833F00F0307D1C5
:103F700002F470420280B0F801203A43A0F8012018
:103F8000481CC1B2A142ADD3BDE8F09F8C00002017
:103F9000F44200202C0200209100002070B58AB06D
:103FA00000262D4C019604960096029603960696DE
:103FB000284809960121206008910791274D0E217C
:103FC0000591A978C908C904090C00914CF2F801BF
:103FD00002916946FCF7E2FF0F200590E878A97886
:103FE00080078009C90840EAC14040F0804081B2A2
:103FF000000CCDE900014CF2F830CDE9020669462B
:104000002068FCF7CBFF102005902868A978C0F342
:104010004D104001C90840EAC14040F0004081B263
:10402000000CCDE900014FF6E07003904CF2FF0068
:10403000029069462068FCF7B1FF02212068FCF776
:1040400097FF01212068FCF793FF2068FDF73CFAF9
:104050000AB070BD54410020A4000020F4420020AA
:104060002DE9F04F8FB04FF00008CDF82080CDF84B
:104070002480CDF81880CDF81C80CDF80C80CDF8C8
:104080001080FE4ECDF814803068029006A800F033
:10409000EDFDFB4F4FF00109002800F035814FF492
:1040A000FA7A4FF0040B072596F8700040F00100F3
:1040B00086F87000C6F86CA09DF81B10C1F3830150
:1040C000062980F01B81DFE801F097BB34033AFD3D
:1040D0009DF81C10002900F011819DF81D1011F0B1
:1040E000010F1CBF40F0080086F8700096F87000C1
:1040F00010F0080F08D011F0040F18BF40F01000A6
:1041000010D000BF86F8700011F0020F74D096F83E
:10411000710040F0040086F8710000F015FEC6F84A
:104120007200EBE011F0080F18BF40F04000E9D139
:10413000EAE710F0080F18BF87F80090DEE010F0F3
:10414000100F7DD19DF80B0020F03C0014308DF84D
:104150000B009DF81C0000284ED09DF81D0010F0AB
:10416000FC0F49D19DF80D1010F0030221F0FC0165
:104170008DF80D1004D0012A3FD0022A6AD0BDE08C
:104180008DF80CB000208DF80D00706CCDF80E008D
:10419000B6F84800ADF8120096F84A008DF8140001
:1041A00002A801F00DFC96F845000024C0F344007D
:1041B000002821D98DF80C509DF80D0020F0030047
:1041C000401C8DF80D00C4EBC4003044C16CCDF828
:1041D0000E10B0F85010ADF8121090F852008DF893
:1041E000140002A801F0ECFB601CC4B296F8450074
:1041F000C0F34400A042DDD880E096F845000024DA
:10420000C0F34400002879D98DF80C509DF81D00AA
:104210009DF80D1060F30101C4EBC40030448DF82B
:104220000D10C16CCDF80E10B0F85010ADF8121092
:1042300090F852008DF8140002A801F0C1FB00E0D4
:104240005AE0601CC4B296F84500C0F34400A04296
:10425000DAD853E096F845C01CF03E0F4ED09DF8DA
:104260001E2012F01F0F19D060F3010102F01F0091
:10427000C0EBC0008DF80C5030448DF80D10D0F814
:104280001910CDF80E10B0F81D10ADF81210C07F47
:104290008DF8140002A801F093FB2FE00024CCF36A
:1042A000440000282AD900BF8DF80C509DF81D004D
:1042B0009DF80D1060F30101C4EBC4008DF80D10E2
:1042C000304400E015E0016ACDF80E10818CADF8A5
:1042D000121090F826008DF8140002A801F070FB6F
:1042E000601CC4B296F84500C0F34400A042DBD87D
:1042F00004E010F0100F35D087F8019006A800F008
:10430000B5FC00287FF4D0AE96F8701011F0080FBD
:1043100002D011F0100F71D087F800807878C8B102
:1043200087F801809DF80B0020F03C00001D8DF8FF
:104330000B0006208DF80C0006F13C0000F0E6FCB6
:10434000F06BCDF80D00B6F84000ADF8110002A8F2
:1043500001F036FB4C484B49006801F035FC0FB0CA
:10436000BDE8F08F9DF81C100029C7D09DF81D00F6
:1043700010F0FC0FC2D1B6F84520C2F38512B2EBA3
:10438000900FBBD310F0030039D00128B6D19DF8AF
:104390001E0096F8452000F01F00C2F34402904230
:1043A00020D8BDF82220C2F30512322A1AD8DDF82F
:1043B0001E20BDF82030C2F38B12C3F38B0393424F
:1043C00028BF07290ED3C0EBC0013144DDF81E2001
:1043D000C1F84520BDF82220A1F849209DF82420ED
:1043E00081F84B2000EB40022849C0EBC00011448B
:1043F00030444530C91EFFF70FFC7FE71AE09DF8F7
:104400001E0086F844009DF81F0096F8451060F3E2
:10441000000186F845109DF82000010996F8460035
:1044200061F3051086F846000109F07861F3010098
:10443000F07063E79DF81800C0F3C100022808BFC0
:1044400041F0020004D0012808BF21F0020001D190
:1044500086F8700096F87000C0F34001C0F3800247
:104460001143FA78914204D1BB78C0F300129A420A
:1044700003D0F970C0F30010B87009E0F4420020D6
:10448000A80000209A000020A4000020C8430020BB
:10449000F068D6F80510C0F31320C1F31321884249
:1044A0000ED1D6F80E00D6F80710000BB0EB113F76
:1044B00006D100F017FC3178C1F3C101884210D059
:1044C0007068C6F80B003089A6F80F00B07A7074D7
:1044D00000F008FC317860F3C401317087F8009077
:1044E00003E0387800283FF419AF87F8018087F897
:1044F0000080CDF82C80CDF83080CDF83480316844
:104500000A919DF82B10012021F03C0108318DF813
:104510002B109DF82D1060F3010121F00300401CC9
:1045200020F0FC008DF82D0008208DF82C0070681C
:10453000CDF82E003089ADF83200B07A8DF8340015
:104540000AA801F03DFAE9E670B56420FDF7DCF950
:104550007F4C94F83C0020F01F00801C84F83C0045
:10456000A08F20F4F0706030A0877A480168801D29
:1045700021600278A0F1010C9CF8003000789CF8D2
:1045800000C00502B4F83D0065F34B000CEB500C85
:104590006CF34B0003EB022262F34B006E4AA4F86B
:1045A0003D00137894F845204FF01E0C63F345024C
:1045B00084F84520A378BCEBD30F14D26FF35211CB
:1045C00080312160A17821F0F8012831A170E178D3
:1045D00021F00301491C41F0C001E17022F03E01CD
:1045E000083184F8451094F84510C1F34402042AB8
:1045F00004D921F03E01083184F84510C0F34A0186
:1046000040F2E272914203D3A1F5E062FF3A05D194
:104610006FF34B0000F6C870A4F83D004F490878CE
:104620000025FF2856D0B1F8010010F47C6F51D15D
:104630004878C0F3440004284CD894F84500C0F3EF
:1046400044024878C0F34400824243D1C88C002819
:1046500040D0C88CA0F57F42FF3A3BD0487800227A
:10466000C0F34400904229D9C2EBC2035818037A20
:1046700003F01F0C531C9C452CD1028990F80AC0F2
:1046800042EA0C42C2F38B1C4289C2F38B0294456E
:1046900020D88289C2F30512322A1BD8427BC2F38A
:1046A0008202042A16D8007AC0F34010012811D8DB
:1046B0004878DAB2C0F344009042D5D8282204F1F9
:1046C0004400FBF70EFE282204F144012448FBF7C6
:1046D00008FE01E000F052F822482349057094F8E2
:1046E0004500C0F3440204F14C00FFF7E3FA94F8EC
:1046F00045100020C1F34401002910D9411CC0EB32
:10470000C000204490F8202061F3040280F82020AB
:10471000C8B294F84510C1F344018142EED894F830
:1047200046000109E07861F30100E07001F0DCFA75
:104730000A220E490E48FCF741FBFFF72FFC0D48FB
:10474000FEF770F8BDE870400B48FEF7A6B8000011
:10475000F4420020F0BF0008F4BF000800C00008C9
:104760008C43002090000020C8430020B443002068
:10477000AC400020D4410020644200202B4964203A
:1047800081F84400B1F8450020F47C60A1F84500B0
:1047900040F6E440A1F86A0091F8460020F03000AD
:1047A000103081F8460091F845200020C2F3440201
:1047B000002A8CBF43F6FC737047421CC0EBC0005C
:1047C000084490F84CC062F3040C80F84CC0D0F858
:1047D0004CC06FF3911CC0F84CC0B0F84EC04CEA0E
:1047E000030CA0F84EC0B0F850C02CF47C7C0CF147
:1047F000100CA0F850C0B0F84FC04CF47C6CA0F87E
:104800004FC090F851C02CF01C0C80F851C090F8AB
:104810004CC02CF0200C80F84CC0D0B291F8452050
:10482000C2F344028242C8D870470000F44200201C
:10483000002808BF704770B5144C2078002818BFB6
:1048400070BD2822124D05F1440105F19800FBF7D7
:104850005AFD002808BF70BD00F09EF9002818BF5F
:1048600070BD02202070282205F14401094800F0A3
:1048700099F9002818BF012006D1282205F144012A
:104880000548FBF72EFD0020207070BD9000002031
:10489000F442002000C000088C4300202DE9F04FB6
:1048A000834D854C4FF0000695F871C01CF0010F48
:1048B000DFF800C204D095F8707017F0100F2ED0FA
:1048C0006420CCF80400B5F80700C0F30B00C5F86D
:1048D0000700010BD5F8050061F31B20C5F80500A2
:1048E000000A85F87600002A08BFBDE8F08F04F1C1
:1048F0000C0012F0010F03D040F8046F40F8106C68
:10490000510808BFBDE8F08F466040F80C6C40F8D5
:10491000086F491E40F8106CF6D1BDE8F08FDCF846
:104920000470002F1EBF781ECCF80400BDE8F08F85
:104930004FF0000C0127E146002A88BF4FEA4308E8
:1049400074D900BF09EB0206CCEBCC0909EB000AD5
:10495000F6B2BAF803A0CAF3851ABAF1120F6FD3F0
:10496000A9440AF1080EB9F820B0CBF3451BDE4587
:1049700024BF0BF1080BD34554F82CA018D2BAEB86
:10498000430F38BF0AF1010A02D200BF44F82CA03D
:10499000534514D295F876A007FA0CFB1AEA0B0FD0
:1049A0001CD144F82C804AEA0B0A85F876A015E061
:1049B000BAF1000F18BFAAF1010AE7D1E8E795F8AC
:1049C00076B007FA0CFA1BEA0A0F07D02BEA0A0A9C
:1049D00085F876A04FF0000A44F82CA0B9F8219091
:1049E000C9F3CB0A0CEB4C098944B9F801B0BAEB16
:1049F0001B1F05D8B9F80090C9F30B09D14516D98A
:104A000054F82690B9EB430F38BF09F1010901D2E0
:104A100044F826904B4595F876A007FA06F90AEA7D
:104A2000090B15D2BBF1000F1DD10AE023E054F8A9
:104A30002690B9F1000F18BFA9F10109E8D1E9E703
:104A400011E044F826804AEA090685F876600AE013
:104A5000BBF1000F07D02AEA090985F876904FF0DC
:104A6000000944F826900CF1010C0CF0FF0CE14613
:104A70009445FFF467AF95F8451095F87600C1F3BB
:104A8000440107FA01F2521E00EA020CD5F8053083
:104A9000C8406CF31B23C5F8053000EA0201D5F8C5
:104AA000070061F31F30C5F80700BDE8F08F000074
:104AB000F4420020AC0000207445002070B5334E55
:104AC000334C4FF0000596F8710010F0040F15D02C
:104AD00000F03AF9D6F87210401AB0F5617F02D8AA
:104AE00096F8760028B996F8710020F0040086F850
:104AF000710096F8710010F0040F3BD196F8760023
:104B000000281CBF96F8710010F0010F32D02078F9
:104B1000122832D2DFE800F00916091609161B2107
:104B20001B211B2109160916092601206070A068A7
:104B30000A2804D1A5602078401C20701DE0401C8C
:104B4000A0601AE06570A0680A28F8D1F2E7012099
:104B50006070A0681E28F2D1ECE76570A068142888
:104B6000EDD1E7E76570A068642804BF2570A560F3
:104B700003D0E4E765702570A5606278BDE87040F9
:104B80004FF400510348FDF708B90000F44200203B
:104B9000AC00002000080240014800787047000087
:104BA000B80000202DE9F04F2C4F064687B038782A
:104BB00092460D4600281CBF07B0BDE8F08F4FF0AD
:104BC000000BCDF814B0CDF800B0CDF808B04FF020
:104BD0000209CDF80CB087F8009021484FF0010889
:104BE000CDF81090CDF80480864234BF0320042015
:104BF000CDF80C801B490290F3200860FCF7AEFF53
:104C000005A96846FCF794FE38B1FCF739FF87F830
:104C1000008007B04046BDE8F08F0024BAF1000FD5
:104C200017D92819295D407887F8009001EB0020FA
:104C300082B2311900230120FCF72CFF30B1FCF7C0
:104C40001FFF4046387007B0BDE8F08FA41C5445E4
:104C5000E7D3FCF715FF5846F4E70000B800002042
:104C6000000001080C3C024000F08ABB1C490022F5
:104C70000B78002B31D08B784A6803EB830C0CEB5C
:104C8000C3031A44126802608B784A6803EB830CF2
:104C90000CEBC3031B1DD25C02718B784A6803EBDB
:104CA000830C0CEBC3035B1D1A441268C0F805208B
:104CB0008B784A6803EB830C0CEBC30309331A446B
:104CC0001268C0F809208878CA78401C521E10402B
:104CD00088700878401E0870012210467047000056
:104CE00092000020084890F8700010F0100F1CBFD0
:104CF0000320704710F0060F1CBF0220704710F011
:104D0000080018BF01207047F44200200C494FF4FE
:104D100061628968B1FBF2F3D0F8012063F31F32BE
:104D2000C0F80120074AA2FB01314909A2FB013268
:104D30005209A2EB021201EB82014171704700009F
:104D40003C020020898888880148806870470000FC
:104D50003C02002007494869074A20F410401278B5
:104D6000C2F34003DB0302F0010243EA02321043C4
:104D700048617047000002409100002000000000E0
:104D80002DE9F14FFE4BFF4E2DED048B82B0188ABA
:104D9000B18860F30B01FC48B1805A8A428090F8D8
:104DA00008C00CF1010C0CF0070CC0F808C096F814
:104DB00070C01CF0200F09D0B6F86AC0C1F30B0117
:104DC0008C4588BFA6F86A10A6F8682096F84510AA
:104DD0000024C1F3440100299EBF02B0BDEC048B46
:104DE000BDE8F88F9A46E94F9FEDE99BCDF800208A
:104DF000C4EBC4029519B5F84FB01BF47C6F00F0FA
:104E00001682E54804EB440800EB880CDCF804103B
:104E100040F828103AF81400CCF80400069BA0EBE8
:104E2000010013445A79C2F38202042A30D0DCF81C
:104E300008104043C1EB012101EB8000D74900126B
:104E4000CCF8080051F83420C2EB022202EB00102B
:104E5000000A41F83400D148DFF84893D04A50F8AE
:104E6000341000EBC400416019F80490002002EBFC
:104E7000092200BF52F820E071456DD25979C1F383
:104E80008201052922D2DFE801F019353A404600B7
:104E9000DCF80810C1EB012100FB0010BF49001233
:104EA000CCF8080051F8342000EB4000C2EB02229D
:104EB00002EB4000000A41F83400CCE73E2898BFDE
:104EC000411C2CD8288C61F34A102884B9F1000FBA
:104ED00031D05879C0F382000428288C21D007EB08
:104EE0000411C0F34510C96801EB410100EB9120AA
:104EF000C0B229E0392898BF811DE3D90FE03628D8
:104F000098BF00F10901DDD909E0352898BF00F10B
:104F10000A01D7D903E03B2898BF011DD2D93F2110
:104F2000D0E7C0F3451107EB0410C06800EB400068
:104F300001EBD020DCE707EB0411288CC968C0F333
:104F4000451000EB9120C0B23F2888BF3F20298C3C
:104F500060F34A11298403E0401CC0B23F2889D97C
:104F6000914901EB8800426841F828200AEB44018E
:104F700009894160891A01FB01F28168C1EB811145
:104F800001EB0211891181605879C0F38200042875
:104F900075D0DCF808004901801191FBF0F007EBB7
:104FA0000411086007EB0410D0E900218A428CBF8D
:104FB0004FF001084FF0000834BF4FF0010C4FF0E4
:104FC000000CA8EB0C0C61444160D0F808C0BCEBAD
:104FD000510F34BF4FF001084FF00008CCEB4C2CC0
:104FE000614408EB51218160B9F1000F51D0D0F834
:104FF0000CC0CCEB4C1808EB91014FEA511802EBB6
:105000004201BCEB111F2CBF0021012108EB8101E3
:10501000C1600846B1F5805F28BF40F6FF70B5F863
:10502000218060F3CE08A5F8218096F8700010F07A
:10503000200F6ED028F0070030F4004018BF1BF49A
:105040007C6F65D095F84C0010F0200F32D01968B5
:10505000C8F3CB00C1F38B12824284BF60F391117D
:105060001960B5F821005988C0F3CB00C1F38B0259
:10507000904284BF60F38D015980D8E0FFE748017A
:10508000DCF80810091190FBF1F007EB041108603F
:1050900088E7C26801EB410CB2EB9C1F34BF4FF0B4
:1050A000010C4FF0000CC2EB421202EB11110CEBA1
:1050B0005111ADE71868C8F3CB01C0F38B129142D0
:1050C0000ED23A4A12F804C0BCF1040F22D00CF1FF
:1050D00001001055364850F82420114440F824109F
:1050E000B5F82100C0F3CB025888C0F38B01914280
:1050F0000ED2304911F804C0BCF1040F24D00CF1D9
:10510000010008552C4850F82410114440F8241090
:105110008DE055E0264931F824C04FEA9C0C6CF331
:1051200091101860002041F82400105523480178A0
:1051300011F0040F14BF0022022262F3010101707A
:10514000114964204860CBE71B4A32F824C04FEA7B
:105150009C0C6CF38D005880002042F82400085508
:105160001649087810F0040F14BF0022022262F3DF
:105170000100087004496420486058E00000000005
:10518000B4430020F44200201802002024460020EE
:105190000000000000805B40A44500200446002081
:1051A000486800088C000020D44500202802002018
:1051B0007446002024020020644600209100002054
:1051C00095F84C00009910F0200FB6F868000FD049
:1051D00081422CD9C8F3CB025143B1FBF0F0FBF76D
:1051E00038FAFBF743FA60F3CE08A5F821801EE0F9
:1051F00088421CD9401AFBF71BFA53EC192BFBF71A
:10520000A8F99FED131B53EC112BFBF789F841EC28
:10521000180BC8F3CB00FBF71CFA53EC182BFBF769
:1052200026F9FBF723FA60F3CE08A5F82180601C6D
:10523000C4B296F84500C0F344008442FFF4D8ADF0
:1052400002B0BDEC048BBDE8F88F00000000000048
:10525000000000000000F03FFCF7B2FDFEF79AFBF3
:10526000FEF746F8FDF7F6FFFDF732FFFEF7F4F81C
:10527000FEF77EF9FEF7B2F9FEF73CFAFDF7C4FF40
:10528000FEF7D8F8FFF760F9FDF7FAFF00F020F914
:10529000FEE700002DE9F003334A344B02EB400CEB
:1052A000344C9CF800208CF801208CF80010002170
:1052B00043F82010C0EBC00101EB410104EB810178
:1052C0002D4DC0EBC0042C44294A94F8514002F102
:1052D0005405C4F38204C4EBC40405EB440407255D
:1052E00011F104019CF900609CF90180D1F8009053
:1052F000A6EB080652F8048B34F9027B06FB08F68D
:1053000052F8048B08FB096652F8048BD1F804901C
:1053100008FB09664FEAE67806EB5856F61241F8A4
:10532000046C53F820806D1E07FB068643F820604E
:105330000E684E6051F8046C41F80C6BD2D153F8F2
:1053400020000E4990FBF1F0802101EA202100F0BD
:105350007F00084440B210F17E0FB8BF6FF07D00AF
:10536000BDE8F00370470000BD0000209445002018
:10537000AC660008C8000020F4420020A28B0E009A
:105380002DE9F0474548FDF7FBF8454C0546454EED
:1053900094F84500444FC0F34400DFF810814FF00B
:1053A0007F0902283CD003281DD0042855D1B4F829
:1053B000640010F47C6F16D029160320FFF76AFFF3
:1053C00040B200F17F013164F978B4F8642008EB51
:1053D000C111C2F3851231F8121011FB00F03449EB
:1053E00009EBA0200860B4F85D0010F47C6F17D0C2
:1053F00045F307410220FFF74DFF40B200F17F0166
:10540000F163B978B4F85D2008EBC111C2F38512DD
:1054100031F8121011FB00F0264909EBA0200860BA
:10542000B4F8560010F47C6F17D045F30721012023
:10543000FFF730FF40B200F17F01B1637978B4F833
:10544000562008EBC111C2F3851231F8121011FB7E
:1054500000F0194909EBA0200860B4F84F0010F4DF
:105460007C6F08BFBDE8F08769B20020FFF712FF2C
:1054700040B200F17F0171633978B4F84F2008EB36
:10548000C111C2F3851231F8121011FB00F00B4963
:1054900009EBA0200860BDE8F08700007C410020F7
:1054A000F4420020000001408C0000204667000804
:1054B000400401403C0401403804014034040140F0
:1054C00010B5002808BF012000F07EFD002010BDAF
:1054D00010B500F09FFD002010BDF0B54669B0F991
:1054E00008C04768026985B0002E1CBF8569002D81
:1054F0004FF0000410D0BCF1840F18BF0CF103046E
:105500000295CDE9004600680B460146384600F09A
:10551000CAFE039005B0F0BDBCF1840F18BF0CF1BA
:10552000030403ABCDE9004300680B46014692B289
:10553000384600F05DFE012814BF0020039805B036
:10554000F0BD00002DE9F041194C0F460546E66814
:105550002068001D00F046FC48B92068012190F841
:105560002C0001FA00F0216921EA00002061B5F168
:10557000FF3F07D137B12068BDE8F041011D0D485C
:1055800000F079BC20683544B5424560206800F1E0
:10559000040104D2A06BBDE8F04100F04FBC606B89
:1055A00000F04CFCA06AA84288BFA562BDE8F0816B
:1055B00010000020440300202DE9F041054600F0D2
:1055C00067FC2E4EB068401CB06030682C4F10B1A4
:1055D000706920B329E03560B068012808BF002455
:1055E00023D100BF04EB840007EB800000F018FC1F
:1055F000641C072CF6D3234800F012FC224800F06C
:105600000FFC224800F00CFC214800F009FC214866
:1056100000F006FC1B4870631430B06305E030688E
:10562000E96AC06A884298BF3560706A0121401CEF
:105630007062E86A326981401143316100EB800099
:1056400007EB8000291D00F016FC00F041FC70699A
:10565000002808BFBDE8F0813068E96AC06A884266
:1056600028BFBDE8F0814FF080500B490860BFF3C0
:105670004F8FBFF36F8FBDE8F08100001000002056
:1056800068020020F4020020080300201C03002010
:10569000300300204403002004ED00E01F4E204CA6
:1056A000DFF88090A6F1C8074FF08058606850B3CB
:1056B00000F0EEFBF068C568281D00F093FBA068C1
:1056C000401EA0606068401E606000F001FC95F81C
:1056D000510058B1012810D0022811D0502080F379
:1056E0001188BFF34F8FBFF36F8FFEE7286B00F079
:1056F00005FC284600F002FC02E0284600F0FEFB14
:1057000060680028D4D138680128CFD9C9F8008052
:10571000BFF34F8FBFF36F8FC8E700003003002047
:105720001000002004ED00E009484068B0F1FF3FA0
:105730004FF0500080F3118804D0BFF34F8FBFF3B8
:105740006F8FFEE7BFF34F8FBFF36F8FFEE7000051
:105750006C0000202DE9F05F0646002400F090FC6C
:10576000DFF874C100250CF11802DCF8000008BB5A
:105770005A494FF4705011F0070F06D0C81D20F0A1
:1057800007015648081AC0F5705008440838C2E9A5
:10579000001520F00700CCF800004560431A0560B2
:1057A000C1E90003CCF808304FF00040CCF80430D9
:1057B000CCF81400DCF814703E427CD1002E7AD074
:1057C00006F1080313F0070F0FD003F00700C0F134
:1057D0000800034413F0070F07D0502080F311880E
:1057E000BFF34F8FBFF36F8FFEE7002B63D0DCF862
:1057F0000460B3429CBF3A4912685CD85068984232
:1058000005D2106800281CBF11460246F6D1DCF80C
:10581000008042454FD0086800F108041068086015
:105820005068C01A102833D9D11811F0070F07D0CB
:10583000502080F31188BFF34F8FBFF36F8FFEE7C7
:1058400048605360264B1868884238BF0346FAD335
:10585000D3F8049009EB030A8A4503D14968494407
:1058600059601946D1F8049009EB010A824518BF26
:1058700008600AD1404508BFC1F8008005D04068E3
:10588000484448601868006808608B4218BF196077
:105890005168701ACCF80400DCF80830834288BFE5
:1058A000CCF8080041EA0700C2E90050DCF80C001F
:1058B000401CCCF80C0000F0D5FD14F0070F04BF1D
:1058C0002046BDE8F09F502080F31188BFF34F8F32
:1058D000BFF36F8FFEE700004C000020580300204C
:1058E000640000204FF0807C40F804CC21F00101DE
:1058F00040F8081C054B40F80C3C40F8202C6FF099
:10590000020240F8242C4438704700002957000850
:1059100010B40B7891F803C0634541D291F801C0EF
:105920004B680CEB8C0404EBCC0C63444FF4D87440
:10593000D0F800C004EB02145CF804C0C3F800C047
:1059400093F800C04FF4DA742CF0070C83F800C011
:10595000D0F800C004EB02145CF804C083F804C063
:105960004FF4DC74D0F800C004EB02145CF804C0FF
:10597000C3F805C04FF4DE74D0F800C004EB021485
:105980005CF804C0C3F809C04B7891F803C05B1CF5
:10599000ACF1010C03EA0C034B700B785B1C0B7031
:1059A0000068012A05D0C16841F02001C16010BC27
:1059B0007047016941F02001016110BC704700008F
:1059C000214910B40B7891F803C00022634537D207
:1059D00091F801C04B680CEB8C0404EBCC0C6344D5
:1059E00002681A6091F801C04B680CEB8C0404EB60
:1059F000CC0C0CF1040C027903F80C2091F801C0D6
:105A00004B680CEB8C0404EBCC0C0CF1050C6344E0
:105A1000D0F805201A604B784A6803EB830C0CEB36
:105A2000C30309331A44D0F8090010604878CA78D3
:105A3000401C521E104048700878401C087001221B
:105A400010BC1046704700009A000020AFF30080A1
:105A500010B5394C94F8710010F0020F18BF10BD4A
:105A60000122D1033548FCF798F994F8710040F011
:105A7000020084F8710094F84500C0F34400022845
:105A80002DD0032816D004283ED1B4F864004FF07E
:105A90000C0110F47C6F2A4806D0FDF743FA0C2164
:105AA0002848FDF73FFA05E0FDF7ACFA0C21254840
:105AB000FDF7A8FAB4F85D004FF0080110F47C6F10
:105AC0001F4806D0FDF72EFA08211E48FDF72AFAD6
:105AD00005E0FDF797FA08211A48FDF793FAB4F8A4
